:02000004C0DE5C
:1000000070B58CB062B6002808D02D494A46531806
:1000100001686C22184618F085FE04E0284849461D
:10002000081804F0A9FD274E15F0AAFE48468019CD
:100030004F218A000024214607F081FE07F064FE6C
:100040006D46284619F0D6F9A88580B2102805D14A
:10005000684684850A9816F019FBE5E7002809D060
:10006000684684850A9816F011FB02F0F9FD2046D7
:100070000CB070BD684616F009FB0A9008F0E4F871
:10008000052000242146224616F02EFA0E494A4643
:1000900051184862204617F0B3FB0125284617F097
:1000A000AFFB204607F078FC2046214600F0E8FF31
:1000B00006497944284600F0E3FF07F05FFAC0469E
:1000C0006000000090020000BC07000026970100BD
:1000D000F0B593B012930F46044600787F2101409B
:1000E000052900D1CCE215460E91208B00F0D8FAFC
:1000F00000280F95119765D04279867900200A90E3
:10010000002F67D0002D65D00992208BE188129ACC
:100110000092EBB2643189B23A4600F0E7FAE18826
:100120000022052D0D9208960C905AD3884258D97A
:10013000208B129900916421914A7A44032300F0A4
:10014000D5FA0A9068083E18E188002810904AD035
:100150000C9A8A4247D92F1A45D000200B90208B49
:10016000129D009589B2109AD3B2119A00F0BEFA8E
:100170000C90E188208B0095FBB2324600F0B6FA75
:100180000A990C9A51180D18E1888D420C952AD9BC
:100190000B9F012F06D0002F05D11098401E0F9BFA
:1001A000119A03E0761C0F9B119A1098002810906A
:1001B00019D08D4217D90120B843921BD7180B9044
:1001C000CDD110E0002110910C910A460E46084650
:1001D0000A9103E00A9910910C9108460B910E9B2D
:1001E00033E0164610950A9603239D03208B0540A5
:1001F0000122D703BD420CD09703BD420D9D0B9544
:100200000F9D119F089E0CD10C9E891B089E0B917F
:1002100007E00C9D6D084908491B0B910F9D119F2C
:10022000089E190308405103884205D011038842F3
:1002300008D12089801B06E07008C0432189490845
:10024000081800E00D980E9B099A032B07DC0D900F
:10025000012B5FD0022B0BD0032B5BD010E2042BC1
:1002600053D0062B00D196E10D90072B00D007E26A
:10027000207B01282CD10992072B314600D0002188
:1002800004200790205E0891421A0227E15F60690E
:10029000072B099B00D0238900930B9D2B4616F05A
:1002A00083F90C982818E15F4118E288131A07981F
:1002B000205E089A821A60690E9D072D01D025895B
:1002C0000995099D009516F06FF90F9D119F0E9BE2
:1002D000002F00D1D4E1002D00D1D1E108960220F9
:1002E000205E0C9004200790215E206909906269CD
:1002F000208BE68825890397109F0497129F059706
:10030000072B00D15FE10D9B5EE10D90E07A0028A4
:1003100000D1B7E1E3885A0821894808824216468D
:1003200000D30646E57AAE4203D88242154600D392
:100330000546207B012825D104201090225E02274B
:10034000E65F20690091A9196E009B1B16F02CF93D
:10035000E15F1098225E2089831B20690093AA1810
:100360002B4616F021F9E15F1098225E2089831B4D
:100370002069E6880093AA18491B89192B4665E075
:100380008796010004200C90225E0226A75F10963B
:1003900060690091E9196F00DB1B16F005F9A15F98
:1003A0000C9EA25F2089C31B0E9760690093AA1858
:1003B0002B4616F0F9F81098215EA25F2089C31B26
:1003C0006769E0880093AA18EB43C91809183846F2
:1003D0002B4616F0E9F8A05F0A903746109EA15F01
:1003E0002269E388A07A009069180E981B1A1046BB
:1003F0000A9A16F0D9F8E05F0A90A15F2069099087
:100400002289E388A07A009069180E9FDB1B0A9866
:100410008018421E099816F0C7F8A05F0A900C9E3B
:10042000A25F2089C11BA37A20690091AA180A99AA
:1004300016F0BAF81098215EA25F2089C61BA37A35
:100440002069E7880096AA18C919491E16F0ACF869
:10045000022D119869D3207B012802D0A07A281A96
:1004600000D20020109004200C90205E0A90022000
:10047000215E07460E9020696369C0220092109E9B
:100480000196029369180A9AAA182B4600F0D9FA25
:100490000C98205E0A90E05F0890206909906369DB
:1004A000E188A07A30220092019637461096029396
:1004B0002818089A5118091A0A982A1809982B46D8
:1004C00000F0BFFA0E98205E0A900C9EA05F089084
:1004D0002069099063692189A07A0C220092019712
:1004E00002932818089A51180A1A0A982918099884
:1004F0002B4600F0A6FAA05F0C900E98215E2069B2
:100500000E9063692689E788A07A03220092109AE8
:10051000019202932818C919091A0C9A101A821903
:100520000E982B4600F08DFA119800280F9800D1F4
:10053000A6E0002800D1A3E0237B10211420012B8A
:100540000A4600D00246012B00D00846A15810915F
:1005500020580E900220215E0420255E208BE68824
:100560002789A37A119C03940F9C0494129C0594F0
:100570000124E443002B00D05C430D9ABB1A1B19E5
:100580000B9FF61B341955190095019402937B18A3
:100590000E99109A72E00420205EE37AC2180220BD
:1005A000205E19182069267B0025012E03D0A67A2B
:1005B000B34200D99D1B6469FF2600960195029401
:1005C00000F03FFA5CE000231093ED1A0B9FF31B41
:1005D000019302950E9B072B01D00D9B01E0089B18
:1005E0005B420D935B1800930B9B0C995B18099968
:1005F00000F0CBF801460A98002841D0079FE35F3E
:1006000020690C9060690E90208B0990E5882689FE
:100610000891032121487844109AB61A0B9AAD1A12
:100620000D9AD31800AA68C203900491129D0595F3
:10063000089883B209980C990E9A00F0A6F80E90CB
:10064000E35F20690C9060690990228BE688248919
:100650000F98119FC7190A983F1A1099641A0B999D
:10066000761A0D99CB180093019602940390049783
:1006700005950E9883B210460C99099A00F085F8FA
:1006800013B0F0BD0420225E0220215EE3882069C1
:100690002489009415F088FFF2E7C046AB91010071
:1006A000F0B581B00E4D05400E48784401688800D1
:1006B0000D4A7A448018001F4E1C761E0CD0071F6E
:1006C0000468204608F0B8FB0068A8423846F4D118
:1006D000204608F0B1FB00E0002001B0F0BDC046AC
:1006E000FF0F000082A501006EA50100F0B583B0E8
:1006F0001C4615460191FFF7D3FF0026002841D084
:10070000002C019A3ED00026029003892F789F4248
:1007100002D34189B94213D20A2F33D00D2F31D0E1
:10072000B809032803D33F20074039461EE078B2BA
:10073000002100281AD5B806009109D50F2008E03D
:10074000F91A8F00C06808F077FB019AC15D0DE0CF
:100750000E20FFF7A5FF0028019A009906D0C06877
:1007600008F06AFB019AF906490E415C002A03D0A1
:10077000B0B20818904205D86D1C641E7618200689
:100780000298C2D1B0B203B0F0BDF0B5A3B00A93E5
:100790000F91149110921392FFF782FF002800D15D
:1007A00044E12C9907910B90047900200990C043F3
:1007B0000890022C5DD313AD281D3C210D9018F03C
:1007C000ABFA10981390089AA240D0431290800080
:1007D0000F9929500E92901C0C900026F7000F984C
:1007E000F840C5B21098F840C4B2A542284600D3DC
:1007F0002046A542294600D82146081A401C1299D5
:1008000017F0C6FFA542119617D90221C9430E9AC7
:100810008A422AD801210D9A0C9B05464D432D1979
:10082000FF2D00D3FF25BD4016682E4340C25D1C3E
:10083000491C9D422B46F0D217E00221C9430E9A73
:100840008A4212D801210D9A0C9B129C641A4443CF
:100850006419FF2C00D3FF24BC401668264340C215
:100860005C1C491C9C422346EFD2119E761C032E31
:10087000B4D1289C079D002D00D1D9E02A98299950
:100880002B9F02190A9809180D9103460B99099894
:100890002E4601251195AE1B3D780D2807D10A2D56
:1008A00005D1761C7F1C0A20012EF5D1C1E00E93E4
:1008B0000F94134608894A791292854204D30B9902
:1008C0004989A9420B990FD20D2D01D00A2D27D1AC
:1008D00012980F9A121814461018984200DDADE0D5
:1008E0001A4628460A9B67E00C93281A099085004F
:1008F000086908F0A1FA04460B98C06808F09CFA51
:1009000040194088201806900B98C06808F094FAA7
:100910000E9B455D0B98C07907900F9C224613E013
:10092000C02D0C9305D33F212940002009950D4689
:1009300005E068B2002845D40020099505460790D7
:1009400006900F9C22460E9B58190D99884207D994
:100950001298241820180C9988426ADC0A9B2246B7
:100960000698002819D00F920246129868430B99F6
:100970000979484304900392029113A801901198B9
:100980008840009018460F992A4611951D46129BE3
:1009900015F0E8FD2B46119D08E012980090109884
:1009A00019460E932B4615F0FFFD0E9B0B990C9AE2
:1009B00007982818C3180998089D75437F1C002EB6
:1009C00037D065E7A80601D50F2000E00E200F9C68
:1009D000FFF766FE002823D00F90006908F02CFA7C
:1009E00012900F98C06808F027FAE906490E09919D
:1009F000401840881299081806900F98C06808F0AF
:100A00001BFA0999435C0B98807922180F98817919
:100A1000521A407912900020079009951D4692E7DE
:100A2000002009950546079006908BE7002003E01B
:100A30000A9B98B22104081823B0F0BD0E9880B22A
:100A4000F8E7F0B59DB01B921A9106462398411E17
:100A500002468A4118921393191A1291002901DC57
:100A6000002100E00121139A002A00D5C0E1189A64
:100A70000A401892249910912299139FC21B039245
:100A800080220A400A9240220A400D9220220A4007
:100A9000099210220A400C9208220A40089204226D
:100AA0000A400B920123129A9C1A069402240C40CD
:100AB000079419400E911C93DC1B1A994018C01B17
:100AC0000590401C04900025E943501E0F90169598
:100AD0001196481C17900E9800281995159114949A
:100AE00006D10798002855D0189800281FD147E054
:100AF0001898002838D01C9C00940F983B1A1B981B
:100B00004018451C10981A9E31462A4615F04CFD97
:100B10000094149CB819119E0699411830462A4633
:100B2000199D129B15F040FD0798002832D01B98A4
:100B30003D181398B8420AD01C9800900398159954
:100B40004018831C10981A992A4615F02DFD1C9800
:100B50000090059815994018811C30462A46129B32
:100B600015F022FD199D15E01C9800901B98421865
:100B700030461A993B4615F017FD0798002809D012
:100B80001C9800901B983818421E30461A99179BE3
:100B900015F00AFD0B98002806D1089800285AD0B5
:100BA000189800281FD133E01A98C51B1898002800
:100BB00020D01C9C00940F9EBB1B1B9815994018BD
:100BC000421C02921098294615F0EEFC0094149CE9
:100BD000A91B1198029A119E129B15F0E5FC08982A
:100BE0000028199D37D01398B8421BD11B983E1886
:100BF0001C9827E01C9800901B98159942183046C5
:100C000029463B4615F0D0FC08980028199D22D0B3
:100C10001C9800901A9841191B983818421E3046AB
:100C2000179B16E01C9C00941A9841191B983E18BB
:100C30000398159A8018831C1098324615F0B4FC5E
:100C40002046149C0090049841191198324606469B
:100C5000129B15F0A9FC0C98002806D109980028D1
:100C600053D0189800281ED146E01B9845191898B3
:100C7000002835D01C9C00940F983B1A10981A9E9F
:100C800031462A4615F090FC0094149CB819119E28
:100C90000699411830462A46129B15F085FC0998A2
:100CA0000028199D31D01B98C51B1398B84215997F
:100CB0000AD01C98009003984018831C10981A9929
:100CC0002A4615F071FC15991C980090059840185B
:100CD000811C30462A46129B15F066FC199D14E0D3
:100CE0001C98009030461A992A463B4615F05CFC49
:100CF00009980028199D08D01C9800901B98C21BC9
:100D000030461A99179B15F04FFC0D98002806D114
:100D10000A98002856D0189800281ED131E01B9858
:100D200045191A98C61B189800281DD01C9C0094C1
:100D30000F983B1A109831462A4615F035FC00945E
:100D4000149C0F98311A119E30462A46129B15F0BA
:100D50002BFC0A980028199D34D01398B84219D159
:100D60001B98C21B1C9826E01C98009011983146D5
:100D700006462A463B4615F017FC0A980028199D9E
:100D800020D01C9800901A9841191B98C21B30461D
:100D9000179B15E01C9800901A9841191B98C41BCA
:100DA0000398159A8018831C1098224615F0FCFBB6
:100DB00022461C98149C0090049841193046129BBE
:100DC00015F0F2FB791E012C384600DB0846169A16
:100DD000521C012C169201DB169A521A510061180E
:100DE0004C1C6D1E179981421397074600DA70E676
:100DF0001DB0F0BDF0B589B08E68022E20D80C462B
:100E00000421415E08910221405E05902068069011
:100E100060680790E06808F00FF80546A768206949
:100E200008F00AF80ECC0124B4404B43534300A908
:100E3000B0C103900493089905AB0DCB15F092FB5C
:100E400009B0F0BD70B584B000200390029002ADEF
:100E500008242846214615F031FBA8780299414024
:100E600003984840A97941402970E8786A7842405F
:100E700068795040EA7942406A70D0B20090064DDD
:100E80004E467019401CCBB21721044A7A4407F031
:100E9000E3FD745504B070BD00000000BF8901007F
:100EA000F0B58FB007AD28461830072117F034FF92
:100EB0000620687011202870A81C2449794410224B
:100EC00017F030FF0024EC751820A8756C750C2005
:100ED00028751220E8740520A8741A484946081895
:100EE000C588868818480F18384618F0CDFA00973C
:100EF000C3B230462946224601F062FA0125002895
:100F00001CD1114E182007A901F02AFB002815D189
:100F100048468519284618F0B7FAC0B200940190E7
:100F2000029503940494059406943021602220468F
:100F3000234601F017F80546401E854128460FB0AC
:100F4000F0BDC0461800000000000000749D0100C4
:100F5000F0B589B0444F4846C0190021818414215E
:100F6000017301F0DFFA002872D1FFF76BFF002058
:100F700006213F4A7A4401F083FA002868D101F043
:100F80004DF9002864D14846C01901460831821D38
:100F900000920191031D012000241822214601F036
:100FA000ADF8002854D10125284601F029F8002881
:100FB0004ED104942D4803900295102601960820E6
:100FC00008900090284629462A462B4601F03AF818
:100FD00000283DD14846C0190E3000900220254916
:100FE0007944012509232A4601F036F900282FD13A
:100FF0004846C119C88910310A2200961646019444
:10100000029403920495059102211B4A7A44992384
:10101000079101F071F900281AD14846C119C88911
:101020001231089A00920192079A0292039604954F
:101030000591124D7D44992311462A4601F05CF931
:10104000002805D10120072101F048FA002802D02C
:10105000012009B0F0BD4846C019C462FFF720FF67
:10106000411E8841F5E7C0461800000040E201003B
:10107000EC9C0100509C0100349C01001C9C010070
:10108000F0B581B004461E484F463818482117F085
:1010900043FE1C48242139541B49791800264E6010
:1010A0003D18686800906E60284615F0F1F9174801
:1010B00044213954009969603818002C01D1214627
:1010C00000E00321C170012181704670042115F0F8
:1010D00085FA0B497C500E4D002C0AD07819406AD5
:1010E000002806D10020014606F010F9FFF730FF76
:1010F00001E04846465048464019C68301B0F0BD5D
:1011000018000000F801000090020000CC00000070
:10111000BC070000B0B50848494624220A54074AD3
:101120008A18002353600C1865686360204615F028
:10113000AFF96560B0BDC046F80100009002000044
:1011400010B504464068083000F004F8411E88419C
:10115000207010BDF0B583B004464078E51C012630
:101160003E2809D0FF2832D00528304600D0C3E001
:10117000FFF7D0FF00F0DEF8E078012800D0BAE0F9
:1011800068484F4602963E1814203073A878E978D4
:101190000902081870817D21890000910C21182214
:1011A0000024234601F004FA5F48242139543476A0
:1011B0005F497918CC835D4979184C603D186E6899
:1011C0006C60284615F064F96E60029894E0287807
:1011D0006978090208180321890288420CDC4C490D
:1011E000884219DC4D4988421DD04D49884200D0C3
:1011F00081E000F08BFA7EE0424988422ED04249DD
:10120000884243D04149884275D14648494608182A
:101210002979C91E01736EE03E4988426ED1686823
:1012200000F0D4FA67E0E079401E012806D83D4876
:10123000494608184089052100F0A6FF3A4849466A
:1012400024220A54394A8A18002353600C1865680E
:101250006360204615F01CF965604CE028796979D7
:10126000090209182F4A48468018008A801C8842C3
:1012700041D1607B01283ED1A07B002830463BD184
:101280004846821801201076918235E028796979E4
:1012900009020918234F4846C019408A401C884259
:1012A00029D14846C01900228263007E002808D058
:1012B000607A21460A3100F073F8287969790902C9
:1012C0000918A878EA78637A0A3400930194120224
:1012D00010180022134601F0A3F800280CD148464C
:1012E000C019826B002A06D04846C119088A3C31D1
:1012F000D2B200F02FF8304603B0F0BD0649884264
:1013000033E7C046010C0000130C0000030C000082
:1013100004040000090400000504000001040000AA
:101320000204000018000000F80100009002000014
:10133000BC07000005484946081800220276044B05
:10134000C918CA834281102006F01DFD1800000054
:10135000BC070000F0B581B014460D4606460E49A4
:10136000484640187D210901C18348460B49401871
:10137000C0890095002731463A46234601F020F8FF
:101380004328F2D04528F0D06428EED048460249E0
:101390004018C78301B0F0BDBC0700001800000072
:1013A000F0B581B00246784D484643190020986355
:1013B000002A2AD04B465B1925241B5D002B3AD10D
:1013C0000B78012B39DD022B4ED0082B5FD0052B7B
:1013D0001CD14B465B1924241B5D002B2BD1032A07
:1013E000034613D34B465B199C8B230A4E789E42CF
:1013F00003460BD1E3B28E789E42034606D1002C01
:1014000074D0042A76D2072300E06723494649199D
:101410003C220E248C5405228A633C3148804B7058
:101420000871484641190022CA628A84574BC01885
:1014300008624A838A8301B0F0BD002B40D0012BA3
:10144000E4D10523032AE1D34C78002CDED18C783B
:10145000002CDBD148464019092A00D309228263B7
:101460003C3017F063FCDCE70423032ACED34C782E
:10147000002CCBD18C78002CC8D148464019092AC1
:1014800000D3092282633C3017F050FCD3E70623D7
:10149000052ABBD34A78002AB8D189780029B5D16A
:1014A000484640190021C1633C21082242540621CC
:1014B000816301463C3101220A71007B4871BAE721
:1014C0000323052AA2D34A78002A9FD189780029CC
:1014D0009CD14846401944210022425402644021D4
:1014E00004234354C263092181639AE7052A0CD27D
:1014F00008238BE7D21E48464019468B93B2B3426D
:1015000000D81646006AC91C1DE04B465C191F4EE8
:101510009B190E79CF7823623B029E196683B7B27E
:10152000E7620123052A00D170E74124A400A74205
:1015300000D96BE7501F82B2BA4200D8064648462F
:10154000124A8018491D124A4F46BA187D231B01C2
:10155000D383B4B2224617F0E9FB7819016A09195E
:101560000162418B891B4183828B521C8283080458
:1015700000D060E74846064941180022CA83401956
:10158000C06A488057E7C04618000000B80600004F
:10159000BC070000F0B503AF89B06E464E4B4A461B
:1015A000D418227BD21D07239A436B469D1AAD4661
:1015B0002422A35C002B01D0012088E030624C463D
:1015C000134645482218012073613061D054306AB7
:1015D00010620020908351830246404820184280C8
:1015E000002962D00B46681D3060E81C7060F56011
:1015F000AA7005212970100A68704846364C0019F7
:10160000047B98B2F2611204336212D04A46324926
:101610005218E41E844200DB0446116AB161A5B28F
:1016200070682A4617F082FBB069401925460323EB
:1016300014E0B1612B711A0AEA704A462649521821
:10164000651F854200DB0546146AAAB2B2603068A5
:10165000214617F06BFBB0682018B36949461E4A53
:101660008918252432690A55F269521C8A83326A24
:10167000521B4A8308627069085C002821D04846E2
:10168000154934624418208A5919CAB2F5682946A6
:10169000FFF760FE0020316A6054638B002B04D09A
:1016A00048460D494018828BA2E7494600200B4D61
:1016B0004855094A8A187369D0549083491948805B
:1016C00005E0484604494018002101550220FC1F4E
:1016D000053CA546F0BDC04618000000BC07000050
:1016E00080B582B06A46074B1846114601DF0648AE
:1016F0000099814202D1019802B080BD042006F019
:1017000042FBC046EC890060D4890090F0B581B0FE
:1017100000251349164A7A44284603F077FA03460F
:1017200010484E4630180621016343630E4FF419EA
:10173000E16025722046103010210E4A7A4407F0ED
:101740008BF92320F05518206060084830180A49AA
:1017500079444160204614F09BFE01B0F0BDC046C4
:1017600040420F0018000000F80100009002000045
:10177000C7FFFFFFAC7D01002900000070B50446E3
:101780000E48494624220A540D4A8A180023536001
:101790000D186E686B60284614F07AFE6E6009487A
:1017A000844207D1084849460818416B408900F037
:1017B0007FFC70BD0120FFF763FC70BDF8010000E5
:1017C00090020000115010B01800000070B50346E0
:1017D0000F484D4628180621016343630D4EAC198E
:1017E000E160012020722046103010210B4A7A441B
:1017F00007F032F92320A855182060600648281801
:10180000074979444160204614F042FE70BDC0464D
:1018100018000000F801000090020000FA7C0100AE
:101820001F00000070B504460E48494624220A54A1
:101830000D4A8A18002353600D186E686B602846A5
:1018400014F026FE6E600948844207D108484946D4
:1018500008184089012100F0BDFC70BD0120FFF790
:101860000FFC70BDF801000090020000115010B094
:101870001800000070B50446052117F00FF80D465A
:10188000022905DC012D0BD0022D07D104260AE028
:10189000032D07D0042D01D1012604E0002602E02B
:1018A000062600E00326E000052116F071FF002D5A
:1018B00000D0401C801970BDF0B585B00E46039075
:1018C000052704921046394616F0E8FFFF43012031
:1018D000022907DC012912D002290BD10290BF1C7A
:1018E000042012E003290DD0042903D102907F1DAA
:1018F00001200AE0002701200190029706E00290F3
:10190000062002E00290FF1C032001900498FFF7DC
:10191000B1FF38183BD0002422462346D5086F1C5F
:1019200004998F42214600D2F15D775D07251D4065
:10193000032D05DC012D0ADC002D11D1FF0819E073
:10194000052D08DC042D0ED1C9093D0710E0022D3C
:101950000CD1B90608E0062D16D14909BD0707E0EC
:1019600089097D0704E07906CF0E03E00909FD0728
:10197000ED0E4F190B497944C95D039DE954521D81
:101980005B1C9842CAD102E01F210F40F2E7029986
:10199000002905D0039908183D22019917F0CAF9CA
:1019A00005B0F0BDF1920100F0B583B00F460546D9
:1019B0003D213A4617F0D0F90646EC190022D043F3
:1019C0000290002E08D0A64206D0304601783D296C
:1019D00038D1401C8442F9D10192002E00D0771BEF
:1019E00005214F43FF08384616F058FF022905DC51
:1019F000012909D002290BD104200AE0032905D0CE
:101A0000042905D1012004E0062002E0032000E0C3
:101A10000198002E00D0A61BB04213D1002F14D085
:101A20000B4E7E443C46287801F059F901462022AD
:101A3000304617F091F9002804D06D1C641EF2D1D5
:101A4000384600E0029803B0F0BD0020FBE7C04636
:101A500045920100F0B58BB017460546099108463E
:101A60001146FFF7A1FF002800D195E000244B4963
:101A700079440A91214603942246019708920590E1
:101A800006953D4605271046394616F081FE064666
:101A90007E432046394616F07BFE07460998C05D16
:101AA00001F01DF9014620220A9817F055F9079018
:101AB000781CA842039B19460DD20999085C01F0D5
:101AC0000EF90146202204940A9C204617F044F99E
:101AD000039B011B049C0491089A961BB91CA94204
:101AE0002F460FD20998405C174601F0F8F80146DE
:101AF000202225460A9C204617F02EF93A46019FDF
:101B0000031B2C460A980799091A012E10DD022E94
:101B100022D0032E25D0042E069D0598029E32D198
:101B200013461F22049E16401A46490176182AE0E1
:101B3000002E21D0012E069D0598029E23D18907F3
:101B4000090E1646049AD206920E5118DA06D20FE2
:101B5000891832460E4616E008010499C906090F95
:101B60000EE0C907090E1046049AD206520E51180B
:101B70000246D806800F03E0C8000499C906490F41
:101B80000E18069D059802962E7008346D1C401E96
:101B9000521C002800D071E70BB0F0BDF791010096
:101BA000F0B503AF8DB06E46154631620022002DB0
:101BB000144608D00024316A095D002903D1641C51
:101BC000A542F8D12C463060291B8A204843642165
:101BD000326316F0DDFD024608323B4911406A4689
:101BE000521A3061411C954672601046F16017F040
:101BF000A9F8326BB460A5422FD930697168081812
:101C000070610020B0610346B168F561306A7162AD
:101C1000405C0146B3621943B26918D0002273696F
:101C2000F362326319780D0205433A2428462146AF
:101C300016F0AEFDF36A326B4443291B1970C0B233
:101C40005B1E521C0028EBD1B16A8A42E8D3716A4C
:101C5000491CF569A9421346D8D1F068841A306945
:101C6000A04235680ED330697168091850420A18CD
:101C70005278002A03D1401CF9D3F46802E031699C
:101C80000818441C002D17D031222846B16817F0DF
:101C900051F8306984420FD870680019B16869182A
:101CA000F268121B094B7B4405785D5D0D70401C8A
:101CB000521E491C002AF7D1B068F1680818001BB1
:101CC000FC1F053CA546F0BDF8FFFF07E68F0100AD
:101CD000F0B58BB001920D460290171F03AE202481
:101CE000084639463246234614F0F2F8304621467B
:101CF0003246234614F0ECF80398E855E919020E31
:101D0000CA70020C8A70000A487002982946019A2B
:101D1000FFF746FF0BB0F0BDF0B503AF8BB06E46DA
:101D200070600024002A254607D00025485D312830
:101D300003D16D1CAA42F9D11546B161511B3A4835
:101D400048437D21C900F26116F022FD02460832A7
:101D5000364911406A46521A3061411C9546B260BC
:101D60001046316016F0EEFFF560F069A8422DD9FB
:101D70003069B168081870610024E043B062F1680E
:101D80003462B0697162415C294878443A2504465E
:101D90002A4616F0E1FF002841D0001BC0B20146E0
:101DA000336A002419430CD071690A786A43101809
:101DB0000870B26A8918000A641C0028F5D19C4298
:101DC000F3D3716A491CF0698142D9D133681D1B74
:101DD0003069A8420ED33069B168091860420A1808
:101DE0005278002A03D1401CF9D31D4602E0316924
:101DF0000818451C591BF4680819B062706800285F
:101E00000DD07162214616F09DFF3069854206D8DB
:101E100070680019B1684919726A16F083FFB06AD8
:101E2000FC1F053CA546F0BDDD020000F8FFFF00E9
:101E3000028F010010B50A46014600242046FFF734
:101E40006BFF032800D8E04310BDF0B589B004460D
:101E5000FFF762FF051F01AE2027204629463246C4
:101E60003B4614F035F83046394632463B4614F0CE
:101E70002FF801980090615D621953781B02591880
:101E80009378D2781202D21812045118091A4842D3
:101E9000484109B0F0BD0000F0B5FFB086B004AC19
:101EA0000FC40120010244AE304614F053F834AFA1
:101EB00040243846214616F045FFFF200230788046
:101EC0008B988A9D002D039000D1284678708198C8
:101ED000387010362249794430463A46234605F098
:101EE00037FF002D2CD014A8802116F015FF08AC68
:101EF000204617F07FFAA085000411D108A814F03D
:101F0000C5FB129014AC20462946039A16F00AFF2E
:101F100000210091019144A88023224613F0A6FFDE
:101F200014F09EFB08A9884202D1129814F0AEFB6F
:101F300014A8802116F006FF08A8808D00280CD177
:101F4000049800900598019044A80121069A079BE7
:101F500013F08CFF7FB006B0F0BD05F014FFC04653
:101F6000F68D0100F0B5CBB0150A04AC2571E27016
:101F70000A0AA2706170519DE5715099A171637157
:101F8000207003A9029100200190087027460837AD
:101F9000529938462A4606F03FFF539E7E557819DF
:101FA000471C54993846324606F036FF5598B855C6
:101FB000B919569A130ACB708A70000A487045A85E
:101FC00000901822019F394606F02CFF01204A900C
:101FD00002984990A8190D30C0B24890479407481C
:101FE00045900098394605F0C1F9002801D40398BE
:101FF00000E0F843C0B24BB0F0BDC0463F008300E4
:10200000F0B5C9B002AE307001AF00243C7043ADF2
:1020100018222846214606F005FF012048904797E0
:1020200046904596064843902846214605F09EF97D
:10203000002801D4019800E0E043C0B249B0F0BDEF
:102040003F008500F0B5C9B0519C250E02AEB572B7
:10205000250C7572250A3572F471529CF472509CED
:10206000B4714F9C74714E9C3471F370B270717086
:10207000307001AF00243C7043AD18222846214641
:1020800006F0D0FE0120489047970C2046904596D8
:10209000064843902846214605F068F9002801D4F7
:1020A000019800E0E043C0B249B0F0BD3F008600B7
:1020B000F0B5C9B00A0C02AEB2807180308001AFB9
:1020C00000243C7043AD18222846214606F0AAFEA3
:1020D0000120489047970620469045960648439031
:1020E0002846214605F042F9002801D4019800E075
:1020F000E043C0B249B0F0BD3F008800F0B5CDB0BC
:10210000009301920291044604A803900026072739
:1021100031463A4606F086FE06AD0198A870029850
:1021200068702C7047AC18222046314606F07AFEC3
:102130004C97039F4B9703204A904995114847902D
:102140002046314605F012F9002818D404A800787A
:10215000002815D1781C5399529A037844782402A8
:10216000E318009C23808378C4782402E31813804A
:1021700002794079000280180880304600E0FF2094
:102180004DB0F0BD3F008A00F0B5C9B002AEB170ED
:10219000308001AF00243C7043AD18222846214610
:1021A00006F040FE01204890479703204690459650
:1021B0000F204490064843902846214605F0D6F863
:1021C000002801D4019800E0E043C0B249B0F0BD5E
:1021D0003F009300F0B5C9B002AEB170308001AFDE
:1021E00000243C7043AD18222846214606F01AFE12
:1021F0000120489047970320469045960648439013
:102200002846214605F0B2F8002801D4019800E0E4
:10221000E043C0B249B0F0BD3F00A50070B588B042
:1022200001AE0024347002AD18222846214606F083
:10223000F9FD01200790069606480290284621469F
:1022400005F094F8002801D4019800E0E043C0B202
:1022500008B070BD3F000101F0B5CBB00193029210
:102260000F46064603A800210324224606F0DAFDA5
:1022700004A80670B11E4A424A410225012E294691
:1022800000D01101012E02D0022E2DD11025401CAC
:10229000461839462A4606F0BFFD0198707002982C
:1022A000307045AF002618223846314606F0BAFD98
:1022B0004A9403A84990E81C489004A847900D4808
:1022C00045903846314605F051F800280ED403A851
:1022D000007800280BD1509803A94A788978090220
:1022E00089180180304602E0472000E0FF204BB013
:1022F000F0BDC0463F000201F0B5CFB01D460692CA
:102300000F46064607A800210324224606F08AFD50
:1023100008A887700680B91E4A424A410226012F4A
:10232000314600D01101012F02D0022F40D11026DA
:10233000C01C4718589901910594579C56990291D1
:1023400055990391549904910699324606F064FD1B
:10235000280A78703D700198B8717C7102983871C4
:102360000398F8700498B87049AF002518223846D1
:10237000294606F057FD05984E9007A84D900A365D
:102380004C9608A84B900D4849903846294604F0D1
:10239000EDFF00280ED407A8007800280BD159982B
:1023A00007A94A788978090289180180284602E03D
:1023B000472000E0FF204FB0F0BDC0463F000401C1
:1023C000F0B5C9B01D4602AF7B713A717980388093
:1023D00001A8009000240470B81D4E991A4606F01A
:1023E0001BFD43AE18223046214606F01BFD01209E
:1023F000489000984790A81DC0B24690459707485E
:1024000043903046214604F0B1FF002801D40198E2
:1024100000E0E043C0B249B0F0BDC0463F00060155
:10242000F0B5C9B002AF4E9DBD717B713A71798034
:10243000388001A8009000240470F81D4F992A46A6
:1024400006F0EAFC43AE18223046214606F0EAFCCC
:102450000120489000984790E81DC0B246904597EB
:10246000064843903046214604F080FF002801D4FE
:10247000019800E0E043C0B249B0F0BD3F00260142
:10248000F0B5C9B00D4602AF7970387001A8009060
:1024900000240470B81C11462A4606F0BDFC43AE69
:1024A00018223046214606F0BDFC012048900098D5
:1024B0004790A81CC0B246904597074843903046C5
:1024C000214604F053FF002801D4019800E0E043C6
:1024D000C0B249B0F0BDC0463F000C00F0B5C9B075
:1024E00002AE7170307001AF00243C7043AD182211
:1024F0002846214606F096FC012048904797022086
:1025000046904596064843902846214604F02EFF03
:10251000002801D4019800E0E043C0B249B0F0BD0A
:102520003F000F0070B588B001AE0024347002ADDA
:1025300018222846214606F075FC012007900696D1
:10254000064802902846214604F010FF002801D4D6
:10255000019800E0E043C0B208B070BD0300030082
:10256000F0B5C9B002AE307001AF00243C70701CF1
:102570001F2206F051FC43AD18222846214606F0E2
:1025800051FC0120489047972020469045960748E7
:1025900043902846214604F0E9FE002801D4019822
:1025A00000E0E043C0B249B0F0BDC04608000900F9
:1025B000F0B5C9B002AE4E9C3481F380B280718018
:1025C000308001AF00243C7043AD182228462146DC
:1025D00006F028FC0120489047970A20469045962F
:1025E0000F204490064843902846214604F0BEFE42
:1025F000002801D4019800E0E043C0B249B0F0BD2A
:102600003F008101F0B595B003930646802000237A
:1026100033503648F0603648B0603648706036480F
:10262000306008683061486870618868B061C86867
:10263000F06108693062486970628869B062C8698F
:10264000F06204933363106870635068B063F3679B
:102650001A980290B0673046803043609068F0630B
:1026600005AC01943046214600F048F83046403031
:1026700001462246B8CAB8C14322B35C0F210B40C1
:10268000B35435464335049A6A732A790A402A714D
:102690002A7A0A402A722A7B0A402A736978FC2225
:1026A00011406970697911406971697A11406972E4
:1026B0001124214600F037FB37465137019910317C
:1026C0001022384616F02EFB0498A877384621468B
:1026D00000F029FB30466230214616F033FB3046CD
:1026E0000399029A00F086F815B0F0BD7465206B6E
:1026F000322D62796E64203365787061F0B593B0E5
:102700000C4601906CC86CC46CC86CC46CC86CC4BA
:102710006CC86CC408463C30059008462C300490C8
:1027200008461C30039008460C301190084638309B
:102730001090084628300290084618300F9008463E
:1027400008300E90084634300D90084624300C9026
:10275000084614300B90081D0A9008463030099046
:102760000846203008901291103107910020029EF7
:10277000039C049F059D0690129807AB0ECB00F0BA
:102780001DF90AAB0FCB00F019F90E980F993246DC
:10279000109B00F013F9119821463A462B4600F0A1
:1027A0000DF912980B9932462B4600F007F90A985A
:1027B0000F993A46099B00F001F90E982146089AB4
:1027C0000D9B00F0FBF8119807990C9A109B00F0F4
:1027D000F5F80699481C0929CDD30020019B129CCD
:1027E0001958225851182150001D4028F8D113B013
:1027F000F0BD0000F0B58BB01646024640320292A2
:10280000623003903009401C039D102E344600D3E3
:102810001024002C23D006AF04903846059105996A
:10282000224616F07FFA38191021091B16F08AFA91
:102830000120387411243846214600F074FA2846E5
:1028400029463A46234613F061FD0094074B7B442A
:1028500028462946029A13F0A3FD049805991031E1
:10286000103E401ED1D10BB0F0BDC046C684010061
:10287000F0B593B0174602910546802028582E46A1
:10288000803671680022C0185141009210465041B4
:10289000012825D01C46286B401C286303A9284624
:1028A000FFF72CFF0194002C0BD003A80299019A8A
:1028B0003B7804785C400C707F1C401C491C521E05
:1028C000F6D128460299019C2246FFF793FF306813
:1028D00000193060706800994841706013B0F0BD15
:1028E000014805F050FAC04605B10000F0B593B0BC
:1028F00002920F460546802028582E468036716881
:102900000022C0185141009210465041012825D0A4
:102910001C46286B401C286303A92846FFF7EEFEDF
:102920000194002C0BD003A80299019A0B7804782B
:102930005C403C70491C401C7F1C521EF6D128464E
:102940000299019C2246FFF755FF3068001930605C
:10295000706800994841706013B0F0BD014805F0FF
:1029600012FAC04605B10000F0B587B001910546E6
:10297000806FE96F039102908020285804902846C8
:1029800080304068059002A9102628463246FFF79D
:1029900031FF2F46623751351124384639462A46D1
:1029A000234613F0B3FC3846214600F0BCF90198E9
:1029B0003946324616F0B6F907B0F0BDB0B50C682E
:1029C00005682C1904601D6865401024E5411D60F0
:1029D0001468641914600D6865401424E5410D60A5
:1029E000046864190460186860401824E0411860A5
:1029F0001368181810600A6842401920C2410A6022
:102A0000B0BD0000F0B587B006AD00242C70059570
:102A10000120029005A8019000947D48784440214F
:102A20009F23224605F0D4F9002800D1E5E028785C
:102A3000012800D0E1E015F083FD054615F00CFEFD
:102A4000342068436E4F4946CE1932466832714B86
:102A50007B4413506B4B0325CD5415186E487844B6
:102A600004222A712C6203956862CD186C60284696
:102A700013F00EFD6860022013F01EFE6860B06E59
:102A800000283FD04846C0196C24015D7A25405B80
:102A9000884237D213F0B4FC5B49884204D113F06A
:102AA000E3FC594988422DD14846C019025D415B7B
:102AB000914222D20846382670434A46D3199A6E6C
:102AC000101868331B6A002B06D0984700280AD0DC
:102AD0004946CA19515B926E012802D188B2464319
:102AE000901902F0B1F84846C019415B491C4153A6
:102AF000025D88B29042DED300E00846904201D1E8
:102B000013F01CFD0398243003904B2080000490A8
:102B10004846C019806E00283FD04846C0196C2630
:102B2000815D7A25405B884237D213F069FC3649D3
:102B3000884204D113F098FC334988422DD148468D
:102B4000C019825D415B914222D20846382460431D
:102B50004A46D3199A6E101868331B6A002B06D0A8
:102B6000984700280AD04946CA19515B926E01283D
:102B700002D188B24443101902F066F84846C019E1
:102B8000415B491C4153825D88B29042DED300E034
:102B90000846904201D113F0D1FC4C461B48201846
:102BA0000022049913F044FDE41905F0DFFA6C20CB
:102BB000205C7A21615A8142AAD305F0C3F9039CB3
:102BC0004846124940180022049913F031FD05F0DF
:102BD000CDFA13F019FD002802D020680028EFD1AB
:102BE00015F0CEFC05F068FB05F070FB4846074980
:102BF00040180022049913F01BFD07B0F0BDC04639
:102C000090020000F8010000115010B0CC0000004C
:102C1000E0980100D8820100BB0100000E49084085
:102C2000884215D10B4948464058002810D0012849
:102C300000D801204A4651188C31084A7A440B6862
:102C4000934203D03431401EF9D101E000200860E6
:102C5000002070479002000003000080DDFFFFFFAE
:102C600010B58CB013F08CF86C46204616F0C2FB01
:102C7000A085000407D1684613F008FD0A900020E3
:102C8000C04313F047FC13F0EBFC6946884202D1C5
:102C90000A9813F0FBFC6846808D002801D10CB027
:102CA00010BD05F070F8000010B50246074850400E
:102CB000012300248842184600D320465118890871
:102CC000402900D82346184310BDC046FFFF00002E
:102CD00020385F2801D3002070470120704701464B
:102CE0006139C9B21A2900D22038C0B270470146F2
:102CF0004139C9B21A2900D22030C0B2704710B58C
:102D000000290ED00278002A09D101231A469942DF
:102D100003D0845C531C002CF8D08A4201D20020DE
:102D200010BD012010BD10B54A080FD00918491E6A
:102D30000B7804785C4004700B7863400B70047867
:102D40005C400470491E401C521EF1D110BD0000B1
:102D5000B0B5002A0ED0084B7B440C7824091C5DCA
:102D600004700C780F2525405C5D4470801C491C64
:102D7000521EF2D1B0BDC046B2800100F0B581B0A4
:102D80000C46064600252F460A22304621462B4691
:102D900015F08CFE7F1C0922921B2A46A241064692
:102DA0000C46F1D3384601B0F0BDF0B58BB01646F5
:102DB0001099002900901ED03546049303910A22F1
:102DC0000292002428460499234615F06FFE064619
:102DD0000F46029A0294234615F088FE281A049A98
:102DE0008A4102430AD10399491E080635460497D1
:102DF0003B46E3D107E00020029004E02B46039815
:102E000002902E46049B1820029F039019463C46D0
:102E10000A270025304604933A462B4615F046FE15
:102E2000029001913A462746039C2B4615F05EFE20
:102E3000321A30210A43601E05AB1A543A0613D0E9
:102E40007F1E3A06019B11D1A01E05AA2E24145400
:102E500000270922921B3A46049CA24106D30398FC
:102E6000C01E05AA115401E02F46019B0921891BB0
:102E700004998D41029EC8D33906C6D105A9091807
:102E80001822121A009815F04DFF0BB0F0BD00008B
:102E9000D0B502AF94B06E46F41D413402464E48A0
:102EA000494608184079002802D14E4804F06BFFCB
:102EB0004A4B4846C0188178002968D10179481EDC
:102EC0003F2864D84846C018C07800285FD1444BDA
:102ED0004846C0184078401E02285CD2F2610A467B
:102EE0000720C543B161C81D28406946081AB06073
:102EF0008546F260104601F0F7F87061C01D284069
:102F00006946081A30618546F51D1935284616F0C0
:102F100071FAA88500041CD1F01D193013F0B6FB1E
:102F2000206049462E480818306028302B4A8918FE
:102F30004A1DB168F5682B46FFF7D8FC82B0202007
:102F400000903068831C3069B1682A4601F0D0F8DF
:102F500002B013F085FBF11D1931884202D12068BF
:102F600013F094FBB068F16815F0ECFEF01D193019
:102F7000808D002811D17569F46920882946FFF7F2
:102F800093FE00280BD06720000204F0FCFE1548D9
:102F9000001D04F0F8FED120000204F0F4FE4946C2
:102FA0000E48716008182188401831692A4615F0CA
:102FB000B9FEB069402801D3022000E00320F26985
:102FC000074973697468611848701088C0181080C8
:102FD0000920000304F0D7FE60000000B8060000DE
:102FE0000806000001B10000D0B502AF94B06E46F3
:102FF000F41D41340246494B4846C01881780029E7
:1030000068D10179481E3F2864D84846C018C07866
:1030100000285FD1424B4846C0184078401E022825
:103020005BD2F2610A460720C543B161C81D284042
:103030006946081AB0608546F260104601F054F8FF
:103040007061C01D28406946081A30618546F51D2B
:103050001935284616F0CEF9A88500041CD1F01DBC
:10306000193013F013FB206049462D4808183060D2
:1030700028302A4A89184A1DB168F5682B46FFF79F
:1030800035FC82B0202000903068831C3069B16824
:103090002A4601F02DF802B013F0E2FAF11D1931C1
:1030A000884202D1206813F0F1FAB068F16815F097
:1030B00049FEF01D1930808D002810D17569F46922
:1030C00020882946FFF7F0FD00280AD0672000027B
:1030D00004F059FE134804F056FED120000204F01B
:1030E00052FE49460D487160081821884018316920
:1030F0002A4615F017FEB069402801D3022000E0EF
:103100000320F26906497369746861184870108871
:10311000C01810800920000304F035FEB806000036
:103120004808000005B10000D0B502AF82B06E467D
:1031300004462C48494608184079002802D12C48FA
:1031400004F021FE284A484680188178002927D1BA
:103150000579681E3F2823D848468018C078002883
:103160001ED122494846405C401E02281CD2E81D60
:103170000721884369460B1A49461C48081828301D
:1031800089184A1D9D46736019462B46FFF770FB50
:1031900020882946FFF788FD002809D0672004E031
:1031A0001348001D04F0EFFDD120000204F0EBFDF8
:1031B00049460D48316008182188401871682A4630
:1031C00015F0B0FD402D01D3022000E00320074997
:1031D000326850542088401920800920000304F0F0
:1031E000D2FDC04660000000B806000008060000DE
:1031F00001B10000D0B502AF84B06E460246284C43
:10320000484600198178002929D10579681E3F2890
:1032100025D848460019C078002820D121494846C1
:10322000405C401E02281DD2E81D072188436946E4
:103230000B1A49461B48081828300919F2604A1D24
:103240009D46B36019462B46FFF712FBF0680088D5
:103250002946FFF729FD002808D0672003E012481F
:1032600004F091FDD120000204F08DFD484670600D
:103270000019F1680C4609884018B1682A4615F013
:1032800051FD402D01D3022000E003200549726862
:1032900050542088401920800920000304F073FD59
:1032A000B80600004808000005B10000214C48465F
:1032B00000198078002836D1484600190179202964
:1032C00031D1C07800282ED148460019401D202158
:1032D00000F05CFA002826D018484946095C00290D
:1032E00024D0494609180D4618352CCD496A194392
:1032F00015430D431AD1494609188A68CB68134310
:1033000014D04978002911D149460D182846283093
:103310000919491D002200F0CBFD01206870092029
:10332000000304F030FD044804F02DFDD12000021C
:1033300004F029FDB806000005B10000F8080000FF
:10334000A0B00446314E484680198078002846D106
:10335000484680190179C078084340D12D4F48462E
:10336000C05D00283ED04846C019034618330ECB36
:10337000406A10430B43034334D101AD284616F095
:1033800039F8A885000410D101A813F07FF90B903B
:103390004846C11928312120202216AD2B4612F0B3
:1033A000BDFE0DA8294600F020FA13F059F901A935
:1033B000884202D10B9813F069F916A8282115F05C
:1033C000C1FC01A8808D00280ED120882121FFF7A3
:1033D0006BFC00280AD06720000204F0D4FC0C48E3
:1033E00004F0D1FCD120000204F0CDFC4846801945
:1033F000218840180DA9212215F094FC2088213045
:1034000020800920000304F0BEFCC046B80600007E
:1034100005B10000F80800009CB04A4D484640192C
:103420008178C07808432BD1484640190079484933
:1034300079440E6831460931814221D1484640190C
:103440004479444878440068A04219D3002807D042
:1034500049464919891D0A6812BA04C1401EFAD1A9
:103460004846401981190527C859491D496802462F
:103470000A4305D04A465219B218527B022A02D397
:10348000314804F080FC0792304B4A46D25C002A57
:1034900006D04A46D3181A6A5B6A04921A4303D1CB
:1034A000D120000204F06FFC049A101A8B41E7D37C
:1034B00008A8039015F09EFF0399888500041FD18A
:1034C00008A813F0E3F81290484641198B19DA590D
:1034D00005921E4A801806904268581D4368881D50
:1034E000009001940798029014AC20461146059A6A
:1034F00000F07EFA069828300022214600F0D8FC21
:1035000013F0AEF808A9884202D1129813F0BEF861
:1035100014A8202115F016FC08A8808D0028C1D120
:103520004846411989194A1DC959084BC018036AF0
:10353000591A0162416A52689141416209200003AF
:1035400004F021FCB806000005B10000F8080000F6
:103550000C7A0100F47901009CB04A4D48464019AC
:103560008178C07808432BD14846401900794849F2
:1035700079440E6831460931814221D148464019CB
:103580004479444878440068A04219D3002807D001
:1035900049464919891D0A6812BA04C1401EFAD168
:1035A0004846401981190527C859491D49680246EE
:1035B0000A4305D04A465219B218527B022A02D356
:1035C000314804F0E0FB0792304B4A46D25C002AB7
:1035D00006D04A46D3189A69DB6904921A4303D18C
:1035E000D120000204F0CFFB049A101A8B41E7D3DC
:1035F00008A8039015F0FEFE0399888500041FD1EA
:1036000008A813F043F81290484641198B19DA596B
:1036100005921E4A801806904268581D4368881D0E
:10362000009001940798029014AC20461146059A28
:1036300000F0DEF9069828300122214600F038FC1F
:1036400013F00EF808A9884202D1129813F01EF860
:1036500014A8202115F076FB08A8808D0028C1D180
:103660004846411989194A1DC959084BC018836930
:10367000591A8161C16952689141C16109200003F1
:1036800004F081FBB806000005B10000F808000056
:10369000CC780100B4780100F0B503AF95B06E4668
:1036A000F31D3133F36031607060002A5DD435481A
:1036B0007844F11D393118C818C138C838C1012003
:1036C000C00702432C494B4659580143F068C1607A
:1036D00002616846B0606C46403CA546F51D093560
:1036E000284615F087FEA885000425D1F01D093075
:1036F00012F0CCFFF168086084B00C2022497944B4
:103700000094326801920291039000202125F21D5D
:1037100039320523294612F087FE04B020222846BC
:10372000214675682B4612F0F9FC69680835284671
:1037300000F02CF800281BD012F092FFF11D093187
:10374000884203D1F068006812F0A0FF40212046B3
:1037500015F0F8FAF01D0930808D002809D1B06805
:103760008546FC1F053CA546F0BD054804F00BFB53
:10377000024804F008FBC0466000000001D10000D0
:1037800005B10000B47701007A770100F0B503AF0E
:1037900085B06E46202922D10125B060284605F06B
:1037A000F5FDF060C21D07218A4369463161694613
:1037B000881A70608546294605F0F4FD0446B16814
:1037C00006F004FC0546204605F0B4FE7068F1687A
:1037D00015F0B8FA681E85413069854600E000257D
:1037E0002846FC1F053CA546F0BD70B594B00A46BE
:1037F0000546212001AC01262146334612F0A4FCE7
:1038000002980019C0793040801C2870681C093467
:103810002022214615F086FA14B070BDF0B503AF32
:10382000C3B06E46F41D61343546343513C5F11D01
:103830009131BD68F868002807D1706BB160B16B39
:103840001C46FFF729FFB1682346002D00D1C3E0D5
:103850000C4621343463F01D69300830F062F01DED
:10386000B9300930B062706B08307062F01D913071
:10387000401C30621846F561B061684670616C4664
:10388000403CA546F51D3935284615F0B3FDA88501
:1038900000047CD13461F01D393012F0F7FEF46B76
:1038A0002060B0690568002D20D4746B2178F16028
:1038B00021202070F51DB935012373602946224669
:1038C00012F042FCF06BC06D4019C079716808407D
:1038D000801CF11D913108702022306AB16A15F008
:1038E00021FAF0682070B069056809E0F01D913098
:1038F00000210170706B4268306A716A15F012FA2B
:10390000316BCD70280A8870280C4870280E08701A
:1039100082B040203469009401902025F21D91323C
:103920002523B06B294612F05DFB02B0706B007866
:10393000F31D693321462A4612F0F0FBF56BE96866
:10394000F46A2046FFF722FF002849D0E86882B0D9
:103950000090264B7B4420462146726A12F0ECFC14
:1039600002B0E9682046FFF711FF002838D031691E
:1039700020312022B06B15F0D5F9F01D6930716B44
:103980002CC82CC12CC82CC13CC83CC1346912F0D5
:1039900067FEF11D39318842F06B02D1006812F0E8
:1039A00075FEF01D9130252115F0CCF940212046FF
:1039B00015F0C8F9F01D6930282115F0C3F9F01D84
:1039C0003930808D0028B1690BD170698546081D9A
:1039D000F1694D1E00D04EE7FC1F053CA546F0BD29
:1039E000014804F0D0F9C04601D100003175010052
:1039F000F0B503AFA9B06E46F41D6D343462F360C8
:103A00003261B16070616846B062FF2502352846B8
:103A100005F0BCFCB061C01D072188436946081A47
:103A200085467062294605F0BDFC0546F41D453407
:103A3000204615F0DFFCA08500042C4626D0B56991
:103A400012F00EFEF11D4531884203D1306A006844
:103A500012F01CFEF01D7530282115F073F9F01DD1
:103A60002530202115F06EF9204605F063FD706ABF
:103A7000294615F067F9F01D4530808D002845D1A5
:103A8000B06A8546FC1F053CA546F0BDF4613C6963
:103A9000FD68B8687060F01D453012F0F7FD316ABE
:103AA000086082B0002000950190F01D7530F11D76
:103AB0002531B2687368FFF7B1FE02B0012C0BD05C
:103AC000002CF469BBD1306AC268F11D7531083130
:103AD000706915F027F9B2E7F068316986B00D4AD0
:103AE0007A440D4B7B440D4C7C4400910190029430
:103AF00003930492F21D75320832F469204671690D
:103B000008F0ACFD06B0002899D1014804F03BF95B
:103B100001D100004574010001740100BD73010072
:103B2000F0B503AFA5B06E46F11D85313162B360CB
:103B3000F2607061FF250235284605F027FCB06170
:103B4000C01D072188436946081A8546F061294649
:103B500005F028FC0546F41D5D34204615F04AFCAE
:103B6000A0850004B0692C4626D13461B468F5689C
:103B7000B8687060F01D5D3012F088FD316A086031
:103B800084B01D4878441D497944009501943469F6
:103B900002910390F11D1D312046726807F0B4FDBB
:103BA00004B0002823D0F21D1D322046716907F0B1
:103BB00050FD00281BD0B069054612F051FDF11DE3
:103BC0005D31884203D1306A006812F05FFD204603
:103BD00005F0B0FCF069294615F0B4F8F01D5D3031
:103BE000808D002804D1FC1F053CA546F0BD01488E
:103BF00004F0C9F801D10000617301001D730100D8
:103C0000F0B503AFBBB06E46F31D69333362B261EA
:103C10000D46F061F41D4134204615F0EBFBA08504
:103C200000044CD1F01D413012F030FD316A0860C3
:103C3000F01D71307060002131612A46FFF72CFDC4
:103C400021207061F51D99350124294672682346AB
:103C500012F07AFA306A406B4019C0792040801C1B
:103C6000F11D1D31B1600870481C2946093120251D
:103C70002A4615F057F86846F0606C46203CA54689
:103C800082B030690090019020462946B26873697D
:103C9000FEF702F902B082B0B0690090706901903D
:103CA000F069294622462B46FEF7F6F802B0F06985
:103CB0002946FFF76BFD002819D0F068854612F001
:103CC000CFFCF11D4131884203D1306A006812F007
:103CD000DDFCF01D7130282115F034F8F01D413065
:103CE000808D002804D1FC1F053CA546F0BD01488D
:103CF00004F049F801D10000F0B503AFA5B06E465D
:103D0000F31D5D337361F2600D4630616846B0614A
:103D1000F41D3534204615F06DFBA085000433D129
:103D2000F01D353012F0B2FC74692060F01D653072
:103D30007060F11D15312A46FFF7AEFC6846B06091
:103D40006D46203DAD46E36882B0002000900190B2
:103D500072680832202428462146FEF79DF802B0FA
:103D600082B02120F16800910190306921462A46F5
:103D70002346FEF791F802B030692146FFF706FDB1
:103D8000002820D0B068854612F06AFCF11D35315C
:103D9000884203D17069006812F078FCF01D65302C
:103DA000282114F0CFFFF01D1530202114F0CAFF98
:103DB000F01D3530808D002806D1B0698546FC1F86
:103DC000053CA546F0BD014803F0DDFF01D1000030
:103DD000F0B5B5B01E460C460546349268460790CD
:103DE00020AF384615F006FBB88500043AD104969A
:103DF00020A812F04BFC2A9001200023009301938D
:103E0000059002902CAF274A384606942146FFF7CA
:103E1000EFFD4020019010AE0096244878440D211B
:103E200020243A46234612F0DDF804983146224613
:103E30002B4612F073F9696828460830FFF7A6FC94
:103E400000282CD010A8203008A90A46D8C8D8C20B
:103E5000D8C8D8C205980090019034AB2846069A7D
:103E6000FFF7DCFC12F0FCFB20A9884202D12A9863
:103E700012F00CFC2CA82024214614F063FF10A89B
:103E8000402114F05FFF08A8214614F05BFF20A832
:103E9000808D002804D10798854635B0F0BD0248D2
:103EA00003F071FFC902000001D100004971010057
:103EB000F0B503AF97B06E46F31D1D3333627261E8
:103EC000F160B0600125284605F060FA0446C01D87
:103ED000072188436946081A8546F06135612946FD
:103EE00005F060FA7060F51D2535284615F082FA58
:103EF000A88500047068B06126D1B568F01D253032
:103F000012F0C4FB316A0863F068B0620223706982
:103F10000028184600D130690D6082B00090F21D73
:103F20001D32B069294607F04DFC02B0002825D0AB
:103F300020212846FEF7E3FE002805D1202128464F
:103F4000FFF724FC00281CD012F08AFBF11D25315C
:103F5000884203D1306A006B12F098FBB06905F01B
:103F6000E9FAF069214614F0EDFEF01D2530808D50
:103F7000002807D1FC1F053CA546F0BD034803F00F
:103F800002FF014803F0FFFE05B1000001D100006F
:103F9000F0B503AFCFB06E46514CA4197462736193
:103FA000B261F16130624B4C204605F0EFF90546F5
:103FB000C01D072188436946081A8546B06221461C
:103FC00005F0F0F9B060474CA419204615F012FA3C
:103FD000A0850004B46858D13561BD684148801996
:103FE00012F054FB716A0860F01D2530202111F099
:103FF00027FFF560002D0FD0F11DC531212320468C
:10400000F26805F0ADFA00285ED0F01DC530402101
:10401000FEF775FE002857D1FA68F11D853121237E
:10402000204605F09DFA00284ED0F01D8530402135
:10403000FEF765FE002847D1254686B0F01D2530E5
:104040000590F01D85300490F01DC530F168002901
:10405000F269B36900D108460021746900940191A6
:10406000029003900833F11D45312C4628460AF092
:10407000CDFA06B000282AD0F21D45322046316A1A
:1040800005F06CFE002822D0356912F0E9FA1549D6
:104090008919884203D1706A006812F0F7FAF01D9E
:1040A0002530202114F04EFE204605F043FAB06A78
:1040B000294614F047FE0B488019808D002807D14F
:1040C000FC1F053CA546F0BD034803F05CFE034819
:1040D00003F059FE0102000005B1000001D100000B
:1040E000340100000C01000010300F21884370479C
:1040F000F0B503AF9DB06E46F41D4134F4613361F9
:10410000B0611546B26010350F2085436846441BE8
:10411000A546204614F006FE7461B16860182C466E
:10412000691ACAB214F006FEF51D1935284615F0B5
:1041300061F9A885000419D1B868F060F01D193044
:1041400012F0A4FAF1690860F51D49353069F1688B
:104150002A4611F081FF82B0B06900900194452198
:1041600028467269234611F08DFF02B012F078FAEA
:10417000F11D1931884203D1F069006812F086FA06
:10418000F01D4930242114F0DDFDF01D1930808D23
:10419000002803D1FC1F053CA546F0BD03F0F3FD4C
:1041A00070B59CB00D4604466E46304615F022F9B7
:1041B000B085000422D1684612F068FA0A90696856
:1041C000284608300CAD40262A46334611F096FEAC
:1041D0002878F82101402970E87F7F210140E977A4
:1041E000E87F3043E877202628463146FEF79BFDDE
:1041F000612029463246234611F090FF12F030FA32
:104200006946884202D10A9812F040FA0CA840216F
:1042100014F098FD6846808D002801D11CB070BD57
:1042200003F0B1FDF0B59BB0019002AE02203070FA
:10423000701C20252A4614F075FD412031460246A7
:1042400011F0AEFF13AC1F21204614F065FD0120D4
:10425000E07700952136114F7F4401982146324680
:104260003B4612F069F800953046214632463B46FF
:1042700012F07CF8304631463A462B4612F0AAF846
:104280000095019C2046214632463B4612F088F8B4
:1042900020462946FEF747FD1BB0F0BD1A6D010010
:1042A00010B5202A0BD0382A11D0342A1AD10F4A3F
:1042B0004B469A185279002A14D076240EE00B4807
:1042C00049460818C07900280CD0492010BD074A7B
:1042D0004B469A189279002A04D07A24FEF74EFDB4
:1042E000001910BD024803F04EFDC04660000000FA
:1042F00005B10000F0B587B00446059304920E980E
:104300000D9D0C99202846D01F46164638281FD0F0
:1043100034286DD10391394849460818407900285E
:1043200068D0002034220290294603F02FFC002898
:1043300060D0212220460399FEF70AFD2046423034
:104340003422294614F0EEFC0298009076341CE0EA
:1043500003912A4849460818807900284AD000204D
:1043600038220290294612F091FA002842D02122E8
:1043700020460399FEF7ECFC2046423038222946BD
:1043800014F0D0FC029800907A34204632463B4626
:10439000FEF70BFD2CE00E46184849460818C07978
:1043A000002827D02021284600F02CF8002821D012
:1043B00004A80821FEF7B7FC059820710499217024
:1043C000020EE271020CA271000A6071080EE07028
:1043D000080CA070080A607020460830212231467F
:1043E00014F0A0FC293420222046294614F09AFC1F
:1043F00007B0F0BD024803F0C6FCC04660000000F4
:1044000005B10000F0B503AF91B06E46F41D353430
:10441000202911D1F060F51D0D35284614F0EAFF72
:10442000A88585B2002D09D0F01D0D3000218185B1
:10443000206812F02BF929E0002029E03561F01DF9
:104440000D30B06012F022F92060684670606D4651
:10445000483DAD4602202870681C2022F16814F007
:1044600061FC41202946024611F09AFE706885469B
:1044700012F0F6F8B168884202D1206812F006F90D
:10448000F01D0D30808D0028356905D168426841E6
:10449000FC1F053CA546F0BD03F075FCF0B503AF6D
:1044A000A1B06E461546F1607061FC68BA68202BB9
:1044B000326131D0382B6CD0342B00D093E04B4894
:1044C000494608184079002800D18CE0492C00D3D7
:1044D00089E0F01D31303422294603F057FB0028D3
:1044E00000D180E0F21D1132B26020257069F168C0
:1044F0002B4611F0EDFC84B00095306901900294D8
:10450000F01D31303B490322B36811F0C5FE04B001
:10451000002862D1002461E0344849460818C07977
:10452000002860D0402C5ED120212C462846FFF781
:1045300069FF002857D06846B0606D46483DAD46DB
:1045400002202870681C2022214614F0EBFB412435
:1045500020462946224611F023FEF31D3133204622
:10456000294622461D4611F0C3FD86B04020002496
:10457000F168009101940294316903910490012142
:1045800005222846736911F045FE06B0B1688D46D4
:1045900021E01648494608188079002823D0402C8D
:1045A00021D1F01D31303822294612F06FF9002850
:1045B00019D086B040200024F16800910194029443
:1045C000316903910490F01D313001210522736996
:1045D00011F020FE06B0002800D001242046FC1F68
:1045E000053CA546F0BD024803F0CDFB600000008D
:1045F00005B1000001060000F0B503AFA3B06E46A0
:10460000F11D7931316170600124204604F0BEFE55
:10461000B060C01D072188436946081A8546F060CE
:104620007461214604F0BEFE0446F51D513528464E
:1046300014F0E0FEA8850004254610D1F01D51308D
:1046400012F024F831690860F11D113128467268B2
:1046500006F09AFF411E8841F11D81310870B4684F
:1046600011F0FEFFF11D5131884203D1306900681D
:1046700012F00CF8284604F05DFFF068214614F0B3
:1046800061FBF01D5130808D002808D1F01D813074
:10469000007871690840FC1F053CA546F0BD03F099
:1046A00072FBF0B503AF97B06E460D46412901D0BD
:1046B000212D31D1B26101247060204604F066FEE4
:1046C0007061C01D07218843694631616946081A37
:1046D0008546F0602146B46904F064FEF11D153191
:1046E000B06072682B4604F03BFF411E05468D41C9
:1046F000002C07D0002805D0F01D15304021FEF712
:10470000FEFA2070B06804F015FFF068716914F0CB
:1047100019FB3069854600E000252846FC1F053C52
:10472000A546F0BDF0B503AFA3B06E46F11D113143
:104730007161F0600125284604F028FEB060C01DBC
:10474000072188436946081A85463061294604F0E6
:1047500029FE0546F41D5534204614F04BFEA08575
:104760000004B0682C461FD1F01D553011F08EFFAB
:104770007569E866F11D153121232046F26804F0C1
:10478000EFFE00282BD04120286082B0022000904C
:10479000F21D1132F31D15332046F16804F0DEFFDF
:1047A00002B000281ED0B068054611F059FFF11D77
:1047B0005531884203D17069C06E11F067FF204601
:1047C00004F0B8FE3069294614F0BCFAF01D5530EB
:1047D000808D002807D1FC1F053CA546F0BD04488C
:1047E00003F0D1FA014803F0CEFAC04601D100002F
:1047F00005B10000F0B5A9B00D4604466E4630463E
:1048000014F0F8FDB08500041AD1684611F03EFF9F
:104810000A901848784402681FAF41263846294656
:104820003346FFF7D5FA0CAD0123304629463A4608
:1048300011F08AFC08350D9A3046294611F09AFC91
:1048400011F00EFF6946884202D10A9811F01EFF4E
:104850001FA8282114F076FA6846808D002807D119
:104860000CA909312022204614F05CFA29B0F0BDD1
:1048700003F089FADC6F0100F0B503AFBFB06E46FC
:10488000F41DE934B36231637063F463A260012004
:10489000706205026C1C204604F078FD0721C943B4
:1048A000F160B063C01D08406946081A854630644F
:1048B000214604F077FD0446F11D3D31842204F0C9
:1048C00041FE3061284608F0C7F8F061C01DF1686C
:1048D00008406946091A8D46394A7A442046F162F1
:1048E0002B4608F0BDF87060F51DC135284614F060
:1048F00081FDA8850004306930627068B0612CD1F8
:10490000F868B060BD68F01DC13011F0BFFEF16BFA
:10491000086090B0002340202A497944726A0892C6
:1049200009910A90B06A0B900C950D930E93B068A4
:104930000F900793F01DF13006900593306B0490B3
:1049400003930293706B019000932046316AB26921
:1049500008F010F910B000282CD0B06B7061F56928
:1049600011F07EFEF11DC131884203D1F06B006869
:1049700011F08CFE2046B16908F0DCF8F06A294697
:1049800014F0E0F9306A04F0EAFDF01D3D308421B6
:1049900014F0D8F9204604F0CDFD306C716914F0A4
:1049A000D1F9F01DC130808D002804D1FC1F053CD9
:1049B000A546F0BD014803F0E6F9C04601D100006C
:1049C0000B6601008B650100F0B503AFE3B06E46E6
:1049D000634CA419F51DCD35F563F2613164306384
:1049E000B464A360FF240234204604F0CFFC70645A
:1049F0000721C9433161C01D08406946081A854630
:104A0000F064F462214604F0CDFCF11D49318422AA
:104A1000044604F097FD70618025284608F01CF8D4
:104A20007062C01D316908406946091A8D46504AB6
:104A30007A442046B1632B4608F012F8B060494D25
:104A4000AD19284614F0D6FCA8850004706C746378
:104A5000746A7169B162B168316250D1FC68BD6835
:104A60004048801911F012FEB16C086090B000232C
:104A70004020404979440122089209910A900B95FF
:104A80000C940D930E930F9307933748801906905B
:104A90000593F0690490F01DD130039033488019DC
:104AA000029001930093706BB16A326A08F062F869
:104AB00010B000284FD02120F46BF060206082B04D
:104AC000F06A451C0095F21DCD32284B9B19706B86
:104AD000316B04F043FE02B000283CD0F068206047
:104AE00082B00095F21DCD32F31DD133706B316C65
:104AF00004F034FE02B000282DD0706C746AB061EE
:104B000011F0AEFD17498919884203D1B06C0068D5
:104B100011F0BCFD756B2846316A08F00BF8B06BDC
:104B2000214614F00FF9B06A04F019FDF01D493068
:104B3000842114F007F9284604F0FCFCF06CB169FC
:104B400014F000F907488019808D002804D1FC1F5B
:104B5000053CA546F0BD014803F015F901D1000060
:104B600080010000580100008801000018010000C9
:104B7000B564010031640100B0B504461B482081D2
:104B80001B481C492160606020460A301A4979445C
:104B9000122214F0C7F824204D212154204624303D
:104BA0000021C17043218170572141702046293076
:104BB00012497944062214F0B5F8204658301049BD
:104BC00079442CC92CC00F4878440168406821639F
:104BD000606320463830214630316166A0660A495C
:104BE0007944202214F09EF8B0BDC0460145000073
:104BF0000901010051020000066401007F49010023
:104C0000DC640100AC6401009C640100F0B581B07B
:104C1000164604460D1A681E054205D1B0472946BE
:104C200013F03CFE08460CE00020C043294613F078
:104C3000AFFD07464543B047A842FCD2394613F0C2
:104C4000A7FD001901B0F0BD80B503F041FC80BDA7
:104C5000B0B50546072028400024012815D00228B9
:104C600015D10C48002908D04A46101811F0B6FC9E
:104C700028060AD511F0D0F807E049460818412166
:104C80008900002211F0D4FC04462046B0BD022069
:104C900003F079F8B8060000F0B585B0DE4E48465E
:104CA000805D0C2839DD0D2864D00E2800D188E005
:104CB000152800D0D3E0D948494608188079012842
:104CC00006D1484680198079000701D400F027FDFD
:104CD000D34E4D460120A855AC19002767602046E9
:104CE00011F0D6FB6060022011F0E6FC6060CD4C54
:104CF00029194968002900D15AE3CB4A904200D1D2
:104D0000ACE3002800D1A9E34D462A195760884733
:104D1000A819FB49443141604EE3052879D00C289D
:104D200000D09CE0F3494F46012078547C180025C0
:104D30006560204611F0ACFB6060022011F0BCFC05
:104D40006060ED4C39194968002900D139E2EB4A1D
:104D5000904201D100F06FFC002801D100F06BFC03
:104D60004E46321955608847E2483018E4494431CC
:104D7000416031E2DF4E4D460120A855AC190027B5
:104D80006760204611F084FB6060022011F094FC03
:104D90006060D94C29194968002900D184E0D74ABC
:104DA000904201D100F047FC002801D100F043FC03
:104DB0004D462A1957608847A819D14944314160A6
:104DC0007DE0CC494E4601207054751800276F6075
:104DD000284611F05DFB6860022011F06DFC04466E
:104DE0006860C54D70194168002900D1BCE0C34816
:104DF000844200D11AE1002C00D117E14E4670190F
:104E0000476020468847BB483018BD49443141605F
:104E1000AEE0B8494F46012078547C180025656003
:104E2000204611F035FB6060022011F045FC606007
:104E3000B14C39194968002900D165E1AF4A904267
:104E400000D1F8E3002800D1F5E34E463219556051
:104E50008847A8483018AA49443141605FE1A54E0F
:104E60004D460120A855AC1900276760204611F077
:104E70000FFB6060022011F01FFC60609E4C29193E
:104E80004968002900D1F9E19C4A904200D14CE2E6
:104E9000002800D149E24D462A1957608847A819D1
:104EA000974944314160EDE19449884200D1C2E321
:104EB000002800D1BFE39349884200D020E3484650
:104EC0002546041903F0F8F903F000FA7A2004905B
:104ED0002752A06E002800D1ADE3484680194068F3
:104EE0008649884200D1A6E3002800D1A3E32C46DE
:104EF000484640196C26805D002800D19BE3804F16
:104F000011F07EFAB84204D111F0AEFAB84200D0E6
:104F100091E348460019825D049D415B914200D3B4
:104F2000DFE20846382778434A4613199A6E10186C
:104F300068331B6A002B06D0984700280AD04946E0
:104F40000A19515B926E012802D188B24743D019E9
:104F500003F0BEFA48460019415B491C4153825D8B
:104F600088B29042DED3BDE26548443084425DD1D0
:104F70004846461903F0A0F903F0A8F97A24002066
:104F80003053B06E002800D155E3484659494018C7
:104F900040685A49884200D14DE3002800D14AE3D5
:104FA000484640196C26805D002800D143E3544FE9
:104FB00011F026FAB84204D111F056FAB84200D0E6
:104FC00039E348464019825D015B914200D388E293
:104FD0000846382778434A4653199A6E10186833A2
:104FE0001B6A002B06D0984700280AD049464A1968
:104FF000115B926E012802D188B24743D01903F0A9
:1050000067FA48464019015B491C0153825D88B22A
:105010009042DED366E2C046CC000000BC07000030
:10502000F801000090020000445010B048464119B9
:1050300094200958002913D00A46643A00D23A460F
:105040004B465B191A5064290AD8902159580029F7
:1050500006D04A4652199823D35813500020884747
:105060002648844200D1E6E2002C00D1E3E2484623
:105070004019806E002800D145E3484640196C2451
:10508000015D7A26805B884200D33CE31C4F11F01F
:10509000B7F9B84204D111F0E7F9B84200D032E3D1
:1050A00048464019025D815B914200D326E30846E1
:1050B000382778434A4653199A6E101868331B6A8A
:1050C000002B06D0984700280AD049464A19915B20
:1050D000926E012802D188B24743D01903F0F8F943
:1050E00048464019815B491C8153025D88B2904259
:1050F000DED304E3F801000090020000445010B039
:10510000115010B0555010B0F949884200D192E2C8
:10511000002800D18FE2F749884200D031E24846AA
:10512000071903F0C9F803F0D1F87A26BD53B86E19
:10513000002800D17FE24846EF4940184068EC491A
:10514000884200D177E2002800D174E24846001975
:105150006C25405D002800D16DE2E84F11F050F958
:10516000B84204D111F080F9B84200D063E2484659
:105170000019425D815B914200D3B2E108463827B5
:1051800078434A4613199A6E101868331B6A002B2D
:1051900006D0984700280AD049460A19915B926EBA
:1051A000012802D188B24743D01903F091F948464B
:1051B0000019815B491C8153425D88B29042DED365
:1051C00090E1CB49884200D135E2002800D132E29B
:1051D000C849884200D037E24846071903F06CF806
:1051E00003F074F87A26BD53B86E002800D122E28D
:1051F0004846C14940184068BD49884200D11AE27A
:10520000002800D117E2484600196C25405D0028AF
:1052100000D110E2B94F11F0F3F8B84204D111F007
:1052200023F9B84200D006E248460019425D815B8E
:10523000914200D355E10846382778434A4613196E
:105240009A6E101868331B6A002B06D09847002806
:105250000AD049460A19915B926E012802D188B2A0
:105260004743D01903F034F948460019815B491CC3
:105270008153425D88B29042DED333E19F4944318D
:10528000884252D14846051903F016F803F01EF87B
:105290007A2004902F52A86E002800D1CBE1484616
:1052A000801940689249884200D1C4E1002800D1A9
:1052B000C1E1484600196C26805D002800D1BAE1A2
:1052C0008E4F11F09DF8B84204D111F0CDF8B842DC
:1052D00000D0B0E148460019825D049D415B9142D7
:1052E00000D3FEE00846382778434A4613199A6EE1
:1052F000101868331B6A002B06D0984700280AD084
:1053000049460A19515B926E012802D188B247437F
:10531000D01903F0DDF848460019415B491C4153A0
:10532000825D88B29042DED3DCE048460019806E90
:10533000002800D175E1484600196C25415D7A26A8
:10534000805B884200D36CE1F84F11F059F8B84205
:1053500004D111F089F8B84200D062E14846001942
:10536000425D815B914200D356E10846382778437D
:105370004A4613199A6E101868331B6A002B06D020
:10538000984700280AD049460A19915B926E012875
:1053900002D188B24743D01903F09AF84846001961
:1053A000815B491C8153425D88B29042DED334E177
:1053B000DE494431884251D14846051902F07CFF4C
:1053C00002F084FF7A2004902F52A86E002800D1AA
:1053D00031E1484680194068D349884200D12AE12A
:1053E000002800D127E1484600196C26805D00287E
:1053F00000D120E1CD4F11F003F8B84204D111F0F3
:1054000033F8B84200D016E148460019825D049D89
:10541000415B914265D20846382778434A461319C2
:105420009A6E101868331B6A002B06D09847002824
:105430000AD049460A19515B926E012802D188B2FE
:105440004743D01903F044F848460019415B491C12
:105450004153825D88B29042DED343E04846001952
:10546000806E002800D1DCE0484600196C25415DC3
:105470007A26805B884200D3D3E0AC4F10F0C0FFA7
:10548000B84204D110F0F0FFB84200D0C9E048465D
:105490000019425D815B914200D3BDE00846382788
:1054A00078434A4613199A6E101868331B6A002B0A
:1054B00006D0984700280AD049460A19915B926E97
:1054C000012802D188B24743D01903F001F84846B9
:1054D0000019815B491C8153425D88B29042DED342
:1054E0009BE00846904200D0A5E011F027F8A2E02A
:1054F000445010B0555010B0F8010000115010B0D9
:1055000048460019806E002800D18AE048460019FC
:105510006C25415D7A26805B884200D381E0834F11
:1055200010F06EFFB84203D110F09EFFB84278D160
:1055300048460019425D815B91426DD2084638278A
:1055400078434A4613199A6E101868331B6A002B69
:1055500006D0984700280AD049460A19915B926EF6
:10556000012802D188B24743D01902F0B1FF484662
:105570000019815B491C8153425D88B29042DED3A1
:105580004BE0484600198C214058002805D0494678
:105590008919C978490802F0C3FF48460019806E8E
:1055A00000283ED0484600196C25415D7A26805B74
:1055B000884236D25D4F10F023FFB84203D110F07D
:1055C00053FFB8422DD148460019425D815B91429C
:1055D00022D20846382778434A4613199A6E101883
:1055E00068331B6A002B06D0984700280AD049462A
:1055F0000A19915B926E012802D188B24743D019F3
:1056000002F066FF48460019815B491C8153425DE8
:1056100088B29042DED300E00846904201D110F0FB
:105620008DFF484600196C21415C7A22805A8842DD
:1056300001D310F0E9FF10F0E7FF002801D102F0DC
:1056400081FC012005B0F0BD4A46364814186C258F
:10565000605D0490A06E03909219D3799679517988
:105660001079D278274668373F6A00920197000286
:10567000401882B23002C01883B20398049902F035
:105680009DFEA06E274C002845D048460019415D7C
:105690007A26805B88423ED2244F10F0B1FEB84299
:1056A00003D110F0E1FEB84235D148460019425D01
:1056B000815B91422AD20846382778434A4613191B
:1056C0009A6E101868331B6A002B06D09847002882
:1056D0000AD049460A19915B926E012802D188B21C
:1056E0004743D01902F0F4FE48460019815B491C7B
:1056F0008153425D88B29042DED308E00846904272
:1057000001D110F01BFF484640198CE70846904233
:1057100001D110F013FF48460019415D85E71020C4
:1057200002F031FB90020000445010B0115010B054
:10573000D0B502AF90B06E46F41D313403464148F7
:10574000494608184079002802D1404802F01BFB66
:105750003D49484640188178C2780A4356D10579B8
:105760003C4878440068A84250D13949484640181E
:105770004078FE21014002294CD1B460F360E81D5D
:10578000072188436946081A70608546F41D09346C
:10579000204613F02FFEA085000418D1F01D09301B
:1057A00010F074FFB1680860494631602848081855
:1057B000283074682146FDF7D7F823483168081867
:1057C000401D21462A4602F0E4FA00281ED17468E2
:1057D00010F046FFF11D0931884203D1B06800681E
:1057E00010F054FF2046294613F0ACFAF01D0930A2
:1057F000808D0028F4680FD120882021FDF754FA0D
:1058000000280BD06720000202F0BDFA0F48001DEF
:1058100002F0B9FAD120000202F0B5FA49460A486E
:105820000818228880180A4A8918891C202213F037
:1058300079FA20882030208002F00CF9092000033A
:1058400002F0A1FA60000000B806000001B10000FB
:1058500008060000AE550100D0B502AF90B06E460C
:10586000F41D31343C4A49468B189978DA780A435A
:1058700056D11D793B4979440968A94250D1384A2B
:10588000494689184A78FE21114002294BD1B4605B
:10589000F060E81D072188436946081A7060854654
:1058A000F41D0934204613F0A5FDA085000418D18D
:1058B000F01D093010F0EAFEB16808604946316019
:1058C00027480818283074682146FDF74DF822480B
:1058D00031680818401D21462A4602F05AFA00286D
:1058E0001ED1746810F0BCFEF11D0931884203D14D
:1058F000B068006810F0CAFE2046294613F022FA6C
:10590000F01D0930808D00280FD1F46820882021F7
:10591000FDF7CAF900280AD06720000202F033FA26
:105920000E4802F030FAD120000202F02CFA49466B
:105930000948081822888018094A8918891C2022D9
:1059400013F0F0F92088203020800FF033FE09207A
:10595000000302F018FAC046B806000005B10000C6
:10596000480800009A540100D0B502AF82B06E46DC
:1059700004462748494608184079002802D126489D
:1059800002F001FA234D484640198078002824D1BE
:10599000484640190179C07808431ED11F4849463E
:1059A000095CFE220A40022A1BD11D49794409687C
:1059B0007160C91D072291436A46511A4A46101860
:1059C00028308D463160FCF7CFFF20887168FDF7E5
:1059D0006BF9002809D0672004E00F48001D02F091
:1059E000D2F9D120000202F0CEF9484640192188B0
:1059F000401822CE2A46083E13F094F92088401918
:105A0000208002F027F80920000302F0BCF9C0460C
:105A100060000000B806000001B1000008060000A8
:105A200064530100D0B502AF82B06E460446224DE9
:105A3000484640198078002824D148464019017909
:105A4000C07808431ED11E484946095CFE220A4020
:105A5000022A1AD11B49794409687160C91D0722BD
:105A600091436A46511A4A46101828308D463160D3
:105A7000FCF77AFF20887168FDF716F9002808D036
:105A8000672003E00D4802F07EF9D120000202F009
:105A90007AF9484640192188401822CE2A46083E05
:105AA00013F040F92088401920800FF083FD092071
:105AB000000302F068F9C046B806000005B1000016
:105AC00048080000BA520100F0B503AF8BB06E4633
:105AD0007061C54B4846C018C278002A00D07FE1EB
