:02000004C0DE5C
:1000000070B58CB062B6002808D02D494A46531806
:1000100001686C2218461BF0F1F804E028484946B4
:10002000081804F06BFD274E18F08EF94846801929
:100030004F218A000024214607F063FE07F046FEA8
:100040006D4628461BF042FCA88580B2102805D1D9
:10005000684684850A9818F085FDE5E7002809D0F0
:10006000684684850A9818F07DFD02F0F9FD204667
:100070000CB070BD684618F075FD0A9008F0C6F81F
:10008000052000242146224618F09AFC0E494A46D3
:1000900051184862204619F01FFE0125284619F024
:1000A0001BFE204607F03AFC2046214600F0E8FF00
:1000B00006497944284600F0E3FF07F021FAC046DC
:1000C0006000000090020000CC070000DBBB0100D4
:1000D000F0B593B012930F46044600787F2101409B
:1000E000052900D1CCE215460E91208B00F0D8FAFC
:1000F00000280F95119765D04279867900200A90E3
:10010000002F67D0002D65D00992208BE188129ACC
:100110000092EBB2643189B23A4600F0E7FAE18826
:100120000022052D0D9208960C905AD3884258D97A
:10013000208B129900916421914A7A44032300F0A4
:10014000D5FA0A9068083E18E188002810904AD035
:100150000C9A8A4247D92F1A45D000200B90208B49
:10016000129D009589B2109AD3B2119A00F0BEFA8E
:100170000C90E188208B0095FBB2324600F0B6FA75
:100180000A990C9A51180D18E1888D420C952AD9BC
:100190000B9F012F06D0002F05D11098401E0F9BFA
:1001A000119A03E0761C0F9B119A1098002810906A
:1001B00019D08D4217D90120B843921BD7180B9044
:1001C000CDD110E0002110910C910A460E46084650
:1001D0000A9103E00A9910910C9108460B910E9B2D
:1001E00033E0164610950A9603239D03208B0540A5
:1001F0000122D703BD420CD09703BD420D9D0B9544
:100200000F9D119F089E0CD10C9E891B089E0B917F
:1002100007E00C9D6D084908491B0B910F9D119F2C
:10022000089E190308405103884205D011038842F3
:1002300008D12089801B06E07008C0432189490845
:10024000081800E00D980E9B099A032B07DC0D900F
:10025000012B5FD0022B0BD0032B5BD010E2042BC1
:1002600053D0062B00D196E10D90072B00D007E26A
:10027000207B01282CD10992072B314600D0002188
:1002800004200790205E0891421A0227E15F60690E
:10029000072B099B00D0238900930B9D2B4618F058
:1002A000EFFB0C982818E15F4118E288131A0798B1
:1002B000205E089A821A60690E9D072D01D025895B
:1002C0000995099D009518F0DBFB0F9D119F0E9B72
:1002D000002F00D1D4E1002D00D1D1E108960220F9
:1002E000205E0C9004200790215E206909906269CD
:1002F000208BE68825890397109F0497129F059706
:10030000072B00D15FE10D9B5EE10D90E07A0028A4
:1003100000D1B7E1E3885A0821894808824216468D
:1003200000D30646E57AAE4203D88242154600D392
:100330000546207B012825D104201090225E02274B
:10034000E65F20690091A9196E009B1B18F098FBCD
:10035000E15F1098225E2089831B20690093AA1810
:100360002B4618F08DFBE15F1098225E2089831BDD
:100370002069E6880093AA18491B89192B4665E075
:100380003CBB010004200C90225E0226A75F109661
:1003900060690091E9196F00DB1B18F071FBA15F28
:1003A0000C9EA25F2089C31B0E9760690093AA1858
:1003B0002B4618F065FB1098215EA25F2089C31BB5
:1003C0006769E0880093AA18EB43C91809183846F2
:1003D0002B4618F055FBA05F0A903746109EA15F90
:1003E0002269E388A07A009069180E981B1A1046BB
:1003F0000A9A18F045FBE05F0A90A15F2069099016
:100400002289E388A07A009069180E9FDB1B0A9866
:100410008018421E099818F033FBA05F0A900C9ECA
:10042000A25F2089C11BA37A20690091AA180A99AA
:1004300018F026FB1098215EA25F2089C61BA37AC4
:100440002069E7880096AA18C919491E18F018FBF8
:10045000022D119869D3207B012802D0A07A281A96
:1004600000D20020109004200C90205E0A90022000
:10047000215E07460E9020696369C0220092109E9B
:100480000196029369180A9AAA182B4600F0D9FA25
:100490000C98205E0A90E05F0890206909906369DB
:1004A000E188A07A30220092019637461096029396
:1004B0002818089A5118091A0A982A1809982B46D8
:1004C00000F0BFFA0E98205E0A900C9EA05F089084
:1004D0002069099063692189A07A0C220092019712
:1004E00002932818089A51180A1A0A982918099884
:1004F0002B4600F0A6FAA05F0C900E98215E2069B2
:100500000E9063692689E788A07A03220092109AE8
:10051000019202932818C919091A0C9A101A821903
:100520000E982B4600F08DFA119800280F9800D1F4
:10053000A6E0002800D1A3E0237B10211420012B8A
:100540000A4600D00246012B00D00846A15810915F
:1005500020580E900220215E0420255E208BE68824
:100560002789A37A119C03940F9C0494129C0594F0
:100570000124E443002B00D05C430D9ABB1A1B19E5
:100580000B9FF61B341955190095019402937B18A3
:100590000E99109A72E00420205EE37AC2180220BD
:1005A000205E19182069267B0025012E03D0A67A2B
:1005B000B34200D99D1B6469FF2600960195029401
:1005C00000F03FFA5CE000231093ED1A0B9FF31B41
:1005D000019302950E9B072B01D00D9B01E0089B18
:1005E0005B420D935B1800930B9B0C995B18099968
:1005F00000F0CBF801460A98002841D0079FE35F3E
:1006000020690C9060690E90208B0990E5882689FE
:100610000891032121487844109AB61A0B9AAD1A12
:100620000D9AD31800AA68C203900491129D0595F3
:10063000089883B209980C990E9A00F0A6F80E90CB
:10064000E35F20690C9060690990228BE688248919
:100650000F98119FC7190A983F1A1099641A0B999D
:10066000761A0D99CB180093019602940390049783
:1006700005950E9883B210460C99099A00F085F8FA
:1006800013B0F0BD0420225E0220215EE3882069C1
:100690002489009418F0F4F9F2E7C04660B601002E
:1006A000F0B581B00E4D05400E48784401688800D1
:1006B0000D4A7A448018001F4E1C761E0CD0071F6E
:1006C0000468204608F09AFB0068A8423846F4D136
:1006D000204608F093FB00E0002001B0F0BDC046CA
:1006E000FF0F00005ACA010046CA0100F0B583B0EE
:1006F0001C4615460191FFF7D3FF0026002841D084
:10070000002C019A3ED00026029003892F789F4248
:1007100002D34189B94213D20A2F33D00D2F31D0E1
:10072000B809032803D33F20074039461EE078B2BA
:10073000002100281AD5B806009109D50F2008E03D
:10074000F91A8F00C06808F059FB019AC15D0DE0ED
:100750000E20FFF7A5FF0028019A009906D0C06877
:1007600008F04CFB019AF906490E415C002A03D0BF
:10077000B0B20818904205D86D1C641E7618200689
:100780000298C2D1B0B203B0F0BDF0B5A3B00A93E5
:100790000F91149110921392FFF782FF002800D15D
:1007A00044E12C9907910B90047900200990C043F3
:1007B0000890022C5DD313AD281D3C210D901AF03A
:1007C00017FD10981390089AA240D0431290800011
:1007D0000F9929500E92901C0C900026F7000F984C
:1007E000F840C5B21098F840C4B2A542284600D3DC
:1007F0002046A542294600D82146081A401C1299D5
:100800001AF032FAA542119617D90221C9430E9A5D
:100810008A422AD801210D9A0C9B05464D432D1979
:10082000FF2D00D3FF25BD4016682E4340C25D1C3E
:10083000491C9D422B46F0D217E00221C9430E9A73
:100840008A4212D801210D9A0C9B129C641A4443CF
:100850006419FF2C00D3FF24BC401668264340C215
:100860005C1C491C9C422346EFD2119E761C032E31
:10087000B4D1289C079D002D00D1D9E02A98299950
:100880002B9F02190A9809180D9103460B99099894
:100890002E4601251195AE1B3D780D2807D10A2D56
:1008A00005D1761C7F1C0A20012EF5D1C1E00E93E4
:1008B0000F94134608894A791292854204D30B9902
:1008C0004989A9420B990FD20D2D01D00A2D27D1AC
:1008D00012980F9A121814461018984200DDADE0D5
:1008E0001A4628460A9B67E00C93281A099085004F
:1008F000086908F083FA04460B98C06808F07EFA8D
:1009000040194088201806900B98C06808F076FAC5
:100910000E9B455D0B98C07907900F9C224613E013
:10092000C02D0C9305D33F212940002009950D4689
:1009300005E068B2002845D40020099505460790D7
:1009400006900F9C22460E9B58190D99884207D994
:100950001298241820180C9988426ADC0A9B2246B7
:100960000698002819D00F920246129868430B99F6
:100970000979484304900392029113A801901198B9
:100980008840009018460F992A4611951D46129BE3
:1009900018F054F82B46119D08E01298009010981A
:1009A00019460E932B4618F06BF80E9B0B990C9A78
:1009B00007982818C3180998089D75437F1C002EB6
:1009C00037D065E7A80601D50F2000E00E200F9C68
:1009D000FFF766FE002823D00F90006908F00EFA9A
:1009E00012900F98C06808F009FAE906490E0991BB
:1009F000401840881299081806900F98C06808F0AF
:100A0000FDF90999435C0B98807922180F98817938
:100A1000521A407912900020079009951D4692E7DE
:100A2000002009950546079006908BE7002003E01B
:100A30000A9B98B22104081823B0F0BD0E9880B22A
:100A4000F8E7F0B59DB01B921A9106462398411E17
:100A500002468A4118921393191A1291002901DC57
:100A6000002100E00121139A002A00D5C0E1189A64
:100A70000A401892249910912299139FC21B039245
:100A800080220A400A9240220A400D9220220A4007
:100A9000099210220A400C9208220A40089204226D
:100AA0000A400B920123129A9C1A069402240C40CD
:100AB000079419400E911C93DC1B1A994018C01B17
:100AC0000590401C04900025E943501E0F90169598
:100AD0001196481C17900E9800281995159114949A
:100AE00006D10798002855D0189800281FD147E054
:100AF0001898002838D01C9C00940F983B1A1B981B
:100B00004018451C10981A9E31462A4617F0B8FF27
:100B10000094149CB819119E0699411830462A4633
:100B2000199D129B17F0ACFF0798002832D01B9834
:100B30003D181398B8420AD01C9800900398159954
:100B40004018831C10981A992A4617F099FF1C9890
:100B50000090059815994018811C30462A46129B32
:100B600017F08EFF199D15E01C9800901B984218F5
:100B700030461A993B4617F083FF0798002809D0A2
:100B80001C9800901B983818421E30461A99179BE3
:100B900017F076FF0B98002806D1089800285AD045
:100BA000189800281FD133E01A98C51B1898002800
:100BB00020D01C9C00940F9EBB1B1B9815994018BD
:100BC000421C02921098294617F05AFF0094149C78
:100BD000A91B1198029A119E129B17F051FF0898B9
:100BE0000028199D37D01398B8421BD11B983E1886
:100BF0001C9827E01C9800901B98159942183046C5
:100C000029463B4617F03CFF08980028199D22D042
:100C10001C9800901A9841191B983818421E3046AB
:100C2000179B16E01C9C00941A9841191B983E18BB
:100C30000398159A8018831C1098324617F020FFED
:100C40002046149C0090049841191198324606469B
:100C5000129B17F015FF0C98002806D10998002860
:100C600053D0189800281ED146E01B9845191898B3
:100C7000002835D01C9C00940F983B1A10981A9E9F
:100C800031462A4617F0FCFE0094149CB819119EB8
:100C90000699411830462A46129B17F0F1FE099832
:100CA0000028199D31D01B98C51B1398B84215997F
:100CB0000AD01C98009003984018831C10981A9929
:100CC0002A4617F0DDFE15991C98009005984018EB
:100CD000811C30462A46129B17F0D2FE199D14E063
:100CE0001C98009030461A992A463B4617F0C8FED9
:100CF00009980028199D08D01C9800901B98C21BC9
:100D000030461A99179B17F0BBFE0D98002806D1A4
:100D10000A98002856D0189800281ED131E01B9858
:100D200045191A98C61B189800281DD01C9C0094C1
:100D30000F983B1A109831462A4617F0A1FE0094EE
:100D4000149C0F98311A119E30462A46129B17F0B8
:100D500097FE0A980028199D34D01398B84219D1EB
:100D60001B98C21B1C9826E01C98009011983146D5
:100D700006462A463B4617F083FE0A980028199D2E
:100D800020D01C9800901A9841191B98C21B30461D
:100D9000179B15E01C9800901A9841191B98C41BCA
:100DA0000398159A8018831C1098224617F068FE45
:100DB00022461C98149C0090049841193046129BBE
:100DC00017F05EFE791E012C384600DB0846169AA5
:100DD000521C012C169201DB169A521A510061180E
:100DE0004C1C6D1E179981421397074600DA70E676
:100DF0001DB0F0BDF0B589B08E68022E20D80C462B
:100E00000421415E08910221405E05902068069011
:100E100060680790E06807F0F1FF0546A768206961
:100E200007F0ECFF0ECC0124B4404B43534300A920
:100E3000B0C103900493089905AB0DCB17F0FEFDEC
:100E400009B0F0BD70B584B000200390029002ADEF
:100E500008242846214617F09DFDA87802994140B4
:100E600003984840A97941402970E8786A7842405F
:100E700068795040EA7942406A70D0B20090064DDD
:100E80004E467019401CCBB21721044A7A4407F031
:100E9000C5FD745504B070BD0000000074AE0100C3
:100EA000F0B58FB007AD2846183007211AF0A0F929
:100EB0000620687011202870A81C2449794410224B
:100EC0001AF09CF90024EC751820A8756C750C209C
:100ED00028751220E8740520A8741A484946081895
:100EE000C588868818480F1838461AF039FD0097CB
:100EF000C3B230462946224601F062FA0125002895
:100F00001CD1114E182007A901F02AFB002815D189
:100F10004846851928461AF023FDC0B20094019076
:100F2000029503940494059406943021602220468F
:100F3000234601F017F80546401E854128460FB0AC
:100F4000F0BDC04618000000000000004CC20100C7
:100F5000F0B589B0444F4846C0190021818414215E
:100F6000017301F0DFFA002872D1FFF76BFF002058
:100F700006213F4A7A4401F083FA002868D101F043
:100F80004DF9002864D14846C01901460831821D38
:100F900000920191031D012000241822214601F036
:100FA000ADF8002854D10125284601F029F8002881
:100FB0004ED104942D4803900295102601960820E6
:100FC00008900090284629462A462B4601F03AF818
:100FD00000283DD14846C0190E3000900220254916
:100FE0007944012509232A4601F036F900282FD13A
:100FF0004846C119C88910310A2200961646019444
:10100000029403920495059102211B4A7A44992384
:10101000079101F071F900281AD14846C119C88911
:101020001231089A00920192079A0292039604954F
:101030000591124D7D44992311462A4601F05CF931
:10104000002805D10120072101F048FA002802D02C
:10105000012009B0F0BD4846C019C462FFF720FF67
:10106000411E8841F5E7C0461800000040E201003B
:10107000C4C1010028C101000CC10100F4C001007D
:10108000F0B581B004461E484F46381848211AF082
:10109000AFF81C48242139541B49791800264E60AA
:1010A0003D18686800906E60284617F05DFC174890
:1010B00044213954009969603818002C01D1214627
:1010C00000E00321C170012181704670042117F0F6
:1010D000F1FC0B497C500E4D002C0AD07819406A67
:1010E000002806D10020014606F0D2F8FFF730FFB5
:1010F00001E04846465048464019C68301B0F0BD5D
:1011000018000000F801000090020000CC00000070
:10111000CC070000B0B50848494624220A54074AC3
:101120008A18002353600C1865686360204617F026
:101130001BFC6560B0BDC046F801000090020000D5
:1011400010B504464068083000F004F8411E88419C
:10115000207010BDF0B583B004464078E51C012630
:101160003E2809D0FF2832D00528304600D0C3E001
:10117000FFF7D0FF00F0DEF8E078012800D0BAE0F9
:1011800068484F4602963E1814203073A878E978D4
:101190000902081870817D21890000910C21182214
:1011A0000024234601F004FA5F48242139543476A0
:1011B0005F497918CC835D4979184C603D186E6899
:1011C0006C60284617F0D0FB6E60029894E0287897
:1011D0006978090208180321890288420CDC4C490D
:1011E000884219DC4D4988421DD04D49884200D0C3
:1011F00081E000F08BFA7EE0424988422ED04249DD
:10120000884243D04149884275D14648494608182A
:101210002979C91E01736EE03E4988426ED1686823
:1012200000F0D4FA67E0E079401E012806D83D4876
:10123000494608184089052100F0A6FF3A4849466A
:1012400024220A54394A8A18002353600C1865680E
:101250006360204617F088FB65604CE02879697967
:10126000090209182F4A48468018008A801C8842C3
:1012700041D1607B01283ED1A07B002830463BD184
:101280004846821801201076918235E028796979E4
:1012900009020918234F4846C019408A401C884259
:1012A00029D14846C01900228263007E002808D058
:1012B000607A21460A3100F073F8287969790902C9
:1012C0000918A878EA78637A0A3400930194120224
:1012D00010180022134601F0A3F800280CD148464C
:1012E000C019826B002A06D04846C119088A3C31D1
:1012F000D2B200F02FF8304603B0F0BD0649884264
:1013000033E7C046010C0000130C0000030C000082
:1013100004040000090400000504000001040000AA
:101320000204000018000000F80100009002000014
:10133000CC07000005484946081800220276044BF5
:10134000C918CA834281102006F0FFFC1800000073
:10135000CC070000F0B581B014460D4606460E4994
:10136000484640187D210901C18348460B49401871
:10137000C0890095002731463A46234601F020F8FF
:101380004328F2D04528F0D06428EED048460249E0
:101390004018C78301B0F0BDCC0700001800000062
:1013A000F0B581B00246784D484643190020986355
:1013B000002A2AD04B465B1925241B5D002B3AD10D
:1013C0000B78012B39DD022B4ED0082B5FD0052B7B
:1013D0001CD14B465B1924241B5D002B2BD1032A07
:1013E000034613D34B465B199C8B230A4E789E42CF
:1013F00003460BD1E3B28E789E42034606D1002C01
:1014000074D0042A76D2072300E06723494649199D
:101410003C220E248C5405228A633C3148804B7058
:101420000871484641190022CA628A84574BC01885
:1014300008624A838A8301B0F0BD002B40D0012BA3
:10144000E4D10523032AE1D34C78002CDED18C783B
:10145000002CDBD148464019092A00D309228263B7
:101460003C3019F0CFFEDCE70423032ACED34C78BE
:10147000002CCBD18C78002CC8D148464019092AC1
:1014800000D3092282633C3019F0BCFED3E7062367
:10149000052ABBD34A78002AB8D189780029B5D16A
:1014A000484640190021C1633C21082242540621CC
:1014B000816301463C3101220A71007B4871BAE721
:1014C0000323052AA2D34A78002A9FD189780029CC
:1014D0009CD14846401944210022425402644021D4
:1014E00004234354C263092181639AE7052A0CD27D
:1014F00008238BE7D21E48464019468B93B2B3426D
:1015000000D81646006AC91C1DE04B465C191F4EE8
:101510009B190E79CF7823623B029E196683B7B27E
:10152000E7620123052A00D170E74124A400A74205
:1015300000D96BE7501F82B2BA4200D8064648462F
:10154000124A8018491D124A4F46BA187D231B01C2
:10155000D383B4B2224619F055FE7819016A0919ED
:101560000162418B891B4183828B521C8283080458
:1015700000D060E74846064941180022CA83401956
:10158000C06A488057E7C04618000000C80600003F
:10159000CC070000F0B503AF89B06E464E4B4A460B
:1015A000D418227BD21D07239A436B469D1AAD4661
:1015B0002422A35C002B01D0012088E030624C463D
:1015C000134645482218012073613061D054306AB7
:1015D00010620020908351830246404820184280C8
:1015E000002962D00B46681D3060E81C7060F56011
:1015F000AA7005212970100A68704846364C0019F7
:10160000047B98B2F2611204336212D04A46324926
:101610005218E41E844200DB0446116AB161A5B28F
:1016200070682A4619F0EEFDB0694019254603237B
:1016300014E0B1612B711A0AEA704A462649521821
:10164000651F854200DB0546146AAAB2B2603068A5
:10165000214619F0D7FDB0682018B36949461E4AE3
:101660008918252432690A55F269521C8A83326A24
:10167000521B4A8308627069085C002821D04846E2
:10168000154934624418208A5919CAB2F5682946A6
:10169000FFF760FE0020316A6054638B002B04D09A
:1016A00048460D494018828BA2E7494600200B4D61
:1016B0004855094A8A187369D0549083491948805B
:1016C00005E0484604494018002101550220FC1F4E
:1016D000053CA546F0BDC04618000000CC07000040
:1016E00080B582B06A46074B1846114601DF0648AE
:1016F0000099814202D1019802B080BD042006F019
:1017000024FBC046EC890060D4890090F0B581B01C
:1017100000251349164A7A44284603F039FA03464D
:1017200010484E4630180621016343630E4FF419EA
:10173000E16025722046103010210E4A7A4407F0ED
:101740006DF92320F05518206060084830180A49C8
:1017500079444160204617F007F901B0F0BDC0465A
:1017600040420F0018000000F80100009002000045
:10177000C7FFFFFF84A201002900000070B50446E6
:101780000E48494624220A540D4A8A180023536001
:101790000D186E686B60284617F0E6F86E60094811
:1017A000844207D1084849460818416B408900F037
:1017B0007FFC70BD0120FFF763FC70BDF8010000E5
:1017C00090020000115010B01800000070B50346E0
:1017D0000F484D4628180621016343630D4EAC198E
:1017E000E160012020722046103010210B4A7A441B
:1017F00007F014F92320A85518206060064828181F
:10180000074979444160204617F0AEF870BDC046E4
:1018100018000000F801000090020000D2A10100B1
:101820001F00000070B504460E48494624220A54A1
:101830000D4A8A18002353600D186E686B602846A5
:1018400017F092F86E600948844207D1084849466B
:1018500008184089012100F0BDFC70BD0120FFF790
:101860000FFC70BDF801000090020000115010B094
:101870001800000070B50446052119F07BFA0D46EA
:10188000022905DC012D0BD0022D07D104260AE028
:10189000032D07D0042D01D1012604E0002602E02B
:1018A000062600E00326E000052119F0DDF9002DF1
:1018B00000D0401C801970BDF0B585B00E46039075
:1018C000052704921046394619F054FAFF430120C7
:1018D000022907DC012912D002290BD10290BF1C7A
:1018E000042012E003290DD0042903D102907F1DAA
:1018F00001200AE0002701200190029706E00290F3
:10190000062002E00290FF1C032001900498FFF7DC
:10191000B1FF38183BD0002422462346D5086F1C5F
:1019200004998F42214600D2F15D775D07251D4065
:10193000032D05DC012D0ADC002D11D1FF0819E073
:10194000052D08DC042D0ED1C9093D0710E0022D3C
:101950000CD1B90608E0062D16D14909BD0707E0EC
:1019600089097D0704E07906CF0E03E00909FD0728
:10197000ED0E4F190B497944C95D039DE954521D81
:101980005B1C9842CAD102E01F210F40F2E7029986
:10199000002905D0039908183D22019919F036FC59
:1019A00005B0F0BDC9B70100F0B583B00F460546DC
:1019B0003D213A4619F03CFC0646EC190022D04382
:1019C0000290002E08D0A64206D0304601783D296C
:1019D00038D1401C8442F9D10192002E00D0771BEF
:1019E00005214F43FF08384619F0C4F9022905DCE8
:1019F000012909D002290BD104200AE0032905D0CE
:101A0000042905D1012004E0062002E0032000E0C3
:101A10000198002E00D0A61BB04213D1002F14D085
:101A20000B4E7E443C46287801F059F901462022AD
:101A3000304619F0FDFB002804D06D1C641EF2D165
:101A4000384600E0029803B0F0BD0020FBE7C04636
:101A50001DB70100F0B58BB0174605460991084641
:101A60001146FFF7A1FF002800D195E000244B4963
:101A700079440A91214603942246019708920590E1
:101A800006953D4605271046394619F0EDF80646FD
:101A90007E432046394619F0E7F807460998C05DAD
:101AA00001F01DF9014620220A9819F0C1FB0790A8
:101AB000781CA842039B19460DD20999085C01F0D5
:101AC0000EF90146202204940A9C204619F0B0FB2E
:101AD000039B011B049C0491089A961BB91CA94204
:101AE0002F460FD20998405C174601F0F8F80146DE
:101AF000202225460A9C204619F09AFB3A46019F6F
:101B0000031B2C460A980799091A012E10DD022E94
:101B100022D0032E25D0042E069D0598029E32D198
:101B200013461F22049E16401A46490176182AE0E1
:101B3000002E21D0012E069D0598029E23D18907F3
:101B4000090E1646049AD206920E5118DA06D20FE2
:101B5000891832460E4616E008010499C906090F95
:101B60000EE0C907090E1046049AD206520E51180B
:101B70000246D806800F03E0C8000499C906490F41
:101B80000E18069D059802962E7008346D1C401E96
:101B9000521C002800D071E70BB0F0BDCFB6010099
:101BA000F0B503AF8DB06E46154631620022002DB0
:101BB000144608D00024316A095D002903D1641C51
:101BC000A542F8D12C463060291B8A204843642165
:101BD000326319F049F8024608323B4911406A461F
:101BE000521A3061411C954672601046F16019F03E
:101BF00015FB326BB460A5422FD9306971680818A3
:101C000070610020B0610346B168F561306A7162AD
:101C1000405C0146B3621943B26918D0002273696F
:101C2000F362326319780D0205433A2428462146AF
:101C300019F01AF8F36A326B4443291B1970C0B2C9
:101C40005B1E521C0028EBD1B16A8A42E8D3716A4C
:101C5000491CF569A9421346D8D1F068841A306945
:101C6000A04235680ED330697168091850420A18CD
:101C70005278002A03D1401CF9D3F46802E031699C
:101C80000818441C002D17D031222846B16819F0DD
:101C9000BDFA306984420FD870680019B1686918BC
:101CA000F268121B094B7B4405785D5D0D70401C8A
:101CB000521E491C002AF7D1B068F1680818001BB1
:101CC000FC1F053CA546F0BDF8FFFF07BEB40100B0
:101CD000F0B58BB001920D460290171F03AE202481
:101CE000084639463246234616F0C0FB30462146A8
:101CF0003246234616F0BAFB0398E855E919020E5E
:101D0000CA70020C8A70000A487002982946019A2B
:101D1000FFF746FF0BB0F0BDF0B503AF8BB06E46DA
:101D200070600024002A254607D00025485D312830
:101D300003D16D1CAA42F9D11546B161511B3A4835
:101D400048437D21C900F26118F08EFF0246083237
:101D5000364911406A46521A3061411C9546B260BC
:101D60001046316019F05AFAF560F069A8422DD991
:101D70003069B168081870610024E043B062F1680E
:101D80003462B0697162415C294878443A2504465E
:101D90002A4619F04DFA002841D0001BC0B2014676
:101DA000336A002419430CD071690A786A43101809
:101DB0000870B26A8918000A641C0028F5D19C4298
:101DC000F3D3716A491CF0698142D9D133681D1B74
:101DD0003069A8420ED33069B168091860420A1808
:101DE0005278002A03D1401CF9D31D4602E0316924
:101DF0000818451C591BF4680819B062706800285F
:101E00000DD07162214619F009FA3069854206D871
:101E100070680019B1684919726A19F0EFF9B06A6F
:101E2000FC1F053CA546F0BDDD020000F8FFFF00E9
:101E3000DAB3010010B50A46014600242046FFF738
:101E40006BFF032800D8E04310BDF0B589B004460D
:101E5000FFF762FF051F01AE2027204629463246C4
:101E60003B4616F003FB3046394632463B4616F0F9
:101E7000FDFA01980090615D621953781B025918B0
:101E80009378D2781202D21812045118091A4842D3
:101E9000484109B0F0BD0000F0B5FFB086B004AC19
:101EA0000FC40120010244AE304616F021FB34AFCE
:101EB00040243846214619F0B1F9FF2002307880DD
:101EC0008B988A9D002D039000D1284678708198C8
:101ED000387010362249794430463A46234605F098
:101EE00019FF002D2CD014A8802119F081F908AC1D
:101EF000204619F0EBFCA085000411D108A816F0CB
:101F000031FE129014AC20462946039A19F076F956
:101F100000210091019144A88023224616F08AFAFC
:101F200016F00AFE08A9884202D1129816F01AFE8D
:101F300014A8802119F072F908A8808D00280CD10E
:101F4000049800900598019044A80121069A079BE7
:101F500016F070FA7FB006B0F0BD05F0F6FEC04690
:101F6000CEB20100F0B5CBB0150A04AC2571E27019
:101F70000A0AA2706170519DE5715099A171637157
:101F8000207003A9029100200190087027460837AD
:101F9000529938462A4606F021FF539E7E557819FD
:101FA000471C54993846324606F018FF5598B855E4
:101FB000B919569A130ACB708A70000A487045A85E
:101FC00000901822019F394606F00EFF01204A902A
:101FD00002984990A8190D30C0B24890479407481C
:101FE00045900098394605F083F9002801D40398FC
:101FF00000E0F843C0B24BB0F0BDC0463F008300E4
:10200000F0B5C9B002AE307001AF00243C7043ADF2
:1020100018222846214606F0E7FE012048904797FF
:1020200046904596064843902846214605F060F9BB
:10203000002801D4019800E0E043C0B249B0F0BDEF
:102040003F008500F0B5C9B0519C250E02AEB572B7
:10205000250C7572250A3572F471529CF472509CED
:10206000B4714F9C74714E9C3471F370B270717086
:10207000307001AF00243C7043AD18222846214641
:1020800006F0B2FE0120489047970C2046904596F6
:10209000064843902846214605F02AF9002801D435
:1020A000019800E0E043C0B249B0F0BD3F008600B7
:1020B000F0B5C9B00A0C02AEB2807180308001AFB9
:1020C00000243C7043AD18222846214606F08CFEC1
:1020D0000120489047970620469045960648439031
:1020E0002846214605F004F9002801D4019800E0B3
:1020F000E043C0B249B0F0BD3F008800F0B5CDB0BC
:10210000009301920291044604A803900026072739
:1021100031463A4606F068FE06AD0198A87002986E
:1021200068702C7047AC18222046314606F05CFEE1
:102130004C97039F4B9703204A904995114847902D
:102140002046314605F0D4F8002818D404A80078B9
:10215000002815D1781C5399529A037844782402A8
:10216000E318009C23808378C4782402E31813804A
:1021700002794079000280180880304600E0FF2094
:102180004DB0F0BD3F008A00F0B5C9B002AEB170ED
:10219000308001AF00243C7043AD18222846214610
:1021A00006F022FE0120489047970320469045966E
:1021B0000F204490064843902846214605F098F8A1
:1021C000002801D4019800E0E043C0B249B0F0BD5E
:1021D0003F009300F0B5C9B002AEB170308001AFDE
:1021E00000243C7043AD18222846214606F0FCFD31
:1021F0000120489047970320469045960648439013
:102200002846214605F074F8002801D4019800E022
:10221000E043C0B249B0F0BD3F00A50070B588B042
:1022200001AE0024347002AD18222846214606F083
:10223000DBFD0120079006960648029028462146BD
:1022400005F056F8002801D4019800E0E043C0B240
:1022500008B070BD3F000101F0B5CBB00193029210
:102260000F46064603A800210324224606F0BCFDC3
:1022700004A80670B11E4A424A410225012E294691
:1022800000D01101012E02D0022E2DD11025401CAC
:10229000461839462A4606F0A1FD0198707002984A
:1022A000307045AF002618223846314606F09CFDB6
:1022B0004A9403A84990E81C489004A847900D4808
:1022C00045903846314605F013F800280ED403A88F
:1022D000007800280BD1509803A94A788978090220
:1022E00089180180304602E0472000E0FF204BB013
:1022F000F0BDC0463F000201F0B5CFB01D460692CA
:102300000F46064607A800210324224606F06CFD6E
:1023100008A887700680B91E4A424A410226012F4A
:10232000314600D01101012F02D0022F40D11026DA
:10233000C01C4718589901910594579C56990291D1
:1023400055990391549904910699324606F046FD39
:10235000280A78703D700198B8717C7102983871C4
:102360000398F8700498B87049AF002518223846D1
:10237000294606F039FD05984E9007A84D900A367B
:102380004C9608A84B900D4849903846294604F0D1
:10239000AFFF00280ED407A8007800280BD1599869
:1023A00007A94A788978090289180180284602E03D
:1023B000472000E0FF204FB0F0BDC0463F000401C1
:1023C000F0B5C9B01D4602AF7B713A717980388093
:1023D00001A8009000240470B81D4E991A4606F01A
:1023E000FDFC43AE18223046214606F0FDFC0120DC
:1023F000489000984790A81DC0B24690459707485E
:1024000043903046214604F073FF002801D4019820
:1024100000E0E043C0B249B0F0BDC0463F00060155
:10242000F0B5C9B002AF4E9DBD717B713A71798034
:10243000388001A8009000240470F81D4F992A46A6
:1024400006F0CCFC43AE18223046214606F0CCFC08
:102450000120489000984790E81DC0B246904597EB
:10246000064843903046214604F042FF002801D43C
:10247000019800E0E043C0B249B0F0BD3F00260142
:10248000F0B5C9B00D4602AF7970387001A8009060
:1024900000240470B81C11462A4606F09FFC43AE87
:1024A00018223046214606F09FFC012048900098F3
:1024B0004790A81CC0B246904597074843903046C5
:1024C000214604F015FF002801D4019800E0E04304
:1024D000C0B249B0F0BDC0463F000C00F0B5C9B075
:1024E00002AE7170307001AF00243C7043AD182211
:1024F0002846214606F078FC0120489047970220A4
:1025000046904596064843902846214604F0F0FE42
:10251000002801D4019800E0E043C0B249B0F0BD0A
:102520003F000F0070B588B001AE0024347002ADDA
:1025300018222846214606F057FC012007900696EF
:10254000064802902846214604F0D2FE002801D415
:10255000019800E0E043C0B208B070BD0300030082
:10256000F0B5C9B002AE307001AF00243C70701CF1
:102570001F2206F033FC43AD18222846214606F000
:1025800033FC012048904797202046904596074805
:1025900043902846214604F0ABFE002801D4019860
:1025A00000E0E043C0B249B0F0BDC04608000900F9
:1025B000F0B5C9B002AE4E9C3481F380B280718018
:1025C000308001AF00243C7043AD182228462146DC
:1025D00006F00AFC0120489047970A20469045964D
:1025E0000F204490064843902846214604F080FE80
:1025F000002801D4019800E0E043C0B249B0F0BD2A
:102600003F008101F0B595B003930646802000237A
:1026100033503648F0603648B0603648706036480F
:10262000306008683061486870618868B061C86867
:10263000F06108693062486970628869B062C8698F
:10264000F06204933363106870635068B063F3679B
:102650001A980290B0673046803043609068F0630B
:1026600005AC01943046214600F048F83046403031
:1026700001462246B8CAB8C14322B35C0F210B40C1
:10268000B35435464335049A6A732A790A402A714D
:102690002A7A0A402A722A7B0A402A736978FC2225
:1026A00011406970697911406971697A11406972E4
:1026B0001124214600F037FB37465137019910317C
:1026C0001022384618F09AFD0498A877384621461B
:1026D00000F029FB30466230214618F09FFD30465D
:1026E0000399029A00F086F815B0F0BD7465206B6E
:1026F000322D62796E64203365787061F0B593B0E5
:102700000C4601906CC86CC46CC86CC46CC86CC4BA
:102710006CC86CC408463C30059008462C300490C8
:1027200008461C30039008460C301190084638309B
:102730001090084628300290084618300F9008463E
:1027400008300E90084634300D90084624300C9026
:10275000084614300B90081D0A9008463030099046
:102760000846203008901291103107910020029EF7
:10277000039C049F059D0690129807AB0ECB00F0BA
:102780001DF90AAB0FCB00F019F90E980F993246DC
:10279000109B00F013F9119821463A462B4600F0A1
:1027A0000DF912980B9932462B4600F007F90A985A
:1027B0000F993A46099B00F001F90E982146089AB4
:1027C0000D9B00F0FBF8119807990C9A109B00F0F4
:1027D000F5F80699481C0929CDD30020019B129CCD
:1027E0001958225851182150001D4028F8D113B013
:1027F000F0BD0000F0B58BB01646024640320292A2
:10280000623003903009401C039D102E344600D3E3
:102810001024002C23D006AF04903846059105996A
:10282000224618F0EBFC38191021091B18F0F6FCB1
:102830000120387411243846214600F074FA2846E5
:1028400029463A46234615F0FDFF0094074B7B448A
:1028500028462946029A16F025F804980599103161
:10286000103E401ED1D10BB0F0BDC0469EA9010064
:10287000F0B593B0174602910546802028582E46A1
:10288000803671680022C0185141009210465041B4
:10289000012825D01C46286B401C286303A9284624
:1028A000FFF72CFF0194002C0BD003A80299019A8A
:1028B0003B7804785C400C707F1C401C491C521E05
:1028C000F6D128460299019C2246FFF793FF306813
:1028D00000193060706800994841706013B0F0BD15
:1028E000014805F032FAC04605B10000F0B593B0DA
:1028F00002920F460546802028582E468036716881
:102900000022C0185141009210465041012825D0A4
:102910001C46286B401C286303A92846FFF7EEFEDF
:102920000194002C0BD003A80299019A0B7804782B
:102930005C403C70491C401C7F1C521EF6D128464E
:102940000299019C2246FFF755FF3068001930605C
:10295000706800994841706013B0F0BD014805F0FF
:10296000F4F9C04605B10000F0B587B00191054605
:10297000806FE96F039102908020285804902846C8
:1029800080304068059002A9102628463246FFF79D
:1029900031FF2F46623751351124384639462A46D1
:1029A000234615F04FFF3846214600F0BCF9019848
:1029B0003946324618F022FC07B0F0BDB0B50C68BD
:1029C00005682C1904601D6865401024E5411D60F0
:1029D0001468641914600D6865401424E5410D60A5
:1029E000046864190460186860401824E0411860A5
:1029F0001368181810600A6842401920C2410A6022
:102A0000B0BD0000F0B587B006AD00242C70059570
:102A10000120029005A8019000947D48784440214F
:102A20009F23224605F0B6F9002800D1E5E028787A
:102A3000012800D0E1E017F0EFFF054618F078F824
:102A4000342068436E4F4946CE1932466832714B86
:102A50007B4413506B4B0325CD5415186E487844B6
:102A600004222A712C6203956862CD186C60284696
:102A700015F07AFF6860022016F08AF86860B06E80
:102A800000283FD04846C0196C24015D7A25405B80
:102A9000884237D215F020FF5B49884204D115F0F7
:102AA0004FFF594988422DD14846C019025D415B0C
:102AB000914222D20846382670434A46D3199A6E6C
:102AC000101868331B6A002B06D0984700280AD0DC
:102AD0004946CA19515B926E012802D188B2464319
:102AE000901902F073F84846C019415B491C4153E4
:102AF000025D88B29042DED300E00846904201D1E8
:102B000015F088FF0398243003904B208000049038
:102B10004846C019806E00283FD04846C0196C2630
:102B2000815D7A25405B884237D215F0D5FE364963
:102B3000884204D115F004FF334988422DD148461C
:102B4000C019825D415B914222D20846382460431D
:102B50004A46D3199A6E101868331B6A002B06D0A8
:102B6000984700280AD04946CA19515B926E01283D
:102B700002D188B24443101902F028F84846C0191F
:102B8000415B491C4153825D88B29042DED300E034
:102B90000846904201D115F03DFF4C461B482018D5
:102BA0000022049915F0B0FFE41905F0C1FA6C2079
:102BB000205C7A21615A8142AAD305F0A5F9039CD1
:102BC0004846124940180022049915F09DFF05F06F
:102BD000AFFA15F085FF002802D020680028EFD159
:102BE00017F03AFF05F04AFB05F052FB484607494B
:102BF00040180022049915F087FF07B0F0BDC046C9
:102C000090020000F8010000115010B0CC0000004C
:102C1000E0BD0100B0A70100BB0100000E49084063
:102C2000884215D10B4948464058002810D0012849
:102C300000D801204A4651188C31084A7A440B6862
:102C4000934203D03431401EF9D101E000200860E6
:102C5000002070479002000003000080DDFFFFFFAE
:102C600010B58CB015F070FB6C46204618F02EFEA7
:102C7000A085000407D1684615F074FF0A90002073
:102C8000C04315F0B3FE15F057FF6946884202D1E4
:102C90000A9815F067FF6846808D002801D10CB0B6
:102CA00010BD05F052F8000010B50246074850402C
:102CB000012300248842184600D320465118890871
:102CC000402900D82346184310BDC046FFFF00002E
:102CD00020385F2801D3002070470120704701464B
:102CE0006139C9B21A2900D22038C0B270470146F2
:102CF0004139C9B21A2900D22030C0B2704710B58C
:102D000000290ED00278002A09D101231A469942DF
:102D100003D0845C531C002CF8D08A4201D20020DE
:102D200010BD012010BD10B54A080FD00918491E6A
:102D30000B7804785C4004700B7863400B70047867
:102D40005C400470491E401C521EF1D110BD0000B1
:102D5000B0B5002A0ED0084B7B440C7824091C5DCA
:102D600004700C780F2525405C5D4470801C491C64
:102D7000521EF2D1B0BDC0468AA50100F0B581B0A7
:102D80000C46064600252F460A22304621462B4691
:102D900018F0F8F87F1C0922921B2A46A241064629
:102DA0000C46F1D3384601B0F0BDF0B58BB01646F5
:102DB0001099002900901ED03546049303910A22F1
:102DC0000292002428460499234618F0DBF80646B0
:102DD0000F46029A0294234618F0F4F8281A049A2F
:102DE0008A4102430AD10399491E080635460497D1
:102DF0003B46E3D107E00020029004E02B46039815
:102E000002902E46049B1820029F039019463C46D0
:102E10000A270025304604933A462B4618F0B2F8AC
:102E2000029001913A462746039C2B4618F0CAF8B7
:102E3000321A30210A43601E05AB1A543A0613D0E9
:102E40007F1E3A06019B11D1A01E05AA2E24145400
:102E500000270922921B3A46049CA24106D30398FC
:102E6000C01E05AA115401E02F46019B0921891BB0
:102E700004998D41029EC8D33906C6D105A9091807
:102E80001822121A009818F0B9F90BB0F0BD000022
:102E9000D0B502AF94B06E46F41D413402464E48A0
:102EA000494608184079002802D14E4804F04DFFE9
:102EB0004A4B4846C0188178002968D10179481EDC
:102EC0003F2864D84846C018C07800285FD1444BDA
:102ED0004846C0184078401E02285CD2F2610A467B
:102EE0000720C543B161C81D28406946081AB06073
:102EF0008546F260104601F0F7F87061C01D284069
:102F00006946081A30618546F51D1935284618F0BE
:102F1000DDFCA88500041CD1F01D193015F022FE3F
:102F2000206049462E480818306018302B4A89180E
:102F30004A1DB168F5682B46FFF7D8FC82B0102017
:102F400000903068831C3069B1682A4601F0D0F8DF
:102F500002B015F0F1FDF11D1931884202D120684F
:102F600015F000FEB068F16818F058F9F01D19303E
:102F7000808D002811D17569F46920882946FFF7F2
:102F800093FE00280BD06720000204F0DEFE1548F7
:102F9000001D04F0DAFED120000204F0D6FE4946FE
:102FA0000E48716008182188401831692A4618F0C7
:102FB00025F9B069402801D3022000E00320F2691E
:102FC000074973697468611848701088C0181080C8
:102FD0000920000304F0B9FE60000000C8060000EC
:102FE0002806000001B10000D0B502AF94B06E46D3
:102FF000F41D41340246494B4846C01881780029E7
:1030000068D10179481E3F2864D84846C018C07866
:1030100000285FD1424B4846C0184078401E022825
:103020005BD2F2610A460720C543B161C81D284042
:103030006946081AB0608546F260104601F054F8FF
:103040007061C01D28406946081A30618546F51D2B
:103050001935284618F03AFCA88500041CD1F01D4B
:10306000193015F07FFD206049462D480818306062
:1030700018302A4A89184A1DB168F5682B46FFF7AF
:1030800035FC82B0102000903068831C3069B16834
:103090002A4601F02DF802B015F04EFDF11D193150
:1030A000884202D1206815F05DFDB068F16818F023
:1030B000B5F8F01D1930808D002810D17569F469BC
:1030C00020882946FFF7F0FD00280AD0672000027B
:1030D00004F03BFE134804F038FED120000204F057
:1030E00034FE49460D48716008182188401831693E
:1030F0002A4618F083F8B069402801D3022000E086
:103100000320F26906497369746861184870108871
:10311000C01810800920000304F017FEC806000044
:103120005808000005B10000D0B502AF82B06E466D
:1031300004462C48494608184079002802D12C48FA
:1031400004F003FE284A484680188178002927D1D8
:103150000579681E3F2823D848468018C078002883
:103160001ED122494846405C401E02281CD2E81D60
:103170000721884369460B1A49461C48081818302D
:1031800089184A1D9D46736019462B46FFF770FB50
:1031900020882946FFF788FD002809D0672004E031
:1031A0001348001D04F0D1FDD120000204F0CDFD34
:1031B00049460D48316008182188401871682A4630
:1031C00018F01CF8402D01D3022000E0032007492D
:1031D000326850542088401920800920000304F0F0
:1031E000B4FDC04660000000C806000028060000CC
:1031F00001B10000D0B502AF84B06E460246284C43
:10320000484600198178002929D10579681E3F2890
:1032100025D848460019C078002820D121494846C1
:10322000405C401E02281DD2E81D072188436946E4
:103230000B1A49461B48081818300919F2604A1D34
:103240009D46B36019462B46FFF712FBF0680088D5
:103250002946FFF729FD002808D0672003E012481F
:1032600004F073FDD120000204F06FFD4846706049
:103270000019F1680C4609884018B1682A4617F011
:10328000BDFF402D01D3022000E0032005497268F4
:1032900050542088401920800920000304F055FD77
:1032A000C80600005808000005B10000214C48463F
:1032B00000198078002836D1484600190179202964
:1032C00031D1C07800282ED148460019401D202158
:1032D00000F05CFA002826D018484946095C00290D
:1032E00024D0494609180D4618352CCD496A194392
:1032F00015430D431AD1494609188A68CB68134310
:1033000014D04978002911D149460D182846283093
:103310000919491D002200F0CBFD01206870092029
:10332000000304F012FD044804F00FFDD120000258
:1033300004F00BFDC806000005B10000F80800000D
:10334000A0B00446314E484680198078002846D106
:10335000484680190179C078084340D12D4F48462E
:10336000C05D00283ED04846C019034618330ECB36
:10337000406A10430B43034334D101AD284618F093
:10338000A5FAA885000410D101A815F0EBFB0B905D
:103390004846C11928312120202216AD2B4615F0B0
:1033A00059F90DA8294600F020FA15F0C5FB01A92E
:1033B000884202D10B9815F0D5FB16A8282117F0EA
:1033C0002DFF01A8808D00280ED120882121FFF734
:1033D0006BFC00280AD06720000204F0B6FC0C4801
:1033E00004F0B3FCD120000204F0AFFC4846801981
:1033F000218840180DA9212217F000FF20882130D4
:1034000020800920000304F0A0FCC046C80600008C
:1034100005B10000F80800009CB04A4D484640192C
:103420008178C07808432BD1484640190079484933
:1034300079440E6831460931814221D1484640190C
:103440004479444878440068A04219D3002807D042
:1034500049464919891D0A6812BA04C1401EFAD1A9
:103460004846401981190527C859491D496802462F
:103470000A4305D04A465219B218527B022A02D397
:10348000314804F062FC0792304B4A46D25C002A75
:1034900006D04A46D3181A6A5B6A04921A4303D1CB
:1034A000D120000204F051FC049A101A8B41E7D39A
:1034B00008A8039018F00AFA0399888500041FD120
:1034C00008A815F04FFB1290484641198B19DA599C
:1034D00005921E4A801806904268581D4368881D50
:1034E000009001940798029014AC20461146059A6A
:1034F00000F07EFA069828300022214600F0D8FC21
:1035000015F01AFB08A9884202D1129815F02AFB7F
:1035100014A8202117F082FE08A8808D0028C1D1B0
:103520004846411989194A1DC959084BC018036AF0
:10353000591A0162416A52689141416209200003AF
:1035400004F003FCC806000005B10000F808000004
:10355000E49E0100CC9E01009CB04A4D48464019B3
:103560008178C07808432BD14846401900794849F2
:1035700079440E6831460931814221D148464019CB
:103580004479444878440068A04219D3002807D001
:1035900049464919891D0A6812BA04C1401EFAD168
:1035A0004846401981190527C859491D49680246EE
:1035B0000A4305D04A465219B218527B022A02D356
:1035C000314804F0C2FB0792304B4A46D25C002AD5
:1035D00006D04A46D3189A69DB6904921A4303D18C
:1035E000D120000204F0B1FB049A101A8B41E7D3FA
:1035F00008A8039018F06AF90399888500041FD180
:1036000008A815F0AFFA1290484641198B19DA59FB
:1036100005921E4A801806904268581D4368881D0E
:10362000009001940798029014AC20461146059A28
:1036300000F0DEF9069828300122214600F038FC1F
:1036400015F07AFA08A9884202D1129815F08AFA80
:1036500014A8202117F0E2FD08A8808D0028C1D110
:103660004846411989194A1DC959084BC018836930
:10367000591A8161C16952689141C16109200003F1
:1036800004F063FBC806000005B10000F808000064
:10369000A49D01008C9D0100F0B503AF95B06E466E
:1036A000F31D3133F36031607060002A5DD435481A
:1036B0007844F11D393118C818C138C838C1012003
:1036C000C00702432C494B4659580143F068C1607A
:1036D00002616846B0606C46403CA546F51D093560
:1036E000284618F0F3F8A885000425D1F01D09300C
:1036F00015F038FAF168086084B00C20224979444A
:103700000094326801920291039000202125F21D5D
:1037100039320523294615F0F3F804B02022284653
:10372000214675682B4614F095FF696808352846D0
:1037300000F02CF800281BD015F0FEF9F11D09311E
:10374000884203D1F068006815F00CFA4021204649
:1037500017F064FDF01D0930808D002809D1B06894
:103760008546FC1F053CA546F0BD054804F0EDFA72
:10377000024804F0EAFAC0466000000001D10000EF
:1037800005B10000849C01004A9C0100F0B503AF24
:1037900085B06E46202922D10125B060284605F06B
:1037A000D7FDF060C21D07218A4369463161694631
:1037B000881A70608546294605F0D6FD0446B16832
:1037C00006F0E6FB0546204605F096FE7068F168B7
:1037D00017F024FD681E85413069854600E000250C
:1037E0002846FC1F053CA546F0BD70B594B00A46BE
:1037F0000546212001AC01262146334614F040FF46
:1038000002980019C0793040801C2870681C093467
:103810002022214617F0F2FC14B070BDF0B503AFC2
:10382000C3B06E46F41D61343546343513C5F11D01
:103830009131BD68F868002807D1706BB160B16B39
:103840001C46FFF729FFB1682346002D00D1C3E0D5
:103850000C4621343463F01D69300830F062F01DED
:10386000B9300930B062706B08307062F01D913071
:10387000401C30621846F561B061684670616C4664
:10388000403CA546F51D3935284618F01FF8A88597
:1038900000047CD13461F01D393015F063F9F46B0C
:1038A0002060B0690568002D20D4746B2178F16028
:1038B00021202070F51DB935012373602946224669
:1038C00014F0DEFEF06BC06D4019C07971680840DD
:1038D000801CF11D913108702022306AB16A17F006
:1038E0008DFCF0682070B069056809E0F01D91302A
:1038F00000210170706B4268306A716A17F07EFCBB
:10390000316BCD70280A8870280C4870280E08701A
:1039100082B040203469009401902025F21D91323C
:103920002523B06B294614F0F9FD02B0706B0078C6
:10393000F31D693321462A4614F08CFEF56BE968C5
:10394000F46A2046FFF722FF002849D0E86882B0D9
:103950000090264B7B4420462146726A14F088FF73
:1039600002B0E9682046FFF711FF002838D031691E
:1039700020312022B06B17F041FCF01D6930716BD3
:103980002CC82CC12CC82CC13CC83CC1346915F0D2
:10399000D3F8F11D39318842F06B02D1006815F07F
:1039A000E1F8F01D9130252117F038FC4021204628
:1039B00017F034FCF01D6930282117F02FFCF01DA2
:1039C0003930808D0028B1690BD170698546081D9A
:1039D000F1694D1E00D04EE7FC1F053CA546F0BD29
:1039E000014804F0B2F9C04601D10000019A01007B
:1039F000F0B503AFA9B06E46F41D6D343462F360C8
:103A00003261B16070616846B062FF2502352846B8
:103A100005F09EFCB061C01D072188436946081A65
:103A200085467062294605F09FFC0546F41D453425
:103A3000204617F04BFFA08500042C4626D0B56920
:103A400015F07AF8F11D4531884203D1306A0068DB
:103A500015F088F8F01D7530282117F0DFFBF01DF8
:103A60002530202117F0DAFB204605F045FD706A6D
:103A7000294617F0D3FBF01D4530808D002845D135
:103A8000B06A8546FC1F053CA546F0BDF4613C6963
:103A9000FD68B8687060F01D453015F063F8316A54
:103AA000086082B0002000950190F01D7530F11D76
:103AB0002531B2687368FFF7B1FE02B0012C0BD05C
:103AC000002CF469BBD1306AC268F11D7531083130
:103AD000706917F093FBB2E7F068316986B00D4A60
:103AE0007A440D4B7B440D4C7C4400910190029430
:103AF00003930492F21D75320832F469204671690D
:103B000008F0A8FD06B0002899D1014804F01DF97D
:103B100001D1000015990100D19801008D98010094
:103B2000F0B503AFA5B06E46F11D85313162B360CB
:103B3000F2607061FF250235284605F009FCB0618E
:103B4000C01D072188436946081A8546F061294649
:103B500005F00AFC0546F41D5D34204617F0B6FE5C
:103B6000A0850004B0692C4626D13461B468F5689C
:103B7000B8687060F01D5D3014F0F4FF316A0860C1
:103B800084B01D4878441D497944009501943469F6
:103B900002910390F11D1D312046726807F0B0FDBF
:103BA00004B0002823D0F21D1D322046716907F0B1
:103BB0004CFD00281BD0B069054614F0BDFFF11D77
:103BC0005D31884203D1306A006814F0CBFF204693
:103BD00005F092FCF069294617F020FBF01D5D30DE
:103BE000808D002804D1FC1F053CA546F0BD01488E
:103BF00004F0ABF801D1000031980100ED9701000D
:103C0000F0B503AFBBB06E46F31D69333362B261EA
:103C10000D46F061F41D4134204617F057FEA08593
:103C200000044CD1F01D413014F09CFF316A086053
:103C3000F01D71307060002131612A46FFF72CFDC4
:103C400021207061F51D99350124294672682346AB
:103C500014F016FD306A406B4019C0792040801C7A
:103C6000F11D1D31B1600870481C2946093120251D
:103C70002A4617F0C3FA6846F0606C46203CA54619
:103C800082B030690090019020462946B26873697D
:103C9000FEF702F902B082B0B0690090706901903D
:103CA000F069294622462B46FEF7F6F802B0F06985
:103CB0002946FFF76BFD002819D0F068854614F0FF
:103CC0003BFFF11D4131884203D1306A006814F096
:103CD00049FFF01D7130282117F0A0FAF01D413086
:103CE000808D002804D1FC1F053CA546F0BD01488D
:103CF00004F02BF801D10000F0B503AFA5B06E467B
:103D0000F31D5D337361F2600D4630616846B0614A
:103D1000F41D3534204617F0D9FDA085000433D1B9
:103D2000F01D353014F01EFF74692060F01D653001
:103D30007060F11D15312A46FFF7AEFC6846B06091
:103D40006D46203DAD46E36882B0002000900190B2
:103D500072680832202428462146FEF79DF802B0FA
:103D600082B02120F16800910190306921462A46F5
:103D70002346FEF791F802B030692146FFF706FDB1
:103D8000002820D0B068854614F0D6FEF11D3531EC
:103D9000884203D17069006814F0E4FEF01D6530BC
:103DA000282117F03BFAF01D1530202117F036FAC4
:103DB000F01D3530808D002806D1B0698546FC1F86
:103DC000053CA546F0BD014803F0BFFF01D100004E
:103DD000F0B5B5B01E460C460546349268460790CD
:103DE00020AF384617F072FDB88500043AD104962A
:103DF00020A814F0B7FE2A9001200023009301931D
:103E0000059002902CAF274A384606942146FFF7CA
:103E1000EFFD4020019010AE0096244878440D211B
:103E200020243A46234614F079FB04983146224672
:103E30002B4614F00FFC696828460830FFF7A6FCF3
:103E400000282CD010A8203008A90A46D8C8D8C20B
:103E5000D8C8D8C205980090019034AB2846069A7D
:103E6000FFF7DCFC14F068FE20A9884202D12A98F2
:103E700014F078FE2CA82024214617F0CFF910A8C2
:103E8000402117F0CBF908A8214617F0C7F920A860
:103E9000808D002804D10798854635B0F0BD0248D2
:103EA00003F053FFC902000001D100001996010080
:103EB000F0B503AF97B06E46F31D1D3333627261E8
:103EC000F160B0600125284605F042FA0446C01DA5
:103ED000072188436946081A8546F06135612946FD
:103EE00005F042FA7060F51D2535284617F0EEFC06
:103EF000A88500047068B06126D1B568F01D253032
:103F000014F030FE316A0863F068B0620223706911
:103F10000028184600D130690D6082B00090F21D73
:103F20001D32B069294607F049FC02B0002825D0AF
:103F300020212846FEF7E3FE002805D1202128464F
:103F4000FFF724FC00281CD014F0F6FDF11D2531EC
:103F5000884203D1306A006B14F004FEB06905F0AA
:103F6000CBFAF069214617F059F9F01D2530808D04
:103F7000002807D1FC1F053CA546F0BD034803F00F
:103F8000E4FE014803F0E1FE05B1000001D10000AC
:103F9000F0B503AFCFB06E46514CA4197462736193
:103FA000B261F16130624B4C204605F0D1F9054613
:103FB000C01D072188436946081A8546B06221461C
:103FC00005F0D2F9B060474CA419204617F07EFCEA
:103FD000A0850004B46858D13561BD684148801996
:103FE00014F0C0FD716A0860F01D2530202114F026
:103FF0000BFAF560002D0FD0F11DC53121232046AD
:10400000F26805F08FFA00285ED0F01DC53040211F
:10401000FEF775FE002857D1FA68F11D853121237E
:10402000204605F07FFA00284ED0F01D8530402153
:10403000FEF765FE002847D1254686B0F01D2530E5
:104040000590F01D85300490F01DC530F168002901
:10405000F269B36900D108460021746900940191A6
:10406000029003900833F11D45312C4628460CF090
:1040700005FD06B000282AD0F21D45322046316ADF
:1040800005F04EFE002822D0356914F055FD154983
:104090008919884203D1706A006814F063FDF01D2D
:1040A0002530202117F0BAF8204605F025FAB06A2D
:1040B000294617F0B3F80B488019808D002807D1E6
:1040C000FC1F053CA546F0BD034803F03EFE034837
:1040D00003F03BFE0102000005B1000001D1000029
:1040E000340100000C01000010300F21884370479C
:1040F000F0B503AF9DB06E46F41D4134F4613361F9
:10410000B0611546B26010350F2085436846441BE8
:10411000A546204617F072F87461B16860182C4605
:10412000691ACAB217F072F8F51D1935284617F04A
:10413000CDFBA885000419D1B868F060F01D1930D6
:1041400014F010FDF1690860F51D49353069F1681A
:104150002A4614F01DFA82B0B069009001944521FE
:1041600028467269234614F029FA02B014F0E4FCE0
:10417000F11D1931884203D1F069006814F0F2FC96
:10418000F01D4930242117F049F8F01D1930808DB9
:10419000002803D1FC1F053CA546F0BD03F0D5FD6A
:1041A00070B59CB00D4604466E46304617F08EFB47
:1041B000B085000422D1684614F0D4FC0A906968E6
:1041C000284608300CAD40262A46334614F064F9E0
:1041D0002878F82101402970E87F7F210140E977A4
:1041E000E87F3043E877202628463146FEF79BFDDE
:1041F000612029463246234614F02CFA14F09CFC28
:104200006946884202D10A9814F0ACFC0CA84021FF
:1042100017F004F86846808D002801D11CB070BDED
:1042200003F093FD10B5202A0BD0382A11D0342A80
:104230001AD10F4A4B469A185279002A14D0762484
:104240000EE00B4849460818C07900280CD04920D8
:1042500010BD074A4B469A189279002A04D07A2456
:10426000FEF78CFD001910BD024803F06EFDC0463C
:104270006000000005B10000F0B587B0044605936A
:1042800004920E980D9D0C99202846D01F46164684
:1042900038281FD034286DD1039139484946081871
:1042A0004079002868D0002034220290294603F08B
:1042B0004FFC002860D0212220460399FEF748FDDC
:1042C000204642303422294616F098FF029800908A
:1042D00076341CE003912A48494608188079002862
:1042E0004AD0002038220290294614F03BFD0028D5
:1042F00042D0212220460399FEF72AFD2046423073
:104300003822294616F07AFF029800907A34204627
:1043100032463B46FEF749FD2CE00E46184849461A
:104320000818C079002827D02021284600F02CF852
:10433000002821D004A80821FEF7F5FC059820717B
:1043400004992170020EE271020CA271000A6071E0
:10435000080EE070080CA070080A60702046083053
:104360002122314616F04AFF2934202220462946D0
:1043700016F044FF07B0F0BD024803F0E6FCC0466B
:104380006000000005B10000F0B503AF91B06E46CB
:10439000F41D3534202911D1F060F51D0D35284666
:1043A00017F094FAA88585B2002D09D0F01D0D30C4
:1043B00000218185206814F0D5FB29E0002029E048
:1043C0003561F01D0D30B06014F0CCFB2060684604
:1043D00070606D46483DAD4602202870681C202262
:1043E000F16816F00BFF41202946024614F074F9DB
:1043F0007068854614F0A0FBB168884202D120683D
:1044000014F0B0FBF01D0D30808D0028356905D10A
:1044100068426841FC1F053CA546F0BD03F095FCD1
:10442000F0B503AFA1B06E461546F1607061FC684F
:10443000BA68202B326131D0382B6CD0342B00D0AD
:1044400093E04B48494608184079002800D18CE099
:10445000492C00D389E0F01D31303422294603F085
:1044600077FB002800D180E0F21D1132B2602025D8
:104470007069F1682B4613F0F9FF84B0009530693C
:1044800001900294F01D31303B490322B36814F0CF
:104490009FF904B0002862D1002461E03448494605
:1044A0000818C079002860D0402C5ED120212C460D
:1044B0002846FFF769FF002857D06846B0606D4670
:1044C000483DAD4602202870681C2022214616F087
:1044D00095FE412420462946224614F0FDF8F31D9E
:1044E00031332046294622461D4614F09DF886B0F9
:1044F00040200024F16800910194029431690391F5
:104500000490012105222846736914F01FF906B0B2
:10451000B1688D4621E01648494608188079002880
:1045200023D0402C21D1F01D31303822294614F0FF
:1045300019FC002819D086B040200024F1680091B1
:1045400001940294316903910490F01D31300121EE
:104550000522736914F0FAF806B0002800D001248F
:104560002046FC1F053CA546F0BD024803F0EDFBCC
:104570006000000005B1000001060000F0B503AFC7
:10458000A3B06E46F11D793131617060012420467F
:1045900004F0DEFEB060C01D072188436946081A9A
:1045A0008546F0607461214604F0DEFE0446F51D88
:1045B0005135284617F08AF9A8850004254610D100
:1045C000F01D513014F0CEFA31690860F11D11313F
:1045D0002846726806F0D4FF411E8841F11D8131E2
:1045E0000870B46814F0A8FAF11D5131884203D163
:1045F0003069006814F0B6FA284604F07DFFF068D0
:10460000214616F00BFEF01D5130808D002808D198
:10461000F01D8130007871690840FC1F053CA546FB
:10462000F0BD03F092FBF0B503AF97B06E460D46B8
:10463000412901D0212D31D1B26101247060204681
:1046400004F086FE7061C01D072188436946316110
:104650006946081A8546F0602146B46904F084FE74
:10466000F11D1531B06072682B4604F05BFF411EEE
:1046700005468D41002C07D0002805D0F01D1530CF
:104680004021FEF73CFB2070B06804F035FFF06875
:10469000716916F0C3FD3069854600E000252846A3
:1046A000FC1F053CA546F0BDF0B503AFA3B06E46B8
:1046B000F11D11317161F0600125284604F048FEBA
:1046C000B060C01D072188436946081A85463061DD
:1046D000294604F049FE0546F41D5534204617F0DE
:1046E000F5F8A0850004B0682C461FD1F01D5530A8
:1046F00014F038FA7569E866F11D1531212320465A
:10470000F26804F00FFF00282BD04120286082B00F
:1047100002200090F21D1132F31D15332046F1687E
:1047200004F0FEFF02B000281ED0B068054614F069
:1047300003FAF11D5531884203D17069C06E14F03F
:1047400011FA204604F0D8FE3069294616F066FDBD
:10475000F01D5530808D002807D1FC1F053CA54673
:10476000F0BD044803F0F1FA014803F0EEFAC04648
:1047700001D1000005B10000F0B5A9B00D46044616
:104780006E46304617F0A2F8B08500041AD168468C
:1047900014F0E8F90A901848784402681FAF4126DF
:1047A000384629463346FFF713FB0CAD012330464C
:1047B00029463A4613F064FF08350D9A30462946DB
:1047C00013F074FF14F0B8F96946884202D10A98D0
:1047D00014F0C8F91FA8282116F020FD6846808D26
:1047E000002807D10CA909312022204616F006FD29
:1047F00029B0F0BD03F0A9FA0C950100F0B503AFA4
:10480000BFB06E46F41DE934B36231637063F46384
:10481000A2600120706205026C1C204604F098FD25
:104820000721C943F160B063C01D08406946081AFA
:1048300085463064214604F097FD0446F11D3D3164
:10484000842204F061FE306128460AF0EBFAF06140
:10485000C01DF16808406946091A8D46394A7A44F4
:104860002046F1622B460AF0E1FA7060F51DC13571
:10487000284617F02BF8A88500043069306270686C
:10488000B0612CD1F868B060BD68F01DC13014F083
:1048900069F9F16B086090B0002340202A497944FF
:1048A000726A089209910A90B06A0B900C950D9368
:1048B0000E93B0680F900793F01DF13006900593AA
:1048C000306B049003930293706B01900093204629
:1048D000316AB2690AF034FB10B000282CD0B06BFA
:1048E0007061F56914F028F9F11DC131884203D1D6
:1048F000F06B006814F036F92046B1690AF000FB4D
:10490000F06A294616F08AFC306A04F00AFEF01DAF
:104910003D30842116F082FC204604F0EDFD306C21
:10492000716916F07BFCF01DC130808D002804D128
:10493000FC1F053CA546F0BD014803F006FAC04641
:1049400001D10000578B0100D78A0100F0B503AFF9
:10495000E3B06E46634CA419F51DCD35F563F261E5
:1049600031643063B464A360FF240234204604F051
:10497000EFFC70640721C9433161C01D08406946DE
:10498000081A8546F064F462214604F0EDFCF11D3E
:1049900049318422044604F0B7FD70618025284621
:1049A0000AF040FA7062C01D316908406946091A70
:1049B0008D46504A7A442046B1632B460AF036FAB7
:1049C000B060494DAD19284616F080FFA885000457
:1049D000706C7463746A7169B162B168316250D18C
:1049E000FC68BD684048801914F0BCF8B16C0860E0
:1049F00090B0002340204049794401220892099157
:104A00000A900B950C940D930E930F9307933748D0
:104A1000801906900593F0690490F01DD130039041
:104A200033488019029001930093706BB16A326A27
:104A30000AF086FA10B000284FD02120F46BF06005
:104A4000206082B0F06A451C0095F21DCD32284BE3
:104A50009B19706B316B04F063FE02B000283CD0F0
:104A6000F068206082B00095F21DCD32F31DD13385
:104A7000706B316C04F054FE02B000282DD0706CC5
:104A8000746AB06114F058F817498919884203D143
:104A9000B06C006814F066F8756B2846316A0AF04D
:104AA0002FFAB06B214616F0B9FBB06A04F039FD5D
:104AB000F01D4930842116F0B1FB284604F01CFD9E
:104AC000F06CB16916F0AAFB07488019808D0028A8
:104AD00004D1FC1F053CA546F0BD014803F035F9A3
:104AE00001D1000080010000580100008801000091
:104AF00018010000018A01007D890100B0B504465B
:104B00001B4820811B481C492160606020460A30F8
:104B10001A497944122216F071FB24204D212154A8
:104B2000204624300021C1704321817057214170FB
:104B30002046293012497944062216F05FFB2046B0
:104B40005830104979442CC92CC00F48784401686A
:104B50004068216360632046383021463031616609
:104B6000A0660A497944202216F048FBB0BDC04631
:104B700001450000090101005102000032890100D5
:104B8000D36E0100088A0100D8890100C88901009C
:104B9000F0B581B0164604460D1A681E054205D1CF
:104BA000B047294616F0E6F808460CE00020C0435E
:104BB000294616F059F807464543B047A842FCD2AB
:104BC000394616F051F8001901B0F0BD80B503F078
:104BD00061FC80BDB0B505460720284000240128AF
:104BE00015D0022815D10C48002908D04A461018C3
:104BF00013F060FF28060AD513F0F2FB07E04946E0
:104C0000081841218900002213F07EFF0446204647
:104C1000B0BD022003F099F8C8060000F0B585B0D9
:104C2000DE4E4846805D0C2839DD0D2864D00E2804
:104C300000D188E0152800D0D3E0D94849460818AB
:104C40008079012806D1484680198079000701D46F
:104C500000F027FDD34E4D460120A855AC19002782
:104C60006760204613F080FE6060022013F090FF22
:104C70006060CD4C29194968002900D15AE3CB4A1C
:104C8000904200D1ACE3002800D1A9E34D462A1997
:104C900057608847A819FB49443141604EE3052815
:104CA00079D00C2800D09CE0F3494F46012078547D
:104CB0007C1800256560204613F056FE60600220D7
:104CC00013F066FF6060ED4C39194968002900D186
:104CD00039E2EB4A904201D100F06FFC002801D18B
:104CE00000F06BFC4E46321955608847E248301898
:104CF000E4494431416031E2DF4E4D460120A85580
:104D0000AC1900276760204613F02EFE6060022079
:104D100013F03EFF6060D94C29194968002900D181
:104D200084E0D74A904201D100F047FC002801D12D
:104D300000F043FC4D462A1957608847A819D1490D
:104D4000443141607DE0CC494E46012070547518D5
:104D500000276F60284613F007FE6860022013F0FA
:104D600017FF04466860C54D70194168002900D1DD
:104D7000BCE0C348844200D11AE1002C00D117E105
:104D80004E467019476020468847BB483018BD49D9
:104D900044314160AEE0B8494F46012078547C1858
:104DA00000256560204613F0DFFD6060022013F0EF
:104DB000EFFE6060B14C39194968002900D165E106
:104DC000AF4A904200D1F8E3002800D1F5E34E4607
:104DD000321955608847A8483018AA4944314160C3
:104DE0005FE1A54E4D460120A855AC19002767602C
:104DF000204613F0B9FD6060022013F0C9FE606028
:104E00009E4C29194968002900D1F9E19C4A904239
:104E100000D14CE2002800D149E24D462A195760E2
:104E20008847A819974944314160EDE19449884287
:104E300000D1C2E3002800D1BFE39349884200D0EB
:104E400020E348462546041903F018FA03F020FA37
:104E50007A2004902752A06E002800D1ADE3484686
:104E6000801940688649884200D1A6E3002800D115
:104E7000A3E32C46484640196C26805D002800D1EB
:104E80009BE3804F13F028FDB84204D113F058FD86
:104E9000B84200D091E348460019825D049D415B11
:104EA000914200D3DFE20846382778434A46131977
:104EB0009A6E101868331B6A002B06D0984700289A
:104EC0000AD049460A19515B926E012802D188B274
:104ED0004743D01903F0DEFA48460019415B491CEC
:104EE0004153825D88B29042DED3BDE265484430D2
:104EF00084425DD14846461903F0C0F903F0C8F971
:104F00007A2400203053B06E002800D155E3484683
:104F10005949401840685A49884200D14DE3002859
:104F200000D14AE3484640196C26805D002800D134
:104F300043E3544F13F0D0FCB84204D113F000FD0A
:104F4000B84200D039E348464019825D015B914286
:104F500000D388E20846382778434A4653199A6EA8
:104F6000101868331B6A002B06D0984700280AD017
:104F700049464A19115B926E012802D188B2474313
:104F8000D01903F087FA48464019015B491C0153C8
:104F9000825D88B29042DED366E2C046CC0000005B
:104FA000CC070000F801000090020000445010B04F
:104FB0004846411994200958002913D00A46643AFA
:104FC00000D23A464B465B191A5064290AD8902100
:104FD0005958002906D04A4652199823D3581350DD
:104FE000002088472648844200D1E6E2002C00D108
:104FF000E3E248464019806E002800D145E3484668
:1050000040196C24015D7A26805B884200D33CE322
:105010001C4F13F061FCB84204D113F091FCB8426C
:1050200000D032E348464019025D815B914200D3D3
:1050300026E30846382778434A4653199A6E1018D3
:1050400068331B6A002B06D0984700280AD04946CF
:105050004A19915B926E012802D188B24743D01958
:1050600003F018FA48464019815B491C8153025DE0
:1050700088B29042DED304E3F80100009002000001
:10508000445010B0115010B0555010B0F94988423A
:1050900000D192E2002800D18FE2F749884200D087
:1050A00031E24846071903F0E9F803F0F1F87A26EF
:1050B000BD53B86E002800D17FE24846EF49401842
:1050C0004068EC49884200D177E2002800D174E2C0
:1050D000484600196C25405D002800D16DE2E84F7C
:1050E00013F0FAFBB84204D113F02AFCB84200D006
:1050F00063E248460019425D815B914200D3B2E110
:105100000846382778434A4613199A6E10186833B0
:105110001B6A002B06D0984700280AD049460A1976
:10512000915B926E012802D188B24743D01903F0F7
:10513000B1F948460019815B491C8153425D88B230
:105140009042DED390E1CB49884200D135E200287D
:1051500000D132E2C849884200D037E248460719F8
:1051600003F08CF803F094F87A26BD53B86E00284B
:1051700000D122E24846C14940184068BD498842F2
:1051800000D11AE2002800D117E2484600196C2528
:10519000405D002800D110E2B94F13F09DFBB842EA
:1051A00004D113F0CDFBB84200D006E24846001906
:1051B000425D815B914200D355E108463827784330
:1051C0004A4613199A6E101868331B6A002B06D0D2
:1051D000984700280AD049460A19915B926E012827
:1051E00002D188B24743D01903F054F94846001958
:1051F000815B491C8153425D88B29042DED333E12A
:105200009F494431884252D14846051903F036F887
:1052100003F03EF87A2004902F52A86E002800D1A7
:10522000CBE14846801940689249884200D1C4E1E8
:10523000002800D1C1E1484600196C26805D002895
:1052400000D1BAE18E4F13F047FBB84204D113F0FE
:1052500077FBB84200D0B0E148460019825D049D5A
:10526000415B914200D3FEE00846382778434A4626
:1052700013199A6E101868331B6A002B06D09847D2
:1052800000280AD049460A19515B926E012802D1C2
:1052900088B24743D01903F0FDF848460019415B36
:1052A000491C4153825D88B29042DED3DCE048461F
:1052B0000019806E002800D175E1484600196C2560
:1052C000415D7A26805B884200D36CE1F84F13F091
:1052D00003FBB84204D113F033FBB84200D062E1C3
:1052E00048460019425D815B914200D356E1084671
:1052F000382778434A4613199A6E101868331B6A88
:10530000002B06D0984700280AD049460A19915B1D
:10531000926E012802D188B24743D01903F0BAF83F
:1053200048460019815B491C8153425D88B2904216
:10533000DED334E1DE494431884251D14846051973
:1053400002F09CFF02F0A4FF7A2004902F52A86E76
:10535000002800D131E1484680194068D34988428D
:1053600000D12AE1002800D127E1484600196C2627
:10537000805D002800D120E1CD4F13F0ADFAB84296
:1053800004D113F0DDFAB84200D016E14846001906
:10539000825D049D415B914265D20846382778437F
:1053A0004A4613199A6E101868331B6A002B06D0F0
:1053B000984700280AD049460A19515B926E012885
:1053C00002D188B24743D01903F064F84846001967
:1053D000415B491C4153825D88B29042DED343E079
:1053E00048460019806E002800D1DCE048460019CC
:1053F0006C25415D7A26805B884200D3D3E0AC4FB8
:1054000013F06AFAB84204D113F09AFAB84200D005
:10541000C9E048460019425D815B914200D3BDE07E
:105420000846382778434A4613199A6E101868338D
:105430001B6A002B06D0984700280AD049460A1953
:10544000915B926E012802D188B24743D01903F0D4
:1054500021F848460019815B491C8153425D88B29E
:105460009042DED39BE00846904200D0A5E013F0C6
:10547000D1FAA2E0445010B0555010B0F80100002D
:10548000115010B048460019806E002800D18AE003
:10549000484600196C25415D7A26805B884200D31E
:1054A00081E0834F13F018FAB84203D113F048FAA1
:1054B000B84278D148460019425D815B91426DD275
:1054C0000846382778434A4613199A6E10186833ED
:1054D0001B6A002B06D0984700280AD049460A19B3
:1054E000915B926E012802D188B24743D01902F035
:1054F000D1FF48460019815B491C8153425D88B247
:105500009042DED34BE0484600198C2140580028D9
:1055100005D049468919C978490802F0E3FF484691
:105520000019806E00283ED0484600196C25415D68
:105530007A26805B884236D25D4F13F0CDF9B842AF
:1055400003D113F0FDF9B8422DD148460019425D50
:10555000815B914222D20846382778434A46131984
:105560009A6E101868331B6A002B06D098470028E3
:105570000AD049460A19915B926E012802D188B27D
:105580004743D01902F086FF48460019815B491C49
:105590008153425D88B29042DED300E008469042DB
:1055A00001D113F037FA484600196C21415C7A2288
:1055B000805A884201D313F093FA13F091FA00282D
:1055C00001D102F0A1FC012005B0F0BD4A463648E9
:1055D00014186C25605D0490A06E03909219D37925
:1055E000967951791079D278274668373F6A0092C8
:1055F00001970002401882B23002C01883B20398AB
:10560000049902F0BDFEA06E274C002845D0484604
:105610000019415D7A26805B88423ED2244F13F008
:105620005BF9B84203D113F08BF9B84235D1484643
:105630000019425D815B91422AD20846382778439F
:105640004A4613199A6E101868331B6A002B06D04D
:10565000984700280AD049460A19915B926E0128A2
:1056600002D188B24743D01902F014FF484600190E
:10567000815B491C8153425D88B29042DED308E0D1
:105680000846904201D113F0C5F9484640198CE70D
:105690000846904201D113F0BDF948460019415D1A
:1056A00085E7102002F051FB90020000445010B03A
:1056B000115010B0D0B502AF90B06E46F41D313429
:1056C00003464148494608184079002802D140481D
:1056D00002F03BFB3D49484640188178C2780A43B6
:1056E00056D105793C4878440068A84250D13949E0
:1056F000484640184078FE21014002294CD1B46050
:10570000F360E81D072188436946081A70608546E2
:10571000F41D0934204616F0D9F8A085000418D1EC
:10572000F01D093013F01EFAB16808604946316077
:1057300028480818183074682146FDF715F92348E1
:1057400031680818401D21462A4602F004FB002853
:105750001ED1746813F0F0F9F11D0931884203D1AC
:10576000B068006813F0FEF92046294615F056FD92
:10577000F01D0930808D0028F4680FD12088102199
:10578000FDF792FA00280BD06720000202F0DDFA44
:105790000F48001D02F0D9FAD120000202F0D5FA1C
:1057A00049460A480818228880180A4A8918891C1C
:1057B000102215F023FD20881030208002F02CF9F3
:1057C0000920000302F0C1FA60000000C8060000D2
:1057D00001B1000028060000027B0100D0B502AF35
:1057E00090B06E46F41D31343C4A49468B18997886
:1057F000DA780A4356D11D793B4979440968A942B0
:1058000050D1384A494689184A78FE211140022968
:105810004BD1B460F060E81D072188436946081A3F
:1058200070608546F41D0934204616F04FF8A085B7
:10583000000418D1F01D093013F094F9B168086024
:105840004946316027480818183074682146FDF72A
:105850008BF8224831680818401D21462A4602F07C
:105860007AFA00281ED1746813F066F9F11D093127
:10587000884203D1B068006813F074F920462946C5
:1058800015F0CCFCF01D0930808D00280FD1F46894
:1058900020881021FDF708FA00280AD067200002AE
:1058A00002F053FA0E4802F050FAD120000202F042
:1058B0004CFA49460948081822888018094A89186C
:1058C000891C102215F09AFC20881030208012F0DC
:1058D00055F90920000302F038FAC046C806000056
:1058E00005B1000058080000EE790100D0B502AF04
:1058F00082B06E4604462748494608184079002879
:1059000002D1264802F021FA234D484640198078FA
:10591000002824D1484640190179C07808431ED197
:105920001F484946095CFE220A40022A1BD11D4934
:10593000794409687160C91D072291436A46511A6A
:105940004A46101818308D463160FDF70DF8208852
:105950007168FDF7A9F9002809D0672004E00F4815
:10596000001D02F0F2F9D120000202F0EEF94846E3
:1059700040192188401822CE2A46083E15F03EFCE8
:1059800020884019208002F047F80920000302F027
:10599000DCF9C04660000000C806000001B100004C
:1059A00028060000B8780100D0B502AF82B06E467C
:1059B0000446224D484640198078002824D14846A4
:1059C00040190179C07808431ED11E484946095C38
:1059D000FE220A40022A1AD11B49794409687160E3
:1059E000C91D072291436A46511A4A4610181830B9
:1059F0008D463160FCF7B8FF20887168FDF754F9D7
:105A0000002808D0672003E00D4802F09EF9D1205D
:105A1000000202F09AF9484640192188401822CE27
:105A20002A46083E15F0EAFB20884019208012F033
:105A3000A5F80920000302F088F9C046C806000056
:105A400005B10000580800000E780100F0B503AF62
:105A50008BB06E467061C54B4846C018C278002AAC
:105A600000D07FE10479C84A7A4415682A46433257
:105A70007462A24200D975E180780028F161B061BA
:105A800009D002280CD0012800D06BE1B848494663
:105A90000818407908E0B64849460818807903E0BC
:105AA000B34849460818C079002800D15AE1484651
:105AB000C0184019441D21212046FDF720F9002877
:105AC0000ED12121F21D21322046FEF7ACFD002827
:105AD00000D147E1F01D21300078002800D041E1DD
