:02000004C0DE5C
:1000000070B58CB062B6002808D02D494A46531806
:1000100001686422184615F077FD04E02848494637
:10002000081804F053FB274E12F0EAFE48468019E8
:100030004F218A000024214607F0B5FB07F098FB0A
:100040006D46284616F0C8F8A88580B2102805D15C
:10005000684684850A9813F00DFBE5E7002809D06F
:10006000684684850A9813F005FB02F0FBFD2046E4
:100070000CB070BD684613F0FDFA0A9007F018FE48
:10008000052000242146224613F022FA0E494A4652
:1000900051184862204614F0A7FB0125284614F0A9
:1000A000A3FB204607F04AF92046214600F0E8FF6E
:1000B00006497944284600F0E3FF06F067FFC04692
:1000C0006000000088020000B407000033640100F3
:1000D000F0B593B012930F46044600787F2101409B
:1000E000052900D1CCE215460E91208B00F0D8FAFC
:1000F00000280F95119765D04279867900200A90E3
:10010000002F67D0002D65D00992208BE188129ACC
:100110000092EBB2643189B23A4600F0E7FAE18826
:100120000022052D0D9208960C905AD3884258D97A
:10013000208B129900916421914A7A44032300F0A4
:10014000D5FA0A9068083E18E188002810904AD035
:100150000C9A8A4247D92F1A45D000200B90208B49
:10016000129D009589B2109AD3B2119A00F0BEFA8E
:100170000C90E188208B0095FBB2324600F0B6FA75
:100180000A990C9A51180D18E1888D420C952AD9BC
:100190000B9F012F06D0002F05D11098401E0F9BFA
:1001A000119A03E0761C0F9B119A1098002810906A
:1001B00019D08D4217D90120B843921BD7180B9044
:1001C000CDD110E0002110910C910A460E46084650
:1001D0000A9103E00A9910910C9108460B910E9B2D
:1001E00033E0164610950A9603239D03208B0540A5
:1001F0000122D703BD420CD09703BD420D9D0B9544
:100200000F9D119F089E0CD10C9E891B089E0B917F
:1002100007E00C9D6D084908491B0B910F9D119F2C
:10022000089E190308405103884205D011038842F3
:1002300008D12089801B06E07008C0432189490845
:10024000081800E00D980E9B099A032B07DC0D900F
:10025000012B5FD0022B0BD0032B5BD010E2042BC1
:1002600053D0062B00D196E10D90072B00D007E26A
:10027000207B01282CD10992072B314600D0002188
:1002800004200790205E0891421A0227E15F60690E
:10029000072B099B00D0238900930B9D2B4613F05D
:1002A00077F90C982818E15F4118E288131A07982B
:1002B000205E089A821A60690E9D072D01D025895B
:1002C0000995099D009513F063F90F9D119F0E9BF1
:1002D000002F00D1D4E1002D00D1D1E108960220F9
:1002E000205E0C9004200790215E206909906269CD
:1002F000208BE68825890397109F0497129F059706
:10030000072B00D15FE10D9B5EE10D90E07A0028A4
:1003100000D1B7E1E3885A0821894808824216468D
:1003200000D30646E57AAE4203D88242154600D392
:100330000546207B012825D104201090225E02274B
:10034000E65F20690091A9196E009B1B13F020F94C
:10035000E15F1098225E2089831B20690093AA1810
:100360002B4613F015F9E15F1098225E2089831B5C
:100370002069E6880093AA18491B89192B4665E075
:100380009463010004200C90225E0226A75F109661
:1003900060690091E9196F00DB1B13F0F9F8A15FA8
:1003A0000C9EA25F2089C31B0E9760690093AA1858
:1003B0002B4613F0EDF81098215EA25F2089C31B35
:1003C0006769E0880093AA18EB43C91809183846F2
:1003D0002B4613F0DDF8A05F0A903746109EA15F10
:1003E0002269E388A07A009069180E981B1A1046BB
:1003F0000A9A13F0CDF8E05F0A90A15F2069099096
:100400002289E388A07A009069180E9FDB1B0A9866
:100410008018421E099813F0BBF8A05F0A900C9E4A
:10042000A25F2089C11BA37A20690091AA180A99AA
:1004300013F0AEF81098215EA25F2089C61BA37A44
:100440002069E7880096AA18C919491E13F0A0F878
:10045000022D119869D3207B012802D0A07A281A96
:1004600000D20020109004200C90205E0A90022000
:10047000215E07460E9020696369C0220092109E9B
:100480000196029369180A9AAA182B4600F0D9FA25
:100490000C98205E0A90E05F0890206909906369DB
:1004A000E188A07A30220092019637461096029396
:1004B0002818089A5118091A0A982A1809982B46D8
:1004C00000F0BFFA0E98205E0A900C9EA05F089084
:1004D0002069099063692189A07A0C220092019712
:1004E00002932818089A51180A1A0A982918099884
:1004F0002B4600F0A6FAA05F0C900E98215E2069B2
:100500000E9063692689E788A07A03220092109AE8
:10051000019202932818C919091A0C9A101A821903
:100520000E982B4600F08DFA119800280F9800D1F4
:10053000A6E0002800D1A3E0237B10211420012B8A
:100540000A4600D00246012B00D00846A15810915F
:1005500020580E900220215E0420255E208BE68824
:100560002789A37A119C03940F9C0494129C0594F0
:100570000124E443002B00D05C430D9ABB1A1B19E5
:100580000B9FF61B341955190095019402937B18A3
:100590000E99109A72E00420205EE37AC2180220BD
:1005A000205E19182069267B0025012E03D0A67A2B
:1005B000B34200D99D1B6469FF2600960195029401
:1005C00000F03FFA5CE000231093ED1A0B9FF31B41
:1005D000019302950E9B072B01D00D9B01E0089B18
:1005E0005B420D935B1800930B9B0C995B18099968
:1005F00000F0CBF801460A98002841D0079FE35F3E
:1006000020690C9060690E90208B0990E5882689FE
:100610000891032121487844109AB61A0B9AAD1A12
:100620000D9AD31800AA68C203900491129D0595F3
:10063000089883B209980C990E9A00F0A6F80E90CB
:10064000E35F20690C9060690990228BE688248919
:100650000F98119FC7190A983F1A1099641A0B999D
:10066000761A0D99CB180093019602940390049783
:1006700005950E9883B210460C99099A00F085F8FA
:1006800013B0F0BD0420225E0220215EE3882069C1
:100690002489009412F07CFFF2E7C046B85E0100A6
:1006A000F0B581B00E4D05400E48784401688800D1
:1006B0000D4A7A448018001F4E1C761E0CD0071F6E
:1006C0000468204608F0ECF80068A8423846F4D1E7
:1006D000204608F0E5F800E0002001B0F0BDC0467B
:1006E000FF0F0000A27201008E720100F0B583B00E
:1006F0001C4615460191FFF7D3FF0026002841D084
:10070000002C019A3ED00026029003892F789F4248
:1007100002D34189B94213D20A2F33D00D2F31D0E1
:10072000B809032803D33F20074039461EE078B2BA
:10073000002100281AD5B806009109D50F2008E03D
:10074000F91A8F00C06808F0ABF8019AC15D0DE09E
:100750000E20FFF7A5FF0028019A009906D0C06877
:1007600008F09EF8019AF906490E415C002A03D070
:10077000B0B20818904205D86D1C641E7618200689
:100780000298C2D1B0B203B0F0BDF0B5A3B00A93E5
:100790000F91149110921392FFF782FF002800D15D
:1007A00044E12C9907910B90047900200990C043F3
:1007B0000890022C5DD313AD281D3C210D9015F03F
:1007C0009DF910981390089AA240D043129080008F
:1007D0000F9929500E92901C0C900026F7000F984C
:1007E000F840C5B21098F840C4B2A542284600D3DC
:1007F0002046A542294600D82146081A401C1299D5
:1008000014F0BAFFA542119617D90221C9430E9AD6
:100810008A422AD801210D9A0C9B05464D432D1979
:10082000FF2D00D3FF25BD4016682E4340C25D1C3E
:10083000491C9D422B46F0D217E00221C9430E9A73
:100840008A4212D801210D9A0C9B129C641A4443CF
:100850006419FF2C00D3FF24BC401668264340C215
:100860005C1C491C9C422346EFD2119E761C032E31
:10087000B4D1289C079D002D00D1D9E02A98299950
:100880002B9F02190A9809180D9103460B99099894
:100890002E4601251195AE1B3D780D2807D10A2D56
:1008A00005D1761C7F1C0A20012EF5D1C1E00E93E4
:1008B0000F94134608894A791292854204D30B9902
:1008C0004989A9420B990FD20D2D01D00A2D27D1AC
:1008D00012980F9A121814461018984200DDADE0D5
:1008E0001A4628460A9B67E00C93281A099085004F
:1008F000086907F0D5FF04460B98C06807F0D0FFE1
:1009000040194088201806900B98C06807F0C8FF6F
:100910000E9B455D0B98C07907900F9C224613E013
:10092000C02D0C9305D33F212940002009950D4689
:1009300005E068B2002845D40020099505460790D7
:1009400006900F9C22460E9B58190D99884207D994
:100950001298241820180C9988426ADC0A9B2246B7
:100960000698002819D00F920246129868430B99F6
:100970000979484304900392029113A801901198B9
:100980008840009018460F992A4611951D46129BE3
:1009900012F0DCFD2B46119D08E012980090109893
:1009A00019460E932B4612F0F3FD0E9B0B990C9AF1
:1009B00007982818C3180998089D75437F1C002EB6
:1009C00037D065E7A80601D50F2000E00E200F9C68
:1009D000FFF766FE002823D00F90006907F060FF44
:1009E00012900F98C06807F05BFFE906490E099165
:1009F000401840881299081806900F98C06807F0B0
:100A00004FFF0999435C0B98807922180F988179E0
:100A1000521A407912900020079009951D4692E7DE
:100A2000002009950546079006908BE7002003E01B
:100A30000A9B98B22104081823B0F0BD0E9880B22A
:100A4000F8E7F0B59DB01B921A9106462398411E17
:100A500002468A4118921393191A1291002901DC57
:100A6000002100E00121139A002A00D5C0E1189A64
:100A70000A401892249910912299139FC21B039245
:100A800080220A400A9240220A400D9220220A4007
:100A9000099210220A400C9208220A40089204226D
:100AA0000A400B920123129A9C1A069402240C40CD
:100AB000079419400E911C93DC1B1A994018C01B17
:100AC0000590401C04900025E943501E0F90169598
:100AD0001196481C17900E9800281995159114949A
:100AE00006D10798002855D0189800281FD147E054
:100AF0001898002838D01C9C00940F983B1A1B981B
:100B00004018451C10981A9E31462A4612F040FDA6
:100B10000094149CB819119E0699411830462A4633
:100B2000199D129B12F034FD0798002832D01B98B3
:100B30003D181398B8420AD01C9800900398159954
:100B40004018831C10981A992A4612F021FD1C980F
:100B50000090059815994018811C30462A46129B32
:100B600012F016FD199D15E01C9800901B98421874
:100B700030461A993B4612F00BFD0798002809D021
:100B80001C9800901B983818421E30461A99179BE3
:100B900012F0FEFC0B98002806D1089800285AD0C5
:100BA000189800281FD133E01A98C51B1898002800
:100BB00020D01C9C00940F9EBB1B1B9815994018BD
:100BC000421C02921098294612F0E2FC0094149CF8
:100BD000A91B1198029A119E129B12F0D9FC089839
:100BE0000028199D37D01398B8421BD11B983E1886
:100BF0001C9827E01C9800901B98159942183046C5
:100C000029463B4612F0C4FC08980028199D22D0C2
:100C10001C9800901A9841191B983818421E3046AB
:100C2000179B16E01C9C00941A9841191B983E18BB
:100C30000398159A8018831C1098324612F0A8FC6D
:100C40002046149C0090049841191198324606469B
:100C5000129B12F09DFC0C98002806D109980028E0
:100C600053D0189800281ED146E01B9845191898B3
:100C7000002835D01C9C00940F983B1A10981A9E9F
:100C800031462A4612F084FC0094149CB819119E37
:100C90000699411830462A46129B12F079FC0998B1
:100CA0000028199D31D01B98C51B1398B84215997F
:100CB0000AD01C98009003984018831C10981A9929
:100CC0002A4612F065FC15991C980090059840186A
:100CD000811C30462A46129B12F05AFC199D14E0E2
:100CE0001C98009030461A992A463B4612F050FC58
:100CF00009980028199D08D01C9800901B98C21BC9
:100D000030461A99179B12F043FC0D98002806D123
:100D10000A98002856D0189800281ED131E01B9858
:100D200045191A98C61B189800281DD01C9C0094C1
:100D30000F983B1A109831462A4612F029FC00946D
:100D4000149C0F98311A119E30462A46129B12F0BD
:100D50001FFC0A980028199D34D01398B84219D165
:100D60001B98C21B1C9826E01C98009011983146D5
:100D700006462A463B4612F00BFC0A980028199DAD
:100D800020D01C9800901A9841191B98C21B30461D
:100D9000179B15E01C9800901A9841191B98C41BCA
:100DA0000398159A8018831C1098224612F0F0FBC5
:100DB00022461C98149C0090049841193046129BBE
:100DC00012F0E6FB791E012C384600DB0846169A25
:100DD000521C012C169201DB169A521A510061180E
:100DE0004C1C6D1E179981421397074600DA70E676
:100DF0001DB0F0BDF0B589B08E68022E20D80C462B
:100E00000421415E08910221405E05902068069011
:100E100060680790E06807F043FD0546A768206911
:100E200007F03EFD0ECC0124B4404B43534300A9D0
:100E3000B0C103900493089905AB0DCB12F086FB6B
:100E400009B0F0BD70B584B000200390029002ADEF
:100E500008242846214612F025FBA8780299414033
:100E600003984840A97941402970E8786A7842405F
:100E700068795040EA7942406A70D0B20090064DDD
:100E80004E467019401CCBB21721044A7A4407F031
:100E900017FB745504B070BD00000000BB56010084
:100EA000F0B58FB007AD28461830072114F026FEA4
:100EB0000620687011202870A81C2449794410224B
:100EC00014F022FE0024EC751820A8756C750C2017
:100ED00028751220E8740520A8741A484946081895
:100EE000C588868818480F18384615F0BFF900974E
:100EF000C3B230462946224601F064FA0125002893
:100F00001CD1114E182007A901F02CFB002815D187
:100F100048468519284615F0A9F9C0B200940190F9
:100F2000029503940494059406943021602220468F
:100F3000234601F019F80546401E854128460FB0AA
:100F4000F0BDC0461800000000000000946A0100D7
:100F5000F0B589B0444F4846C0190021818414215E
:100F6000017301F0E1FA002872D1FFF76BFF002056
:100F700006213F4A7A4401F085FA002868D101F041
:100F80004FF9002864D14846C01901460831821D36
:100F900000920191031D012000241822214601F036
:100FA000AFF8002854D10125284601F02BF800287D
:100FB0004ED104942D4803900295102601960820E6
:100FC00008900090284629462A462B4601F03CF816
:100FD00000283DD14846C0190E3000900220254916
:100FE0007944012509232A4601F038F900282FD138
:100FF0004846C119C88910310A2200961646019444
:10100000029403920495059102211B4A7A44992384
:10101000079101F073F900281AD14846C119C8890F
:101020001231089A00920192079A0292039604954F
:101030000591124D7D44992311462A4601F05EF92F
:10104000002805D10120072101F04AFA002802D02A
:10105000012009B0F0BD4846C019C462FFF720FF67
:10106000411E8841F5E7C0461800000040E201003B
:101070000C6A010070690100546901003C690100BB
:10108000F0B581B004461E484F463818482114F088
:1010900035FD1C48242139541B49791800264E601F
:1010A0003D18686800906E60284612F0E5F9174810
:1010B00044213954009969603818002C01D1214627
:1010C00000E00321C170012181704670042112F0FB
:1010D00079FA0B497C500E4D002C0AD07819406AE1
:1010E000002806D10020014605F018FEFFF730FF6A
:1010F00001E04846465048464019C68301B0F0BD5D
:1011000018000000F001000088020000C400000088
:10111000B4070000B0B50848494624220A54074ADB
:101120008A18002353600C1865686360204612F02B
:10113000A3F96560B0BDC046F00100008802000060
:1011400010B504464068083000F004F8411E88419C
:10115000207010BDF0B583B004464078E51C012630
:101160003E2809D0FF2832D00528304600D0C3E001
:10117000FFF7D0FF00F0DEF8E078012800D0BAE0F9
:1011800068484F4602963E1814203073A878E978D4
:101190000902081870817D21890000910C21182214
:1011A0000024234601F006FA5F482421395434769E
:1011B0005F497918CC835D4979184C603D186E6899
:1011C0006C60284612F058F96E60029894E0287816
:1011D0006978090208180321890288420CDC4C490D
:1011E000884219DC4D4988421DD04D49884200D0C3
:1011F00081E000F08BFA7EE0424988422ED04249DD
:10120000884243D04149884275D14648494608182A
:101210002979C91E01736EE03E4988426ED1686823
:1012200000F0D4FA67E0E079401E012806D83D4876
:10123000494608184089052100F0A8FF3A48494668
:1012400024220A54394A8A18002353600C1865680E
:101250006360204612F010F965604CE028796979E6
:10126000090209182F4A48468018008A801C8842C3
:1012700041D1607B01283ED1A07B002830463BD184
:101280004846821801201076918235E028796979E4
:1012900009020918234F4846C019408A401C884259
:1012A00029D14846C01900228263007E002808D058
:1012B000607A21460A3100F073F8287969790902C9
:1012C0000918A878EA78637A0A3400930194120224
:1012D00010180022134601F0A5F800280CD148464A
:1012E000C019826B002A06D04846C119088A3C31D1
:1012F000D2B200F02FF8304603B0F0BD0649884264
:1013000033E7C046010C0000130C0000030C000082
:1013100004040000090400000504000001040000AA
:101320000204000018000000F00100008802000024
:10133000B407000005484946081800220276044B0D
:10134000C918CA834281102006F051FA1800000023
:10135000B4070000F0B581B014460D4606460E49AC
:10136000484640187D210901C18348460B49401871
:10137000C0890095002731463A46234601F022F8FD
:101380004328F2D04528F0D06428EED048460249E0
:101390004018C78301B0F0BDB4070000180000007A
:1013A000F0B581B00246784D484643190020986355
:1013B000002A2AD04B465B1925241B5D002B3AD10D
:1013C0000B78012B39DD022B4ED0082B5FD0052B7B
:1013D0001CD14B465B1924241B5D002B2BD1032A07
:1013E000034613D34B465B199C8B230A4E789E42CF
:1013F00003460BD1E3B28E789E42034606D1002C01
:1014000074D0042A76D2072300E06723494649199D
:101410003C220E248C5405228A633C3148804B7058
:101420000871484641190022CA628A84574BC01885
:1014300008624A838A8301B0F0BD002B40D0012BA3
:10144000E4D10523032AE1D34C78002CDED18C783B
:10145000002CDBD148464019092A00D309228263B7
:101460003C3014F055FBDCE70423032ACED34C7840
:10147000002CCBD18C78002CC8D148464019092AC1
:1014800000D3092282633C3014F042FBD3E70623E9
:10149000052ABBD34A78002AB8D189780029B5D16A
:1014A000484640190021C1633C21082242540621CC
:1014B000816301463C3101220A71007B4871BAE721
:1014C0000323052AA2D34A78002A9FD189780029CC
:1014D0009CD14846401944210022425402644021D4
:1014E00004234354C263092181639AE7052A0CD27D
:1014F00008238BE7D21E48464019468B93B2B3426D
:1015000000D81646006AC91C1DE04B465C191F4EE8
:101510009B190E79CF7823623B029E196683B7B27E
:10152000E7620123052A00D170E74124A400A74205
:1015300000D96BE7501F82B2BA4200D8064648462F
:10154000124A8018491D124A4F46BA187D231B01C2
:10155000D383B4B2224614F0DBFA7819016A091970
:101560000162418B891B4183828B521C8283080458
:1015700000D060E74846064941180022CA83401956
:10158000C06A488057E7C04618000000B006000057
:10159000B4070000F0B503AF89B06E464E4B4A4623
:1015A000D418227BD21D07239A436B469D1AAD4661
:1015B0002422A35C002B01D0012088E030624C463D
:1015C000134645482218012073613061D054306AB7
:1015D00010620020908351830246404820184280C8
:1015E000002962D00B46681D3060E81C7060F56011
:1015F000AA7005212970100A68704846364C0019F7
:10160000047B98B2F2611204336212D04A46324926
:101610005218E41E844200DB0446116AB161A5B28F
:1016200070682A4614F074FAB069401925460323FD
:1016300014E0B1612B711A0AEA704A462649521821
:10164000651F854200DB0546146AAAB2B2603068A5
:10165000214614F05DFAB0682018B36949461E4A65
:101660008918252432690A55F269521C8A83326A24
:10167000521B4A8308627069085C002821D04846E2
:10168000154934624418208A5919CAB2F5682946A6
:10169000FFF760FE0020316A6054638B002B04D09A
:1016A00048460D494018828BA2E7494600200B4D61
:1016B0004855094A8A187369D0549083491948805B
:1016C00005E0484604494018002101550220FC1F4E
:1016D000053CA546F0BDC04618000000B407000058
:1016E00080B582B06A46074B1846114601DF0648AE
:1016F0000099814202D1019802B080BD042006F019
:1017000076F8C046EC890060D4890090F0B581B0CD
:1017100000251349164A7A44284603F019F803466F
:1017200010484E4630180621016343630E4FF419EA
:10173000E16025722046103010210E4A7A4406F0EE
:10174000BFFE2320F05518206060084830180A4971
:1017500079444160204611F08FFE01B0F0BDC046D3
:1017600040420F0018000000F00100008802000055
:10177000C7FFFFFF904B01002900000070B5044631
:101780000E48494624220A540D4A8A180023536001
:101790000D186E686B60284611F06EFE6E60094889
:1017A000844207D1084849460818416B408900F037
:1017B00081FC70BD0120FFF763FC70BDF0010000EB
:1017C00088020000115010B01800000070B50346E8
:1017D0000F484D4628180621016343630D4EAC198E
:1017E000E160012020722046103010210B4A7A441B
:1017F00006F066FE2320A8551820606006482818C9
:10180000074979444160204611F036FE70BDC0465C
:1018100018000000F001000088020000DE4A01000C
:101820001F00000070B504460E48494624220A54A1
:101830000D4A8A18002353600D186E686B602846A5
:1018400011F01AFE6E600948844207D108484946E3
:1018500008184089012100F0BFFC70BD0120FFF78E
:101860000FFC70BDF001000088020000115010B0A4
:101870001800000070B50446052114F003F80D4669
:10188000022905DC012D0BD0022D07D104260AE028
:10189000032D07D0042D01D1012604E0002602E02B
:1018A000062600E00326E000052113F065FF002D69
:1018B00000D0401C801970BDF0B585B00E46039075
:1018C000052704921046394613F0DCFFFF43012040
:1018D000022907DC012912D002290BD10290BF1C7A
:1018E000042012E003290DD0042903D102907F1DAA
:1018F00001200AE0002701200190029706E00290F3
:10190000062002E00290FF1C032001900498FFF7DC
:10191000B1FF38183BD0002422462346D5086F1C5F
:1019200004998F42214600D2F15D775D07251D4065
:10193000032D05DC012D0ADC002D11D1FF0819E073
:10194000052D08DC042D0ED1C9093D0710E0022D3C
:101950000CD1B90608E0062D16D14909BD0707E0EC
:1019600089097D0704E07906CF0E03E00909FD0728
:10197000ED0E4F190B497944C95D039DE954521D81
:101980005B1C9842CAD102E01F210F40F2E7029986
:10199000002905D0039908183D22019914F0BCF8DC
:1019A00005B0F0BD11600100F0B583B00F460546EB
:1019B0003D213A4614F0C2F80646EC190022D04305
:1019C0000290002E08D0A64206D0304601783D296C
:1019D00038D1401C8442F9D10192002E00D0771BEF
:1019E00005214F43FF08384613F04CFF022905DC60
:1019F000012909D002290BD104200AE0032905D0CE
:101A0000042905D1012004E0062002E0032000E0C3
:101A10000198002E00D0A61BB04213D1002F14D085
:101A20000B4E7E443C46287801F05BF901462022AB
:101A3000304614F083F8002804D06D1C641EF2D1E7
:101A4000384600E0029803B0F0BD0020FBE7C04636
:101A5000655F0100F0B58BB0174605460991084651
:101A60001146FFF7A1FF002800D195E000244B4963
:101A700079440A91214603942246019708920590E1
:101A800006953D4605271046394613F075FE064675
:101A90007E432046394613F06FFE07460998C05D25
:101AA00001F01FF9014620220A9814F047F8079028
:101AB000781CA842039B19460DD20999085C01F0D5
:101AC00010F90146202204940A9C204614F036F8AE
:101AD000039B011B049C0491089A961BB91CA94204
:101AE0002F460FD20998405C174601F0FAF80146DC
:101AF000202225460A9C204614F020F83A46019FF1
:101B0000031B2C460A980799091A012E10DD022E94
:101B100022D0032E25D0042E069D0598029E32D198
:101B200013461F22049E16401A46490176182AE0E1
:101B3000002E21D0012E069D0598029E23D18907F3
:101B4000090E1646049AD206920E5118DA06D20FE2
:101B5000891832460E4616E008010499C906090F95
:101B60000EE0C907090E1046049AD206520E51180B
:101B70000246D806800F03E0C8000499C906490F41
:101B80000E18069D059802962E7008346D1C401E96
:101B9000521C002800D071E70BB0F0BD175F0100A8
:101BA000F0B503AF8DB06E46154631620022002DB0
:101BB000144608D00024316A095D002903D1641C51
:101BC000A542F8D12C463060291B8A204843642165
:101BD000326313F0D1FD024608323B4911406A4698
:101BE000521A3061411C954672601046F16013F044
:101BF0009BFF326BB460A5422FD930697168081819
:101C000070610020B0610346B168F561306A7162AD
:101C1000405C0146B3621943B26918D0002273696F
:101C2000F362326319780D0205433A2428462146AF
:101C300013F0A2FDF36A326B4443291B1970C0B242
:101C40005B1E521C0028EBD1B16A8A42E8D3716A4C
:101C5000491CF569A9421346D8D1F068841A306945
:101C6000A04235680ED330697168091850420A18CD
:101C70005278002A03D1401CF9D3F46802E031699C
:101C80000818441C002D17D031222846B16813F0E3
:101C900043FF306984420FD870680019B168691831
:101CA000F268121B094B7B4405785D5D0D70401C8A
:101CB000521E491C002AF7D1B068F1680818001BB1
:101CC000FC1F053CA546F0BDF8FFFF07065D0100BF
:101CD000F0B58BB001920D460290171F03AE202481
:101CE000084639463246234611F01CF93046214653
:101CF0003246234611F016F90398E855E919020E09
:101D0000CA70020C8A70000A487002982946019A2B
:101D1000FFF746FF0BB0F0BDF0B503AF8BB06E46DA
:101D200070600024002A254607D00025485D312830
:101D300003D16D1CAA42F9D11546B161511B3A4835
:101D400048437D21C900F26113F016FD02460832B6
:101D5000364911406A46521A3061411C9546B260BC
:101D60001046316013F0E0FEF560F069A8422DD90D
:101D70003069B168081870610024E043B062F1680E
:101D80003462B0697162415C294878443A2504465E
:101D90002A4613F0D3FE002841D0001BC0B20146F2
:101DA000336A002419430CD071690A786A43101809
:101DB0000870B26A8918000A641C0028F5D19C4298
:101DC000F3D3716A491CF0698142D9D133681D1B74
:101DD0003069A8420ED33069B168091860420A1808
:101DE0005278002A03D1401CF9D31D4602E0316924
:101DF0000818451C591BF4680819B062706800285F
:101E00000DD07162214613F08FFE3069854206D8ED
:101E100070680019B1684919726A13F075FEB06AEA
:101E2000FC1F053CA546F0BDDD020000F8FFFF00E9
:101E3000225C010010B50A46014600242046FFF747
:101E40006BFF032800D8E04310BDF0B589B004460D
:101E5000FFF762FF051F01AE2027204629463246C4
:101E60003B4611F05FF83046394632463B4611F0AA
:101E700059F801980090615D621953781B02591856
:101E80009378D2781202D21812045118091A4842D3
:101E9000484109B0F0BDD4D4F0B5FFB086B004AC71
:101EA0000FC40120010244AE304611F07DF834AF7A
:101EB00040243846214613F037FEFF200230788058
:101EC0008B988A9D002D039000D1284678708198C8
:101ED000387010362349794430463A46234605F097
:101EE0006BFC002D2ED008AC204614F075F9A085AF
:101EF000000417D108A811F0BDFB129014AC2046C5
:101F00002946039E324613F0FFFDA0198025A91B28
:101F100013F00AFE00210091019144A822462B46AD
:101F200010F0E4FF11F090FB08A9884202D112984A
:101F300011F0A0FB14A8802113F0F6FD08A8808DF5
:101F400000280CD1049800900598019044A8012124
:101F5000069A079B10F0CAFF7FB006B0F0BD05F0EF
:101F600046FCC046165B0100F0B5CBB0150A04ACC8
:101F70002571E2700A0AA2706170519DE571509955
:101F8000A1716371207003A9029100200190087073
:101F900027460837529938462A4606F071FC539E68
:101FA0007E557819471C54993846324606F068FC2D
:101FB0005598B855B919569A130ACB708A70000A09
:101FC000487045A800901822019F394606F05EFC33
:101FD00001204A9002984990A8190D30C0B248904B
:101FE0004794074845900098394604F0C7FE0028FA
:101FF00001D4039800E0F843C0B24BB0F0BDC04636
:102000003F008300F0B5C9B002AE307001AF0024CC
:102010003C7043AD18222846214606F037FC0120CB
:102020004890479746904596064843902846214653
:1020300004F0A4FE002801D4019800E0E043C0B2FF
:1020400049B0F0BD3F008500F0B5C9B0519C250EE8
:1020500002AEB572250C7572250A3572F471529C68
:10206000F472509CB4714F9C74714E9C3471F37037
:10207000B2707170307001AF00243C7043AD182213
:102080002846214606F002FC0120489047970C2084
:1020900046904596064843902846214604F06EFE39
:1020A000002801D4019800E0E043C0B249B0F0BD7F
:1020B0003F008600F0B5C9B00A0C02AEB280718054
:1020C000308001AF00243C7043AD182228462146E1
:1020D00006F0DCFB01204890479706204690459685
:1020E000064843902846214604F048FE002801D4C3
:1020F000019800E0E043C0B249B0F0BD3F00880065
:10210000F0B5CDB0009301920291044604A803906B
:102110000026072731463A4606F0B8FB06AD01987F
:10212000A870029868702C7047AC1822204631467F
:1021300006F0ACFB4C97039F4B9703204A904995C0
:10214000114847902046314604F018FE002818D464
:1021500004A80078002815D1781C5399529A037866
:1021600044782402E318009C23808378C4782402F6
:10217000E318138002794079000280180880304605
:1021800000E0FF204DB0F0BD3F008A00F0B5C9B0BF
:1021900002AEB170308001AF00243C7043AD182214
:1021A0002846214606F072FB0120489047970320FD
:1021B000469045960F204490064843902846214675
:1021C00004F0DCFD002801D4019800E0E043C0B237
:1021D00049B0F0BD3F009300F0B5C9B002AEB17098
:1021E000308001AF00243C7043AD182228462146C0
:1021F00006F04CFB012048904797032046904596F7
:10220000064843902846214604F0B8FD002801D432
:10221000019800E0E043C0B249B0F0BD3F00A50026
:1022200070B588B001AE0024347002AD1822284683
:10223000214606F02BFB01200790069606480290E7
:102240002846214604F09AFD002801D4019800E0B8
:10225000E043C0B208B070BD3F000101F0B5CBB0A3
:10226000019302920F46064603A80021032422464A
:1022700006F00CFB04A80670B11E4A424A41022532
:10228000012E294600D01101012E02D0022E2DD19F
:102290001025401C461839462A4606F0F1FA0198E6
:1022A00070700298307045AF0026182238463146CB
:1022B00006F0ECFA4A9403A84990E81C489004A858
:1022C00047900D4845903846314604F057FD0028A8
:1022D0000ED403A8007800280BD1509803A94A789F
:1022E0008978090289180180304602E0472000E021
:1022F000FF204BB0F0BDC0463F000201F0B5CFB0AB
:102300001D4606920F46064607A8002103242246D2
:1023100006F0BCFA08A887700680B91E4A424A41F6
:102320000226012F314600D01101012F02D0022FC9
:1023300040D11026C01C4718589901910594579C0C
:1023400056990291559903915499049106993246F0
:1023500006F096FA280A78703D700198B8717C7181
:10236000029838710398F8700498B87049AF002546
:1023700018223846294606F089FA05984E9007A893
:102380004D900A364C9608A84B900D484990384617
:10239000294604F0F3FC00280ED407A80078002892
:1023A0000BD1599807A94A788978090289180180C0
:1023B000284602E0472000E0FF204FB0F0BDC046B5
:1023C0003F000401F0B5C9B01D4602AF7B713A7100
:1023D0007980388001A8009000240470B81D4E99BF
:1023E0001A4606F04DFA43AE18223046214606F052
:1023F0004DFA0120489000984790A81DC0B2469021
:102400004597074843903046214604F0B7FC002822
:1024100001D4019800E0E043C0B249B0F0BDC0462D
:102420003F000601F0B5C9B002AF4E9DBD717B7192
:102430003A717980388001A8009000240470F81D5A
:102440004F992A4606F01CFA43AE18223046214620
:1024500006F01CFA0120489000984790E81DC0B291
:1024600046904597064843903046214604F086FC46
:10247000002801D4019800E0E043C0B249B0F0BDAB
:102480003F002601F0B5C9B00D4602AF7970387033
:1024900001A8009000240470B81C11462A4606F0DA
:1024A000EFF943AE18223046214606F0EFF901203D
:1024B000489000984790A81CC0B24690459707489E
:1024C00043903046214604F059FC002801D401987D
:1024D00000E0E043C0B249B0F0BDC0463F000C0090
:1024E000F0B5C9B002AE7170307001AF00243C701D
:1024F00043AD18222846214606F0C8F9012048902D
:102500004797022046904596064843902846214624
:1025100004F034FC002801D4019800E0E043C0B28C
:1025200049B0F0BD3F000F0070B588B001AE002487
:10253000347002AD18222846214606F0A7F9012082
:1025400007900696064802902846214604F016FC9D
:10255000002801D4019800E0E043C0B208B070BD8B
:1025600003000300F0B5C9B002AE307001AF002423
:102570003C70701C1F2206F083F943AD18222846D8
:10258000214606F083F90120489047972020469085
:102590004596074843902846214604F0EFFB002863
:1025A00001D4019800E0E043C0B249B0F0BDC0469C
:1025B00008000900F0B5C9B002AE4E9C3481F3802A
:1025C000B2807180308001AF00243C7043AD18228E
:1025D0002846214606F05AF90120489047970A20DC
:1025E000469045960F204490064843902846214641
:1025F00004F0C4FB002801D4019800E0E043C0B21D
:1026000049B0F0BD3F008101F0B595B00393064697
:102610008020002333503648F0603648B06036489A
:10262000706036483060086830614868706188685A
:10263000B061C868F0610869306248697062886991
:10264000B062C869F06204933363106870635068C5
:10265000B063F3671A980290B067304680304360E9
:102660009068F06305AC01943046214600F048F8CC
:102670003046403001462246B8CAB8C14322B35C56
:102680000F210B40B35435464335049A6A732A79B7
:102690000A402A712A7A0A402A722A7B0A402A733F
:1026A0006978FC2211406970697911406971697A11
:1026B000114069721124214600F037FB374651372B
:1026C000019910311022384613F01EFA0498A877A9
:1026D0003846214600F029FB30466230214613F08F
:1026E00023FA30460399029A00F086F815B0F0BD3F
:1026F0007465206B322D62796E6420336578706169
:10270000F0B593B00C4601906CC86CC46CC86CC436
:102710006CC86CC46CC86CC408463C300590084654
:102720002C30049008461C30039008460C30119061
:102730000846383010900846283002900846183075
:102740000F90084608300E90084634300D90084629
:1027500024300C90084614300B90081D0A9008464F
:1027600030300990084620300890129110310791BE
:102770000020029E039C049F059D0690129807ABC3
:102780000ECB00F01DF90AAB0FCB00F019F90E9833
:102790000F993246109B00F013F9119821463A46E2
:1027A0002B4600F00DF912980B9932462B4600F09B
:1027B00007F90A980F993A46099B00F001F90E981B
:1027C0002146089A0D9B00F0FBF8119807990C9A86
:1027D000109B00F0F5F80699481C0929CDD300207C
:1027E000019B129C1958225851182150001D402855
:1027F000F8D113B0F0BDD4D4F0B58BB01646024674
:1028000040320292623003903009401C039D102E2A
:10281000344600D31024002C23D006AF0490384651
:1028200005910599224613F06FF938191021091BFB
:1028300013F07AF90120387411243846214600F04B
:1028400074FA284629463A46234610F083FD009440
:10285000074B7B4428462946029A10F0ABFD0498AA
:1028600005991031103E401ED1D10BB0F0BDC046CD
:10287000E2510100F0B593B0174602910546802061
:1028800028582E46803671680022C01851410092A7
:1028900010465041012825D01C46286B401C286357
:1028A00003A92846FFF72CFF0194002C0BD003A8A6
:1028B0000299019A3B7804785C400C707F1C401CA4
:1028C000491C521EF6D128460299019C2246FFF768
:1028D00093FF30680019306070680099484170605B
:1028E00013B0F0BD014804F082FFC04605B10000FE
:1028F000F0B593B002920F460546802028582E4628
:10290000803671680022C018514100921046504133
:10291000012825D01C46286B401C286303A92846A3
:10292000FFF7EEFE0194002C0BD003A80299019A48
:102930000B7804785C403C70491C401C7F1C521E84
:10294000F6D128460299019C2246FFF755FF3068D0
:1029500000193060706800994841706013B0F0BD94
:10296000014804F044FFC04605B10000F0B587B04F
:1029700001910546806FE96F0391029080202858ED
:102980000490284680304068059002A91026284609
:102990003246FFF731FF2F46623751351124384652
:1029A00039462A46234610F0D5FC3846214600F029
:1029B000BCF901983946324613F0A6F807B0F0BDCD
:1029C000B0B50C6805682C1904601D6865401024BA
:1029D000E5411D601468641914600D686540142495
:1029E000E5410D60046864190460186860401824AB
:1029F000E04118601368181810600A6842401920F6
:102A0000C2410A60B0BDD4D4F0B587B006AD002491
:102A10002C7005950120029005A8019000947D4836
:102A2000784440219F23224604F006FF002800D16D
:102A3000E5E02878012800D0E1E012F075FD0546B8
:102A400012F0FEFD342068436E4F4946CE193246DF
:102A50006832714B7B4413506B4B0325CD541518D2
:102A60006E48784404222A712C6203956862CD185E
:102A70006C60284610F000FD6860022010F010FE27
:102A80006860B06E00283FD04846C0196C24015DD4
:102A90007A25405B884237D210F0A6FC5B49884219
:102AA00004D110F0D5FC594988422DD14846C019AF
:102AB000025D415B914222D20846382670434A4665
:102AC000D3199A6E101868331B6A002B06D09847EA
:102AD00000280AD04946CA19515B926E012802D1DA
:102AE00088B24643901901F051FE4846C019415B37
:102AF000491C4153025D88B29042DED300E0084693
:102B0000904201D110F00EFD0398243003904B2029
:102B1000800004904846C019806E00283FD0484687
:102B2000C0196C26815D7A25405B884237D210F04F
:102B30005BFC3649884204D110F08AFC3349884254
:102B40002DD14846C019825D415B914222D2084690
:102B5000382460434A46D3199A6E101868331B6AAA
:102B6000002B06D0984700280AD04946CA19515B65
:102B7000926E012802D188B24443101901F006FE7A
:102B80004846C019415B491C4153825D88B290425E
:102B9000DED300E00846904201D110F0C3FC4C4661
:102BA0001B4820180022049910F036FDE41905F0A6
:102BB00011F86C20205C7A21615A8142AAD304F07A
:102BC000F5FE039C4846124940180022049910F073
:102BD00023FD04F0FFFF10F00BFD002802D0206859
:102BE0000028EFD112F0C0FC05F09AF805F0A2F829
:102BF0004846074940180022049910F00DFD07B01F
:102C0000F0BDC04688020000F0010000115010B075
:102C1000C4000000DC640100F44F0100BB010000AF
:102C20000E490840884215D10B49484640580028B3
:102C300010D0012800D801204A4651188C31084A8A
:102C40007A440B68934203D03431401EF9D101E03D
:102C50000020086000207047880200000300008008
:102C6000DDFFFFFF10B58CB010F0CAF86C462046AF
:102C700013F0B2FAA085000407D1684610F0FAFC00
:102C80000A900020C04310F039FC10F0DDFC6946CA
:102C9000884202D10A9810F0EDFC6846808D002829
:102CA00001D10CB010BD04F0A2FDD4D410B5024681
:102CB00007485040012300248842184600D320468C
:102CC00051188908402900D82346184310BDC04632
:102CD000FFFF000020385F2801D30020704701204B
:102CE000704701466139C9B21A2900D22038C0B2F2
:102CF000704701464139C9B21A2900D22030C0B20A
:102D0000704710B500290ED00278002A09D101239E
:102D10001A46994203D0845C531C002CF8D08A4296
:102D200001D2002010BD012010BD10B54A080FD0FF
:102D30000918491E0B7804785C4004700B786340D6
:102D40000B7004785C400470491E401C521EF1D187
:102D500010BDD4D4B0B5002A0ED0084B7B440C78FB
:102D600024091C5D04700C780F2525405C5D4470BF
:102D7000801C491C521EF2D1B0BDC046CE4D010090
:102D8000F0B581B00C46064600252F460A22304693
:102D900021462B4612F07CFD7F1C0922921B2A46FD
:102DA000A24106460C46F1D3384601B0F0BDF0B55D
:102DB0008BB016461099002900901ED0354604931A
:102DC00003910A220292002428460499234612F015
:102DD0005FFD06460F46029A0294234612F078FDE4
:102DE000281A049A8A4102430AD10399491E080607
:102DF000354604973B46E3D107E00020029004E00B
:102E00002B46039802902E46049B1820029F0390A5
:102E100019463C460A270025304604933A462B467D
:102E200012F036FD029001913A462746039C2B464C
:102E300012F04EFD321A30210A43601E05AB1A54BF
:102E40003A0613D07F1E3A06019B11D1A01E05AA97
:102E50002E24145400270922921B3A46049CA241B6
:102E600006D30398C01E05AA115401E02F46019B0A
:102E70000921891B04998D41029EC8D33906C6D108
:102E800005A909181822121A009812F03DFE0BB07D
:102E9000F0BDD4D4D0B502AF94B06E46F41D413429
:102EA00002464E4849460858012802D14E4804F0CF
:102EB0009EFC4B4B4846C0188178012968D801799F
:102EC000481E3F2864D84846C018C07800285FD103
:102ED000444B4846C0184078401E02285CD2F2613C
:102EE0000A460720C543B161C81D28406946081A33
:102EF000B0608546F260104601F08EF87061C01D2A
:102F000028406946081A30618546F51D193528465E
:102F100013F062F9A88500041CD1F01D193010F0DF
:102F2000A9FB206049462F480818306018302C4A09
:102F300089184A1DB168F5682B46FFF7D9FC82B0A5
:102F4000102000903068831C3069B1682A4601F077
:102F500067F802B010F078FBF11D1931884202D1F8
:102F6000206810F087FBB068F16812F0DDFDF01DFD
:102F70001930808D002811D17569F469208829469F
:102F8000FFF794FE00280BD06720000204F02FFC0E
:102F90001548001D04F02BFCD120000204F027FC92
:102FA00049460F48716008182188401831692A463F
:102FB00012F0AAFDB069402801D3022000E00320EE
:102FC000F269084973697468611848701088C018FC
:102FD00010800920000304F00AFCC04660000000D5
:102FE000B00600001006000001B10000D0B502AF2D
:102FF00094B06E46F41D41340246494B4846C01811
:103000008178012968D80179481E3F2864D848464C
:10301000C018C07800285FD1424B4846C01840789D
:10302000401E02285BD2F2610A460720C543B16107
:10303000C81D28406946081AB0608546F2601046EF
:1030400000F0EAFF7061C01D28406946081A30612F
:103050008546F51D1935284613F0BEF8A8850004ED
:103060001CD1F01D193010F005FB206049462D4899
:103070000818306018302A4A89184A1DB168F56866
:103080002B46FFF735FC82B0102000903068831C7F
:103090003069B1682A4600F0C3FF02B010F0D4FADC
:1030A000F11D1931884202D1206810F0E3FAB068AE
:1030B000F16812F039FDF01D1930808D002810D113
:1030C0007569F46920882946FFF7F0FD00280AD0C9
:1030D0006720000204F08BFB134804F088FBD1202A
:1030E000000204F084FB49460D48716008182188ED
:1030F000401831692A4612F007FDB069402801D313
:10310000022000E00320F2690649736974686118BF
:1031100048701088C01810800920000304F067FB75
:10312000B00600004008000005B10000D0B502AFB5
:1031300082B06E4604462B4849460858012802D101
:103140002B4804F054FB284A48468018817801290E
:1031500027D80579681E3F2823D848468018C078AC
:1031600000281ED121494846405C401E02281CD23E
:10317000E81D0721884369460B1A49461B48081871
:10318000183089184A1D9D46736019462B46FFF773
:1031900071FB20882946FFF789FD002809D06720A8
:1031A00004E01348001D04F022FBD120000204F0CB
:1031B0001EFB49460C483160081821884018716888
:1031C0002A4612F0A1FC402D01D3022000E003208A
:1031D0000649326850542088401920800920000395
:1031E00004F005FB60000000B006000010060000BF
:1031F00001B10000D0B502AF84B06E460246284C43
:10320000484600198178012929D80579681E3F2888
:1032100025D848460019C078002820D121494846C1
:10322000405C401E02281DD2E81D072188436946E4
:103230000B1A49461B48081818300919F2604A1D34
:103240009D46B36019462B46FFF714FBF0680088D3
:103250002946FFF72BFD002808D0672003E012481D
:1032600004F0C5FAD120000204F0C1FA48467060AB
:103270000019F1680C4609884018B1682A4612F016
:1032800043FC402D01D3022000E003200549726871
:1032900050542088401920800920000304F0A7FA28
:1032A000B00600004008000005B10000214C48466F
:1032B00000198078012836D848460019017920295C
:1032C00031D1C07800282ED148460019401D202158
:1032D00000F0C6FD002826D018484946095C0029A0
:1032E00024D0494609180D4618352CCD496A194392
:1032F00015430D431AD1494609188A68CB68134310
:1033000014D04978002911D149460D182846283093
:103310000919491D002200F033FD012068700920C1
:10332000000304F064FA044804F061FAD1200002BA
:1033300004F05DFAB006000005B10000E0080000EE
:10334000D0B502AF9CB06E46F41D393402463D4DF7
:1033500048464019807801285CD8484640190179D0
:10336000C078084356D138494846405C002854D0BC
:10337000726148464018034618330ECB406A10432A
:103380000B43034349D13248784400683061C01D83
:10339000072188436946081AF0608546F01D113000
:1033A000706012F019FF71688885000414D1F01D57
:1033B000113010F05FF92060484623494118283148
:1033C00021202022F31D4133B360B3680FF09EFE2D
:1033D000F068B16800F0F0F910F036F9F11D113124
:1033E000884202D1206810F045F9F01D41302821B3
:1033F00012F09AFBF01D1130808D00280FD17469F6
:1034000020883169FFF752FC00280AD067200002AB
:1034100004F0EDF90D4804F0EAF9D120000204F0BF
:10342000E6F94846401921884018F16835692A466E
:1034300012F06AFB2088401920800920000304F064
:10344000D6F9C046B0060000E008000005B1000053
:10345000C84701009CB04B4D48464019817801296E
:103460002ED8C07800282BD1484640190079484909
:1034700079440E6831460931814221D148464019CC
:103480004479444878440068A04219D3002807D002
:1034900049464919891D0A6812BA04C1401EFAD169
:1034A0004846401981190527C859491D49680246EF
:1034B0000A4305D04A465219B218527B022A02D357
:1034C000314804F094F90792304B4A46D25C002A06
:1034D00006D04A46D3181A6A5B6A04921A4303D18B
:1034E000D120000204F083F9049A101A8B41E7D32B
:1034F00008A8039012F070FE0399888500041FD17C
:1035000008A810F0B7F81290484641198B19DA59FB
:1035100005921E4A801806904268581D4368881D0F
:10352000009001940798029014AC20461146059A29
:1035300000F03EFA069828300022214600F020FCD8
:1035400010F082F808A9884202D1129810F092F87F
:1035500014A8202112F0E8FA08A8808D0028C1D113
:103560004846411989194A1DC959084BC018036AB0
:10357000591A0162416A526891414162092000036F
:1035800004F035F9B006000005B10000E0080000C5
:10359000F0460100D84601009CB04B4D484640190A
:1035A000817801292ED8C07800282BD148464019AF
:1035B0000079484979440E6831460931814221D168
:1035C000484640194479444878440068A04219D3D9
:1035D000002807D049464919891D0A6812BA04C152
:1035E000401EFAD14846401981190527C859491D7E
:1035F000496802460A4305D04A465219B218527B1E
:10360000022A02D3314804F0F2F80792304B4A46BE
:10361000D25C002A06D04A46D3189A69DB69049224
:103620001A4303D1D120000204F0E1F8049A101AE1
:103630008B41E7D308A8039012F0CEFD039988854B
:1036400000041FD108A810F015F81290484641193F
:103650008B19DA5905921E4A801806904268581D47
:103660004368881D009001940798029014AC20468E
:103670001146059A00F09CF906982830012221464F
:1036800000F07EFB0FF0E0FF08A9884202D11298FB
:103690000FF0F0FF14A8202112F046FA08A8808D40
:1036A0000028C1D14846411989194A1DC959084BFA
:1036B000C0188369591A8161C16952689141C16119
:1036C0000920000304F093F8B006000005B10000E3
:1036D000E0080000AC45010094450100F0B503AFDF
:1036E00095B06E46F31D3133F36031607060002A8F
:1036F00056D42F487844F11D393118C818C138C83C
:1037000038C10120C007024327494B465918496870
:103710000143F068C16002616846B0606D46403D9B
:10372000AD46F41D0934204612F056FDA085000474
:103730001DD1F01D09300FF09DFFF168086084B0C5
:103740000C201C4979440095326801920291039043
:1037500000202124F21D3932052321460FF058FEA6
:1037600004B020222046294673680FF0CFFC0FF0EA
:103770006BFFF11D0931884203D1F06800680FF03A
:1037800079FF4021284612F0CFF9F01D0930808DD5
:10379000002806D1B0688546FC1F053CA546F0BD53
:1037A000024804F024F8C0466000000005B10000A3
:1037B000AC4401007044010070B594B00A4605465F
:1037C000212001AC0126214633460FF0B5FC0298BA
:1037D0000019C0793040801C2870681C09342022F0
:1037E000214612F091F914B070BDD4D4F0B503AFF6
:1037F000B9B06E46F41D6134F4631C46B163706366
:10380000BD68F868002803D1706BB16BFFF766FFE5
:10381000002D00D1BEE0F01D693008303063F01D8E
:1038200091300930F062706B0830B06275623462BA
:103830006846F0616C4620462838B0618546684687
:10384000403870618546F51D3935284612F0C4FCB4
:10385000A88500047AD1E51FF01D39300FF00AFF6A
:10386000F16B0860306A0468002C20D4746B2178F6
:10387000316121202070F11D9131B1600123F3608D
:1038800022460FF059FCF06B406BB1684018C079CC
:10389000F1680840801CB1690870481C2022F16A58
:1038A00012F032F930692070306A046808E00020B4
:1038B000B1690870706B4268481CB16A12F024F953
:1038C000EC70200AA870200C6870200E287082B05E
:1038D000402074690094019020252523B06B29466F
:1038E000B2690FF077FB02B0706B0078F31D69339B
:1038F00021462A460FF00AFCF46BE2682A49794413
:10390000356B28460FF0FAFC002847D5E06882B0F6
:103910000090264B7B4428462946B26A0FF030FDC2
:1039200002B0E16828460FF0FFFC002836D171692B
:1039300020312022B06B12F0E7F8F01D6930716B76
:103940001CC81CC11CC81CC13CC83CC10FF07CFE7B
:10395000F11D3931884203D1F06B00680FF08AFE07
:103960002521B06912F0E0F84021706912F0DCF80E
:10397000F01D6930282112F0D7F8F01D3930808D04
:103980000028316A0BD1F0690C1D716A4D1E854605
:1039900000D04BE7FC1F053CA546F0BD014803F0F5
:1039A00026FFC04601D100007E42010068420100AE
:1039B000F0B503AFA9B06E46F41D6D343462F36008
:1039C0003261B16070616846B062FF2502352846F9
:1039D00005F0F8F9B061C01D072188436946081A4F
:1039E00085467062294605F0F9F90546F41D45340F
:1039F000204612F0F1FBA08500042C4626D0B569C4
:103A00000FF022FEF11D4531884203D1306A006873
:103A10000FF030FEF01D7530282112F085F8F01DF2
:103A20002530202112F080F8204605F09FFA706AB8
:103A3000294612F079F8F01D4530808D002845D1D7
:103A4000B06A8546FC1F053CA546F0BDF4613C69A3
:103A5000FD68B8687060F01D45300FF00BFE316AEC
:103A6000086082B0002000950190F01D7530F11DB6
:103A70002531B2687368FFF7B9FE02B0012C0BD094
:103A8000002CF469BBD1306AC268F11D7531083170
:103A9000706912F039F8B2E7F068316986B00D4A02
:103AA0007A440D4B7B440D4C7C4400910190029470
:103AB00003930492F21D75320832F469204671694D
:103AC00008F03EF806B0002899D1014803F08FFEB7
:103AD00001D10000A14101005D4101001941010037
:103AE000F0B503AFA5B06E46F11D85313162B3600C
:103AF000F2607061FF250235284605F063F9B06178
:103B0000C01D072188436946081A8546F061294689
:103B100005F064F90546F41D5D34204612F05CFBA7
:103B2000A0850004B0692C4626D13461B468F568DC
:103B3000B8687060F01D5D300FF09CFD316A086060
:103B400084B01D4878441D49794400950194346936
:103B500002910390F11D1D312046726807F046F86E
:103B600004B0002823D0F21D1D322046716906F0F2
:103B7000E2FF00281BD0B06905460FF065FDF11D7E
:103B80005D31884203D1306A00680FF073FD204632
:103B900005F0ECF9F069294611F0C6FFF01D5D3023
:103BA000808D002804D1FC1F053CA546F0BD0148CE
:103BB00003F01DFE01D10000BD400100794001006D
:103BC000F0B503AFA5B06E46F31D5D337361F260CF
:103BD0000C4630616846B061F51D3535284612F057
:103BE000FBFAA88500042DD1F01D35300FF042FD01
:103BF00075692860F01D65307060F11D1531224631
:103C0000FFF76CFD6846B0606C46203CA546EB684B
:103C100082B0002000900190726808322025204672
:103C20002946FEF739F902B082B02120F1680091EF
:103C300001903069294622462B46FEF72DF902B045
:103C4000B06885460FF000FDF11D3531884203D183
:103C5000706900680FF00EFDF01D6530282111F02D
:103C600063FFF01D1530202111F05EFFF01D35308F
:103C7000808D002805D1B0698546FC1F053CA5460E
:103C8000F0BD03F0B4FDD4D4F0B5B5B01E460C467B
:103C9000054634926846079020AF384612F09CFAE9
:103CA000B885000443D1049620A80FF0E3FC2A90C5
:103CB0000120002300930193059002902CAF2C4A21
:103CC000384606942146FFF773FE4020019010AE5F
:103CD0000096294878440D2120243A4623460FF0C7
:103CE00079F90498314622462B460FF00FFA69689D
:103CF0002E46083630460FF017FB002834D16A688C
:103D00001E49794430460FF0F9FA00282CD510A846
:103D1000203008A90A46D8C8D8C2D8C8D8C2059841
:103D20000090019034AB2846069AFFF75FFD0FF034
:103D30008BFC20A9884202D12A980FF09BFC2CA86A
:103D40002024214611F0F0FE10A8402111F0ECFED5
:103D500008A8214611F0E8FE20A8808D002804D193
:103D60000798854635B0F0BD024803F040FDC046D7
:103D7000C902000001D10000AD3F01007A3E010000
:103D8000F0B503AF95B06E46F31D15337361F26065
:103D90007160B0610124204605F014F80546C01D8D
:103DA000072188436946081A85463061B460214678
:103DB00005F014F83060F41D1D34204612F00CFAA2
:103DC000A085000434681AD1F01D1D300FF052FC9C
:103DD00071690863706830620223F0680028184631
:103DE00000D1B068B1697269116082B00090F21DB3
:103DF0001532204606F058FF02B0002829D00FF0F7
:103E000023FCF11D1D31884203D17069006B0FF056
:103E100031FC204605F0AAF83069294611F084FEED
:103E2000F01D1D30808D002814D12021B46920465A
:103E3000FEF767FF002805D12021204600F010F88A
:103E4000002803D0FC1F053CA546F0BD024803F046
:103E5000CEFC024803F0CBFC05B1000001D100000C
:103E6000F0B503AF85B06E46202922D10125B060A0
:103E7000284604F0A7FFF060C21D07218A43694667
:103E800031616946881A70608546294604F0A6FFAC
:103E90000446B16805F0A8FD0546204605F066F821
:103EA0007068F16811F040FE681E854130698546F2
:103EB00000E000252846FC1F053CA546F0BDD4D4F3
:103EC000F0B503AFCFB06E46514CA4197462736164
:103ED000B261F16130624B4C204604F073FF05463D
:103EE000C01D072188436946081A8546B0622146ED
:103EF00004F074FFB060474CA419204612F06CF92E
:103F0000A0850004B46858D13561BD684148801966
:103F10000FF0B0FB716A0860F01D253020210EF013
:103F2000CFFFF560002D0FD0F11DC53121232046B4
:103F3000F26805F023F800285ED0F01DC53040215E
:103F4000FEF7DFFE002857D1FA68F11D85312123E5
:103F5000204605F013F800284ED0F01D8530402192
:103F6000FEF7CFFE002847D1254686B0F01D25304C
:103F70000590F01D85300490F01DC530F1680029D2
:103F8000F269B36900D10846002174690094019177
:103F9000029003900833F11D45312C4628460AF063
:103FA0001FFA06B000282AD0F21D45322046316A99
:103FB00005F0E2FB002822D035690FF045FB1549DA
:103FC0008919884203D1706A00680FF053FBF01D15
:103FD0002530202111F0A8FD204604F0C7FFB06A6B
:103FE000294611F0A1FD0B488019808D002807D1CA
:103FF000FC1F053CA546F0BD034803F0F8FB034851
:1040000003F0F5FB0102000005B1000001D1000042
:10401000340100000C01000010300F21884370476C
:10402000F0B503AF9DB06E46F41D4134F4613361C9
:10403000B0611546B26010350F2085436846441BB9
:10404000A546204611F060FD7461B16860182C46E9
:10405000691ACAB211F060FDF51D1935284612F033
:10406000BBF8A885000419D1B868F060F01D1930BC
:104070000FF000FBF1690860F51D49353069F16802
:104080002A460EF0E1FF82B0B0690090019445210C
:104090002846726923460EF0EDFF02B00FF0D4FA05
:1040A000F11D1931884203D1F06900680FF0E2FA7E
:1040B000F01D4930242111F037FDF01D1930808D9D
:1040C000002803D1FC1F053CA546F0BD03F08FFB83
:1040D00070B59CB00D4604466E46304612F07CF832
:1040E000B085000422D168460FF0C4FA0A906968CE
:1040F000284608300CAD40262A4633460EF028FFED
:104100002878F82101402970E87F7F210140E97774
:10411000E87F3043E877202628463146FEF705FE43
:1041200061202946324623460EF0F0FF0FF08CFA4C
:104130006946884202D10A980FF09CFA0CA84021E7
:1041400011F0F2FC6846808D002801D11CB070BDD2
:1041500003F04DFB10B514460B4A4B469A58012A02
:104160000AD0002A0CD1342C01D0382C08D1FEF70B
:1041700007FE2018423010BD202C01D1492010BD6F
:10418000024803F034FBC0466000000005B10000A7
:10419000F0B587B01F46044605930492304849465F
:1041A00008580E9D0D990C9B01280FD0002851D165
:1041B0001646382D039132D0342D38D102930F9BFF
:1041C00000203422039903F0D5F92DE01F4608465C
:1041D0000E46294600F048F800283DD004A80821E2
:1041E000FEF7A3FD0598207104992170020EE2717B
:1041F000020CA271000A6071080EE070080CA07039
:10420000080A6070204608302122394611F07CFCF3
:104210002934204631462A4611F076FC1AE0002067
:10422000382202930FF026FB029B002814D0212293
:1042300020461946FEF78EFD2046423003992A4655
:1042400011F062FC002000902819423032463B46B3
:10425000FEF7ADFD07B0F0BD024803F0C8FAC04656
:104260006000000005B10000F0B503AF91B06E46EC
:10427000F41D3534202911D1F060F51D0D35284687
:1042800011F0AAFFA88585B2002D09D0F01D0D30D0
:104290000021818520680FF0EDF929E0002029E058
:1042A0003561F01D0D30B0600FF0E4F92060684614
:1042B00070606D46483DAD4602202870681C202283
:1042C000F16811F021FC4120294602460EF060FF02
:1042D000706885460FF0B8F9B168884202D120684D
:1042E0000FF0C8F9F01D0D30808D0028356905D11B
:1042F00068426841FC1F053CA546F0BD03F077FA13
:10430000F0B503AFA1B06E461D4672614C4A4B46F4
:104310009B583C69FA68012B3061F26030D07460C0
:10432000002B00D088E0382D61D0342D00D083E000
:10433000B1607068492871697ED2BB68F01D313068
:10434000342203F017F9002876D0F41D113420250B
:104350003069B16822462B460EF0E4FD84B000952A
:10436000F068019070680290F01D313036490322E8
:1043700023460EF089FF04B0002857D1002456E0F0
:10438000B160402C58D170692946FFF76DFF0028B5
:1043900052D0684670606C46483CA54602202070AA
:1043A000601C71692A4611F0AFFB41252846214661
:1043B0002A460EF0EDFEF31D3133284621462A46EB
:1043C0001D460EF08DFE86B040200024B16800919D
:1043D00001940294F168039104900121052228467A
:1043E00033690EF00FFF06B071688D461CE07068EF
:1043F000402821D10D46F01D3130382271690FF06F
:1044000039FA002818D086B0402000240095019485
:104410000294F16803910490F01D313001210522CE
:1044200033690EF0EFFE06B0002800D001242046CC
:10443000FC1F053CA546F0BD024803F0D8F9C04674
:104440006000000005B1000001060000F0B503AFF8
:10445000A3B06E46F11D79313161706001242046B0
:1044600004F0B0FCB060C01D072188436946081AFB
:104470008546F0607461214604F0B0FC0446F51DE9
:104480005135284611F0A8FEA8850004254610D114
:10449000F01D51300FF0EEF831690860F11D113157
:1044A0002846726806F0E2FA411E8841F11D81310A
:1044B0000870B4680FF0C8F8F11D5131884203D17B
:1044C000306900680FF0D6F8284604F04FFDF06818
:1044D000214611F029FBF01D5130808D002808D1B4
:1044E000F01D8130007871690840FC1F053CA5462D
:1044F000F0BD03F07CF9F0B503AF97B06E460D4602
:10450000412901D0212D31D1B261012470602046B2
:1045100004F058FC7061C01D072188436946316171
:104520006946081A8546F0602146B46904F056FCD5
:10453000F11D1531B06072682B4604F01FFD411E5D
:1045400005468D41002C07D0002805D0F01D153000
:104550004021FEF7D6FB2070B06804F007FDF0683C
:10456000716911F0E1FA3069854600E000252846BE
:10457000FC1F053CA546F0BDF0B503AFA3B06E46E9
:10458000F11D11317161F0600125284604F01AFC1B
:10459000B060C01D072188436946081A854630610E
:1045A000294604F01BFC0546F41D5534204611F045
:1045B00013FEA0850004B0682C461FD1F01D5530B5
:1045C0000FF058F87569E866F11D15312123204672
:1045D000F26804F0D3FC00282BD04120286082B080
:1045E00002200090F21D1132F31D15332046F168B0
:1045F00004F0C2FD02B000281ED0B06805460FF0DE
:1046000023F8F11D5531884203D17069C06E0FF057
:1046100031F8204604F0AAFC3069294611F084FAEA
:10462000F01D5530808D002807D1FC1F053CA546A4
:10463000F0BD044803F0DBF8014803F0D8F8C046A9
:1046400001D1000005B10000F0B5A9B00D46044647
:104650006E46304611F0C0FDB08500041AD16846A0
:104660000FF008F80A901848784402681FAF4126F6
:10467000384629463346FFF707FB0CAD0123304689
:1046800029463A460EF058FD08350D9A304629461F
:104690000EF068FD0EF0D8FF6946884202D10A98F4
:1046A0000EF0E8FF1FA8282111F03EFA6846808D21
:1046B000002807D10CA909312022204611F024FA44
:1046C00029B0F0BD03F093F8483D0100B0B50446B1
:1046D00009202072184800252560606020460930B6
:1046E00016497944122211F00FFAA577432060771A
:1046F000572020774D20E07620462030104979441D
:10470000062211F001FA204650300E4979442CC996
:104710002CC00D48784401684068A162E0622046E0
:10472000303021462831E16520660849794420224D
:1047300011F0EAF9B0BDC04651020000AE350100EB
:10474000FC1B0100683601003836010028360100E4
:10475000F0B581B0164604460D1A681E054205D113
:10476000B047294611F08EF808460CE00020C043FF
:10477000294611F001F807464543B047A842FCD24C
:10478000394610F0F9FF001901B0F0BD80B503F013
:10479000D3FB80BDB0B50546072028400024012882
:1047A00015D0022815D10C48002908D04A46101807
:1047B0000EF008FF28060AD50EF06EFB07E049460A
:1047C00008184121890000220EF026FF04462046E9
:1047D000B0BD022003F00BF8B0060000F0B585B0C4
:1047E000DE4E4846805D0C2839DD0D2864D00E2849
:1047F00000D188E0152800D0D3E0D94849460818F0
:104800008079012806D1484680198079000701D4B3
:1048100000F027FDD34E4D460120A855AC190027C6
:10482000676020460EF028FE606002200EF038FF20
:104830006060CD4C29194968002900D15AE3CB4A60
:10484000904200D1ACE3002800D1A9E34D462A19DB
:1048500057608847A819FB49443141604EE3052859
:1048600079D00C2800D09CE0F3494F4601207854C1
:104870007C180025656020460EF0FEFD6060022079
:104880000EF00EFF6060ED4C39194968002900D127
:1048900039E2EB4A904201D100F06FFC002801D1CF
:1048A00000F06BFC4E46321955608847E2483018DC
:1048B000E4494431416031E2DF4E4D460120A855C4
:1048C000AC190027676020460EF0D6FD606002201C
:1048D0000EF0E6FE6060D94C29194968002900D124
:1048E00084E0D74A904201D100F047FC002801D172
:1048F00000F043FC4D462A1957608847A819D14952
:10490000443141607DE0CC494E4601207054751819
:1049100000276F6028460EF0AFFD686002200EF0A1
:10492000BFFE04466860C54D70194168002900D17A
:10493000BCE0C348844200D11AE1002C00D117E149
:104940004E467019476020468847BB483018BD491D
:1049500044314160AEE0B8494F46012078547C189C
:104960000025656020460EF087FD606002200EF095
:1049700097FE6060B14C39194968002900D165E1A2
:10498000AF4A904200D1F8E3002800D1F5E34E464B
:10499000321955608847A8483018AA494431416007
:1049A0005FE1A54E4D460120A855AC190027676070
:1049B00020460EF061FD606002200EF071FE606026
:1049C0009E4C29194968002900D1F9E19C4A90427E
:1049D00000D14CE2002800D149E24D462A19576027
:1049E0008847A819974944314160EDE194498842CC
:1049F00000D1C2E3002800D1BFE39349884200D030
:104A000020E348462546041903F08AF903F092F999
:104A10007A2004902752A06E002800D1ADE34846CA
:104A2000801940688649884200D1A6E3002800D159
:104A3000A3E32C46484640196C26805D002800D12F
:104A40009BE3804F0EF0D0FCB84204D10EF000FD85
:104A5000B84200D091E348460019825D049D415B55
:104A6000914200D3DFE20846382778434A461319BB
:104A70009A6E101868331B6A002B06D098470028DE
:104A80000AD049460A19515B926E012802D188B2B8
:104A90004743D01903F050FA48460019415B491CBE
:104AA0004153825D88B29042DED3BDE26548443016
:104AB00084425DD14846461903F032F903F03AF9D1
:104AC0007A2400203053B06E002800D155E34846C8
:104AD0005949401840685A49884200D14DE300289E
:104AE00000D14AE3484640196C26805D002800D179
:104AF00043E3544F0EF078FCB84204D10EF0A8FC0A
:104B0000B84200D039E348464019825D015B9142CA
:104B100000D388E20846382778434A4653199A6EEC
:104B2000101868331B6A002B06D0984700280AD05B
:104B300049464A19115B926E012802D188B2474357
:104B4000D01903F0F9F948464019015B491C01539B
:104B5000825D88B29042DED366E2C046C4000000A7
:104B6000B4070000F001000088020000445010B0BB
:104B70004846411994200958002913D00A46643A3E
:104B800000D23A464B465B191A5064290AD8902144
:104B90005958002906D04A4652199823D358135021
:104BA000002088472648844200D1E6E2002C00D14C
:104BB000E3E248464019806E002800D145E34846AC
:104BC00040196C24015D7A26805B884200D33CE367
:104BD0001C4F0EF009FCB84204D10EF039FCB8426B
:104BE00000D032E348464019025D815B914200D318
:104BF00026E30846382778434A4653199A6E101818
:104C000068331B6A002B06D0984700280AD0494613
:104C10004A19915B926E012802D188B24743D0199C
:104C200003F08AF948464019815B491C8153025DB3
:104C300088B29042DED304E3F00100008802000055
:104C4000445010B0115010B0555010B0F94988427E
:104C500000D192E2002800D18FE2F749884200D0CB
:104C600031E24846071903F05BF803F063F87A264F
:104C7000BD53B86E002800D17FE24846EF49401886
:104C80004068EC49884200D177E2002800D174E204
:104C9000484600196C25405D002800D16DE2E84FC0
:104CA0000EF0A2FBB84204D10EF0D2FBB84200D005
:104CB00063E248460019425D815B914200D3B2E154
:104CC0000846382778434A4613199A6E10186833F5
:104CD0001B6A002B06D0984700280AD049460A19BB
:104CE000915B926E012802D188B24743D01903F03C
:104CF00023F948460019815B491C8153425D88B203
:104D00009042DED390E1CB49884200D135E20028C1
:104D100000D132E2C849884200D037E2484607193C
:104D200002F0FEFF03F006F87A26BD53B86E0028A5
:104D300000D122E24846C14940184068BD49884236
:104D400000D11AE2002800D117E2484600196C256C
:104D5000405D002800D110E2B94F0EF045FBB8428B
:104D600004D10EF075FBB84200D006E248460019A7
:104D7000425D815B914200D355E108463827784374
:104D80004A4613199A6E101868331B6A002B06D016
:104D9000984700280AD049460A19915B926E01286B
:104DA00002D188B24743D01903F0C6F8484600192B
:104DB000815B491C8153425D88B29042DED333E16E
:104DC0009F494431884252D14846051902F0A8FF54
:104DD00002F0B0FF7A2004902F52A86E002800D174
:104DE000CBE14846801940689249884200D1C4E12D
:104DF000002800D1C1E1484600196C26805D0028DA
:104E000000D1BAE18E4F0EF0EFFAB84204D10EF0A5
:104E10001FFBB84200D0B0E148460019825D049DF6
:104E2000415B914200D3FEE00846382778434A466A
:104E300013199A6E101868331B6A002B06D0984716
:104E400000280AD049460A19515B926E012802D106
:104E500088B24743D01903F06FF848460019415B08
:104E6000491C4153825D88B29042DED3DCE0484663
:104E70000019806E002800D175E1484600196C25A4
:104E8000415D7A26805B884200D36CE1F84F0EF0DA
:104E9000ABFAB84204D10EF0DBFAB84200D062E1BE
:104EA00048460019425D815B914200D356E10846B5
:104EB000382778434A4613199A6E101868331B6ACC
:104EC000002B06D0984700280AD049460A19915B62
:104ED000926E012802D188B24743D01903F02CF812
:104EE00048460019815B491C8153425D88B290425B
:104EF000DED334E1DE494431884251D148460519B8
:104F000002F00EFF02F016FF7A2004902F52A86ED6
:104F1000002800D131E1484680194068D3498842D1
:104F200000D12AE1002800D127E1484600196C266B
:104F3000805D002800D120E1CD4F0EF055FAB84237
:104F400004D10EF085FAB84200D016E148460019A7
:104F5000825D049D415B914265D2084638277843C3
:104F60004A4613199A6E101868331B6A002B06D034
:104F7000984700280AD049460A19515B926E0128C9
:104F800002D188B24743D01902F0D6FF4846001933
:104F9000415B491C4153825D88B29042DED343E0BD
:104FA00048460019806E002800D1DCE04846001910
:104FB0006C25415D7A26805B884200D3D3E0AC4FFC
:104FC0000EF012FAB84204D10EF042FAB84200D004
:104FD000C9E048460019425D815B914200D3BDE0C3
:104FE0000846382778434A4613199A6E10186833D2
:104FF0001B6A002B06D0984700280AD049460A1998
:10500000915B926E012802D188B24743D01902F019
:1050100093FF48460019815B491C8153425D88B269
:105020009042DED39BE00846904200D0A5E00EF00F
:1050300079FAA2E0445010B0555010B0F0010000D1
:10504000115010B048460019806E002800D18AE047
:10505000484600196C25415D7A26805B884200D362
:1050600081E0834F0EF0C0F9B84203D10EF0F0F9A1
:10507000B84278D148460019425D815B91426DD2B9
:105080000846382778434A4613199A6E1018683331
:105090001B6A002B06D0984700280AD049460A19F7
:1050A000915B926E012802D188B24743D01902F079
:1050B00043FF48460019815B491C8153425D88B219
:1050C0009042DED34BE0484600198C21405800281E
:1050D00005D049468919C978490802F055FF484664
:1050E0000019806E00283ED0484600196C25415DAD
:1050F0007A26805B884236D25D4F0EF075F9B84251
:1051000003D10EF0A5F9B8422DD148460019425DF1
:10511000815B914222D20846382778434A461319C8
:105120009A6E101868331B6A002B06D09847002827
:105130000AD049460A19915B926E012802D188B2C1
:105140004743D01902F0F8FE48460019815B491C1C
:105150008153425D88B29042DED300E0084690421F
:1051600001D10EF0DFF9484600196C21415C7A222A
:10517000805A884201D30EF03BFA0EF039FA00282B
:1051800001D102F013FC012005B0F0BD4A463648BB
:1051900014186C25605D0490A06E03909219D37969
:1051A000967951791079D278274668373F6A00920C
:1051B00001970002401882B23002C01883B20398EF
:1051C000049902F02FFEA06E274C002845D04846D7
:1051D0000019415D7A26805B88423ED2244F0EF052
:1051E00003F9B84203D10EF033F9B84235D148463D
:1051F0000019425D815B91422AD2084638277843E4
:105200004A4613199A6E101868331B6A002B06D091
:10521000984700280AD049460A19915B926E0128E6
:1052200002D188B24743D01902F086FE48460019E1
:10523000815B491C8153425D88B29042DED308E015
:105240000846904201D10EF06DF9484640198CE7AE
:105250000846904201D10EF065F948460019415DBB
:1052600085E7102002F0C3FA88020000445010B015
:10527000115010B0D0B502AF90B06E46F31D31336F
:10528000414A49468958012902D1414802F0AFFA02
:105290003E4A49468A189178012959D8D17800297F
:1052A00056D115793C4979440968A94250D1394A07
:1052B000494689184A78FE21114002294CD1B36031
:1052C000F060E81D072188436946081A706085462A
:1052D000F41D0934204610F07FFFA085000418D18A
:1052E000F01D09300EF0C6F9B1680860494631601A
:1052F00028480818183074682146FDF737FB234802
:1053000031680818401D21462A4602F076FA002826
:105310001ED174680EF098F9F11D0931884203D14D
:10532000B06800680EF0A6F92046294610F0FCFB94
:10533000F01D0930808D0028F4680FD120881021DD
:10534000FDF7B4FC00280BD06720000202F04FFAF2
:105350000F48001D02F04BFAD120000202F047FA7C
:1053600049460A480818228880180A4A8918891C60
:10537000102210F0C9FB20881030208002F056F86F
:105380000920000302F033FA60000000B0060000BC
:1053900001B10000100600008A270100D0B502AF5D
:1053A00090B06E46F31D31333D4A49468A189178D4
:1053B000012959D8D178002956D115793B4979442A
:1053C0000968A94250D1384A494689184A78FE21CD
:1053D000114002294BD1B360F060E81D07218843DA
:1053E0006946081A70608546F41D0934204610F09D
:1053F000F3FEA085000418D1F01D09300EF03AF933
:10540000B168086049463160274808181830746848
:105410002146FDF7ABFA224831680818401D2146A5
:105420002A4602F0EAF900281ED174680EF00CF941
:10543000F11D0931884203D1B06800680EF01AF9F5
:105440002046294610F070FBF01D0930808D0028A1
:105450000FD1F46820881021FDF728FC00280AD01D
:105460006720000202F0C3F90E4802F0C0F9D12013
:10547000000202F0BCF94946094808182288801841
:10548000094A8918891C102210F03EFB2088103030
:1054900020800DF0B7F80920000302F0A8F9C046FB
:1054A000B006000005B100004008000072260100AF
:1054B000D0B502AF82B06E46044626484946085829
:1054C000012802D1264802F092F9234D484640199E
:1054D0008078012824D8484640190179C0780843CB
:1054E0001ED11E484946095CFE220A40022A1BD1F1
:1054F0001C49794409687160C91D072291436A46B5
:10550000511A4A46101818308D463160FDF72EFAB0
:1055100020887168FDF7CAFB002809D0672004E0E5
:105520000F48001D02F063F9D120000202F05FF97C
:10553000484640192188401822CE2A46083E10F0DD
:10554000E3FA20884019208001F070FF0920000351
:1055500002F04DF960000000B006000010060000E7
:1055600001B100003E250100D0B502AF82B06E4609
:105570000446224D484640198078012824D84846E0
:1055800040190179C07808431ED11D484946095C7D
:10559000FE220A40022A1AD11B4979440968716027
:1055A000C91D072291436A46511A4A4610181830FD
:1055B0008D463160FDF7DAF920887168FDF776FBDA
:1055C000002808D0672003E00E4802F010F9D1202F
:1055D000000202F00CF9484640192188401822CEFA
:1055E0002A46083E10F090FA2088401920800DF0DD
:1055F00009F80920000302F0FAF8C046B0060000DE
:105600004008000005B1000096240100F0B503AF8A
:105610008BB06E46F060C94A484680188278726145
:10562000012A00D986E10579CB4A7A441368CB4A2E
:105630007A44146862007362D2183262521CF561B7
:10564000AA4200D976E1C578BD4A4846805801286B
:10565000B16104D0002805D1022D03D36AE1002DE9
:1056600000D067E135614846B4494018716A401876
:10567000451D28462146FDF744FB00280ED1F21DAA
:10568000213228462146FEF736FF002800D151E19D
:10569000F01D21300078002800D04BE1706A2018FE
:1056A0004946A64D49190818401D0022214672623C
:1056B000FEF721FF002800D13CE148464019316A3D
:1056C00040184079022805D3801E012800D931E115
:1056D000092000E001209C4D4946495D002900D188
:1056E0001EE1494649190C4618341CCC496A194335
:1056F00014430C4300D013E1494649198A68C9682C
:105700001143326A8018002900D10DE1F169884205
:1057100000D90FE106D18D4849460818412110F003
:1057200003FA91E08E49794409680C18611CF2690A
:10573000914200D9FEE04946804A89180818401D68
:105740003062FEF783FE002800D1F3E049467C4832
:105750000858F269121B794BC9180919491D01280B
:10576000F261F16013D0002815D13069002800D112
:10577000CBE001280FD148464119684638388546A4
:1057800049683060726901F0A1FF342203E030699A
:10579000002800D1AEE048464419A068E1681546EB
:1057A000FEF7D8FC3061C21D07218A43694671604B
:1057B0006946891A8D46B160A268E36884B0306A90
:1057C0000090306801900295756903950846FEF7D0
:1057D000DFFC04B0A36C84B00095F0680190F06920
:1057E00002904C34B06831692246FEF789FD04B05E
:1057F000002800D19EE0484651494058012812D067
:105800000028514D1ED151484D462C1841212046AB
:1058100010F08AF94C4829184B4D8A6C4C312046BF
:1058200010F072F90EE049484D462C1841212046EF
:1058300010F07AF94448291805468A6C4C31204604
:10584000FDF788FA70688546484640194078002878
:1058500066D03F484D462C182121F161204610F0BA
:1058600063F9F5603848281870618268C368344865
:1058700028183062007A82B000902046FDF797FA2F
:1058800002B0204610F0F2FC202131612154201892
:10589000716A4170356A1B352046294610F0B6FC06
:1058A0002C48F1680C182046F16910F03DF9706938
:1058B00002694369306A007A82B000902046FDF7A1
:1058C00076FA02B0204610F0D1FC3169215420183C
:1058D000716A41702046294610F098FC042001F0BE
:1058E00049FDB2691078102101431170FC1F053C7D
:1058F000A546F0BD484641196846203885464968A6
:105900003060FEF7A1FE202245E74846411968466F
:1059100038388546496830600EF071F838223AE729
:10592000D120000201F063FFF169884202D1F068E2
:1059300000F018F8034801F05AFFC046B006000016
:105940006000000005B10000E0080000AE050000A6
:105950006C0500008D0500000638010020250100BF
:1059600026240100D0B502AFAEB06E46F11D8131E4
:10597000B165B44979440A68B34979440B68326522
:105980009C18AE4A494689184A1D7365E118515C56
:105990000129F065F464B2640BDC00294DD00129C3
:1059A00000D0C6E0684608388546012303700246E9
:1059B000BFE002296AD0032900D0BAE06C46B46186
:1059C000183CA546032020709D484946F1620D18F9
:1059D0002846103008217163FDF7A7F92869696925
:1059E000617160700A0EB5692B46103B1A700A0C83
:1059F000E271090A2A46123A1170010E2A46143A37
:105A00001170010CE170000A2946163908708B48A4
:105A1000F16A0818716D4900326D51180D18A81DF2
:105A2000F060716BFDF781F9F068416861730620E1
:105A3000285860720A0EB56966E06C463461103C05
:105A4000A546002020707E4849460D182846103093
:105A50000821FDF76AF928696969617160700A0EA9
:105A600035692B46083B1A700A0CE271090A2A466E
:105A70000A3A1170010E2A460C3A1170010CE170BD
:105A8000000A29460E390870092351E06C467461FA
:105A9000183CA5460220207069484946B1620D189D
:105AA0002846103008213163FDF73FF928696969FC
:105AB000617160700A0E75692B46103B1A700A0CF2
:105AC000E271090A2A46123A1170010E2A46143A66
:105AD0001170010CE170000A294616390870574808
