:02000004C0DE5C
:1000000070B58CB062B6002808D02D494A46531806
:1000100001686C22184611F009FC04E028484946A2
:10002000081804F085FD274E0EF028FC484680197C
:100030004F218A000024214607F0ABFE07F08EFE18
:100040006D46284611F05AFFA88580B2102805D1C8
:10005000684684850A980FF003F9E5E7002809D07F
:10006000684684850A980FF0FBF802F00DFD2046E3
:100070000CB070BD68460FF0F3F80A9008F0E2F893
:1000800005200024214622460FF024F80E494A4656
:1000900051184862204610F06DF90125284610F0ED
:1000A00069F9204607F0AAFC2046214600F0CEFF61
:1000B00006497944284600F0C9FF07F095FAC04682
:1000C0006000000090020000BC070000F821010061
:1000D000F0B593B011931291044600787F27074042
:1000E000052F01D113B0F0BD1546208B00F0E6FAC4
:1000F00000280D9565D00B9743798279129F002FC8
:1001000058D0002D56D009930A92208BE188119A7D
:100110000092EBB2643189B23A4600F0F3FA064637
:10012000E0880021052D0C9153D3864251D9208BB4
:10013000119900916421934A7A44032300F0E2FA72
:100140000E906B08FA18E088002108911092B91AF5
:100150004D190F95002B3FD081B28E423CD9002D16
:100160003AD0208B119D00951F46DBB2129A00F009
:10017000C9FA0646E188208B00950F9DEBB2109AD4
:1001800000F0C0FA3B460E9971180E18E0888642BE
:10019000E0D90899012903D0002904D15B1E02E0AF
:1001A0001099491C10910D9D129F0121089A9143AD
:1001B000109ACAE700210E910E460C910F910B9FE9
:1001C0003DE000210E910E460B460A460C910F9120
:1001D00035E010910E9500E00E9303239D03218BD3
:1001E0000D400122D703BD420AD09703BD420C9DAA
:1001F0000F950D9D0B9F0AD180B2801B0F9006E0DA
:10020000750880B24008401B0F900D9D0B9F18038E
:1002100001405003814206D0100381420CD1208955
:100220000A9A801A05E00A9A5008C04321894908B1
:1002300008180C90109901E010990A9A099B012F57
:1002400065D0022F09D0072F07D0042F5BD0062FCF
:1002500000D1A3E1032F5AD044E7207B01282DD100
:100260001091072F0A923D4600D0002207920420E9
:100270000890205E821A0227E15F6069072D0993CA
:100280000B9500D0238900930F9D2B460EF07EFF27
:10029000A819E15F4118E288131A0898205E079AAE
:1002A000821A60690B9F072F01D025890995099D46
:1002B00000950EF06BFF0D9D10990A9A1298002878
:1002C00000D10FE7002D00D10CE70A921091022017
:1002D000225E04200B90205E0890206961690991DC
:1002E000218B0791E388214626893D46129F03977B
:1002F0000E9C0494119F05972F46072D069200D15E
:1003000064E10C9F63E1E07A002800D1C2E1E38858
:100310005A08218948088242154600D30546E67AE4
:10032000B54203D88242164600D30646207B0128F8
:100330002AD104201090225E02200E90255E2069B2
:10034000009171197700DB1BD94D7D44A8470B95AF
:100350000E98215E1098225E2089C31B20690093AD
:10036000B2183346A8470E98215E1098225E208965
:10037000C31B2069E5880093B218891B49193346CD
:100380000B9D6BE05B21010004201090225E022097
:100390000A90255E60690091711975000B955B1BD1
:1003A000C24D7D440E95A8470A9FE15F1098225EDA
:1003B00020890B9BC31A60690093B21833460E9DC7
:1003C000A847E15F1098225E20890B9FC31B6569D7
:1003D000E0880093B218F343C91809182846334639
:1003E0000E9DA847109D605F09900A98215E2269C2
:1003F000E388A07A00907118DB1B1046099A0E9FC3
:10040000B847605F09900A9D615F20690890228962
:10041000E388A07A009071180B981B1A099880182D
:10042000421E0898B847605F09901098225E2089A4
:100430000B9D411BA37A20690091B2180999B84716
:100440000A98215E1098225E2089451BA37A2069B4
:10045000E7880095B218C919491E0E9DA847022EBB
:100460000D98129965D3207B012802D0A07A301A0A
:1004700000D2002010900420255E07460A9002203A
:100480000B90215E20696369C0220092109A01924C
:10049000029371187219874D7D440E953346A84713
:1004A000E75F0B9D605F0890206909906369E188B0
:1004B000A07A30220092109A019202933018089A82
:1004C0005118091AF219099833460E9FB847675F09
:1004D0000A9D605F08902069099063692189A07A6C
:1004E0000C220092109A019202933018089A511827
:1004F0000A1AF119099833460E9FB847605F0A90AF
:100500000B98215E20690B9063692589E788A07AA2
:1005100003220092109A019202933018C919091A05
:100520000A9A101A42190B9833460E9DA8470D9847
:100530001299002900D1D5E5002800D1D2E5237B0E
:1005400010211420012B0A4600D00246012B00D0B6
:100550000846A158109120580E900220215E0420D8
:10056000255E208BE6882789A37A129C03940D9C34
:100570000494119C05940124E443002B00D05C43B7
:100580000C9ABB1A1B190F9FF61B341955190095AD
:10059000019402937B180E99109A78E00420205E53
:1005A000E37AC2180220205E19182069267B0025F4
:1005B000012E03D0A67AB34200D99D1B6469FF26A1
:1005C00000960195029400F02FFA8BE500270C4667
:1005D0000146089A0E97F61B0F9FDB1B01930296AC
:1005E000072D01D00C9B01E00A9B5B42099D0798F7
:1005F000069E0C939B1800930F9B9B192A4600F0B4
:10060000D1F802461098002800D16BE52A487844BA
:1006100008900B98265E2069099060690A90218BEA
:10062000E588278903200E9BFF1A0F9BED1A0C9B70
:100630009E19009601950297089B03930490119EC2
:10064000059693B2084609990A9A00F0ABF80A9009
:100650000B98235E20690B9060690990228BE588D6
:100660002489129F0D98C71910983F1A0E99641A81
:100670000F996D1A0C99CB18009301950294039071
:10068000049705960A9883B210460B99099A00F0D0
:1006900089F827E50420225E0220215EE388206994
:1006A000248900940EF072FD1CE5C046E7ED0000C1
:1006B0003FEE00008D050000851C0100F8B50E4DD1
:1006C00005400E487844016888000D4A7A44801835
:1006D000001F4E1C761E0CD0071F0468204608F031
:1006E000A7FB0068A8423846F4D1204608F0A0FBDA
:1006F000F8BD0020F8BDC046FF0F00001430010017
:1007000000300100FEB51C4615460191FFF7D6FFEB
:100710000022002843D0019B029021063FD0068989
:100720002F78B74202D34189B94213D20A2F36D06B
:100730000D2F34D0B809032803D33F2007403E468D
:1007400022E078B2002600281ED5B80600920BD50C
:100750000F200AE0B91B8E00C068174608F068FB3E
:10076000019B3A46865D0FE00E20FFF7A7FF0028A9
:10077000009A019B08D0C068164608F059FB019BFF
:100780003246F906490E465C002B03D090B2301871
:10079000984204D8641E6D1C92190298BDE790B26D
:1007A000FEBD0000F0B5A3B00D931091149111920D
:1007B0001392FFF783FF002800D12DE101462A980C
:1007C00008902998099028980E900A910C79002099
:1007D0000C90C0430B90022C49D313AD281D3C2133
:1007E0000F9011F01DF8119813900B98A040C6437C
:1007F000B000109929500020032838D01290C5006D
:100800001098E840C7B21198E840C4B2A7423846F1
:1008100000D32046A742394600D82146081A401C7A
:10082000314610F039FD0121A7420ED90F9AB1428D
:100830001AD203464B431B19FF2B00D3FF23AB40B7
:1008400017681F4380C2491CF1E70F9AB1420BD2CF
:10085000731A4343DB19FF2B00D3FF23AB4014680B
:100860001C4310C2491CF1E71298401CC4E72C9F9E
:100870002B9C0E9808990A180D98099909180F9140
:100880000C9E03460120C71B012F00D1BFE0257835
:100890000D2E05D10A2D03D17F1C641C0A26F3E717
:1008A00009900B9847430A9E308971791291641C14
:1008B00085425C497944089102D37189A9420DD2DD
:1008C0000D2D01D00A2D24D10E98129940180E90AA
:1008D000401890422E460D98D3DD98E00792281AD2
:1008E0000C9030691093089DA8470690F068A847BF
:1008F0000C998900059140184088069908180690BF
:10090000F068A847109B0599455CF07908900C9E0B
:1009100010E0C02D079205D33F21294000202E462C
:100920000D4605E068B200283CD400202E4605465E
:10093000089006900E9A58190F99884209D90E9975
:10094000129809180818079A904268DC0D9B0A460D
:1009500000E00E990E9106980028109315D00C9285
:100960000246129868430A99097948430490039211
:10097000029113A8019009988840009018460C999C
:100980002A46129B0EF0E0FB06E0129800901198A8
:1009900019462B460EF0FAFB0898281810994018B3
:1009A000079A6EE7A806109301D50F2000E00E20ED
:1009B000FFF784FE002822D00C900069089EB04703
:1009C00012900C98C068B0473246E906490E05916E
:1009D000401840881299081806900C9EF0689047BD
:1009E0000599435C0A9880790E990818B179421AE2
:1009F00070791290002008902E461D4605E00020D8
:100A00002E460546089006900E9A109B93E798B2E2
:100A10000E990904081800E0002023B0F0BD98B238
:100A2000F7E7C04679850000F0B59BB019921891A0
:100A300007462198411E02468A4116921A1A012140
:100A400000261492002A0A4600DC3246169C144006
:100A500016948022209C22400C92402222400F9229
:100A6000202222400B92102222400E920822224085
:100A70000A92042222400D920222224009920C4046
:100A80001094CD1A149A891A0591C01A401C03902B
:100A9000501E07901898801A401C06901998401E06
:100AA000049003202299119131461393089799429B
:100AB00000DD85E11C4612901098002815961795C8
:100AC0001A9106D10998002852D0169800281ED1F4
:100AD00044E01698002835D001260096199845184C
:100AE0000798231A1198189F39462A460EF04EFB94
:100AF0000096159EE21908980599511807462A464E
:100B0000179D149B0EF042FB0998002830D01998CD
:100B100025181398A04209D00120009003981A9933
:100B20004318119818992A460EF030FB01200090C6
:100B300006981A99411838462A46149B0EF026FB4F
:100B4000179D15E001200090049842183846189926
:100B500023460EF01BFB0998002809D001200090C5
:100B600019982018421E384618991A9B0EF00EFB51
:100B70000D98002806D10A98002858D01698002809
:100B80001ED131E01898061B169800281ED00127A8
:100B9000009719981A9942180292079D631B1198A1
:100BA00031460EF0F3FA00970898711B0746029A37
:100BB000179D149B0EF0EAFA0A980028159E36D06D
:100BC0001398A0421CD11998251826E00120009006
:100BD00004981A9942183846314623460EF0D6FA40
:100BE0000A980028159E22D001200090189881199B
:100BF00019982018421E38461A9B0EF0C7FA16E0C4
:100C000001200090189881191998251803981A9AAC
:100C1000831811982A460EF0B9FA01200090069820
:100C2000811938462A46149B0EF0B0FA179D0E988B
:100C3000002806D10B98002851D0169800281ED104
:100C400044E0199886191698002833D0012500959C
:100C50000798231A1198189F394632460EF096FAD3
:100C60000095179DE21908980599511807463246D4
:100C7000149B0EF08BFA0B980028159E2FD0199814
:100C8000051B1398A04209D00120009003981A99DF
:100C90004318119818992A460EF078FA012000900E
:100CA00006981A99411838462A46149B0EF06EFA97
:100CB000179D14E0012000903846189932462346CB
:100CC0000EF064FA0B980028159E08D001200090C1
:100CD0001998021B384618991A9B0EF057FA0F986C
:100CE000002806D10C98002857D0169800281FD14C
:100CF00031E0199886191898051B169800281DD000
:100D0000012002900090079FE31B1198294632466C
:100D10000EF03CFA029800900898E91B074632460C
:100D2000149B0EF033FA0C980028159E179D34D0B2
:100D30001398A0421AD11998051B24E001200090B5
:100D400038462946324623460EF020FA0C980028F1
:100D5000159E179D21D0012000901898811919988F
:100D6000021B38461A9B0EF011FA16E00120009083
:100D7000189881191998051B03981A9A83181198C5
:100D80002A460EF003FA0120009006988119384691
:100D90002A46149B0EF0FAF9179D601E012D23467A
:100DA00000DB0346012D00DA00204000281A1299CA
:100DB0000D180846881C761E1A99491C139476E66D
:100DC0001BB0F0BDF0B589B08E68022E20D80C465D
:100DD0000421415E08910221405E05902068069042
:100DE00060680790E06808F023F80546A768206966
:100DF00008F01EF80ECC0124B4404B43534300A925
:100E0000B0C103900493089905AB0DCB0EF09CF98B
:100E100009B0F0BD7FB500200390029002AD082418
:100E2000284621460EF040F9A878029941400398DF
:100E30004840A97941402970E8786A784240687949
:100E40005040EA7942406A70D0B20090054D4E465B
:100E50007019401CCBB21721034A7A4407F0EAFD0F
:100E600074557FBD00000000C3140100F0B58FB0C1
:100E700007AD28461830072110F0D2FC0620687014
:100E800011202870A81C24497944102210F0CEFCAF
:100E90000024EC751820A8756C750C20287512209C
:100EA000E8740520A8741A4849460818C588868839
:100EB00018480F18384611F06BF80097C3B2304647
:100EC0002946224601F0A8F9012500281CD1114E1F
:100ED000182007A901F070FA002815D14846851995
:100EE000284611F055F8C0B2009401900295039481
:100EF000049405940694302160222046234600F095
:100F00005DFF0546401E854128460FB0F0BDC04636
:100F1000180000000000000054280100F0B589B05E
:100F2000444F4846C019002181841421017301F007
:100F300025FA002872D1FFF76DFF002006213F4AF5
:100F40007A4401F0C9F9002868D101F093F800282B
:100F500064D14846C01901460831821D00920191B2
:100F6000031D012000241822214600F0F3FF002871
:100F700054D10125284600F06FFF00284ED104947B
:100F80002D480390029510260196082008900090A5
:100F9000284629462A462B4600F080FF00283DD1EE
:100FA0004846C0190E300090022025497944012599
:100FB00009232A4601F07CF800282FD14846C119A0
:100FC000C88910310A2200961646019402940392B1
:100FD0000495059102211B4A7A449923079101F057
:100FE000B7F800281AD14846C119C8891231089AA1
:100FF00000920192079A0292039604950591124D70
:101000007D44992311462A4601F0A2F8002805D113
:101010000120072101F08EF9002802D0012009B03B
:10102000F0BD4846C019C462FFF720FF411E884149
:10103000F5E7C0461800000040E20100CC2701009F
:101040003027010014270100FC260100F8B50446F2
:10105000174D4F467819482110F0E2FB00F02EF8AA
:101060001448442139543818002C01D1214600E09D
:101070000321C170012181700026467004210EF009
:101080009FF87C51002C05D00B4849460818406A4F
:10109000002802D04846465105E00020014606F0EF
:1010A00081F9FFF73BFF044849460818C683F8BD9D
:1010B00018000000CC000000BC070000B0B50848D4
:1010C000494624220A54074A8A18002353600C1800
:1010D0006568636020460DF0D3FF6560B0BDC04613
:1010E000F80100009002000010B504464068083086
:1010F00000F004F8411E8841207010BDFEB5044682
:101100004078E61C01253E2806D0FF2812D005288D
:10111000284600D190E0FEBDE078012808D1B078E3
:10112000F17809020A18002000F09AF8FFF7C6FFCC
:101130002846FEBD30787178090208184049884277
:1011400011D0404988421AD03F4988421AD03F49BD
:1011500088421BD03E49884230D03E49884234D034
:101160003D498842D4E7E079401E0128DED83B485B
:10117000494608184089052100F032FFD6E700F003
:1011800081FAD5E7706800F0BDFAD1E7307971795E
:1011900009020918314A48468018008A801C884292
:1011A000C6D1607B0128C3D1A07B00282846B2D1DC
:1011B00048468218012010769182FEBD2748494694
:1011C00008183179C91E0173B2E7307971790902C3
:1011D0000918224F4846C019408A401C8842A7D1AE
:1011E0004846C01900228263007E002808D0607A39
:1011F00021460A3100F082F8307971790902091824
:10120000B078F278637A0A340093019412021018CD
:101210000022134601F030F8002800D07BE7484652
:10122000C019826B002A83D04846C119088A3C3114
:10123000D2B200F03FF87BE7FFF740FF00F02AF85A
:10124000010400000204000009040000010C000079
:10125000030C0000130C000005040000180000003F
:101260007CB5104609494D466E18142131737281C0
:101270007D21890000910C2118220024234601F0D1
:10128000C3F8347602482818C4837CBD18000000D7
:10129000BC07000005484946081800220276044BA6
:1012A000C918CA834281102006F08EFD1800000084
:1012B000BC070000F8B514460D4606460D494846E1
:1012C00040187D210901C18348460B494018C08957
:1012D0000095002731463A46234600F09DFF4328FB
:1012E000F2D04528F0D06428EED048460149401895
:1012F000C783F8BDBC07000018000000F8B502461F
:10130000774D4846431900209863002A06D04B4683
:101310005B1925241B5D002B17D0F8BD67234946B8
:1013200049193C220E248C5405228A633C314880A2
:101330004B700871484641190022CA628A84694B81
:10134000C01808624A838A83F8BD0B78002B23D02B
:10135000012B37D0022B48D0082B59D0052BDED1DA
:101360004B465B1924241B5D002BD6D1032A034670
:10137000D5D34B465B199C8B230A4E789E4203467D
:10138000CDD1E3B28E789E420346C8D1002C5AD00C
:10139000042A5CD20723C2E70323052ABFD34A7875
:1013A000002ABCD189780029B9D148464019442186
:1013B000002242540264402104234354C2630921A1
:1013C0008163B7E70523032AA9D34C78002CA6D163
:1013D0008C78002CA3D148464019092A00D3092251
:1013E00082633C3010F026FAA4E70423032A96D344
:1013F0004C78002C93D18C78002C90D14846401921
:10140000092A00D3092282633C3010F013FAF8BD98
:101410000623052A83D34A78002A00D07FE78978FB
:10142000002900D07BE7484640190021C1633C21D8
:10143000082242540621816301463C3101220A718F
:10144000007B4871F8BD052A2BD2082367E7D21E1E
:1014500048464019468B93B2B34200D81646006AFC
:10146000C91C214A4F46BA187D231B01D383B4B24D
:10147000224610F0DFF97819016A09190162418BDF
:10148000891B4183828B521C8283080400D044E76D
:101490004846154941180022CA834019C06A48804D
:1014A000F8BD4B465C190F4E9B190E79CF7823621D
:1014B0003B029E196683B7B2E7620123052A00D179
:1014C0002DE74124A400A74200D928E7501F82B28B
:1014D000BA4200D806464846024A8018491DC0E76D
:1014E00018000000B8060000BC070000F0B503AF0C
:1014F0008DB06E46B1624D494A4655182A7BD21DC1
:1015000007239A436B469B1A9D462422AD5C002D0F
:1015100001D0012086E04C461D461346621849461C
:10152000012473613461D454106200209083B36A43
:1015300053833F4A89184880691D71607562E91CB0
:10154000B160F0601A4611045BD00520736AF06246
:1015500018704846354C0019858B9D70290A5970C2
:10156000017B90B2002DB262356214D04A46121946
:10157000CB1E834200DB0346156A33639CB2B0681E
:101580002946224610F056F92819F0610321F1622C
:10159000716A264C14E01A71120ADA704A4612195E
:1015A000491F814200DB0146156A31638AB2F2614C
:1015B0007068294610F03EF9F0692818F061716AE8
:1015C0004A46131925203269B0611A54306A421C08
:1015D0009A83B26A356B521B5A83F069186270693C
:1015E000185C002818D048460519288AF26A336B1F
:1015F000D218D2B2FFF75EFEF068B16968546A8B08
:10160000A1E74A460A4C1055084951187369C85455
:1016100088831119488005E048460019F168B269CD
:1016200081540220FC1F053CA546F0BD18000000B7
:10163000BC070000E0B56A46064B1846114601DFBC
:1016400005480099814201D101988CBD042006F023
:10165000BBFBC046EC890060D489009080B50020B7
:101660000549074A7A4403F0ADFA04494A4651183D
:1016700006220A63486380BD40420F001800000044
:10168000CDFFFFFF70B50F4E4D46AC19FFF7E6FFDB
:1016900003460620E0600020207220461030102112
:1016A0000A4A7A4407F0C6F92320A855182060603A
:1016B0000548281806497944416020460DF0E0FCB1
:1016C00070BDC046F8010000900200004E09010004
:1016D0001B00000010B50446FFF7F0FC07488442E9
:1016E00007D1074849460818416B408900F00CFCB7
:1016F00010BD0120FFF7AAFC10BDC046115010B06C
:101700001800000070B503460F484D462818062102
:10171000016343630D4EAC19E16001202072204645
:10172000103010210B4A7A4407F084F92320A85581
:10173000182060600648281807497944416020460F
:101740000DF09EFC70BDC04618000000F8010000BE
:1017500090020000CA0801001F00000010B50446F6
:10176000FFF7ACFC0748844207D1074849460818F0
:101770004089012100F05AFC10BD0120FFF766FCF2
:1017800010BDC046115010B01800000070B50446DE
:10179000C000052631460FF07FFD05462046314644
:1017A0000FF000FE002900D06D1C204600F002F86A
:1017B000281870BD80B505210FF0F4FD012907D070
:1017C000042907D0032907D0022907D1042080BDAE
:1017D000062080BD012080BD032080BD002080BD8B
:1017E000FEB514460E4602901046FFF7E3FF05468D
:1017F00001942046FFF7CAFF0095411B00221346C3
:10180000994237D0D408651C019FBD4201D2755D55
:1018100000E00025375D07241C40072C16D0012C62
:1018200017D0022C1AD0032C08D0042C09D0052C78
:101830000AD0062C15D16C09BD070CE02C09FD0758
:1018400009E0EC093D0706E07C0608E01F2427407C
:1018500008E0AC097D07ED0E671903E0BC06E70E52
:1018600000E0FF08094C7C44E45D029DEC54521DED
:101870005B1CC5E70299081800994942002903D06A
:101880003D224254491CF9E7FEBDC046AD1E010091
:10189000F8B50E4605463D2132460FF0E1FF0746FA
:1018A000AC190020C2433846002807D0844205D036
:1018B000411C00783D280846F6D023E00092002F16
:1018C00000D07E1B05207043C6083046FFF772FF2C
:1018D000002F00D0E71B009AB84213D10A4F7F4473
:1018E0003446002C0DD0287801F00DF90146202255
:1018F00038460FF0B5FF6D1C641E0028F1D1009A28
:1019000000E032461046F8BD351E0100F0B589B042
:1019100014460546069108461146FFF7B9FF0746EB
:101920000022089205260792104631460FF0B4FCBB
:10193000002F71D0049705954643052108980FF0B4
:10194000ABFC254604460698005D01F0DCF8014634
:10195000324F7F44202238460FF082FF0390601CF4
:101960000021A8420B460BD201910699085C01F0B8
:10197000CAF80146202238460FF072FF0199C31BB6
:10198000079A961BA01CA8422C460CD20699085C0C
:101990001D4601F0B8F80146202238460FF060FFDE
:1019A0002B46079AC11B0398C01B042E059D0DD022
:1019B000012E049F10D0022E17D0032E1AD0002E15
:1019C000029920D1C000D906490F11E01F210B4018
:1019D00040011918049F16E08007000E0E46D90634
:1019E000890E0818F106C90F0CE00001D906090F8D
:1019F000091808E0C007000E0E46D906490E08185F
:101A0000F106890F4118029129706D1C0898083061
:101A100008907F1E521C85E709B0F0BDC11D010072
:101A2000F0B503AF8DB06E463262F1617060002098
:101A3000316A814207D00146F069405C002805D137
:101A4000491C0846F4E7306A014600E0306AF1605C
:101A5000411A8A20484364210FF01EFC04460830D6
:101A6000334901406846451A611CAD462846B160BD
:101A70000FF0ECFE306AB461756129193161002103
:101A8000B162F168814221D2F0697162405C00224A
:101A90003369002802D1B16A8A4212D219780D0244
:101AA00005433A24284621463263F3620FF0F4FBE3
:101AB000F36A326B4443291B1970C0B25B1E521C7F
:101AC000E7E7716A491CB262306ADBE7B068B16A65
:101AD000401A054600D3B568B169814206D37169E1
:101AE000095C002901D1401CF6E705467468002C0A
:101AF00015D0312220463563F56829460FF09EFE49
:101B00006019356B0B4979442A46B3699A4206D865
:101B100073699B5CCB5C0370401C521CF5E7F0685A
:101B2000B1680818401BFC1F053CA546F0BDC04627
:101B3000F8FFFF07321C010070B514460D4606463B
:101B4000121F881800F006F8304629462246FFF793
:101B500067FF70BD70B588B004466D462026084604
:101B600011462A4633460CF029FF284631462A46BC
:101B700033460CF023FF00982070010EE170010C39
:101B8000A170000A607008B070BD0000F0B503AF2E
:101B90008BB06E460025B0607161AA4204D04B5DE7
:101BA000312B02D16D1CF8E71546B261511B354847
:101BB00048437D21C9000FF06FFB02460346F060E9
:101BC0000832314911406846441A591CA54620463E
:101BD00031600FF03BFEF461F068201830610020A6
:101BE000B062C4437560B069854222D27069756283
:101BF000415D264878443A2530622A460FF030FE8F
:101C000000283AD0316AC9B2421A00203169D2B2F2
:101C1000002A02D1B36A984207D20B786B439A1814
:101C20000A700919120A401CF1E7756A6D1CB0624E
:101C3000D9E73368B06A1A1A154600D31D46B06852
:101C4000F168914206D3F169895C002901D1521CE7
:101C5000F6E715465A1B7168541800280DD00FF08E
:101C6000F5FDB06871684018F268954205D8F169D1
:101C7000495D0170401C6D1CF7E72046FC1F053CC8
:101C8000A546F0BDDD020000F8FFFF00441B010087
:101C900010B50A46014600242046FFF777FF0328C7
:101CA00000D8E04310BD7CB50546FFF76FFF061F67
:101CB00001AC204629463246FFF74CFFA85DA91922
:101CC0004A78120210188A78C9780902891809041A
:101CD00008182178627812025118A278E3781B0262
:101CE0009A1812045118411A484248417CBD00001C
:101CF000F0B5FFB086B004AC0FC40120010244AEC1
:101D000030460CF09DFE34AF4024384621460FF09B
:101D10009DFDFF20023078808B988A9D002D0390D6
:101D200000D128467870819838701036224979445D
:101D300030463A46234606F034F8002D2CD014A83D
:101D400080210FF06DFD08AC204610F0D7F8A0857B
:101D5000000411D108A80DF083FA129014AC2046AB
:101D60002946039A0FF062FD00210091019144A8D9
:101D7000802322460CF0F2FD0DF05EFA08A988429D
:101D800002D112980DF06CFA14A880210FF05EFDBC
:101D900008A8808D00280CD1049800900598019027
:101DA00044A80121069A079B0CF0D8FD7FB006B02D
:101DB000F0BD06F009F8C046461A0100F0B5CBB0F8
:101DC000150A04AC2571E2700A0AA2706170519D77
:101DD000E5715099A1716371207003A902910020EF
:101DE0000190087027460837529938462A4607F06E
:101DF0000FF8539E7E557819471C54993846324641
:101E000007F006F85598B855B919569A130ACB70C9
:101E10008A70000A487045A800901822019F394630
:101E200006F0FCFF01204A9002984990A8190D3055
:101E3000C0B248904794074845900098394605F04D
:101E4000DDFA002801D4039800E0F843C0B24BB09B
:101E5000F0BDC0463F008300F0B5C9B002AE30709F
:101E600001AF00243C7043AD18222846214606F0FD
:101E7000D5FF0120489047974690459606484390E5
:101E80002846214605F0BAFA002801D4019800E05E
:101E9000E043C0B249B0F0BD3F008500F0B5C9B025
:101EA000519C250E02AEB572250C7572250A35724D
:101EB000F471529CF472509CB4714F9C74714E9C9E
:101EC0003471F370B2707170307001AF00243C70E7
:101ED00043AD18222846214606F0A0FF0120489075
:101EE00047970C2046904596064843902846214641
:101EF00005F084FA002801D4019800E0E043C0B264
:101F000049B0F0BD3F008600F0B5C9B00A0C02AE82
:101F1000B2807180308001AF00243C7043AD182244
:101F20002846214606F07AFF012048904797062070
:101F300046904596064843902846214605F05EFAAD
:101F4000002801D4019800E0E043C0B249B0F0BDE0
:101F50003F008800F0B5CDB0009301920291044695
:101F600004A803900026072731463A4606F056FF9C
:101F700006AD0198A870029868702C7047AC1822C2
:101F80002046314606F04AFF4C97039F4B970320AB
:101F90004A904995114847902046314605F02EFA5F
:101FA000002818D404A80078002815D1781C53996B
:101FB000529A037844782402E318009C23808378A3
:101FC000C4782402E3181380027940790002801853
:101FD0000880304600E0FF204DB0F0BD3F008A0091
:101FE000F0B5C9B002AEB170308001AF00243C70D2
:101FF00043AD18222846214606F010FF01204890E4
:1020000047970320469045960F20449006484390FA
:102010002846214605F0F2F9002801D4019800E095
:10202000E043C0B249B0F0BD3F009300F0B5C9B085
:1020300002AEB170308001AF00243C7043AD182275
:102040002846214606F0EAFE0120489047970320E3
:1020500046904596064843902846214605F0CEF91D
:10206000002801D4019800E0E043C0B249B0F0BDBF
:102070003F00A50070B588B001AE0024347002ADF9
:1020800018222846214606F0C9FE01200790069630
:10209000064802902846214605F0B0F9002801D4F0
:1020A000019800E0E043C0B208B070BD3F000101FC
:1020B000F0B5CBB0019302920F46064603A800216B
:1020C0000324224606F0AAFE04A80670B11E4A4266
:1020D0004A410225012E294600D01101012E02D0CD
:1020E000022E2DD11025401C461839462A4606F0EE
:1020F0008FFE019870700298307045AF002618224C
:102100003846314606F08AFE4A9403A84990E81CF6
:10211000489004A847900D4845903846314605F050
:102120006DF900280ED403A8007800280BD1509830
:1021300003A94A788978090289180180304602E0AB
:10214000472000E0FF204BB0F0BDC0463F00020139
:10215000F0B5CFB01D4606920F46064607A80021EF
:102160000324224606F05AFE08A887700680B91E8E
:102170004A424A410226012F314600D01101012F67
:1021800002D0022F40D11026C01C47185899019147
:102190000594579C5699029155990391549904912D
:1021A0000699324606F034FE280A78703D70019890
:1021B000B8717C71029838710398F8700498B870FF
:1021C00049AF002518223846294606F027FE059813
:1021D0004E9007A84D900A364C9608A84B900D4893
:1021E00049903846294605F009F900280ED407A879
:1021F000007800280BD1599807A94A7889780902F4
:1022000089180180284602E0472000E0FF204FB0F7
:10221000F0BDC0463F000401F0B5C9B01D4602AF95
:102220007B713A717980388001A800900024047095
:10223000B81D4E991A4606F0EBFD43AE1822304603
:10224000214606F0EBFD0120489000984790A81D1C
:10225000C0B246904597074843903046214605F066
:10226000CDF8002801D4019800E0E043C0B249B0A5
:10227000F0BDC0463F000601F0B5C9B002AF4E9DAB
:10228000BD717B713A717980388001A8009000247B
:102290000470F81D4F992A4606F0BAFD43AE182285
:1022A0003046214606F0BAFD01204890009847903C
:1022B000E81DC0B2469045970648439030462146F7
:1022C00005F09CF8002801D4019800E0E043C0B27A
:1022D00049B0F0BD3F002601F0B5C9B00D4602AFD0
:1022E0007970387001A8009000240470B81C114661
:1022F0002A4606F08DFD43AE18223046214606F0F0
:102300008DFD0120489000984790A81CC0B24690CF
:102310004597074843903046214605F06FF800285E
:1023200001D4019800E0E043C0B249B0F0BDC0461E
:102330003F000C00F0B5C9B002AE7170307001AF53
:1023400000243C7043AD18222846214606F066FD65
:1023500001204890479702204690459606484390B2
:102360002846214605F04AF8002801D4019800E0EB
:10237000E043C0B249B0F0BD3F000F0070B588B077
:1023800001AE0024347002AD18222846214606F022
:1023900045FD0120079006960648029028462146F2
:1023A00005F02CF8002801D4019800E0E043C0B209
:1023B00008B070BD03000300F0B5C9B002AE3070C4
:1023C00001AF00243C70701C1F2206F021FD43ADBC
:1023D00018222846214606F021FD01204890479703
:1023E000202046904596074843902846214605F010
:1023F00005F8002801D4019800E0E043C0B249B0DC
:10240000F0BDC04608000900F0B5C9B002AE4E9C50
:102410003481F380B2807180308001AF00243C7041
:1024200043AD18222846214606F0F8FC01204890CA
:1024300047970A20469045960F20449006484390BF
:102440002846214604F0DAFF002801D4019800E074
:10245000E043C0B249B0F0BD3F008101F0B595B096
:10246000039306468020002333503748F0603748F6
:10247000B06037487060374830600868306148683D
:1024800070618868B061C868F06108693062486945
:1024900070628869B062C869F0621B983063106826
:1024A00070635068B0630493F3671A980290B06742
:1024B0003046803043609068F06305AC019430464C
:1024C000214600F049F83046403021460246B8C95E
:1024D000B8C24322B35C0F210B40B3543546433599
:1024E000049A6A732A790A402A712A7A0A402A725F
:1024F0002A7B0A402A736978FC2211406970697945
:1025000011406971697A114069721124214600F005
:1025100019FB3746513701991031102238460FF018
:1025200085F90498A8773846214600F00BFB304621
:10253000623021460FF08AF930460399029A00F082
:1025400081F815B0F0BDC0467465206B322D6279FC
:102550006E64203365787061F0B593B00C46014627
:102560004022204601910FF061F920463C30049052
:1025700020462C30039020461C30119020460C3011
:102580001090204638300F90204628300290204688
:1025900018300E90204608300D90204634300C90B4
:1025A000204624300B90204614300A90201D0990BC
:1025B0002046303008902046203007901294103486
:1025C000069400211E4D7D44029E039C049F0A290F
:1025D00028D20591129806AB0ECBA84709AB0FCBBA
:1025E000A8470D980E9932460F9BA847109811994D
:1025F00022463B46A84712980A9932463B46A847CE
:1026000009980E992246089BA8470D981199079A98
:102610000C9BA847109806990B9A0F9BA847059901
:10262000491CD4E70020019B129C402805D0195872
:10263000225851182150001DF7E713B0F0BDC046D5
:1026400037020000F0B58BB0150603464033029305
:10265000623003901009431C039C002B35D0002DE1
:1026600001DC002000E028160206120F01D010261F
:1026700000E0C6B2002E22D006AF384632460591A1
:1026800004930FF0D3F8B8191021891B0FF0DEF86E
:102690000120387411263846314600F053FA20469E
:1026A00021463A4633460CF0E9FB0096084B7B4442
:1026B00020462146029A0CF041FC049B05990F200C
:1026C00000072D1810315B1EC7E70BB0F0BDC046E8
:1026D0000E110100F0B593B017460D468021425807
:1026E00001468031029149680026D2187141314675
:1026F000714101291FD01C46016B491C016303A9CC
:102700000190FFF729FFB44206D0B85D03A9895DA7
:102710004140A955761CF6E7019829462246FFF765
:1027200091FF029A1068002100191060506848411A
:10273000506013B0F0BD014805F046FB05B1000044
:10274000F0B593B015460F468021425801468031BE
:10275000029149680026D218714131467141012920
:102760001FD01C46016B491C016303A90190FFF7B0
:10277000F3FEB44206D0A85D03A9895D4140B95576
:10278000761CF6E7019829462246FFF75BFF029A7E
:10279000106800210019106050684841506013B063
:1027A000F0BD014805F010FB05B10000F0B587B0A1
:1027B00001910546806FE96F0391029080202858AF
:1027C0000490284680304068059002A910262846CB
:1027D0003246FFF737FF2F4662375135112438460E
:1027E00039462A4623460CF049FB3846214600F07C
:1027F000A9F90198394632460FF018F807B0F0BD34
:10280000B0B50C6805682C1904601D68654010247B
:10281000E5411D601468641914600D686540142456
:10282000E5410D600468641904601868604018246C
:10283000E04118601368181810600A6842401920B7
:10284000C2410A60B0BD0000F0B587B006AD0024FB
:102850002C7005950120029005A8019000947948FC
:10286000784440219F23224605F0CCFA002800D16D
:10287000DDE02878012800D0D9E00EF0EBFB05461A
:102880000EF06CFC342068436A4F4946CE1932463C
:1028900068326D4B7B441350674B0325CD5415189C
:1028A0006A48784404222A712C6203956862CD1824
:1028B0006C6028460CF0E4FB686002200CF0E6FC3B
:1028C0006860B06E00283BD04846C0196C24015D9A
:1028D0007A25405B884233D20CF08EFB5749884200
:1028E00004D10CF0BBFB5549884229D14846C01998
:1028F000405B4946C9190A5D81B291421DD2382612
:10290000304648434A46D3199A6E101868331B6AFA
:10291000002B06D09847002809D04946CA19515BB8
:10292000926E012801D14E43901902F067F9484692
:10293000C119485B401C4853DBE701D10CF0F2FBA6
:102940000398243003904B20800004904846C0191F
:10295000806E00283BD04846C0196C26815D7A25E0
:10296000405B884233D20CF047FB3449884204D1A3
:102970000CF074FB3149884229D14846C019405BAC
:102980004946C9198A5D81B291421DD23824204638
:1029900048434A46D3199A6E101868331B6A002BB5
:1029A00006D09847002809D04946CA19515B926E53
:1029B000012801D14C43101902F020F94846C119F1
:1029C000485B401C4853DBE701D10CF0ABFB4C46A5
:1029D0001B482018002204990CF018FCE41905F09B
:1029E000C1FB6C20205C7A21615A8142AED305F094
:1029F000A9FA039C484612494018002204990CF099
:102A000005FC05F0AFFB0CF0EFFB002802D02068BE
:102A10000028EFD10EF03CFB05F04AFC05F052FC1B
:102A2000484607494018002204990CF0EFFB07B014
:102A3000F0BDC04690020000F8010000115010B037
:102A4000CC0000009C2501003C0F0100AB01000000
:102A50000A49084088420FD109494A46501858305F
:102A60005158491C074A7A44491E05D0436B3430FB
:102A70009342F9D1002101600020704703000080DB
:102A800090020000E7FFFFFF10B58CB00BF0F6FEE0
:102A90006C4620460FF032FAA085000407D1684644
:102AA0000CF0DEFB0A900020C0430CF029FB0CF078
:102AB000C3FB6946884202D10A980CF0D1FB6846F4
:102AC000808D002801D10CB010BD05F07DF900000B
:102AD00010B502460748504001230024884218469A
:102AE00000D3204651188908402900D823461843AE
:102AF00010BDC046FFFF000020385F2801D3002032
:102B000070470120704701466139C9B21A2900D2C5
:102B10002038C0B2704701464139C9B21A2900D2E3
:102B20002030C0B2704710B500231A46994203D036
:102B3000845C531C002CF8D08A4201D2002010BDC6
:102B4000012010BD10B50A18521E490800290DD0E9
:102B5000137804785C400470137863401370047831
:102B60005C400470401C521E491EEFE710BD00007F
:102B7000B0B5094B7B44002A0CD00C7824091C5DAD
:102B800004700C780F2525405C5D4470491C801C46
:102B9000521EF0E7B0BDC0463E0D0100F8B50C4630
:102BA000064600252F460A22304621462B460EF0C7
:102BB00001FD7F1C0922921B2A46A24106460C46B3
:102BC000F1D33846F8BDF0B58BB016461099002900
:102BD00000901ED03546049303910A2202920024ED
:102BE0002846049923460EF0E5FC06460F46029A55
:102BF000029423460EF0FEFC281A049A8A410243EE
:102C00000AD10399491E0806354604973B46E3D18D
:102C100007E00020029004E02B46039802902E4625
:102C2000049B1820029F039019463C460A27002562
:102C3000304604933A462B460EF0BCFC02900191BC
:102C40003A462746039C2B460EF0D4FC321A30211C
:102C50000A43601E05AB1A543A0613D07F1E3A068B
:102C6000019B11D1A01E05AA2E241454002709226D
:102C7000921B3A46049CA24106D30398C01E05AAA3
:102C8000115401E02F46019B0921891B04998D41B4
:102C9000029EC8D33906C6D105A909181822121AEE
:102CA00000980EF0C3FD0BB0F0BD0000D0B502AF30
:102CB00094B06E46F51D413504464D484946081806
:102CC0004079002802D14D4805F07EF8494A48462F
:102CD00080188178002909D10179002906D0484659
:102CE0008018C078002801D1412903D34348001D32
:102CF00005F06AF8404A484680184078401E02288D
:102D000058D20A460720C3437360F161C81D1840BA
:102D10006946081AF06085463261104601F0B0F944
:102D2000B061C01D716808406946081A7061854627
:102D3000F01D193030600FF0E1F83168888500042B
:102D40001BD1F01D19300CF08BFA286049462A4837
:102D50000818B0602830274A89184A1DF16833697D
:102D6000FFF7EEFC82B020200090B068831C7069F1
:102D7000F168326901F088F902B00CF05DFAF11DDA
:102D80001931884202D128680CF06AFAF06831697A
:102D90000EF05CFDF01D1930808D00280CD1B56956
:102DA00020882946FFF794FE002807D067200002FC
:102DB00005F00AF8D120000205F006F82A464D4633
:102DC0000C4828182188401871690EF02FFDF06911
:102DD000402801D3022000E0032007496918487009
:102DE0002088B169401820800920000304F0ECFF1E
:102DF00060000000B80600000806000001B10000F5
:102E0000D0B502AF96B06E46F51D4935494B4946DF
:102E1000CA189178002909D11479002C06D04946A6
:102E2000C918C978002901D1412C02D3434804F0C4
:102E3000CBFF414A494689184978491E022958D290
:102E400070620720C1437160E01D08406946081A9E
:102E500070618546B461204601F012F93062C01DF0
:102E6000716808406946081AF0618546F01D2130F6
:102E700030600FF043F83168888500041BD1F01DE5
:102E800021300CF0EDF9286049462B480818B06055
:102E90002830284A89184A1D7169B369FFF750FC28
:102EA00082B020200090B068831CF0697169B2691B
:102EB00001F0EAF802B00CF0BFF9F11D21318842AF
:102EC00002D128680CF0CCF97069B1690EF0BEFC33
:102ED000F01D2130808D00280DD1316A756A288857
:102EE000F160FFF7F5FD002807D06720000204F02D
:102EF0006BFFD120000204F067FF49460D483161A5
:102F0000081829884018F169F2680EF08FFC402CEF
:102F100001D3022000E00320726A0749336A346952
:102F2000611848701088C01810800920000304F050
:102F30004BFFC046B80600004808000005B100007D
:102F4000DCB504AF6E4604462C4849460818407963
:102F5000002802D12C4804F037FF294A484680183F
:102F60008178002909D10579002D06D048468018BE
:102F7000C078002801D1412D03D32348001D04F05F
:102F800023FF20494846405C401E022818D2E81D15
:102F90000721884369460B1A49461A480818283001
:102FA00089184A1D9D46736019462B46FFF792FB10
:102FB00020882946FFF78CFD002805D0672000E017
:102FC000D120000204F000FF49460D483160081886
:102FD0002188401871682A460EF028FC402D01D344
:102FE000022000E00320074932685054208840192D
:102FF00020800920000304F0E7FEC04660000000C6
:10300000B80600000806000001B10000DFB506AFF9
:103010006E460246284C484600198178002909D19D
:103020000579002D06D048460019C078002801D146
:10303000412D02D3224804F0C7FE20494846405C97
:10304000401E02281AD2E81D0721884369460B1A40
:1030500049461A48081828300919F2604A1D9D4649
:10306000B36019462B46FFF735FBF0680088294608
:10307000FFF72EFD002805D0672000E0D1200002D8
:1030800004F0A2FE484670600019F1680C460988F9
:103090004018B1682A460EF0C9FB402D01D302202A
:1030A00000E00320054972685054208840192080B0
:1030B0000920000304F088FEB8060000480800005C
:1030C00005B100001F4C484600190179202932D172
:1030D0008178C07808432ED148460019401D202130
:1030E00000F0A6FA002826D018484946095C0029B5
:1030F00024D0494609180D4618352CCD496A194384
:1031000015430D431AD1494609188A68CB68134301
:1031100014D04978002911D149460D182846283085
:103120000919491D002200F08FFE01206870092056
:10313000000304F049FE044804F046FED1200002DA
:1031400004F042FEB806000005B10000F8080000D7
:10315000A0B004462F4E48468019817802790A4370
:10316000C078104340D12D4F4846C05D00283ED066
:103170004846C019034618330ECB406A10430B4330
:10318000034334D101AD28460EF0B8FEA8850004F3
:1031900010D101A80CF064F80B904846C1192831F1
:1031A0002120202216AD2B460BF048FD0DA8294604
:1031B00000F06DFA0CF040F801A9884202D10B989A
:1031C0000CF04EF816A828210EF040FB01A8808DC7
:1031D00000280ED120882121FFF77AFC00280AD090
:1031E0006720000204F0F0FD0B4804F0EDFDD12053
:1031F000000204F0E9FD48468019218840180DA915
:1032000021220EF013FB20882130208009200003AA
:1032100004F0DAFDB806000005B10000F80800006F
:10322000D0B502AF9EB06E46F21D49325B4D4846A6
:1032300040198178C07808434DD14846401900793B
:10324000594979440B6819460931814243D14846AE
:103250004019417955487844006888423BD37262EE
:1032600031628A00F060D01D0721884369463361CE
:103270000C1A48464019811DA54620460EF0D6FA84
:10328000B46121463469F068002804D00A6812BA93
:1032900004C1401EF8E7484640190019417A827A75
:1032A00012025118C27A037B1B029A181204531897
:1032B0004179827912025118C279007A000280188D
:1032C000000441180846184305D048464019201804
:1032D000447B022C02D3324804F076FD314D48463F
:1032E000405D002807D0716148464119086A496A63
:1032F00002460A4303D1D120000204F065FD726941
:10330000801A9941E7D3F361F01D213070600EF00F
:10331000F5FD7168888500041DD1F01D21300BF08A
:103320009FFF716A086048464019B060416884B0E8
:10333000B0690090306A01900294F41D5134204627
:103340007269F36900F088FA04B0B068283000228E
:10335000214600F079FD0BF06FFFF11D213188420D
:1033600003D1706A00680BF07BFFF01D5130202103
:103370000EF06CFAF01D2130808D0028BDD148463A
:103380004019016A7269891A0162416AF2699141C0
:1033900041620920000304F017FDC046B806000092
:1033A00005B10000F80800009E0601008606010035
:1033B000D0B502AF9EB06E46F21D49325B4D484615
:1033C00040198178C07808434DD1484640190079AA
:1033D000594979440B6819460931814243D148461D
:1033E0004019417955487844006888423BD372625D
:1033F00031628A00F060D01D07218843694633613D
:103400000C1A48464019811DA54620460EF00EFABA
:10341000B46121463469F068002804D00A6812BA01
:1034200004C1401EF8E7484640190019417A827AE3
:1034300012025118C27A037B1B029A181204531805
:103440004179827912025118C279007A00028018FB
:10345000000441180846184305D048464019201872
:10346000447B022C02D3324804F0AEFC314D484676
:10347000405D002807D07161484641198869C969D3
:1034800002460A4303D1D120000204F09DFC726978
:10349000801A9941E7D3F361F01D213070600EF07E
:1034A0002DFD7168888500041DD1F01D21300BF0C1
:1034B000D7FE716A086048464019B060416884B020
:1034C000B0690090306A01900294F41D5134204696
:1034D0007269F36900F0C0F904B0B06828300122C5
:1034E000214600F0B1FC0BF0A7FEF11D213188420E
:1034F00003D1706A00680BF0B3FEF01D513020213B
:103500000EF0A4F9F01D2130808D0028BDD1484671
:10351000401981697269891A8161C169F2699141B1
:10352000C1610920000304F04FFCC046B80600004A
:1035300005B10000F80800000E050100F6040100C6
:10354000F0B503AF95B06E46F51D31353160706052
:10355000002A5DD41446F01D3930334979441422D1
:103560000EF064F90120C00704432C494A46515823
:103570000143E960F5602C616846B0606C46403CF0
:10358000A546F51D093528460EF0B8FCA8850004AF
:1035900025D1F01D09300BF063FEF168086084B09E
:1035A0000C202249794400943268019202910390E0
:1035B00000202125F21D3932052329460BF02EFD6E
:1035C00004B020222846214675682B460BF036FBB6
:1035D00069680835284600F02BF800281BD00BF04E
:1035E0002BFEF11D0931884203D1F06800680BF011
:1035F00037FE402120460EF029F9F01D0930808D5C
:10360000002809D1B0688546FC1F053CA546F0BDE1
:10361000044804F0D9FB024804F0D6FB6000000027
:1036200001D1000005B100006C0401003804010064
:10363000F0B503AF85B06E46202922D10125B060D8
:10364000284605F071FEF060C21D07218A436946D5
:1036500031616946881A70608546294605F070FE1A
:103660000446B16806F0FCF80546204605F00CFF5C
:103670007068F1680EF0EAF8681E85413069854689
:1036800000E000252846FC1F053CA546F0BD70B5AE
:1036900094B00A460546212001AC01262146334656
:1036A0000BF0E2FA02980019C0793040801C2870B3
:1036B000681C0934202221460EF0B8F814B070BD01
:1036C000F0B503AFAFB06E46F41D5D34B463716303
:1036D0000546F41D8D34F868002805D12846716B25
:1036E000F360FFF72DFFF3682134F462B868F21D30
:1036F00065320832294608317162F11D8D31491C4D
:1037000031621C463563B262002800D197E0F06157
:1037100068467061B4616C462046B46940383061D7
:103720008546F51D353528460EF0E8FBA8850004D2
:10373000B56B63D1F01D35300BF092FD2860256824
:10374000002D0DD4356B2878B06021202870F01D35
:103750008D302946FFF79BFFB0682870256809E087
:10376000F01D8D3000210170306B4268306A716A43
:103770000EF05CF8F16ACD70280A8870280C487049
:10378000280E087082B040203469009401902025F2
:10379000F21D8D322523706B29460BF099F902B08A
:1037A000306B0078F31D653321462A460BF046FA4C
:1037B000B56BE968B46A2046FFF73AFF002842D0AB
:1037C000E86882B00090224B7B4420462146726A12
:1037D0000BF080FB02B0E9682046FFF729FF0028C4
:1037E00031D0316920312022706B0EF01FF8F11DAD
:1037F00065312822306B0EF019F8B4690BF01CFD0E
:10380000F11D3531884202D128680BF029FDF01DE9
:103810008D3025210F4D7D44A84740213069A847B0
:10382000F01D65302821A847F01D3530808D002817
:103830000AD170698546241DF069401E64E7FC1FAB
:10384000053CA546F0BD014804F0BEFA01D10000D8
:103850003401010033E00000F0B5D7B01E46154634
:103860000491074668460C9021AC412120460DF09A
:10387000D7FF0420207015AC20460EF03FFBA0853A
:10388000000400D09DE0089609950B975E9F5D9C13
:103890005C9E15A80BF0E4FC1F9000250094019598
:1038A0004DA80DA9049A3346FFF70AFF012F07D050
:1038B000002F0B9800D084E04E9A4DA908317EE08D
:1038C00007954DAC083450497944202220460BF02E
:1038D000A9FA002800D492E02025204629460BF0C2
:1038E000B7FA002800D08AE0089B099A009421A822
:1038F0000390471C384600F093F832AE30460BF088
:1039000049F80799009101912123029330463A46E4
:103910000BF024F83D4979444022384606920DF0D8
:1039200085FF059738462946FFF70CF9039F3E4669
:10393000213630462946FFF705F9009541220298C5
:1039400039460A9423460BF049F9002857D0304DE8
:103950007D440424059F384621462A4623460BF021
:1039600023FB304621462A4623460BF01DFB20252B
:10397000384629460BF06CFA002840D121AA069857
:10398000105C01210840801C10700096019532A83F
:1039900021230AF0E3FF1F49794430462A460BF001
:1039A00041FA00280B9C2AD500951B4B7B443046DE
:1039B00031460A9A0BF08EFA204631462A460DF01F
:1039C00035FF0BF039FC15A9884202D11F980BF086
:1039D00047FC21A84121114C7C44A04732A86C210E
:1039E000A0474DA82821A0470DA82021A04715A831
:1039F000808D002804D10C98854657B0F0BD014851
:103A000004F0E2F905B1000034000100D600010025
:103A1000ECFF000064FF000050FF000071DE0000BA
:103A2000F0B5C5B0099308920D904A985B49794466
:103A300020250A902A460BF0F5F9002800D4A8E0CA
:103A400034AE4124304621460DF0EAFE042737709B
:103A500023AE304621460DF0E3FE377017AC20460A
:103A60000EF04CFAA08500047CD1099F0597089CB4
:103A7000049417A80BF0F4FB219034A80690401C86
:103A800047497944402207920C900DF0CFFE0FAECB
:103A9000182130460DF0C4FE0498F077200AB07764
:103AA000200C7077200E30770598F076380AB076C3
:103AB000380C7076380E3076009521274124384630
:103AC0000699224633460BF089F8039023AE701C0A
:103AD00034497944079A0DF0A9FE0B9500953846B4
:103AE000314622460A9B0BF079F8002807D0009453
:103AF000212034A923AB0A460BF056F800E00398C6
:103B0000002846D0284F7F440C9D28460B9C214618
:103B10003A4623460BF048FA0D98401C29462246A7
:103B20000DF084FE0097019434AE21361F4A7A448A
:103B30002846314623460BF01BFA0EAA02201070CD
:103B4000009701940123284629460BF011FA2846D4
:103B5000314622460DF0C4FE414241410920484011
:103B60000D9908700BF068FB17A9884202D12198C3
:103B70000BF076FB34A8412421460DF067FE23A804
:103B800021460DF063FE17A8808D002802D145B0B4
:103B9000F0BD014804F018F905B10000CEFE0000A8
:103BA000AAFF0000B3FE000036FE00002EFE00005B
:103BB000F0B503AFA7B06E46F51D65357261F160D3
:103BC000B061F41D3D3420460EF098F9A085000444
:103BD0003AD1F01D3D300BF043FBF5612860F51D37
:103BE0006D35002428462146F268FFF7A9FCF01D38
:103BF0001930B0602946FFF74AFD684630616D46CE
:103C0000203DAD4682B000940194202421207060B4
:103C100028462146B2687368FEF76AF802B082B09F
:103C20007069009070680190B06921462A46234669
:103C3000FEF75EF802B0B0692146FFF7F9FC0028F4
:103C400019D030698546F5690BF0F6FAF11D3D3162
:103C5000884202D128680BF003FBF01D6D3028214B
:103C60000DF0F4FDF01D3D30808D002804D1FC1FC7
:103C7000053CA546F0BD014804F0A6F801D10000BE
:103C8000F0B503AFA5B06E46F31D5D337361F2600E
:103C90000D4630616846B061F41D353420460EF0A3
:103CA0002DF9A085000439D1F01D35300BF0D8FA7C
:103CB0007169086082B0002400940194F01D6530A1
:103CC0007060F11D15312A462346FFF7F9FC02B05A
:103CD0006846B0606D46203DAD467069C36882B0ED
:103CE0000094019472680832202428462146FDF78A
:103CF000FFFF02B082B02120F1680091019030698D
:103D000021462A462346FDF7F3FF02B030692146DB
:103D1000FFF78EFC002820D0B06885460BF08CFAA7
:103D2000F11D3531884203D1706900680BF098FAB3
:103D3000F01D653028210DF089FDF01D1530202182
:103D40000DF084FDF01D3530808D002806D1B0695E
:103D50008546FC1F053CA546F0BD014804F034F83B
:103D600001D10000F0B5B5B01E460C4605463492B0
:103D70006846079020AF38460EF0C0F8B8850004BA
:103D80003AD1049620A80BF06BFA2A900120002368
:103D900000930193059002902CAF274A3846069471
:103DA0002146FFF759FD4020019010AE00962448AF
:103DB00078440D2120243A4623460AF089FE0498CF
:103DC000314622462B460AF039FF696828460830FA
:103DD000FFF72EFC00282BD010A9203108AC2022A0
:103DE00020460DF023FD05980090019034AB284645
:103DF0002146069AFFF764FC0BF01EFA20A98842C0
:103E000002D12A980BF02CFA2CA820240D4D7D44C9
:103E10002146A84710A84021A84708A82146A8473E
:103E200020A8808D002804D10798854635B0F0BDC4
:103E3000024803F0C9FFC046C902000001D10000DA
:103E4000BCFC00003BDA0000F0B503AF97B06E4653
:103E5000F31D1D3333627261F160B06001252846A5
:103E600005F062FA0446C01D072188436946081A16
:103E70008546F0613561294605F062FA7060F51DEE
:103E8000253528460EF03AF8A88500047068B06120
:103E900026D1B568F01D25300BF0E2F9316A0863D0
:103EA000F068B062022370690028184600D13069BA
:103EB0000D6082B00090F21D1D32B069294606F0F7
:103EC000B3F802B0002825D020212846FEF72BFEAB
:103ED000002805D120212846FFF7AAFB00281CD086
:103EE0000BF0AAF9F11D2531884203D1306A006B2D
:103EF0000BF0B6F9B06905F0C7FAF06921460DF08C
:103F0000A5FCF01D2530808D002807D1FC1F053C45
:103F1000A546F0BD034803F057FF014803F054FFE6
:103F200005B1000001D10000F0B503AFCFB06E467F
:103F3000514CA41974627361B261F16130624B4CEF
:103F4000204605F0F1F90546C01D07218843694662
:103F5000081A8546B062214605F0F2F9B060474C78
:103F6000A41920460DF0CAFFA0850004B46858D1FA
:103F70003561BD68414880190BF072F9716A0860BB
:103F8000F01D253020210AF0D3FCF560002D0FD064
:103F9000F11DC53121232046F26805F093FA00286F
:103FA0005ED0F01DC5304021FEF7BDFD002857D181
:103FB000FA68F11D85312123204605F083FA002897
:103FC0004ED0F01D85304021FEF7ADFD002847D1D1
:103FD000254686B0F01D25300590F01D85300490F3
:103FE000F01DC530F1680029F269B36900D10846B7
:103FF0000021746900940191029003900833F11D2F
:1040000045312C46284607F04DFB06B000282AD043
:10401000F21D45322046316A05F0CAFB002822D045
:1040200035690BF009F915498919884203D1706A7D
:1040300000680BF015F9F01D253020210DF006FC6D
:10404000204605F021FAB06A29460DF0FFFB0B4827
:104050008019808D002807D1FC1F053CA546F0BDC6
:10406000034803F0B1FE034803F0AEFE0102000076
:1040700005B1000001D10000340100000C01000076
:1040800010300F2188437047F0B503AF9DB06E46E6
:10409000F41D4134F4613361B0611546B2601035EE
:1040A0000F2085436846441BA54620460DF0BEFB05
:1040B0007461B16860182C46691ACAB20DF0BEFB73
:1040C000F51D193528460DF019FFA885000419D1F2
:1040D000B868F060F01D19300BF0C2F8F1690860A3
:1040E000F51D49353069F1682A460AF02BFD82B08A
:1040F000B0690090019445212846726923460AF070
:1041000037FD02B00BF098F8F11D1931884203D148
:10411000F06900680BF0A4F8F01D493024210DF07F
:1041200095FBF01D1930808D002803D1FC1F053C44
:10413000A546F0BD03F048FE70B59CB00D460446A0
:104140006E4630460DF0DAFEB085000422D1684696
:104150000BF086F80A906968284608300CAD4026B6
:104160002A4633460AF040FC2878F821014029709D
:10417000E87F7F210140E977E87F3043E877202618
:1041800028463146FEF7DEFC6120294632462346AA
:104190000AF054FD0BF050F86946884202D10A98A3
:1041A0000BF05EF80CA840210DF050FB6846808DA6
:1041B000002801D11CB070BD03F006FEF0B59BB025
:1041C000019002AE02203070701C20252A460DF0AE
:1041D0002DFB4120314602460AF070FD13AC1F2131
:1041E00020460DF01DFB0120E07700952136114F90
:1041F0007F440198214632463B460AF06BFE00950B
:104200003046214632463B460AF07EFE3046314675
:104210003A462B460AF0DCFE0095019C20462146DA
:1042200032463B460AF08AFE20462946FEF78AFCC3
:104230001BB0F0BD89F8000010B5202A0BD0382A39
:1042400011D0342A1AD10F4A4B469A185279002AB3
:1042500014D076240EE00B4849460818C07900288F
:104260000CD0492010BD074A4B469A189279002A73
:1042700004D07A24FEF792FC001910BD024803F026
:10428000A3FDC0466000000005B10000F0B587B096
:104290000446059304920E980D9D0C99202846D053
:1042A0001F46164638281FD034286DD1039139484F
:1042B000494608184079002868D00020342202902E
:1042C000294603F08DFC002860D021222046039966
:1042D000FEF74EFC20464230342229460DF0A6FA65
:1042E0000298009076341CE003912A484946081849
:1042F000807900284AD000203822029029460BF00D
:10430000A5F8002842D0212220460399FEF730FC70
:1043100020464230382229460DF088FA0298009053
:104320007A34204632463B46FEF74DFC2CE00E46E2
:10433000184849460818C079002827D02021284667
:1043400000F02CF8002821D004A80821FEF7FAFB81
:104350000598207104992170020EE271020CA2717D
:10436000000A6071080EE070080CA070080A607006
:1043700020460830212231460DF058FA29342022F7
:10438000204629460DF052FA07B0F0BD024803F06E
:104390001BFDC0466000000005B10000F0B503AF92
:1043A0008FB06E46F21D2D32202913D10446B26023
:1043B000F51D053528460DF0A1FDA88500040BD09C
:1043C000F01D053000248485B06800680AF048FFBD
:1043D00020462AE0002028E0F01D053070600AF039
:1043E0003FFFB1680860684630606D46483DAD46A5
:1043F00002202870681C202221460DF017FA412067
:10440000294602460AF05AFC306885460AF014FF35
:104410007168884203D1B06800680AF021FFF01D7E
:104420000530808D002804D10120FC1F053CA546E5
:10443000F0BD03F0C9FC0000F0B503AFA1B06E46BB
:104440001546F1607061FC68BA68202B326131D08A
:10445000382B6CD0342B00D093E04B4849460818D9
:104460004079002800D18CE0492C00D389E0F01D70
:1044700031303422294603F0B3FB002800D180E01C
:10448000F21D1132B26020257069F1682B460AF0E6
:1044900095FA84B00095306901900294F01D313096
:1044A0003B490322B3680AF083FC04B0002862D1C0
:1044B000002461E0344849460818C079002860D0DB
:1044C000402C5ED120212C462846FFF767FF0028AC
:1044D00057D06846B0606D46483DAD460220287012
:1044E000681C202221460DF0A1F9412420462946CE
:1044F00022460AF0E3FBF31D3133204629462246CB
:104500001D460AF085FB86B040200024F16800912A
:1045100001940294316903910490012105222846F7
:1045200073690AF003FC06B0B1688D4621E01648B5
:10453000494608188079002823D0402C21D1F01D4D
:104540003130382229460AF081FF002819D086B080
:1045500040200024F1680091019402943169039194
:104560000490F01D31300121052273690AF0DEFB51
:1045700006B0002800D001242046FC1F053CA546BB
:10458000F0BD024803F020FC6000000005B100000F
:1045900001060000F0B503AFA3B06E46F11D7931FE
:1045A000316170600124204604F0BEFEB060C01D81
:1045B000072188436946081A8546F06074612146E0
:1045C00004F0BEFE0446F51D513528460DF096FC5C
:1045D000A8850004254610D1F01D51300AF040FE98
:1045E00031690860F11D11312846726805F08EFCB2
:1045F000411E8841F11D81310870B4680AF01CFE2B
:10460000F11D5131884203D1306900680AF028FE5B
:10461000284604F039FFF06821460DF017F9F01D27
:104620005130808D002808D1F01D813000787169EB
:104630000840FC1F053CA546F0BD03F0C5FBF0B5E6
:1046400003AF97B06E460D46412901D0212D31D1DF
:10465000B26101247060204604F066FE7061C01DE6
:1046600007218843694631616946081A8546F0602A
:104670002146B46904F064FEF11D1531B060726822
:104680002B4604F01FFF411E05468D41002C07D02C
:10469000002805D0F01D15304021FEF744FA2070A7
:1046A000B06804F0F1FEF06871690DF0CFF8306980
:1046B000854600E000252846FC1F053CA546F0BDC8
:1046C000F0B503AFA3B06E46F11D11317161F0601A
:1046D0000125284604F028FEB060C01D072188434C
:1046E0006946081A85463061294604F029FE0546C8
:1046F000F41D553420460DF001FCA0850004B0687F
:104700002C461FD1F01D55300AF0AAFD7569E866E8
:10471000F11D153121232046F26804F0D3FE002854
:104720002BD04120286082B002200090F21D11326F
:10473000F31D15332046F16804F08AFF02B000280B
:104740001ED0B06805460AF077FDF11D553188424C
:1047500003D17069C06E0AF083FD204604F094FE18
:10476000306929460DF072F8F01D5530808D002813
:1047700007D1FC1F053CA546F0BD044803F024FB0F
:10478000014803F021FBC04601D1000005B1000043
:10479000F0B5A9B00D4604466E4630460DF0AEFBAE
:1047A000B08500041AD168460AF05AFD0A901848EC
:1047B000784402681FAF4126384629463346FFF742
:1047C000D1FA0CAD0123304629463A460AF04CFA9C
:1047D00008350D9A304629460AF05CFA0AF02CFD9D
:1047E0006946884202D10A980AF03AFD1FA828219A
:1047F0000DF02CF86846808D002807D10CA90931EE
:10480000202220460DF012F829B0F0BD03F0DCFAAA
:1048100068FB0000F0B503AFBDB06E46F11DD931A5
:1048200070638A60F163CB600120F0620402651C52
:10483000284604F079FD0721C9437161B063C01DAA
:1048400008406946081A85463064294604F078FD18
:104850000546F11D3D31742204F026FEB06120466C
:1048600005F087FE7062C01D716908406946091A2B
:104870008D463D4A7A4428463163234605F07EFE44
:104880007060F41DB13420460DF038FBA0850004A3
:104890002C46B069B062756833D17869F0603869C8
:1048A000B06035622546FC68F01DB1300AF0D8FCD6
:1048B000F16B086090B0002340202C497944F26AE3
:1048C000089209910A900B942C46356AB0680C90B6
:1048D0000D930E93F0680F900793F81D013006902A
:1048E0000593F01DE130049003930293706B0190E7
:1048F00000932046B16A2A4605F0BCFE10B000289D
:104900002DD0B06BF061706A30610AF095FCF11D3A
:10491000B131884203D1F06B00680AF0A1FC204657
:10492000294605F089FE2546114C7C44306B3169DF
:10493000A047B06A04F0C5FDF01D3D307421A047CA
:10494000284604F0A1FD306CF169A047F01DB1309C
:10495000808D002804D1FC1F053CA546F0BD014810
:1049600003F032FA01D1000011F1000070F10000F3
:104970001FCF0000F0B503AFE1B06E46654CA4193F
:10498000F51DBD35F56371647063A260B464E360C6
:10499000FF240234204604F0C7FC30640721C943D9
:1049A0007161C01D08406946081A8546F064346389
:1049B000214604F0C5FCF11D49317422044604F07F
:1049C00073FDB0618025284605F0D3FDB062C01D9F
:1049D000716908406946091A8D46524A7A44204650
:1049E000B1632B4605F0CAFD70604B4DAD192846EA
:1049F0000DF084FAB16AA8850004306CB269F262E5
:104A00007268726256D13869B0602546FC684248C7
:104A100080190AF025FCB16C086090B0002340209A
:104A2000414979440122089209910A900B94B06897
:104A30000C900D930E930F930793F81D0130069081
:104A40000593364880190490F01DC1300390344816
:104A5000801902900193009335622846F16A726AC8
:104A600005F008FE10B000284FD02120F46BF06054
:104A7000206082B0306B451C0095F21DBD32284B82
:104A80009B19306A716B04F0E3FD02B000283CD042
:104A9000F068206082B00095F21DBD32F31DC13375
:104AA000346A2046716C04F0D3FD02B000282CD08B
:104AB000306CB16AF06131610AF0BEFB16498919A8
:104AC000884203D1B06C00680AF0CAFB2046716AC4
:104AD00005F0B2FD154D7D44B06B3169A847F06A11
:104AE00004F0EFFCF01D49307421A847204604F083
:104AF000CBFCF06CF169A84707488019808D00282D
:104B000004D1FC1F053CA546F0BD014803F05CF94B
:104B100001D1000070010000480100007801000090
:104B200008010000A9EF00000AF0000073CD0000AA
:104B3000B0B504461B4820811B481C4921606060B9
:104B400020460A301A49794412220CF06FFE2420C4
:104B50004D212154204624300021C1704321817011
:104B600057214170204629301249794406220CF021
:104B70005DFE20465830104979442CC92CC00F489E
:104B800078440168406821636063204638302146DC
:104B900030316166A0660A49794420220CF046FE55
:104BA000B0BDC046014500000901010051020000EE
:104BB00056EF0000CFD400002CF00000FCEF000006
:104BC000ECEF0000F8B5164604460D1A681E0542C3
:104BD00005D1B04729460CF0E5FB08460CE0002063
:104BE000C04329460CF058FB07464543B047A8424E
:104BF000FCD239460CF050FB0019F8BD80B503F02B
:104C000061FC80BDB0B5054607202840002401287E
:104C100015D0022815D10C48002908D04A46101892
:104C20000AF0CEFA28060AD509F070FE07E04946D8
:104C300008184121890000220AF0E8FA04462046BB
:104C4000B0BD022003F0C0F8B8060000F0B585B092
:104C5000DD4E4846805D052832D0152858D00D28F5
:104C600000D187E00E2800D1ABE00C2800D0D0E0C6
:104C7000D6494D46012068546C18002767602046CD
:104C80000AF0FEF9606002200AF000FB6060D04C80
:104C900029194968002900D1E0E0CE4A904201D1AB
:104CA00000F0DDFC002801D100F0D9FC4D462A19A6
:104CB00057608847F6482818F84944314160D8E0E1
:104CC000F3494D46012068546C1800276760204660
:104CD0000AF0D6F9606002200AF0D8FA6060ED4C64
:104CE00029194968002900D113E1EB4A904201D10A
:104CF00000F0B5FC002801D100F0B1FC4D462A19A6
:104D000057608847E2482818E449443141600BE184
:104D1000E348494608188079012806D14846801999
:104D20008079000701D400F0B0FCD94E4D46012037
:104D3000A855AC190027676020460AF0A1F9606009
:104D400002200AF0A3FA6060D24C291949680029B0
:104D500000D1F5E2D04A904200D144E3002800D1CE
:104D600041E34D462A1957608847A819CB49443179
:104D70004160E9E2C64E4D460120A855AC19002716
:104D8000676020460AF07CF9606002200AF07EFA33
:104D90006060C04C29194968002900D11CE1BE4A55
:104DA000904201D100F05BFC002801D100F057FCDB
:104DB0004D462A1957608847A819B84944314160BF
:104DC00015E1B3494E4601207054751800276F60F5
:104DD00028460AF055F9686002200AF057FA04469E
:104DE0006860AC4D70194168002900D15CE1AA48A7
:104DF000844200D1ADE1002C00D1AAE14E467019E9
:104E0000476020468847A2483018A4494431416091
:104E10004EE19F4E4D460120A855AC190027676012
:104E200020460AF02DF9606002200AF02FFA606037
:104E3000984C29194968002900D1ECE1964A904222
:104E400000D13CE2002800D139E24D462A195760D2
:104E50008847A819914944314160E0E18E49884270
:104E600000D1FCE3002800D1F9E38E49884200D04C
:104E700006E34846061903F01BFA03F023FA7A25E5
:104E80007753B06E002800D1E9E3484680494018C6
:104E900040688149884200D1E1E3002800D1DEE387
:104EA000484600196C26805D002800D1D7E37B4F6F
:104EB0000AF0A2F8B84204D10AF0D0F8B84200D003
:104EC000CDE348460019405B494609198A5D81B225
:104ED000914200D3C8E23827384648434A4613195E
:104EE0009A6E101868331B6A002B06D0984700286A
:104EF00009D049460A19515B926E012801D14F43EE
:104F0000D01903F0DFFA48460119485B401C4853AA
:104F1000DAE76149884200D1A1E3002800D19EE38D
:104F20006049884200D007E34846061903F0C0F9FB
:104F300003F0C8F97A257753B06E002800D18EE3CC
:104F400048465349401840685349884200D186E397
:104F5000002800D183E3484600196C26805D0028B4
:104F600000D17CE34D4F0AF047F8B84204D10AF073
:104F700075F8B84200D072E348460019405B4946D4
:104F800009198A5D81B2914200D36DE23827384613
:104F900048434A4613199A6E101868331B6A002B4F
:104FA00006D09847002809D049460A19515B926EED
:104FB000012801D14F43D01903F084FA4846011962
:104FC000485B401C4853DAE7CC000000F8010000C1
:104FD00090020000445010B02F49884200D13EE3B7
:104FE000002800D13BE32F49884200D0EDE248463B
:104FF0002849441803F05CF903F064F97A256753F3
:10500000A06E244C002800D129E34846801940684E
:105010002149884200D122E3002800D11FE34846FD
:1050200000196C26805D002800D118E31B4F09F0A1
:10503000E3FFB84204D10AF011F8B84200D00EE301
:1050400048460019405B494609198A5D81B2914280
:1050500000D309E23827384648434A4613199A6E66
:10506000101868331B6A002B06D09847002809D017
:1050700049460A19515B926E012801D14F43D0195C
:1050800003F020FA48460119485B401C4853DAE710
:10509000F801000090020000445010B0115010B010
:1050A000BC070000555010B0F2484430844250D143
:1050B0004846461903F0FCF803F004F97A2400206E
:1050C0003053B06E002800D1C9E24846EA49401882
:1050D0004068EA49884200D1C1E2002800D1BEE21E
:1050E000484640196C26805D002800D1B7E2E14FA8
:1050F00009F082FFB84204D109F0B0FFB84200D0F5
:10510000ADE248464019005B494649198A5D81B2C3
:10511000914200D3A8E13827384648434A465319FC
:105120009A6E101868331B6A002B06D09847002827
:1051300009D049464A19115B926E012801D14F43AB
:10514000D01903F0BFF948464119085B401C0853C9
:10515000DAE74846411994200958002913D00A4635
:10516000643A00D23A464B465B191A5064290AD871
:1051700090215958002906D04A4652199823D358ED
:10518000135000208847BD48844200D167E2002CBC
:1051900000D164E248464019806E002800D16AE2DE
:1051A000484640196C24015D7A26805B884200D312
:1051B00061E2B04F09F020FFB84204D109F04EFF80
:1051C000B84200D057E248464019805B4946491929
:1051D0000A5D81B2914200D34AE2382738464843FB
:1051E0004A4653199A6E101868331B6A002B06D072
:1051F0009847002809D049464A19915B926E0128C8
:1052000001D14F43D01903F05DF948464119885B3D
:10521000401C8853DAE79749443188424FD14846C9
:10522000061903F045F803F04DF87A257753B06E70
:10523000002800D113E248468F49401840688F4942
:10524000884200D10BE2002800D108E2484600194C
:105250006C26805D002800D101E2864F09F0CCFE6B
:10526000B84204D109F0FAFEB84200D0F7E148464E
:105270000019405B494609198A5D81B2914200D309
:10528000F2E03827384648434A4613199A6E1018F8
:1052900068331B6A002B06D09847002809D049467E
:1052A0000A19515B926E012801D14F43D01903F0C6
:1052B00009F948460119485B401C4853DAE748465B
:1052C0000019806E002800D1BFE1484600196C2506
:1052D000415D7A26805B884200D3B6E1EE4F09F04B
:1052E0008BFEB84204D109F0B9FEB84200D0ACE15F
:1052F00048460019805B494609194A5D81B29142CE
:1053000000D39FE13827384648434A4613199A6E1E
:10531000101868331B6A002B06D09847002809D064
:1053200049460A19915B926E012801D14F43D01969
:1053300003F0C8F848460119885B401C8853DAE737
:10534000D549443188424ED14846061902F0B0FF93
:1053500002F0B8FF7A257753B06E002800D17EE1C5
:105360004846CB4940184068CA49884200D176E196
:10537000002800D173E1484600196C26805D0028A2
:1053800000D16CE1C44F09F037FEB84204D109F0F6
:1053900065FEB84200D062E148460019405B4946CC
:1053A00009198A5D81B291425ED238273846484356
:1053B0004A4613199A6E101868331B6A002B06D0E0
:1053C0009847002809D049460A19515B926E012876
:1053D00001D14F43D01903F075F848460119485BD5
:1053E000401C4853DBE748460019806E002800D176
:1053F0002BE1484600196C25415D7A26805B884286
:1054000000D322E1A44F09F0F7FDB84204D109F01E
:1054100025FEB84200D018E148460019805B494695
:1054200009194A5D81B2914200D30BE13827384611
:1054300048434A4613199A6E101868331B6A002BAA
:1054400006D09847002809D049460A19915B926E08
:10545000012801D14F43D01903F034F8484601190F
:10546000885B401C8853DAE700D0F8E009F05AFE68
:10547000F5E0C046115010B0F8010000445010B0E3
:105480004A4615196C200490285C0390A86E02907F
:105490009219D379967951791079D2782F46683755
:1054A0003F6A009201970002401882B23002C01891
:1054B00083B20298039902F07DFFA86E049D002834
:1054C00000D1DEE048460019415D7A26805B8842C3
:1054D00000D3D6E0704F09F08FFDB84204D109F037
:1054E000BDFDB84200D0CCE048460019805B49467B
:1054F00009194A5D81B2914200D3BFE0382738468E
:1055000048434A4613199A6E101868331B6A002BD9
:1055100006D09847002809D049460A19915B926E37
:10552000012801D14F43D01902F0CCFF48460119A0
:10553000885B401C8853DAE7484600198C214058A4
:10554000002805D049468919C978490802F0E2FFC8
:1055500048460019806E002877D0484600196C250F
:10556000415D7A26805B88426FD24B4F09F044FD43
:10557000B84203D109F072FDB84266D1484600191D
:10558000805B494609194A5D81B291425AD2382757
:10559000384648434A4613199A6E101868331B6AF6
:1055A000002B06D09847002809D049460A19915B7C
:1055B000926E012801D14F43D01902F083FF484673
:1055C0000119885B401C8853DBE748460019806E50
:1055D00000283AD0484600196C25415D7A26805B48
:1055E000884232D22C4F09F007FDB84203D109F0AE
:1055F00035FDB84229D148460019805B4946091952
:105600004A5D81B291421DD23827384648434A4606
:1056100013199A6E101868331B6A002B06D098472E
:10562000002809D049460A19915B926E012801D1E0
:105630004F43D01902F046FF48460119885B401CD1
:105640008853DBE701D109F06DFD484600196C2154
:10565000415C7A22805A884201D309F0C5FD09F0E5
:10566000C3FD002801D102F06DFC012005B0F0BDA2
:1056700001D109F057FD48464019E8E701D109F08A
:1056800051FD48460019415DE3E7102002F09CFB04
:10569000F8010000445010B0115010B0D0B502AF66
:1056A00090B06E46F41D313403464148494608180F
:1056B0004079002802D1404802F086FB3D49484627
:1056C00040188178C2780A4356D105793C4878441D
:1056D0000068A84250D13949484640184078FE2118
:1056E000014002294CD1B460F360E81D07218843D2
:1056F0006946081A70608546F41D093420460CF08E
:10570000FDFBA085000418D1F01D093009F0A8FDAB
:10571000B168086049463160284808182830746824
:105720002146FDF743F8234831680818401D2146FB
:105730002A4602F04FFB00281ED1746809F07CFD58
:10574000F11D0931884203D1B068006809F088FD75
:10575000204629460CF07AF8F01D0930808D00288B
:10576000F4680FD120882021FDF7B2F900280BD072
:105770006720000202F028FB0F48001D02F024FB06
:10578000D120000202F020FB49460A48081822886E
:1057900080180A4A8918891C20220CF047F82088B2
:1057A0002030208002F086F90920000302F00CFB73
:1057B00060000000B806000001B10000080600000B
:1057C000EAE00000D0B502AF90B06E46F41D31346F
:1057D0003C4A49468B189978DA780A4356D11D79A4
:1057E0003B4979440968A94250D1384A4946891849
:1057F0004A78FE21114002294BD1B460F060E81DC7
:10580000072188436946081A70608546F41D0934EB
:1058100020460CF073FBA085000418D1F01D093060
:1058200009F01EFDB1680860494631602748081834
:10583000283074682146FCF7B9FF224831680818FF
:10584000401D21462A4602F0C5FA00281ED1746880
:1058500009F0F2FCF11D0931884203D1B0680068FB
:1058600009F0FEFC204629460BF0F0FFF01D093040
:10587000808D00280FD1F46820882021FDF728F9B9
:1058800000280AD06720000202F09EFA0E4802F0BB
:105890009BFAD120000202F097FA494609480818FD
:1058A00022888018094A8918891C20220BF0BEFF23
:1058B00020882030208008F095FB0920000302F0AA
:1058C00083FAC046B806000005B100004808000091
:1058D000D6DF0000DCB504AF6E46044625484946D5
:1058E00008184079002802D1244802F06DFA2249B4
:1058F00048464018817802790A43C07810431ED187
:105900001F484946095CFE220A40022A1BD11D4954
:1059100079440D68E91D072291436A46511A4A46A7
:10592000101828308D463160FCF740FF20887560E4
:105930002946FDF7CDF8002809D0672004E00F487C
:10594000001D02F041FAD120000202F03DFA484663
:10595000094940182188401822CE2A46083E0BF0FB
:1059600065FF20884019208002F0A4F80920000378
:1059700002F02AFA60000000B806000001B1000041
:1059800008060000A8DE0000DCB504AF6E46044641
:10599000204948464018817802790A43C07810436C
:1059A0001ED11E484946095CFE220A40022A1AD12D
:1059B0001B4979440D68E91D072291436A46511A33
:1059C0004A46101828308D463160FCF7EFFE2088DB
:1059D00075602946FDF77CF8002808D0672003E0B1
:1059E0000D4802F0F1F9D120000202F0EDF948462D
:1059F000084940182188401822CE2A46083E0BF05C
:105A000015FF20884019208008F0ECFA09200003D7
:105A100002F0DAF9B806000005B1000048080000FD
:105A200006DE0000F0B503AF8BB06E467061C54B6B
:105A30004846C018C278002A00D07FE10479C84ADD
:105A40007A4415682A4643327462A24200D975E14D
:105A500080780028F161B06109D002280CD00128BB
:105A600000D06BE1B84849460818407908E0B648CC
:105A700049460818807903E0B34849460818C079B8
:105A8000002800D15AE14846C0184019441D212180
:105A90002046FDF748F800280ED12121F21D2132C1
:105AA0002046FEF7CCFD002800D147E1F01D213053
:105AB0000078002800D041E14846A2494018281843
:105AC0002630212100242246FEF7B9FD002800D10E
:105AD00034E148469B494018423540194079022834
