:02000004C0DE5C
:1000000070B58CB062B6002808D02D494A46531806
:1000100001686C22184611F0BFFB04E028484946ED
:10002000081804F093FD274E0EF0DEFB48468019B9
:100030004F218A000024214607F0AFFE07F092FE10
:100040006D46284611F010FFA88580B2102805D112
:10005000684684850A980FF0B9F8E5E7002809D0CA
:10006000684684850A980FF0B1F802F00DFD20462D
:100070000CB070BD68460FF0A9F80A9008F0E6F8D9
:1000800005200024214622460EF0DAFF0E494A469A
:1000900051184862204610F023F90125284610F037
:1000A0001FF9204607F0ACFC2046214600F0CEFFA9
:1000B00006497944284600F0C9FF07F097FAC04680
:1000C0006000000090020000BC07000064210100F5
:1000D000F0B593B011931291044600787F27074042
:1000E000052F01D113B0F0BD1546208B00F0E6FAC4
:1000F00000280D9565D00B9743798279129F002FC8
:1001000058D0002D56D009930A92208BE188119A7D
:100110000092EBB2643189B23A4600F0F3FA064637
:10012000E0880021052D0C9153D3864251D9208BB4
:10013000119900916421934A7A44032300F0E2FA72
:100140000E906B08FA18E088002108911092B91AF5
:100150004D190F95002B3FD081B28E423CD9002D16
:100160003AD0208B119D00951F46DBB2129A00F009
:10017000C9FA0646E188208B00950F9DEBB2109AD4
:1001800000F0C0FA3B460E9971180E18E0888642BE
:10019000E0D90899012903D0002904D15B1E02E0AF
:1001A0001099491C10910D9D129F0121089A9143AD
:1001B000109ACAE700210E910E460C910F910B9FE9
:1001C0003DE000210E910E460B460A460C910F9120
:1001D00035E010910E9500E00E9303239D03218BD3
:1001E0000D400122D703BD420AD09703BD420C9DAA
:1001F0000F950D9D0B9F0AD180B2801B0F9006E0DA
:10020000750880B24008401B0F900D9D0B9F18038E
:1002100001405003814206D0100381420CD1208955
:100220000A9A801A05E00A9A5008C04321894908B1
:1002300008180C90109901E010990A9A099B012F57
:1002400065D0022F09D0072F07D0042F5BD0062FCF
:1002500000D1A3E1032F5AD044E7207B01282DD100
:100260001091072F0A923D4600D0002207920420E9
:100270000890205E821A0227E15F6069072D0993CA
:100280000B9500D0238900930F9D2B460EF034FF71
:10029000A819E15F4118E288131A0898205E079AAE
:1002A000821A60690B9F072F01D025890995099D46
:1002B00000950EF021FF0D9D10990A9A12980028C2
:1002C00000D10FE7002D00D10CE70A921091022017
:1002D000225E04200B90205E0890206961690991DC
:1002E000218B0791E388214626893D46129F03977B
:1002F0000E9C0494119F05972F46072D069200D15E
:1003000064E10C9F63E1E07A002800D1C2E1E38858
:100310005A08218948088242154600D30546E67AE4
:10032000B54203D88242164600D30646207B0128F8
:100330002AD104201090225E02200E90255E2069B2
:10034000009171197700DB1BD94D7D44A8470B95AF
:100350000E98215E1098225E2089C31B20690093AD
:10036000B2183346A8470E98215E1098225E208965
:10037000C31B2069E5880093B218891B49193346CD
:100380000B9D6BE0C720010004201090225E02202C
:100390000A90255E60690091711975000B955B1BD1
:1003A000C24D7D440E95A8470A9FE15F1098225EDA
:1003B00020890B9BC31A60690093B21833460E9DC7
:1003C000A847E15F1098225E20890B9FC31B6569D7
:1003D000E0880093B218F343C91809182846334639
:1003E0000E9DA847109D605F09900A98215E2269C2
:1003F000E388A07A00907118DB1B1046099A0E9FC3
:10040000B847605F09900A9D615F20690890228962
:10041000E388A07A009071180B981B1A099880182D
:10042000421E0898B847605F09901098225E2089A4
:100430000B9D411BA37A20690091B2180999B84716
:100440000A98215E1098225E2089451BA37A2069B4
:10045000E7880095B218C919491E0E9DA847022EBB
:100460000D98129965D3207B012802D0A07A301A0A
:1004700000D2002010900420255E07460A9002203A
:100480000B90215E20696369C0220092109A01924C
:10049000029371187219874D7D440E953346A84713
:1004A000E75F0B9D605F0890206909906369E188B0
:1004B000A07A30220092109A019202933018089A82
:1004C0005118091AF219099833460E9FB847675F09
:1004D0000A9D605F08902069099063692189A07A6C
:1004E0000C220092109A019202933018089A511827
:1004F0000A1AF119099833460E9FB847605F0A90AF
:100500000B98215E20690B9063692589E788A07AA2
:1005100003220092109A019202933018C919091A05
:100520000A9A101A42190B9833460E9DA8470D9847
:100530001299002900D1D5E5002800D1D2E5237B0E
:1005400010211420012B0A4600D00246012B00D0B6
:100550000846A158109120580E900220215E0420D8
:10056000255E208BE6882789A37A129C03940D9C34
:100570000494119C05940124E443002B00D05C43B7
:100580000C9ABB1A1B190F9FF61B341955190095AD
:10059000019402937B180E99109A78E00420205E53
:1005A000E37AC2180220205E19182069267B0025F4
:1005B000012E03D0A67AB34200D99D1B6469FF26A1
:1005C00000960195029400F02FFA8BE500270C4667
:1005D0000146089A0E97F61B0F9FDB1B01930296AC
:1005E000072D01D00C9B01E00A9B5B42099D0798F7
:1005F000069E0C939B1800930F9B9B192A4600F0B4
:10060000D1F802461098002800D16BE52A487844BA
:1006100008900B98265E2069099060690A90218BEA
:10062000E588278903200E9BFF1A0F9BED1A0C9B70
:100630009E19009601950297089B03930490119EC2
:10064000059693B2084609990A9A00F0ABF80A9009
:100650000B98235E20690B9060690990228BE588D6
:100660002489129F0D98C71910983F1A0E99641A81
:100670000F996D1A0C99CB18009301950294039071
:10068000049705960A9883B210460B99099A00F0D0
:1006900089F827E50420225E0220215EE388206994
:1006A000248900940EF028FD1CE5C04653ED00009F
:1006B000ABED00008D050000F11B0100F8B50E4DFB
:1006C00005400E487844016888000D4A7A44801835
:1006D000001F4E1C761E0CD0071F0468204608F031
:1006E000ABFB0068A8423846F4D1204608F0A4FBD2
:1006F000F8BD0020F8BDC046FF0F0000802F0100AC
:100700006C2F0100FEB51C4615460191FFF7D6FF80
:100710000022002843D0019B029021063FD0068989
:100720002F78B74202D34189B94213D20A2F36D06B
:100730000D2F34D0B809032803D33F2007403E468D
:1007400022E078B2002600281ED5B80600920BD50C
:100750000F200AE0B91B8E00C068174608F06CFB3A
:10076000019B3A46865D0FE00E20FFF7A7FF0028A9
:10077000009A019B08D0C068164608F05DFB019BFB
:100780003246F906490E465C002B03D090B2301871
:10079000984204D8641E6D1C92190298BDE790B26D
:1007A000FEBD0000F0B5A3B00D931091149111920D
:1007B0001392FFF783FF002800D12DE101462A980C
:1007C00008902998099028980E900A910C79002099
:1007D0000C90C0430B90022C49D313AD281D3C2133
:1007E0000F9010F0D3FF119813900B98A040C643C0
:1007F000B000109929500020032838D01290C5006D
:100800001098E840C7B21198E840C4B2A7423846F1
:1008100000D32046A742394600D82146081A401C7A
:10082000314610F0EFFC0121A7420ED90F9AB142D8
:100830001AD203464B431B19FF2B00D3FF23AB40B7
:1008400017681F4380C2491CF1E70F9AB1420BD2CF
:10085000731A4343DB19FF2B00D3FF23AB4014680B
:100860001C4310C2491CF1E71298401CC4E72C9F9E
:100870002B9C0E9808990A180D98099909180F9140
:100880000C9E03460120C71B012F00D1BFE0257835
:100890000D2E05D10A2D03D17F1C641C0A26F3E717
:1008A00009900B9847430A9E308971791291641C14
:1008B00085425C497944089102D37189A9420DD2DD
:1008C0000D2D01D00A2D24D10E98129940180E90AA
:1008D000401890422E460D98D3DD98E00792281AD2
:1008E0000C9030691093089DA8470690F068A847BF
:1008F0000C998900059140184088069908180690BF
:10090000F068A847109B0599455CF07908900C9E0B
:1009100010E0C02D079205D33F21294000202E462C
:100920000D4605E068B200283CD400202E4605465E
:10093000089006900E9A58190F99884209D90E9975
:10094000129809180818079A904268DC0D9B0A460D
:1009500000E00E990E9106980028109315D00C9285
:100960000246129868430A99097948430490039211
:10097000029113A8019009988840009018460C999C
:100980002A46129B0EF096FB06E0129800901198F2
:1009900019462B460EF0B0FB0898281810994018FD
:1009A000079A6EE7A806109301D50F2000E00E20ED
:1009B000FFF784FE002822D00C900069089EB04703
:1009C00012900C98C068B0473246E906490E05916E
:1009D000401840881299081806900C9EF0689047BD
:1009E0000599435C0A9880790E990818B179421AE2
:1009F00070791290002008902E461D4605E00020D8
:100A00002E460546089006900E9A109B93E798B2E2
:100A10000E990904081800E0002023B0F0BD98B238
:100A2000F7E7C04681850000F0B59BB01992189198
:100A300007462198411E02468A4116921A1A012140
:100A400000261492002A0A4600DC3246169C144006
:100A500016948022209C22400C92402222400F9229
:100A6000202222400B92102222400E920822224085
:100A70000A92042222400D920222224009920C4046
:100A80001094CD1A149A891A0591C01A401C03902B
:100A9000501E07901898801A401C06901998401E06
:100AA000049003202299119131461393089799429B
:100AB00000DD85E11C4612901098002815961795C8
:100AC0001A9106D10998002852D0169800281ED1F4
:100AD00044E01698002835D001260096199845184C
:100AE0000798231A1198189F39462A460EF004FBDE
:100AF0000096159EE21908980599511807462A464E
:100B0000179D149B0EF0F8FA0998002830D0199818
:100B100025181398A04209D00120009003981A9933
:100B20004318119818992A460EF0E6FA0120009011
:100B300006981A99411838462A46149B0EF0DCFA9A
:100B4000179D15E001200090049842183846189926
:100B500023460EF0D1FA0998002809D00120009010
:100B600019982018421E384618991A9B0EF0C4FA9C
:100B70000D98002806D10A98002858D01698002809
:100B80001ED131E01898061B169800281ED00127A8
:100B9000009719981A9942180292079D631B1198A1
:100BA00031460EF0A9FA00970898711B0746029A81
:100BB000179D149B0EF0A0FA0A980028159E36D0B7
:100BC0001398A0421CD11998251826E00120009006
:100BD00004981A9942183846314623460EF08CFA8A
:100BE0000A980028159E22D001200090189881199B
:100BF00019982018421E38461A9B0EF07DFA16E00E
:100C000001200090189881191998251803981A9AAC
:100C1000831811982A460EF06FFA0120009006986A
:100C2000811938462A46149B0EF066FA179D0E98D5
:100C3000002806D10B98002851D0169800281ED104
:100C400044E0199886191698002833D0012500959C
:100C50000798231A1198189F394632460EF04CFA1D
:100C60000095179DE21908980599511807463246D4
:100C7000149B0EF041FA0B980028159E2FD019985E
:100C8000051B1398A04209D00120009003981A99DF
:100C90004318119818992A460EF02EFA0120009058
:100CA00006981A99411838462A46149B0EF024FAE1
:100CB000179D14E0012000903846189932462346CB
:100CC0000EF01AFA0B980028159E08D0012000900B
:100CD0001998021B384618991A9B0EF00DFA0F98B6
:100CE000002806D10C98002857D0169800281FD14C
:100CF00031E0199886191898051B169800281DD000
:100D0000012002900090079FE31B1198294632466C
:100D10000EF0F2F9029800900898E91B0746324657
:100D2000149B0EF0E9F90C980028159E179D34D0FD
:100D30001398A0421AD11998051B24E001200090B5
:100D400038462946324623460EF0D6F90C9800283C
:100D5000159E179D21D0012000901898811919988F
:100D6000021B38461A9B0EF0C7F916E001200090CE
:100D7000189881191998051B03981A9A83181198C5
:100D80002A460EF0B9F901200090069881193846DC
:100D90002A46149B0EF0B0F9179D601E012D2346C4
:100DA00000DB0346012D00DA00204000281A1299CA
:100DB0000D180846881C761E1A99491C139476E66D
:100DC0001BB0F0BDF0B589B08E68022E20D80C465D
:100DD0000421415E08910221405E05902068069042
:100DE00060680790E06808F027F80546A768206962
:100DF00008F022F80ECC0124B4404B43534300A921
:100E0000B0C103900493089905AB0DCB0EF052F9D5
:100E100009B0F0BD7FB500200390029002AD082418
:100E2000284621460EF0F6F8A8780299414003982A
:100E30004840A97941402970E8786A784240687949
:100E40005040EA7942406A70D0B20090054D4E465B
:100E50007019401CCBB21721034A7A4407F0EEFD0B
:100E600074557FBD000000002F140100F0B58FB055
:100E700007AD28461830072110F088FC062068705E
:100E800011202870A81C24497944102210F084FCF9
:100E90000024EC751820A8756C750C20287512209C
:100EA000E8740520A8741A4849460818C588868839
:100EB00018480F18384611F021F80097C3B2304691
:100EC0002946224601F0A8F9012500281CD1114E1F
:100ED000182007A901F070FA002815D14846851995
:100EE000284611F00BF8C0B20094019002950394CB
:100EF000049405940694302160222046234600F095
:100F00005DFF0546401E854128460FB0F0BDC04636
:100F10001800000000000000C0270100F0B589B0F3
:100F2000444F4846C019002181841421017301F007
:100F300025FA002872D1FFF76DFF002006213F4AF5
:100F40007A4401F0C9F9002868D101F093F800282B
:100F500064D14846C01901460831821D00920191B2
:100F6000031D012000241822214600F0F3FF002871
:100F700054D10125284600F06FFF00284ED104947B
:100F80002D480390029510260196082008900090A5
:100F9000284629462A462B4600F080FF00283DD1EE
:100FA0004846C0190E300090022025497944012599
:100FB00009232A4601F07CF800282FD14846C119A0
:100FC000C88910310A2200961646019402940392B1
:100FD0000495059102211B4A7A449923079101F057
:100FE000B7F800281AD14846C119C8891231089AA1
:100FF00000920192079A0292039604950591124D70
:101000007D44992311462A4601F0A2F8002805D113
:101010000120072101F08EF9002802D0012009B03B
:10102000F0BD4846C019C462FFF720FF411E884149
:10103000F5E7C0461800000040E201003827010033
:101040009C2601008026010068260100F8B50446B0
:10105000174D4F467819482110F098FB00F02EF8F4
:101060001448442139543818002C01D1214600E09D
:101070000321C170012181700026467004210EF009
:1010800055F87C51002C05D00B4849460818406A99
:10109000002802D04846465105E00020014606F0EF
:1010A00083F9FFF73BFF044849460818C683F8BD9B
:1010B00018000000CC000000BC070000B0B50848D4
:1010C000494624220A54074A8A18002353600C1800
:1010D0006568636020460DF089FF6560B0BDC0465D
:1010E000F80100009002000010B504464068083086
:1010F00000F004F8411E8841207010BDFEB5044682
:101100004078E61C01253E2806D0FF2812D005288D
:10111000284600D190E0FEBDE078012808D1B078E3
:10112000F17809020A18002000F09AF8FFF7C6FFCC
:101130002846FEBD30787178090208184049884277
:1011400011D0404988421AD03F4988421AD03F49BD
:1011500088421BD03E49884230D03E49884234D034
:101160003D498842D4E7E079401E0128DED83B485B
:10117000494608184089052100F032FFD6E700F003
:1011800081FAD5E7706800F0BDFAD1E7307971795E
:1011900009020918314A48468018008A801C884292
:1011A000C6D1607B0128C3D1A07B00282846B2D1DC
:1011B00048468218012010769182FEBD2748494694
:1011C00008183179C91E0173B2E7307971790902C3
:1011D0000918224F4846C019408A401C8842A7D1AE
:1011E0004846C01900228263007E002808D0607A39
:1011F00021460A3100F082F8307971790902091824
:10120000B078F278637A0A340093019412021018CD
:101210000022134601F030F8002800D07BE7484652
:10122000C019826B002A83D04846C119088A3C3114
:10123000D2B200F03FF87BE7FFF740FF00F02AF85A
:10124000010400000204000009040000010C000079
:10125000030C0000130C000005040000180000003F
:101260007CB5104609494D466E18142131737281C0
:101270007D21890000910C2118220024234601F0D1
:10128000C3F8347602482818C4837CBD18000000D7
:10129000BC07000005484946081800220276044BA6
:1012A000C918CA834281102006F092FD1800000080
:1012B000BC070000F8B514460D4606460D494846E1
:1012C00040187D210901C18348460B494018C08957
:1012D0000095002731463A46234600F09DFF4328FB
:1012E000F2D04528F0D06428EED048460149401895
:1012F000C783F8BDBC07000018000000F8B502461F
:10130000774D4846431900209863002A06D04B4683
:101310005B1925241B5D002B17D0F8BD67234946B8
:1013200049193C220E248C5405228A633C314880A2
:101330004B700871484641190022CA628A84694B81
:10134000C01808624A838A83F8BD0B78002B23D02B
:10135000012B37D0022B48D0082B59D0052BDED1DA
:101360004B465B1924241B5D002BD6D1032A034670
:10137000D5D34B465B199C8B230A4E789E4203467D
:10138000CDD1E3B28E789E420346C8D1002C5AD00C
:10139000042A5CD20723C2E70323052ABFD34A7875
:1013A000002ABCD189780029B9D148464019442186
:1013B000002242540264402104234354C2630921A1
:1013C0008163B7E70523032AA9D34C78002CA6D163
:1013D0008C78002CA3D148464019092A00D3092251
:1013E00082633C3010F0DCF9A4E70423032A96D38F
:1013F0004C78002C93D18C78002C90D14846401921
:10140000092A00D3092282633C3010F0C9F9F8BDE3
:101410000623052A83D34A78002A00D07FE78978FB
:10142000002900D07BE7484640190021C1633C21D8
:10143000082242540621816301463C3101220A718F
:10144000007B4871F8BD052A2BD2082367E7D21E1E
:1014500048464019468B93B2B34200D81646006AFC
:10146000C91C214A4F46BA187D231B01D383B4B24D
:10147000224610F095F97819016A09190162418B29
:10148000891B4183828B521C8283080400D044E76D
:101490004846154941180022CA834019C06A48804D
:1014A000F8BD4B465C190F4E9B190E79CF7823621D
:1014B0003B029E196683B7B2E7620123052A00D179
:1014C0002DE74124A400A74200D928E7501F82B28B
:1014D000BA4200D806464846024A8018491DC0E76D
:1014E00018000000B8060000BC070000F0B503AF0C
:1014F0008DB06E46B1624D494A4655182A7BD21DC1
:1015000007239A436B469B1A9D462422AD5C002D0F
:1015100001D0012086E04C461D461346621849461C
:10152000012473613461D454106200209083B36A43
:1015300053833F4A89184880691D71607562E91CB0
:10154000B160F0601A4611045BD00520736AF06246
:1015500018704846354C0019858B9D70290A5970C2
:10156000017B90B2002DB262356214D04A46121946
:10157000CB1E834200DB0346156A33639CB2B0681E
:101580002946224610F00CF92819F0610321F16276
:10159000716A264C14E01A71120ADA704A4612195E
:1015A000491F814200DB0146156A31638AB2F2614C
:1015B0007068294610F0F4F8F0692818F061716A33
:1015C0004A46131925203269B0611A54306A421C08
:1015D0009A83B26A356B521B5A83F069186270693C
:1015E000185C002818D048460519288AF26A336B1F
:1015F000D218D2B2FFF75EFEF068B16968546A8B08
:10160000A1E74A460A4C1055084951187369C85455
:1016100088831119488005E048460019F168B269CD
:1016200081540220FC1F053CA546F0BD18000000B7
:10163000BC070000E0B56A46064B1846114601DFBC
:1016400005480099814201D101988CBD042006F023
:10165000BFFBC046EC890060D489009080B50020B3
:101660000549074A7A4403F0BBFA04494A4651182F
:1016700006220A63486380BD40420F001800000044
:10168000CDFFFFFF70B50F4E4D46AC19FFF7E6FFDB
:1016900003460620E0600020207220461030102112
:1016A0000A4A7A4407F0CAF92320A8551820606036
:1016B0000548281806497944416020460DF096FCFB
:1016C00070BDC046F801000090020000BA08010099
:1016D0001B00000010B50446FFF7F0FC07488442E9
:1016E00007D1074849460818416B408900F00CFCB7
:1016F00010BD0120FFF7AAFC10BDC046115010B06C
:101700001800000070B503460F484D462818062102
:10171000016343630D4EAC19E16001202072204645
:10172000103010210B4A7A4407F088F92320A8557D
:10173000182060600648281807497944416020460F
:101740000DF054FC70BDC04618000000F801000008
:1017500090020000360801001F00000010B504468A
:10176000FFF7ACFC0748844207D1074849460818F0
:101770004089012100F05AFC10BD0120FFF766FCF2
:1017800010BDC046115010B01800000070B50446DE
:10179000C000052631460FF035FD0546204631468E
:1017A0000FF0B6FD002900D06D1C204600F002F8B5
:1017B000281870BD80B505210FF0AAFD012907D0BA
:1017C000042907D0032907D0022907D1042080BDAE
:1017D000062080BD012080BD032080BD002080BD8B
:1017E000FEB514460E4602901046FFF7E3FF05468D
:1017F00001942046FFF7CAFF0095411B00221346C3
:10180000994237D0D408651C019FBD4201D2755D55
:1018100000E00025375D07241C40072C16D0012C62
:1018200017D0022C1AD0032C08D0042C09D0052C78
:101830000AD0062C15D16C09BD070CE02C09FD0758
:1018400009E0EC093D0706E07C0608E01F2427407C
:1018500008E0AC097D07ED0E671903E0BC06E70E52
:1018600000E0FF08094C7C44E45D029DEC54521DED
:101870005B1CC5E70299081800994942002903D06A
:101880003D224254491CF9E7FEBDC046191E010025
:10189000F8B50E4605463D2132460FF097FF074644
:1018A000AC190020C2433846002807D0844205D036
:1018B000411C00783D280846F6D023E00092002F16
:1018C00000D07E1B05207043C6083046FFF772FF2C
:1018D000002F00D0E71B009AB84213D10A4F7F4473
:1018E0003446002C0DD0287801F00DF90146202255
:1018F00038460FF06BFF6D1C641E0028F1D1009A72
:1019000000E032461046F8BDA11D0100F0B589B0D7
:1019100014460546069108461146FFF7B9FF0746EB
:101920000022089205260792104631460FF06AFC05
:10193000002F71D0049705954643052108980FF0B4
:1019400061FC254604460698005D01F0DCF801467E
:10195000324F7F44202238460FF038FF0390601C3E
:101960000021A8420B460BD201910699085C01F0B8
:10197000CAF80146202238460FF028FF0199C31B00
:10198000079A961BA01CA8422C460CD20699085C0C
:101990001D4601F0B8F80146202238460FF016FF28
:1019A0002B46079AC11B0398C01B042E059D0DD022
:1019B000012E049F10D0022E17D0032E1AD0002E15
:1019C000029920D1C000D906490F11E01F210B4018
:1019D00040011918049F16E08007000E0E46D90634
:1019E000890E0818F106C90F0CE00001D906090F8D
:1019F000091808E0C007000E0E46D906490E08185F
:101A0000F106890F4118029129706D1C0898083061
:101A100008907F1E521C85E709B0F0BD2D1D010006
:101A2000F0B503AF8DB06E463262F1617060002098
:101A3000316A814207D00146F069405C002805D137
:101A4000491C0846F4E7306A014600E0306AF1605C
:101A5000411A8A20484364210FF0D4FB0446083021
:101A6000334901406846451A611CAD462846B160BD
:101A70000FF0A2FE306AB46175612919316100214D
:101A8000B162F168814221D2F0697162405C00224A
:101A90003369002802D1B16A8A4212D219780D0244
:101AA00005433A24284621463263F3620FF0AAFB2D
:101AB000F36A326B4443291B1970C0B25B1E521C7F
:101AC000E7E7716A491CB262306ADBE7B068B16A65
:101AD000401A054600D3B568B169814206D37169E1
:101AE000095C002901D1401CF6E705467468002C0A
:101AF00015D0312220463563F56829460FF054FE93
:101B00006019356B0B4979442A46B3699A4206D865
:101B100073699B5CCB5C0370401C521CF5E7F0685A
:101B2000B1680818401BFC1F053CA546F0BDC04627
:101B3000F8FFFF079E1B010070B514460D460646D0
:101B4000121F881800F006F8304629462246FFF793
:101B500067FF70BD70B588B004466D462026084604
:101B600011462A4633460CF0DFFE284631462A4607
:101B700033460CF0D9FE00982070010EE170010C84
:101B8000A170000A607008B070BD0000F0B503AF2E
:101B90008BB06E460025B0607161AA4204D04B5DE7
:101BA000312B02D16D1CF8E71546B261511B354847
:101BB00048437D21C9000FF025FB02460346F06033
:101BC0000832314911406846441A591CA54620463E
:101BD00031600FF0F1FDF461F068201830610020F1
:101BE000B062C4437560B069854222D27069756283
:101BF000415D264878443A2530622A460FF0E6FDDA
:101C000000283AD0316AC9B2421A00203169D2B2F2
:101C1000002A02D1B36A984207D20B786B439A1814
:101C20000A700919120A401CF1E7756A6D1CB0624E
:101C3000D9E73368B06A1A1A154600D31D46B06852
:101C4000F168914206D3F169895C002901D1521CE7
:101C5000F6E715465A1B7168541800280DD00FF08E
:101C6000ABFDB06871684018F268954205D8F1691B
:101C7000495D0170401C6D1CF7E72046FC1F053CC8
:101C8000A546F0BDDD020000F8FFFF00B01A01001C
:101C900010B50A46014600242046FFF777FF0328C7
:101CA00000D8E04310BD7CB50546FFF76FFF061F67
:101CB00001AC204629463246FFF74CFFA85DA91922
:101CC0004A78120210188A78C9780902891809041A
:101CD00008182178627812025118A278E3781B0262
:101CE0009A1812045118411A484248417CBD00001C
:101CF000F0B5FFB086B004AC0FC40120010244AEC1
:101D000030460CF053FE34AF4024384621460FF0E5
:101D100053FDFF20023078808B988A9D002D039020
:101D200000D128467870819838701036224979445D
:101D300030463A46234606F038F8002D2CD014A839
:101D400080210FF023FD08AC204610F08DF8A0850F
:101D5000000411D108A80DF039FA129014AC2046F5
:101D60002946039A0FF018FD00210091019144A823
:101D7000802322460CF0A8FD0DF014FA08A9884231
:101D800002D112980DF022FA14A880210FF014FD50
:101D900008A8808D00280CD1049800900598019027
:101DA00044A80121069A079B0CF08EFD7FB006B077
:101DB000F0BD06F00DF8C046B6190100F0B5CBB085
:101DC000150A04AC2571E2700A0AA2706170519D77
:101DD000E5715099A1716371207003A902910020EF
:101DE0000190087027460837529938462A4607F06E
:101DF00013F8539E7E557819471C5499384632463D
:101E000007F00AF85598B855B919569A130ACB70C5
:101E10008A70000A487045A800901822019F394630
:101E200007F000F801204A9002984990A8190D3057
:101E3000C0B248904794074845900098394605F04D
:101E4000DFFA002801D4039800E0F843C0B24BB099
:101E5000F0BDC0463F008300F0B5C9B002AE30709F
:101E600001AF00243C7043AD18222846214606F0FD
:101E7000D9FF0120489047974690459606484390E1
:101E80002846214605F0BCFA002801D4019800E05C
:101E9000E043C0B249B0F0BD3F008500F0B5C9B025
:101EA000519C250E02AEB572250C7572250A35724D
:101EB000F471529CF472509CB4714F9C74714E9C9E
:101EC0003471F370B2707170307001AF00243C70E7
:101ED00043AD18222846214606F0A4FF0120489071
:101EE00047970C2046904596064843902846214641
:101EF00005F086FA002801D4019800E0E043C0B262
:101F000049B0F0BD3F008600F0B5C9B00A0C02AE82
:101F1000B2807180308001AF00243C7043AD182244
:101F20002846214606F07EFF01204890479706206C
:101F300046904596064843902846214605F060FAAB
:101F4000002801D4019800E0E043C0B249B0F0BDE0
:101F50003F008800F0B5CDB0009301920291044695
:101F600004A803900026072731463A4606F05AFF98
:101F700006AD0198A870029868702C7047AC1822C2
:101F80002046314606F04EFF4C97039F4B970320A7
:101F90004A904995114847902046314605F030FA5D
:101FA000002818D404A80078002815D1781C53996B
:101FB000529A037844782402E318009C23808378A3
:101FC000C4782402E3181380027940790002801853
:101FD0000880304600E0FF204DB0F0BD3F008A0091
:101FE000F0B5C9B002AEB170308001AF00243C70D2
:101FF00043AD18222846214606F014FF01204890E0
:1020000047970320469045960F20449006484390FA
:102010002846214605F0F4F9002801D4019800E093
:10202000E043C0B249B0F0BD3F009300F0B5C9B085
:1020300002AEB170308001AF00243C7043AD182275
:102040002846214606F0EEFE0120489047970320DF
:1020500046904596064843902846214605F0D0F91B
:10206000002801D4019800E0E043C0B249B0F0BDBF
:102070003F00A50070B588B001AE0024347002ADF9
:1020800018222846214606F0CDFE0120079006962C
:10209000064802902846214605F0B2F9002801D4EE
:1020A000019800E0E043C0B208B070BD3F000101FC
:1020B000F0B5CBB0019302920F46064603A800216B
:1020C0000324224606F0AEFE04A80670B11E4A4262
:1020D0004A410225012E294600D01101012E02D0CD
:1020E000022E2DD11025401C461839462A4606F0EE
:1020F00093FE019870700298307045AF0026182248
:102100003846314606F08EFE4A9403A84990E81CF2
:10211000489004A847900D4845903846314605F050
:102120006FF900280ED403A8007800280BD150982E
:1021300003A94A788978090289180180304602E0AB
:10214000472000E0FF204BB0F0BDC0463F00020139
:10215000F0B5CFB01D4606920F46064607A80021EF
:102160000324224606F05EFE08A887700680B91E8A
:102170004A424A410226012F314600D01101012F67
:1021800002D0022F40D11026C01C47185899019147
:102190000594579C5699029155990391549904912D
:1021A0000699324606F038FE280A78703D7001988C
:1021B000B8717C71029838710398F8700498B870FF
:1021C00049AF002518223846294606F02BFE05980F
:1021D0004E9007A84D900A364C9608A84B900D4893
:1021E00049903846294605F00BF900280ED407A877
:1021F000007800280BD1599807A94A7889780902F4
:1022000089180180284602E0472000E0FF204FB0F7
:10221000F0BDC0463F000401F0B5C9B01D4602AF95
:102220007B713A717980388001A800900024047095
:10223000B81D4E991A4606F0EFFD43AE18223046FF
:10224000214606F0EFFD0120489000984790A81D18
:10225000C0B246904597074843903046214605F066
:10226000CFF8002801D4019800E0E043C0B249B0A3
:10227000F0BDC0463F000601F0B5C9B002AF4E9DAB
:10228000BD717B713A717980388001A8009000247B
:102290000470F81D4F992A4606F0BEFD43AE182281
:1022A0003046214606F0BEFD012048900098479038
:1022B000E81DC0B2469045970648439030462146F7
:1022C00005F09EF8002801D4019800E0E043C0B278
:1022D00049B0F0BD3F002601F0B5C9B00D4602AFD0
:1022E0007970387001A8009000240470B81C114661
:1022F0002A4606F091FD43AE18223046214606F0EC
:1023000091FD0120489000984790A81CC0B24690CB
:102310004597074843903046214605F071F800285C
:1023200001D4019800E0E043C0B249B0F0BDC0461E
:102330003F000C00F0B5C9B002AE7170307001AF53
:1023400000243C7043AD18222846214606F06AFD61
:1023500001204890479702204690459606484390B2
:102360002846214605F04CF8002801D4019800E0E9
:10237000E043C0B249B0F0BD3F000F0070B588B077
:1023800001AE0024347002AD18222846214606F022
:1023900049FD0120079006960648029028462146EE
:1023A00005F02EF8002801D4019800E0E043C0B207
:1023B00008B070BD03000300F0B5C9B002AE3070C4
:1023C00001AF00243C70701C1F2206F025FD43ADB8
:1023D00018222846214606F025FD012048904797FF
:1023E000202046904596074843902846214605F010
:1023F00007F8002801D4019800E0E043C0B249B0DA
:10240000F0BDC04608000900F0B5C9B002AE4E9C50
:102410003481F380B2807180308001AF00243C7041
:1024200043AD18222846214606F0FCFC01204890C6
:1024300047970A20469045960F20449006484390BF
:102440002846214604F0DCFF002801D4019800E072
:10245000E043C0B249B0F0BD3F008101F0B595B096
:10246000039306468020002333503748F0603748F6
:10247000B06037487060374830600868306148683D
:1024800070618868B061C868F06108693062486945
:1024900070628869B062C869F0621B983063106826
:1024A00070635068B0630493F3671A980290B06742
:1024B0003046803043609068F06305AC019430464C
:1024C000214600F049F83046403021460246B8C95E
:1024D000B8C24322B35C0F210B40B3543546433599
:1024E000049A6A732A790A402A712A7A0A402A725F
:1024F0002A7B0A402A736978FC2211406970697945
:1025000011406971697A114069721124214600F005
:1025100019FB3746513701991031102238460FF018
:102520003BF90498A8773846214600F00BFB30466B
:10253000623021460FF040F930460399029A00F0CC
:1025400081F815B0F0BDC0467465206B322D6279FC
:102550006E64203365787061F0B593B00C46014627
:102560004022204601910FF017F920463C3004909C
:1025700020462C30039020461C30119020460C3011
:102580001090204638300F90204628300290204688
:1025900018300E90204608300D90204634300C90B4
:1025A000204624300B90204614300A90201D0990BC
:1025B0002046303008902046203007901294103486
:1025C000069400211E4D7D44029E039C049F0A290F
:1025D00028D20591129806AB0ECBA84709AB0FCBBA
:1025E000A8470D980E9932460F9BA847109811994D
:1025F00022463B46A84712980A9932463B46A847CE
:1026000009980E992246089BA8470D981199079A98
:102610000C9BA847109806990B9A0F9BA847059901
:10262000491CD4E70020019B129C402805D0195872
:10263000225851182150001DF7E713B0F0BDC046D5
:1026400037020000F0B58BB0150603464033029305
:10265000623003901009431C039C002B35D0002DE1
:1026600001DC002000E028160206120F01D010261F
:1026700000E0C6B2002E22D006AF384632460591A1
:1026800004930FF089F8B8191021891B0FF094F802
:102690000120387411263846314600F053FA20469E
:1026A00021463A4633460CF09FFB0096084B7B448C
:1026B00020462146029A0CF0F7FB049B05990F2057
:1026C00000072D1810315B1EC7E70BB0F0BDC046E8
:1026D0007E100100F0B593B017460D468021425898
:1026E00001468031029149680026D2187141314675
:1026F000714101291FD01C46016B491C016303A9CC
:102700000190FFF729FFB44206D0B85D03A9895DA7
:102710004140A955761CF6E7019829462246FFF765
:1027200091FF029A1068002100191060506848411A
:10273000506013B0F0BD014805F04AFB05B1000040
:10274000F0B593B015460F468021425801468031BE
:10275000029149680026D218714131467141012920
:102760001FD01C46016B491C016303A90190FFF7B0
:10277000F3FEB44206D0A85D03A9895D4140B95576
:10278000761CF6E7019829462246FFF75BFF029A7E
:10279000106800210019106050684841506013B063
:1027A000F0BD014805F014FB05B10000F0B587B09D
:1027B00001910546806FE96F0391029080202858AF
:1027C0000490284680304068059002A910262846CB
:1027D0003246FFF737FF2F4662375135112438460E
:1027E00039462A4623460CF0FFFA3846214600F0C7
:1027F000A9F90198394632460EF0CEFF07B0F0BD78
:10280000B0B50C6805682C1904601D68654010247B
:10281000E5411D601468641914600D686540142456
:10282000E5410D600468641904601868604018246C
:10283000E04118601368181810600A6842401920B7
:10284000C2410A60B0BD0000F0B587B006AD0024FB
:102850002C7005950120029005A8019000947948FC
:10286000784440219F23224605F0D0FA002800D169
:10287000DDE02878012800D0D9E00EF0A1FB054664
:102880000EF022FC342068436A4F4946CE19324686
:1028900068326D4B7B441350674B0325CD5415189C
:1028A0006A48784404222A712C6203956862CD1824
:1028B0006C6028460CF09AFB686002200CF09CFCCF
:1028C0006860B06E00283BD04846C0196C24015D9A
:1028D0007A25405B884233D20CF044FB574988424A
:1028E00004D10CF071FB5549884229D14846C019E2
:1028F000405B4946C9190A5D81B291421DD2382612
:10290000304648434A46D3199A6E101868331B6AFA
:10291000002B06D09847002809D04946CA19515BB8
:10292000926E012801D14E43901902F075F9484684
:10293000C119485B401C4853DBE701D10CF0A8FBF0
:102940000398243003904B20800004904846C0191F
:10295000806E00283BD04846C0196C26815D7A25E0
:10296000405B884233D20CF0FDFA3449884204D1EE
:102970000CF02AFB3149884229D14846C019405BF6
:102980004946C9198A5D81B291421DD23824204638
:1029900048434A46D3199A6E101868331B6A002BB5
:1029A00006D09847002809D04946CA19515B926E53
:1029B000012801D14C43101902F02EF94846C119E3
:1029C000485B401C4853DBE701D10CF061FB4C46EF
:1029D0001B482018002204990CF0CEFBE41905F0E6
:1029E000C5FB6C20205C7A21615A8142AED305F090
:1029F000ADFA039C484612494018002204990CF095
:102A0000BBFB05F0B3FB0CF0A5FB002802D020684F
:102A10000028EFD10EF0F2FA05F04EFC05F056FC5E
:102A2000484607494018002204990CF0A5FB07B05E
:102A3000F0BDC04690020000F8010000115010B037
:102A4000CC0000009C250100AC0E0100AB01000091
:102A50000A49084088420FD109494A46501858305F
:102A60005158491C074A7A44491E05D0436B3430FB
:102A70009342F9D1002101600020704703000080DB
:102A800090020000E7FFFFFF10B58CB00BF0ACFE2A
:102A90006C4620460FF0E8F9A085000407D168468F
:102AA0000CF094FB0A900020C0430CF0DFFA0CF00D
:102AB00079FB6946884202D10A980CF087FB684688
:102AC000808D002801D10CB010BD05F081F9000007
:102AD00010B502460748504001230024884218469A
:102AE00000D3204651188908402900D823461843AE
:102AF00010BDC046FFFF000020385F2801D3002032
:102B000070470120704701466139C9B21A2900D2C5
:102B10002038C0B2704701464139C9B21A2900D2E3
:102B20002030C0B2704710B500231A46994203D036
:102B3000845C531C002CF8D08A4201D2002010BDC6
:102B4000012010BD10B50A18521E490800290DD0E9
:102B5000137804785C400470137863401370047831
:102B60005C400470401C521E491EEFE710BD00007F
:102B7000B0B5094B7B44002A0CD00C7824091C5DAD
:102B800004700C780F2525405C5D4470491C801C46
:102B9000521EF0E7B0BDC046AE0C0100F8B50C46C1
:102BA000064600252F460A22304621462B460EF0C7
:102BB000B7FC7F1C0922921B2A46A24106460C46FE
:102BC000F1D33846F8BDF0B58BB016461099002900
:102BD00000901ED03546049303910A2202920024ED
:102BE0002846049923460EF09BFC06460F46029A9F
:102BF000029423460EF0B4FC281A049A8A41024338
:102C00000AD10399491E0806354604973B46E3D18D
:102C100007E00020029004E02B46039802902E4625
:102C2000049B1820029F039019463C460A27002562
:102C3000304604933A462B460EF072FC0290019106
:102C40003A462746039C2B460EF08AFC321A302166
:102C50000A43601E05AB1A543A0613D07F1E3A068B
:102C6000019B11D1A01E05AA2E241454002709226D
:102C7000921B3A46049CA24106D30398C01E05AAA3
:102C8000115401E02F46019B0921891B04998D41B4
:102C9000029EC8D33906C6D105A909181822121AEE
:102CA00000980EF079FD0BB0F0BD0000D0B502AF7A
:102CB00094B06E46F51D413504464D484946081806
:102CC0004079002802D14D4805F082F8494A48462B
:102CD00080188178002909D10179002906D0484659
:102CE0008018C078002801D1412903D34348001D32
:102CF00005F06EF8404A484680184078401E022889
:102D000058D20A460720C3437360F161C81D1840BA
:102D10006946081AF06085463261104601F09AF95A
:102D2000B061C01D716808406946081A7061854627
:102D3000F01D193030600FF097F831688885000475
:102D40001BD1F01D19300CF041FA286049462A4881
:102D50000818B0602830274A89184A1DF16833697D
:102D6000FFF7EEFC82B020200090B068831C7069F1
:102D7000F168326901F072F902B00CF013FAF11D3A
:102D80001931884202D128680CF020FAF0683169C4
:102D90000EF012FDF01D1930808D00280CD1B569A0
:102DA00020882946FFF794FE002807D067200002FC
:102DB00005F00EF8D120000205F00AF82A464D462B
:102DC0000C4828182188401871690EF0E5FCF0695C
:102DD000402801D3022000E0032007496918487009
:102DE0002088B169401820800920000304F0F0FF1A
:102DF00060000000B80600000806000001B10000F5
:102E0000D0B502AF96B06E46F51D4935494B4946DF
:102E1000CA189178002909D11479002C06D04946A6
:102E2000C918C978002901D1412C02D3434804F0C4
:102E3000CFFF414A494689184978491E022958D28C
:102E400070620720C1437160E01D08406946081A9E
:102E500070618546B461204601F0FCF83062C01D07
:102E6000716808406946081AF0618546F01D2130F6
:102E700030600EF0F9FF3168888500041BD1F01D29
:102E800021300CF0A3F9286049462B480818B0609F
:102E90002830284A89184A1D7169B369FFF750FC28
:102EA00082B020200090B068831CF0697169B2691B
:102EB00001F0D4F802B00CF075F9F11D213188420F
:102EC00002D128680CF082F97069B1690EF074FCC7
:102ED000F01D2130808D00280DD1316A756A288857
:102EE000F160FFF7F5FD002807D06720000204F02D
:102EF0006FFFD120000204F06BFF49460D4831619D
:102F0000081829884018F169F2680EF045FC402C39
:102F100001D3022000E00320726A0749336A346952
:102F2000611848701088C01810800920000304F050
:102F30004FFFC046B80600004808000005B1000079
:102F4000DCB504AF6E4604462C4849460818407963
:102F5000002802D12C4804F03BFF294A484680183B
:102F60008178002909D10579002D06D048468018BE
:102F7000C078002801D1412D03D32348001D04F05F
:102F800027FF20494846405C401E022818D2E81D11
:102F90000721884369460B1A49461A480818283001
:102FA00089184A1D9D46736019462B46FFF792FB10
:102FB00020882946FFF78CFD002805D0672000E017
:102FC000D120000204F004FF49460D483160081882
:102FD0002188401871682A460EF0DEFB402D01D38F
:102FE000022000E00320074932685054208840192D
:102FF00020800920000304F0EBFEC04660000000C2
:10300000B80600000806000001B10000DFB506AFF9
:103010006E460246284C484600198178002909D19D
:103020000579002D06D048460019C078002801D146
:10303000412D02D3224804F0CBFE20494846405C93
:10304000401E02281AD2E81D0721884369460B1A40
:1030500049461A48081828300919F2604A1D9D4649
:10306000B36019462B46FFF735FBF0680088294608
:10307000FFF72EFD002805D0672000E0D1200002D8
:1030800004F0A6FE484670600019F1680C460988F5
:103090004018B1682A460EF07FFB402D01D3022074
:1030A00000E00320054972685054208840192080B0
:1030B0000920000304F08CFEB80600004808000058
:1030C00005B100001F4C484600190179202932D172
:1030D0008178C07808432ED148460019401D202130
:1030E00000F0A6FA002826D018484946095C0029B5
:1030F00024D0494609180D4618352CCD496A194384
:1031000015430D431AD1494609188A68CB68134301
:1031100014D04978002911D149460D182846283085
:103120000919491D002200F079FE0120687009206C
:10313000000304F04DFE044804F04AFED1200002D2
:1031400004F046FEB806000005B10000F8080000D3
:10315000A0B004462F4E48468019817802790A4370
:10316000C078104340D12D4F4846C05D00283ED066
:103170004846C019034618330ECB406A10430B4330
:10318000034334D101AD28460EF06EFEA88500043D
:1031900010D101A80CF01AF80B904846C11928313B
:1031A0002120202216AD2B460BF0FEFC0DA829464F
:1031B00000F054FA0BF0F6FF01A9884202D10B98F7
:1031C0000CF004F816A828210EF0F6FA01A8808D5C
:1031D00000280ED120882121FFF77AFC00280AD090
:1031E0006720000204F0F4FD0B4804F0F1FDD1204B
:1031F000000204F0EDFD48468019218840180DA911
:1032000021220EF0C9FA20882130208009200003F5
:1032100004F0DEFDB806000005B10000F80800006B
:10322000D0B502AF9EB06E46F21D49325B4D4846A6
:1032300040198178C07808434DD14846401900793B
:10324000594979440B6819460931814243D14846AE
:103250004019417955487844006888423BD37262EE
:1032600031628A00F060D01D0721884369463361CE
:103270000C1A48464019811DA54620460EF08CFACE
:10328000B46121463469F068002804D00A6812BA93
:1032900004C1401EF8E7484640190019417A827A75
:1032A00012025118C27A037B1B029A181204531897
:1032B0004179827912025118C279007A000280188D
:1032C000000441180846184305D048464019201804
:1032D000447B022C02D3324804F07AFD314D48463B
:1032E000405D002807D0716148464119086A496A63
:1032F00002460A4303D1D120000204F069FD72693D
:10330000801A9941E7D3F361F01D213070600EF00F
:10331000ABFD7168888500041DD1F01D21300BF0D4
:1033200055FF716A086048464019B060416884B032
:10333000B0690090306A01900294F41D5134204627
:103340007269F36900F070FA04B0B06828300022A6
:10335000214600F063FD0BF025FFF11D213188426D
:1033600003D1706A00680BF031FFF01D513020214D
:103370000EF022FAF01D2130808D0028BDD1484684
:103380004019016A7269891A0162416AF2699141C0
:1033900041620920000304F01BFDC046B80600008E
:1033A00005B10000F80800000E060100F605010056
:1033B000D0B502AF9EB06E46F21D49325B4D484615
:1033C00040198178C07808434DD1484640190079AA
:1033D000594979440B6819460931814243D148461D
:1033E0004019417955487844006888423BD372625D
:1033F00031628A00F060D01D07218843694633613D
:103400000C1A48464019811DA54620460EF0C4F905
:10341000B46121463469F068002804D00A6812BA01
:1034200004C1401EF8E7484640190019417A827AE3
:1034300012025118C27A037B1B029A181204531805
:103440004179827912025118C279007A00028018FB
:10345000000441180846184305D048464019201872
:10346000447B022C02D3324804F0B2FC314D484672
:10347000405D002807D07161484641198869C969D3
:1034800002460A4303D1D120000204F0A1FC726974
:10349000801A9941E7D3F361F01D213070600EF07E
:1034A000E3FC7168888500041DD1F01D21300BF00C
:1034B0008DFE716A086048464019B060416884B06A
:1034C000B0690090306A01900294F41D5134204696
:1034D0007269F36900F0A8F904B0B06828300122DD
:1034E000214600F09BFC0BF05DFEF11D213188426E
:1034F00003D1706A00680BF069FEF01D5130202185
:103500000EF05AF9F01D2130808D0028BDD14846BB
:10351000401981697269891A8161C169F2699141B1
:10352000C1610920000304F053FCC046B806000046
:1035300005B10000F80800007E04010066040100E7
:10354000F0B503AF95B06E46F51D31353160706052
:10355000002A5DD41446F01D3930334979441422D1
:103560000EF01AF90120C00704432C494A4651586D
:103570000143E960F5602C616846B0606C46403CF0
:10358000A546F51D093528460EF06EFCA8850004F9
:1035900025D1F01D09300BF019FEF168086084B0E8
:1035A0000C202249794400943268019202910390E0
:1035B00000202125F21D3932052329460BF0E4FCB9
:1035C00004B020222846214675682B460BF0ECFA01
:1035D00069680835284600F02BF800281BD00BF04E
:1035E000E1FDF11D0931884203D1F06800680BF05C
:1035F000EDFD402120460EF0DFF8F01D0930808DF2
:10360000002809D1B0688546FC1F053CA546F0BDE1
:10361000044804F0DDFB024804F0DAFB600000001F
:1036200001D1000005B10000DC030100A803010086
:10363000B0B5002420290DD1054607497944202240
:103640000BF0A6FB002805D5202128460BF0B6FB81
:10365000444244412046B0BD3002010070B594B0F0
:103660000A460546212001AC0126214633460BF0CF
:10367000B1FA02980019C0793040801C2870681C8B
:103680000934202221460EF087F814B070BD0000E6
:10369000F0B503AFAFB06E46F41D5D34B463716333
:1036A0000546F41D8D34F868002805D12846716B55
:1036B000F360FFF745FFF3682134F462B868F21D48
:1036C00065320832294608317162F11D8D31491C7D
:1036D00031621C463563B262002800D197E0F06188
:1036E00068467061B4616C462046B4694038306108
:1036F0008546F51D353528460EF0B6FBA885000435
:10370000B56B63D1F01D35300BF060FD2860256886
:10371000002D0DD4356B2878B06021202870F01D65
:103720008D302946FFF79AFFB0682870256809E0B8
:10373000F01D8D3000210170306B4268306A716A73
:103740000EF02AF8F16ACD70280A8870280C4870AB
:10375000280E087082B04020346900940190202522
:10376000F21D8D322523706B29460BF067F902B0EC
:10377000306B0078F31D653321462A460BF014FAAE
:10378000B56BE968B46A2046FFF752FF002842D0C3
:10379000E86882B00090224B7B4420462146726A42
:1037A0000BF04EFB02B0E9682046FFF741FF00280E
:1037B00031D0316920312022706B0DF0EDFFF11D09
:1037C00065312822306B0DF0E7FFB4690BF0EAFC9D
:1037D000F11D3531884202D128680BF0F7FCF01D4D
:1037E0008D3025210F4D7D44A84740213069A847E1
:1037F000F01D65302821A847F01D3530808D002848
:103800000AD170698546241DF069401E64E7FC1FDB
:10381000053CA546F0BD014804F0DAFA01D10000EC
:10382000D4000100CFDF0000F0B5D5B01D4617462B
:103830000491064668460A901FAC412120460DF0CF
:10384000A5FF0420207013AC20460EF00DFBA085D0
:1038500000041ED00BF0A6FC13A9884202D11D98CB
:103860000BF0B4FC1FA84121554C7C44A04730A864
:103870006C21A0474BA82821A0470BA82021A047D6
:1038800013A8808D002800D08EE00A98854655B098
:10389000F0BD069509965C9E5B9C5A9D13A80BF0A3
:1038A00095FC1D9000200094044601904BA80BA9A4
:1038B000049A2B46FFF7ECFE012E08D0002E099843
:1038C000C8D14C9A4BA908310DF066FFC2E7069BA0
:1038D0003A464BAF083700971FA80390461C304666
:1038E00000F070F830AD28460BF00AF8009401940F
:1038F000212302932846214632460AF0E5FF2C494F
:1039000079444022304607920DF046FF2025059667
:1039100030462946FFF716F9039E344621342046E7
:103920002946FFF70FF90095412202983146089782
:103930003B460BF009F9002835D01E4D7D44042785
:10394000059E304639462A463B460BF0E3FA2046B0
:1039500039462A463B460BF0DDFA202730463946E9
:103960000BF02CFA00281ED11FAA0798105C012129
:103970000840801C1070099C0094019730A82123F6
:103980000AF0A2FF0C49794420463A460BF000FAAF
:10399000002808D50097094B7B4420462146089A09
:1039A0000BF04EFA56E7014804F012FA01D100007C
:1039B0005C00010070FF0000E6FE0000D4FE000085
:1039C0004BDF0000F0B5BFB0069314460890449852
:1039D000674979442022079005920BF0D9F9002815
:1039E00000D4BFE02EAD4127284639460DF0CEFE6B
:1039F00004262E701DAD284639460DF0C7FE2E70E8
:103A000011AD28460EF030FAA885000478D111A82F
:103A10000BF0DCFB1B902046069E304329D003961A
:103A200027462EA80490401C5249794440220DF0AC
:103A3000B3FE09AD182128460DF0A8FEEC77200A48
:103A4000A877200C6877200E28770398E876300A4C
:103A5000A876300C6876300E2876059800902120E4
:103A6000412204992B460BF06FF8414241410D462B
:103A700000E001251DA8401C3F49794440220DF07B
:103A80008BFE2026079F384631460BF097F9002819
:103A90004DD0002D66D12EAD6C1C384F7F44204692
:103AA00031463A4633460BF035FA21352846314641
:103AB0003A4633460BF02EFA0898401C214632460F
:103AC0000DF06AFE009701962D4A7A442046294659
:103AD00033460BF003FA09AA0220107000970196F2
:103AE0000123204621460BF0F9F9204629463246AB
:103AF0000DF0ACFE41424141092048400899087050
:103B00000BF050FB11A9884202D11B980BF05EFB11
:103B10002EA8412421460DF04FFE1DA821460DF090
:103B20004BFE11A8808D00281DD13FB0F0BD00963E
:103B300021201DA9412422463B460BF005F8002810
:103B4000A7D0002D05D02EA81DA941220DF024FEDE
:103B5000A1E7009421202EA91DAB0A460AF0DAFF46
:103B6000002898D1014804F033F9C04605B100009F
:103B70009AFE000072FF00007BFE000010FE0000B5
:103B800002FE0000F0B503AFA7B06E46F51D653527
:103B90007261F160B061F41D3D3420460EF064F9AD
:103BA000A08500043AD1F01D3D300BF00FFBF5610C
:103BB0002860F51D6D35002428462146F268FFF780
:103BC000BFFCF01D1930B0602946FFF747FD68467D
:103BD00030616D46203DAD4682B0009401942024B2
:103BE0002120706028462146B2687368FEF780F88D
:103BF00002B082B07069009070680190B06921468F
:103C00002A462346FEF774F802B0B0692146FFF752
:103C10000FFD002819D030698546F5690BF0C2FA0E
:103C2000F11D3D31884202D128680BF0CFFAF01D1A
:103C30006D3028210DF0C0FDF01D3D30808D002835
:103C400004D1FC1F053CA546F0BD014804F0C0F8B6
:103C500001D10000F0B503AFA5B06E46F31D5D3392
:103C60007361F2600D4630616846B061F41D353411
:103C700020460EF0F9F8A085000439D1F01D35304A
:103C80000BF0A4FA7169086082B0002400940194DA
:103C9000F01D65307060F11D15312A462346FFF78F
:103CA000F7FC02B06846B0606D46203DAD467069D5
:103CB000C36882B0009401947268083220242846B8
:103CC0002146FEF715F802B082B02120F16800917C
:103CD0000190306921462A462346FEF709F802B0D2
:103CE00030692146FFF7A4FC002820D0B068854643
:103CF0000BF058FAF11D3531884203D17069006824
:103D00000BF064FAF01D653028210DF055FDF01D13
:103D1000153020210DF050FDF01D3530808D00282C
:103D200006D1B0698546FC1F053CA546F0BD01489B
:103D300004F04EF801D10000F0B5B5B01E460C46B7
:103D4000054634926846079020AF38460EF08CF84E
:103D5000B88500043AD1049620A80BF037FA2A90CF
:103D60000120002300930193059002902CAF274A75
:103D7000384606942146FFF757FD4020019010AECB
:103D80000096244878440D2120243A4623460AF020
:103D900055FE0498314622462B460AF005FF696815
:103DA00028460830FFF744FC00282BD010A920310A
:103DB00008AC202220460DF0EFFC05980090019001
:103DC00034AB28462146069AFFF762FC0BF0EAF96D
:103DD00020A9884202D12A980BF0F8F92CA82024B7
:103DE0000D4D7D442146A84710A84021A84708A8AA
:103DF0002146A84720A8808D002804D10798854631
:103E000035B0F0BD024803F0E3FFC046C902000030
:103E100001D1000058FC0000D3D90000F0B503AF79
:103E200097B06E46F31D1D3333627261F160B0606E
:103E30000125284605F07CFA0446C01D0721884369
:103E40006946081A8546F0613561294605F07CFA15
:103E50007060F51D253528460EF006F8A88500048B
:103E60007068B06126D1B568F01D25300BF0AEF951
:103E7000316A0863F068B06202237069002818464E
:103E800000D130690D6082B00090F21D1D32B06922
:103E9000294606F07FF802B0002825D020212846C8
:103EA000FEF741FE002805D120212846FFF7C0FB80
:103EB00000281CD00BF076F9F11D2531884203D182
:103EC000306A006B0BF082F9B06905F0E1FAF06935
:103ED00021460DF071FCF01D2530808D002807D1A2
:103EE000FC1F053CA546F0BD034803F071FF0148E7
:103EF00003F06EFF05B1000001D10000F0B503AF83
:103F0000CFB06E46514CA41974627361B261F16115
:103F100030624B4C204605F00BFA0546C01D0721C8
:103F200088436946081A8546B062214605F00CFAB6
:103F3000B060474CA41920460DF096FFA085000400
:103F4000B46858D13561BD68414880190BF03EF91D
:103F5000716A0860F01D253020210AF09FFCF56091
:103F6000002D0FD0F11DC53121232046F26805F048
:103F7000ADFA00285ED0F01DC5304021FEF7D3FD1C
:103F8000002857D1FA68F11D85312123204605F01C
:103F90009DFA00284ED0F01D85304021FEF7C3FD6C
:103FA000002847D1254686B0F01D25300590F01D2C
:103FB00085300490F01DC530F1680029F269B369BD
:103FC00000D1084600217469009401910290039089
:103FD0000833F11D45312C46284607F019FB06B081
:103FE00000282AD0F21D45322046316A05F0E4FB54
:103FF000002822D035690BF0D5F815498919884277
:1040000003D1706A00680BF0E1F8F01D2530202123
:104010000DF0D2FB204605F03BFAB06A29460DF0C0
:10402000CBFB0B488019808D002807D1FC1F053C75
:10403000A546F0BD034803F0CBFE034803F0C8FEDD
:104040000102000005B1000001D1000034010000B0
:104050000C01000010300F2188437047F0B503AF0A
:104060009DB06E46F41D4134F4613361B061154674
:10407000B26010350F2085436846441BA546204694
:104080000DF08AFB7461B16860182C46691ACAB2D7
:104090000DF08AFBF51D193528460DF0E5FEA885C3
:1040A000000419D1B868F060F01D19300BF08EF8DB
:1040B000F1690860F51D49353069F1682A460AF052
:1040C000F7FC82B0B06900900194452128467269DE
:1040D00023460AF003FD02B00BF064F8F11D19311C
:1040E000884203D1F06900680BF070F8F01D493088
:1040F00024210DF061FBF01D1930808D002803D1C3
:10410000FC1F053CA546F0BD03F062FE70B59CB0F7
:104110000D4604466E4630460DF0A6FEB0850004FE
:1041200022D168460BF052F80A9069682846083098
:104130000CAD40262A4633460AF00CFC2878F821BC
:1041400001402970E87F7F210140E977E87F304313
:10415000E877202628463146FEF7F4FC6120294600
:10416000324623460AF020FD0BF01CF869468842CF
:1041700002D10A980BF02AF80CA840210DF01CFB84
:104180006846808D002801D11CB070BD03F020FE70
:10419000F0B59BB0019002AE02203070701C20255B
:1041A0002A460DF0F9FA4120314602460AF03CFD5C
:1041B00013AC1F2120460DF0E9FA0120E0770095AD
:1041C0002136114F7F440198214632463B460AF082
:1041D00037FE00953046214632463B460AF04AFEFD
:1041E000304631463A462B460AF0A8FE0095019C1F
:1041F0002046214632463B460AF056FE20462946D6
:10420000FEF7A0FC1BB0F0BD25F8000010B5202A79
:104210000BD0382A11D0342A1AD10F4A4B469A189B
:104220005279002A14D076240EE00B48494608182B
:10423000C07900280CD0492010BD074A4B469A1877
:104240009279002A04D07A24FEF7A8FC001910BD48
:10425000024803F0BDFDC0466000000005B100004B
:10426000F0B587B00446059304920E980D9D0C9905
:10427000202846D01F46164638281FD034286DD136
:1042800003913948494608184079002868D0002031
:1042900034220290294603F0A5FC002860D0212298
:1042A00020460399FEF764FC20464230342229461A
:1042B0000DF072FA0298009076341CE003912A48BF
:1042C00049460818807900284AD0002038220290F8
:1042D00029460BF071F8002842D02122204603998C
:1042E000FEF746FC20464230382229460DF054FAAB
:1042F000029800907A34204632463B46FEF763FC33
:104300002CE00E46184849460818C079002827D0E6
:104310002021284600F02CF8002821D004A80821EC
:10432000FEF710FC0598207104992170020EE271CD
:10433000020CA271000A6071080EE070080CA070F7
:10434000080A607020460830212231460DF024FA18
:1043500029342022204629460DF01EFA07B0F0BD70
:10436000024803F035FDC0466000000005B10000C2
:10437000F0B503AF8FB06E46F21D2D32202913D158
:104380000446B260F51D053528460DF06DFDA88583
:1043900000040BD0F01D053000248485B06800684F
:1043A0000AF014FF20462AE0002028E0F01D053026
:1043B00070600AF00BFFB1680860684630606D46B7
:1043C000483DAD4602202870681C202221460DF091
:1043D000E3F94120294602460AF026FC306885466A
:1043E0000AF0E0FE7168884203D1B06800680AF004
:1043F000EDFEF01D0530808D002804D10120FC1F4A
:10440000053CA546F0BD03F0E3FC0000F0B503AFAA
:10441000A1B06E461546F1607061FC68BA68202B49
:10442000326131D0382B6CD0342B00D093E04B4824
:10443000494608184079002800D18CE0492C00D367
:1044400089E0F01D31303422294603F0CBFB0028EF
:1044500000D180E0F21D1132B26020257069F16850
:104460002B460AF061FA84B00095306901900294FD
:10447000F01D31303B490322B3680AF04FFC04B011
:10448000002862D1002461E0344849460818C07908
:10449000002860D0402C5ED120212C462846FFF712
:1044A00067FF002857D06846B0606D46483DAD466E
:1044B00002202870681C202221460DF06DF941244D
:1044C0002046294622460AF0AFFBF31D3133204631
:1044D000294622461D460AF051FB86B040200024A2
:1044E000F1680091019402943169039104900121D3
:1044F0000522284673690AF0CFFB06B0B1688D46E5
:1045000021E01648494608188079002823D0402C1D
:1045100021D1F01D3130382229460AF04DFF002804
:1045200019D086B040200024F168009101940294D3
:10453000316903910490F01D313001210522736926
:104540000AF0AAFB06B0002800D001242046FC1F78
:10455000053CA546F0BD024803F03AFC60000000AF
:1045600005B1000001060000F0B59FB00178FE2201
:104570000A400026082A41D1471C224D7D442024B0
:104580003846294622460AF003FC002836D516AAEA
:10459000032010700095019417A804900123039341
:1045A000194E7E4402963946B0470EAF1F21384659
:1045B0000DF0ECF80720F8770094049E3046314661
:1045C0003A462B460AF03CFC0095019406AF0F4A90
:1045D0007A44384631462346029EB04705AA022057
:1045E00010700095019438463946039BB047384611
:1045F000049922460DF02AF94642464130461FB042
:10460000F0BDC04630F3000037A90000FCF2000006
:10461000F0B59FB00026212946D10178FE220A403C
:10462000022A41D1471C224D7D4420243846294688
:1046300022460AF0ADFB002836D516AA03201070DA
:104640000095019417A8049001230393194E7E440A
:1046500002963946B0470EAF1F2138460DF096F846
:104660000720F8770094049E304631463A462B46A0
:104670000AF0E6FB0095019406AF0F4A7A443846EB
:1046800031462346029EB04705AA022010700095CD
:10469000019438463946039BB04738460499224670
:1046A0000DF0D4F84642464130461FB0F0BDC0463A
:1046B00084F200008BA8000050F20000F0B5A1B019
:1046C00004460078FE210140022961D1601C334E6E
:1046D0007E442025039031462A460AF059FB0028E3
:1046E00056D518AA0320107000960195059419ACB0
:1046F000012304932A4F7F44029720460399B84729
:1047000010AF1F2138460DF041F80720F8770095CB
:104710000694204621463A4633460AF091FB00961D
:104720000195059C21341F4A7A44204606992B4660
:10473000029FB84707AA022010700096019508AEA4
:10474000304603942146049BB847304606992A46D2
:104750000DF07CF800281BD1059C2078C01E411E5E
:1047600088414021615C049A114041400CD12021D4
:1047700003980AF023FB002806D10B497944202333
:10478000039802460AF046FB0420207021B0F0BDD9
:10479000014803F01DFBC04605B10000DCF100003C
:1047A000E3A70000A4F1000030F10000F0B5A9B0CB
:1047B0000D4604466E4630460DF056FBB0850004AB
:1047C0001AD168460AF002FD0A9018487844026837
:1047D0001FAF4126384629463346FFF7ADFA0CADE8
:1047E0000123304629463A460AF0F4F908350D9A75
:1047F000304629460AF004FA0AF0D4FC6946884299
:1048000002D10A980AF0E2FC1FA828210CF0D4FF7C
:104810006846808D002807D10CA909312022204646
:104820000CF0BAFF29B0F0BD03F0D2FABCFA0000D8
:10483000F0B503AFBDB06E46F11DD93170638A602B
:10484000F163CB600120F0620402651C284604F08D
:104850006FFD0721C9437161B063C01D08406946FF
:10486000081A85463064294604F06EFD0546F11DA0
:104870003D31742204F01CFEB061204605F02FFE8D
:104880007062C01D716908406946091A8D463D4A2B
:104890007A4428463163234605F026FE7060F41DF5
:1048A000B13420460DF0E0FAA08500042C46B06932
:1048B000B062756833D17869F0603869B06035628C
:1048C0002546FC68F01DB1300AF080FCF16B0860F1
:1048D00090B0002340202C497944F26A0892099153
:1048E0000A900B942C46356AB0680C900D930E9389
:1048F000F0680F900793F81D013006900593F01DA6
:10490000E130049003930293706B01900093204672
:10491000B16A2A4605F064FE10B000282DD0B06BB5
:10492000F061706A30610AF03DFCF11DB1318842DE
:1049300003D1F06B00680AF049FC2046294605F0D7
:1049400031FE2546114C7C44306B3169A047B06A7A
:1049500004F0BBFDF01D3D307421A047284604F053
:1049600097FD306CF169A047F01DB130808D0028B3
:1049700004D1FC1F053CA546F0BD014803F028FA10
:1049800001D1000065F00000C4F000006FCE00000F
:10499000F0B503AFE1B06E46654CA419F51DBD3509
:1049A000F56371647063A260B464E360FF24023451
:1049B000204604F0BDFC30640721C9437161C01D6D
:1049C00008406946081A8546F0643463214604F0BD
:1049D000BBFCF11D49317422044604F069FDB0614D
:1049E0008025284605F07BFDB062C01D7169084036
:1049F0006946091A8D46524A7A442046B1632B46CD
:104A000005F072FD70604B4DAD1928460DF02CFA83
:104A1000B16AA8850004306CB269F2627268726291
:104A200056D13869B0602546FC68424880190AF0C2
:104A3000CDFBB16C086090B000234020414979441F
:104A40000122089209910A900B94B0680C900D9382
:104A50000E930F930793F81D013006900593364887
:104A600080190490F01DC1300390344880190290E1
:104A70000193009335622846F16A726A05F0B0FD31
:104A800010B000284FD02120F46BF060206082B07D
:104A9000306B451C0095F21DBD32284B9B19306AC6
:104AA000716B04F0D9FD02B000283CD0F0682060A2
:104AB00082B00095F21DBD32F31DC133346A204629
:104AC000716C04F0C9FD02B000282CD0306CB16AC2
:104AD000F06131610AF066FB16498919884203D1F9
:104AE000B06C00680AF072FB2046716A05F05AFD4E
:104AF000154D7D44B06B3169A847F06A04F0E5FCC0
:104B0000F01D49307421A847204604F0C1FCF06C28
:104B1000F169A84707488019808D002804D1FC1F3F
:104B2000053CA546F0BD014803F052F901D1000053
:104B30007001000048010000780100000801000039
:104B4000FDEE00005EEF0000C3CC0000B0B50446EF
:104B50001B4820811B481C492160606020460A30A8
:104B60001A49794412220CF017FE24204D212154B9
:104B7000204624300021C1704321817057214170AB
:104B8000204629301249794406220CF005FE2046C1
:104B90005830104979442CC92CC00F48784401681A
:104BA00040682163606320463830214630316166B9
:104BB000A0660A49794420220CF0EEFDB0BDC04643
:104BC000014500000901010051020000AAEE0000A9
:104BD0001FD4000080EF000050EF000040EF000005
:104BE000F8B5164604460D1A681E054205D1B047B1
:104BF00029460CF08DFB08460CE00020C0432946F6
:104C00000CF000FB07464543B047A842FCD23946AA
:104C10000CF0F8FA0019F8BD80B503F057FC80BD20
:104C2000B0B50546072028400024012815D00228E9
:104C300015D10C48002908D04A4610180AF076FA17
:104C400028060AD509F018FE07E049460818412150
:104C5000890000220AF090FA04462046B0BD0220E6
:104C600003F0B6F8B8060000F0B585B0DD4E484652
:104C7000805D052832D0152858D00D2800D187E056
:104C80000E2800D1ABE00C2800D0D0E0D6494D462C
:104C9000012068546C180027676020460AF0A6F9C6
:104CA000606002200AF0A8FA6060D04C29194968B7
:104CB000002900D1E0E0CE4A904201D100F0DDFCB5
:104CC000002801D100F0D9FC4D462A1957608847C9
:104CD000F6482818F84944314160D8E0F3494D4678
:104CE000012068546C180027676020460AF07EF99E
:104CF000606002200AF080FA6060ED4C2919496872
:104D0000002900D113E1EB4A904201D100F0B5FC3B
:104D1000002801D100F0B1FC4D462A1957608847A0
:104D2000E2482818E449443141600BE1E348494630
:104D300008188079012806D1484680198079000733
:104D400001D400F0B0FCD94E4D460120A855AC1955
:104D50000027676020460AF049F9606002200AF0E7
:104D60004BFA6060D24C29194968002900D1F5E25C
:104D7000D04A904200D144E3002800D141E34D469F
:104D80002A1957608847A819CB4944314160E9E2A4
:104D9000C64E4D460120A855AC1900276760204635
:104DA0000AF024F9606002200AF026FA6060C04C24
:104DB00029194968002900D11CE1BE4A904201D15D
:104DC00000F05BFC002801D100F057FC4D462A1989
:104DD00057608847A819B8494431416015E1B34983
:104DE0004E4601207054751800276F6028460AF05F
:104DF000FDF8686002200AF0FFF904466860AC4DD7
:104E000070194168002900D15CE1AA48844200D1B0
:104E1000ADE1002C00D1AAE14E4670194760204652
:104E20008847A2483018A449443141604EE19F4E62
:104E30004D460120A855AC190027676020460AF0AE
:104E4000D5F8606002200AF0D7F96060984C291903
:104E50004968002900D1ECE1964A904200D13CE239
:104E6000002800D139E24D462A1957608847A81911
:104E7000914944314160E0E18E49884200D1FCE330
:104E8000002800D1F9E38E49884200D006E3484665
:104E9000061903F011FA03F019FA7A257753B06E68
:104EA000002800D1E9E3484680494018406881491C
:104EB000884200D1E1E3002800D1DEE34846001932
:104EC0006C26805D002800D1D7E37B4F0AF04AF8BA
:104ED000B84204D10AF078F8B84200D0CDE3484691
:104EE0000019405B494609198A5D81B2914200D39D
:104EF000C8E23827384648434A4613199A6E1018B4
:104F000068331B6A002B06D09847002809D0494611
:104F10000A19515B926E012801D14F43D01903F059
:104F2000D5FA48460119485B401C4853DAE7614905
:104F3000884200D1A1E3002800D19EE36049884265
:104F400000D007E34846061903F0B6F903F0BEF9AE
:104F50007A257753B06E002800D18EE34846534936
:104F6000401840685349884200D186E3002800D1A8
:104F700083E3484600196C26805D002800D17CE35D
:104F80004D4F09F0EFFFB84204D10AF01DF8B842C6
:104F900000D072E348460019405B494609198A5D12
:104FA00081B2914200D36DE23827384648434A46E1
:104FB00013199A6E101868331B6A002B06D0984795
:104FC000002809D049460A19515B926E012801D187
:104FD0004F43D01903F07AFA48460119485B401C48
:104FE0004853DAE7CC000000F8010000900200000E
:104FF000445010B02F49884200D13EE3002800D130
:105000003BE32F49884200D0EDE248462849441846
:1050100003F052F903F05AF97A256753A06E244C35
:10502000002800D129E34846801940682149884278
:1050300000D122E3002800D11FE3484600196C2666
:10504000805D002800D118E31B4F09F08BFFB842A8
:1050500004D109F0B9FFB84200D00EE34846001968
:10506000405B494609198A5D81B2914200D309E249
:105070003827384648434A4613199A6E1018683341
:105080001B6A002B06D09847002809D049460A1908
:10509000515B926E012801D14F43D01903F016FAEB
:1050A00048460119485B401C4853DAE7F801000004
:1050B00090020000445010B0115010B0BC07000026
:1050C000555010B0F2484430844250D148464619F9
:1050D00003F0F2F803F0FAF87A2400203053B06EAF
:1050E000002800D1C9E24846EA4940184068EA4928
:1050F000884200D1C1E2002800D1BEE248464019F2
:105100006C26805D002800D1B7E2E14F09F02AFF4C
:10511000B84204D109F058FFB84200D0ADE2484689
:105120004019005B494649198A5D81B2914200D31A
:10513000A8E13827384648434A4653199A6E101852
:1051400068331B6A002B06D09847002809D04946CF
:105150004A19115B926E012801D14F43D01903F017
:10516000B5F948464119085B401C0853DAE7484640
:10517000411994200958002913D00A46643A00D2F4
:105180003A464B465B191A5064290AD8902159585F
:10519000002906D04A4652199823D35813500020AC
:1051A0008847BD48844200D167E2002C00D164E208
:1051B00048464019806E002800D16AE248464019EE
:1051C0006C24015D7A26805B884200D361E2B04F97
:1051D00009F0C8FEB84204D109F0F6FEB84200D08A
:1051E00057E248464019805B494649190A5D81B239
:1051F000914200D34AE23827384648434A46531979
:105200009A6E101868331B6A002B06D09847002846
:1052100009D049464A19915B926E012801D14F434A
:10522000D01903F053F948464119885B401C885354
:10523000DAE79749443188424FD14846061903F0CE
:105240003BF803F043F87A257753B06E002800D17D
:1052500013E248468F49401840688F49884200D180
:105260000BE2002800D108E2484600196C26805D58
:10527000002800D101E2864F09F074FEB84204D143
:1052800009F0A2FEB84200D0F7E148460019405BA1
:10529000494609198A5D81B2914200D3F2E038276C
:1052A000384648434A4613199A6E101868331B6AE9
:1052B000002B06D09847002809D049460A19515BAF
:1052C000926E012801D14F43D01903F0FFF84846F0
:1052D0000119485B401C4853DAE748460019806EC4
:1052E000002800D1BFE1484600196C25415D7A26AF
:1052F000805B884200D3B6E1EE4F09F033FEB8423E
:1053000004D109F061FEB84200D0ACE14846001972
:10531000805B494609194A5D81B2914200D39FE101
:105320003827384648434A4613199A6E101868338E
:105330001B6A002B06D09847002809D049460A1955
:10534000915B926E012801D14F43D01903F0BEF852
:1053500048460119885B401C8853DAE7D549443137
:1053600088424ED14846061902F0A6FF02F0AEFF71
:105370007A257753B06E002800D17EE14846CB49AC
:1053800040184068CA49884200D176E1002800D11F
:1053900073E1484600196C26805D002800D16CE15D
:1053A000C44F09F0DFFDB84204D109F00DFEB84248
:1053B00000D062E148460019405B494609198A5D00
:1053C00081B291425ED23827384648434A46131983
:1053D0009A6E101868331B6A002B06D09847002875
:1053E00009D049460A19515B926E012801D14F43F9
:1053F000D01903F06BF848460119485B401C48532C
:10540000DBE748460019806E002800D12BE14846B2
:1054100000196C25415D7A26805B884200D322E129
:10542000A44F09F09FFDB84204D109F0CDFDB84268
:1054300000D018E148460019805B494609194A5DC9
:1054400081B2914200D30BE13827384648434A469F
:1054500013199A6E101868331B6A002B06D09847F0
:10546000002809D049460A19915B926E012801D1A2
:105470004F43D01903F02AF848460119885B401CB5
:105480008853DAE700D0F8E009F002FEF5E0C04604
:10549000115010B0F8010000445010B04A461519E0
:1054A0006C200490285C0390A86E02909219D37926
:1054B000967951791079D2782F4668373F6A0092F1
:1054C00001970002401882B23002C01883B20298DD
:1054D000039902F073FFA86E049D002800D1DEE05E
:1054E00048460019415D7A26805B884200D3D6E0A9
:1054F000704F09F037FDB84204D109F065FDB8429C
:1055000000D0CCE048460019805B494609194A5D45
:1055100081B2914200D3BFE03827384648434A461B
:1055200013199A6E101868331B6A002B06D098471F
:10553000002809D049460A19915B926E012801D1D1
:105540004F43D01902F0C2FF48460119885B401C46
:105550008853DAE7484600198C214058002805D0C6
:1055600049468919C978490802F0D8FF4846001908
:10557000806E002877D0484600196C25415D7A2658
:10558000805B88426FD24B4F09F0ECFCB84203D1EC
:1055900009F01AFDB84266D148460019805B4946B9
:1055A00009194A5D81B291425AD238273846484398
:1055B0004A4613199A6E101868331B6A002B06D0DE
:1055C0009847002809D049460A19915B926E012834
:1055D00001D14F43D01902F079FF48460119885B89
:1055E000401C8853DBE748460019806E00283AD0FB
:1055F000484600196C25415D7A26805B884232D28C
:105600002C4F09F0AFFCB84203D109F0DDFCB842E1
:1056100029D148460019805B494609194A5D81B283
:1056200091421DD23827384648434A4613199A6E8C
:10563000101868331B6A002B06D09847002809D041
:1056400049460A19915B926E012801D14F43D01946
:1056500002F03CFF48460119885B401C8853DBE799
:1056600001D109F015FD484600196C21415C7A22F0
:10567000805A884201D309F06DFD09F06BFD0028C6
:1056800001D102F063FC012005B0F0BD01D109F0A9
:10569000FFFC48464019E8E701D109F0F9FC48460B
:1056A0000019415DE3E7102002F092FBF8010000D1
:1056B000445010B0115010B0D0B502AF90B06E464B
:1056C000F41D313403464148494608184079002802
:1056D00002D1404802F07CFB3D49484640188178A1
:1056E000C2780A4356D105793C4878440068A842FC
:1056F00050D13949484640184078FE2101400229DE
:105700004CD1B460F360E81D072188436946081A4C
:1057100070608546F41D093420460CF0A5FBA08579
:10572000000418D1F01D093009F050FDB16808607F
:105730004946316028480818283074682146FDF72A
:1057400035F8234831680818401D21462A4602F0E2
:1057500045FB00281ED1746809F024FDF11D0931B4
:10576000884203D1B068006809F030FD2046294620
:105770000CF022F8F01D0930808D0028F4680FD15C
:1057800020882021FDF7A4F900280BD06720000213
:1057900002F01EFB0F48001D02F01AFBD120000290
:1057A00002F016FB49460A480818228880180A4A5F
:1057B0008918891C20220BF0EFFF208820302080E0
:1057C00002F07AF90920000302F002FB60000000F9
:1057D000B806000001B10000080600003EE000002D
:1057E000D0B502AF90B06E46F41D31343C4A494604
:1057F0008B189978DA780A4356D11D793B49794458
:105800000968A94250D1384A494689184A78FE2188
:10581000114002294BD1B460F060E81D0721884394
:105820006946081A70608546F41D093420460CF05C
:105830001BFBA085000418D1F01D093009F0C6FC3F
:10584000B1680860494631602748081828307468F4
:105850002146FCF7ABFF224831680818401D21465D
:105860002A4602F0BBFA00281ED1746809F09AFC9F
:10587000F11D0931884203D1B068006809F0A6FC27
:10588000204629460BF098FFF01D0930808D002836
:105890000FD1F46820882021FDF71AF900280AD0DA
:1058A0006720000202F094FA0E4802F091FAD1202B
:1058B000000202F08DFA494609480818228880182B
:1058C000094A8918891C20220BF066FF20882030A5
:1058D000208008F03DFB0920000302F079FAC04661
:1058E000B806000005B10000480800002ADF0000EB
:1058F000DCB504AF6E460446254849460818407991
:10590000002802D1244802F063FA22494846401890
:10591000817802790A43C07810431ED11F48494656
:10592000095CFE220A40022A1BD11D4979440D68F8
:10593000E91D072291436A46511A4A461018283039
:105940008D463160FCF732FF208875602946FDF7EF
:10595000BFF8002809D0672004E00F48001D02F0BE
:1059600037FAD120000202F033FA484609494018BC
:105970002188401822CE2A46083E0BF00DFF2088D1
:105980004019208002F098F80920000302F020FA64
:1059900060000000B806000001B100000806000029
:1059A000FCDD0000DCB504AF6E46044620494846E5
:1059B0004018817802790A43C07810431ED11E48EE
:1059C0004946095CFE220A40022A1AD11B49794441
:1059D0000D68E91D072291436A46511A4A4610187C
:1059E00028308D463160FCF7E1FE2088756029463D
:1059F000FDF76EF8002808D0672003E00D4802F09C
:105A0000E7F9D120000202F0E3F9484608494018BE
:105A10002188401822CE2A46083E0BF0BDFE208881
:105A20004019208008F094FA0920000302F0D0F910
:105A3000B806000005B10000480800005ADD00006B
:105A4000F0B503AF89B06E467061BF4B4846C018D1
:105A5000C278002A00D074E10479C24A7A441568F9
:105A60002A4643323462A24200D96AE18078002893
:105A7000F161B06109D002280CD0012800D060E1AA
:105A8000B24849460818407908E0B0484946081825
:105A9000807903E0AD4849460818C079002800D154
:105AA0004FE14846C0184019441D21212046FDF70A
:105AB0003AF8002806D121212046FEF7A9FD00284A
:105AC00000D13EE14846A04C00192818263021217B
:105AD000FEF79EFD002800D133E14846001942350B
