:02000004C0DE5C
:1000000070B58CB062B6002808D02D494A46531806
:1000100001686C22184613F0DDFB04E028484946CD
:10002000081804F08DFC274E10F016FC4846801985
:100030004F218A000024214607F0EDFC07F0D0FC98
:100040006D46284613F02EFFA88580B2102805D1F2
:10005000684684850A9811F0D7F8E5E7002809D0AA
:10006000684684850A9811F0CFF802F00DFD20460D
:100070000CB070BD684611F0C7F80A9007F024FF75
:10008000052000242146224610F0F8FF0E494A467A
:1000900051184862204612F041F90125284612F015
:1000A0003DF9204607F0ECFA2046214600F0CEFF4D
:1000B00006497944284600F0C9FF07F0D7F8C04642
:1000C0006000000090020000BC070000D641010063
:1000D000F0B593B011931291044600787F27074042
:1000E000052F01D113B0F0BD1546208B00F0E6FAC4
:1000F00000280D9565D00B9743798279129F002FC8
:1001000058D0002D56D009930A92208BE188119A7D
:100110000092EBB2643189B23A4600F0F3FA064637
:10012000E0880021052D0C9153D3864251D9208BB4
:10013000119900916421934A7A44032300F0E2FA72
:100140000E906B08FA18E088002108911092B91AF5
:100150004D190F95002B3FD081B28E423CD9002D16
:100160003AD0208B119D00951F46DBB2129A00F009
:10017000C9FA0646E188208B00950F9DEBB2109AD4
:1001800000F0C0FA3B460E9971180E18E0888642BE
:10019000E0D90899012903D0002904D15B1E02E0AF
:1001A0001099491C10910D9D129F0121089A9143AD
:1001B000109ACAE700210E910E460C910F910B9FE9
:1001C0003DE000210E910E460B460A460C910F9120
:1001D00035E010910E9500E00E9303239D03218BD3
:1001E0000D400122D703BD420AD09703BD420C9DAA
:1001F0000F950D9D0B9F0AD180B2801B0F9006E0DA
:10020000750880B24008401B0F900D9D0B9F18038E
:1002100001405003814206D0100381420CD1208955
:100220000A9A801A05E00A9A5008C04321894908B1
:1002300008180C90109901E010990A9A099B012F57
:1002400065D0022F09D0072F07D0042F5BD0062FCF
:1002500000D1A3E1032F5AD044E7207B01282DD100
:100260001091072F0A923D4600D0002207920420E9
:100270000890205E821A0227E15F6069072D0993CA
:100280000B9500D0238900930F9D2B4610F052FF51
:10029000A819E15F4118E288131A0898205E079AAE
:1002A000821A60690B9F072F01D025890995099D46
:1002B000009510F03FFF0D9D10990A9A12980028A2
:1002C00000D10FE7002D00D10CE70A921091022017
:1002D000225E04200B90205E0890206961690991DC
:1002E000218B0791E388214626893D46129F03977B
:1002F0000E9C0494119F05972F46072D069200D15E
:1003000064E10C9F63E1E07A002800D1C2E1E38858
:100310005A08218948088242154600D30546E67AE4
:10032000B54203D88242164600D30646207B0128F8
:100330002AD104201090225E02200E90255E2069B2
:10034000009171197700DB1BD94D7D44A8470B95AF
:100350000E98215E1098225E2089C31B20690093AD
:10036000B2183346A8470E98215E1098225E208965
:10037000C31B2069E5880093B218891B49193346CD
:100380000B9D6BE03941010004201090225E022099
:100390000A90255E60690091711975000B955B1BD1
:1003A000C24D7D440E95A8470A9FE15F1098225EDA
:1003B00020890B9BC31A60690093B21833460E9DC7
:1003C000A847E15F1098225E20890B9FC31B6569D7
:1003D000E0880093B218F343C91809182846334639
:1003E0000E9DA847109D605F09900A98215E2269C2
:1003F000E388A07A00907118DB1B1046099A0E9FC3
:10040000B847605F09900A9D615F20690890228962
:10041000E388A07A009071180B981B1A099880182D
:10042000421E0898B847605F09901098225E2089A4
:100430000B9D411BA37A20690091B2180999B84716
:100440000A98215E1098225E2089451BA37A2069B4
:10045000E7880095B218C919491E0E9DA847022EBB
:100460000D98129965D3207B012802D0A07A301A0A
:1004700000D2002010900420255E07460A9002203A
:100480000B90215E20696369C0220092109A01924C
:10049000029371187219874D7D440E953346A84713
:1004A000E75F0B9D605F0890206909906369E188B0
:1004B000A07A30220092109A019202933018089A82
:1004C0005118091AF219099833460E9FB847675F09
:1004D0000A9D605F08902069099063692189A07A6C
:1004E0000C220092109A019202933018089A511827
:1004F0000A1AF119099833460E9FB847605F0A90AF
:100500000B98215E20690B9063692589E788A07AA2
:1005100003220092109A019202933018C919091A05
:100520000A9A101A42190B9833460E9DA8470D9847
:100530001299002900D1D5E5002800D1D2E5237B0E
:1005400010211420012B0A4600D00246012B00D0B6
:100550000846A158109120580E900220215E0420D8
:10056000255E208BE6882789A37A129C03940D9C34
:100570000494119C05940124E443002B00D05C43B7
:100580000C9ABB1A1B190F9FF61B341955190095AD
:10059000019402937B180E99109A78E00420205E53
:1005A000E37AC2180220205E19182069267B0025F4
:1005B000012E03D0A67AB34200D99D1B6469FF26A1
:1005C00000960195029400F02FFA8BE500270C4667
:1005D0000146089A0E97F61B0F9FDB1B01930296AC
:1005E000072D01D00C9B01E00A9B5B42099D0798F7
:1005F000069E0C939B1800930F9B9B192A4600F0B4
:10060000D1F802461098002800D16BE52A487844BA
:1006100008900B98265E2069099060690A90218BEA
:10062000E588278903200E9BFF1A0F9BED1A0C9B70
:100630009E19009601950297089B03930490119EC2
:10064000059693B2084609990A9A00F0ABF80A9009
:100650000B98235E20690B9060690990228BE588D6
:100660002489129F0D98C71910983F1A0E99641A81
:100670000F996D1A0C99CB18009301950294039071
:10068000049705960A9883B210460B99099A00F0D0
:1006900089F827E50420225E0220215EE388206994
:1006A0002489009410F046FD1CE5C0468F0D010022
:1006B000E70D01008D050000633C0100F8B50E4D0B
:1006C00005400E487844016888000D4A7A44801835
:1006D000001F4E1C761E0CD0071F0468204608F031
:1006E000E9F90068A8423846F4D1204608F0E2F95A
:1006F000F8BD0020F8BDC046FF0F000018500100F3
:1007000004500100FEB51C4615460191FFF7D6FFC7
:100710000022002843D0019B029021063FD0068989
:100720002F78B74202D34189B94213D20A2F36D06B
:100730000D2F34D0B809032803D33F2007403E468D
:1007400022E078B2002600281ED5B80600920BD50C
:100750000F200AE0B91B8E00C068174608F0AAF9FE
:10076000019B3A46865D0FE00E20FFF7A7FF0028A9
:10077000009A019B08D0C068164608F09BF9019BBF
:100780003246F906490E465C002B03D090B2301871
:10079000984204D8641E6D1C92190298BDE790B26D
:1007A000FEBD0000F0B5A3B00D931091149111920D
:1007B0001392FFF783FF002800D12DE101462A980C
:1007C00008902998099028980E900A910C79002099
:1007D0000C90C0430B90022C49D313AD281D3C2133
:1007E0000F9012F0F1FF119813900B98A040C643A0
:1007F000B000109929500020032838D01290C5006D
:100800001098E840C7B21198E840C4B2A7423846F1
:1008100000D32046A742394600D82146081A401C7A
:10082000314612F00DFD0121A7420ED90F9AB142B7
:100830001AD203464B431B19FF2B00D3FF23AB40B7
:1008400017681F4380C2491CF1E70F9AB1420BD2CF
:10085000731A4343DB19FF2B00D3FF23AB4014680B
:100860001C4310C2491CF1E71298401CC4E72C9F9E
:100870002B9C0E9808990A180D98099909180F9140
:100880000C9E03460120C71B012F00D1BFE0257835
:100890000D2E05D10A2D03D17F1C641C0A26F3E717
:1008A00009900B9847430A9E308971791291641C14
:1008B00085425C497944089102D37189A9420DD2DD
:1008C0000D2D01D00A2D24D10E98129940180E90AA
:1008D000401890422E460D98D3DD98E00792281AD2
:1008E0000C9030691093089DA8470690F068A847BF
:1008F0000C998900059140184088069908180690BF
:10090000F068A847109B0599455CF07908900C9E0B
:1009100010E0C02D079205D33F21294000202E462C
:100920000D4605E068B200283CD400202E4605465E
:10093000089006900E9A58190F99884209D90E9975
:10094000129809180818079A904268DC0D9B0A460D
:1009500000E00E990E9106980028109315D00C9285
:100960000246129868430A99097948430490039211
:10097000029113A8019009988840009018460C999C
:100980002A46129B10F0B4FB06E0129800901198D2
:1009900019462B4610F0CEFB0898281810994018DD
:1009A000079A6EE7A806109301D50F2000E00E20ED
:1009B000FFF784FE002822D00C900069089EB04703
:1009C00012900C98C068B0473246E906490E05916E
:1009D000401840881299081806900C9EF0689047BD
:1009E0000599435C0A9880790E990818B179421AE2
:1009F00070791290002008902E461D4605E00020D8
:100A00002E460546089006900E9A109B93E798B2E2
:100A10000E990904081800E0002023B0F0BD98B238
:100A2000F7E7C046FD810000F0B59BB01992189120
:100A300007462198411E02468A4116921A1A012140
:100A400000261492002A0A4600DC3246169C144006
:100A500016948022209C22400C92402222400F9229
:100A6000202222400B92102222400E920822224085
:100A70000A92042222400D920222224009920C4046
:100A80001094CD1A149A891A0591C01A401C03902B
:100A9000501E07901898801A401C06901998401E06
:100AA000049003202299119131461393089799429B
:100AB00000DD85E11C4612901098002815961795C8
:100AC0001A9106D10998002852D0169800281ED1F4
:100AD00044E01698002835D001260096199845184C
:100AE0000798231A1198189F39462A4610F022FBBE
:100AF0000096159EE21908980599511807462A464E
:100B0000179D149B10F016FB0998002830D01998F7
:100B100025181398A04209D00120009003981A9933
:100B20004318119818992A4610F004FB01200090F0
:100B300006981A99411838462A46149B10F0FAFA7A
:100B4000179D15E001200090049842183846189926
:100B5000234610F0EFFA0998002809D001200090F0
:100B600019982018421E384618991A9B10F0E2FA7C
:100B70000D98002806D10A98002858D01698002809
:100B80001ED131E01898061B169800281ED00127A8
:100B9000009719981A9942180292079D631B1198A1
:100BA000314610F0C7FA00970898711B0746029A61
:100BB000179D149B10F0BEFA0A980028159E36D097
:100BC0001398A0421CD11998251826E00120009006
:100BD00004981A99421838463146234610F0AAFA6A
:100BE0000A980028159E22D001200090189881199B
:100BF00019982018421E38461A9B10F09BFA16E0EE
:100C000001200090189881191998251803981A9AAC
:100C1000831811982A4610F08DFA0120009006984A
:100C2000811938462A46149B10F084FA179D0E98B5
:100C3000002806D10B98002851D0169800281ED104
:100C400044E0199886191698002833D0012500959C
:100C50000798231A1198189F3946324610F06AFAFD
:100C60000095179DE21908980599511807463246D4
:100C7000149B10F05FFA0B980028159E2FD019983E
:100C8000051B1398A04209D00120009003981A99DF
:100C90004318119818992A4610F04CFA0120009038
:100CA00006981A99411838462A46149B10F042FAC1
:100CB000179D14E0012000903846189932462346CB
:100CC00010F038FA0B980028159E08D001200090EB
:100CD0001998021B384618991A9B10F02BFA0F9896
:100CE000002806D10C98002857D0169800281FD14C
:100CF00031E0199886191898051B169800281DD000
:100D0000012002900090079FE31B1198294632466C
:100D100010F010FA029800900898E91B0746324636
:100D2000149B10F007FA0C980028159E179D34D0DC
:100D30001398A0421AD11998051B24E001200090B5
:100D4000384629463246234610F0F4F90C9800281C
:100D5000159E179D21D0012000901898811919988F
:100D6000021B38461A9B10F0E5F916E001200090AE
:100D7000189881191998051B03981A9A83181198C5
:100D80002A4610F0D7F901200090069881193846BC
:100D90002A46149B10F0CEF9179D601E012D2346A4
:100DA00000DB0346012D00DA00204000281A1299CA
:100DB0000D180846881C761E1A99491C139476E66D
:100DC0001BB0F0BDF0B589B08E68022E20D80C465D
:100DD0000421415E08910221405E05902068069042
:100DE00060680790E06807F065FE0546A76820691F
:100DF00007F060FE0ECC0124B4404B43534300A9DE
:100E0000B0C103900493089905AB0DCB10F070F9B5
:100E100009B0F0BD7FB500200390029002AD082418
:100E20002846214610F014F9A87802994140039809
:100E30004840A97941402970E8786A784240687949
:100E40005040EA7942406A70D0B20090054D4E465B
:100E50007019401CCBB21721034A7A4407F02CFCCE
:100E600074557FBD00000000A1340100F0B58FB0C3
:100E700007AD28461830072112F0A6FC062068703E
:100E800011202870A81C24497944102212F0A2FCD9
:100E90000024EC751820A8756C750C20287512209C
:100EA000E8740520A8741A4849460818C588868839
:100EB00018480F18384613F03FF80097C3B2304671
:100EC0002946224601F0A8F9012500281CD1114E1F
:100ED000182007A901F070FA002815D14846851995
:100EE000284613F029F8C0B20094019002950394AB
:100EF000049405940694302160222046234600F095
:100F00005DFF0546401E854128460FB0F0BDC04636
:100F1000180000000000000058480100F0B589B03A
:100F2000444F4846C019002181841421017301F007
:100F300025FA002872D1FFF76DFF002006213F4AF5
:100F40007A4401F0C9F9002868D101F093F800282B
:100F500064D14846C01901460831821D00920191B2
:100F6000031D012000241822214600F0F3FF002871
:100F700054D10125284600F06FFF00284ED104947B
:100F80002D480390029510260196082008900090A5
:100F9000284629462A462B4600F080FF00283DD1EE
:100FA0004846C0190E300090022025497944012599
:100FB00009232A4601F07CF800282FD14846C119A0
:100FC000C88910310A2200961646019402940392B1
:100FD0000495059102211B4A7A449923079101F057
:100FE000B7F800281AD14846C119C8891231089AA1
:100FF00000920192079A0292039604950591124D70
:101000007D44992311462A4601F0A2F8002805D113
:101010000120072101F08EF9002802D0012009B03B
:10102000F0BD4846C019C462FFF720FF411E884149
:10103000F5E7C0461800000040E20100D04701007B
:10104000344701001847010000470100F8B5044685
:10105000174D4F467819482112F0B6FB00F02EF8D4
:101060001448442139543818002C01D1214600E09D
:101070000321C1700121817000264670042110F007
:1010800073F87C51002C05D00B4849460818406A7B
:10109000002802D04846465105E00020014605F0F0
:1010A000C3FFFFF73BFF044849460818C683F8BD55
:1010B00018000000CC000000BC070000B0B50848D4
:1010C000494624220A54074A8A18002353600C1800
:1010D0006568636020460FF0A7FF6560B0BDC0463D
:1010E000F80100009002000010B504464068083086
:1010F00000F004F8411E8841207010BDFEB5044682
:101100004078E61C01253E2806D0FF2812D005288D
:10111000284600D190E0FEBDE078012808D1B078E3
:10112000F17809020A18002000F09AF8FFF7C6FFCC
:101130002846FEBD30787178090208184049884277
:1011400011D0404988421AD03F4988421AD03F49BD
:1011500088421BD03E49884230D03E49884234D034
:101160003D498842D4E7E079401E0128DED83B485B
:10117000494608184089052100F032FFD6E700F003
:1011800081FAD5E7706800F0BDFAD1E7307971795E
:1011900009020918314A48468018008A801C884292
:1011A000C6D1607B0128C3D1A07B00282846B2D1DC
:1011B00048468218012010769182FEBD2748494694
:1011C00008183179C91E0173B2E7307971790902C3
:1011D0000918224F4846C019408A401C8842A7D1AE
:1011E0004846C01900228263007E002808D0607A39
:1011F00021460A3100F082F8307971790902091824
:10120000B078F278637A0A340093019412021018CD
:101210000022134601F030F8002800D07BE7484652
:10122000C019826B002A83D04846C119088A3C3114
:10123000D2B200F03FF87BE7FFF740FF00F02AF85A
:10124000010400000204000009040000010C000079
:10125000030C0000130C000005040000180000003F
:101260007CB5104609494D466E18142131737281C0
:101270007D21890000910C2118220024234601F0D1
:10128000C3F8347602482818C4837CBD18000000D7
:10129000BC07000005484946081800220276044BA6
:1012A000C918CA834281102006F0D0FB1800000044
:1012B000BC070000F8B514460D4606460D494846E1
:1012C00040187D210901C18348460B494018C08957
:1012D0000095002731463A46234600F09DFF4328FB
:1012E000F2D04528F0D06428EED048460149401895
:1012F000C783F8BDBC07000018000000F8B502461F
:10130000774D4846431900209863002A06D04B4683
:101310005B1925241B5D002B17D0F8BD67234946B8
:1013200049193C220E248C5405228A633C314880A2
:101330004B700871484641190022CA628A84694B81
:10134000C01808624A838A83F8BD0B78002B23D02B
:10135000012B37D0022B48D0082B59D0052BDED1DA
:101360004B465B1924241B5D002BD6D1032A034670
:10137000D5D34B465B199C8B230A4E789E4203467D
:10138000CDD1E3B28E789E420346C8D1002C5AD00C
:10139000042A5CD20723C2E70323052ABFD34A7875
:1013A000002ABCD189780029B9D148464019442186
:1013B000002242540264402104234354C2630921A1
:1013C0008163B7E70523032AA9D34C78002CA6D163
:1013D0008C78002CA3D148464019092A00D3092251
:1013E00082633C3012F0FAF9A4E70423032A96D36F
:1013F0004C78002C93D18C78002C90D14846401921
:10140000092A00D3092282633C3012F0E7F9F8BDC3
:101410000623052A83D34A78002A00D07FE78978FB
:10142000002900D07BE7484640190021C1633C21D8
:10143000082242540621816301463C3101220A718F
:10144000007B4871F8BD052A2BD2082367E7D21E1E
:1014500048464019468B93B2B34200D81646006AFC
:10146000C91C214A4F46BA187D231B01D383B4B24D
:10147000224612F0B3F97819016A09190162418B09
:10148000891B4183828B521C8283080400D044E76D
:101490004846154941180022CA834019C06A48804D
:1014A000F8BD4B465C190F4E9B190E79CF7823621D
:1014B0003B029E196683B7B2E7620123052A00D179
:1014C0002DE74124A400A74200D928E7501F82B28B
:1014D000BA4200D806464846024A8018491DC0E76D
:1014E00018000000B8060000BC070000F0B503AF0C
:1014F0008DB06E46B1624D494A4655182A7BD21DC1
:1015000007239A436B469B1A9D462422AD5C002D0F
:1015100001D0012086E04C461D461346621849461C
:10152000012473613461D454106200209083B36A43
:1015300053833F4A89184880691D71607562E91CB0
:10154000B160F0601A4611045BD00520736AF06246
:1015500018704846354C0019858B9D70290A5970C2
:10156000017B90B2002DB262356214D04A46121946
:10157000CB1E834200DB0346156A33639CB2B0681E
:101580002946224612F02AF92819F0610321F16256
:10159000716A264C14E01A71120ADA704A4612195E
:1015A000491F814200DB0146156A31638AB2F2614C
:1015B0007068294612F012F9F0692818F061716A12
:1015C0004A46131925203269B0611A54306A421C08
:1015D0009A83B26A356B521B5A83F069186270693C
:1015E000185C002818D048460519288AF26A336B1F
:1015F000D218D2B2FFF75EFEF068B16968546A8B08
:10160000A1E74A460A4C1055084951187369C85455
:1016100088831119488005E048460019F168B269CD
:1016200081540220FC1F053CA546F0BD18000000B7
:10163000BC070000E0B56A46064B1846114601DFBC
:1016400005480099814201D101988CBD042006F023
:10165000FDF9C046EC890060D489009080B5002077
:101660000549074A7A4403F0B5F904494A46511836
:1016700006220A63486380BD40420F001800000044
:10168000CDFFFFFF70B50F4E4D46AC19FFF7E6FFDB
:1016900003460620E0600020207220461030102112
:1016A0000A4A7A4407F008F82320A85518206060F9
:1016B0000548281806497944416020460FF0B4FCDB
:1016C00070BDC046F801000090020000F62801003D
:1016D0001B00000010B50446FFF7F0FC07488442E9
:1016E00007D1074849460818416B408900F00CFCB7
:1016F00010BD0120FFF7AAFC10BDC046115010B06C
:101700001800000070B503460F484D462818062102
:10171000016343630D4EAC19E16001202072204645
:10172000103010210B4A7A4406F0C6FF2320A8553A
:10173000182060600648281807497944416020460F
:101740000FF072FC70BDC04618000000F8010000E8
:1017500090020000722801001F00000010B504462E
:10176000FFF7ACFC0748844207D1074849460818F0
:101770004089012100F05AFC10BD0120FFF766FCF2
:1017800010BDC046115010B01800000070B50446DE
:10179000C0000526314611F053FD0546204631466E
:1017A00011F0D4FD002900D06D1C204600F002F895
:1017B000281870BD80B5052111F0C8FD012907D09A
:1017C000042907D0032907D0022907D1042080BDAE
:1017D000062080BD012080BD032080BD002080BD8B
:1017E000FEB514460E4602901046FFF7E3FF05468D
:1017F00001942046FFF7CAFF0095411B00221346C3
:10180000994237D0D408651C019FBD4201D2755D55
:1018100000E00025375D07241C40072C16D0012C62
:1018200017D0022C1AD0032C08D0042C09D0052C78
:101830000AD0062C15D16C09BD070CE02C09FD0758
:1018400009E0EC093D0706E07C0608E01F2427407C
:1018500008E0AC097D07ED0E671903E0BC06E70E52
:1018600000E0FF08094C7C44E45D029DEC54521DED
:101870005B1CC5E70299081800994942002903D06A
:101880003D224254491CF9E7FEBDC046B13E01006D
:10189000F8B50E4605463D21324611F0B5FF074624
:1018A000AC190020C2433846002807D0844205D036
:1018B000411C00783D280846F6D023E00092002F16
:1018C00000D07E1B05207043C6083046FFF772FF2C
:1018D000002F00D0E71B009AB84213D10A4F7F4473
:1018E0003446002C0DD0287801F00DF90146202255
:1018F000384611F089FF6D1C641E0028F1D1009A52
:1019000000E032461046F8BD393E0100F0B589B01E
:1019100014460546069108461146FFF7B9FF0746EB
:1019200000220892052607921046314611F088FCE5
:10193000002F71D00497059546430521089811F0B2
:101940007FFC254604460698005D01F0DCF8014660
:10195000324F7F442022384611F056FF0390601C1E
:101960000021A8420B460BD201910699085C01F0B8
:10197000CAF801462022384611F046FF0199C31BE0
:10198000079A961BA01CA8422C460CD20699085C0C
:101990001D4601F0B8F801462022384611F034FF08
:1019A0002B46079AC11B0398C01B042E059D0DD022
:1019B000012E049F10D0022E17D0032E1AD0002E15
:1019C000029920D1C000D906490F11E01F210B4018
:1019D00040011918049F16E08007000E0E46D90634
:1019E000890E0818F106C90F0CE00001D906090F8D
:1019F000091808E0C007000E0E46D906490E08185F
:101A0000F106890F4118029129706D1C0898083061
:101A100008907F1E521C85E709B0F0BDC53D01004E
:101A2000F0B503AF8DB06E463262F1617060002098
:101A3000316A814207D00146F069405C002805D137
:101A4000491C0846F4E7306A014600E0306AF1605C
:101A5000411A8A204843642111F0F2FB0446083001
:101A6000334901406846451A611CAD462846B160BD
:101A700011F0C0FE306AB46175612919316100212D
:101A8000B162F168814221D2F0697162405C00224A
:101A90003369002802D1B16A8A4212D219780D0244
:101AA00005433A24284621463263F36211F0C8FB0D
:101AB000F36A326B4443291B1970C0B25B1E521C7F
:101AC000E7E7716A491CB262306ADBE7B068B16A65
:101AD000401A054600D3B568B169814206D37169E1
:101AE000095C002901D1401CF6E705467468002C0A
:101AF00015D0312220463563F568294611F072FE73
:101B00006019356B0B4979442A46B3699A4206D865
:101B100073699B5CCB5C0370401C521CF5E7F0685A
:101B2000B1680818401BFC1F053CA546F0BDC04627
:101B3000F8FFFF07363C010070B514460D46064617
:101B4000121F881800F006F8304629462246FFF793
:101B500067FF70BD70B588B004466D462026084604
:101B600011462A4633460EF017FF284631462A46CC
:101B700033460EF011FF00982070010EE170010C49
:101B8000A170000A607008B070BD0000F0B503AF2E
:101B90008BB06E460025B0607161AA4204D04B5DE7
:101BA000312B02D16D1CF8E71546B261511B354847
:101BB00048437D21C90011F043FB02460346F06013
:101BC0000832314911406846441A591CA54620463E
:101BD000316011F00FFEF461F068201830610020D0
:101BE000B062C4437560B069854222D27069756283
:101BF000415D264878443A2530622A4611F004FEB9
:101C000000283AD0316AC9B2421A00203169D2B2F2
:101C1000002A02D1B36A984207D20B786B439A1814
:101C20000A700919120A401CF1E7756A6D1CB0624E
:101C3000D9E73368B06A1A1A154600D31D46B06852
:101C4000F168914206D3F169895C002901D1521CE7
:101C5000F6E715465A1B7168541800280DD011F08C
:101C6000C9FDB06871684018F268954205D8F169FD
:101C7000495D0170401C6D1CF7E72046FC1F053CC8
:101C8000A546F0BDDD020000F8FFFF00483B010063
:101C900010B50A46014600242046FFF777FF0328C7
:101CA00000D8E04310BD7CB50546FFF76FFF061F67
:101CB00001AC204629463246FFF74CFFA85DA91922
:101CC0004A78120210188A78C9780902891809041A
:101CD00008182178627812025118A278E3781B0262
:101CE0009A1812045118411A484248417CBD00001C
:101CF000F0B5FFB086B004AC0FC40120010244AEC1
:101D000030460EF08BFE34AF40243846214611F0A9
:101D100071FDFF20023078808B988A9D002D039002
:101D200000D128467870819838701036224979445D
:101D300030463A46234605F076FE002D2CD014A8F6
:101D4000802111F041FD08AC204612F0ABF8A085CF
:101D5000000411D108A80FF057FA129014AC2046D5
:101D60002946039A11F036FD00210091019144A803
:101D7000802322460EF0E0FD0FF032FA08A98842D7
:101D800002D112980FF040FA14A8802111F032FD10
:101D900008A8808D00280CD1049800900598019027
:101DA00044A80121069A079B0EF0C6FD7FB006B03D
:101DB000F0BD05F04BFEC0464E3A0100F0B5CBB089
:101DC000150A04AC2571E2700A0AA2706170519D77
:101DD000E5715099A1716371207003A902910020EF
:101DE0000190087027460837529938462A4606F06F
:101DF00051FE539E7E557819471C549938463246F9
:101E000006F048FE5598B855B919569A130ACB7082
:101E10008A70000A487045A800901822019F394630
:101E200006F03EFE01204A9002984990A8190D3014
:101E3000C0B248904794074845900098394605F04D
:101E40001FF9002801D4039800E0F843C0B24BB05A
:101E5000F0BDC0463F008300F0B5C9B002AE30709F
:101E600001AF00243C7043AD18222846214606F0FD
:101E700017FE0120489047974690459606484390A4
:101E80002846214605F0FCF8002801D4019800E01E
:101E9000E043C0B249B0F0BD3F008500F0B5C9B025
:101EA000519C250E02AEB572250C7572250A35724D
:101EB000F471529CF472509CB4714F9C74714E9C9E
:101EC0003471F370B2707170307001AF00243C70E7
:101ED00043AD18222846214606F0E2FD0120489035
:101EE00047970C2046904596064843902846214641
:101EF00005F0C6F8002801D4019800E0E043C0B224
:101F000049B0F0BD3F008600F0B5C9B00A0C02AE82
:101F1000B2807180308001AF00243C7043AD182244
:101F20002846214606F0BCFD012048904797062030
:101F300046904596064843902846214605F0A0F86D
:101F4000002801D4019800E0E043C0B249B0F0BDE0
:101F50003F008800F0B5CDB0009301920291044695
:101F600004A803900026072731463A4606F098FD5C
:101F700006AD0198A870029868702C7047AC1822C2
:101F80002046314606F08CFD4C97039F4B9703206B
:101F90004A904995114847902046314605F070F81F
:101FA000002818D404A80078002815D1781C53996B
:101FB000529A037844782402E318009C23808378A3
:101FC000C4782402E3181380027940790002801853
:101FD0000880304600E0FF204DB0F0BD3F008A0091
:101FE000F0B5C9B002AEB170308001AF00243C70D2
:101FF00043AD18222846214606F052FD01204890A4
:1020000047970320469045960F20449006484390FA
:102010002846214605F034F8002801D4019800E054
:10202000E043C0B249B0F0BD3F009300F0B5C9B085
:1020300002AEB170308001AF00243C7043AD182275
:102040002846214606F02CFD0120489047970320A2
:1020500046904596064843902846214605F010F8DC
:10206000002801D4019800E0E043C0B249B0F0BDBF
:102070003F00A50070B588B001AE0024347002ADF9
:1020800018222846214606F00BFD012007900696EF
:10209000064802902846214604F0F2FF002801D4A9
:1020A000019800E0E043C0B208B070BD3F000101FC
:1020B000F0B5CBB0019302920F46064603A800216B
:1020C0000324224606F0ECFC04A80670B11E4A4226
:1020D0004A410225012E294600D01101012E02D0CD
:1020E000022E2DD11025401C461839462A4606F0EE
:1020F000D1FC019870700298307045AF002618220C
:102100003846314606F0CCFC4A9403A84990E81CB6
:10211000489004A847900D4845903846314604F051
:10212000AFFF00280ED403A8007800280BD15098E8
:1021300003A94A788978090289180180304602E0AB
:10214000472000E0FF204BB0F0BDC0463F00020139
:10215000F0B5CFB01D4606920F46064607A80021EF
:102160000324224606F09CFC08A887700680B91E4E
:102170004A424A410226012F314600D01101012F67
:1021800002D0022F40D11026C01C47185899019147
:102190000594579C5699029155990391549904912D
:1021A0000699324606F076FC280A78703D70019850
:1021B000B8717C71029838710398F8700498B870FF
:1021C00049AF002518223846294606F069FC0598D3
:1021D0004E9007A84D900A364C9608A84B900D4893
:1021E00049903846294604F04BFF00280ED407A832
:1021F000007800280BD1599807A94A7889780902F4
:1022000089180180284602E0472000E0FF204FB0F7
:10221000F0BDC0463F000401F0B5C9B01D4602AF95
:102220007B713A717980388001A800900024047095
:10223000B81D4E991A4606F02DFC43AE18223046C2
:10224000214606F02DFC0120489000984790A81DDB
:10225000C0B246904597074843903046214604F067
:102260000FFF002801D4019800E0E043C0B249B05C
:10227000F0BDC0463F000601F0B5C9B002AF4E9DAB
:10228000BD717B713A717980388001A8009000247B
:102290000470F81D4F992A4606F0FCFB43AE182245
:1022A0003046214606F0FCFB0120489000984790FC
:1022B000E81DC0B2469045970648439030462146F7
:1022C00004F0DEFE002801D4019800E0E043C0B233
:1022D00049B0F0BD3F002601F0B5C9B00D4602AFD0
:1022E0007970387001A8009000240470B81C114661
:1022F0002A4606F0CFFB43AE18223046214606F0B0
:10230000CFFB0120489000984790A81CC0B246908F
:102310004597074843903046214604F0B1FE002817
:1023200001D4019800E0E043C0B249B0F0BDC0461E
:102330003F000C00F0B5C9B002AE7170307001AF53
:1023400000243C7043AD18222846214606F0A8FB25
:1023500001204890479702204690459606484390B2
:102360002846214604F08CFE002801D4019800E0A4
:10237000E043C0B249B0F0BD3F000F0070B588B077
:1023800001AE0024347002AD18222846214606F022
:1023900087FB0120079006960648029028462146B2
:1023A00004F06EFE002801D4019800E0E043C0B2C2
:1023B00008B070BD03000300F0B5C9B002AE3070C4
:1023C00001AF00243C70701C1F2206F063FB43AD7C
:1023D00018222846214606F063FB012048904797C3
:1023E000202046904596074843902846214604F011
:1023F00047FE002801D4019800E0E043C0B249B094
:10240000F0BDC04608000900F0B5C9B002AE4E9C50
:102410003481F380B2807180308001AF00243C7041
:1024200043AD18222846214606F03AFB0120489089
:1024300047970A20469045960F20449006484390BF
:102440002846214604F01CFE002801D4019800E033
:10245000E043C0B249B0F0BD3F008101F0B595B096
:10246000039306468020002333503748F0603748F6
:10247000B06037487060374830600868306148683D
:1024800070618868B061C868F06108693062486945
:1024900070628869B062C869F0621B983063106826
:1024A00070635068B0630493F3671A980290B06742
:1024B0003046803043609068F06305AC019430464C
:1024C000214600F049F83046403021460246B8C95E
:1024D000B8C24322B35C0F210B40B3543546433599
:1024E000049A6A732A790A402A712A7A0A402A725F
:1024F0002A7B0A402A736978FC2211406970697945
:1025000011406971697A114069721124214600F005
:1025100019FB37465137019910311022384611F016
:1025200059F90498A8773846214600F00BFB30464D
:102530006230214611F05EF930460399029A00F0AC
:1025400081F815B0F0BDC0467465206B322D6279FC
:102550006E64203365787061F0B593B00C46014627
:1025600040222046019111F035F920463C3004907C
:1025700020462C30039020461C30119020460C3011
:102580001090204638300F90204628300290204688
:1025900018300E90204608300D90204634300C90B4
:1025A000204624300B90204614300A90201D0990BC
:1025B0002046303008902046203007901294103486
:1025C000069400211E4D7D44029E039C049F0A290F
:1025D00028D20591129806AB0ECBA84709AB0FCBBA
:1025E000A8470D980E9932460F9BA847109811994D
:1025F00022463B46A84712980A9932463B46A847CE
:1026000009980E992246089BA8470D981199079A98
:102610000C9BA847109806990B9A0F9BA847059901
:10262000491CD4E70020019B129C402805D0195872
:10263000225851182150001DF7E713B0F0BDC046D5
:1026400037020000F0B58BB0150603464033029305
:10265000623003901009431C039C002B35D0002DE1
:1026600001DC002000E028160206120F01D010261F
:1026700000E0C6B2002E22D006AF384632460591A1
:10268000049311F0A7F8B8191021891B11F0B2F8C2
:102690000120387411263846314600F053FA20469E
:1026A00021463A4633460EF0BDFB0096084B7B446C
:1026B00020462146029A0EF015FC049B05990F2036
:1026C00000072D1810315B1EC7E70BB0F0BDC046E8
:1026D00016310100F0B593B017460D4680214258DF
:1026E00001468031029149680026D2187141314675
:1026F000714101291FD01C46016B491C016303A9CC
:102700000190FFF729FFB44206D0B85D03A9895DA7
:102710004140A955761CF6E7019829462246FFF765
:1027200091FF029A1068002100191060506848411A
:10273000506013B0F0BD014805F088F905B1000004
:10274000F0B593B015460F468021425801468031BE
:10275000029149680026D218714131467141012920
:102760001FD01C46016B491C016303A90190FFF7B0
:10277000F3FEB44206D0A85D03A9895D4140B95576
:10278000761CF6E7019829462246FFF75BFF029A7E
:10279000106800210019106050684841506013B063
:1027A000F0BD014805F052F905B10000F0B587B061
:1027B00001910546806FE96F0391029080202858AF
:1027C0000490284680304068059002A910262846CB
:1027D0003246FFF737FF2F4662375135112438460E
:1027E00039462A4623460EF01DFB3846214600F0A6
:1027F000A9F901983946324610F0ECFF07B0F0BD58
:10280000B0B50C6805682C1904601D68654010247B
:10281000E5411D601468641914600D686540142456
:10282000E5410D600468641904601868604018246C
:10283000E04118601368181810600A6842401920B7
:10284000C2410A60B0BD0000F0B587B006AD0024FB
:102850002C7005950120029005A8019000947948FC
:10286000784440219F23224605F00EF9002800D12C
:10287000DDE02878012800D0D9E010F0BFFB054644
:1028800010F040FC342068436A4F4946CE19324666
:1028900068326D4B7B441350674B0325CD5415189C
:1028A0006A48784404222A712C6203956862CD1824
:1028B0006C6028460EF0B8FB686002200EF0BAFC8F
:1028C0006860B06E00283BD04846C0196C24015D9A
:1028D0007A25405B884233D20EF062FB574988422A
:1028E00004D10EF08FFB5549884229D14846C019C2
:1028F000405B4946C9190A5D81B291421DD2382612
:10290000304648434A46D3199A6E101868331B6AFA
:10291000002B06D09847002809D04946CA19515BB8
:10292000926E012801D14E43901902F06FF848468B
:10293000C119485B401C4853DBE701D10EF0C6FBD0
:102940000398243003904B20800004904846C0191F
:10295000806E00283BD04846C0196C26815D7A25E0
:10296000405B884233D20EF01BFB3449884204D1CD
:102970000EF048FB3149884229D14846C019405BD6
:102980004946C9198A5D81B291421DD23824204638
:1029900048434A46D3199A6E101868331B6A002BB5
:1029A00006D09847002809D04946CA19515B926E53
:1029B000012801D14C43101902F028F84846C119EA
:1029C000485B401C4853DBE701D10EF07FFB4C46CF
:1029D0001B482018002204990EF0ECFBE41905F0C6
:1029E00003FA6C20205C7A21615A8142AED305F053
:1029F000EBF8039C484612494018002204990EF057
:102A0000D9FB05F0F1F90EF0C3FB002802D02068D5
:102A10000028EFD110F010FB05F08CFA05F094FAC5
:102A2000484607494018002204990EF0C3FB07B03E
:102A3000F0BDC04690020000F8010000115010B037
:102A4000CC0000009C450100442F0100AB010000B8
:102A50000A49084088420FD109494A46501858305F
:102A60005158491C074A7A44491E05D0436B3430FB
:102A70009342F9D1002101600020704703000080DB
:102A800090020000E7FFFFFF10B58CB00DF0E4FEF0
:102A90006C46204611F006FAA085000407D168466E
:102AA0000EF0B2FB0A900020C0430EF0FDFA0EF0CB
:102AB00097FB6946884202D10A980EF0A5FB68464A
:102AC000808D002801D10CB010BD04F0BFFF0000C4
:102AD00010B502460748504001230024884218469A
:102AE00000D3204651188908402900D823461843AE
:102AF00010BDC046FFFF000020385F2801D3002032
:102B000070470120704701466139C9B21A2900D2C5
:102B10002038C0B2704701464139C9B21A2900D2E3
:102B20002030C0B2704710B500231A46994203D036
:102B3000845C531C002CF8D08A4201D2002010BDC6
:102B4000012010BD10B50A18521E490800290DD0E9
:102B5000137804785C400470137863401370047831
:102B60005C400470401C521E491EEFE710BD00007F
:102B7000B0B5094B7B44002A0CD00C7824091C5DAD
:102B800004700C780F2525405C5D4470491C801C46
:102B9000521EF0E7B0BDC046462D0100F8B50C4608
:102BA000064600252F460A22304621462B4610F0C5
:102BB000D5FC7F1C0922921B2A46A24106460C46E0
:102BC000F1D33846F8BDF0B58BB016461099002900
:102BD00000901ED03546049303910A2202920024ED
:102BE00028460499234610F0B9FC06460F46029A7F
:102BF0000294234610F0D2FC281A049A8A41024318
:102C00000AD10399491E0806354604973B46E3D18D
:102C100007E00020029004E02B46039802902E4625
:102C2000049B1820029F039019463C460A27002562
:102C3000304604933A462B4610F090FC02900191E6
:102C40003A462746039C2B4610F0A8FC321A302146
:102C50000A43601E05AB1A543A0613D07F1E3A068B
:102C6000019B11D1A01E05AA2E241454002709226D
:102C7000921B3A46049CA24106D30398C01E05AAA3
:102C8000115401E02F46019B0921891B04998D41B4
:102C9000029EC8D33906C6D105A909181822121AEE
:102CA000009810F097FD0BB0F0BD0000D0B502AF5A
:102CB00094B06E46F51D413504464D484946081806
:102CC0004079002802D14D4804F0C0FE494A4846E8
:102CD00080188178002909D10179002906D0484659
:102CE0008018C078002801D1412903D34348001D32
:102CF00004F0ACFE404A484680184078401E022846
:102D000058D20A460720C3437360F161C81D1840BA
:102D10006946081AF06085463261104601F0BAF83B
:102D2000B061C01D716808406946081A7061854627
:102D3000F01D1930306011F0B5F831688885000455
:102D40001BD1F01D19300EF05FFA286049462A4861
:102D50000818B0602830274A89184A1DF16833697D
:102D6000FFF7EEFC82B020200090B068831C7069F1
:102D7000F168326901F092F802B00EF031FAF11DFB
:102D80001931884202D128680EF03EFAF0683169A4
:102D900010F030FDF01D1930808D00280CD1B56980
:102DA00020882946FFF794FE002807D067200002FC
:102DB00004F04CFED120000204F048FE2A464D46A5
:102DC0000C48281821884018716910F003FDF0693B
:102DD000402801D3022000E0032007496918487009
:102DE0002088B169401820800920000304F02EFEDD
:102DF00060000000B80600000806000001B10000F5
:102E0000D0B502AF96B06E46F51D4935494B4946DF
:102E1000CA189178002909D11479002C06D04946A6
:102E2000C918C978002901D1412C02D3434804F0C4
:102E30000DFE414A494689184978491E022958D24F
:102E400070620720C1437160E01D08406946081A9E
:102E500070618546B461204601F01CF83062C01DE7
:102E6000716808406946081AF0618546F01D2130F6
:102E7000306011F017F83168888500041BD1F01D0F
:102E800021300EF0C1F9286049462B480818B0607F
:102E90002830284A89184A1D7169B369FFF750FC28
:102EA00082B020200090B068831CF0697169B2691B
:102EB00000F0F4FF02B00EF093F9F11D21318842C9
:102EC00002D128680EF0A0F97069B16910F092FC87
:102ED000F01D2130808D00280DD1316A756A288857
:102EE000F160FFF7F5FD002807D06720000204F02D
:102EF000ADFDD120000204F0A9FD49460D48316125
:102F0000081829884018F169F26810F063FC402C19
:102F100001D3022000E00320726A0749336A346952
:102F2000611848701088C01810800920000304F050
:102F30008DFDC046B80600004808000005B100003D
:102F4000DCB504AF6E4604462C4849460818407963
:102F5000002802D12C4804F079FD294A48468018FF
:102F60008178002909D10579002D06D048468018BE
:102F7000C078002801D1412D03D32348001D04F05F
:102F800065FD20494846405C401E022818D2E81DD5
:102F90000721884369460B1A49461A480818283001
:102FA00089184A1D9D46736019462B46FFF792FB10
:102FB00020882946FFF78CFD002805D0672000E017
:102FC000D120000204F042FD49460D483160081846
:102FD0002188401871682A4610F0FCFB402D01D36F
:102FE000022000E00320074932685054208840192D
:102FF00020800920000304F029FDC0466000000085
:10300000B80600000806000001B10000DFB506AFF9
:103010006E460246284C484600198178002909D19D
:103020000579002D06D048460019C078002801D146
:10303000412D02D3224804F009FD20494846405C56
:10304000401E02281AD2E81D0721884369460B1A40
:1030500049461A48081828300919F2604A1D9D4649
:10306000B36019462B46FFF735FBF0680088294608
:10307000FFF72EFD002805D0672000E0D1200002D8
:1030800004F0E4FC484670600019F1680C460988B9
:103090004018B1682A4610F09DFB402D01D3022054
:1030A00000E00320054972685054208840192080B0
:1030B0000920000304F0CAFCB8060000480800001C
:1030C00005B100001F4C484600190179202932D172
:1030D0008178C07808432ED148460019401D202130
:1030E00000F056FA002826D018484946095C002905
:1030F00024D0494609180D4618352CCD496A194384
:1031000015430D431AD1494609188A68CB68134301
:1031100014D04978002911D149460D182846283085
:103120000919491D002200F099FD0120687009204D
:10313000000304F08BFC044804F088FCD12000025A
:1031400004F084FCB806000005B10000F808000097
:10315000A0B004462F4E48468019817802790A4370
:10316000C078104340D12D4F4846C05D00283ED066
:103170004846C019034618330ECB406A10430B4330
:10318000034334D101AD284610F08CFEA88500041D
:1031900010D101A80EF038F80B904846C11928311B
:1031A0002120202216AD2B460DF01CFD0DA829462E
:1031B00000F01DFA0EF014F801A9884202D10B9814
:1031C0000EF022F816A8282110F014FB01A8808D1B
:1031D00000280ED120882121FFF77AFC00280AD090
:1031E0006720000204F032FC0B4804F02FFCD120D1
:1031F000000204F02BFC48468019218840180DA9D4
:10320000212210F0E7FA20882130208009200003D5
:1032100004F01CFCB806000005B10000F80800002E
:103220009CB04A4D484640198178C07808432BD15C
:10323000484640190079484979440E6831460931B9
:10324000814221D148464019447944487844006875
:10325000A04219D349464919891D002804D00A689B
:1032600012BA04C1401EF8E74846401981190527E3
:10327000C859491D496802460A4305D04A465219B1
:10328000B218527B022A02D3314804F0DFFB0792C6
:10329000304B4A46D25C002A06D04A46D3181A6AF6
:1032A0005B6A04921A4303D1D120000204F0CEFBE2
:1032B000049A101A8B41E7D308A8039010F0F2FD8E
:1032C0000399888500041FD108A80DF09DFF129076
:1032D000484641198B19DA5905921E4A8018069002
:1032E0004268581D4368881D009001940798029019
:1032F00014AC20461146059A00F05EFA0698283074
:103300000022214600F0AAFC0DF06AFF08A98842BD
:1033100002D112980DF078FF14A8202110F06AFA5B
:1033200008A8808D0028C1D14846411989194A1D35
:10333000C959084BC018036A591A0162416A526898
:10334000914141620920000304F080FBB8060000AF
:1033500005B10000F8080000B02601009826010021
:103360009CB04A4D484640198178C07808432BD11B
:10337000484640190079484979440E683146093178
:10338000814221D148464019447944487844006834
:10339000A04219D349464919891D002804D00A685A
:1033A00012BA04C1401EF8E74846401981190527A2
:1033B000C859491D496802460A4305D04A46521970
:1033C000B218527B022A02D3314804F03FFB079225
:1033D000304B4A46D25C002A06D04A46D3189A6936
:1033E000DB6904921A4303D1D120000204F02EFBC2
:1033F000049A101A8B41E7D308A8039010F052FDED
:103400000399888500041FD108A80DF0FDFE1290D5
:10341000484641198B19DA5905921E4A80180690C0
:103420004268581D4368881D0090019407980290D7
:1034300014AC20461146059A00F0BEF906982830D3
:103440000122214600F00AFC0DF0CAFE08A98842BC
:1034500002D112980DF0D8FE14A8202110F0CAF95C
:1034600008A8808D0028C1D14846411989194A1DF4
:10347000C959084BC0188369591A8161C1695268DA
:103480009141C1610920000304F0E0FAB806000090
:1034900005B10000F8080000702501005825010062
:1034A000F0B503AF95B06E46F51D313531607060F3
:1034B000002A5DD41446F01D393033497944142272
:1034C00010F088F90120C00704432C494A4651589E
:1034D0000143E960F5602C616846B0606C46403C91
:1034E000A546F51D0935284610F0DCFCA88500042A
:1034F00025D1F01D09300DF087FEF168086084B019
:103500000C20224979440094326801920291039080
:1035100000202125F21D3932052329460DF052FDE8
:1035200004B020222846214675682B460DF05AFB30
:1035300069680835284600F02BF800281BD00DF0EC
:103540004FFEF11D0931884203D1F06800680DF08B
:103550005BFE4021204610F04DF9F01D0930808DB2
:10356000002809D1B0688546FC1F053CA546F0BD82
:10357000044804F06BFA024804F068FA60000000A6
:1035800001D1000005B10000D4240100A0240100F5
:10359000F0B503AF85B06E46202922D10125B06079
:1035A000284605F003FDF060C21D07218A436946E5
:1035B00031616946881A70608546294605F002FD2A
:1035C0000446B16805F088FF0546204605F0B4FDC5
:1035D0007068F16810F00EF9681E85413069854603
:1035E00000E000252846FC1F053CA546F0BD70B54F
:1035F00094B00A460546212001AC012621463346F7
:103600000DF006FB02980019C0793040801C28702C
:10361000681C09342022214610F0DCF814B070BD7B
:10362000F0B503AFAFB06E46F41D5D34B4637163A3
:103630000546F41D8D34F868002805D12846716BC5
:10364000F360FFF72DFFF3682134F462B868F21DD0
:1036500065320832294608317162F11D8D31491CED
:1036600031621C463563B262002800D197E0F061F8
:1036700068467061B4616C462046B4694038306178
:103680008546F51D3535284610F00CFCA88500044C
:10369000B56B63D1F01D35300DF0B6FD286025689F
:1036A000002D0DD4356B2878B06021202870F01DD6
:1036B0008D302946FFF79BFFB0682870256809E028
:1036C000F01D8D3000210170306B4268306A716AE4
:1036D00010F080F8F16ACD70280A8870280C4870C4
:1036E000280E087082B04020346900940190202593
:1036F000F21D8D322523706B29460DF0D7F902B0EB
:10370000306B0078F31D653321462A460DF06AFAC6
:10371000B56BE968B46A2046FFF73AFF002842D04B
:10372000E86882B00090224B7B4420462146726AB2
:103730000DF0A4FB02B0E9682046FFF729FF00283E
:1037400031D0316920312022706B10F043F8F11D27
:1037500065312822306B10F03DF8B4690DF040FD62
:10376000F11D3531884202D128680DF04DFDF01D64
:103770008D3025210F4D7D44A84740213069A84751
:10378000F01D65302821A847F01D3530808D0028B8
:103790000AD170698546241DF069401E64E7FC1F4C
:1037A000053CA546F0BD014804F050F901D10000E8
:1037B000DC2101007B000100F0B503AFA9B06E462B
:1037C000F41D6D343462F3603261B160706168463B
:1037D000B062FF250235284605F0E8FBB061C01D48
:1037E000072188436946081A85467062294605F014
:1037F000E9FB0546F41D4534204610F053FBA08537
:103800000004F56125D0B5690DF0EAFCF11D4531E4
:10381000884203D1306A00680DF0F6FCF01D753067
:1038200028212F4C7C44A047F01D25302021A047A3
:10383000F06905F081FC706A2946A047F01D45300B
:10384000808D002842D1B06A8546FC1F053CA54604
:10385000F0BD3C69FD68B8687060F01D45300DF042
:10386000D3FC316A086082B0002000950190F01D01
:103870007530F11D2531B2687368FFF7D1FE02B0D3
:10388000012C0AD0002CBED1306AC268F11D7531FE
:10389000083170690FF09EFFB5E7F068316986B0B6
:1038A0000C4A7A440C4B7B440C4C7C4400910190B4
:1038B000029403930492F21D75320832F069716923
:1038C00006F00EFE06B000289DD1014804F0BEF8B7
:1038D00001D100004F210100A720010007210100B4
:1038E000CDFF0000F0B503AFA5B06E46F11D8531E8
:1038F0003162B360F2607061FF250235284605F041
:1039000055FBB061C01D072188436946081A8546EA
:10391000F061294605F056FB0546F41D5D3420464E
:1039200010F0C0FAA0850004B0692C4626D134619D
:10393000B468F568B8687060F01D5D300DF064FC27
:10394000316A086084B01D4878441D497944009567
:103950000194346902910390F11D1D312046726873
:1039600006F0C6FB04B0002823D0F21D1D3220460D
:10397000716906F08EFB00281BD0B06905460DF07A
:103980002FFCF11D5D31884203D1306A00680DF0D3
:103990003BFC204605F0D0FBF06929460FF02AFFDA
:1039A000F01D5D30808D002804D1FC1F053CA5462C
:1039B000F0BD014804F04AF801D1000005200100E3
:1039C00065200100F0B503AFA7B06E46F51D653563
:1039D0007261F160B061F41D3D34204610F062FA6E
:1039E000A08500043AD1F01D3D300DF00DFCF561CD
:1039F0002860F51D6D35002428462146F268FFF742
:103A00004FFDF01D1930B0602946FFF7F0FD684604
:103A100030616D46203DAD4682B000940194202473
:103A20002120706028462146B2687368FEF760F96D
:103A300002B082B07069009070680190B069214650
:103A40002A462346FEF754F902B0B0692146FFF733
:103A50009FFD002819D030698546F5690DF0C0FB3F
:103A6000F11D3D31884202D128680DF0CDFBF01DDB
:103A70006D3028210FF0BEFEF01D3D30808D0028F6
:103A800004D1FC1F053CA546F0BD014803F0DEFF54
:103A900001D10000F0B503AFA5B06E46F31D5D3354
:103AA0007361F2600D4630616846B061F41D3534D3
:103AB000204610F0F7F9A085000439D1F01D35300B
:103AC0000DF0A2FB7169086082B00024009401949B
:103AD000F01D65307060F11D15312A462346FFF751
:103AE0009FFD02B06846B0606D46203DAD467069EE
:103AF000C36882B00094019472680832202428467A
:103B00002146FEF7F5F802B082B02120F16800915D
:103B10000190306921462A462346FEF7E9F802B0B3
:103B200030692146FFF734FD002820D0B068854673
:103B30000DF056FBF11D3531884203D170690068E4
:103B40000DF062FBF01D653028210FF053FEF01DD3
:103B5000153020210FF04EFEF01D3530808D0028ED
:103B600006D1B0698546FC1F053CA546F0BD01485D
:103B700003F06CFF01D10000F0B5B5B01E460C4655
:103B8000054634926846079020AF384610F08AF90F
:103B9000B88500043AD1049620A80DF035FB2A9090
:103BA0000120002300930193059002902CAF274A37
:103BB000384606942146FFF7FFFD4020019010AEE5
:103BC0000096244878440D2120243A4623460CF0E0
:103BD0006DFF0498314622462B460DF003F86968C4
:103BE00028460830FFF7D4FC00282BD010A920313C
:103BF00008AC202220460FF0EDFD059800900190C2
:103C000034AB28462146069AFFF70AFD0DF0E8FA84
:103C100020A9884202D12A980DF0F6FA2CA8202477
:103C20000D4D7D442146A84710A84021A84708A86B
:103C30002146A84720A8808D002804D107988546F2
:103C400035B0F0BD024803F001FFC046C9020000D4
:103C500001D100006D1E0100CFFB0000F0B503AFE5
:103C600097B06E46F31D1D3333627261F160B06030
:103C70000125284605F09AF90446C01D072188430E
:103C80006946081A8546F0613561294605F09AF9BA
:103C90007060F51D2535284610F004F9A88500044C
:103CA0007068B06126D1B568F01D25300DF0ACFA12
:103CB000316A0863F068B062022370690028184610
:103CC00000D130690D6082B00090F21D1D32B069E4
:103CD000294606F087FA02B0002825D02021284680
:103CE000FEF721FF002805D120212846FFF750FCD0
:103CF00000281CD00DF074FAF11D2531884203D143
:103D0000306A006B0DF080FAB06905F015FAF069C1
:103D100021460FF06FFDF01D2530808D002807D162
:103D2000FC1F053CA546F0BD034803F08FFE01488B
:103D300003F08CFE05B1000001D10000F0B503AF27
:103D4000CFB06E46514CA41974627361B261F161D7
:103D500030624B4C204605F029F90546C01D07216D
:103D600088436946081A8546B062214605F02AF95B
:103D7000B060474CA419204610F094F8A0850004C8
:103D8000B46858D13561BD68414880190DF03CFADE
:103D9000716A0860F01D253020210CF0B7FDF56038
:103DA000002D0FD0F11DC53121232046F26805F00A
:103DB000E1F900285ED0F01DC5304021FEF7B3FECA
:103DC000002857D1FA68F11D85312123204605F0DE
:103DD000D1F900284ED0F01D85304021FEF7A3FE1A
:103DE000002847D1254686B0F01D25300590F01DEE
:103DF00085300490F01DC530F1680029F269B3697F
:103E000000D108460021746900940191029003904A
:103E10000833F11D45312C46284607F0CFFD06B08A
:103E200000282AD0F21D45322046316A05F0FCFAFE
:103E3000002822D035690DF0D3F915498919884237
:103E400003D1706A00680DF0DFF9F01D25302021E4
:103E50000FF0D0FC204605F06FF9B06A29460FF04C
:103E6000C9FC0B488019808D002807D1FC1F053C38
:103E7000A546F0BD034803F0E9FD034803F0E6FD65
:103E80000102000005B1000001D100003401000072
:103E90000C01000010300F2188437047F0B503AFCC
:103EA0009DB06E46F41D4134F4613361B061154636
:103EB000B26010350F2085436846441BA546204656
:103EC0000FF088FC7461B16860182C46691ACAB298
:103ED0000FF088FCF51D193528460FF0E3FFA88583
:103EE000000419D1B868F060F01D19300DF08CF99C
:103EF000F1690860F51D49353069F1682A460CF012
:103F00000FFE82B0B0690090019445212846726985
:103F100023460CF01BFE02B00DF062F9F11D1931C1
:103F2000884203D1F06900680DF06EF9F01D493048
:103F300024210FF05FFCF01D1930808D002803D183
:103F4000FC1F053CA546F0BD03F080FD70B59CB09C
:103F50000D4604466E4630460FF0A4FFB0850004BF
:103F600022D168460DF050F90A9069682846083059
:103F70000CAD40262A4633460CF024FD2878F82163
:103F800001402970E87F7F210140E977E87F3043D5
:103F9000E877202628463146FEF7D4FD61202946E1
:103FA000324623460CF01EFE0DF01AF9694688428F
:103FB00002D10A980DF028F90CA840210FF01AFC44
:103FC0006846808D002801D11CB070BD03F03EFD15
:103FD000F0B59BB0019002AE02203070701C20251D
:103FE0002A460FF0F7FB4120314602460CF03AFE1C
:103FF00013AC1F2120460FF0E7FB0120E07700956E
:104000002136114F7F440198214632463B460CF041
:1040100035FF00953046214632463B460CF048FFBE
:10402000304631463A462B460CF0A6FF0095019CDF
:104030002046214632463B460CF054FF2046294696
:10404000FEF780FD1BB0F0BD3A1A010010B5202A22
:104050000BD0382A11D0342A1AD10F4A4B469A185D
:104060005279002A14D076240EE00B4849460818ED
:10407000C07900280CD0492010BD074A4B469A1839
:104080009279002A04D07A24FEF788FD001910BD29
:10409000024803F0DBFCC0466000000005B10000F0
:1040A000F0B587B00446059304920E980D9D0C99C7
:1040B000202846D01F46164638281FD034286DD1F8
:1040C00003913948494608184079002868D00020F3
:1040D00034220290294603F0C5FB002860D021223B
:1040E00020460399FEF744FD2046423034222946FB
:1040F0000FF070FB0298009076341CE003912A4880
:1041000049460818807900284AD0002038220290B9
:1041100029460DF06FF9002842D02122204603994C
:10412000FEF726FD20464230382229460FF052FB8A
:10413000029800907A34204632463B46FEF743FD13
:104140002CE00E46184849460818C079002827D0A8
:104150002021284600F02CF8002821D004A80821AE
:10416000FEF7F0FC0598207104992170020EE271AF
:10417000020CA271000A6071080EE070080CA070B9
:10418000080A607020460830212231460FF022FBD9
:1041900029342022204629460FF01CFB07B0F0BD31
:1041A000024803F053FCC0466000000005B1000067
:1041B000F0B503AF8FB06E46F21D2D32202913D11A
:1041C0000446B260F51D053528460FF06BFEA88544
:1041D00000040BD0F01D053000248485B068006811
:1041E0000DF012F820462AE0002028E0F01D0530EE
:1041F00070600DF009F8B1680860684630606D467F
:10420000483DAD4602202870681C202221460FF050
:10421000E1FA4120294602460CF024FD306885462B
:104220000CF0DEFF7168884203D1B06800680CF0C2
:10423000EBFFF01D0530808D002804D10120FC1F0C
:10424000053CA546F0BD03F001FC0000F0B503AF4E
:10425000A1B06E461546F1607061FC68BA68202B0B
:10426000326131D0382B6CD0342B00D093E04B48E6
:10427000494608184079002800D18CE0492C00D329
:1042800089E0F01D31303422294603F0EBFA002892
:1042900000D180E0F21D1132B26020257069F16812
:1042A0002B460CF079FB84B00095306901900294A4
:1042B000F01D31303B490322B3680CF04DFD04B0D2
:1042C000002862D1002461E0344849460818C079CA
:1042D000002860D0402C5ED120212C462846FFF7D4
:1042E00067FF002857D06846B0606D46483DAD4630
:1042F00002202870681C202221460FF06BFA41240E
:104300002046294622460CF0ADFCF31D31332046F1
:10431000294622461D460CF04FFC86B04020002462
:10432000F168009101940294316903910490012194
:104330000522284673690CF0CDFC06B0B1688D46A5
:1043400021E01648494608188079002823D0402CDF
:1043500021D1F01D3130382229460DF04BF80028CC
:1043600019D086B040200024F16800910194029495
:10437000316903910490F01D3130012105227369E8
:104380000CF0A8FC06B0002800D001242046FC1F39
:10439000053CA546F0BD024803F058FB6000000054
:1043A00005B1000001060000F0B503AFA3B06E46F2
:1043B000F11D7931316170600124204604F0F6FD71
:1043C000B060C01D072188436946081A8546F06021
:1043D0007461214604F0F6FD0446F51D513528466A
:1043E0000FF060FDA8850004254610D1F01D513066
:1043F0000CF00AFF31690860F11D1131284672681E
:1044000005F010FE411E8841F11D81310870B4682D
:104410000CF0E6FEF11D5131884203D1306900688D
:104420000CF0F2FE284604F087FEF06821460FF0FB
:10443000E1F9F01D5130808D002808D1F01D813048
:10444000007871690840FC1F053CA546F0BD03F0EB
:10445000FDFAF0B503AF97B06E460D46412901D085
:10446000212D31D1B26101247060204604F09EFDFF
:104470007061C01D07218843694631616946081A89
:104480008546F0602146B46904F09CFDF11D1531AC
:10449000B06072682B4604F06DFE411E05468D41EA
:1044A000002C07D0002805D0F01D15304021FEF764
:1044B0003AFB2070B06804F03FFEF06871690FF0BD
:1044C00099F93069854600E000252846FC1F053C27
:1044D000A546F0BDF0B503AFA3B06E46F11D113196
:1044E0007161F0600125284604F060FDB060C01DD8
:1044F000072188436946081A85463061294604F039
:1045000061FD0546F41D553420460FF0CBFCA08517
:104510000004B0682C461FD1F01D55300CF074FE1D
:104520007569E866F11D153121232046F26804F013
:1045300021FE00282BD04120286082B0022000906C
:10454000F21D1132F31D15332046F16804F0D0FE40
:1045500002B000281ED0B06805460CF041FEF11DE7
:104560005531884203D17069C06E0CF04DFE204673
:1045700004F0E2FD306929460FF03CF9F01D55309A
:10458000808D002807D1FC1F053CA546F0BD0448DE
:1045900003F05CFA014803F059FAC04601D100006B
:1045A00005B10000F0B5A9B00D4604466E46304690
:1045B0000FF078FCB08500041AD168460CF024FE98
:1045C0000A901848784402681FAF412638462946A9
:1045D0003346FFF7D1FA0CAD0123304629463A465F
:1045E0000CF016FB08350D9A304629460CF026FBD8
:1045F0000CF0F6FD6946884202D10A980CF004FEE0
:104600001FA828210FF0F6F86846808D002807D1F2
:104610000CA90931202220460FF0DCF829B0F0BDAA
:1046200003F014FA301D0100F0B503AFC1B06E46BF
:10463000F41DF1343363B163F0637464A26001204C
:10464000B0620402651C284604F0B0FC0721C9438F
:1046500071613064C01D08406946081A8546B0641F
:10466000294604F0AFFC0546F11D4531842204F0D3
:1046700073FDB061204606F001F93062C01D71691A
:1046800008406946091A8D463B4A7A4428467163B8
:10469000234606F0F7F8B060F41DC93420460FF049
:1046A00001FCA08500042C46B0697062B56830D169
:1046B000F462F868F0602C46BD68F01DC9300CF05B
:1046C000A3FD716C086090B0002340202B49794411
:1046D000B26A089209910A90306B0B900C952546AE
:1046E0000D930E93F0680F90F46A0793F01DF93064
:1046F00006900593B06B049003930293F06B0190C6
:1047000000932046716A2A4606F02CF910B0002862
:104710002DD0306CF061306A30610CF061FDF11D1C
:10472000C931884203D1706C00680CF06DFD2046E1
:10473000294606F0F9F82546114C7C44706B316926
:10474000A047706A04F015FDF01D45308421A04794
:10475000284604F0F1FCB06CF169A047F01DC930A7
:10476000808D002804D1FC1F053CA546F0BD014802
:1047700003F06CF901D10000C3120100E312010043
:10478000B7F00000F0B503AFE5B06E46654CA41974
:10479000F51DD5357564B262B164F0633465A3600C
:1047A000FF240234204604F001FCF0640721C943D1
:1047B000B161C01D08406946081A85467065B4633A
:1047C000214604F0FFFBF11D51318422044604F020
:1047D000C3FCF0618025284606F050F83063C01D08
:1047E000B16908406946091A8D46524A7A44204602
:1047F00031642B4606F046F8B0604B4DAD192846A3
:104800000FF050FB316BA8850004F06CF269726305
:10481000B268F26255D1F868F0602546BC6842483B
:1048200080190CF0F1FC316D086090B0002340203D
:10483000414979440122089209910A900B94F06849
:104840000C900D930E930F930793384880190690A0
:104850000593B06A0490F01DD93003903448801954
:1048600002900193009375622846716BF26A06F01C
:1048700079F810B000284FD02120746C306120608E
:1048800082B0B06B451C0095F21DD532284B9B19A8
:10489000706AF16B04F02CFD02B000283CD0306946
:1048A000206082B00095F21DD532F31DD933746AB1
:1048B0002046B16C04F01CFD02B000282CD0F06C36
:1048C000316B306271610CF08BFC17498919884299
:1048D00003D1306D00680CF097FC2046F16A06F0B9
:1048E00023F8164D7D44306C7169A847706B04F055
:1048F00040FCF01D51308421A847204604F01CFCE8
:10490000706D316AA84708488019808D002804D14D
:10491000FC1F053CA546F0BD014803F097F8C046D2
:1049200001D100008801000060010000900100003A
:1049300020010000611101007F1101000DEF000056
:10494000B0B504461B4820811B481C4921606060AB
:1049500020460A301A49794412220EF03BFF2420E7
:104960004D212154204624300021C1704321817003
:1049700057214170204629301249794406220EF011
:1049800029FF20465830104979442CC92CC00F48C3
:1049900078440168406821636063204638302146CE
:1049A00030316166A0660A49794420220EF012FF78
:1049B000B0BDC046014500000901010051020000E0
:1049C0000A11010067F60000E0110100B0110100BA
:1049D000A0110100F8B5164604460D1A681E0542DE
:1049E00005D1B04729460EF0B1FC08460CE0002086
:1049F000C04329460EF024FC07464543B047A84271
:104A0000FCD239460EF01CFC0019F8BD80B503F04D
:104A10009BFB80BDB0B50546072028400024012837
:104A200015D0022815D10C48002908D04A46101884
:104A30000CF09AFB28060AD50BF056FF07E0494612
:104A400008184121890000220CF0B4FB04462046DE
:104A5000B0BD022002F0FAFFB8060000F0B585B044
:104A6000DD4E4846805D052832D0152858D00D28E7
:104A700000D187E00E2800D1ABE00C2800D0D0E0B8
:104A8000D6494D46012068546C18002767602046BF
:104A90000CF0CAFA606002200CF0CCFB6060D04CD5
:104AA00029194968002900D1E0E0CE4A904201D19D
:104AB00000F0DDFC002801D100F0D9FC4D462A1998
:104AC00057608847F6482818F84944314160D8E0D3
:104AD000F3494D46012068546C1800276760204652
:104AE0000CF0A2FA606002200CF0A4FB6060ED4CB8
:104AF00029194968002900D113E1EB4A904201D1FC
:104B000000F0B5FC002801D100F0B1FC4D462A1997
:104B100057608847E2482818E449443141600BE176
:104B2000E348494608188079012806D1484680198B
:104B30008079000701D400F0B0FCD94E4D46012029
:104B4000A855AC190027676020460CF06DFA60602C
:104B500002200CF06FFB6060D24C291949680029D3
:104B600000D1F5E2D04A904200D144E3002800D1C0
:104B700041E34D462A1957608847A819CB4944316B
:104B80004160E9E2C64E4D460120A855AC19002708
:104B9000676020460CF048FA606002200CF04AFB87
:104BA0006060C04C29194968002900D11CE1BE4A47
:104BB000904201D100F05BFC002801D100F057FCCD
:104BC0004D462A1957608847A819B84944314160B1
:104BD00015E1B3494E4601207054751800276F60E7
:104BE00028460CF021FA686002200CF023FB0446F2
:104BF0006860AC4D70194168002900D15CE1AA4899
:104C0000844200D1ADE1002C00D1AAE14E467019DA
:104C1000476020468847A2483018A4494431416083
:104C20004EE19F4E4D460120A855AC190027676004
:104C300020460CF0F9F9606002200CF0FBFA60608D
:104C4000984C29194968002900D1ECE1964A904214
:104C500000D13CE2002800D139E24D462A195760C4
:104C60008847A819914944314160E0E18E49884262
:104C700000D1FCE3002800D1F9E38E49884200D03E
:104C800006E34846061903F055F903F05DF97A2565
:104C90007753B06E002800D1E9E3484680494018B8
:104CA00040688149884200D1E1E3002800D1DEE379
:104CB000484600196C26805D002800D1D7E37B4F61
:104CC0000CF06EF9B84204D10CF09CF9B84200D057
:104CD000CDE348460019405B494609198A5D81B217
:104CE000914200D3C8E23827384648434A46131950
:104CF0009A6E101868331B6A002B06D0984700285C
:104D000009D049460A19515B926E012801D14F43DF
:104D1000D01903F019FA48460119485B401C485362
:104D2000DAE76149884200D1A1E3002800D19EE37F
:104D30006049884200D007E34846061903F0FAF8B4
:104D400003F002F97A257753B06E002800D18EE384
:104D500048465349401840685349884200D186E389
:104D6000002800D183E3484600196C26805D0028A6
:104D700000D17CE34D4F0CF013F9B84204D10CF094
:104D800041F9B84200D072E348460019405B4946F9
:104D900009198A5D81B2914200D36DE23827384605
:104DA00048434A4613199A6E101868331B6A002B41
:104DB00006D09847002809D049460A19515B926EDF
:104DC000012801D14F43D01903F0BEF9484601191B
:104DD000485B401C4853DAE7CC000000F8010000B3
:104DE00090020000445010B02F49884200D13EE3A9
:104DF000002800D13BE32F49884200D0EDE248462D
:104E00002849441803F096F803F09EF87A25675372
:104E1000A06E244C002800D129E348468019406840
:104E20002149884200D122E3002800D11FE34846EF
:104E300000196C26805D002800D118E31B4F0CF090
:104E4000AFF8B84204D10CF0DDF8B84200D00EE360
:104E500048460019405B494609198A5D81B2914272
:104E600000D309E23827384648434A4613199A6E58
:104E7000101868331B6A002B06D09847002809D009
:104E800049460A19515B926E012801D14F43D0194E
:104E900003F05AF948460119485B401C4853DAE7C9
:104EA000F801000090020000445010B0115010B002
:104EB000BC070000555010B0F2484430844250D135
:104EC0004846461903F036F803F03EF87A240020ED
:104ED0003053B06E002800D1C9E24846EA49401874
:104EE0004068EA49884200D1C1E2002800D1BEE210
:104EF000484640196C26805D002800D1B7E2E14F9A
:104F00000CF04EF8B84204D10CF07CF8B84200D056
:104F1000ADE248464019005B494649198A5D81B2B5
:104F2000914200D3A8E13827384648434A465319EE
:104F30009A6E101868331B6A002B06D09847002819
:104F400009D049464A19115B926E012801D14F439D
:104F5000D01903F0F9F848464119085B401C085382
:104F6000DAE74846411994200958002913D00A4627
:104F7000643A00D23A464B465B191A5064290AD863
:104F800090215958002906D04A4652199823D358DF
:104F9000135000208847BD48844200D167E2002CAE
:104FA00000D164E248464019806E002800D16AE2D0
:104FB000484640196C24015D7A26805B884200D304
:104FC00061E2B04F0BF0ECFFB84204D10CF01AF8DC
:104FD000B84200D057E248464019805B494649191B
:104FE0000A5D81B2914200D34AE2382738464843ED
:104FF0004A4653199A6E101868331B6A002B06D064
:105000009847002809D049464A19915B926E0128B9
:1050100001D14F43D01903F097F848464119885BF6
:10502000401C8853DAE79749443188424FD14846BB
:10503000061902F07FFF02F087FF7A257753B06EE2
:10504000002800D113E248468F49401840688F4934
:10505000884200D10BE2002800D108E2484600193E
:105060006C26805D002800D101E2864F0BF098FF8E
:10507000B84204D10BF0C6FFB84200D0F7E1484671
:105080000019405B494609198A5D81B2914200D3FB
:10509000F2E03827384648434A4613199A6E1018EA
:1050A00068331B6A002B06D09847002809D0494670
:1050B0000A19515B926E012801D14F43D01903F0B8
:1050C00043F848460119485B401C4853DAE7484614
:1050D0000019806E002800D1BFE1484600196C25F8
:1050E000415D7A26805B884200D3B6E1EE4F0BF03B
:1050F00057FFB84204D10BF085FFB84200D0ACE1B5
:1051000048460019805B494609194A5D81B29142BF
:1051100000D39FE13827384648434A4613199A6E10
:10512000101868331B6A002B06D09847002809D056
:1051300049460A19915B926E012801D14F43D0195B
:1051400003F002F848460119885B401C8853DAE7EF
:10515000D549443188424ED14846061902F0EAFE4C
:1051600002F0F2FE7A257753B06E002800D17EE17E
:105170004846CB4940184068CA49884200D176E188
:10518000002800D173E1484600196C26805D002894
:1051900000D16CE1C44F0BF003FFB84204D10BF017
:1051A00031FFB84200D062E148460019405B4946F1
:1051B00009198A5D81B291425ED238273846484348
:1051C0004A4613199A6E101868331B6A002B06D0D2
:1051D0009847002809D049460A19515B926E012868
:1051E00001D14F43D01902F0AFFF48460119485B87
:1051F000401C4853DBE748460019806E002800D168
:105200002BE1484600196C25415D7A26805B884277
:1052100000D322E1A44F0BF0C3FEB84204D10BF03F
:10522000F1FEB84200D018E148460019805B4946BB
:1052300009194A5D81B2914200D30BE13827384603
:1052400048434A4613199A6E101868331B6A002B9C
:1052500006D09847002809D049460A19915B926EFA
:10526000012801D14F43D01902F06EFF48460119C1
:10527000885B401C8853DAE700D0F8E00BF026FF8B
:10528000F5E0C046115010B0F8010000445010B0D5
:105290004A4615196C200490285C0390A86E029071
:1052A0009219D379967951791079D2782F46683747
:1052B0003F6A009201970002401882B23002C01883
:1052C00083B20298039902F0B7FEA86E049D0028ED
:1052D00000D1DEE048460019415D7A26805B8842B5
:1052E00000D3D6E0704F0BF05BFEB84204D10BF058
:1052F00089FEB84200D0CCE048460019805B4946A0
:1053000009194A5D81B2914200D3BFE0382738467F
:1053100048434A4613199A6E101868331B6A002BCB
:1053200006D09847002809D049460A19915B926E29
:10533000012801D14F43D01902F006FF4846011958
:10534000885B401C8853DAE7484600198C21405896
:10535000002805D049468919C978490802F01CFF80
:1053600048460019806E002877D0484600196C2501
:10537000415D7A26805B88426FD24B4F0BF010FE66
:10538000B84203D10BF03EFEB84266D14846001940
:10539000805B494609194A5D81B291425AD2382749
:1053A000384648434A4613199A6E101868331B6AE8
:1053B000002B06D09847002809D049460A19915B6E
:1053C000926E012801D14F43D01902F0BDFE48462C
:1053D0000119885B401C8853DBE748460019806E42
:1053E00000283AD0484600196C25415D7A26805B3A
:1053F000884232D22C4F0BF0D3FDB84203D10BF0D0
:1054000001FEB84229D148460019805B4946091976
:105410004A5D81B291421DD23827384648434A46F8
:1054200013199A6E101868331B6A002B06D0984720
:10543000002809D049460A19915B926E012801D1D2
:105440004F43D01902F080FE48460119885B401C8A
:105450008853DBE701D10BF039FE484600196C2177
:10546000415C7A22805A884201D30BF091FE0BF006
:105470008FFE002801D102F0A7FB012005B0F0BD8E
:1054800001D10BF023FE48464019E8E701D10BF0AB
:105490001DFE48460019415DE3E7102002F0D6FAF0
:1054A000F8010000445010B0115010B0D0B502AF58
:1054B00090B06E46F41D3134034641484946081801
:1054C0004079002802D1404802F0C0FA3D494846E0
:1054D00040188178C2780A4356D105793C4878440F
:1054E0000068A84250D13949484640184078FE210A
:1054F000014002294CD1B460F360E81D07218843C4
:105500006946081A70608546F41D093420460EF07D
:10551000C9FCA085000418D1F01D09300BF074FE01
:10552000B168086049463160284808182830746816
:105530002146FDF73BF9234831680818401D2146F4
:105540002A4602F089FA00281ED174680BF048FE42
:10555000F11D0931884203D1B06800680BF054FE98
:10556000204629460EF046F9F01D0930808D0028AE
:10557000F4680FD120882021FDF7AAFA00280BD06B
:105580006720000202F062FA0F48001D02F05EFA86
:10559000D120000202F05AFA49460A480818228827
:1055A00080180A4A8918891C20220EF013F92088D5
:1055B0002030208002F0C0F80920000302F046FAF3
:1055C00060000000B806000001B1000008060000FD
:1055D000E2020100D0B502AF90B06E46F41D313446
:1055E0003C4A49468B189978DA780A4356D11D7996
:1055F0003B4979440968A94250D1384A494689183B
:105600004A78FE21114002294BD1B460F060E81DB8
:10561000072188436946081A70608546F41D0934DD
:1056200020460EF03FFCA085000418D1F01D093083
:105630000BF0EAFDB1680860494631602748081858
:10564000283074682146FDF7B1F8224831680818FF
:10565000401D21462A4602F0FFF900281ED1746839
:105660000BF0BEFDF11D0931884203D1B06800681E
:105670000BF0CAFD204629460EF0BCF8F01D09309B
:10568000808D00280FD1F46820882021FDF720FAB2
:1056900000280AD06720000202F0D8F90E4802F074
:1056A000D5F9D120000202F0D1F94946094808187D
:1056B00022888018094A8918891C20220EF08AF84D
:1056C0002088203020800AF0EDFC0920000302F041
:1056D000BDF9C046B806000005B10000480800004A
:1056E000CE010100DCB504AF6E46044625484946AC
:1056F00008184079002802D1244802F0A7F922496D
:1057000048464018817802790A43C07810431ED178
:105710001F484946095CFE220A40022A1BD11D4946
:1057200079440D68E91D072291436A46511A4A4699
:10573000101828308D463160FDF738F820887560E4
:105740002946FDF7C5F9002809D0672004E00F4875
:10575000001D02F07BF9D120000202F077F94846E3
:10576000094940182188401822CE2A46083E0EF0EA
:1057700031F820884019208001F0DEFF0920000365
:1057800002F064F960000000B806000001B10000FA
:1057900008060000A0000100DCB504AF6E46044618
:1057A000204948464018817802790A43C07810435E
:1057B0001ED11E484946095CFE220A40022A1AD11F
:1057C0001B4979440D68E91D072291436A46511A25
:1057D0004A46101828308D463160FCF7E7FF2088D4
:1057E00075602946FDF774F9002808D0672003E0AA
:1057F0000D4802F02BF9D120000202F027F94846AB
:10580000084940182188401822CE2A46083E0DF04B
:10581000E1FF2088401920800AF044FC09200003A1
:1058200002F014F9B806000005B1000048080000B5
:10583000FEFF0000F0B503AF8BB06E467061C54B44
:105840004846C018C278002A00D07FE10479C84ACF
:105850007A4415682A4643327462A24200D975E13F
:1058600080780028F161B06109D002280CD00128AD
:1058700000D06BE1B84849460818407908E0B648BE
:1058800049460818807903E0B34849460818C079AA
:10589000002800D15AE14846C0184019441D212172
:1058A0002046FDF740F900280ED12121F21D2132BA
:1058B0002046FEF7CEFD002800D147E1F01D213043
:1058C0000078002800D041E14846A2494018281835
:1058D0002630212100242246FEF7BBFD002800D1FE
:1058E00034E148469B494018423540194079022826
:1058F00005D3801E012800D928E1092000E00120FD
:105900003462974A4946895C002900D114E149462E
:1059100089180C4618341CCC496A194314430C43AB
:1059200000D009E149468E4C09198A68C9681143BB
:105930004019002900D103E1716A884200D905E1CC
:1059400006D188484946081841210DF053FF9DE0D3
:105950008849794409680C18611C726A914200D91F
:10596000F4E049467B4D49190818401D7061FEF767
:105970001BFD002800D1E9E0706A011B4846401970
:105980000019421DB0690028716232610FD00228EF
:10599000734C18D0012821D148460119684638387F
:1059A00085464968706001F0E9FF342216E04846F8
:1059B0006B4C0119684638388546496870600BF0B1
:1059C000DBFD38220AE04846011968462038854642
:1059D00049687060FEF7E6FD2022FFE7484604199B
:1059E000A068E168F260FEF731FBB061C21D0721DB
:1059F0008A436946B16069468D1AAD46A268E3687C
:105A000084B07069009070680190F0680290284638
:105A1000FEF746FB04B0A36C82B030690090706A58
:105A200001904C342846B1692246FEF70FFC02B0C3
:105A3000002800D18AE04846494C0019806C202893
:105A400013D0382801D034281ED146484D462C1892
:105A5000412120460DF0CEFE414829188A6C4C3178
:105A600020463F4C0DF0B6FE0EE03E484D462C1849
:105A7000412120460DF0BEFE394829188A6C4C3170
:105A80002046374CFDF774F8B06885464846001943
:105A90004078002850D034484D462C182121B1615F
:105AA00020460DF0A7FEF5602D4828187061826829
:105AB000C368294828187062007982B00090204697
:105AC000FDF781F802B020460EF036FA2021316150
:105AD00021542018316A4170756A243520462946C0
