:02000004C0DE5C
:1000000070B58CB062B6002808D02D494A46531806
:1000100001686422184618F087FE04E02848494623
:10002000081804F05FFC274E15F0E2FF48468019DF
:100030004F218A000024214607F053FD07F036FDCA
:100040006D46284619F0D8F9A88580B2102805D148
:10005000684684850A9816F005FCE5E7002809D073
:10006000684684850A9816F0FDFB02F0FBFD2046E9
:100070000CB070BD684616F0F5FB0A9007F0B6FFAD
:10008000052000242146224616F01AFB0E494A4656
:1000900051184862204617F09FFC0125284617F0AA
:1000A0009BFC204607F010FB2046214600F0E8FFAD
:1000B00006497944284600F0E3FF07F0F7F8C04608
:1000C0006000000088020000C4070000F3980100EF
:1000D000F0B593B012930F46044600787F2101409B
:1000E000052900D1CCE215460E91208B00F0D8FAFC
:1000F00000280F95119765D04279867900200A90E3
:10010000002F67D0002D65D00992208BE188129ACC
:100110000092EBB2643189B23A4600F0E7FAE18826
:100120000022052D0D9208960C905AD3884258D97A
:10013000208B129900916421914A7A44032300F0A4
:10014000D5FA0A9068083E18E188002810904AD035
:100150000C9A8A4247D92F1A45D000200B90208B49
:10016000129D009589B2109AD3B2119A00F0BEFA8E
:100170000C90E188208B0095FBB2324600F0B6FA75
:100180000A990C9A51180D18E1888D420C952AD9BC
:100190000B9F012F06D0002F05D11098401E0F9BFA
:1001A000119A03E0761C0F9B119A1098002810906A
:1001B00019D08D4217D90120B843921BD7180B9044
:1001C000CDD110E0002110910C910A460E46084650
:1001D0000A9103E00A9910910C9108460B910E9B2D
:1001E00033E0164610950A9603239D03208B0540A5
:1001F0000122D703BD420CD09703BD420D9D0B9544
:100200000F9D119F089E0CD10C9E891B089E0B917F
:1002100007E00C9D6D084908491B0B910F9D119F2C
:10022000089E190308405103884205D011038842F3
:1002300008D12089801B06E07008C0432189490845
:10024000081800E00D980E9B099A032B07DC0D900F
:10025000012B5FD0022B0BD0032B5BD010E2042BC1
:1002600053D0062B00D196E10D90072B00D007E26A
:10027000207B01282CD10992072B314600D0002188
:1002800004200790205E0891421A0227E15F60690E
:10029000072B099B00D0238900930B9D2B4616F05A
:1002A0006FFA0C982818E15F4118E288131A079832
:1002B000205E089A821A60690E9D072D01D025895B
:1002C0000995099D009516F05BFA0F9D119F0E9BF5
:1002D000002F00D1D4E1002D00D1D1E108960220F9
:1002E000205E0C9004200790215E206909906269CD
:1002F000208BE68825890397109F0497129F059706
:10030000072B00D15FE10D9B5EE10D90E07A0028A4
:1003100000D1B7E1E3885A0821894808824216468D
:1003200000D30646E57AAE4203D88242154600D392
:100330000546207B012825D104201090225E02274B
:10034000E65F20690091A9196E009B1B16F018FA50
:10035000E15F1098225E2089831B20690093AA1810
:100360002B4616F00DFAE15F1098225E2089831B60
:100370002069E6880093AA18491B89192B4665E075
:100380005498010004200C90225E0226A75F10966C
:1003900060690091E9196F00DB1B16F0F1F9A15FAC
:1003A0000C9EA25F2089C31B0E9760690093AA1858
:1003B0002B4616F0E5F91098215EA25F2089C31B39
:1003C0006769E0880093AA18EB43C91809183846F2
:1003D0002B4616F0D5F9A05F0A903746109EA15F14
:1003E0002269E388A07A009069180E981B1A1046BB
:1003F0000A9A16F0C5F9E05F0A90A15F206909909A
:100400002289E388A07A009069180E9FDB1B0A9866
:100410008018421E099816F0B3F9A05F0A900C9E4E
:10042000A25F2089C11BA37A20690091AA180A99AA
:1004300016F0A6F91098215EA25F2089C61BA37A48
:100440002069E7880096AA18C919491E16F098F97C
:10045000022D119869D3207B012802D0A07A281A96
:1004600000D20020109004200C90205E0A90022000
:10047000215E07460E9020696369C0220092109E9B
:100480000196029369180A9AAA182B4600F0D9FA25
:100490000C98205E0A90E05F0890206909906369DB
:1004A000E188A07A30220092019637461096029396
:1004B0002818089A5118091A0A982A1809982B46D8
:1004C00000F0BFFA0E98205E0A900C9EA05F089084
:1004D0002069099063692189A07A0C220092019712
:1004E00002932818089A51180A1A0A982918099884
:1004F0002B4600F0A6FAA05F0C900E98215E2069B2
:100500000E9063692689E788A07A03220092109AE8
:10051000019202932818C919091A0C9A101A821903
:100520000E982B4600F08DFA119800280F9800D1F4
:10053000A6E0002800D1A3E0237B10211420012B8A
:100540000A4600D00246012B00D00846A15810915F
:1005500020580E900220215E0420255E208BE68824
:100560002789A37A119C03940F9C0494129C0594F0
:100570000124E443002B00D05C430D9ABB1A1B19E5
:100580000B9FF61B341955190095019402937B18A3
:100590000E99109A72E00420205EE37AC2180220BD
:1005A000205E19182069267B0025012E03D0A67A2B
:1005B000B34200D99D1B6469FF2600960195029401
:1005C00000F03FFA5CE000231093ED1A0B9FF31B41
:1005D000019302950E9B072B01D00D9B01E0089B18
:1005E0005B420D935B1800930B9B0C995B18099968
:1005F00000F0CBF801460A98002841D0079FE35F3E
:1006000020690C9060690E90208B0990E5882689FE
:100610000891032121487844109AB61A0B9AAD1A12
:100620000D9AD31800AA68C203900491129D0595F3
:10063000089883B209980C990E9A00F0A6F80E90CB
:10064000E35F20690C9060690990228BE688248919
:100650000F98119FC7190A983F1A1099641A0B999D
:10066000761A0D99CB180093019602940390049783
:1006700005950E9883B210460C99099A00F085F8FA
:1006800013B0F0BD0420225E0220215EE3882069C1
:100690002489009416F074F8F2E7C04678930100BC
:1006A000F0B581B00E4D05400E48784401688800D1
:1006B0000D4A7A448018001F4E1C761E0CD0071F6E
:1006C0000468204608F08AFA0068A8423846F4D147
:1006D000204608F083FA00E0002001B0F0BDC046DB
:1006E000FF0F000072A701005EA70100F0B583B004
:1006F0001C4615460191FFF7D3FF0026002841D084
:10070000002C019A3ED00026029003892F789F4248
:1007100002D34189B94213D20A2F33D00D2F31D0E1
:10072000B809032803D33F20074039461EE078B2BA
:10073000002100281AD5B806009109D50F2008E03D
:10074000F91A8F00C06808F049FA019AC15D0DE0FE
:100750000E20FFF7A5FF0028019A009906D0C06877
:1007600008F03CFA019AF906490E415C002A03D0D0
:10077000B0B20818904205D86D1C641E7618200689
:100780000298C2D1B0B203B0F0BDF0B5A3B00A93E5
:100790000F91149110921392FFF782FF002800D15D
:1007A00044E12C9907910B90047900200990C043F3
:1007B0000890022C5DD313AD281D3C210D9018F03C
:1007C000ADFA10981390089AA240D043129080007E
:1007D0000F9929500E92901C0C900026F7000F984C
:1007E000F840C5B21098F840C4B2A542284600D3DC
:1007F0002046A542294600D82146081A401C1299D5
:1008000018F0B2F8A542119617D90221C9430E9AE1
:100810008A422AD801210D9A0C9B05464D432D1979
:10082000FF2D00D3FF25BD4016682E4340C25D1C3E
:10083000491C9D422B46F0D217E00221C9430E9A73
:100840008A4212D801210D9A0C9B129C641A4443CF
:100850006419FF2C00D3FF24BC401668264340C215
:100860005C1C491C9C422346EFD2119E761C032E31
:10087000B4D1289C079D002D00D1D9E02A98299950
:100880002B9F02190A9809180D9103460B99099894
:100890002E4601251195AE1B3D780D2807D10A2D56
:1008A00005D1761C7F1C0A20012EF5D1C1E00E93E4
:1008B0000F94134608894A791292854204D30B9902
:1008C0004989A9420B990FD20D2D01D00A2D27D1AC
:1008D00012980F9A121814461018984200DDADE0D5
:1008E0001A4628460A9B67E00C93281A099085004F
:1008F000086908F073F904460B98C06808F06EF9AF
:1009000040194088201806900B98C06808F066F9D6
:100910000E9B455D0B98C07907900F9C224613E013
:10092000C02D0C9305D33F212940002009950D4689
:1009300005E068B2002845D40020099505460790D7
:1009400006900F9C22460E9B58190D99884207D994
:100950001298241820180C9988426ADC0A9B2246B7
:100960000698002819D00F920246129868430B99F6
:100970000979484304900392029113A801901198B9
:100980008840009018460F992A4611951D46129BE3
:1009900015F0D4FE2B46119D08E012980090109897
:1009A00019460E932B4615F0EBFE0E9B0B990C9AF5
:1009B00007982818C3180998089D75437F1C002EB6
:1009C00037D065E7A80601D50F2000E00E200F9C68
:1009D000FFF766FE002823D00F90006908F0FEF8AC
:1009E00012900F98C06808F0F9F8E906490E0991CD
:1009F000401840881299081806900F98C06808F0AF
:100A0000EDF80999435C0B98807922180F98817949
:100A1000521A407912900020079009951D4692E7DE
:100A2000002009950546079006908BE7002003E01B
:100A30000A9B98B22104081823B0F0BD0E9880B22A
:100A4000F8E7F0B59DB01B921A9106462398411E17
:100A500002468A4118921393191A1291002901DC57
:100A6000002100E00121139A002A00D5C0E1189A64
:100A70000A401892249910912299139FC21B039245
:100A800080220A400A9240220A400D9220220A4007
:100A9000099210220A400C9208220A40089204226D
:100AA0000A400B920123129A9C1A069402240C40CD
:100AB000079419400E911C93DC1B1A994018C01B17
:100AC0000590401C04900025E943501E0F90169598
:100AD0001196481C17900E9800281995159114949A
:100AE00006D10798002855D0189800281FD147E054
:100AF0001898002838D01C9C00940F983B1A1B981B
:100B00004018451C10981A9E31462A4615F038FEAA
:100B10000094149CB819119E0699411830462A4633
:100B2000199D129B15F02CFE0798002832D01B98B7
:100B30003D181398B8420AD01C9800900398159954
:100B40004018831C10981A992A4615F019FE1C9813
:100B50000090059815994018811C30462A46129B32
:100B600015F00EFE199D15E01C9800901B98421878
:100B700030461A993B4615F003FE0798002809D025
:100B80001C9800901B983818421E30461A99179BE3
:100B900015F0F6FD0B98002806D1089800285AD0C9
:100BA000189800281FD133E01A98C51B1898002800
:100BB00020D01C9C00940F9EBB1B1B9815994018BD
:100BC000421C02921098294615F0DAFD0094149CFC
:100BD000A91B1198029A119E129B15F0D1FD08983D
:100BE0000028199D37D01398B8421BD11B983E1886
:100BF0001C9827E01C9800901B98159942183046C5
:100C000029463B4615F0BCFD08980028199D22D0C6
:100C10001C9800901A9841191B983818421E3046AB
:100C2000179B16E01C9C00941A9841191B983E18BB
:100C30000398159A8018831C1098324615F0A0FD71
:100C40002046149C0090049841191198324606469B
:100C5000129B15F095FD0C98002806D109980028E4
:100C600053D0189800281ED146E01B9845191898B3
:100C7000002835D01C9C00940F983B1A10981A9E9F
:100C800031462A4615F07CFD0094149CB819119E3B
:100C90000699411830462A46129B15F071FD0998B5
:100CA0000028199D31D01B98C51B1398B84215997F
:100CB0000AD01C98009003984018831C10981A9929
:100CC0002A4615F05DFD15991C980090059840186E
:100CD000811C30462A46129B15F052FD199D14E0E6
:100CE0001C98009030461A992A463B4615F048FD5C
:100CF00009980028199D08D01C9800901B98C21BC9
:100D000030461A99179B15F03BFD0D98002806D127
:100D10000A98002856D0189800281ED131E01B9858
:100D200045191A98C61B189800281DD01C9C0094C1
:100D30000F983B1A109831462A4615F021FD009471
:100D4000149C0F98311A119E30462A46129B15F0BA
:100D500017FD0A980028199D34D01398B84219D16C
:100D60001B98C21B1C9826E01C98009011983146D5
:100D700006462A463B4615F003FD0A980028199DB1
:100D800020D01C9800901A9841191B98C21B30461D
:100D9000179B15E01C9800901A9841191B98C41BCA
:100DA0000398159A8018831C1098224615F0E8FCC9
:100DB00022461C98149C0090049841193046129BBE
:100DC00015F0DEFC791E012C384600DB0846169A29
:100DD000521C012C169201DB169A521A510061180E
:100DE0004C1C6D1E179981421397074600DA70E676
:100DF0001DB0F0BDF0B589B08E68022E20D80C462B
:100E00000421415E08910221405E05902068069011
:100E100060680790E06807F0E1FE0546A768206972
:100E200007F0DCFE0ECC0124B4404B43534300A931
:100E3000B0C103900493089905AB0DCB15F07EFC6F
:100E400009B0F0BD70B584B000200390029002ADEF
:100E500008242846214615F01DFCA8780299414037
:100E600003984840A97941402970E8786A7842405F
:100E700068795040EA7942406A70D0B20090064DDD
:100E80004E467019401CCBB21721044A7A4407F031
:100E9000B5FC745504B070BD000000008C8B0100DF
:100EA000F0B58FB007AD28461830072117F036FF90
:100EB0000620687011202870A81C2449794410224B
:100EC00017F032FF0024EC751820A8756C750C2003
:100ED00028751220E8740520A8741A484946081895
:100EE000C588868818480F18384618F0CFFA00973A
:100EF000C3B230462946224601F064FA0125002893
:100F00001CD1114E182007A901F02CFB002815D187
:100F100048468519284618F0B9FAC0B200940190E5
:100F2000029503940494059406943021602220468F
:100F3000234601F019F80546401E854128460FB0AA
:100F4000F0BDC0461800000000000000649F0100D2
:100F5000F0B589B0444F4846C0190021818414215E
:100F6000017301F0E1FA002872D1FFF76BFF002056
:100F700006213F4A7A4401F085FA002868D101F041
:100F80004FF9002864D14846C01901460831821D36
:100F900000920191031D012000241822214601F036
:100FA000AFF8002854D10125284601F02BF800287D
:100FB0004ED104942D4803900295102601960820E6
:100FC00008900090284629462A462B4601F03CF816
:100FD00000283DD14846C0190E3000900220254916
:100FE0007944012509232A4601F038F900282FD138
:100FF0004846C119C88910310A2200961646019444
:10100000029403920495059102211B4A7A44992384
:10101000079101F073F900281AD14846C119C8890F
:101020001231089A00920192079A0292039604954F
:101030000591124D7D44992311462A4601F05EF92F
:10104000002805D10120072101F04AFA002802D02A
:10105000012009B0F0BD4846C019C462FFF720FF67
:10106000411E8841F5E7C0461800000040E201003B
:10107000DC9E0100409E0100249E01000C9E0100A8
:10108000F0B581B004461E484F463818482117F085
:1010900045FE1C48242139541B49791800264E600E
:1010A0003D18686800906E60284615F0DDFA174814
:1010B00044213954009969603818002C01D1214627
:1010C00000E00321C170012181704670042115F0F8
:1010D00071FB0B497C500E4D002C0AD07819406AE8
:1010E000002806D10020014605F0A8FFFFF730FFD9
:1010F00001E04846465048464019C68301B0F0BD5D
:1011000018000000F001000088020000C400000088
:10111000C4070000B0B50848494624220A54074ACB
:101120008A18002353600C1865686360204615F028
:101130009BFA6560B0BDC046F00100008802000067
:1011400010B504464068083000F004F8411E88419C
:10115000207010BDF0B583B004464078E51C012630
:101160003E2809D0FF2832D00528304600D0C3E001
:10117000FFF7D0FF00F0DEF8E078012800D0BAE0F9
:1011800068484F4602963E1814203073A878E978D4
:101190000902081870817D21890000910C21182214
:1011A0000024234601F006FA5F482421395434769E
:1011B0005F497918CC835D4979184C603D186E6899
:1011C0006C60284615F050FA6E60029894E028781A
:1011D0006978090208180321890288420CDC4C490D
:1011E000884219DC4D4988421DD04D49884200D0C3
:1011F00081E000F08BFA7EE0424988422ED04249DD
:10120000884243D04149884275D14648494608182A
:101210002979C91E01736EE03E4988426ED1686823
:1012200000F0D4FA67E0E079401E012806D83D4876
:10123000494608184089052100F0A8FF3A48494668
:1012400024220A54394A8A18002353600C1865680E
:101250006360204615F008FA65604CE028796979EA
:10126000090209182F4A48468018008A801C8842C3
:1012700041D1607B01283ED1A07B002830463BD184
:101280004846821801201076918235E028796979E4
:1012900009020918234F4846C019408A401C884259
:1012A00029D14846C01900228263007E002808D058
:1012B000607A21460A3100F073F8287969790902C9
:1012C0000918A878EA78637A0A3400930194120224
:1012D00010180022134601F0A5F800280CD148464A
:1012E000C019826B002A06D04846C119088A3C31D1
:1012F000D2B200F02FF8304603B0F0BD0649884264
:1013000033E7C046010C0000130C0000030C000082
:1013100004040000090400000504000001040000AA
:101320000204000018000000F00100008802000024
:10133000C407000005484946081800220276044BFD
:10134000C918CA834281102006F0EFFB1800000084
:10135000C4070000F0B581B014460D4606460E499C
:10136000484640187D210901C18348460B49401871
:10137000C0890095002731463A46234601F022F8FD
:101380004328F2D04528F0D06428EED048460249E0
:101390004018C78301B0F0BDC4070000180000006A
:1013A000F0B581B00246784D484643190020986355
:1013B000002A2AD04B465B1925241B5D002B3AD10D
:1013C0000B78012B39DD022B4ED0082B5FD0052B7B
:1013D0001CD14B465B1924241B5D002B2BD1032A07
:1013E000034613D34B465B199C8B230A4E789E42CF
:1013F00003460BD1E3B28E789E42034606D1002C01
:1014000074D0042A76D2072300E06723494649199D
:101410003C220E248C5405228A633C3148804B7058
:101420000871484641190022CA628A84574BC01885
:1014300008624A838A8301B0F0BD002B40D0012BA3
:10144000E4D10523032AE1D34C78002CDED18C783B
:10145000002CDBD148464019092A00D309228263B7
:101460003C3017F065FCDCE70423032ACED34C782C
:10147000002CCBD18C78002CC8D148464019092AC1
:1014800000D3092282633C3017F052FCD3E70623D5
:10149000052ABBD34A78002AB8D189780029B5D16A
:1014A000484640190021C1633C21082242540621CC
:1014B000816301463C3101220A71007B4871BAE721
:1014C0000323052AA2D34A78002A9FD189780029CC
:1014D0009CD14846401944210022425402644021D4
:1014E00004234354C263092181639AE7052A0CD27D
:1014F00008238BE7D21E48464019468B93B2B3426D
:1015000000D81646006AC91C1DE04B465C191F4EE8
:101510009B190E79CF7823623B029E196683B7B27E
:10152000E7620123052A00D170E74124A400A74205
:1015300000D96BE7501F82B2BA4200D8064648462F
:10154000124A8018491D124A4F46BA187D231B01C2
:10155000D383B4B2224617F0EBFB7819016A09195C
:101560000162418B891B4183828B521C8283080458
:1015700000D060E74846064941180022CA83401956
:10158000C06A488057E7C04618000000C006000047
:10159000C4070000F0B503AF89B06E464E4B4A4613
:1015A000D418227BD21D07239A436B469D1AAD4661
:1015B0002422A35C002B01D0012088E030624C463D
:1015C000134645482218012073613061D054306AB7
:1015D00010620020908351830246404820184280C8
:1015E000002962D00B46681D3060E81C7060F56011
:1015F000AA7005212970100A68704846364C0019F7
:10160000047B98B2F2611204336212D04A46324926
:101610005218E41E844200DB0446116AB161A5B28F
:1016200070682A4617F084FBB069401925460323E9
:1016300014E0B1612B711A0AEA704A462649521821
:10164000651F854200DB0546146AAAB2B2603068A5
:10165000214617F06DFBB0682018B36949461E4A51
:101660008918252432690A55F269521C8A83326A24
:10167000521B4A8308627069085C002821D04846E2
:10168000154934624418208A5919CAB2F5682946A6
:10169000FFF760FE0020316A6054638B002B04D09A
:1016A00048460D494018828BA2E7494600200B4D61
:1016B0004855094A8A187369D0549083491948805B
:1016C00005E0484604494018002101550220FC1F4E
:1016D000053CA546F0BDC04618000000C407000048
:1016E00080B582B06A46074B1846114601DF0648AE
:1016F0000099814202D1019802B080BD042006F019
:1017000014FAC046EC890060D4890090F0B581B02D
:1017100000251349164A7A44284603F025F9034662
:1017200010484E4630180621016343630E4FF419EA
:10173000E16025722046103010210E4A7A4407F0ED
:101740005DF82320F05518206060084830180A49D9
:1017500079444160204614F087FF01B0F0BDC046D7
:1017600040420F0018000000F00100008802000055
:10177000C7FFFFFFB07D01002900000070B50446DF
:101780000E48494624220A540D4A8A180023536001
:101790000D186E686B60284614F066FF6E6009488D
:1017A000844207D1084849460818416B408900F037
:1017B00081FC70BD0120FFF763FC70BDF0010000EB
:1017C00088020000115010B01800000070B50346E8
:1017D0000F484D4628180621016343630D4EAC198E
:1017E000E160012020722046103010210B4A7A441B
:1017F00007F004F82320A855182060600648281830
:10180000074979444160204614F02EFF70BDC04660
:1018100018000000F001000088020000FE7C0100BA
:101820001F00000070B504460E48494624220A54A1
:101830000D4A8A18002353600D186E686B602846A5
:1018400014F012FF6E600948844207D108484946E7
:1018500008184089012100F0BFFC70BD0120FFF78E
:101860000FFC70BDF001000088020000115010B0A4
:101870001800000070B50446052117F0FBF80D466E
:10188000022905DC012D0BD0022D07D104260AE028
:10189000032D07D0042D01D1012604E0002602E02B
:1018A000062600E00326E000052117F05DF8002D74
:1018B00000D0401C801970BDF0B585B00E46039075
:1018C000052704921046394617F0D4F8FF4301204B
:1018D000022907DC012912D002290BD10290BF1C7A
:1018E000042012E003290DD0042903D102907F1DAA
:1018F00001200AE0002701200190029706E00290F3
:10190000062002E00290FF1C032001900498FFF7DC
:10191000B1FF38183BD0002422462346D5086F1C5F
:1019200004998F42214600D2F15D775D07251D4065
:10193000032D05DC012D0ADC002D11D1FF0819E073
:10194000052D08DC042D0ED1C9093D0710E0022D3C
:101950000CD1B90608E0062D16D14909BD0707E0EC
:1019600089097D0704E07906CF0E03E00909FD0728
:10197000ED0E4F190B497944C95D039DE954521D81
:101980005B1C9842CAD102E01F210F40F2E7029986
:10199000002905D0039908183D22019917F0CCF9C8
:1019A00005B0F0BDE1940100F0B583B00F460546E7
:1019B0003D213A4617F0D2F90646EC190022D043F1
:1019C0000290002E08D0A64206D0304601783D296C
:1019D00038D1401C8442F9D10192002E00D0771BEF
:1019E00005214F43FF08384617F044F8022905DC6B
:1019F000012909D002290BD104200AE0032905D0CE
:101A0000042905D1012004E0062002E0032000E0C3
:101A10000198002E00D0A61BB04213D1002F14D085
:101A20000B4E7E443C46287801F05BF901462022AB
:101A3000304617F093F9002804D06D1C641EF2D1D3
:101A4000384600E0029803B0F0BD0020FBE7C04636
:101A500035940100F0B58BB017460546099108464C
:101A60001146FFF7A1FF002800D195E000244B4963
:101A700079440A91214603942246019708920590E1
:101A800006953D4605271046394616F06DFF064679
:101A90007E432046394616F067FF07460998C05D29
:101AA00001F01FF9014620220A9817F057F9079014
:101AB000781CA842039B19460DD20999085C01F0D5
:101AC00010F90146202204940A9C204617F046F99A
:101AD000039B011B049C0491089A961BB91CA94204
:101AE0002F460FD20998405C174601F0FAF80146DC
:101AF000202225460A9C204617F030F93A46019FDD
:101B0000031B2C460A980799091A012E10DD022E94
:101B100022D0032E25D0042E069D0598029E32D198
:101B200013461F22049E16401A46490176182AE0E1
:101B3000002E21D0012E069D0598029E23D18907F3
:101B4000090E1646049AD206920E5118DA06D20FE2
:101B5000891832460E4616E008010499C906090F95
:101B60000EE0C907090E1046049AD206520E51180B
:101B70000246D806800F03E0C8000499C906490F41
:101B80000E18069D059802962E7008346D1C401E96
:101B9000521C002800D071E70BB0F0BDE7930100A4
:101BA000F0B503AF8DB06E46154631620022002DB0
:101BB000144608D00024316A095D002903D1641C51
:101BC000A542F8D12C463060291B8A204843642165
:101BD000326316F0C9FE024608323B4911406A469C
:101BE000521A3061411C954672601046F16017F040
:101BF000ABF8326BB460A5422FD930697168081810
:101C000070610020B0610346B168F561306A7162AD
:101C1000405C0146B3621943B26918D0002273696F
:101C2000F362326319780D0205433A2428462146AF
:101C300016F09AFEF36A326B4443291B1970C0B246
:101C40005B1E521C0028EBD1B16A8A42E8D3716A4C
:101C5000491CF569A9421346D8D1F068841A306945
:101C6000A04235680ED330697168091850420A18CD
:101C70005278002A03D1401CF9D3F46802E031699C
:101C80000818441C002D17D031222846B16817F0DF
:101C900053F8306984420FD870680019B168691828
:101CA000F268121B094B7B4405785D5D0D70401C8A
:101CB000521E491C002AF7D1B068F1680818001BB1
:101CC000FC1F053CA546F0BDF8FFFF07D6910100BB
:101CD000F0B58BB001920D460290171F03AE202481
:101CE000084639463246234614F014FA3046214657
:101CF0003246234614F00EFA0398E855E919020E0D
:101D0000CA70020C8A70000A487002982946019A2B
:101D1000FFF746FF0BB0F0BDF0B503AF8BB06E46DA
:101D200070600024002A254607D00025485D312830
:101D300003D16D1CAA42F9D11546B161511B3A4835
:101D400048437D21C900F26116F00EFE02460832BA
:101D5000364911406A46521A3061411C9546B260BC
:101D60001046316016F0F0FFF560F069A8422DD9F9
:101D70003069B168081870610024E043B062F1680E
:101D80003462B0697162415C294878443A2504465E
:101D90002A4616F0E3FF002841D0001BC0B20146DE
:101DA000336A002419430CD071690A786A43101809
:101DB0000870B26A8918000A641C0028F5D19C4298
:101DC000F3D3716A491CF0698142D9D133681D1B74
:101DD0003069A8420ED33069B168091860420A1808
:101DE0005278002A03D1401CF9D31D4602E0316924
:101DF0000818451C591BF4680819B062706800285F
:101E00000DD07162214616F09FFF3069854206D8D9
:101E100070680019B1684919726A16F085FFB06AD6
:101E2000FC1F053CA546F0BDDD020000F8FFFF00E9
:101E3000F290010010B50A46014600242046FFF743
:101E40006BFF032800D8E04310BDF0B589B004460D
:101E5000FFF762FF051F01AE2027204629463246C4
:101E60003B4614F057F93046394632463B4614F0AB
:101E700051F901980090615D621953781B0259185D
:101E80009378D2781202D21812045118091A4842D3
:101E9000484109B0F0BDD4D4F0B5FFB086B004AC71
:101EA0000FC40120010244AE304614F075F934AF7E
:101EB00040243846214616F047FFFF200230788044
:101EC0008B988A9D002D039000D1284678708198C8
:101ED000387010362349794430463A46234605F097
:101EE00009FE002D2ED008AC204617F085FAA085FB
:101EF000000417D108A814F0B5FC129014AC2046C9
:101F00002946039E324616F00FFFA0198025A91B13
:101F100016F01AFF00210091019144A822462B4699
:101F200014F0DCF814F088FC08A9884202D1129859
:101F300014F098FC14A8802116F006FF08A8808DE4
:101F400000280CD1049800900598019044A8012124
:101F5000069A079B14F0C2F87FB006B0F0BD05F0FA
:101F6000E4FDC046E68F0100F0B5CBB0150A04AC25
:101F70002571E2700A0AA2706170519DE571509955
:101F8000A1716371207003A9029100200190087073
:101F900027460837529938462A4606F00FFE539EC8
:101FA0007E557819471C54993846324606F006FE8D
:101FB0005598B855B919569A130ACB708A70000A09
:101FC000487045A800901822019F394606F0FCFD94
:101FD00001204A9002984990A8190D30C0B248904B
:101FE0004794074845900098394605F057F800286F
:101FF00001D4039800E0F843C0B24BB0F0BDC04636
:102000003F008300F0B5C9B002AE307001AF0024CC
:102010003C7043AD18222846214606F0D5FD01202C
:102020004890479746904596064843902846214653
:1020300005F034F8002801D4019800E0E043C0B274
:1020400049B0F0BD3F008500F0B5C9B0519C250EE8
:1020500002AEB572250C7572250A3572F471529C68
:10206000F472509CB4714F9C74714E9C3471F37037
:10207000B2707170307001AF00243C7043AD182213
:102080002846214606F0A0FD0120489047970C20E5
:1020900046904596064843902846214604F0FEFFA8
:1020A000002801D4019800E0E043C0B249B0F0BD7F
:1020B0003F008600F0B5C9B00A0C02AEB280718054
:1020C000308001AF00243C7043AD182228462146E1
:1020D00006F07AFD012048904797062046904596E5
:1020E000064843902846214604F0D8FF002801D432
:1020F000019800E0E043C0B249B0F0BD3F00880065
:10210000F0B5CDB0009301920291044604A803906B
:102110000026072731463A4606F056FD06AD0198DF
:10212000A870029868702C7047AC1822204631467F
:1021300006F04AFD4C97039F4B9703204A90499520
:10214000114847902046314604F0A8FF002818D4D3
:1021500004A80078002815D1781C5399529A037866
:1021600044782402E318009C23808378C4782402F6
:10217000E318138002794079000280180880304605
:1021800000E0FF204DB0F0BD3F008A00F0B5C9B0BF
:1021900002AEB170308001AF00243C7043AD182214
:1021A0002846214606F010FD01204890479703205D
:1021B000469045960F204490064843902846214675
:1021C00004F06CFF002801D4019800E0E043C0B2A5
:1021D00049B0F0BD3F009300F0B5C9B002AEB17098
:1021E000308001AF00243C7043AD182228462146C0
:1021F00006F0EAFC01204890479703204690459658
:10220000064843902846214604F048FF002801D4A0
:10221000019800E0E043C0B249B0F0BD3F00A50026
:1022200070B588B001AE0024347002AD1822284683
:10223000214606F0C9FC0120079006960648029048
:102240002846214604F02AFF002801D4019800E026
:10225000E043C0B208B070BD3F000101F0B5CBB0A3
:10226000019302920F46064603A80021032422464A
:1022700006F0AAFC04A80670B11E4A424A41022593
:10228000012E294600D01101012E02D0022E2DD19F
:102290001025401C461839462A4606F08FFC019846
:1022A00070700298307045AF0026182238463146CB
:1022B00006F08AFC4A9403A84990E81C489004A8B8
:1022C00047900D4845903846314604F0E7FE002817
:1022D0000ED403A8007800280BD1509803A94A789F
:1022E0008978090289180180304602E0472000E021
:1022F000FF204BB0F0BDC0463F000201F0B5CFB0AB
:102300001D4606920F46064607A8002103242246D2
:1023100006F05AFC08A887700680B91E4A424A4156
:102320000226012F314600D01101012F02D0022FC9
:1023300040D11026C01C4718589901910594579C0C
:1023400056990291559903915499049106993246F0
:1023500006F034FC280A78703D700198B8717C71E1
:10236000029838710398F8700498B87049AF002546
:1023700018223846294606F027FC05984E9007A8F3
:102380004D900A364C9608A84B900D484990384617
:10239000294604F083FE00280ED407A80078002800
:1023A0000BD1599807A94A788978090289180180C0
:1023B000284602E0472000E0FF204FB0F0BDC046B5
:1023C0003F000401F0B5C9B01D4602AF7B713A7100
:1023D0007980388001A8009000240470B81D4E99BF
:1023E0001A4606F0EBFB43AE18223046214606F0B3
:1023F000EBFB0120489000984790A81DC0B2469082
:102400004597074843903046214604F047FE002890
:1024100001D4019800E0E043C0B249B0F0BDC0462D
:102420003F000601F0B5C9B002AF4E9DBD717B7192
:102430003A717980388001A8009000240470F81D5A
:102440004F992A4606F0BAFB43AE18223046214681
:1024500006F0BAFB0120489000984790E81DC0B2F2
:1024600046904597064843903046214604F016FEB4
:10247000002801D4019800E0E043C0B249B0F0BDAB
:102480003F002601F0B5C9B00D4602AF7970387033
:1024900001A8009000240470B81C11462A4606F0DA
:1024A0008DFB43AE18223046214606F08DFB0120FD
:1024B000489000984790A81CC0B24690459707489E
:1024C00043903046214604F0E9FD002801D40198EC
:1024D00000E0E043C0B249B0F0BDC0463F000C0090
:1024E000F0B5C9B002AE7170307001AF00243C701D
:1024F00043AD18222846214606F066FB012048908D
:102500004797022046904596064843902846214624
:1025100004F0C4FD002801D4019800E0E043C0B2FB
:1025200049B0F0BD3F000F0070B588B001AE002487
:10253000347002AD18222846214606F045FB0120E2
:1025400007900696064802902846214604F0A6FD0C
:10255000002801D4019800E0E043C0B208B070BD8B
:1025600003000300F0B5C9B002AE307001AF002423
:102570003C70701C1F2206F021FB43AD1822284638
:10258000214606F021FB01204890479720204690E5
:102590004596074843902846214604F07FFD0028D1
:1025A00001D4019800E0E043C0B249B0F0BDC0469C
:1025B00008000900F0B5C9B002AE4E9C3481F3802A
:1025C000B2807180308001AF00243C7043AD18228E
:1025D0002846214606F0F8FA0120489047970A203D
:1025E000469045960F204490064843902846214641
:1025F00004F054FD002801D4019800E0E043C0B28B
:1026000049B0F0BD3F008101F0B595B00393064697
:102610008020002333503648F0603648B06036489A
:10262000706036483060086830614868706188685A
:10263000B061C868F0610869306248697062886991
:10264000B062C869F06204933363106870635068C5
:10265000B063F3671A980290B067304680304360E9
:102660009068F06305AC01943046214600F048F8CC
:102670003046403001462246B8CAB8C14322B35C56
:102680000F210B40B35435464335049A6A732A79B7
:102690000A402A712A7A0A402A722A7B0A402A733F
:1026A0006978FC2211406970697911406971697A11
:1026B000114069721124214600F037FB374651372B
:1026C000019910311022384616F02EFB0498A87795
:1026D0003846214600F029FB30466230214616F08C
:1026E00033FB30460399029A00F086F815B0F0BD2E
:1026F0007465206B322D62796E6420336578706169
:10270000F0B593B00C4601906CC86CC46CC86CC436
:102710006CC86CC46CC86CC408463C300590084654
:102720002C30049008461C30039008460C30119061
:102730000846383010900846283002900846183075
:102740000F90084608300E90084634300D90084629
:1027500024300C90084614300B90081D0A9008464F
:1027600030300990084620300890129110310791BE
:102770000020029E039C049F059D0690129807ABC3
:102780000ECB00F01DF90AAB0FCB00F019F90E9833
:102790000F993246109B00F013F9119821463A46E2
:1027A0002B4600F00DF912980B9932462B4600F09B
:1027B00007F90A980F993A46099B00F001F90E981B
:1027C0002146089A0D9B00F0FBF8119807990C9A86
:1027D000109B00F0F5F80699481C0929CDD300207C
:1027E000019B129C1958225851182150001D402855
:1027F000F8D113B0F0BDD4D4F0B58BB01646024674
:1028000040320292623003903009401C039D102E2A
:10281000344600D31024002C23D006AF0490384651
:1028200005910599224616F07FFA38191021091BE7
:1028300016F08AFA0120387411243846214600F037
:1028400074FA284629463A46234613F07BFE009444
:10285000074B7B4428462946029A13F0A3FE0498AE
:1028600005991031103E401ED1D10BB0F0BDC046CD
:10287000B2860100F0B593B017460291054680205C
:1028800028582E46803671680022C01851410092A7
:1028900010465041012825D01C46286B401C286357
:1028A00003A92846FFF72CFF0194002C0BD003A8A6
:1028B0000299019A3B7804785C400C707F1C401CA4
:1028C000491C521EF6D128460299019C2246FFF768
:1028D00093FF30680019306070680099484170605B
:1028E00013B0F0BD014805F020F9C04605B1000065
:1028F000F0B593B002920F460546802028582E4628
:10290000803671680022C018514100921046504133
:10291000012825D01C46286B401C286303A92846A3
:10292000FFF7EEFE0194002C0BD003A80299019A48
:102930000B7804785C403C70491C401C7F1C521E84
:10294000F6D128460299019C2246FFF755FF3068D0
:1029500000193060706800994841706013B0F0BD94
:10296000014805F0E2F8C04605B10000F0B587B0B7
:1029700001910546806FE96F0391029080202858ED
:102980000490284680304068059002A91026284609
:102990003246FFF731FF2F46623751351124384652
:1029A00039462A46234613F0CDFD3846214600F02D
:1029B000BCF901983946324616F0B6F907B0F0BDB9
:1029C000B0B50C6805682C1904601D6865401024BA
:1029D000E5411D601468641914600D686540142495
:1029E000E5410D60046864190460186860401824AB
:1029F000E04118601368181810600A6842401920F6
:102A0000C2410A60B0BDD4D4F0B587B006AD002491
:102A10002C7005950120029005A8019000947D4836
:102A2000784440219F23224605F0A4F8002800D1D5
:102A3000E5E02878012800D0E1E015F06DFE0546BC
:102A400015F0F6FE342068436E4F4946CE193246E3
:102A50006832714B7B4413506B4B0325CD541518D2
:102A60006E48784404222A712C6203956862CD185E
:102A70006C60284613F0F8FD6860022013F008FF30
:102A80006860B06E00283FD04846C0196C24015DD4
:102A90007A25405B884237D213F09EFD5B4988421D
:102AA00004D113F0CDFD594988422DD14846C019B3
:102AB000025D415B914222D20846382670434A4665
:102AC000D3199A6E101868331B6A002B06D09847EA
:102AD00000280AD04946CA19515B926E012802D1DA
:102AE00088B24643901901F05DFF4846C019415B2A
:102AF000491C4153025D88B29042DED300E0084693
:102B0000904201D113F006FE0398243003904B202D
:102B1000800004904846C019806E00283FD0484687
:102B2000C0196C26815D7A25405B884237D213F04C
:102B300053FD3649884204D113F082FD334988425F
:102B40002DD14846C019825D415B914222D2084690
:102B5000382460434A46D3199A6E101868331B6AAA
:102B6000002B06D0984700280AD04946CA19515B65
:102B7000926E012802D188B24443101901F012FF6D
:102B80004846C019415B491C4153825D88B290425E
:102B9000DED300E00846904201D113F0BBFD4C4665
:102BA0001B4820180022049913F02EFEE41905F0AA
:102BB000AFF96C20205C7A21615A8142AAD305F0DA
:102BC00093F8039C4846124940180022049913F0D8
:102BD0001BFE05F09DF913F003FE002802D02068CB
:102BE0000028EFD115F0B8FD05F038FA05F040FAED
:102BF0004846074940180022049913F005FE07B023
:102C0000F0BDC04688020000F0010000115010B075
:102C1000C4000000DC9A0100C4840100BB01000074
:102C20000E490840884215D10B49484640580028B3
:102C300010D0012800D801204A4651188C31084A8A
:102C40007A440B68934203D03431401EF9D101E03D
:102C50000020086000207047880200000300008008
:102C6000DDFFFFFF10B58CB013F0C2F96C462046B3
:102C700016F0C2FBA085000407D1684613F0F2FDF0
:102C80000A900020C04313F031FD13F0D5FD6946D2
:102C9000884202D10A9813F0E5FD6846808D00282D
:102CA00001D10CB010BD04F040FFD4D410B50246E1
:102CB00007485040012300248842184600D320468C
:102CC00051188908402900D82346184310BDC04632
:102CD000FFFF000020385F2801D30020704701204B
:102CE000704701466139C9B21A2900D22038C0B2F2
:102CF000704701464139C9B21A2900D22030C0B20A
:102D0000704710B500290ED00278002A09D101239E
:102D10001A46994203D0845C531C002CF8D08A4296
:102D200001D2002010BD012010BD10B54A080FD0FF
:102D30000918491E0B7804785C4004700B786340D6
:102D40000B7004785C400470491E401C521EF1D187
:102D500010BDD4D4B0B5002A0ED0084B7B440C78FB
:102D600024091C5D04700C780F2525405C5D4470BF
:102D7000801C491C521EF2D1B0BDC0469E8201008B
:102D8000F0B581B00C46064600252F460A22304693
:102D900021462B4615F08CFE7F1C0922921B2A46E9
:102DA000A24106460C46F1D3384601B0F0BDF0B55D
:102DB0008BB016461099002900901ED0354604931A
:102DC00003910A220292002428460499234615F012
:102DD0006FFE06460F46029A0294234615F088FEBF
:102DE000281A049A8A4102430AD10399491E080607
:102DF000354604973B46E3D107E00020029004E00B
:102E00002B46039802902E46049B1820029F0390A5
:102E100019463C460A270025304604933A462B467D
:102E200015F046FE029001913A462746039C2B4638
:102E300015F05EFE321A30210A43601E05AB1A54AB
:102E40003A0613D07F1E3A06019B11D1A01E05AA97
:102E50002E24145400270922921B3A46049CA241B6
:102E600006D30398C01E05AA115401E02F46019B0A
:102E70000921891B04998D41029EC8D33906C6D108
:102E800005A909181822121A009815F04DFF0BB069
:102E9000F0BDD4D4D0B502AF94B06E46F41D413429
:102EA00002464E4849460858012802D14E4804F0CF
:102EB0003CFE4B4B4846C0188178012968D80179FF
:102EC000481E3F2864D84846C018C07800285FD103
:102ED000444B4846C0184078401E02285CD2F2613C
:102EE0000A460720C543B161C81D28406946081A33
:102EF000B0608546F260104601F0EEF87061C01DCA
:102F000028406946081A30618546F51D193528465E
:102F100016F072FAA88500041CD1F01D193013F0C8
:102F2000A1FC206049462F480818306018302C4A10
:102F300089184A1DB168F5682B46FFF7D9FC82B0A5
:102F4000102000903068831C3069B1682A4601F077
:102F5000C7F802B013F070FCF11D1931884202D19C
:102F6000206813F07FFCB068F16815F0EDFEF01DED
:102F70001930808D002811D17569F469208829469F
:102F8000FFF794FE00280BD06720000204F0CDFD6F
:102F90001548001D04F0C9FDD120000204F0C5FD54
:102FA00049460F48716008182188401831692A463F
:102FB00015F0BAFEB069402801D3022000E00320DA
:102FC000F269084973697468611848701088C018FC
:102FD00010800920000304F0A8FDC0466000000036
:102FE000C00600002006000001B10000D0B502AF0D
:102FF00094B06E46F41D41340246494B4846C01811
:103000008178012968D80179481E3F2864D848464C
:10301000C018C07800285FD1424B4846C01840789D
:10302000401E02285BD2F2610A460720C543B16107
:10303000C81D28406946081AB0608546F2601046EF
:1030400001F04AF87061C01D28406946081A3061D5
:103050008546F51D1935284616F0CEF9A8850004D9
:103060001CD1F01D193013F0FDFB206049462D489E
:103070000818306018302A4A89184A1DB168F56866
:103080002B46FFF735FC82B0102000903068831C7F
:103090003069B1682A4601F023F802B013F0CCFB86
:1030A000F11D1931884202D1206813F0DBFBB068B2
:1030B000F16815F049FEF01D1930808D002810D1FF
:1030C0007569F46920882946FFF7F0FD00280AD0C9
:1030D0006720000204F029FD134804F026FDD120EA
:1030E000000204F022FD49460D487160081821884D
:1030F000401831692A4615F017FEB069402801D3FF
:10310000022000E00320F2690649736974686118BF
:1031100048701088C01810800920000304F005FDD5
:10312000C00600005008000005B10000D0B502AF95
:1031300082B06E4604462B4849460858012802D101
:103140002B4804F0F2FC284A48468018817801296F
:1031500027D80579681E3F2823D848468018C078AC
:1031600000281ED121494846405C401E02281CD23E
:10317000E81D0721884369460B1A49461B48081871
:10318000183089184A1D9D46736019462B46FFF773
:1031900071FB20882946FFF789FD002809D06720A8
:1031A00004E01348001D04F0C0FCD120000204F02C
:1031B000BCFC49460C4831600818218840187168E9
:1031C0002A4615F0B1FD402D01D3022000E0032076
:1031D0000649326850542088401920800920000395
:1031E00004F0A3FC60000000C00600002006000000
:1031F00001B10000D0B502AF84B06E460246284C43
:10320000484600198178012929D80579681E3F2888
:1032100025D848460019C078002820D121494846C1
:10322000405C401E02281DD2E81D072188436946E4
:103230000B1A49461B48081818300919F2604A1D34
:103240009D46B36019462B46FFF714FBF0680088D3
:103250002946FFF72BFD002808D0672003E012481D
:1032600004F063FCD120000204F05FFC484670606B
:103270000019F1680C4609884018B1682A4615F013
:1032800053FD402D01D3022000E003200549726860
:1032900050542088401920800920000304F045FC88
:1032A000C00600005008000005B10000214C48464F
:1032B00000198078012836D848460019017920295C
:1032C00031D1C07800282ED148460019401D202158
:1032D00000F026FE002826D018484946095C00293F
:1032E00024D0494609180D4618352CCD496A194392
:1032F00015430D431AD1494609188A68CB68134310
:1033000014D04978002911D149460D182846283093
:103310000919491D002200F093FD01206870092061
:10332000000304F002FC044804F0FFFBD12000027B
:1033300004F0FBFBC006000005B10000F00800002F
:10334000A0B00446314E484680198078012846D8FE
:10335000484680190179C078084340D12C4F48462F
:10336000C05D00283ED04846C019034618330ECB36
:10337000406A10430B43034334D101AD284616F095
:103380003BF8A885000410D101A813F06BFA0B904C
:103390004846C11928312120202216AD2B4612F0B3
:1033A000ADFF0DA8294600F0E9F913F045FA01A98F
:1033B000884202D10B9813F055FA16A8282115F06F
:1033C000C3FC01A8808D00280ED120882121FFF7A1
:1033D0006DFC00280AD06720000204F0A6FB0D480F
:1033E00004F0A3FBD120000204F09FFB48468019A3
:1033F000218840180DA9212215F096FC2088213043
:1034000020800920000304F090FBC046C0060000A5
:10341000F008000005B100009CB04B4D4846401933
:10342000817801292ED8C07800282BD14846401930
:103430000079484979440E6831460931814221D1E9
:10344000484640194479444878440068A04219D35A
:10345000002807D049464919891D0A6812BA04C1D3
:10346000401EFAD14846401981190527C859491DFF
:10347000496802460A4305D04A465219B218527B9F
:10348000022A02D3314804F050FB0792304B4A46DF
:10349000D25C002A06D04A46D3181A6A5B6A0492A4
:1034A0001A4303D1D120000204F03FFB049A101A02
:1034B0008B41E7D308A8039015F09EFF03998885F8
:1034C00000041FD108A813F0CDF912904846411905
:1034D0008B19DA5905921E4A801806904268581DC9
:1034E0004368881D009001940798029014AC204610
:1034F0001146059A00F04AFA069828300022214623
:1035000000F09EFC13F098F908A9884202D11298A5
:1035100013F0A8F914A8202115F016FC08A8808D36
:103520000028C1D14846411989194A1DC959084B7B
:10353000C018036A591A0162416A52689141416296
:103540000920000304F0F1FAC006000005B10000F4
:10355000F0080000F87B0100E07B01009CB04B4DBF
:1035600048464019817801292ED8C07800282BD1EF
:10357000484640190079484979440E683146093176
:10358000814221D148464019447944487844006832
:10359000A04219D3002807D049464919891D0A6855
:1035A00012BA04C1401EFAD14846401981190527B4
:1035B000C859491D496802460A4305D04A4652196E
:1035C000B218527B022A02D3314804F0AEFA0792B5
:1035D000304B4A46D25C002A06D04A46D3189A6934
:1035E000DB6904921A4303D1D120000204F09DFA52
:1035F000049A101A8B41E7D308A8039015F0FCFE3B
:103600000399888500041FD108A813F02BF91290A4
:10361000484641198B19DA5905921E4A80180690BE
:103620004268581D4368881D0090019407980290D5
:1036300014AC20461146059A00F0A8F906982830E7
:103640000122214600F0FCFB13F0F6F808A988429D
:1036500002D1129813F006F914A8202115F074FB7A
:1036600008A8808D0028C1D14846411989194A1DF2
:10367000C959084BC0188369591A8161C1695268D8
:103680009141C1610920000304F04FFAC006000017
:1036900005B10000F0080000B47A01009C7A010036
:1036A000F0B503AF95B06E46F31D3133F360316072
:1036B0007060002A56D42F487844F11D393118C85B
:1036C00018C138C838C10120C007024327494B46FA
:1036D000591849680143F068C16002616846B060EA
:1036E0006D46403DAD46F41D0934204615F084FE7C
:1036F000A08500041DD1F01D093013F0B3F8F16866
:10370000086084B00C201C4979440095326801920D
:103710000291039000202124F21D39320523214615
:1037200012F06EFF04B0202220462946736812F082
:10373000E5FD13F081F8F11D0931884203D1F068ED
:10374000006813F08FF84021284615F0FDFAF01DAF
:103750000930808D002806D1B0688546FC1F053CE5
:10376000A546F0BD024804F0E0F9C0466000000044
:1037700005B10000B47901007879010070B594B00A
:103780000A460546212001AC01262146334612F0A7
:10379000CBFD02980019C0793040801C2870681C4D
:1037A00009342022214615F0BFFA14B070BDD4D4DC
:1037B000F0B503AFC3B06E46F41D61343546343501
:1037C00013C5F11D9131BD68F868002807D1706BF1
:1037D000B160B16B1C46FFF763FFB1682346002D53
:1037E00000D1C5E00C4621343463F01D6930083047
:1037F000F062F01DB9300930B062706B0830706251
:10380000F01D9130401C30621846F561B061684689
:1038100070616C46403CA546F51D3935284615F0CB
:10382000EBFDA88500047ED13461F01D393013F022
:1038300019F8F46B2060B0690568002D20D4746B12
:103840002178F16021202070F51DB93501237360C6
:103850002946224612F068FDF06BC06D4019C07910
:1038600071680840801CF11D913108702022306A77
:10387000B16A15F059FAF0682070B069056809E07E
:10388000F01D913000210170706B4268306A716ADE
:1038900015F04AFA316BCD70280A8870280C4870F0
:1038A000280E087082B040203469009401902025D1
:1038B000F21D91322523B06B294612F083FC02B031
:1038C000706B0078F31D693321462A4612F016FD0D
:1038D000F56BEA682B497944F46A204612F006FE3B
:1038E000002849D5E86882B00090274B7B442046E9
:1038F0002146726A12F03CFE02B0E968204612F0DE
:103900000BFE002838D1316920312022B06B15F030
:103910000BFAF01D6930716B2CC82CC12CC82CC15E
:103920003CC83CC1346912F087FFF11D393188422F
:10393000F06B02D1006812F095FFF01D9130252147
:1039400015F002FA4021204615F0FEF9F01D69300D
:10395000282115F0F9F9F01D3930808D0028B16962
:103960000BD170698546081DF1694D1E00D04CE7EA
:10397000FC1F053CA546F0BD014804F0D6F8C04642
:1039800001D10000727701005C770100F0B503AF50
:10399000A9B06E46F41D6D343462F3603261B160DB
:1039A00070616846B062FF250235284605F0C0FB0D
:1039B000B061C01D072188436946081A85467062B8
:1039C000294605F0C1FB0546F41D4534204615F097
:1039D00013FDA08500042C4626D0B56912F02CFFFB
:1039E000F11D4531884203D1306A006812F03AFF78
:1039F000F01D7530282115F0A7F9F01D2530202184
:103A000015F0A2F9204605F067FC706A294615F00A
:103A10009BF9F01D4530808D002845D1B06A854660
:103A2000FC1F053CA546F0BDF4613C69FD68B86823
:103A30007060F01D453012F015FF316A086082B0E9
:103A4000002000950190F01D7530F11D2531B26800
:103A50007368FFF7ADFE02B0012C0BD0002CF469A7
:103A6000BBD1306AC268F11D75310831706915F03B
:103A70005BF9B2E7F068316986B00D4A7A440D4BC4
:103A80007B440D4C7C44009101900294039304927A
:103A9000F21D75320832F4692046716908F0B2FCF3
:103AA00006B0002899D1014804F03FF801D1000088
:103AB000917601004D76010009760100F0B503AF63
:103AC000A5B06E46F11D85313162B360F260706160
:103AD000FF250235284605F02BFBB061C01D0721EC
:103AE00088436946081A8546F061294605F02CFB93
:103AF0000546F41D5D34204615F07EFCA0850004CB
:103B0000B0692C4626D13461B468F568B868706035
:103B1000F01D5D3012F0A6FE316A086084B01D48C9
:103B200078441D49794400950194346902910390C9
:103B3000F11D1D312046726807F0BAFC04B0002860
:103B400023D0F21D1D322046716907F056FC002873
:103B50001BD0B069054612F06FFEF11D5D31884241
:103B600003D1306A006812F07DFE204605F0B4FBF8
:103B7000F069294615F0E8F8F01D5D30808D0028C9
:103B800004D1FC1F053CA546F0BD014803F0CDFF64
:103B900001D10000AD75010069750100F0B503AFFA
:103BA000BBB06E46F31D69333362B2610C46F061FF
:103BB000F51D4135284615F01FFCA885000446D1A7
:103BC000F01D413012F04EFE316A0860F01D713078
:103BD0007060002131612246FFF762FD2120706193
:103BE000F41D99340125214672682B4612F09CFB86
:103BF000306A406B0019C0792840801CF11D1D31CE
:103C0000B1600870481C214609312024224615F075
:103C10008BF86846F0606D46203DAD4682B0306955
:103C20000090019028462146B2687369FEF734F986
:103C300002B082B0B069009070690190F0692146CD
:103C40002A462346FEF728F902B0F068854612F0AE
:103C5000F3FDF11D4131884203D1306A006812F052
:103C600001FEF01D7130282115F06EF8F01D413075
:103C7000808D002803D1FC1F053CA546F0BD03F054
:103C800054FFF0B503AFA5B06E46F31D5D3373610D
:103C9000F2600C4630616846B061F51D3535284646
:103CA00015F0AAFBA88500042DD1F01D353012F0C7
:103CB000D9FD75692860F01D65307060F11D153102
:103CC0002246FFF7EDFC6846B0606C46203CA546F6
:103CD000EB6882B0002000900190726808322025C5
:103CE00020462946FEF7D8F802B082B02120F168BC
:103CF000009101903069294622462B46FEF7CCF808
:103D000002B0B068854612F097FDF11D353188424A
:103D100003D17069006812F0A5FDF01D65302821FF
:103D200015F012F8F01D1530202115F00DF8F01DDA
:103D30003530808D002805D1B0698546FC1F053CD3
:103D4000A546F0BD03F0F1FEF0B5B5B01E460C4639
:103D5000054634926846079020AF384615F04CFB74
:103D6000B885000443D1049620A812F07BFD2A9068
:103D70000120002300930193059002902CAF2C4A60
:103D8000384606942146FFF701FE4020019010AE10
:103D90000096294878440D2120243A46234612F003
:103DA00011FA0498314622462B4612F0A7FA6968A8
:103DB0002E460836304612F0AFFB002834D16A6830
:103DC0001E497944304612F091FB00282CD510A8EA
:103DD000203008A90A46D8C8D8C2D8C8D8C2059881
:103DE0000090019034AB2846069AFFF7E1FC12F0F0
:103DF00023FD20A9884202D12A9812F033FD2CA875
:103E00002024214614F0A0FF10A8402114F09CFFAC
:103E100008A8214614F098FF20A8808D002804D11E
:103E20000798854635B0F0BD024803F07EFEC046D7
:103E3000C902000001D10000B973010086720100BF
:103E4000F0B503AF95B06E46F31D15337361F260A4
:103E50007160B0610124204605F06AF90546C01D75
:103E6000072188436946081A85463061B4602146B7
:103E700005F06AF93060F41D1D34204615F0BCFAD7
:103E8000A085000434681AD1F01D1D3012F0EAFC40
:103E900071690863706830620223F0680028184670
:103EA00000D1B068B1697269116082B00090F21DF2
:103EB0001532204607F05AFB02B0002829D012F034
:103EC000BBFCF11D1D31884203D17069006B12F0FB
:103ED000C9FC204605F000FA3069294614F034FF89
:103EE000F01D1D30808D002814D12021B46920469A
:103EF000FEF707FF002805D12021204600F010F82A
:103F0000002803D0FC1F053CA546F0BD024803F085
:103F10000CFE024803F009FE05B1000001D10000CB
:103F2000F0B503AF85B06E46202922D10125B060DF
:103F3000284605F0FDF8F060C21D07218A43694656
:103F400031616946881A70608546294605F0FCF89B
:103F50000446B16805F00CFF0546204605F0BCF9A3
:103F60007068F16814F0F0FE681E8541306985467E
:103F700000E000252846FC1F053CA546F0BDD4D432
:103F8000F0B503AFCFB06E46514CA41974627361A3
:103F9000B261F16130624B4C204605F0C9F805462C
:103FA000C01D072188436946081A8546B06221462C
:103FB00005F0CAF8B060474CA419204615F01CFA69
:103FC000A0850004B46858D13561BD6841488019A6
:103FD00012F048FC716A0860F01D2530202112F0B3
:103FE00067F8F560002D0FD0F11DC5312123204663
:103FF000F26805F087F900285ED0F01DC530402139
:10400000FEF77FFE002857D1FA68F11D8531212384
:10401000204605F077F900284ED0F01D853040216C
:10402000FEF76FFE002847D1254686B0F01D2530EB
:104030000590F01D85300490F01DC530F168002911
:10404000F269B36900D108460021746900940191B6
:10405000029003900833F11D45312C4628460BF0A1
:10406000F9FF06B000282AD0F21D45322046316AF9
:1040700005F046FD002822D0356912F0DDFB154918
:104080008919884203D1706A006812F0EBFBF01DB9
:104090002530202114F058FE204605F01DF9B06AA5
:1040A000294614F051FE0B488019808D002807D155
:1040B000FC1F053CA546F0BD034803F036FD034850
:1040C00003F033FD0102000005B1000001D1000042
:1040D000340100000C01000010300F2188437047AC
:1040E000F0B503AF9DB06E46F41D4134F461336109
:1040F000B0611546B26010350F2085436846441BF9
:10410000A546204614F010FE7461B16860182C4674
:10411000691ACAB214F010FEF51D1935284615F0BB
:104120006BF9A885000419D1B868F060F01D19304A
:1041300012F098FBF1690860F51D49353069F168A6
:104140002A4612F079F882B0B069009001944521B6
:1041500028467269234612F085F802B012F06CFB13
:10416000F11D1931884203D1F069006812F07AFB21
:10417000F01D4930242114F0E7FDF01D1930808D29
:10418000002803D1FC1F053CA546F0BD03F0CDFC83
:1041900070B59CB00D4604466E46304615F02CF9BD
:1041A000B085000422D1684612F05CFB0A90696871
:1041B000284608300CAD40262A46334611F0C0FF91
:1041C0002878F82101402970E87F7F210140E977B4
:1041D000E87F3043E877202628463146FEF7A5FDE4
:1041E000612029463246234612F088F812F024FB5B
:1041F0006946884202D10A9812F034FB0CA840218B
:1042000014F0A2FD6846808D002801D11CB070BD5D
:1042100003F08BFC10B514460B4A4B469A58012A02
:104220000AD0002A0CD1342C01D0382C08D1FEF74A
:10423000A7FD2018423010BD202C01D1492010BD0F
:10424000024803F072FCC0466000000005B10000A7
:10425000F0B587B01F46044605930492304849469E
:1042600008580E9D0D990C9B01280FD0002851D1A4
:104270001646382D039132D0342D38D102930F9B3E
:1042800000203422039903F03DFB2DE01F46084631
:104290000E46294600F048F800283DD004A8082121
:1042A000FEF743FD0598207104992170020EE2711A
:1042B000020CA271000A6071080EE070080CA07078
:1042C000080A6070204608302122394614F02CFD7F
:1042D0002934204631462A4614F026FD1AE00020F3
:1042E0003822029312F0BEFB029B002814D0212238
:1042F00020461946FEF72EFD2046423003992A46F5
:1043000014F012FD002000902819423032463B463E
:10431000FEF74DFD07B0F0BD024803F006FCC046B5
:104320006000000005B10000F0B503AF91B06E462B
:10433000F41D3534202911D1F060F51D0D352846C6
:1043400015F05AF8A88585B2002D09D0F01D0D3062
:1043500000218185206812F085FA29E0002029E0FB
:104360003561F01D0D30B06012F07CFA20606846B7
:1043700070606D46483DAD4602202870681C2022C2
:10438000F16814F0D1FC41202946024611F0F8FFF3
:104390007068854612F050FAB168884202D12068F0
:1043A00012F060FAF01D0D30808D0028356905D1BE
:1043B00068426841FC1F053CA546F0BD03F0B5FB13
:1043C000F0B503AFA1B06E461D4672614C4A4B4634
:1043D0009B583C69FA68012B3061F26030D0746000
:1043E000002B00D088E0382D61D0342D00D083E040
:1043F000B1607068492871697ED2BB68F01D3130A8
:10440000342203F07FFA002876D0F41D11342025E1
:104410003069B16822462B4611F07CFE84B00095CD
:10442000F068019070680290F01D31303649032227
:10443000234612F021F804B0002857D1002456E09A
:10444000B160402C58D170692946FFF76DFF0028F4
:1044500052D0684670606C46483CA54602202070E9
:10446000601C71692A4614F05FFC412528462146EC
:104470002A4611F085FFF31D3133284621462A468E
:104480001D4611F025FF86B040200024B168009140
:1044900001940294F16803910490012105222846B9
:1044A000336911F0A7FF06B071688D461CE0706893
:1044B000402821D10D46F01D31303822716912F0AB
:1044C000D1FA002818D086B040200024009501942D
:1044D0000294F16803910490F01D3130012105220E
:1044E000336911F087FF06B0002800D00124204670
:1044F000FC1F053CA546F0BD024803F016FBC04674
:104500006000000005B1000001060000F0B503AF37
:10451000A3B06E46F11D79313161706001242046EF
:1045200004F006FEB060C01D072188436946081AE2
:104530008546F0607461214604F006FE0446F51DD0
:104540005135284614F058FFA8850004254610D19F
:10455000F01D513012F086F931690860F11D1131FA
:104560002846726806F0E4FE411E8841F11D813143
:104570000870B46812F060F9F11D5131884203D11E
:104580003069006812F06EF9284604F0A5FEF06864
:10459000214614F0D9FBF01D5130808D002808D140
:1045A000F01D8130007871690840FC1F053CA5466C
:1045B000F0BD03F0BAFAF0B503AF97B06E460D4602
:1045C000412901D0212D31D1B261012470602046F2
:1045D00004F0AEFD7061C01D07218843694631615A
:1045E0006946081A8546F0602146B46904F0ACFDBE
:1045F000F11D1531B06072682B4604F083FE411E38
:1046000005468D41002C07D0002805D0F01D15303F
:104610004021FEF776FB2070B06804F05DFEF06884
:10462000716914F091FB3069854600E00025284649
:10463000FC1F053CA546F0BDF0B503AFA3B06E4628
:10464000F11D11317161F0600125284604F070FD03
:10465000B060C01D072188436946081A854630614D
:10466000294604F071FD0546F41D5534204614F02A
:10467000C3FEA0850004B0682C461FD1F01D553044
:1046800012F0F0F87569E866F11D15312123204616
:10469000F26804F037FE00282BD04120286082B059
:1046A00002200090F21D1132F31D15332046F168EF
:1046B00004F026FF02B000281ED0B068054612F0B4
:1046C000BBF8F11D5531884203D17069C06E12F0FC
:1046D000C9F8204604F000FE3069294614F034FB86
:1046E000F01D5530808D002807D1FC1F053CA546E4
:1046F000F0BD044803F019FA014803F016FAC04669
:1047000001D1000005B10000F0B5A9B00D46044686
:104710006E46304614F070FEB08500041AD168462B
:1047200012F0A0F80A901848784402681FAF41269A
:10473000384629463346FFF707FB0CAD01233046C8
:1047400029463A4611F0F0FD08350D9A30462946C3
:1047500011F000FE12F070F86946884202D10A9802
:1047600012F080F81FA8282114F0EEFA6846808D18
:10477000002807D10CA909312022204614F0D4FAD0
:1047800029B0F0BD03F0D1F994720100F0B503AF88
:10479000C1B06E46F41DC534F3627163B063346416
:1047A00062634C4D284604F0C3FC0721CC43F06300
:1047B000C01D20406946081A85467064294604F0E9
:1047C000C3FCF060F11D4131842204F08DFD3061A5
:1047D0000120F061050228460AF0BCF97061C01D95
:1047E00020406946091A8D463C4A7A44F4682046BE
:1047F00031632B460AF0B2F9B060F51DC935284681
:1048000014F0FAFDA885000474623069B062B068E3
:1048100030622ED1FC68BD68F01DC93012F022F85C
:10482000326CD0620020C143116090B040212C4A0C
:104830007A44F369089309920A91F16A0B910C95F5
:104840000D900E900F940790F11DF931069105908F
:10485000716B0491039002900190F01DC53000909F
:10486000706AB16A326AB36B0AF002FA10B00028BB
:104870002DD0F06BB061756911F0DEFFF11DC9310B
:10488000884203D1306CC06A11F0ECFF746A204694
:10489000316A0AF0CDF9306B294614F055FAB06A46
:1048A00004F02FFDF01D4130842114F04DFA204614
:1048B00004F012FD706CB16914F046FAF01DC930B5
:1048C000808D002804D1FC1F053CA546F0BD0248A0
:1048D00003F02BF90103000001D10000E36801009F
:1048E0005D680100B0B50446092020721848002513
:1048F000256060602046093016497944122214F080
:1049000013FAA57743206077572020774D20E07673
:104910002046203010497944062214F005FA20463A
:1049200050300E4979442CC92CC00D487844016898
:104930004068A162E0622046303021462831E165BE
:10494000206608497944202214F0EEF9B0BDC04633
:1049500051020000626801001F4C01004069010023
:104960001069010000690100F0B581B016460446E7
:104970000D1A681E054205D1B047294614F07AF891
:1049800008460CE00020C043294613F0EDFF07461F
:104990004543B047A842FCD2394613F0E5FF001961
:1049A00001B0F0BD80B503F065FC80BDB0B5054633
:1049B000072028400024012815D0022815D10C48D2
:1049C000002908D04A46101811F0F4FE28060AD52E
:1049D00011F05AFB07E049460818412189000022DE
:1049E00011F012FF04462046B0BD022003F09DF8EE
:1049F000C0060000F0B585B0DE4E4846805D0C284C
:104A000039DD0D2864D00E2800D188E0152800D0AB
:104A1000D3E0D948494608188079012806D148468C
:104A200080198079000701D400F027FDD34E4D4650
:104A30000120A855AC1900276760204611F014FE2C
:104A40006060022011F024FF6060CD4C2919496894
:104A5000002900D15AE3CB4A904200D1ACE30028B0
:104A600000D1A9E34D462A1957608847A819FB4988
:104A7000443141604EE3052879D00C2800D09CE0F9
:104A8000F3494F46012078547C1800256560204684
:104A900011F0EAFD6060022011F0FAFE6060ED4C5A
:104AA00039194968002900D139E2EB4A904201D115
:104AB00000F06FFC002801D100F06BFC4E4632196B
:104AC00055608847E2483018E4494431416031E29A
:104AD000DF4E4D460120A855AC19002767602046DF
:104AE00011F0C2FD6060022011F0D2FE6060D94C6E
:104AF00029194968002900D184E0D74A904201D1A0
:104B000000F047FC002801D100F043FC4D462A1973
:104B100057608847A819D149443141607DE0CC49AC
:104B20004E4601207054751800276F60284611F01A
:104B30009BFD6860022011F0ABFE04466860C54D25
:104B400070194168002900D1BCE0C348844200D1FB
:104B50001AE1002C00D117E14E467019476020463B
:104B60008847BB483018BD4944314160AEE0B84980
:104B70004F46012078547C1800256560204611F0CE
:104B800073FD6060022011F083FE6060B14C391942
:104B90004968002900D165E1AF4A904200D1F8E3AD
:104BA000002800D1F5E34E46321955608847A848E1
:104BB0003018AA49443141605FE1A54E4D460120BD
:104BC000A855AC1900276760204611F04DFD6060C4
:104BD000022011F05DFE60609E4C29194968002991
:104BE00000D1F9E19C4A904200D14CE2002800D16A
:104BF00049E24D462A1957608847A8199749443118
:104C00004160EDE19449884200D1C2E3002800D11F
:104C1000BFE39349884200D020E348462546041963
:104C200003F01CFA03F024FA7A2004902752A06EB5
:104C3000002800D1ADE34846801940688649884283
:104C400000D1A6E3002800D1A3E32C464846401932
:104C50006C26805D002800D19BE3804F11F0BCFCE6
:104C6000B84204D111F0ECFCB84200D091E34846C0
:104C70000019825D049D415B914200D3DFE208464A
:104C8000382778434A4613199A6E101868331B6AFE
:104C9000002B06D0984700280AD049460A19515BD4
:104CA000926E012802D188B24743D01903F0E2FA8C
:104CB00048460019415B491C4153825D88B29042CD
:104CC000DED3BDE26548443084425DD14846461992
:104CD00003F0C4F903F0CCF97A2400203053B06E0D
:104CE000002800D155E348465949401840685A49C0
:104CF000884200D14DE3002800D14AE348464019DC
:104D00006C26805D002800D143E3544F11F064FC11
:104D1000B84204D111F094FCB84200D039E34846BF
:104D20004019825D015B914200D388E20846382732
:104D300078434A4653199A6E101868331B6A002B41
:104D400006D0984700280AD049464A19115B926E4E
:104D5000012802D188B24743D01903F08BFA4846A4
:104D60004019015B491C0153825D88B29042DED339
:104D700066E2C046C4000000C4070000F001000065
:104D800088020000445010B0484641199420095848
:104D9000002913D00A46643A00D23A464B465B19C2
:104DA0001A5064290AD890215958002906D04A4639
:104DB00052199823D358135000208847264884421C
:104DC00000D1E6E2002C00D1E3E248464019806EB3
:104DD000002800D145E3484640196C24015D7A263D
:104DE000805B884200D33CE31C4F11F0F5FBB842D6
:104DF00004D111F025FCB84200D032E348464019F6
:104E0000025D815B914200D326E308463827784350
:104E10004A4653199A6E101868331B6A002B06D045
:104E2000984700280AD049464A19915B926E01289A
:104E300002D188B24743D01903F01CFA4846401902
:104E4000815B491C8153025D88B29042DED304E34A
:104E5000F001000088020000445010B0115010B062
:104E6000555010B0F949884200D192E2002800D193
:104E70008FE2F749884200D031E24846071903F033
:104E8000EDF803F0F5F87A26BD53B86E002800D18E
:104E90007FE24846EF4940184068EC49884200D11B
:104EA00077E2002800D174E2484600196C25405D85
:104EB000002800D16DE2E84F11F08EFBB84204D11A
:104EC00011F0BEFBB84200D063E248460019425DD3
:104ED000815B914200D3B2E10846382778434A46C5
:104EE00013199A6E101868331B6A002B06D0984766
:104EF00000280AD049460A19915B926E012802D116
:104F000088B24743D01903F0B5F948460019815BD0
:104F1000491C8153425D88B29042DED390E1CB4977
:104F2000884200D135E2002800D132E2C8498842E7
:104F300000D037E24846071903F090F803F098F8DC
:104F40007A26BD53B86E002800D122E24846C149F6
:104F500040184068BD49884200D11AE2002800D1BB
:104F600017E2484600196C25405D002800D110E288
:104F7000B94F11F031FBB84204D111F061FBB842D6
:104F800000D006E248460019425D815B914200D3A1
:104F900055E10846382778434A4613199A6E101887
:104FA00068331B6A002B06D0984700280AD0494670
:104FB0000A19915B926E012802D188B24743D01939
:104FC00003F058F948460019815B491C8153425D42
:104FD00088B29042DED333E19F494431884252D1B6
:104FE0004846051903F03AF803F042F87A20049095
:104FF0002F52A86E002800D1CBE1484680194068A6
:105000009249884200D1C4E1002800D1C1E148465C
:1050100000196C26805D002800D1BAE18E4F11F096
:10502000DBFAB84204D111F00BFBB84200D0B0E17A
:1050300048460019825D049D415B914200D3FEE029
:105040000846382778434A4613199A6E1018683371
:105050001B6A002B06D0984700280AD049460A1937
:10506000515B926E012802D188B24743D01903F0F8
:1050700001F948460019415B491C4153825D88B2E1
:105080009042DED3DCE048460019806E002800D153
:1050900075E1484600196C25415D7A26805B88429F
:1050A00000D36CE1F84F11F097FAB84204D111F037
:1050B000C7FAB84200D062E148460019425D815B00
:1050C000914200D356E10846382778434A461319DF
:1050D0009A6E101868331B6A002B06D09847002878
:1050E0000AD049460A19915B926E012802D188B212
:1050F0004743D01903F0BEF848460019815B491CAC
:105100008153425D88B29042DED334E1DE494431BE
:10511000884251D14846051902F0A0FF02F0A8FFCD
:105120007A2004902F52A86E002800D131E1484621
:1051300080194068D349884200D12AE1002800D173
:1051400027E1484600196C26805D002800D120E147
:10515000CD4F11F041FAB84204D111F071FAB842C2
:1051600000D016E148460019825D049D415B9142E2
:1051700065D20846382778434A4613199A6E1018A4
:1051800068331B6A002B06D0984700280AD049468E
:105190000A19515B926E012802D188B24743D01997
:1051A00003F068F848460019415B491C4153825D91
:1051B00088B29042DED343E048460019806E002852
:1051C00000D1DCE0484600196C25415D7A26805B01
:1051D000884200D3D3E0AC4F11F0FEF9B84204D1BD
:1051E00011F02EFAB84200D0C9E048460019425DDD
:1051F000815B914200D3BDE00846382778434A4698
:1052000013199A6E101868331B6A002B06D0984742
:1052100000280AD049460A19915B926E012802D1F2
:1052200088B24743D01903F025F848460019815B3E
:10523000491C8153425D88B29042DED39BE0084610
:10524000904200D0A5E011F065FAA2E0445010B001
:10525000555010B0F0010000115010B04846001930
:10526000806E002800D18AE0484600196C25415D17
:105270007A26805B884200D381E0834F11F0ACF93D
:10528000B84203D111F0DCF9B84278D14846001990
:10529000425D815B91426DD20846382778434A4689
:1052A00013199A6E101868331B6A002B06D09847A2
:1052B00000280AD049460A19915B926E012802D152
:1052C00088B24743D01902F0D5FF48460019815BE8
:1052D000491C8153425D88B29042DED34BE0484680
:1052E00000198C214058002805D049468919C978F1
:1052F000490802F0E7FF48460019806E00283ED0BA
:10530000484600196C25415D7A26805B884236D27A
:105310005D4F11F061F9B84203D111F091F9B84233
:105320002DD148460019425D815B914222D2084648
:10533000382778434A4613199A6E101868331B6A47
:10534000002B06D0984700280AD049460A19915BDD
:10535000926E012802D188B24743D01902F08AFF29
:1053600048460019815B491C8153425D88B29042D6
:10537000DED300E00846904201D111F0CBF9484657
:1053800000196C21415C7A22805A884201D311F0C5
:1053900027FA11F025FA002801D102F0A5FC01201E
:1053A00005B0F0BD4A46364814186C25605D04907F
:1053B000A06E03909219D379967951791079D278A9
:1053C000274668373F6A009201970002401882B270
:1053D0003002C01883B20398049902F0C1FEA06E97
:1053E000274C002845D048460019415D7A26805B4D
:1053F00088423ED2244F11F0EFF8B84203D111F0A9
:105400001FF9B84235D148460019425D815B91428F
:105410002AD20846382778434A4613199A6E10183C
:1054200068331B6A002B06D0984700280AD04946EB
:105430000A19915B926E012802D188B24743D019B4
:1054400002F018FF48460019815B491C8153425DF8
:1054500088B29042DED308E00846904201D111F0B4
:1054600059F9484640198CE70846904201D111F09D
:1054700051F948460019415D85E7102002F055FBBF
:1054800088020000445010B0115010B0D0B502AFE7
:1054900090B06E46F31D3133414A4946895801297F
:1054A00002D1414802F041FB3E4A49468A189178B0
:1054B000012959D8D178002956D115793C49794428
:1054C0000968A94250D1394A494689184A78FE21CB
:1054D000114002294CD1B360F060E81D07218843D8
:1054E0006946081A70608546F41D0934204613F099
:1054F00083FFA085000418D1F01D093011F0B2F926
:10550000B168086049463160284808181830746846
:105510002146FDF72BFA234831680818401D214623
:105520002A4602F008FB00281ED1746811F084F9A5
:10553000F11D0931884203D1B068006811F092F979
:105540002046294613F000FCF01D0930808D00280C
:10555000F4680FD120881021FDF7A8FB00280BD09C
:105560006720000202F0E1FA0F48001D02F0DDFAA8
:10557000D120000202F0D9FA49460A4808182288C8
:1055800080180A4A8918891C102213F0CDFB208844
:105590001030208002F016F90920000302F0C5FA4D
:1055A00060000000C006000001B1000020060000FD
:1055B000425A0100D0B502AF90B06E46F31D3133B0
:1055C0003D4A49468A189178012959D8D17800294D
:1055D00056D115793B4979440968A94250D1384AD6
:1055E000494689184A78FE21114002294BD1B360FF
:1055F000F060E81D072188436946081A70608546F7
:10560000F41D0934204613F0F7FEA085000418D1DC
:10561000F01D093011F026F9B16808604946316083
:1056200027480818183074682146FDF79FF922486A
:1056300031680818401D21462A4602F07CFA0028ED
:105640001ED1746811F0F8F8F11D0931884203D1B8
:10565000B068006811F006F92046294613F074FB83
:10566000F01D0930808D00280FD1F46820881021AA
:10567000FDF71CFB00280AD06720000202F055FA53
:105680000E4802F052FAD120000202F04EFA4946CA
:105690000948081822888018094A8918891C10228C
:1056A00013F042FB20881030208010F0BBF8092056
:1056B000000302F03AFAC046C006000005B100003F
:1056C000500800002A590100D0B502AF82B06E46E2
:1056D0000446264849460858012802D1264802F0C7
:1056E00024FA234D484640198078012824D848469A
:1056F00040190179C07808431ED11E484946095C0B
:10570000FE220A40022A1BD11C49794409687160B3
:10571000C91D072291436A46511A4A46101818308B
:105720008D463160FDF722F920887168FDF7BEFAD9
:10573000002809D0672004E00F48001D02F0F5F9A9
:10574000D120000202F0F1F94846401921884018A2
:1057500022CE2A46083E13F0E7FA2088401920801E
:1057600002F030F80920000302F0DFF960000000C9
:10577000C00600002006000001B10000F65701003D
:10578000D0B502AF82B06E460446224D484640195D
:105790008078012824D8484640190179C078084308
:1057A0001ED11D484946095CFE220A40022A1AD130
:1057B0001B49794409687160C91D072291436A46F3
:1057C000511A4A46101818308D463160FDF7CEF850
:1057D00020887168FDF76AFA002808D0672003E086
:1057E0000E4802F0A2F9D120000202F09EF94846CC
:1057F00040192188401822CE2A46083E13F094FA18
:1058000020884019208010F00DF80920000302F0D4
:105810008CF9C046C00600005008000005B1000029
:105820004E570100F0B503AF8BB06E463061C54BEB
:105830004846C0188278B261012A00D97FE1047914
:10584000C74A7A4415682A4643327462A24200D994
:1058500075E1C478BC4A484680580128F16104D0FB
:10586000002805D1022C03D369E1002C00D066E1A9
:1058700074614846C0184019441D21212046FDF797
:1058800040FA00280ED12121F21D21322046FEF7D8
:1058900092FE002800D152E1F01D2130007800284E
:1058A00000D04CE14846A74940182818263021214D
:1058B00000242246FEF77FFE002800D13FE1484643
:1058C000A0494018423540194079022805D3801E6E
:1058D000012800D933E1092000E0012034629C4A0C
:1058E0004946895C002900D11FE1494689180C46C8
:1058F00018341CCC496A194314430C4300D014E1FA
:105900004946934C09198A68C9681143401900290E
:1059100000D10EE1716A884200D910E106D18D48AC
:1059200049460818412113F00FFA92E08D49794455
:1059300009680C18611C726A914200D9FFE049465F
:10594000804D49190818401D0546FEF7DFFD002867
:1059500000D1F4E049467C480858726A121B794B22
:10596000C9180919491D012872623161F56014D006
:105970000028774C16D17069002800D1CAE00128B0
:1059800010D1484601196846383885464968306064
:10599000B26902F057F8342504E0706900286C4CB5
:1059A00000D1ACE048460419A068E1682A46FEF739
:1059B00031FC7061C21D07218A43694671606946E6
:1059C000891A8D46B160A268E36884B0F0680090DF
:1059D000306801900295B56903950846FEF738FCDA
:1059E00004B0A36C84B0009530690190706A029095
:1059F0004C34B06871692246FEF7E2FC04B000281E
:105A000000D19CE0484650494058012810D0002859
:105A10001CD150484D462C184121204613F094F9D2
:105A20004B4829188A6C4C31204613F07DF90DE063
:105A300048484D462C184121204613F085F944482A
:105A400029188A6C4C312046FDF784F97068854628
:105A50003F4C484600194078002866D03E484D46E5
:105A60002C182121B161204613F06EF9F5603848F9
:105A7000281870618268C368334828187062007AF9
:105A800082B000902046FDF792F902B0204613F054
:105A9000FDFC2021316121542018316A4170756A62
:105AA0001B352046294613F0C1FC2C48F1680C1820
:105AB0002046B16913F048F9706902694369706A58
:105AC000007A82B000902046FDF771F902B02046BE
:105AD00013F0DCFC316921542018316A41702046F2
