:02000004C0DE5C
:1000000070B58CB062B6002808D02D494A46531806
:1000100001686422184615F0B5F904E028484946FD
:10002000081804F03BF9274E12F096FB4846801959
:100030004F218A000024214607F0CDF807F0B0F8E0
:100040006D46284615F006FDA88580B2102805D11A
:10005000684684850A9812F079FFE5E7002809D000
:10006000684684850A9812F071FF02F0A5FC2046CC
:100070000CB070BD684612F069FF0A9007F030FBC3
:10008000052000242146224612F08EFE0E494A46E3
:1000900051184862204613F0E5FF0125284613F069
:1000A000E1FF204606F0C6FE2046214600F0E8FFAC
:1000B00006497944284600F0E3FF06F083FCC04679
:1000C0006000000088020000B4070000BA5C010074
:1000D000F0B593B012930F46044600787F2101409B
:1000E000052900D1CCE215460E91208B00F0D8FAFC
:1000F00000280F95119765D04279867900200A90E3
:10010000002F67D0002D65D00992208BE188129ACC
:100110000092EBB2643189B23A4600F0E7FAE18826
:100120000022052D0D9208960C905AD3884258D97A
:10013000208B129900916421914A7A44032300F0A4
:10014000D5FA0A9068083E18E188002810904AD035
:100150000C9A8A4247D92F1A45D000200B90208B49
:10016000129D009589B2109AD3B2119A00F0BEFA8E
:100170000C90E188208B0095FBB2324600F0B6FA75
:100180000A990C9A51180D18E1888D420C952AD9BC
:100190000B9F012F06D0002F05D11098401E0F9BFA
:1001A000119A03E0761C0F9B119A1098002810906A
:1001B00019D08D4217D90120B843921BD7180B9044
:1001C000CDD110E0002110910C910A460E46084650
:1001D0000A9103E00A9910910C9108460B910E9B2D
:1001E00033E0164610950A9603239D03208B0540A5
:1001F0000122D703BD420CD09703BD420D9D0B9544
:100200000F9D119F089E0CD10C9E891B089E0B917F
:1002100007E00C9D6D084908491B0B910F9D119F2C
:10022000089E190308405103884205D011038842F3
:1002300008D12089801B06E07008C0432189490845
:10024000081800E00D980E9B099A032B07DC0D900F
:10025000012B5FD0022B0BD0032B5BD010E2042BC1
:1002600053D0062B00D196E10D90072B00D007E26A
:10027000207B01282CD10992072B314600D0002188
:1002800004200790205E0891421A0227E15F60690E
:10029000072B099B00D0238900930B9D2B4612F05E
:1002A000E3FD0C982818E15F4118E288131A0798BB
:1002B000205E089A821A60690E9D072D01D025895B
:1002C0000995099D009512F0CFFD0F9D119F0E9B82
:1002D000002F00D1D4E1002D00D1D1E108960220F9
:1002E000205E0C9004200790215E206909906269CD
:1002F000208BE68825890397109F0497129F059706
:10030000072B00D15FE10D9B5EE10D90E07A0028A4
:1003100000D1B7E1E3885A0821894808824216468D
:1003200000D30646E57AAE4203D88242154600D392
:100330000546207B012825D104201090225E02274B
:10034000E65F20690091A9196E009B1B12F08CFDDD
:10035000E15F1098225E2089831B20690093AA1810
:100360002B4612F081FDE15F1098225E2089831BED
:100370002069E6880093AA18491B89192B4665E075
:10038000105C010004200C90225E0226A75F1096EC
:1003900060690091E9196F00DB1B12F065FDA15F38
:1003A0000C9EA25F2089C31B0E9760690093AA1858
:1003B0002B4612F059FD1098215EA25F2089C31BC5
:1003C0006769E0880093AA18EB43C91809183846F2
:1003D0002B4612F049FDA05F0A903746109EA15FA0
:1003E0002269E388A07A009069180E981B1A1046BB
:1003F0000A9A12F039FDE05F0A90A15F2069099026
:100400002289E388A07A009069180E9FDB1B0A9866
:100410008018421E099812F027FDA05F0A900C9EDA
:10042000A25F2089C11BA37A20690091AA180A99AA
:1004300012F01AFD1098215EA25F2089C61BA37AD4
:100440002069E7880096AA18C919491E12F00CFD08
:10045000022D119869D3207B012802D0A07A281A96
:1004600000D20020109004200C90205E0A90022000
:10047000215E07460E9020696369C0220092109E9B
:100480000196029369180A9AAA182B4600F0D9FA25
:100490000C98205E0A90E05F0890206909906369DB
:1004A000E188A07A30220092019637461096029396
:1004B0002818089A5118091A0A982A1809982B46D8
:1004C00000F0BFFA0E98205E0A900C9EA05F089084
:1004D0002069099063692189A07A0C220092019712
:1004E00002932818089A51180A1A0A982918099884
:1004F0002B4600F0A6FAA05F0C900E98215E2069B2
:100500000E9063692689E788A07A03220092109AE8
:10051000019202932818C919091A0C9A101A821903
:100520000E982B4600F08DFA119800280F9800D1F4
:10053000A6E0002800D1A3E0237B10211420012B8A
:100540000A4600D00246012B00D00846A15810915F
:1005500020580E900220215E0420255E208BE68824
:100560002789A37A119C03940F9C0494129C0594F0
:100570000124E443002B00D05C430D9ABB1A1B19E5
:100580000B9FF61B341955190095019402937B18A3
:100590000E99109A72E00420205EE37AC2180220BD
:1005A000205E19182069267B0025012E03D0A67A2B
:1005B000B34200D99D1B6469FF2600960195029401
:1005C00000F03FFA5CE000231093ED1A0B9FF31B41
:1005D000019302950E9B072B01D00D9B01E0089B18
:1005E0005B420D935B1800930B9B0C995B18099968
:1005F00000F0CBF801460A98002841D0079FE35F3E
:1006000020690C9060690E90208B0990E5882689FE
:100610000891032121487844109AB61A0B9AAD1A12
:100620000D9AD31800AA68C203900491129D0595F3
:10063000089883B209980C990E9A00F0A6F80E90CB
:10064000E35F20690C9060690990228BE688248919
:100650000F98119FC7190A983F1A1099641A0B999D
:10066000761A0D99CB180093019602940390049783
:1006700005950E9883B210460C99099A00F085F8FA
:1006800013B0F0BD0420225E0220215EE3882069C1
:100690002489009412F0E8FBF2E7C04634570100C9
:1006A000F0B581B00E4D05400E48784401688800D1
:1006B0000D4A7A448018001F4E1C761E0CD0071F6E
:1006C0000468204607F004FE0068A8423846F4D1CA
:1006D000204607F0FDFD00E0002001B0F0BDC0465F
:1006E000FF0F0000326B01001E6B0100F0B583B0FC
:1006F0001C4615460191FFF7D3FF0026002841D084
:10070000002C019A3ED00026029003892F789F4248
:1007100002D34189B94213D20A2F33D00D2F31D0E1
:10072000B809032803D33F20074039461EE078B2BA
:10073000002100281AD5B806009109D50F2008E03D
:10074000F91A8F00C06807F0C3FD019AC15D0DE082
:100750000E20FFF7A5FF0028019A009906D0C06877
:1007600007F0B6FD019AF906490E415C002A03D054
:10077000B0B20818904205D86D1C641E7618200689
:100780000298C2D1B0B203B0F0BDF0B5A3B00A93E5
:100790000F91149110921392FFF782FF002800D15D
:1007A00044E12C9907910B90047900200990C043F3
:1007B0000890022C5DD313AD281D3C210D9014F040
:1007C000DBFD10981390089AA240D043129080004D
:1007D0000F9929500E92901C0C900026F7000F984C
:1007E000F840C5B21098F840C4B2A542284600D3DC
:1007F0002046A542294600D82146081A401C1299D5
:1008000014F0F8FBA542119617D90221C9430E9A9C
:100810008A422AD801210D9A0C9B05464D432D1979
:10082000FF2D00D3FF25BD4016682E4340C25D1C3E
:10083000491C9D422B46F0D217E00221C9430E9A73
:100840008A4212D801210D9A0C9B129C641A4443CF
:100850006419FF2C00D3FF24BC401668264340C215
:100860005C1C491C9C422346EFD2119E761C032E31
:10087000B4D1289C079D002D00D1D9E02A98299950
:100880002B9F02190A9809180D9103460B99099894
:100890002E4601251195AE1B3D780D2807D10A2D56
:1008A00005D1761C7F1C0A20012EF5D1C1E00E93E4
:1008B0000F94134608894A791292854204D30B9902
:1008C0004989A9420B990FD20D2D01D00A2D27D1AC
:1008D00012980F9A121814461018984200DDADE0D5
:1008E0001A4628460A9B67E00C93281A099085004F
:1008F000086907F0EDFC04460B98C06807F0E8FCB7
:1009000040194088201806900B98C06807F0E0FC5A
:100910000E9B455D0B98C07907900F9C224613E013
:10092000C02D0C9305D33F212940002009950D4689
:1009300005E068B2002845D40020099505460790D7
:1009400006900F9C22460E9B58190D99884207D994
:100950001298241820180C9988426ADC0A9B2246B7
:100960000698002819D00F920246129868430B99F6
:100970000979484304900392029113A801901198B9
:100980008840009018460F992A4611951D46129BE3
:1009900012F048FA2B46119D08E01298009010982A
:1009A00019460E932B4612F05FFA0E9B0B990C9A88
:1009B00007982818C3180998089D75437F1C002EB6
:1009C00037D065E7A80601D50F2000E00E200F9C68
:1009D000FFF766FE002823D00F90006907F078FC2F
:1009E00012900F98C06807F073FCE906490E099150
:1009F000401840881299081806900F98C06807F0B0
:100A000067FC0999435C0B98807922180F988179CB
:100A1000521A407912900020079009951D4692E7DE
:100A2000002009950546079006908BE7002003E01B
:100A30000A9B98B22104081823B0F0BD0E9880B22A
:100A4000F8E7F0B59DB01B921A9106462398411E17
:100A500002468A4118921393191A1291002901DC57
:100A6000002100E00121139A002A00D5C0E1189A64
:100A70000A401892249910912299139FC21B039245
:100A800080220A400A9240220A400D9220220A4007
:100A9000099210220A400C9208220A40089204226D
:100AA0000A400B920123129A9C1A069402240C40CD
:100AB000079419400E911C93DC1B1A994018C01B17
:100AC0000590401C04900025E943501E0F90169598
:100AD0001196481C17900E9800281995159114949A
:100AE00006D10798002855D0189800281FD147E054
:100AF0001898002838D01C9C00940F983B1A1B981B
:100B00004018451C10981A9E31462A4612F0ACF93E
:100B10000094149CB819119E0699411830462A4633
:100B2000199D129B12F0A0F90798002832D01B984B
:100B30003D181398B8420AD01C9800900398159954
:100B40004018831C10981A992A4612F08DF91C98A7
:100B50000090059815994018811C30462A46129B32
:100B600012F082F9199D15E01C9800901B9842180C
:100B700030461A993B4612F077F90798002809D0B9
:100B80001C9800901B983818421E30461A99179BE3
:100B900012F06AF90B98002806D1089800285AD05C
:100BA000189800281FD133E01A98C51B1898002800
:100BB00020D01C9C00940F9EBB1B1B9815994018BD
:100BC000421C02921098294612F04EF90094149C8F
:100BD000A91B1198029A119E129B12F045F90898D0
:100BE0000028199D37D01398B8421BD11B983E1886
:100BF0001C9827E01C9800901B98159942183046C5
:100C000029463B4612F030F908980028199D22D059
:100C10001C9800901A9841191B983818421E3046AB
:100C2000179B16E01C9C00941A9841191B983E18BB
:100C30000398159A8018831C1098324612F014F904
:100C40002046149C0090049841191198324606469B
:100C5000129B12F009F90C98002806D10998002877
:100C600053D0189800281ED146E01B9845191898B3
:100C7000002835D01C9C00940F983B1A10981A9E9F
:100C800031462A4612F0F0F80094149CB819119ECF
:100C90000699411830462A46129B12F0E5F8099849
:100CA0000028199D31D01B98C51B1398B84215997F
:100CB0000AD01C98009003984018831C10981A9929
:100CC0002A4612F0D1F815991C9800900598401802
:100CD000811C30462A46129B12F0C6F8199D14E07A
:100CE0001C98009030461A992A463B4612F0BCF8F0
:100CF00009980028199D08D01C9800901B98C21BC9
:100D000030461A99179B12F0AFF80D98002806D1BB
:100D10000A98002856D0189800281ED131E01B9858
:100D200045191A98C61B189800281DD01C9C0094C1
:100D30000F983B1A109831462A4612F095F8009405
:100D4000149C0F98311A119E30462A46129B12F0BD
:100D50008BF80A980028199D34D01398B84219D1FD
:100D60001B98C21B1C9826E01C98009011983146D5
:100D700006462A463B4612F077F80A980028199D45
:100D800020D01C9800901A9841191B98C21B30461D
:100D9000179B15E01C9800901A9841191B98C41BCA
:100DA0000398159A8018831C1098224612F05CF85C
:100DB00022461C98149C0090049841193046129BBE
:100DC00012F052F8791E012C384600DB0846169ABC
:100DD000521C012C169201DB169A521A510061180E
:100DE0004C1C6D1E179981421397074600DA70E676
:100DF0001DB0F0BDF0B589B08E68022E20D80C462B
:100E00000421415E08910221405E05902068069011
:100E100060680790E06807F05BFA0546A7682069FC
:100E200007F056FA0ECC0124B4404B43534300A9BB
:100E3000B0C103900493089905AB0DCB11F0F2FFFC
:100E400009B0F0BD70B584B000200390029002ADEF
:100E500008242846214611F091FFA87802994140C4
:100E600003984840A97941402970E8786A7842405F
:100E700068795040EA7942406A70D0B20090064DDD
:100E80004E467019401CCBB21721044A7A4407F031
:100E90002FF8745504B070BD00000000424F0100EF
:100EA000F0B58FB007AD28461830072114F064FA6A
:100EB0000620687011202870A81C2449794410224B
:100EC00014F060FA0024EC751820A8756C750C20DD
:100ED00028751220E8740520A8741A484946081895
:100EE000C588868818480F18384614F0FDFD00970D
:100EF000C3B230462946224601F00EF901250028EA
:100F00001CD1114E182007A901F0D6F9002815D1DF
:100F100048468519284614F0E7FDC0B200940190B8
:100F2000029503940494059406943021602220468F
:100F3000234600F0C3FE0546401E854128460FB0FB
:100F4000F0BDC0461800000000000000246301004E
:100F5000F0B589B0444F4846C0190021818414215E
:100F6000017301F08BF9002872D1FFF76BFF0020AD
:100F700006213F4A7A4401F02FF9002868D100F099
:100F8000F9FF002864D14846C01901460831821D86
:100F900000920191031D012000241822214600F037
:100FA00059FF002854D10125284600F0D5FE00281D
:100FB0004ED104942D4803900295102601960820E6
:100FC00008900090284629462A462B4600F0E6FE67
:100FD00000283DD14846C0190E3000900220254916
:100FE0007944012509232A4600F0E2FF00282FD189
:100FF0004846C119C88910310A2200961646019444
:10100000029403920495059102211B4A7A44992384
:10101000079101F01DF800281AD14846C119C88966
:101020001231089A00920192079A0292039604954F
:101030000591124D7D44992311462A4601F008F886
:10104000002805D10120072101F0F4F8002802D082
:10105000012009B0F0BD4846C019C462FFF720FF67
:10106000411E8841F5E7C0461800000040E201003B
:101070009C62010000620100E4610100CC6101009A
:10108000F0B581B004461E484F463818482114F088
:1010900073F91C48242139541B49791800264E60E5
:1010A0003D18686800906E60284611F051FE1748A0
:1010B00044213954009969603818002C01D1214627
:1010C00000E00321C170012181704670042111F0FC
:1010D000E5FE0B497C500E4D002C0AD07819406A71
:1010E000002806D10020014605F034FBFFF730FF51
:1010F00001E04846465048464019C68301B0F0BD5D
:1011000018000000F001000088020000C400000088
:10111000B4070000B0B50848494624220A54074ADB
:101120008A18002353600C1865686360204611F02C
:101130000FFE6560B0BDC046F001000088020000EF
:1011400010B504464068083000F004F8411E88419C
:10115000207010BDF0B583B004464078E51C012630
:101160003E2809D0FF2832D00528304600D0C3E001
:10117000FFF7D0FF00F0DEF8E078012800D0BAE0F9
:1011800068484F4602963E1814203073A878E978D4
:101190000902081870817D21890000910C21182214
:1011A0000024234601F0B0F85F48242139543476F6
:1011B0005F497918CC835D4979184C603D186E6899
:1011C0006C60284611F0C4FD6E60029894E02878A7
:1011D0006978090208180321890288420CDC4C490D
:1011E000884219DC4D4988421DD04D49884200D0C3
:1011F00081E000F08BFA7EE0424988422ED04249DD
:10120000884243D04149884275D14648494608182A
:101210002979C91E01736EE03E4988426ED1686823
:1012200000F0D4FA67E0E079401E012806D83D4876
:10123000494608184089052100F052FE3A484946BF
:1012400024220A54394A8A18002353600C1865680E
:101250006360204611F07CFD65604CE02879697977
:10126000090209182F4A48468018008A801C8842C3
:1012700041D1607B01283ED1A07B002830463BD184
:101280004846821801201076918235E028796979E4
:1012900009020918234F4846C019408A401C884259
:1012A00029D14846C01900228263007E002808D058
:1012B000607A21460A3100F073F8287969790902C9
:1012C0000918A878EA78637A0A3400930194120224
:1012D00010180022134600F04FFF00280CD148469A
:1012E000C019826B002A06D04846C119088A3C31D1
:1012F000D2B200F02FF8304603B0F0BD0649884264
:1013000033E7C046010C0000130C0000030C000082
:1013100004040000090400000504000001040000AA
:101320000204000018000000F00100008802000024
:10133000B407000005484946081800220276044B0D
:10134000C918CA834281102005F069FF1800000007
:10135000B4070000F0B581B014460D4606460E49AC
:10136000484640187D210901C18348460B49401871
:10137000C0890095002731463A46234600F0CCFE4E
:101380004328F2D04528F0D06428EED048460249E0
:101390004018C78301B0F0BDB4070000180000007A
:1013A000F0B581B00246784D484643190020986355
:1013B000002A2AD04B465B1925241B5D002B3AD10D
:1013C0000B78012B39DD022B4ED0082B5FD0052B7B
:1013D0001CD14B465B1924241B5D002B2BD1032A07
:1013E000034613D34B465B199C8B230A4E789E42CF
:1013F00003460BD1E3B28E789E42034606D1002C01
:1014000074D0042A76D2072300E06723494649199D
:101410003C220E248C5405228A633C3148804B7058
:101420000871484641190022CA628A84574BC01885
:1014300008624A838A8301B0F0BD002B40D0012BA3
:10144000E4D10523032AE1D34C78002CDED18C783B
:10145000002CDBD148464019092A00D309228263B7
:101460003C3013F093FFDCE70423032ACED34C78FF
:10147000002CCBD18C78002CC8D148464019092AC1
:1014800000D3092282633C3013F080FFD3E70623A8
:10149000052ABBD34A78002AB8D189780029B5D16A
:1014A000484640190021C1633C21082242540621CC
:1014B000816301463C3101220A71007B4871BAE721
:1014C0000323052AA2D34A78002A9FD189780029CC
:1014D0009CD14846401944210022425402644021D4
:1014E00004234354C263092181639AE7052A0CD27D
:1014F00008238BE7D21E48464019468B93B2B3426D
:1015000000D81646006AC91C1DE04B465C191F4EE8
:101510009B190E79CF7823623B029E196683B7B27E
:10152000E7620123052A00D170E74124A400A74205
:1015300000D96BE7501F82B2BA4200D8064648462F
:10154000124A8018491D124A4F46BA187D231B01C2
:10155000D383B4B2224613F019FF7819016A09192E
:101560000162418B891B4183828B521C8283080458
:1015700000D060E74846064941180022CA83401956
:10158000C06A488057E7C04618000000B006000057
:10159000B4070000F0B503AF89B06E464E4B4A4623
:1015A000D418227BD21D07239A436B469D1AAD4661
:1015B0002422A35C002B01D0012088E030624C463D
:1015C000134645482218012073613061D054306AB7
:1015D00010620020908351830246404820184280C8
:1015E000002962D00B46681D3060E81C7060F56011
:1015F000AA7005212970100A68704846364C0019F7
:10160000047B98B2F2611204336212D04A46324926
:101610005218E41E844200DB0446116AB161A5B28F
:1016200070682A4613F0B2FEB069401925460323BC
:1016300014E0B1612B711A0AEA704A462649521821
:10164000651F854200DB0546146AAAB2B2603068A5
:10165000214613F09BFEB0682018B36949461E4A24
:101660008918252432690A55F269521C8A83326A24
:10167000521B4A8308627069085C002821D04846E2
:10168000154934624418208A5919CAB2F5682946A6
:10169000FFF760FE0020316A6054638B002B04D09A
:1016A00048460D494018828BA2E7494600200B4D61
:1016B0004855094A8A187369D0549083491948805B
:1016C00005E0484604494018002101550220FC1F4E
:1016D000053CA546F0BDC04618000000B407000058
:1016E00080B582B06A46074B1846114601DF0648AE
:1016F0000099814202D1019802B080BD042005F01A
:101700008EFDC046EC890060D4890090F0B581B0B0
:1017100000251349164A7A44284602F001FE034682
:1017200010484E4630180621016343630E4FF419EA
:10173000E16025722046103010210E4A7A4406F0EE
:10174000D7FB2320F05518206060084830180A495C
:1017500079444160204611F0FBFA01B0F0BDC0466B
:1017600040420F0018000000F00100008802000055
:10177000C7FFFFFF0C4401002900000070B50446BC
:101780000E48494624220A540D4A8A180023536001
:101790000D186E686B60284611F0DAFA6E60094821
:1017A000844207D1084849460818416B408900F037
:1017B0002BFB70BD0120FFF763FC70BDF001000042
:1017C00088020000115010B01800000070B50346E8
:1017D0000F484D4628180621016343630D4EAC198E
:1017E000E160012020722046103010210B4A7A441B
:1017F00006F07EFB2320A8551820606006482818B4
:10180000074979444160204611F0A2FA70BDC046F4
:1018100018000000F0010000880200005A43010097
:101820001F00000070B504460E48494624220A54A1
:101830000D4A8A18002353600D186E686B602846A5
:1018400011F086FA6E600948844207D1084849467B
:1018500008184089012100F069FB70BD0120FFF7E5
:101860000FFC70BDF001000088020000115010B0A4
:1018700018000000F0B583B00F4605463D213A46FA
:1018800013F09AFD0646EC190022D0430290002E78
:1018900008D0A64206D0304601783D2938D1401CF8
:1018A0008442F9D10192002E00D0771B05214F43CD
:1018B000FF08384613F024FC022905DC012909D071
:1018C00002290BD104200AE0032905D0042905D1FF
:1018D000012004E0062002E0032000E00198002E31
:1018E00000D0A61BB04213D1002F14D00B4E7E4463
:1018F0003C46287801F09FF801462022304613F03C
:101900005BFD002804D06D1C641EF2D1384600E057
:10191000029803B0F0BD0020FBE7C0462959010042
:10192000F0B58BB017460546099108461146FFF7FA
:10193000A1FF002800D195E000244B4979440A9189
:1019400021460394224601970892059006953D464C
:1019500005271046394613F04DFB06467E432046C8
:10196000394613F047FB07460998C05D01F063F85C
:10197000014620220A9813F01FFD0790781CA84208
:10198000039B19460DD20999085C01F054F80146F1
:10199000202204940A9C204613F00EFD039B011B99
:1019A000049C0491089A961BB91CA9422F460FD299
:1019B0000998405C174601F03EF801462022254672
:1019C0000A9C204613F0F8FC3A46019F031B2C4664
:1019D0000A980799091A012E10DD022E22D0032E33
:1019E00025D0042E069D0598029E32D113461F2253
:1019F000049E16401A46490176182AE0002E21D08E
:101A0000012E069D0598029E23D18907090E1646D0
:101A1000049AD206920E5118DA06D20F891832466D
:101A20000E4616E008010499C906090F0EE0C90721
:101A3000090E1046049AD206520E51180246D806D4
:101A4000800F03E0C8000499C906490F0E18069DCF
:101A5000059802962E7008346D1C401E521C0028FA
:101A600000D071E70BB0F0BDDB580100F0B503AF5B
:101A70008BB06E4670600024002A254607D00025F2
:101A8000485D312803D16D1CAA42F9D11546B161D8
:101A9000511B3A4848437D21C900F26113F0AAFA6C
:101AA00002460832364911406A46521A3061411CDA
:101AB0009546B2601046316013F074FCF560F06931
:101AC000A8422DD93069B168081870610024E0433C
:101AD000B062F1683462B0697162415C294878444F
:101AE0003A2504462A4613F067FC002841D0001B23
:101AF000C0B20146336A002419430CD071690A78D8
:101B00006A4310180870B26A8918000A641C002819
:101B1000F5D19C42F3D3716A491CF0698142D9D155
:101B200033681D1B3069A8420ED33069B1680918AB
:101B300060420A185278002A03D1401CF9D31D468E
:101B400002E031690818451C591BF4680819B06295
:101B5000706800280DD07162214613F023FC3069B3
:101B6000854206D870680019B1684919726A13F085
:101B700009FCB06AFC1F053CA546F0BDDD02000073
:101B8000F8FFFF005E57010010B50A460146002429
:101B90002046FFF76BFF032800D8E04310BDF0B5E7
:101BA00089B00446FFF762FF051F01AE20272046DB
:101BB000294632463B4610F061FE304639463246F1
:101BC0003B4610F05BFE01980090615D621953780E
:101BD0001B0259189378D2781202D21812045118A5
:101BE000091A4842484109B0F0BDD4D4F0B5FFB05D
:101BF00086B004AC0FC40120010244AE304610F0A0
:101C00007FFE34AF40243846214613F0CBFBFF2043
:101C1000023078808B988A9D002D039000D1284651
:101C200078708198387010362349794430463A46A6
:101C3000234605F0D9FA002D2ED008AC204613F02B
:101C400009FFA085000417D108A811F07FF91290B0
:101C500014AC20462946039E324613F093FBA0198C
:101C60008025A91B13F09EFB00210091019144A83F
:101C700022462B4610F0E6FD11F052F908A98842E1
:101C800002D1129811F062F914A8802113F08AFB96
:101C900008A8808D00280CD1049800900598019028
:101CA00044A80121069A079B10F0CCFD7FB006B036
:101CB000F0BD05F0B4FAC04652560100F0B5CBB005
:101CC000150A04AC2571E2700A0AA2706170519D78
:101CD000E5715099A1716371207003A902910020F0
:101CE0000190087027460837529938462A4606F070
:101CF000DFFA539E7E557819471C54993846324670
:101D000006F0D6FA5598B855B919569A130ACB70F9
:101D10008A70000A487045A800901822019F394631
:101D200006F0CCFA01204A9002984990A8190D308B
:101D3000C0B248904794074845900098394604F04F
:101D400039FD002801D4039800E0F843C0B24BB03D
:101D5000F0BDC0463F008300F0B5C9B002AE3070A0
:101D600001AF00243C7043AD18222846214606F0FE
:101D7000A5FA01204890479746904596064843901B
:101D80002846214604F016FD002801D4019800E001
:101D9000E043C0B249B0F0BD3F008500F0B5C9B026
:101DA000519C250E02AEB572250C7572250A35724E
:101DB000F471529CF472509CB4714F9C74714E9C9F
:101DC0003471F370B2707170307001AF00243C70E8
:101DD00043AD18222846214606F070FA01204890AB
:101DE00047970C2046904596064843902846214642
:101DF00004F0E0FC002801D4019800E0E043C0B208
:101E000049B0F0BD3F008600F0B5C9B00A0C02AE83
:101E1000B2807180308001AF00243C7043AD182245
:101E20002846214606F04AFA0120489047970620A6
:101E300046904596064843902846214604F0BAFC51
:101E4000002801D4019800E0E043C0B249B0F0BDE1
:101E50003F008800F0B5CDB0009301920291044696
:101E600004A803900026072731463A4606F026FAD2
:101E700006AD0198A870029868702C7047AC1822C3
:101E80002046314606F01AFA4C97039F4B970320E1
:101E90004A904995114847902046314604F08AFC03
:101EA000002818D404A80078002815D1781C53996C
:101EB000529A037844782402E318009C23808378A4
:101EC000C4782402E3181380027940790002801854
:101ED0000880304600E0FF204DB0F0BD3F008A0092
:101EE000F0B5C9B002AEB170308001AF00243C70D3
:101EF00043AD18222846214606F0E0F9012048901B
:101F000047970320469045960F20449006484390FB
:101F10002846214604F04EFC002801D4019800E038
:101F2000E043C0B249B0F0BD3F009300F0B5C9B086
:101F300002AEB170308001AF00243C7043AD182276
:101F40002846214606F0BAF9012048904797032019
:101F500046904596064843902846214604F02AFCC0
:101F6000002801D4019800E0E043C0B249B0F0BDC0
:101F70003F00A50070B588B001AE0024347002ADFA
:101F800018222846214606F099F901200790069666
:101F9000064802902846214604F00CFC002801D493
:101FA000019800E0E043C0B208B070BD3F000101FD
:101FB000F0B5CBB0019302920F46064603A800216C
:101FC0000324224606F07AF904A80670B11E4A429C
:101FD0004A410225012E294600D01101012E02D0CE
:101FE000022E2DD11025401C461839462A4606F0EF
:101FF0005FF9019870700298307045AF0026182282
:102000003846314606F05AF94A9403A84990E81C2C
:10201000489004A847900D4845903846314604F052
:10202000C9FB00280ED403A8007800280BD15098D3
:1020300003A94A788978090289180180304602E0AC
:10204000472000E0FF204BB0F0BDC0463F0002013A
:10205000F0B5CFB01D4606920F46064607A80021F0
:102060000324224606F02AF908A887700680B91EC4
:102070004A424A410226012F314600D01101012F68
:1020800002D0022F40D11026C01C47185899019148
:102090000594579C5699029155990391549904912E
:1020A0000699324606F004F9280A78703D700198C6
:1020B000B8717C71029838710398F8700498B87000
:1020C00049AF002518223846294606F0F7F805984A
:1020D0004E9007A84D900A364C9608A84B900D4894
:1020E00049903846294604F065FB00280ED407A81D
:1020F000007800280BD1599807A94A7889780902F5
:1021000089180180284602E0472000E0FF204FB0F8
:10211000F0BDC0463F000401F0B5C9B01D4602AF96
:102120007B713A717980388001A800900024047096
:10213000B81D4E991A4606F0BBF843AE1822304639
:10214000214606F0BBF80120489000984790A81D52
:10215000C0B246904597074843903046214604F068
:1021600029FB002801D4019800E0E043C0B249B047
:10217000F0BDC0463F000601F0B5C9B002AF4E9DAC
:10218000BD717B713A717980388001A8009000247C
:102190000470F81D4F992A4606F08AF843AE1822BB
:1021A0003046214606F08AF8012048900098479072
:1021B000E81DC0B2469045970648439030462146F8
:1021C00004F0F8FA002801D4019800E0E043C0B21E
:1021D00049B0F0BD3F002601F0B5C9B00D4602AFD1
:1021E0007970387001A8009000240470B81C114662
:1021F0002A4606F05DF843AE18223046214606F026
:102200005DF80120489000984790A81CC0B2469005
:102210004597074843903046214604F0CBFA002802
:1022200001D4019800E0E043C0B249B0F0BDC0461F
:102230003F000C00F0B5C9B002AE7170307001AF54
:1022400000243C7043AD18222846214606F036F89B
:1022500001204890479702204690459606484390B3
:102260002846214604F0A6FA002801D4019800E08F
:10227000E043C0B249B0F0BD3F000F0070B588B078
:1022800001AE0024347002AD18222846214606F023
:1022900015F8012007900696064802902846214628
:1022A00004F088FA002801D4019800E0E043C0B2AD
:1022B00008B070BD03000300F0B5C9B002AE3070C5
:1022C00001AF00243C70701C1F2205F0F1FF43ADEC
:1022D00018222846214605F0F1FF01204890479733
:1022E000202046904596074843902846214604F012
:1022F00061FA002801D4019800E0E043C0B249B07F
:10230000F0BDC04608000900F0B5C9B002AE4E9C51
:102310003481F380B2807180308001AF00243C7042
:1023200043AD18222846214605F0C8FF01204890F9
:1023300047970A20469045960F20449006484390C0
:102340002846214604F036FA002801D4019800E01E
:10235000E043C0B249B0F0BD3F008101F0B595B097
:10236000039306468020002333503648F0603648F9
:10237000B060364870603648306008683061486840
:1023800070618868B061C868F06108693062486946
:1023900070628869B062C869F06204933363106840
:1023A00070635068B063F3671A980290B067304664
:1023B000803043609068F06305AC0194304621465C
:1023C00000F048F83046403001462246B8CAB8C14D
:1023D0004322B35C0F210B40B35435464335049A76
:1023E0006A732A790A402A712A7A0A402A722A7B59
:1023F0000A402A736978FC2211406970697911409A
:102400006971697A114069721124214600F02FFB2D
:1024100037465137019910311022384612F0B2FF79
:102420000498A8773846214600F021FB30466230F8
:10243000214612F0B7FF30460399029A00F086F861
:1024400015B0F0BD7465206B322D62796E64203357
:1024500065787061F0B593B00C4601906CC86CC49F
:102460006CC86CC46CC86CC46CC86CC408463C3086
:10247000059008462C30049008461C30039008460E
:102480000C301190084638301090084628300290E1
:10249000084618300F90084608300E900846343031
:1024A0000D90084624300C90084614300B90081DFF
:1024B0000A90084630300990084620300890129162
:1024C000103107910020029E039C049F059D0690F9
:1024D000129807AB0ECB00F01DF90AAB0FCB00F042
:1024E00019F90E980F993246109B00F013F91198C4
:1024F00021463A462B4600F00DF912980B993246C8
:102500002B4600F007F90A980F993A46099B00F00C
:1025100001F90E982146089A0D9B00F0FBF81198DE
:1025200007990C9A109B00F0F5F80699481C0929A8
:10253000CDD30020019B129C1958225851182150CC
:10254000001D4028F8D113B0F0BDD4D4F0B58BB045
:102550001646024640320292623003903009401C17
:10256000039D102E344600D31024002C23D006AF38
:102570000490384605910599224612F003FF381958
:102580001021091B12F00EFF012038741124384667
:10259000214600F06CFA284629463A46234610F0B8
:1025A00045FB0094074B7B4428462946029A10F0CD
:1025B0006DFB049805991031103E401ED1D10BB02F
:1025C000F0BDC0461E4D0100F0B593B01746029114
:1025D0000546802028582E46803671680022C01893
:1025E0005141009210465041012825D01C46286BCD
:1025F000401C286303A92846FFF72CFF0194002CF8
:102600000BD003A80299019A3B7804785C400C70C7
:102610007F1C401C491C521EF6D128460299019C81
:102620002246FFF793FF3068001930607068009908
:102630004841706013B0F0BD014804F0F0FDC046A1
:1026400005B10000F0B593B002920F460546802018
:1026500028582E46803671680022C01851410092D9
:1026600010465041012825D01C46286B401C286389
:1026700003A92846FFF7EEFE0194002C0BD003A817
:102680000299019A0B7804785C403C70491C401C0C
:102690007F1C521EF6D128460299019C2246FFF764
:1026A00055FF3068001930607068009948417060CB
:1026B00013B0F0BD014804F0B2FDC04605B1000002
:1026C000F0B587B001910546806FE96F03910290E4
:1026D000802028580490284680304068059002A940
:1026E000102628463246FFF731FF2F466237513514
:1026F0001124384639462A46234610F097FA3846C0
:10270000214600F0B4F901983946324612F03AFEFB
:1027100007B0F0BDB0B50C6805682C1904601D68E1
:1027200065401024E5411D601468641914600D684B
:1027300065401424E5410D6004686419046018685C
:1027400060401824E04118601368181810600A6887
:1027500042401920C2410A60B0BDD4D4F0B587B060
:1027600006AD00242C7005950120029005A801906B
:1027700000947D48784440219F23224604F074FD54
:10278000002800D1E5E02878012800D0E1E012F02F
:1027900009FB054612F092FB342068436E4F494610
:1027A000CE1932466832714B7B4413506B4B032574
:1027B000CD5415186E48784404222A712C62039572
:1027C0006862CD186C60284610F0C2FA686002207A
:1027D00010F0D2FB6860B06E00283FD04846C019A8
:1027E0006C24015D7A25405B884237D210F068FA8C
:1027F0005B49884204D110F097FA594988422DD19B
:102800004846C019025D415B914222D208463826F3
:1028100070434A46D3199A6E101868331B6A002B0E
:1028200006D0984700280AD04946CA19515B926ED3
:10283000012802D188B24643901901F08FFD484625
:10284000C019415B491C4153025D88B29042DED3FE
:1028500000E00846904201D110F0D0FA03982430ED
:1028600003904B20800004904846C019806E0028D9
:102870003FD04846C0196C26815D7A25405B88426E
:1028800037D210F01DFA3649884204D110F04CFAC4
:10289000334988422DD14846C019825D415B91423F
:1028A00022D20846382460434A46D3199A6E10183B
:1028B00068331B6A002B06D0984700280AD0494687
:1028C000CA19515B926E012802D188B24443101993
:1028D00001F044FD4846C019415B491C4153825DEB
:1028E00088B29042DED300E00846904201D110F059
:1028F00085FA4C461B4820180022049910F0F8FA7B
:10290000E41904F07FFE6C20205C7A21615A814238
:10291000AAD304F063FD039C4846124940180022E4
:10292000049910F0E5FA04F06DFE10F0CDFA0028DD
:1029300002D020680028EFD112F054FA04F008FF0A
:1029400004F010FF4846074940180022049910F08F
:10295000CFFA07B0F0BDC04688020000F0010000C9
:10296000115010B0C400000088610100304B01001C
:10297000BB0100000E490840884215D10B4948466A
:102980004058002810D0012800D801204A4651188C
:102990008C31084A7A440B68934203D03431401E8C
:1029A000F9D101E000200860002070478802000093
:1029B00003000080DDFFFFFF10B58CB00FF0CCFEF0
:1029C0006C46204613F046F8A085000407D16846FF
:1029D00010F0BCFA0A900020C04310F0FBF910F090
:1029E0009FFA6946884202D10A9810F0AFFA684609
:1029F000808D002801D10CB010BD04F010FCD4D49F
:102A000010B502460748504001230024884218466A
:102A100000D3204651188908402900D8234618437E
:102A200010BDC046FFFF000020385F2801D3002002
:102A300070470120704701466139C9B21A2900D296
:102A40002038C0B2704710B500290ED00278002A95
:102A500009D101231A46994203D0845C531C002CEF
:102A6000F8D08A4201D2002010BD012010BD10B55F
:102A70004A080FD00918491E0B7804785C4004708E
:102A80000B7863400B7004785C400470491E401C56
:102A9000521EF1D110BDD4D4B0B5002A0ED0084BCF
:102AA0007B440C7824091C5D04700C780F252540AC
:102AB0005C5D4470801C491C521EF2D1B0BDC04602
:102AC0001A490100F0B581B00C46064600252F4694
:102AD0000A22304621462B4612F018FB7F1C0922A1
:102AE000921B2A46A24106460C46F1D3384601B055
:102AF000F0BDF0B58BB016461099002900901ED09D
:102B00003546049303910A22029200242846049930
:102B1000234612F0FBFA06460F46029A0294234619
:102B200012F014FB281A049A8A4102430AD103992D
:102B3000491E0806354604973B46E3D107E00020CE
:102B4000029004E02B46039802902E46049B182026
:102B5000029F039019463C460A27002530460493FD
:102B60003A462B4612F0D2FA029001913A46274695
:102B7000039C2B4612F0EAFA321A30210A43601EF7
:102B800005AB1A543A0613D07F1E3A06019B11D1A9
:102B9000A01E05AA2E24145400270922921B3A468F
:102BA000049CA24106D30398C01E05AA115401E05B
:102BB0002F46019B0921891B04998D41029EC8D390
:102BC0003906C6D105A909181822121A009812F060
:102BD000D9FB0BB0F0BDD4D4D0B502AF94B06E46E3
:102BE000F41D41340246494B4846C01881780129FA
:102BF00068D80179481E3F2864D84846C018C07874
:102C000000285FD1424B4846C0184078401E022839
:102C10005BD2F2610A460720C543B161C81D284056
:102C20006946081AB0608546F260104601F082F8E5
:102C30007061C01D28406946081A30618546F51D3F
:102C40001935284612F006FFA88500041CD1F01D96
:102C5000193010F07BF9206049462D480818306083
:102C600018302A4A89184A1DB168F5682B46FFF7C3
:102C7000E9FC82B0102000903068831C3069B16894
:102C80002A4601F05BF802B010F04AF9F11D193143
:102C9000884202D1206810F059F9B068F16812F04A
:102CA00081FBF01D1930808D002810D17569F46901
:102CB00020882946FFF7A4FE00280AD067200002DA
:102CC00004F0ADFA134804F0AAFAD120000204F08F
:102CD000A6FA49460D4871600818218840183169E4
:102CE0002A4612F04FFBB069402801D3022000E0D1
:102CF0000320F26906497369746861184870108886
:102D0000C01810800920000304F089FAB006000002
:102D10001006000005B10000D0B502AF94B06E46B9
:102D2000F41D41340246494B4846C01881780129B8
:102D300068D80179481E3F2864D84846C018C07832
:102D400000285FD1424B4846C0184078401E0228F8
:102D50005BD2F2610A460720C543B161C81D284015
:102D60006946081AB0608546F260104600F0E2FF3E
:102D70007061C01D28406946081A30618546F51DFE
:102D80001935284612F066FEA88500041CD1F01DF6
:102D9000193010F0DBF8206049462D4808183060E3
:102DA00018302A4A89184A1DB168F5682B46FFF782
:102DB00049FC82B0102000903068831C3069B168F3
:102DC0002A4600F0BBFF02B010F0AAF8F11D19313D
:102DD000884202D1206810F0B9F8B068F16812F0AA
:102DE000E1FAF01D1930808D002810D17569F46961
:102DF00020882946FFF704FE00280AD06720000239
:102E000004F00DFA134804F00AFAD120000204F08D
:102E100006FA49460D487160081821884018316942
:102E20002A4612F0AFFAB069402801D3022000E030
:102E30000320F26906497369746861184870108844
:102E4000C01810800920000304F0E9F9B006000062
:102E50004008000005B10000D0B502AF84B06E4656
:102E60000246284C484600198178012929D805795D
:102E7000681E3F2825D848460019C078002820D170
:102E800021494846405C401E02281DD2E81D07210A
:102E9000884369460B1A49461B4808181830091917
:102EA000F2604A1D9D46B36019462B46FFF78CFB26
:102EB000F06800882946FFF7A3FD002808D06720A6
:102EC00003E0124804F0ABF9D120000204F0A7F9A6
:102ED000484670600019F1680C4609884018B168CE
:102EE0002A4612F04FFA402D01D3022000E00320C1
:102EF0000549726850542088401920800920000339
:102F000004F08DF9B00600001006000005B10000C5
:102F1000D0B502AF84B06E460246284C4846001930
:102F20008178012929D80579681E3F2825D8484687
:102F30000019C078002820D121494846405C401E35
:102F400002281DD2E81D0721884369460B1A49460D
:102F50001B48081818300919F2604A1D9D46B360D5
:102F600019462B46FFF730FBF06800882946FFF72B
:102F700047FD002808D0672003E0124804F04FF90D
:102F8000D120000204F04BF9484670600019F16846
:102F90000C4609884018B1682A4612F0F3F9402D12
:102FA00001D3022000E003200549726850542088B4
:102FB000401920800920000304F031F9B006000018
:102FC0004008000005B10000214C484600198078F7
:102FD000012836D8484600190179202931D1C07816
:102FE00000282ED148460019401D202100F0C6FDC2
:102FF000002826D018484946095C002924D04946B3
:1030000009180D4618352CCD496A194315430D434F
:103010001AD1494609188A68CB68134314D04978F5
:10302000002911D149460D18284628300919491D93
:10303000002200F033FD012068700920000304F035
:10304000EEF8044804F0EBF8D120000204F0E7F8B1
:10305000B006000005B10000E0080000D0B502AFE6
:103060009CB06E46F41D393402463D4D4846401929
:10307000807801285CD8484640190179C078084317
:1030800056D138494846405C002854D072614846C1
:103090004018034618330ECB406A10430B430343DA
:1030A00049D13248784400683061C01D0721884307
:1030B0006946081AF0608546F01D1130706012F004
:1030C000C9FC71688885000414D1F01D11300FF01F
:1030D0003DFF206048462349411828312120202205
:1030E000F31D4133B360B3680FF0BCFCF068B16806
:1030F00000F0F0F90FF014FFF11D1131884202D1F8
:1031000020680FF023FFF01D4130282112F04AF90A
:10311000F01D1130808D00280FD17469208831692D
:10312000FFF76EFC00280AD06720000204F077F851
:103130000D4804F074F8D120000204F070F84846FD
:10314000401921884018F16835692A4612F01AF9A9
:103150002088401920800920000304F060F8C04650
:10316000B0060000E008000005B100003C4301008B
:103170009CB04B4D48464019817801292ED8C07823
:1031800000282BD1484640190079484979440E68F7
:1031900031460931814221D1484640194479444899
:1031A00078440068A04219D3002807D0494649193D
:1031B000891D0A6812BA04C1401EFAD14846401956
:1031C00081190527C859491D496802460A4305D097
:1031D0004A465219B218527B022A02D3314804F0EF
:1031E0001EF80792304B4A46D25C002A06D04A4667
:1031F000D3181A6A5B6A04921A4303D1D1200002E1
:1032000004F00DF8049A101A8B41E7D308A8039034
:1032100012F020FC0399888500041FD108A80FF044
:1032200095FE1290484641198B19DA5905921E4AAB
:10323000801806904268581D4368881D00900194CC
:103240000798029014AC20461146059A00F03EFA09
:10325000069828300022214600F020FC0FF060FE86
:1032600008A9884202D112980FF070FE14A82021FC
:1032700012F098F808A8808D0028C1D1484641195D
:1032800089194A1DC959084BC018036A591A0162A5
:10329000416A5268914141620920000303F0BFFF77
:1032A000B006000005B10000E00800006442010023
:1032B0004C4201009CB04B4D484640198178012991
:1032C0002ED8C07800282BD14846401900794849AB
:1032D00079440E6831460931814221D1484640196E
:1032E0004479444878440068A04219D3002807D0A4
:1032F00049464919891D0A6812BA04C1401EFAD10B
:103300004846401981190527C859491D4968024690
:103310000A4305D04A465219B218527B022A02D3F8
:10332000314803F07CFF0792304B4A46D25C002ABA
:1033300006D04A46D3189A69DB6904921A4303D12E
:10334000D120000203F06BFF049A101A8B41E7D3DF
:1033500008A8039012F07EFB0399888500041FD112
:1033600008A80FF0F3FD1290484641198B19DA595D
:1033700005921E4A801806904268581D4368881DB1
:10338000009001940798029014AC20461146059ACB
:1033900000F09CF9069828300122214600F07EFBBF
:1033A0000FF0BEFD08A9884202D112980FF0CEFDA1
:1033B00014A8202111F0F6FF08A8808D0028C1D1A3
:1033C0004846411989194A1DC959084BC0188369D3
:1033D000591A8161C16952689141C1610920000394
:1033E00003F01DFFB006000005B10000E00800007A
:1033F0002041010008410100F0B503AF95B06E46D1
:10340000F31D3133F36031607060002A56D42F48C9
:103410007844F11D393118C818C138C838C10120A5
:10342000C007024327494B46591849680143F068D1
:10343000C16002616846B0606D46403DAD46F41D16
:103440000934204612F006FBA08500041DD1F01DB2
:1034500009300FF07BFDF168086084B00C201C4936
:103460007944009532680192029103900020212452
:10347000F21D3932052321460FF036FC04B020221C
:103480002046294673680FF0EDFA0FF049FDF11D53
:103490000931884203D1F06800680FF057FD4021E0
:1034A000284611F07FFFF01D0930808D002806D1DD
:1034B000B0688546FC1F053CA546F0BD024803F0F8
:1034C000AEFEC0466000000005B1000020400100D3
:1034D000E43F010070B594B00A460546212001ACD6
:1034E0000126214633460FF0D3FA02980019C0791D
:1034F0003040801C2870681C09342022214611F0BD
:1035000041FF14B070BDD4D4F0B503AFB9B06E466E
:10351000F41D6134F4631C46B1637063BD68F868E0
:10352000002803D1706BB16BFFF766FF002D00D14F
:10353000BEE0F01D693008303063F01D9130093075
:10354000F062706B0830B062756234626846F06198
:103550006C4620462838B061854668464038706120
:103560008546F51D3935284612F074FAA885000401
:103570007AD1E51FF01D39300FF0E8FCF16B0860DF
:10358000306A0468002C20D4746B217831612120CA
:103590002070F11D9131B1600123F36022460FF0DC
:1035A00077FAF06B406BB1684018C079F168084059
:1035B000801CB1690870481C2022F16A11F0E2FEFB
:1035C00030692070306A046808E00020B169087032
:1035D000706B4268481CB16A11F0D4FEEC70200A8E
:1035E000A870200C6870200E287082B0402074698A
:1035F0000094019020252523B06B2946B2690FF075
:1036000095F902B0706B0078F31D693321462A46A4
:103610000FF028FAF46BE2682A497944356B2846A2
:103620000FF0D8FA002847D5E06882B00090264B0A
:103630007B4428462946B26A0FF00EFB02B0E168CF
:1036400028460FF0DDFA002836D17169203120229A
:10365000B06B11F097FEF01D6930716B1CC81CC176
:103660001CC81CC13CC83CC10FF05AFCF11D3931CB
:10367000884203D1F06B00680FF068FC2521B06927
:1036800011F090FE4021706911F08CFEF01D693040
:10369000282111F087FEF01D3930808D0028316A15
:1036A0000BD1F0690C1D716A4D1E854600D04BE7A9
:1036B000FC1F053CA546F0BD014803F0B0FDC04627
:1036C00001D10000F23D0100DC3D0100F0B503AF87
:1036D000A9B06E46F41D6D343462F3603261B1609E
:1036E00070616846B062FF250235284605F082F811
:1036F000B061C01D072188436946081A854670627B
:10370000294605F083F80546F41D4534204612F09D
:10371000A1F9A08500042C4626D0B5690FF000FC65
:10372000F11D4531884203D1306A00680FF00EFC6C
:10373000F01D7530282111F035FEF01D25302021B7
:1037400011F030FE204605F029F9706A294611F083
:1037500029FEF01D4530808D002845D1B06A854690
:10376000FC1F053CA546F0BDF4613C69FD68B868E6
:103770007060F01D45300FF0E9FB316A086082B0DF
:10378000002000950190F01D7530F11D2531B268C3
:103790007368FFF7B9FE02B0012C0BD0002CF4695E
:1037A000BBD1306AC268F11D75310831706911F002
:1037B000E9FDB2E7F068316986B00D4A7A440D4BF5
:1037C0007B440D4C7C44009101900294039304923D
:1037D000F21D75320832F4692046716907F0C8FE9F
:1037E00006B0002899D1014803F019FD01D100006D
:1037F000153D0100D13C01008D3C0100F0B503AF47
:10380000A5B06E46F11D85313162B360F260706122
:10381000FF250235284604F0EDFFB061C01D0721E9
:1038200088436946081A8546F061294604F0EEFF90
:103830000546F41D5D34204612F00CF9A085000405
:10384000B0692C4626D13461B468F568B8687060F8
:10385000F01D5D300FF07AFB316A086084B01D48BE
:1038600078441D497944009501943469029103908C
:10387000F11D1D312046726806F0D0FE04B000280C
:1038800023D0F21D1D322046716906F06CFE00281F
:103890001BD0B06905460FF043FBF11D5D31884236
:1038A00003D1306A00680FF051FB204605F076F82E
:1038B000F069294611F076FDF01D5D30808D0028FD
:1038C00004D1FC1F053CA546F0BD014803F0A7FC50
:1038D00001D10000313C0100ED3B0100F0B503AF28
:1038E000A5B06E46F31D5D337361F2600C46306126
:1038F0006846B061F51D3535284612F0ABF8A8854D
:1039000000042DD1F01D35300FF020FB75692860C3
:10391000F01D65307060F11D15312246FFF76CFD1A
:103920006846B0606C46203CA546EB6882B000203B
:103930000090019072680832202520462946FEF743
:1039400055F902B082B02120F168009101903069F0
:10395000294622462B46FEF749F902B0B068854653
:103960000FF0DEFAF11D3531884203D1706900682D
:103970000FF0ECFAF01D6530282111F013FDF01D59
:103980001530202111F00EFDF01D3530808D0028FE
:1039900005D1B0698546FC1F053CA546F0BD03F086
:1039A0003EFCD4D4F0B5B5B01E460C460546349264
:1039B0006846079020AF384612F04CF8B8850004EE
:1039C00043D1049620A80FF0C1FA2A9001200023C9
:1039D00000930193059002902CAF2C4A3846069430
:1039E0002146FFF773FE4020019010AE0096294853
:1039F00078440D2120243A4623460EF097FF049880
:103A0000314622462B460FF02DF869682E460836BF
:103A100030460FF0F5F8002834D16A681E49794421
:103A200030460FF0D7F800282CD510A8203008A970
:103A30000A46D8C8D8C2D8C8D8C205980090019004
:103A400034AB2846069AFFF75FFD0FF069FA20A90C
:103A5000884202D12A980FF079FA2CA82024214616
:103A600011F0A0FC10A8402111F09CFC08A82146F0
:103A700011F098FC20A8808D002804D10798854675
:103A800035B0F0BD024803F0CAFBC046C9020000D1
:103A900001D10000213B0100EE390100F0B503AF78
:103AA00095B06E46F31D15337361F2607160B061BD
:103AB0000124204604F09EFE0546C01D07218843D0
:103AC0006946081A85463061B460214604F09EFEBE
:103AD0003060F41D1D34204611F0BCFFA0850004A9
:103AE00034681AD1F01D1D300FF030FA7169086387
:103AF000706830620223F0680028184600D1B06870
:103B0000B1697269116082B00090F21D15322046D1
:103B100006F0E2FD02B0002829D00FF001FAF11DF5
:103B20001D31884203D17069006B0FF00FFA2046F7
:103B300004F034FF3069294611F034FCF01D1D30CB
:103B4000808D002814D12021B4692046FEF77BFF28
:103B5000002805D12021204600F010F8002803D0CD
:103B6000FC1F053CA546F0BD024803F058FB024887
:103B700003F055FB05B1000001D10000F0B503AF23
:103B800085B06E46202922D10125B060284604F078
:103B900031FEF060C21D07218A43694631616946E2
:103BA000881A70608546294604F030FE0446B168E4
:103BB00005F032FC0546204604F0F0FE7068F1681E
:103BC00011F0F0FB681E85413069854600E0002554
:103BD0002846FC1F053CA546F0BDD4D4F0B503AF84
:103BE000CFB06E46514CA41974627361B261F16139
:103BF00030624B4C204604F0FDFD0546C01D0721F8
:103C000088436946081A8546B062214604F0FEFDE5
:103C1000B060474CA419204611F01CFFA085000499
:103C2000B46858D13561BD68414880190FF08EF9EC
:103C3000716A0860F01D253020210EF0EDFDF56061
:103C4000002D0FD0F11DC53121232046F26804F06C
:103C5000ADFE00285ED0F01DC5304021FEF7F3FE1A
:103C6000002857D1FA68F11D85312123204604F040
:103C70009DFE00284ED0F01D85304021FEF7E3FE6A
:103C8000002847D1254686B0F01D25300590F01D4F
:103C900085300490F01DC530F1680029F269B369E0
:103CA00000D10846002174690094019102900390AC
:103CB0000833F11D45312C4628460AF0A9F806B014
:103CC00000282AD0F21D45322046316A05F06CFAF0
:103CD000002822D035690FF023F915498919884247
:103CE00003D1706A00680FF031F9F01D25302021F2
:103CF00011F058FB204604F051FEB06A294611F03D
:103D000051FB0B488019808D002807D1FC1F053C12
:103D1000A546F0BD034803F082FA034803F07FFA9A
:103D20000102000005B1000001D1000034010000D3
:103D30000C01000010300F2188437047F0B503AF2D
:103D40009DB06E46F41D4134F4613361B061154697
:103D5000B26010350F2085436846441BA5462046B7
:103D600011F010FB7461B16860182C46691ACAB270
:103D700011F010FBF51D1935284611F06BFEA885D2
:103D8000000419D1B868F060F01D19300FF0DEF8AA
:103D9000F1690860F51D49353069F1682A460EF071
:103DA000FFFD82B0B06900900194452128467269F8
:103DB00023460EF00BFE02B00FF0B2F8F11D1931E0
:103DC000884203D1F06900680FF0C0F8F01D493057
:103DD000242111F0E7FAF01D1930808D002803D15D
:103DE000FC1F053CA546F0BD03F019FA70B59CB068
:103DF0000D4604466E46304611F02CFEB085000498
:103E000022D168460FF0A2F80A9069682846083067
:103E10000CAD40262A4633460EF046FD2878F821A0
:103E200001402970E87F7F210140E977E87F304336
:103E3000E877202628463146FEF719FE61202946FC
:103E4000324623460EF00EFE0FF06AF869468842AD
:103E500002D10A980FF07AF80CA8402111F0A2FACA
:103E60006846808D002801D11CB070BD03F0D7F9E1
:103E700010B514460B4A4B469A58012A0AD0002A1C
:103E80000CD1342C01D0382C08D1FEF71BFE2018A1
:103E9000423010BD202C01D1492010BD024803F052
:103EA000BEF9C0466000000005B10000F0B587B063
:103EB0001F460446059304923048494608580E9D13
:103EC0000D990C9B01280FD0002851D11646382D92
:103ED000039132D0342D38D102930F9B002034222D
:103EE000039903F0D3F82DE01F4608460E462946F5
:103EF00000F048F800283DD004A80821FEF7B7FDDF
:103F00000598207104992170020EE271020CA271D1
:103F1000000A6071080EE070080CA070080A60705A
:103F2000204608302122394611F02CFA2934204647
:103F300031462A4611F026FA1AE000203822029370
:103F40000FF004F9029B002814D0212220461946C4
:103F5000FEF7A2FD2046423003992A4611F012FADC
:103F6000002000902819423032463B46FEF7C1FD42
:103F700007B0F0BD024803F052F9C04660000000EF
:103F800005B10000F0B503AF91B06E46F41D3534B5
:103F9000202911D1F060F51D0D35284611F05AFD8C
:103FA000A88585B2002D09D0F01D0D300021818536
:103FB00020680EF0CBFF29E0002029E03561F01DDC
:103FC0000D30B0600EF0C2FF2060684670606D4634
:103FD000483DAD4602202870681C2022F16811F08F
:103FE000D1F94120294602460EF07EFD70688546D3
:103FF0000EF096FFB168884202D120680EF0A6FF4D
:10400000F01D0D30808D0028356905D1684268416A
:10401000FC1F053CA546F0BD03F001F9F0B503AF68
:10402000A3B06E46F11D79313161706001242046E4
:1040300004F0E0FBB060C01D072188436946081A00
:104040008546F0607461214604F0E0FB0446F51DEE
:104050005135284611F0FEFCA8850004254610D1F4
:10406000F01D51300EF072FF31690860F11D113101
:104070002846726806F012FA411E8841F11D81310E
:104080000870B4680EF04CFFF11D5131884203D125
:10409000306900680EF05AFF284604F07FFCF06893
:1040A000214611F07FF9F01D5130808D002808D194
:1040B000F01D8130007871690840FC1F053CA54661
:1040C000F0BD03F0ACF8F0B503AF97B06E460D4607
:1040D000412901D0212D31D1B261012470602046E7
:1040E00004F088FB7061C01D072188436946316177
:1040F0006946081A8546F0602146B46904F086FBDB
:10410000F11D1531B06072682B4604F04FFC411E62
:1041100005468D41002C07D0002805D0F01D153034
:104120004021FEF790FC2070B06804F037FCF06886
:10413000716911F037F93069854600E0002528469D
:10414000FC1F053CA546F0BDF0B503AFA3B06E461D
:10415000F11D11317161F0600125284604F04AFB20
:10416000B060C01D072188436946081A8546306142
:10417000294604F04BFB0546F41D5534204611F04A
:1041800069FCA0850004B0682C461FD1F01D553095
:104190000EF0DCFE7569E866F11D1531212320461D
:1041A000F26804F003FC00282BD04120286082B084
:1041B00002200090F21D1132F31D15332046F168E4
:1041C00004F0F2FC02B000281ED0B06805460EF0E4
:1041D000A7FEF11D5531884203D17069C06E0EF003
:1041E000B5FE204604F0DAFB3069294611F0DAF812
:1041F000F01D5530808D002807D1FC1F053CA546D9
:10420000F0BD044803F00BF8014803F008F8C0467D
:1042100001D1000005B10000F0B5A9B00D4604467B
:104220006E46304611F016FCB08500041AD168467F
:104230000EF08CFE0A901848784402681FAF4126A1
:10424000384629463346FFF7ADFB0CAD0123304617
:1042500029463A460EF01CFC08350D9A3046294690
:104260000EF02CFC0EF05CFE6946884202D10A98E2
:104270000EF06CFE1FA8282111F094F86846808D7E
:10428000002807D10CA909312022204611F07AF824
:1042900029B0F0BD02F0C3FF703B0100B0B5044689
:1042A00009202072184800252560606020460930EA
:1042B00016497944122211F065F8A57743206077FA
:1042C000572020774D20E076204620301049794451
:1042D000062211F057F8204650300E4979442CC977
:1042E0002CC00D48784401684068A162E062204615
:1042F000303021462831E165206608497944202282
:1043000011F040F8B0BDC046510200006E3201000D
:10431000A818010028330100F8320100E83201003A
:10432000F0B581B0164604460D1A681E054205D147
:10433000B047294610F0E4FE08460CE00020C043D8
:10434000294610F057FE07464543B047A842FCD225
:10435000394610F04FFE001901B0F0BD80B503F0F2
:1043600003FB80BDB0B50546072028400024012886
:1043700015D0022815D10C48002908D04A4610183B
:104380000EF08CFD28060AD50EF032FA07E04946F9
:1043900008184121890000220EF0AAFD044620469B
:1043A000B0BD022002F03BFFB0060000F0B585B0C2
:1043B000DE4E4846805D0C2839DD0D2864D00E287D
:1043C00000D188E0152800D0D3E0D9484946081824
:1043D0008079012806D1484680198079000701D4E8
:1043E00000F027FDD34E4D460120A855AC190027FB
:1043F000676020460EF0ACFC606002200EF0BCFD51
:104400006060CD4C29194968002900D15AE3CB4A94
:10441000904200D1ACE3002800D1A9E34D462A190F
:1044200057608847A819FB49443141604EE305288D
:1044300079D00C2800D09CE0F3494F4601207854F5
:104440007C180025656020460EF082FC606002202A
:104450000EF092FD6060ED4C39194968002900D1D9
:1044600039E2EB4A904201D100F06FFC002801D103
:1044700000F06BFC4E46321955608847E248301810
:10448000E4494431416031E2DF4E4D460120A855F8
:10449000AC190027676020460EF05AFC60600220CD
:1044A0000EF06AFD6060D94C29194968002900D1D5
:1044B00084E0D74A904201D100F047FC002801D1A6
:1044C00000F043FC4D462A1957608847A819D14986
:1044D000443141607DE0CC494E460120705475184E
:1044E00000276F6028460EF033FC686002200EF053
:1044F00043FD04466860C54D70194168002900D12C
:10450000BCE0C348844200D11AE1002C00D117E17D
:104510004E467019476020468847BB483018BD4951
:1045200044314160AEE0B8494F46012078547C18D0
:104530000025656020460EF00BFC606002200EF046
:104540001BFD6060B14C39194968002900D165E153
:10455000AF4A904200D1F8E3002800D1F5E34E467F
:10456000321955608847A8483018AA49443141603B
:104570005FE1A54E4D460120A855AC1900276760A4
:1045800020460EF0E5FB606002200EF0F5FC606056
:104590009E4C29194968002900D1F9E19C4A9042B2
:1045A00000D14CE2002800D149E24D462A1957605B
:1045B0008847A819974944314160EDE19449884200
:1045C00000D1C2E3002800D1BFE39349884200D064
:1045D00020E348462546041903F0BAF803F0C2F870
:1045E0007A2004902752A06E002800D1ADE34846FF
:1045F000801940688649884200D1A6E3002800D18E
:10460000A3E32C46484640196C26805D002800D163
:104610009BE3804F0EF054FBB84204D10EF084FBB4
:10462000B84200D091E348460019825D049D415B89
:10463000914200D3DFE20846382778434A461319EF
:104640009A6E101868331B6A002B06D09847002812
:104650000AD049460A19515B926E012802D188B2EC
:104660004743D01903F080F948460019415B491CC3
:104670004153825D88B29042DED3BDE2654844304A
:1046800084425DD14846461903F062F803F06AF8A7
:104690007A2400203053B06E002800D155E34846FC
:1046A0005949401840685A49884200D14DE30028D2
:1046B00000D14AE3484640196C26805D002800D1AD
:1046C00043E3544F0EF0FCFAB84204D10EF02CFB39
:1046D000B84200D039E348464019825D015B9142FF
:1046E00000D388E20846382778434A4653199A6E21
:1046F000101868331B6A002B06D0984700280AD090
:1047000049464A19115B926E012802D188B247438B
:10471000D01903F029F948464019015B491C01539F
:10472000825D88B29042DED366E2C046C4000000DB
:10473000B4070000F001000088020000445010B0EF
:104740004846411994200958002913D00A46643A72
:1047500000D23A464B465B191A5064290AD8902178
:104760005958002906D04A4652199823D358135055
:10477000002088472648844200D1E6E2002C00D180
:10478000E3E248464019806E002800D145E34846E0
:1047900040196C24015D7A26805B884200D33CE39B
:1047A0001C4F0EF08DFAB84204D10EF0BDFAB8429B
:1047B00000D032E348464019025D815B914200D34C
:1047C00026E30846382778434A4653199A6E10184C
:1047D00068331B6A002B06D0984700280AD0494648
:1047E0004A19915B926E012802D188B24743D019D1
:1047F00003F0BAF848464019815B491C8153025DB9
:1048000088B29042DED304E3F00100008802000089
:10481000445010B0115010B0555010B0F9498842B2
:1048200000D192E2002800D18FE2F749884200D0FF
:1048300031E24846071902F08BFF02F093FF7A2617
:10484000BD53B86E002800D17FE24846EF494018BA
:104850004068EC49884200D177E2002800D174E238
:10486000484600196C25405D002800D16DE2E84FF4
:104870000EF026FAB84204D10EF056FAB84200D033
:1048800063E248460019425D815B914200D3B2E188
:104890000846382778434A4613199A6E1018683329
:1048A0001B6A002B06D0984700280AD049460A19EF
:1048B000915B926E012802D188B24743D01903F070
:1048C00053F848460019815B491C8153425D88B208
:1048D0009042DED390E1CB49884200D135E20028F6
:1048E00000D132E2C849884200D037E24846071971
:1048F00002F02EFF02F036FF7A26BD53B86E002874
:1049000000D122E24846C14940184068BD4988426A
:1049100000D11AE2002800D117E2484600196C25A0
:10492000405D002800D110E2B94F0EF0C9F9B8423D
:1049300004D10EF0F9F9B84200D006E24846001959
:10494000425D815B914200D355E1084638277843A8
:104950004A4613199A6E101868331B6A002B06D04A
:10496000984700280AD049460A19915B926E01289F
:1049700002D188B24743D01902F0F6FF4846001929
:10498000815B491C8153425D88B29042DED333E1A2
:104990009F494431884252D14846051902F0D8FE59
:1049A00002F0E0FE7A2004902F52A86E002800D179
:1049B000CBE14846801940689249884200D1C4E161
:1049C000002800D1C1E1484600196C26805D00280E
:1049D00000D1BAE18E4F0EF073F9B84204D10EF057
:1049E000A3F9B84200D0B0E148460019825D049DA9
:1049F000415B914200D3FEE00846382778434A469F
:104A000013199A6E101868331B6A002B06D098474A
:104A100000280AD049460A19515B926E012802D13A
:104A200088B24743D01902F09FFF48460019415B06
:104A3000491C4153825D88B29042DED3DCE0484697
:104A40000019806E002800D175E1484600196C25D8
:104A5000415D7A26805B884200D36CE1F84F0EF00E
:104A60002FF9B84204D10EF05FF9B84200D062E1EC
:104A700048460019425D815B914200D356E10846E9
:104A8000382778434A4613199A6E101868331B6A00
:104A9000002B06D0984700280AD049460A19915B96
:104AA000926E012802D188B24743D01902F05CFF10
:104AB00048460019815B491C8153425D88B290428F
:104AC000DED334E1DE494431884251D148460519EC
:104AD00002F03EFE02F046FE7A2004902F52A86EAD
:104AE000002800D131E1484680194068D349884206
:104AF00000D12AE1002800D127E1484600196C26A0
:104B0000805D002800D120E1CD4F0EF0D9F8B842E9
:104B100004D10EF009F9B84200D016E14846001958
:104B2000825D049D415B914265D2084638277843F7
:104B30004A4613199A6E101868331B6A002B06D068
:104B4000984700280AD049460A19515B926E0128FD
:104B500002D188B24743D01902F006FF4846001937
:104B6000415B491C4153825D88B29042DED343E0F1
:104B700048460019806E002800D1DCE04846001944
:104B80006C25415D7A26805B884200D3D3E0AC4F30
:104B90000EF096F8B84204D10EF0C6F8B84200D034
:104BA000C9E048460019425D815B914200D3BDE0F7
:104BB0000846382778434A4613199A6E1018683306
:104BC0001B6A002B06D0984700280AD049460A19CC
:104BD000915B926E012802D188B24743D01902F04E
:104BE000C3FE48460019815B491C8153425D88B26F
:104BF0009042DED39BE00846904200D0A5E00EF044
:104C0000FDF8A2E0445010B0555010B0F001000083
:104C1000115010B048460019806E002800D18AE07B
:104C2000484600196C25415D7A26805B884200D396
:104C300081E0834F0EF044F8B84203D10EF074F8CF
:104C4000B84278D148460019425D815B91426DD2ED
:104C50000846382778434A4613199A6E1018683365
:104C60001B6A002B06D0984700280AD049460A192B
:104C7000915B926E012802D188B24743D01902F0AD
:104C800073FE48460019815B491C8153425D88B21E
:104C90009042DED34BE0484600198C214058002852
:104CA00005D049468919C978490802F085FE484669
:104CB0000019806E00283ED0484600196C25415DE1
:104CC0007A26805B884236D25D4F0DF0F9FFB842FC
:104CD00003D10EF029F8B8422DD148460019425DA3
:104CE000815B914222D20846382778434A461319FD
:104CF0009A6E101868331B6A002B06D0984700285C
:104D00000AD049460A19915B926E012802D188B2F5
:104D10004743D01902F028FE48460019815B491C20
:104D20008153425D88B29042DED300E00846904253
:104D300001D10EF063F8484600196C21415C7A22DB
:104D4000805A884201D30EF0BFF80EF0BDF800285B
:104D500001D102F043FB012005B0F0BD4A463648C0
:104D600014186C25605D0490A06E03909219D3799D
:104D7000967951791079D278274668373F6A009240
:104D800001970002401882B23002C01883B2039823
:104D9000049902F05FFDA06E274C002845D04846DC
:104DA0000019415D7A26805B88423ED2244F0DF087
:104DB00087FFB84203D10DF0B7FFB84235D148465E
:104DC0000019425D815B91422AD208463827784318
:104DD0004A4613199A6E101868331B6A002B06D0C6
:104DE000984700280AD049460A19915B926E01281B
:104DF00002D188B24743D01902F0B6FD48460019E7
:104E0000815B491C8153425D88B29042DED308E049
:104E10000846904201D10DF0F1FF484640198CE759
:104E20000846904201D10DF0E9FF48460019415D66
:104E300085E7102002F0F3F988020000445010B01A
:104E4000115010B0D0B502AF90B06E46F31D3133A3
:104E50003D4A49468A189178012959D8D1780029C4
:104E600056D115793B4979440968A94250D1384A4D
:104E7000494689184A78FE21114002294BD1B36076
:104E8000F060E81D072188436946081A706085466E
:104E9000F41D0934204610F0DDFDA085000418D172
:104EA000F01D09300EF052F8B168086049463160D3
:104EB00027480818183074682146FDF701FC22487D
:104EC00031680818401D21462A4602F0AEF9002834
:104ED0001ED174680EF024F8F11D0931884203D107
:104EE000B06800680EF032F82046294610F05AFAF1
:104EF000F01D0930808D00280FD1F4682088102122
:104F0000FDF77EFD00280AD06720000202F087F935
:104F10000E4802F084F9D120000202F080F94946DF
:104F20000948081822888018094A8918891C102203
:104F300010F028FA20881030208002F003F80920B1
:104F4000000302F06CF9C046B006000005B1000095
:104F5000100600005A240100D0B502AF90B06E4692
:104F6000F31D31333D4A49468A189178012959D8B1
:104F7000D178002956D115793B4979440968A9426D
:104F800050D1384A494689184A78FE2111400229F1
:104F90004BD1B360F060E81D072188436946081AC9
:104FA00070608546F41D0934204610F053FDA0853D
:104FB000000418D1F01D09300DF0C8FFB168086079
:104FC0004946316027480818183074682146FDF7B3
:104FD00077FB224831680818401D21462A4602F016
:104FE00024F900281ED174680DF09AFFF11D0931D3
:104FF000884203D1B06800680DF0A8FF204629461A
:1050000010F0D0F9F01D0930808D00280FD1F46820
:1050100020881021FDF7F4FC00280AD06720000248
:1050200002F0FDF80E4802F0FAF8D120000202F07A
:10503000F6F849460948081822888018094A89184C
:10504000891C102210F09EF92088103020800CF06E
:10505000F1FF0920000302F0E2F8C046B0060000AC
:1050600005B100004008000046230100D0B502AFA2
:1050700082B06E460446224D484640198078012889
:1050800024D8484640190179C07808431ED11D48EC
:105090004946095CFE220A40022A1AD11B4979447A
:1050A00009687160C91D072291436A46511A4A4630
:1050B000101818308D463160FDF702FB20887168AA
:1050C000FDF79EFC002808D0672003E00E4802F0A0
:1050D000A6F8D120000202F0A2F848464019218823
:1050E000401822CE2A46083E10F04CF9208840197C
:1050F000208001F027FF0920000302F090F8C0464D
:10510000B00600001006000005B1000022220100D8
:10511000D0B502AF82B06E460446224D48464019D3
:105120008078012824D8484640190179C07808437E
:105130001ED11D484946095CFE220A40022A1AD1A6
:105140001B49794409687160C91D072291436A4669
:10515000511A4A46101818308D463160FDF7B0FAE2
:1051600020887168FDF74CFC002808D0672003E018
:105170000E4802F054F8D120000202F050F84846E0
:1051800040192188401822CE2A46083E10F0FAF82D
:105190002088401920800CF04DFF0920000302F008
:1051A0003EF8C046B00600004008000005B100000F
:1051B0007E210100F0B587B00490784C4846001974
:1051C0008278012A00D9C2E003797B4A7A441668C2
:1051D0007A4A7A4417687A0095196A1C05939A42AC
:1051E00000D9B4E0C0786E4B4A46D258012A0391E8
:1051F00004D0002A05D1022803D3A8E0002800D05B
:10520000A5E0484600198019441D20463946FDF79F
:105210001AFC00280CD106AA20463946FEF753FF97
:10522000002800D193E006A80078002800D08EE086
:10523000B8194946594C09190818401D0026394625
:105240003246FEF740FF002800D180E048460019B2
:1052500040194079022804D3801E012877D80920FC
:1052600000E00120504F4946C95D002966D04946FB
:10527000C9190C4618341CCC496A194314430C4311
:105280005CD14946C9198A68C96811434019002987
:10529000059A57D090425AD85CD1059643484C465F
:1052A0002018412110F07EF8E0194078002845D000
:1052B0003F484E46341821210291204610F072F8E2
:1052C000F519AA68EB68364830180490007A009007
:1052D0002046FDF70EFC204610F006FC202101912F
:1052E0002154201805994170049F1B3720463946E8
:1052F00010F0CAFB2F4834182046029910F052F8DB
:105300002A696B690498007A00902046FDF7F1FB4A
:10531000204610F0E9FB01992154201805994170AD
:105320002046394610F0B0FB062001F09FFD039A9D
:10533000107810210143117007B0F0BDD120000298
:1053400001F06DFF904202D1049800F03BF815483F
:1053500001F065FF1A49794409680D18691C114C60
:10536000914218D849460D4A89180818401DFEF781
:1053700055FE00280FD0484609494158074A801871
:1053800040194079012905D0002904D1002802D014
:10539000012800E00028204601F041FFB00600008F
:1053A0006000000005B10000E0080000AE0500004C
:1053B0006C0500008D0500005C3601000E22010026
:1053C00086200100D0B502AFAEB06E46F11D81312E
:1053D000B165B44979440A68B34979440B683265C8
:1053E0009C18AE4A494689184A1D7365E118515CFC
:1053F0000129F065F464B2640BDC00294DD0012969
:1054000000D0C6E06846083885460123037002468E
:10541000BFE002296AD0032900D0BAE06C46B4612B
:10542000183CA546032020709D484946F1620D189E
:105430002846103008217163FDF719FB2869696956
:10544000617160700A0EB5692B46103B1A700A0C28
:10545000E271090A2A46123A1170010E2A46143ADC
:105460001170010CE170000A2946163908708B484A
:10547000F16A0818716D4900326D51180D18A81D98
:10548000F060716BFDF7F3FAF06841686173062014
:10549000285860720A0EB56966E06C463461103CAB
:1054A000A546002020707E4849460D182846103039
:1054B0000821FDF7DCFA28696969617160700A0EDC
:1054C00035692B46083B1A700A0CE271090A2A4614
:1054D0000A3A1170010E2A460C3A1170010CE17063
:1054E000000A29460E390870092351E06C467461A0
:1054F000183CA5460220207069484946B1620D1843
:105500002846103008213163FDF7B1FA286969692E
:10551000617160700A0E75692B46103B1A700A0C97
:10552000E271090A2A46123A1170010E2A46143A0B
:105530001170010CE170000A2946163908705748AD
:10554000B16A0818716D4900326D51180D18A81D07
:10555000B060316BFDF78BFAB0684168617306206B
:10556000285860720A0E75692B46083B1A700A0C9F
:10557000E273090A2A460A3A1170010E2A460C3AC9
:105580001170010CE172000A29460E3908701123CE
:1055900022460720C443454878440168C81D20407E
:1055A0006D46281A854682B0002500950195F06366
:1055B000FCF71CFB02B03E48784400687064C01DD4
:1055C00020406946081A30648546F41D5934204647
:1055D00010F040FAA08500042DD1F06CB16C0818D1
:1055E0007062306D0C18F01D59300DF0AFFCB16DCC
:1055F00008602B48494631620918283121202022B1
:10560000F31D8933F3610DF02DFAB4632046716DFB
:10561000FDF719FA82B0716A0191002800D1B56BCB
:1056200000951E48316A0818431D306CF16BF26911
:10563000FEF7D4FA02B00DF073FCF11D5931884227
:1056400003D1B06D00680DF081FCF01D8930282178
:105650000FF0A8FEF01D5930808D0028F46D756C98
:1056600019D120882946FDF7CBF9002803D06720FF
:10567000000201F0D4FD484608494018218840182E
:10568000316C2A460FF07EFE2088401920800DF0F4
:1056900001FE0920000301F0C2FDC046B006000073
:1056A000E00800005434010006200100601E0100E3
:1056B0003C1E010082B00446254E48468019807881
:1056C00001281ED8484680190179C078084318D1AE
:1056D000204948464518284609302188019110F094
:1056E00003FA07462035284610F0FEF93818811CC9
:1056F0000198FDF785F9002806D06720000201F027
:105700008EFD154801F08BFD49468F192088381809
:10571000104A8D182E460936314610F0DDF9304614
:1057200010F0E2F921884018401C208080B238181F
:105730002035294610F0D0F9284610F0D5F92188F7
:105740004018401C20800920000301F068FDC0467D
:10575000B00600006000000005B10000D0B502AF47
:10576000A0B06E46F31D51335F4D49464A199178FA
:10577000012951D8D17800294ED1494649190979D2
:105780005B4A7A44146822462D328A4244D1494603
:10579000491905254959574A7A44126891423BD81C
:1057A00075624946504D49194A7A53497944096806
:1057B000914231D33262B362F062002907D04A4687
:1057C00052190A3213681BBA08C2491EFAD1494657
:1057D0004919231DC918706A0A58491D496811439F
:1057E0001AD0494649196118487C022814D2306100
:1057F000B3614946491964181234202120460DF03E
:10580000FFF9002808D13D49794420222046F26062
:105810000DF0E0F9002802D4344801F000FD746175
:1058200068462038F0618546F41D2934204610F082
:1058300011F9A085000429D1F01D29300DF086FB57
:10584000B16A086048464019716A4158B160431D09
:10585000B4691A591B19F4695B6884B00A30009066
:10586000306A019030690290F01D59307060B16863
:10587000FDF72CFF04B082B0F0680090204B7B4411
:105880002046716972680DF001FA02B00DF048FB14
:10589000F11D2931884203D1B06A00680DF056FB32
:1058A000F01D593020210FF07DFDF01D2930808D35
:1058B0000028B2D1F46A20882021FDF7A1F8002841
:1058C00003D06720000201F0AAFC48464019218855
:1058D00040182022F1690FF055FD208820302080EB
:1058E0000920000301F09BFCB006000005B1000098
:1058F0006E1C0100941C0100401C0100041C0100EE
:105900008E1B0100D0B502AFA0B06E46F31D51331F
:10591000584D49464A19917801293CD8D178002937
:1059200039D1494649190979544A7A4414682246BA
:105930000D328A422FD14946491905254959504A05
:105940007A441268914226D835624946494D491930
:105950004A7A4C497944096891421CD3F261B36296
:10596000F062002907D04A4652190A3213681BBA5E
:1059700008C2491EFAD149464919231DC918306A7F
:105980000A58491D4968114305D04946491960180C
:10599000407C022802D3384801F041FC7061B360BA
:1059A000394878440068B061C01D072188436946C2
:1059B000081A70628546F41D2934204610F04AF812
:1059C000A085000427D1F01D29300DF0BFFAB16A7F
:1059D000086048464019316A4158431D3361B46834
:1059E0001A591D196B6884B00A300090F069019053
:1059F00070690290F01D5930F060FDF767FE04B049
:105A0000306902596B681B4D82B0F0680090706A73
:105A1000FDF7F4FE02B00DF083FAF11D2931884242
:105A200003D1B06A00680DF091FAF01D59302021C1
:105A30000FF0B8FCF01D2930808D0028ACD1F46A3D
:105A40002088B169FCF7DCFF002803D06720000242
:105A500001F0E5FB4846401921884018716AB56994
:105A60002A460FF08FFC208840192080092000036F
:105A700001F0D5FBB006000005B10000C61A010018
:105A8000EC1A0100981A01003A1A0100D0B502AFD1
:105A90009CB06E46F31D39333B4C49460919897851
:105AA000012910D849460A19117904290BD1D17856
:105AB000002908D14946091905254A59344979442C
:105AC00009688A4202D9314801F0A9FB7560F36088
:105AD00070613048784400683061C01D07218843F8
