:02000004C0DE5C
:1000000070B58CB062B6002808D02D494A46531806
:100010000168642218461BF0F1F804E028484946BC
:10002000081804F033FD274E18F062F9484680198D
:100030004F218A000024214607F053FE07F036FEC8
:100040006D4628461BF042FCA88580B2102805D1D9
:10005000684684850A9818F085FDE5E7002809D0F0
:10006000684684850A9818F07DFD02F0FBFD204665
:100070000CB070BD684618F075FD0A9008F0B6F82F
:10008000052000242146224618F09AFC0E494A46D3
:1000900051184862204619F01FFE0125284619F024
:1000A0001BFE204607F010FC2046214600F0E8FF2A
:1000B00006497944284600F0E3FF07F0F7F9C04607
:1000C0006000000088020000C4070000DBBB0100E4
:1000D000F0B593B012930F46044600787F2101409B
:1000E000052900D1CCE215460E91208B00F0D8FAFC
:1000F00000280F95119765D04279867900200A90E3
:10010000002F67D0002D65D00992208BE188129ACC
:100110000092EBB2643189B23A4600F0E7FAE18826
:100120000022052D0D9208960C905AD3884258D97A
:10013000208B129900916421914A7A44032300F0A4
:10014000D5FA0A9068083E18E188002810904AD035
:100150000C9A8A4247D92F1A45D000200B90208B49
:10016000129D009589B2109AD3B2119A00F0BEFA8E
:100170000C90E188208B0095FBB2324600F0B6FA75
:100180000A990C9A51180D18E1888D420C952AD9BC
:100190000B9F012F06D0002F05D11098401E0F9BFA
:1001A000119A03E0761C0F9B119A1098002810906A
:1001B00019D08D4217D90120B843921BD7180B9044
:1001C000CDD110E0002110910C910A460E46084650
:1001D0000A9103E00A9910910C9108460B910E9B2D
:1001E00033E0164610950A9603239D03208B0540A5
:1001F0000122D703BD420CD09703BD420D9D0B9544
:100200000F9D119F089E0CD10C9E891B089E0B917F
:1002100007E00C9D6D084908491B0B910F9D119F2C
:10022000089E190308405103884205D011038842F3
:1002300008D12089801B06E07008C0432189490845
:10024000081800E00D980E9B099A032B07DC0D900F
:10025000012B5FD0022B0BD0032B5BD010E2042BC1
:1002600053D0062B00D196E10D90072B00D007E26A
:10027000207B01282CD10992072B314600D0002188
:1002800004200790205E0891421A0227E15F60690E
:10029000072B099B00D0238900930B9D2B4618F058
:1002A000EFFB0C982818E15F4118E288131A0798B1
:1002B000205E089A821A60690E9D072D01D025895B
:1002C0000995099D009518F0DBFB0F9D119F0E9B72
:1002D000002F00D1D4E1002D00D1D1E108960220F9
:1002E000205E0C9004200790215E206909906269CD
:1002F000208BE68825890397109F0497129F059706
:10030000072B00D15FE10D9B5EE10D90E07A0028A4
:1003100000D1B7E1E3885A0821894808824216468D
:1003200000D30646E57AAE4203D88242154600D392
:100330000546207B012825D104201090225E02274B
:10034000E65F20690091A9196E009B1B18F098FBCD
:10035000E15F1098225E2089831B20690093AA1810
:100360002B4618F08DFBE15F1098225E2089831BDD
:100370002069E6880093AA18491B89192B4665E075
:100380003CBB010004200C90225E0226A75F109661
:1003900060690091E9196F00DB1B18F071FBA15F28
:1003A0000C9EA25F2089C31B0E9760690093AA1858
:1003B0002B4618F065FB1098215EA25F2089C31BB5
:1003C0006769E0880093AA18EB43C91809183846F2
:1003D0002B4618F055FBA05F0A903746109EA15F90
:1003E0002269E388A07A009069180E981B1A1046BB
:1003F0000A9A18F045FBE05F0A90A15F2069099016
:100400002289E388A07A009069180E9FDB1B0A9866
:100410008018421E099818F033FBA05F0A900C9ECA
:10042000A25F2089C11BA37A20690091AA180A99AA
:1004300018F026FB1098215EA25F2089C61BA37AC4
:100440002069E7880096AA18C919491E18F018FBF8
:10045000022D119869D3207B012802D0A07A281A96
:1004600000D20020109004200C90205E0A90022000
:10047000215E07460E9020696369C0220092109E9B
:100480000196029369180A9AAA182B4600F0D9FA25
:100490000C98205E0A90E05F0890206909906369DB
:1004A000E188A07A30220092019637461096029396
:1004B0002818089A5118091A0A982A1809982B46D8
:1004C00000F0BFFA0E98205E0A900C9EA05F089084
:1004D0002069099063692189A07A0C220092019712
:1004E00002932818089A51180A1A0A982918099884
:1004F0002B4600F0A6FAA05F0C900E98215E2069B2
:100500000E9063692689E788A07A03220092109AE8
:10051000019202932818C919091A0C9A101A821903
:100520000E982B4600F08DFA119800280F9800D1F4
:10053000A6E0002800D1A3E0237B10211420012B8A
:100540000A4600D00246012B00D00846A15810915F
:1005500020580E900220215E0420255E208BE68824
:100560002789A37A119C03940F9C0494129C0594F0
:100570000124E443002B00D05C430D9ABB1A1B19E5
:100580000B9FF61B341955190095019402937B18A3
:100590000E99109A72E00420205EE37AC2180220BD
:1005A000205E19182069267B0025012E03D0A67A2B
:1005B000B34200D99D1B6469FF2600960195029401
:1005C00000F03FFA5CE000231093ED1A0B9FF31B41
:1005D000019302950E9B072B01D00D9B01E0089B18
:1005E0005B420D935B1800930B9B0C995B18099968
:1005F00000F0CBF801460A98002841D0079FE35F3E
:1006000020690C9060690E90208B0990E5882689FE
:100610000891032121487844109AB61A0B9AAD1A12
:100620000D9AD31800AA68C203900491129D0595F3
:10063000089883B209980C990E9A00F0A6F80E90CB
:10064000E35F20690C9060690990228BE688248919
:100650000F98119FC7190A983F1A1099641A0B999D
:10066000761A0D99CB180093019602940390049783
:1006700005950E9883B210460C99099A00F085F8FA
:1006800013B0F0BD0420225E0220215EE3882069C1
:100690002489009418F0F4F9F2E7C04660B601002E
:1006A000F0B581B00E4D05400E48784401688800D1
:1006B0000D4A7A448018001F4E1C761E0CD0071F6E
:1006C0000468204608F08AFB0068A8423846F4D146
:1006D000204608F083FB00E0002001B0F0BDC046DA
:1006E000FF0F00005ACA010046CA0100F0B583B0EE
:1006F0001C4615460191FFF7D3FF0026002841D084
:10070000002C019A3ED00026029003892F789F4248
:1007100002D34189B94213D20A2F33D00D2F31D0E1
:10072000B809032803D33F20074039461EE078B2BA
:10073000002100281AD5B806009109D50F2008E03D
:10074000F91A8F00C06808F049FB019AC15D0DE0FD
:100750000E20FFF7A5FF0028019A009906D0C06877
:1007600008F03CFB019AF906490E415C002A03D0CF
:10077000B0B20818904205D86D1C641E7618200689
:100780000298C2D1B0B203B0F0BDF0B5A3B00A93E5
:100790000F91149110921392FFF782FF002800D15D
:1007A00044E12C9907910B90047900200990C043F3
:1007B0000890022C5DD313AD281D3C210D901AF03A
:1007C00017FD10981390089AA240D0431290800011
:1007D0000F9929500E92901C0C900026F7000F984C
:1007E000F840C5B21098F840C4B2A542284600D3DC
:1007F0002046A542294600D82146081A401C1299D5
:100800001AF032FAA542119617D90221C9430E9A5D
:100810008A422AD801210D9A0C9B05464D432D1979
:10082000FF2D00D3FF25BD4016682E4340C25D1C3E
:10083000491C9D422B46F0D217E00221C9430E9A73
:100840008A4212D801210D9A0C9B129C641A4443CF
:100850006419FF2C00D3FF24BC401668264340C215
:100860005C1C491C9C422346EFD2119E761C032E31
:10087000B4D1289C079D002D00D1D9E02A98299950
:100880002B9F02190A9809180D9103460B99099894
:100890002E4601251195AE1B3D780D2807D10A2D56
:1008A00005D1761C7F1C0A20012EF5D1C1E00E93E4
:1008B0000F94134608894A791292854204D30B9902
:1008C0004989A9420B990FD20D2D01D00A2D27D1AC
:1008D00012980F9A121814461018984200DDADE0D5
:1008E0001A4628460A9B67E00C93281A099085004F
:1008F000086908F073FA04460B98C06808F06EFAAD
:1009000040194088201806900B98C06808F066FAD5
:100910000E9B455D0B98C07907900F9C224613E013
:10092000C02D0C9305D33F212940002009950D4689
:1009300005E068B2002845D40020099505460790D7
:1009400006900F9C22460E9B58190D99884207D994
:100950001298241820180C9988426ADC0A9B2246B7
:100960000698002819D00F920246129868430B99F6
:100970000979484304900392029113A801901198B9
:100980008840009018460F992A4611951D46129BE3
:1009900018F054F82B46119D08E01298009010981A
:1009A00019460E932B4618F06BF80E9B0B990C9A78
:1009B00007982818C3180998089D75437F1C002EB6
:1009C00037D065E7A80601D50F2000E00E200F9C68
:1009D000FFF766FE002823D00F90006908F0FEF9AB
:1009E00012900F98C06808F0F9F9E906490E0991CC
:1009F000401840881299081806900F98C06808F0AF
:100A0000EDF90999435C0B98807922180F98817948
:100A1000521A407912900020079009951D4692E7DE
:100A2000002009950546079006908BE7002003E01B
:100A30000A9B98B22104081823B0F0BD0E9880B22A
:100A4000F8E7F0B59DB01B921A9106462398411E17
:100A500002468A4118921393191A1291002901DC57
:100A6000002100E00121139A002A00D5C0E1189A64
:100A70000A401892249910912299139FC21B039245
:100A800080220A400A9240220A400D9220220A4007
:100A9000099210220A400C9208220A40089204226D
:100AA0000A400B920123129A9C1A069402240C40CD
:100AB000079419400E911C93DC1B1A994018C01B17
:100AC0000590401C04900025E943501E0F90169598
:100AD0001196481C17900E9800281995159114949A
:100AE00006D10798002855D0189800281FD147E054
:100AF0001898002838D01C9C00940F983B1A1B981B
:100B00004018451C10981A9E31462A4617F0B8FF27
:100B10000094149CB819119E0699411830462A4633
:100B2000199D129B17F0ACFF0798002832D01B9834
:100B30003D181398B8420AD01C9800900398159954
:100B40004018831C10981A992A4617F099FF1C9890
:100B50000090059815994018811C30462A46129B32
:100B600017F08EFF199D15E01C9800901B984218F5
:100B700030461A993B4617F083FF0798002809D0A2
:100B80001C9800901B983818421E30461A99179BE3
:100B900017F076FF0B98002806D1089800285AD045
:100BA000189800281FD133E01A98C51B1898002800
:100BB00020D01C9C00940F9EBB1B1B9815994018BD
:100BC000421C02921098294617F05AFF0094149C78
:100BD000A91B1198029A119E129B17F051FF0898B9
:100BE0000028199D37D01398B8421BD11B983E1886
:100BF0001C9827E01C9800901B98159942183046C5
:100C000029463B4617F03CFF08980028199D22D042
:100C10001C9800901A9841191B983818421E3046AB
:100C2000179B16E01C9C00941A9841191B983E18BB
:100C30000398159A8018831C1098324617F020FFED
:100C40002046149C0090049841191198324606469B
:100C5000129B17F015FF0C98002806D10998002860
:100C600053D0189800281ED146E01B9845191898B3
:100C7000002835D01C9C00940F983B1A10981A9E9F
:100C800031462A4617F0FCFE0094149CB819119EB8
:100C90000699411830462A46129B17F0F1FE099832
:100CA0000028199D31D01B98C51B1398B84215997F
:100CB0000AD01C98009003984018831C10981A9929
:100CC0002A4617F0DDFE15991C98009005984018EB
:100CD000811C30462A46129B17F0D2FE199D14E063
:100CE0001C98009030461A992A463B4617F0C8FED9
:100CF00009980028199D08D01C9800901B98C21BC9
:100D000030461A99179B17F0BBFE0D98002806D1A4
:100D10000A98002856D0189800281ED131E01B9858
:100D200045191A98C61B189800281DD01C9C0094C1
:100D30000F983B1A109831462A4617F0A1FE0094EE
:100D4000149C0F98311A119E30462A46129B17F0B8
:100D500097FE0A980028199D34D01398B84219D1EB
:100D60001B98C21B1C9826E01C98009011983146D5
:100D700006462A463B4617F083FE0A980028199D2E
:100D800020D01C9800901A9841191B98C21B30461D
:100D9000179B15E01C9800901A9841191B98C41BCA
:100DA0000398159A8018831C1098224617F068FE45
:100DB00022461C98149C0090049841193046129BBE
:100DC00017F05EFE791E012C384600DB0846169AA5
:100DD000521C012C169201DB169A521A510061180E
:100DE0004C1C6D1E179981421397074600DA70E676
:100DF0001DB0F0BDF0B589B08E68022E20D80C462B
:100E00000421415E08910221405E05902068069011
:100E100060680790E06807F0E1FF0546A768206971
:100E200007F0DCFF0ECC0124B4404B43534300A930
:100E3000B0C103900493089905AB0DCB17F0FEFDEC
:100E400009B0F0BD70B584B000200390029002ADEF
:100E500008242846214617F09DFDA87802994140B4
:100E600003984840A97941402970E8786A7842405F
:100E700068795040EA7942406A70D0B20090064DDD
:100E80004E467019401CCBB21721044A7A4407F031
:100E9000B5FD745504B070BD0000000074AE0100D3
:100EA000F0B58FB007AD2846183007211AF0A0F929
:100EB0000620687011202870A81C2449794410224B
:100EC0001AF09CF90024EC751820A8756C750C209C
:100ED00028751220E8740520A8741A484946081895
:100EE000C588868818480F1838461AF039FD0097CB
:100EF000C3B230462946224601F064FA0125002893
:100F00001CD1114E182007A901F02CFB002815D187
:100F10004846851928461AF023FDC0B20094019076
:100F2000029503940494059406943021602220468F
:100F3000234601F019F80546401E854128460FB0AA
:100F4000F0BDC04618000000000000004CC20100C7
:100F5000F0B589B0444F4846C0190021818414215E
:100F6000017301F0E1FA002872D1FFF76BFF002056
:100F700006213F4A7A4401F085FA002868D101F041
:100F80004FF9002864D14846C01901460831821D36
:100F900000920191031D012000241822214601F036
:100FA000AFF8002854D10125284601F02BF800287D
:100FB0004ED104942D4803900295102601960820E6
:100FC00008900090284629462A462B4601F03CF816
:100FD00000283DD14846C0190E3000900220254916
:100FE0007944012509232A4601F038F900282FD138
:100FF0004846C119C88910310A2200961646019444
:10100000029403920495059102211B4A7A44992384
:10101000079101F073F900281AD14846C119C8890F
:101020001231089A00920192079A0292039604954F
:101030000591124D7D44992311462A4601F05EF92F
:10104000002805D10120072101F04AFA002802D02A
:10105000012009B0F0BD4846C019C462FFF720FF67
:10106000411E8841F5E7C0461800000040E201003B
:10107000C4C1010028C101000CC10100F4C001007D
:10108000F0B581B004461E484F46381848211AF082
:10109000AFF81C48242139541B49791800264E60AA
:1010A0003D18686800906E60284617F05DFC174890
:1010B00044213954009969603818002C01D1214627
:1010C00000E00321C170012181704670042117F0F6
:1010D000F1FC0B497C500E4D002C0AD07819406A67
:1010E000002806D10020014606F0A8F8FFF730FFDF
:1010F00001E04846465048464019C68301B0F0BD5D
:1011000018000000F001000088020000C400000088
:10111000C4070000B0B50848494624220A54074ACB
:101120008A18002353600C1865686360204617F026
:101130001BFC6560B0BDC046F001000088020000E5
:1011400010B504464068083000F004F8411E88419C
:10115000207010BDF0B583B004464078E51C012630
:101160003E2809D0FF2832D00528304600D0C3E001
:10117000FFF7D0FF00F0DEF8E078012800D0BAE0F9
:1011800068484F4602963E1814203073A878E978D4
:101190000902081870817D21890000910C21182214
:1011A0000024234601F006FA5F482421395434769E
:1011B0005F497918CC835D4979184C603D186E6899
:1011C0006C60284617F0D0FB6E60029894E0287897
:1011D0006978090208180321890288420CDC4C490D
:1011E000884219DC4D4988421DD04D49884200D0C3
:1011F00081E000F08BFA7EE0424988422ED04249DD
:10120000884243D04149884275D14648494608182A
:101210002979C91E01736EE03E4988426ED1686823
:1012200000F0D4FA67E0E079401E012806D83D4876
:10123000494608184089052100F0A8FF3A48494668
:1012400024220A54394A8A18002353600C1865680E
:101250006360204617F088FB65604CE02879697967
:10126000090209182F4A48468018008A801C8842C3
:1012700041D1607B01283ED1A07B002830463BD184
:101280004846821801201076918235E028796979E4
:1012900009020918234F4846C019408A401C884259
:1012A00029D14846C01900228263007E002808D058
:1012B000607A21460A3100F073F8287969790902C9
:1012C0000918A878EA78637A0A3400930194120224
:1012D00010180022134601F0A5F800280CD148464A
:1012E000C019826B002A06D04846C119088A3C31D1
:1012F000D2B200F02FF8304603B0F0BD0649884264
:1013000033E7C046010C0000130C0000030C000082
:1013100004040000090400000504000001040000AA
:101320000204000018000000F00100008802000024
:10133000C407000005484946081800220276044BFD
:10134000C918CA834281102006F0EFFC1800000083
:10135000C4070000F0B581B014460D4606460E499C
:10136000484640187D210901C18348460B49401871
:10137000C0890095002731463A46234601F022F8FD
:101380004328F2D04528F0D06428EED048460249E0
:101390004018C78301B0F0BDC4070000180000006A
:1013A000F0B581B00246784D484643190020986355
:1013B000002A2AD04B465B1925241B5D002B3AD10D
:1013C0000B78012B39DD022B4ED0082B5FD0052B7B
:1013D0001CD14B465B1924241B5D002B2BD1032A07
:1013E000034613D34B465B199C8B230A4E789E42CF
:1013F00003460BD1E3B28E789E42034606D1002C01
:1014000074D0042A76D2072300E06723494649199D
:101410003C220E248C5405228A633C3148804B7058
:101420000871484641190022CA628A84574BC01885
:1014300008624A838A8301B0F0BD002B40D0012BA3
:10144000E4D10523032AE1D34C78002CDED18C783B
:10145000002CDBD148464019092A00D309228263B7
:101460003C3019F0CFFEDCE70423032ACED34C78BE
:10147000002CCBD18C78002CC8D148464019092AC1
:1014800000D3092282633C3019F0BCFED3E7062367
:10149000052ABBD34A78002AB8D189780029B5D16A
:1014A000484640190021C1633C21082242540621CC
:1014B000816301463C3101220A71007B4871BAE721
:1014C0000323052AA2D34A78002A9FD189780029CC
:1014D0009CD14846401944210022425402644021D4
:1014E00004234354C263092181639AE7052A0CD27D
:1014F00008238BE7D21E48464019468B93B2B3426D
:1015000000D81646006AC91C1DE04B465C191F4EE8
:101510009B190E79CF7823623B029E196683B7B27E
:10152000E7620123052A00D170E74124A400A74205
:1015300000D96BE7501F82B2BA4200D8064648462F
:10154000124A8018491D124A4F46BA187D231B01C2
:10155000D383B4B2224619F055FE7819016A0919ED
:101560000162418B891B4183828B521C8283080458
:1015700000D060E74846064941180022CA83401956
:10158000C06A488057E7C04618000000C006000047
:10159000C4070000F0B503AF89B06E464E4B4A4613
:1015A000D418227BD21D07239A436B469D1AAD4661
:1015B0002422A35C002B01D0012088E030624C463D
:1015C000134645482218012073613061D054306AB7
:1015D00010620020908351830246404820184280C8
:1015E000002962D00B46681D3060E81C7060F56011
:1015F000AA7005212970100A68704846364C0019F7
:10160000047B98B2F2611204336212D04A46324926
:101610005218E41E844200DB0446116AB161A5B28F
:1016200070682A4619F0EEFDB0694019254603237B
:1016300014E0B1612B711A0AEA704A462649521821
:10164000651F854200DB0546146AAAB2B2603068A5
:10165000214619F0D7FDB0682018B36949461E4AE3
:101660008918252432690A55F269521C8A83326A24
:10167000521B4A8308627069085C002821D04846E2
:10168000154934624418208A5919CAB2F5682946A6
:10169000FFF760FE0020316A6054638B002B04D09A
:1016A00048460D494018828BA2E7494600200B4D61
:1016B0004855094A8A187369D0549083491948805B
:1016C00005E0484604494018002101550220FC1F4E
:1016D000053CA546F0BDC04618000000C407000048
:1016E00080B582B06A46074B1846114601DF0648AE
:1016F0000099814202D1019802B080BD042006F019
:1017000014FBC046EC890060D4890090F0B581B02C
:1017100000251349164A7A44284603F0F9F903468E
:1017200010484E4630180621016343630E4FF419EA
:10173000E16025722046103010210E4A7A4407F0ED
:101740005DF92320F05518206060084830180A49D8
:1017500079444160204617F007F901B0F0BDC0465A
:1017600040420F0018000000F00100008802000055
:10177000C7FFFFFF84A201002900000070B50446E6
:101780000E48494624220A540D4A8A180023536001
:101790000D186E686B60284617F0E6F86E60094811
:1017A000844207D1084849460818416B408900F037
:1017B00081FC70BD0120FFF763FC70BDF0010000EB
:1017C00088020000115010B01800000070B50346E8
:1017D0000F484D4628180621016343630D4EAC198E
:1017E000E160012020722046103010210B4A7A441B
:1017F00007F004F92320A85518206060064828182F
:10180000074979444160204617F0AEF870BDC046E4
:1018100018000000F001000088020000D2A10100C1
:101820001F00000070B504460E48494624220A54A1
:101830000D4A8A18002353600D186E686B602846A5
:1018400017F092F86E600948844207D1084849466B
:1018500008184089012100F0BFFC70BD0120FFF78E
:101860000FFC70BDF001000088020000115010B0A4
:101870001800000070B50446052119F07BFA0D46EA
:10188000022905DC012D0BD0022D07D104260AE028
:10189000032D07D0042D01D1012604E0002602E02B
:1018A000062600E00326E000052119F0DDF9002DF1
:1018B00000D0401C801970BDF0B585B00E46039075
:1018C000052704921046394619F054FAFF430120C7
:1018D000022907DC012912D002290BD10290BF1C7A
:1018E000042012E003290DD0042903D102907F1DAA
:1018F00001200AE0002701200190029706E00290F3
:10190000062002E00290FF1C032001900498FFF7DC
:10191000B1FF38183BD0002422462346D5086F1C5F
:1019200004998F42214600D2F15D775D07251D4065
:10193000032D05DC012D0ADC002D11D1FF0819E073
:10194000052D08DC042D0ED1C9093D0710E0022D3C
:101950000CD1B90608E0062D16D14909BD0707E0EC
:1019600089097D0704E07906CF0E03E00909FD0728
:10197000ED0E4F190B497944C95D039DE954521D81
:101980005B1C9842CAD102E01F210F40F2E7029986
:10199000002905D0039908183D22019919F036FC59
:1019A00005B0F0BDC9B70100F0B583B00F460546DC
:1019B0003D213A4619F03CFC0646EC190022D04382
:1019C0000290002E08D0A64206D0304601783D296C
:1019D00038D1401C8442F9D10192002E00D0771BEF
:1019E00005214F43FF08384619F0C4F9022905DCE8
:1019F000012909D002290BD104200AE0032905D0CE
:101A0000042905D1012004E0062002E0032000E0C3
:101A10000198002E00D0A61BB04213D1002F14D085
:101A20000B4E7E443C46287801F05BF901462022AB
:101A3000304619F0FDFB002804D06D1C641EF2D165
:101A4000384600E0029803B0F0BD0020FBE7C04636
:101A50001DB70100F0B58BB0174605460991084641
:101A60001146FFF7A1FF002800D195E000244B4963
:101A700079440A91214603942246019708920590E1
:101A800006953D4605271046394619F0EDF80646FD
:101A90007E432046394619F0E7F807460998C05DAD
:101AA00001F01FF9014620220A9819F0C1FB0790A6
:101AB000781CA842039B19460DD20999085C01F0D5
:101AC00010F90146202204940A9C204619F0B0FB2C
:101AD000039B011B049C0491089A961BB91CA94204
:101AE0002F460FD20998405C174601F0FAF80146DC
:101AF000202225460A9C204619F09AFB3A46019F6F
:101B0000031B2C460A980799091A012E10DD022E94
:101B100022D0032E25D0042E069D0598029E32D198
:101B200013461F22049E16401A46490176182AE0E1
:101B3000002E21D0012E069D0598029E23D18907F3
:101B4000090E1646049AD206920E5118DA06D20FE2
:101B5000891832460E4616E008010499C906090F95
:101B60000EE0C907090E1046049AD206520E51180B
:101B70000246D806800F03E0C8000499C906490F41
:101B80000E18069D059802962E7008346D1C401E96
:101B9000521C002800D071E70BB0F0BDCFB6010099
:101BA000F0B503AF8DB06E46154631620022002DB0
:101BB000144608D00024316A095D002903D1641C51
:101BC000A542F8D12C463060291B8A204843642165
:101BD000326319F049F8024608323B4911406A461F
:101BE000521A3061411C954672601046F16019F03E
:101BF00015FB326BB460A5422FD9306971680818A3
:101C000070610020B0610346B168F561306A7162AD
:101C1000405C0146B3621943B26918D0002273696F
:101C2000F362326319780D0205433A2428462146AF
:101C300019F01AF8F36A326B4443291B1970C0B2C9
:101C40005B1E521C0028EBD1B16A8A42E8D3716A4C
:101C5000491CF569A9421346D8D1F068841A306945
:101C6000A04235680ED330697168091850420A18CD
:101C70005278002A03D1401CF9D3F46802E031699C
:101C80000818441C002D17D031222846B16819F0DD
:101C9000BDFA306984420FD870680019B1686918BC
:101CA000F268121B094B7B4405785D5D0D70401C8A
:101CB000521E491C002AF7D1B068F1680818001BB1
:101CC000FC1F053CA546F0BDF8FFFF07BEB40100B0
:101CD000F0B58BB001920D460290171F03AE202481
:101CE000084639463246234616F094FB30462146D4
:101CF0003246234616F08EFB0398E855E919020E8A
:101D0000CA70020C8A70000A487002982946019A2B
:101D1000FFF746FF0BB0F0BDF0B503AF8BB06E46DA
:101D200070600024002A254607D00025485D312830
:101D300003D16D1CAA42F9D11546B161511B3A4835
:101D400048437D21C900F26118F08EFF0246083237
:101D5000364911406A46521A3061411C9546B260BC
:101D60001046316019F05AFAF560F069A8422DD991
:101D70003069B168081870610024E043B062F1680E
:101D80003462B0697162415C294878443A2504465E
:101D90002A4619F04DFA002841D0001BC0B2014676
:101DA000336A002419430CD071690A786A43101809
:101DB0000870B26A8918000A641C0028F5D19C4298
:101DC000F3D3716A491CF0698142D9D133681D1B74
:101DD0003069A8420ED33069B168091860420A1808
:101DE0005278002A03D1401CF9D31D4602E0316924
:101DF0000818451C591BF4680819B062706800285F
:101E00000DD07162214619F009FA3069854206D871
:101E100070680019B1684919726A19F0EFF9B06A6F
:101E2000FC1F053CA546F0BDDD020000F8FFFF00E9
:101E3000DAB3010010B50A46014600242046FFF738
:101E40006BFF032800D8E04310BDF0B589B004460D
:101E5000FFF762FF051F01AE2027204629463246C4
:101E60003B4616F0D7FA3046394632463B4616F026
:101E7000D1FA01980090615D621953781B025918DC
:101E80009378D2781202D21812045118091A4842D3
:101E9000484109B0F0BDD4D4F0B5FFB086B004AC71
:101EA0000FC40120010244AE304616F0F5FA34AFFB
:101EB00040243846214619F0B1F9FF2002307880DD
:101EC0008B988A9D002D039000D1284678708198C8
:101ED000387010362349794430463A46234605F097
:101EE00009FF002D2ED008AC204619F0EFFCA0858C
:101EF000000417D108A816F035FE129014AC204645
:101F00002946039E324619F079F9A0198025A91BAC
:101F100019F084F900210091019144A822462B4632
:101F200016F05CFA16F008FE08A9884202D1129851
:101F300016F018FE14A8802119F070F908A8808DF9
:101F400000280CD1049800900598019044A8012124
:101F5000069A079B16F042FA7FB006B0F0BD05F076
:101F6000E4FEC046CEB20100F0B5CBB0150A04AC19
:101F70002571E2700A0AA2706170519DE571509955
:101F8000A1716371207003A9029100200190087073
:101F900027460837529938462A4606F00FFF539EC7
:101FA0007E557819471C54993846324606F006FF8C
:101FB0005598B855B919569A130ACB708A70000A09
:101FC000487045A800901822019F394606F0FCFE93
:101FD00001204A9002984990A8190D30C0B248904B
:101FE0004794074845900098394605F057F900286E
:101FF00001D4039800E0F843C0B24BB0F0BDC04636
:102000003F008300F0B5C9B002AE307001AF0024CC
:102010003C7043AD18222846214606F0D5FE01202B
:102020004890479746904596064843902846214653
:1020300005F034F9002801D4019800E0E043C0B273
:1020400049B0F0BD3F008500F0B5C9B0519C250EE8
:1020500002AEB572250C7572250A3572F471529C68
:10206000F472509CB4714F9C74714E9C3471F37037
:10207000B2707170307001AF00243C7043AD182213
:102080002846214606F0A0FE0120489047970C20E4
:1020900046904596064843902846214605F0FEF8AE
:1020A000002801D4019800E0E043C0B249B0F0BD7F
:1020B0003F008600F0B5C9B00A0C02AEB280718054
:1020C000308001AF00243C7043AD182228462146E1
:1020D00006F07AFE012048904797062046904596E4
:1020E000064843902846214605F0D8F8002801D438
:1020F000019800E0E043C0B249B0F0BD3F00880065
:10210000F0B5CDB0009301920291044604A803906B
:102110000026072731463A4606F056FE06AD0198DE
:10212000A870029868702C7047AC1822204631467F
:1021300006F04AFE4C97039F4B9703204A9049951F
:10214000114847902046314605F0A8F8002818D4D9
:1021500004A80078002815D1781C5399529A037866
:1021600044782402E318009C23808378C4782402F6
:10217000E318138002794079000280180880304605
:1021800000E0FF204DB0F0BD3F008A00F0B5C9B0BF
:1021900002AEB170308001AF00243C7043AD182214
:1021A0002846214606F010FE01204890479703205C
:1021B000469045960F204490064843902846214675
:1021C00005F06CF8002801D4019800E0E043C0B2AB
:1021D00049B0F0BD3F009300F0B5C9B002AEB17098
:1021E000308001AF00243C7043AD182228462146C0
:1021F00006F0EAFD01204890479703204690459657
:10220000064843902846214605F048F8002801D4A6
:10221000019800E0E043C0B249B0F0BD3F00A50026
:1022200070B588B001AE0024347002AD1822284683
:10223000214606F0C9FD0120079006960648029047
:102240002846214605F02AF8002801D4019800E02C
:10225000E043C0B208B070BD3F000101F0B5CBB0A3
:10226000019302920F46064603A80021032422464A
:1022700006F0AAFD04A80670B11E4A424A41022592
:10228000012E294600D01101012E02D0022E2DD19F
:102290001025401C461839462A4606F08FFD019845
:1022A00070700298307045AF0026182238463146CB
:1022B00006F08AFD4A9403A84990E81C489004A8B7
:1022C00047900D4845903846314604F0E7FF002816
:1022D0000ED403A8007800280BD1509803A94A789F
:1022E0008978090289180180304602E0472000E021
:1022F000FF204BB0F0BDC0463F000201F0B5CFB0AB
:102300001D4606920F46064607A8002103242246D2
:1023100006F05AFD08A887700680B91E4A424A4155
:102320000226012F314600D01101012F02D0022FC9
:1023300040D11026C01C4718589901910594579C0C
:1023400056990291559903915499049106993246F0
:1023500006F034FD280A78703D700198B8717C71E0
:10236000029838710398F8700498B87049AF002546
:1023700018223846294606F027FD05984E9007A8F2
:102380004D900A364C9608A84B900D484990384617
:10239000294604F083FF00280ED407A800780028FF
:1023A0000BD1599807A94A788978090289180180C0
:1023B000284602E0472000E0FF204FB0F0BDC046B5
:1023C0003F000401F0B5C9B01D4602AF7B713A7100
:1023D0007980388001A8009000240470B81D4E99BF
:1023E0001A4606F0EBFC43AE18223046214606F0B2
:1023F000EBFC0120489000984790A81DC0B2469081
:102400004597074843903046214604F047FF00288F
:1024100001D4019800E0E043C0B249B0F0BDC0462D
:102420003F000601F0B5C9B002AF4E9DBD717B7192
:102430003A717980388001A8009000240470F81D5A
:102440004F992A4606F0BAFC43AE18223046214680
:1024500006F0BAFC0120489000984790E81DC0B2F1
:1024600046904597064843903046214604F016FFB3
:10247000002801D4019800E0E043C0B249B0F0BDAB
:102480003F002601F0B5C9B00D4602AF7970387033
:1024900001A8009000240470B81C11462A4606F0DA
:1024A0008DFC43AE18223046214606F08DFC0120FB
:1024B000489000984790A81CC0B24690459707489E
:1024C00043903046214604F0E9FE002801D40198EB
:1024D00000E0E043C0B249B0F0BDC0463F000C0090
:1024E000F0B5C9B002AE7170307001AF00243C701D
:1024F00043AD18222846214606F066FC012048908C
:102500004797022046904596064843902846214624
:1025100004F0C4FE002801D4019800E0E043C0B2FA
:1025200049B0F0BD3F000F0070B588B001AE002487
:10253000347002AD18222846214606F045FC0120E1
:1025400007900696064802902846214604F0A6FE0B
:10255000002801D4019800E0E043C0B208B070BD8B
:1025600003000300F0B5C9B002AE307001AF002423
:102570003C70701C1F2206F021FC43AD1822284637
:10258000214606F021FC01204890479720204690E4
:102590004596074843902846214604F07FFE0028D0
:1025A00001D4019800E0E043C0B249B0F0BDC0469C
:1025B00008000900F0B5C9B002AE4E9C3481F3802A
:1025C000B2807180308001AF00243C7043AD18228E
:1025D0002846214606F0F8FB0120489047970A203C
:1025E000469045960F204490064843902846214641
:1025F00004F054FE002801D4019800E0E043C0B28A
:1026000049B0F0BD3F008101F0B595B00393064697
:102610008020002333503648F0603648B06036489A
:10262000706036483060086830614868706188685A
:10263000B061C868F0610869306248697062886991
:10264000B062C869F06204933363106870635068C5
:10265000B063F3671A980290B067304680304360E9
:102660009068F06305AC01943046214600F048F8CC
:102670003046403001462246B8CAB8C14322B35C56
:102680000F210B40B35435464335049A6A732A79B7
:102690000A402A712A7A0A402A722A7B0A402A733F
:1026A0006978FC2211406970697911406971697A11
:1026B000114069721124214600F037FB374651372B
:1026C000019910311022384618F098FD0498A87727
:1026D0003846214600F029FB30466230214618F08A
:1026E0009DFD30460399029A00F086F815B0F0BDC2
:1026F0007465206B322D62796E6420336578706169
:10270000F0B593B00C4601906CC86CC46CC86CC436
:102710006CC86CC46CC86CC408463C300590084654
:102720002C30049008461C30039008460C30119061
:102730000846383010900846283002900846183075
:102740000F90084608300E90084634300D90084629
:1027500024300C90084614300B90081D0A9008464F
:1027600030300990084620300890129110310791BE
:102770000020029E039C049F059D0690129807ABC3
:102780000ECB00F01DF90AAB0FCB00F019F90E9833
:102790000F993246109B00F013F9119821463A46E2
:1027A0002B4600F00DF912980B9932462B4600F09B
:1027B00007F90A980F993A46099B00F001F90E981B
:1027C0002146089A0D9B00F0FBF8119807990C9A86
:1027D000109B00F0F5F80699481C0929CDD300207C
:1027E000019B129C1958225851182150001D402855
:1027F000F8D113B0F0BDD4D4F0B58BB01646024674
:1028000040320292623003903009401C039D102E2A
:10281000344600D31024002C23D006AF0490384651
:1028200005910599224618F0E9FC38191021091B79
:1028300018F0F4FC0120387411243846214600F0C9
:1028400074FA284629463A46234615F0FBFF0094C1
:10285000074B7B4428462946029A16F023F8049831
:1028600005991031103E401ED1D10BB0F0BDC046CD
:102870009AA90100F0B593B0174602910546802051
:1028800028582E46803671680022C01851410092A7
:1028900010465041012825D01C46286B401C286357
:1028A00003A92846FFF72CFF0194002C0BD003A8A6
:1028B0000299019A3B7804785C400C707F1C401CA4
:1028C000491C521EF6D128460299019C2246FFF768
:1028D00093FF30680019306070680099484170605B
:1028E00013B0F0BD014805F020FAC04605B1000064
:1028F000F0B593B002920F460546802028582E4628
:10290000803671680022C018514100921046504133
:10291000012825D01C46286B401C286303A92846A3
:10292000FFF7EEFE0194002C0BD003A80299019A48
:102930000B7804785C403C70491C401C7F1C521E84
:10294000F6D128460299019C2246FFF755FF3068D0
:1029500000193060706800994841706013B0F0BD94
:10296000014805F0E2F9C04605B10000F0B587B0B6
:1029700001910546806FE96F0391029080202858ED
:102980000490284680304068059002A91026284609
:102990003246FFF731FF2F46623751351124384652
:1029A00039462A46234615F04DFF3846214600F0A9
:1029B000BCF901983946324618F020FC07B0F0BD4A
:1029C000B0B50C6805682C1904601D6865401024BA
:1029D000E5411D601468641914600D686540142495
:1029E000E5410D60046864190460186860401824AB
:1029F000E04118601368181810600A6842401920F6
:102A0000C2410A60B0BDD4D4F0B587B006AD002491
:102A10002C7005950120029005A8019000947D4836
:102A2000784440219F23224605F0A4F9002800D1D4
:102A3000E5E02878012800D0E1E017F0EDFF054639
:102A400018F076F8342068436E4F4946CE19324666
:102A50006832714B7B4413506B4B0325CD541518D2
:102A60006E48784404222A712C6203956862CD185E
:102A70006C60284615F078FF6860022016F088F830
:102A80006860B06E00283FD04846C0196C24015DD4
:102A90007A25405B884237D215F01EFF5B49884299
:102AA00004D115F04DFF594988422DD14846C0192F
:102AB000025D415B914222D20846382670434A4665
:102AC000D3199A6E101868331B6A002B06D09847EA
:102AD00000280AD04946CA19515B926E012802D1DA
:102AE00088B24643901902F031F84846C019415B5C
:102AF000491C4153025D88B29042DED300E0084693
:102B0000904201D115F086FF0398243003904B20AA
:102B1000800004904846C019806E00283FD0484687
:102B2000C0196C26815D7A25405B884237D215F04A
:102B3000D3FE3649884204D115F002FF334988425A
:102B40002DD14846C019825D415B914222D2084690
:102B5000382460434A46D3199A6E101868331B6AAA
:102B6000002B06D0984700280AD04946CA19515B65
:102B7000926E012802D188B24443101901F0E6FF99
:102B80004846C019415B491C4153825D88B290425E
:102B9000DED300E00846904201D115F03BFF4C46E1
:102BA0001B4820180022049915F0AEFFE41905F027
:102BB000AFFA6C20205C7A21615A8142AAD305F0D9
:102BC00093F9039C4846124940180022049915F0D5
:102BD0009BFF05F09DFA15F083FF002802D02068C6
:102BE0000028EFD117F038FF05F038FB05F040FB67
:102BF0004846074940180022049915F085FF07B0A0
:102C0000F0BDC04688020000F0010000115010B075
:102C1000C4000000DCBD0100ACA70100BB01000046
:102C20000E490840884215D10B49484640580028B3
:102C300010D0012800D801204A4651188C31084A8A
:102C40007A440B68934203D03431401EF9D101E03D
:102C50000020086000207047880200000300008008
:102C6000DDFFFFFF10B58CB015F042FB6C4620462F
:102C700018F02CFEA085000407D1684615F072FFFD
:102C80000A900020C04315F0B1FE15F055FF6946CB
:102C9000884202D10A9815F065FF6846808D0028A9
:102CA00001D10CB010BD05F040F8D4D410B50246E7
:102CB00007485040012300248842184600D320468C
:102CC00051188908402900D82346184310BDC04632
:102CD000FFFF000020385F2801D30020704701204B
:102CE000704701466139C9B21A2900D22038C0B2F2
:102CF000704701464139C9B21A2900D22030C0B20A
:102D0000704710B500290ED00278002A09D101239E
:102D10001A46994203D0845C531C002CF8D08A4296
:102D200001D2002010BD012010BD10B54A080FD0FF
:102D30000918491E0B7804785C4004700B786340D6
:102D40000B7004785C400470491E401C521EF1D187
:102D500010BDD4D4B0B5002A0ED0084B7B440C78FB
:102D600024091C5D04700C780F2525405C5D4470BF
:102D7000801C491C521EF2D1B0BDC04686A5010080
:102D8000F0B581B00C46064600252F460A22304693
:102D900021462B4618F0F6F87F1C0922921B2A4682
:102DA000A24106460C46F1D3384601B0F0BDF0B55D
:102DB0008BB016461099002900901ED0354604931A
:102DC00003910A220292002428460499234618F00F
:102DD000D9F806460F46029A0294234618F0F2F8F4
:102DE000281A049A8A4102430AD10399491E080607
:102DF000354604973B46E3D107E00020029004E00B
:102E00002B46039802902E46049B1820029F0390A5
:102E100019463C460A270025304604933A462B467D
:102E200018F0B0F8029001913A462746039C2B46D1
:102E300018F0C8F8321A30210A43601E05AB1A5444
:102E40003A0613D07F1E3A06019B11D1A01E05AA97
:102E50002E24145400270922921B3A46049CA241B6
:102E600006D30398C01E05AA115401E02F46019B0A
:102E70000921891B04998D41029EC8D33906C6D108
:102E800005A909181822121A009818F0B7F90BB002
:102E9000F0BDD4D4D0B502AF94B06E46F41D413429
:102EA00002464E4849460858012802D14E4804F0CF
:102EB0003CFF4B4B4846C0188178012968D80179FE
:102EC000481E3F2864D84846C018C07800285FD103
:102ED000444B4846C0184078401E02285CD2F2613C
:102EE0000A460720C543B161C81D28406946081A33
:102EF000B0608546F260104601F0EEF87061C01DCA
:102F000028406946081A30618546F51D193528465E
:102F100018F0DCFCA88500041CD1F01D193015F058
:102F200021FE206049462F480818306018302C4A8E
:102F300089184A1DB168F5682B46FFF7D9FC82B0A5
:102F4000102000903068831C3069B1682A4601F077
:102F5000C7F802B015F0F0FDF11D1931884202D119
:102F6000206815F0FFFDB068F16818F057F9F01D02
:102F70001930808D002811D17569F469208829469F
:102F8000FFF794FE00280BD06720000204F0CDFE6E
:102F90001548001D04F0C9FED120000204F0C5FE52
:102FA00049460F48716008182188401831692A463F
:102FB00018F024F9B069402801D3022000E0032072
:102FC000F269084973697468611848701088C018FC
:102FD00010800920000304F0A8FEC0466000000035
:102FE000C00600002006000001B10000D0B502AF0D
:102FF00094B06E46F41D41340246494B4846C01811
:103000008178012968D80179481E3F2864D848464C
:10301000C018C07800285FD1424B4846C01840789D
:10302000401E02285BD2F2610A460720C543B16107
:10303000C81D28406946081AB0608546F2601046EF
:1030400001F04AF87061C01D28406946081A3061D5
:103050008546F51D1935284618F038FCA88500046A
:103060001CD1F01D193015F07DFD206049462D481A
:103070000818306018302A4A89184A1DB168F56866
:103080002B46FFF735FC82B0102000903068831C7F
:103090003069B1682A4601F023F802B015F04CFD02
:1030A000F11D1931884202D1206815F05BFDB0682E
:1030B000F16818F0B3F8F01D1930808D002810D198
:1030C0007569F46920882946FFF7F0FD00280AD0C9
:1030D0006720000204F029FE134804F026FED120E8
:1030E000000204F022FE49460D487160081821884C
:1030F000401831692A4618F081F8B069402801D398
:10310000022000E00320F2690649736974686118BF
:1031100048701088C01810800920000304F005FED4
:10312000C00600005008000005B10000D0B502AF95
:1031300082B06E4604462B4849460858012802D101
:103140002B4804F0F2FD284A48468018817801296E
:1031500027D80579681E3F2823D848468018C078AC
:1031600000281ED121494846405C401E02281CD23E
:10317000E81D0721884369460B1A49461B48081871
:10318000183089184A1D9D46736019462B46FFF773
:1031900071FB20882946FFF789FD002809D06720A8
:1031A00004E01348001D04F0C0FDD120000204F02B
:1031B000BCFD49460C4831600818218840187168E8
:1031C0002A4618F01BF8402D01D3022000E003200E
:1031D0000649326850542088401920800920000395
:1031E00004F0A3FD60000000C006000020060000FF
:1031F00001B10000D0B502AF84B06E460246284C43
:10320000484600198178012929D80579681E3F2888
:1032100025D848460019C078002820D121494846C1
:10322000405C401E02281DD2E81D072188436946E4
:103230000B1A49461B48081818300919F2604A1D34
:103240009D46B36019462B46FFF714FBF0680088D3
:103250002946FFF72BFD002808D0672003E012481D
:1032600004F063FDD120000204F05FFD4846706069
:103270000019F1680C4609884018B1682A4617F011
:10328000BDFF402D01D3022000E0032005497268F4
:1032900050542088401920800920000304F045FD87
:1032A000C00600005008000005B10000214C48464F
:1032B00000198078012836D848460019017920295C
:1032C00031D1C07800282ED148460019401D202158
:1032D00000F026FE002826D018484946095C00293F
:1032E00024D0494609180D4618352CCD496A194392
:1032F00015430D431AD1494609188A68CB68134310
:1033000014D04978002911D149460D182846283093
:103310000919491D002200F093FD01206870092061
:10332000000304F002FD044804F0FFFCD120000279
:1033300004F0FBFCC006000005B10000F00800002E
:10334000A0B00446314E484680198078012846D8FE
:10335000484680190179C078084340D12C4F48462F
:10336000C05D00283ED04846C019034618330ECB36
:10337000406A10430B43034334D101AD284618F093
:10338000A5FAA885000410D101A815F0EBFB0B905D
:103390004846C11928312120202216AD2B4615F0B0
:1033A0002DF90DA8294600F0E9F915F0C5FB01A992
:1033B000884202D10B9815F0D5FB16A8282117F0EA
:1033C0002DFF01A8808D00280ED120882121FFF734
:1033D0006DFC00280AD06720000204F0A6FC0D480E
:1033E00004F0A3FCD120000204F09FFC48468019A1
:1033F000218840180DA9212217F000FF20882130D4
:1034000020800920000304F090FCC046C0060000A4
:10341000F008000005B100009CB04B4D4846401933
:10342000817801292ED8C07800282BD14846401930
:103430000079484979440E6831460931814221D1E9
:10344000484640194479444878440068A04219D35A
:10345000002807D049464919891D0A6812BA04C1D3
:10346000401EFAD14846401981190527C859491DFF
:10347000496802460A4305D04A465219B218527B9F
:10348000022A02D3314804F050FC0792304B4A46DE
:10349000D25C002A06D04A46D3181A6A5B6A0492A4
:1034A0001A4303D1D120000204F03FFC049A101A01
:1034B0008B41E7D308A8039018F008FA0399888590
:1034C00000041FD108A815F04DFB12904846411981
:1034D0008B19DA5905921E4A801806904268581DC9
:1034E0004368881D009001940798029014AC204610
:1034F0001146059A00F04AFA069828300022214623
:1035000000F09EFC15F018FB08A9884202D1129821
:1035100015F028FB14A8202117F080FE08A8808D44
:103520000028C1D14846411989194A1DC959084B7B
:10353000C018036A591A0162416A52689141416296
:103540000920000304F0F1FBC006000005B10000F3
:10355000F0080000E09E0100C89E01009CB04B4DA9
:1035600048464019817801292ED8C07800282BD1EF
:10357000484640190079484979440E683146093176
:10358000814221D148464019447944487844006832
:10359000A04219D3002807D049464919891D0A6855
:1035A00012BA04C1401EFAD14846401981190527B4
:1035B000C859491D496802460A4305D04A4652196E
:1035C000B218527B022A02D3314804F0AEFB0792B4
:1035D000304B4A46D25C002A06D04A46D3189A6934
:1035E000DB6904921A4303D1D120000204F09DFB51
:1035F000049A101A8B41E7D308A8039018F066F9D3
:103600000399888500041FD108A815F0ABFA129021
:10361000484641198B19DA5905921E4A80180690BE
:103620004268581D4368881D0090019407980290D5
:1036300014AC20461146059A00F0A8F906982830E7
:103640000122214600F0FCFB15F076FA08A9884219
:1036500002D1129815F086FA14A8202117F0DEFD89
:1036600008A8808D0028C1D14846411989194A1DF2
:10367000C959084BC0188369591A8161C1695268D8
:103680009141C1610920000304F04FFBC006000016
:1036900005B10000F00800009C9D0100849D010020
:1036A000F0B503AF95B06E46F31D3133F360316072
:1036B0007060002A56D42F487844F11D393118C85B
:1036C00018C138C838C10120C007024327494B46FA
:1036D000591849680143F068C16002616846B060EA
:1036E0006D46403DAD46F41D0934204618F0EEF815
:1036F000A08500041DD1F01D093015F033FAF168E2
:10370000086084B00C201C4979440095326801920D
:103710000291039000202124F21D39320523214615
:1037200015F0EEF804B0202220462946736814F004
:1037300065FF15F001FAF11D0931884203D1F068E7
:10374000006815F00FFA4021284617F067FDF01DBC
:103750000930808D002806D1B0688546FC1F053CE5
:10376000A546F0BD024804F0E0FAC0466000000043
:1037700005B100009C9C0100609C010070B594B0F4
:103780000A460546212001AC01262146334614F0A5
:103790004BFF02980019C0793040801C2870681CCB
:1037A00009342022214617F029FD14B070BDD4D46D
:1037B000F0B503AFC3B06E46F41D61343546343501
:1037C00013C5F11D9131BD68F868002807D1706BF1
:1037D000B160B16B1C46FFF763FFB1682346002D53
:1037E00000D1C5E00C4621343463F01D6930083047
:1037F000F062F01DB9300930B062706B0830706251
:10380000F01D9130401C30621846F561B061684689
:1038100070616C46403CA546F51D3935284618F0C8
:1038200055F8A88500047ED13461F01D393015F0BB
:1038300099F9F46B2060B0690568002D20D4746B91
:103840002178F16021202070F51DB93501237360C6
:103850002946224614F0E8FEF06BC06D4019C0798D
:1038600071680840801CF11D913108702022306A77
:10387000B16A17F0C3FCF0682070B069056809E010
:10388000F01D913000210170706B4268306A716ADE
:1038900017F0B4FC316BCD70280A8870280C487082
:1038A000280E087082B040203469009401902025D1
:1038B000F21D91322523B06B294614F003FE02B0AD
:1038C000706B0078F31D693321462A4614F096FE8A
:1038D000F56BEA682B497944F46A204614F086FFB8
:1038E000002849D5E86882B00090274B7B442046E9
:1038F0002146726A14F0BCFF02B0E968204614F059
:103900008BFF002838D1316920312022B06B17F0AD
:1039100075FCF01D6930716B2CC82CC12CC82CC1F2
:103920003CC83CC1346915F007F9F11D39318842B2
:10393000F06B02D1006815F015F9F01D91302521CA
:1039400017F06CFC4021204617F068FCF01D693030
:10395000282117F063FCF01D3930808D0028B169F3
:103960000BD170698546081DF1694D1E00D04CE7EA
:10397000FC1F053CA546F0BD014804F0D6F9C04641
:1039800001D100005A9A0100449A0100F0B503AF3A
:10399000A9B06E46F41D6D343462F3603261B160DB
:1039A00070616846B062FF250235284605F0C0FC0C
:1039B000B061C01D072188436946081A85467062B8
:1039C000294605F0C1FC0546F41D4534204617F094
:1039D0007DFFA08500042C4626D0B56915F0ACF813
:1039E000F11D4531884203D1306A006815F0BAF8FC
:1039F000F01D7530282117F011FCF01D2530202115
:103A000017F00CFC204605F067FD706A294617F098
:103A100005FCF01D4530808D002845D1B06A8546F3
:103A2000FC1F053CA546F0BDF4613C69FD68B86823
:103A30007060F01D453015F095F8316A086082B06D
:103A4000002000950190F01D7530F11D2531B26800
:103A50007368FFF7ADFE02B0012C0BD0002CF469A7
:103A6000BBD1306AC268F11D75310831706917F039
:103A7000C5FBB2E7F068316986B00D4A7A440D4B58
:103A80007B440D4C7C44009101900294039304927A
:103A9000F21D75320832F4692046716908F0B2FDF2
:103AA00006B0002899D1014804F03FF901D1000087
:103AB0007999010035990100F1980100F0B503AF43
:103AC000A5B06E46F11D85313162B360F260706160
:103AD000FF250235284605F02BFCB061C01D0721EB
:103AE00088436946081A8546F061294605F02CFC92
:103AF0000546F41D5D34204617F0E8FEA08500045D
:103B0000B0692C4626D13461B468F568B868706035
:103B1000F01D5D3015F026F8316A086084B01D484C
:103B200078441D49794400950194346902910390C9
:103B3000F11D1D312046726807F0BAFD04B000285F
:103B400023D0F21D1D322046716907F056FD002872
:103B50001BD0B069054614F0EFFFF11D5D318842BE
:103B600003D1306A006814F0FDFF204605F0B4FC74
:103B7000F069294617F052FBF01D5D30808D00285A
:103B800004D1FC1F053CA546F0BD014804F0CDF86A
:103B900001D100009598010051980100F0B503AFE4
:103BA000BBB06E46F31D69333362B2610C46F061FF
:103BB000F51D4135284617F089FEA885000446D139
:103BC000F01D413014F0CEFF316A0860F01D7130F5
:103BD0007060002131612246FFF762FD2120706193
:103BE000F41D99340125214672682B4614F01CFD02
:103BF000306A406B0019C0792840801CF11D1D31CE
:103C0000B1600870481C214609312024224617F073
:103C1000F5FA6846F0606D46203DAD4682B03069E9
:103C20000090019028462146B2687369FEF734F986
:103C300002B082B0B069009070690190F0692146CD
:103C40002A462346FEF728F902B0F068854614F0AC
:103C500073FFF11D4131884203D1306A006814F0CE
:103C600081FFF01D7130282117F0D8FAF01D413086
:103C7000808D002803D1FC1F053CA546F0BD04F053
:103C800054F8F0B503AFA5B06E46F31D5D33736114
:103C9000F2600C4630616846B061F51D3535284646
:103CA00017F014FEA88500042DD1F01D353014F056
:103CB00059FF75692860F01D65307060F11D153180
:103CC0002246FFF7EDFC6846B0606C46203CA546F6
:103CD000EB6882B0002000900190726808322025C5
:103CE00020462946FEF7D8F802B082B02120F168BC
:103CF000009101903069294622462B46FEF7CCF808
:103D000002B0B068854614F017FFF11D35318842C6
:103D100003D17069006814F025FFF01D653028217B
:103D200017F07CFAF01D1530202117F077FAF01DFE
:103D30003530808D002805D1B0698546FC1F053CD3
:103D4000A546F0BD03F0F1FFF0B5B5B01E460C4638
:103D5000054634926846079020AF384617F0B6FD06
:103D6000B885000443D1049620A814F0FBFE2A90E5
:103D70000120002300930193059002902CAF2C4A60
:103D8000384606942146FFF701FE4020019010AE10
:103D90000096294878440D2120243A46234614F001
:103DA00091FB0498314622462B4614F027FC6968A3
:103DB0002E460836304614F02FFD002834D16A68AC
:103DC0001E497944304614F011FD00282CD510A866
:103DD000203008A90A46D8C8D8C2D8C8D8C2059881
:103DE0000090019034AB2846069AFFF7E1FC14F0EE
:103DF000A3FE20A9884202D12A9814F0B3FE2CA871
:103E00002024214617F00AFA10A8402117F006FADC
:103E100008A8214617F002FA20A8808D002804D1B6
:103E20000798854635B0F0BD024803F07EFFC046D6
:103E3000C902000001D10000A19601006E950100A9
:103E4000F0B503AF95B06E46F31D15337361F260A4
:103E50007160B0610124204605F06AFA0546C01D74
:103E6000072188436946081A85463061B4602146B7
:103E700005F06AFA3060F41D1D34204617F026FD67
:103E8000A085000434681AD1F01D1D3014F06AFEBC
:103E900071690863706830620223F0680028184670
:103EA00000D1B068B1697269116082B00090F21DF2
:103EB0001532204607F05AFC02B0002829D014F031
:103EC0003BFEF11D1D31884203D17069006B14F077
:103ED00049FE204605F000FB3069294617F09EF99F
:103EE000F01D1D30808D002814D12021B46920469A
:103EF000FEF707FF002805D12021204600F010F82A
:103F0000002803D0FC1F053CA546F0BD024803F085
:103F10000CFF024803F009FF05B1000001D10000C9
:103F2000F0B503AF85B06E46202922D10125B060DF
:103F3000284605F0FDF9F060C21D07218A43694655
:103F400031616946881A70608546294605F0FCF99A
:103F50000446B16806F00CF80546204605F0BCFAA8
:103F60007068F16817F05AF9681E85413069854616
:103F700000E000252846FC1F053CA546F0BDD4D432
:103F8000F0B503AFCFB06E46514CA41974627361A3
:103F9000B261F16130624B4C204605F0C9F905462B
:103FA000C01D072188436946081A8546B06221462C
:103FB00005F0CAF9B060474CA419204617F086FCFA
:103FC000A0850004B46858D13561BD6841488019A6
:103FD00014F0C8FD716A0860F01D2530202114F02E
:103FE000E7F9F560002D0FD0F11DC53121232046E2
:103FF000F26805F087FA00285ED0F01DC530402138
:10400000FEF77FFE002857D1FA68F11D8531212384
:10401000204605F077FA00284ED0F01D853040216B
:10402000FEF76FFE002847D1254686B0F01D2530EB
:104030000590F01D85300490F01DC530F168002911
:10404000F269B36900D108460021746900940191B6
:10405000029003900833F11D45312C4628460CF0A0
:10406000DBFC06B000282AD0F21D45322046316A1A
:1040700005F046FE002822D0356914F05DFD154993
:104080008919884203D1706A006814F06BFDF01D35
:104090002530202117F0C2F8204605F01DFAB06A3D
:1040A000294617F0BBF80B488019808D002807D1EE
:1040B000FC1F053CA546F0BD034803F036FE03484F
:1040C00003F033FE0102000005B1000001D1000041
:1040D000340100000C01000010300F2188437047AC
:1040E000F0B503AF9DB06E46F41D4134F461336109
:1040F000B0611546B26010350F2085436846441BF9
:10410000A546204617F07AF87461B16860182C460D
:10411000691ACAB217F07AF8F51D1935284617F052
:10412000D5FBA885000419D1B868F060F01D1930DE
:1041300014F018FDF1690860F51D49353069F16822
:104140002A4614F0F9F982B0B06900900194452133
:1041500028467269234614F005FA02B014F0ECFC0C
:10416000F11D1931884203D1F069006814F0FAFC9E
:10417000F01D4930242117F051F8F01D1930808DC1
:10418000002803D1FC1F053CA546F0BD03F0CDFD82
:1041900070B59CB00D4604466E46304617F096FB4F
:1041A000B085000422D1684614F0DCFC0A906968EE
:1041B000284608300CAD40262A46334614F040F914
:1041C0002878F82101402970E87F7F210140E977B4
:1041D000E87F3043E877202628463146FEF7A5FDE4
:1041E000612029463246234614F008FA14F0A4FC54
:1041F0006946884202D10A9814F0B4FC0CA8402108
:1042000017F00CF86846808D002801D11CB070BDF5
:1042100003F08BFD10B514460B4A4B469A58012A01
:104220000AD0002A0CD1342C01D0382C08D1FEF74A
:10423000A7FD2018423010BD202C01D1492010BD0F
:10424000024803F072FDC0466000000005B10000A6
:10425000F0B587B01F46044605930492304849469E
:1042600008580E9D0D990C9B01280FD0002851D1A4
:104270001646382D039132D0342D38D102930F9B3E
:1042800000203422039903F03DFC2DE01F46084630
:104290000E46294600F048F800283DD004A8082121
:1042A000FEF743FD0598207104992170020EE2711A
:1042B000020CA271000A6071080EE070080CA07078
:1042C000080A6070204608302122394616F096FF11
:1042D0002934204631462A4616F090FF1AE0002085
:1042E0003822029314F03EFD029B002814D02122B4
:1042F00020461946FEF72EFD2046423003992A46F5
:1043000016F07CFF002000902819423032463B46D0
:10431000FEF74DFD07B0F0BD024803F006FDC046B4
:104320006000000005B10000F0B503AF91B06E462B
:10433000F41D3534202911D1F060F51D0D352846C6
:1043400017F0C4FAA88585B2002D09D0F01D0D30F4
:1043500000218185206814F005FC29E0002029E077
:104360003561F01D0D30B06014F0FCFB2060684634
:1043700070606D46483DAD4602202870681C2022C2
:10438000F16816F03BFF41202946024614F078F907
:104390007068854614F0D0FBB168884202D120686D
:1043A00014F0E0FBF01D0D30808D0028356905D13B
:1043B00068426841FC1F053CA546F0BD03F0B5FC12
:1043C000F0B503AFA1B06E461D4672614C4A4B4634
:1043D0009B583C69FA68012B3061F26030D0746000
:1043E000002B00D088E0382D61D0342D00D083E040
:1043F000B1607068492871697ED2BB68F01D3130A8
:10440000342203F07FFB002876D0F41D11342025E0
:104410003069B16822462B4613F0FCFF84B000954A
:10442000F068019070680290F01D31303649032227
:10443000234614F0A1F904B0002857D1002456E017
:10444000B160402C58D170692946FFF76DFF0028F4
:1044500052D0684670606C46483CA54602202070E9
:10446000601C71692A4616F0C9FE4125284621467E
:104470002A4614F005F9F31D3133284621462A4611
:104480001D4614F0A5F886B040200024B1680091C4
:1044900001940294F16803910490012105222846B9
:1044A000336914F027F906B071688D461CE0706816
:1044B000402821D10D46F01D31303822716914F0A9
:1044C00051FC002818D086B04020002400950194AB
:1044D0000294F16803910490F01D3130012105220E
:1044E000336914F007F906B0002800D001242046F3
:1044F000FC1F053CA546F0BD024803F016FCC04673
:104500006000000005B1000001060000F0B503AF37
:10451000A3B06E46F11D79313161706001242046EF
:1045200004F006FFB060C01D072188436946081AE1
:104530008546F0607461214604F006FF0446F51DCF
:104540005135284617F0C2F9A8850004254610D138
:10455000F01D513014F006FB31690860F11D113176
:104560002846726806F0E4FF411E8841F11D813142
:104570000870B46814F0E0FAF11D5131884203D19B
:104580003069006814F0EEFA284604F0A5FFF068E0
:10459000214616F043FEF01D5130808D002808D1D1
:1045A000F01D8130007871690840FC1F053CA5466C
:1045B000F0BD03F0BAFBF0B503AF97B06E460D4601
:1045C000412901D0212D31D1B261012470602046F2
:1045D00004F0AEFE7061C01D072188436946316159
:1045E0006946081A8546F0602146B46904F0ACFEBD
:1045F000F11D1531B06072682B4604F083FF411E37
:1046000005468D41002C07D0002805D0F01D15303F
:104610004021FEF776FB2070B06804F05DFFF06883
:10462000716916F0FBFD3069854600E000252846DB
:10463000FC1F053CA546F0BDF0B503AFA3B06E4628
:10464000F11D11317161F0600125284604F070FE02
:10465000B060C01D072188436946081A854630614D
:10466000294604F071FE0546F41D5534204617F026
:104670002DF9A0850004B0682C461FD1F01D5530DF
:1046800014F070FA7569E866F11D15312123204692
:10469000F26804F037FF00282BD04120286082B058
:1046A00002200090F21D1132F31D15332046F168EF
:1046B00005F026F802B000281ED0B068054614F0B8
:1046C0003BFAF11D5531884203D17069C06E14F078
:1046D00049FA204604F000FF3069294616F09EFD95
:1046E000F01D5530808D002807D1FC1F053CA546E4
:1046F000F0BD044803F019FB014803F016FBC04667
:1047000001D1000005B10000F0B5A9B00D46044686
:104710006E46304617F0DAF8B08500041AD16846C4
:1047200014F020FA0A901848784402681FAF412616
:10473000384629463346FFF707FB0CAD01233046C8
:1047400029463A4613F070FF08350D9A304629463F
:1047500013F080FF14F0F0F96946884202D10A98FC
:1047600014F000FA1FA8282116F058FD6846808D25
:10477000002807D10CA909312022204616F03EFD61
:1047800029B0F0BD03F0D1FA7C950100F0B503AF7C
:10479000BFB06E46F41DE934B36231637063F463F5
:1047A000A2600120706205026C1C204604F0C0FD6E
:1047B0000721C943F160B063C01D08406946081A6B
:1047C00085463064214604F0BFFD0446F11D3D31AD
:1047D000842204F089FE306128460AF0FBFAF06179
:1047E000C01DF16808406946091A8D46394A7A4465
:1047F0002046F1622B460AF0F1FA7060F51DC135D2
:10480000284617F063F8A8850004306930627068A4
:10481000B0612CD1F868B060BD68F01DC13014F0F3
:10482000A1F9F16B086090B0002340202A49794437
:10483000726A089209910A90B06A0B900C950D93D8
:104840000E93B0680F900793F01DF130069005931A
:10485000306B049003930293706B01900093204699
:10486000316AB2690AF044FB10B000282CD0B06B5A
:104870007061F56914F060F9F11DC131884203D10E
:10488000F06B006814F06EF92046B1690AF010FB75
:10489000F06A294616F0C2FC306A04F032FEF01DC0
:1048A0003D30842116F0BAFC204604F015FE306C31
:1048B000716916F0B3FCF01DC130808D002804D161
:1048C000FC1F053CA546F0BD014803F02EFAC0468A
:1048D00001D10000C78B0100478B0100F0B503AF89
:1048E000E3B06E46634CA419F51DCD35F563F26156
:1048F00031643063B464A360FF240234204604F0C2
:1049000017FD70640721C9433161C01D0840694625
:10491000081A8546F064F462214604F015FDF11D85
:1049200049318422044604F0DFFD70618025284669
:104930000AF050FA7062C01D316908406946091AD0
:104940008D46504A7A442046B1632B460AF046FA17
:10495000B060494DAD19284616F0B8FFA88500048F
:10496000706C7463746A7169B162B168316250D1FC
:10497000FC68BD684048801914F0F4F8B16C086018
:1049800090B00023402040497944012208920991C7
:104990000A900B950C940D930E930F930793374841
:1049A000801906900593F0690490F01DD1300390B2
:1049B00033488019029001930093706BB16A326A98
:1049C0000AF096FA10B000284FD02120F46BF06066
:1049D000206082B0F06A451C0095F21DCD32284B54
:1049E0009B19706B316B04F08BFE02B000283CD039
:1049F000F068206082B00095F21DCD32F31DD133F6
:104A0000706B316C04F07CFE02B000282DD0706C0D
:104A1000746AB06114F090F817498919884203D17B
:104A2000B06C006814F09EF8756B2846316A0AF085
:104A30003FFAB06B214616F0F1FBB06A04F061FD5D
:104A4000F01D4930842116F0E9FB284604F044FDAE
:104A5000F06CB16916F0E2FB07488019808D0028E0
:104A600004D1FC1F053CA546F0BD014803F05DF9EB
:104A700001D1000080010000580100008801000001
:104A800018010000718A0100ED890100B0B50446EB
:104A900009202072184800252560606020460930F2
:104AA00016497944122216F0A9FBA57743206077B6
:104AB000572020774D20E076204620301049794459
:104AC000062216F09BFB204650300E4979442CC933
:104AD0002CC00D48784401684068A162E06220461D
:104AE000303021462831E16520660849794420228A
:104AF00016F084FBB0BDC04651020000A28901003F
:104B00004B6F0100808A0100508A0100408A010039
:104B1000F0B581B0164604460D1A681E054205D14F
:104B2000B047294616F026F908460CE00020C0439D
:104B3000294616F099F807464543B047A842FCD2EB
:104B4000394616F091F8001901B0F0BD80B503F0B8
:104B500091FC80BDB0B505460720284000240128FF
:104B600015D0022815D10C48002908D04A46101843
:104B700013F0A0FF28060AD513F006FC07E049460B
:104B8000081841218900002213F0BEFF0446204688
:104B9000B0BD022003F0C9F8C0060000F0B585B032
:104BA000DE4E4846805D0C2839DD0D2864D00E2885
:104BB00000D188E0152800D0D3E0D948494608182C
:104BC0008079012806D1484680198079000701D4F0
:104BD00000F027FDD34E4D460120A855AC19002703
:104BE0006760204613F0C0FE6060022013F0D0FF23
:104BF0006060CD4C29194968002900D15AE3CB4A9D
:104C0000904200D1ACE3002800D1A9E34D462A1917
:104C100057608847A819FB49443141604EE3052895
:104C200079D00C2800D09CE0F3494F4601207854FD
:104C30007C1800256560204613F096FE6060022017
:104C400013F0A6FF6060ED4C39194968002900D1C6
:104C500039E2EB4A904201D100F06FFC002801D10B
:104C600000F06BFC4E46321955608847E248301818
:104C7000E4494431416031E2DF4E4D460120A85500
:104C8000AC1900276760204613F06EFE60600220BA
:104C900013F07EFF6060D94C29194968002900D1C2
:104CA00084E0D74A904201D100F047FC002801D1AE
:104CB00000F043FC4D462A1957608847A819D1498E
:104CC000443141607DE0CC494E4601207054751856
:104CD00000276F60284613F047FE6860022013F03B
:104CE00057FF04466860C54D70194168002900D11E
:104CF000BCE0C348844200D11AE1002C00D117E186
:104D00004E467019476020468847BB483018BD4959
:104D100044314160AEE0B8494F46012078547C18D8
:104D200000256560204613F01FFE6060022013F02E
:104D30002FFF6060B14C39194968002900D165E145
:104D4000AF4A904200D1F8E3002800D1F5E34E4687
:104D5000321955608847A8483018AA494431416043
:104D60005FE1A54E4D460120A855AC1900276760AC
:104D7000204613F0F9FD6060022013F009FF606027
:104D80009E4C29194968002900D1F9E19C4A9042BA
:104D900000D14CE2002800D149E24D462A19576063
:104DA0008847A819974944314160EDE19449884208
:104DB00000D1C2E3002800D1BFE39349884200D06C
:104DC00020E348462546041903F048FA03F050FA58
:104DD0007A2004902752A06E002800D1ADE3484607
:104DE000801940688649884200D1A6E3002800D196
:104DF000A3E32C46484640196C26805D002800D16C
:104E00009BE3804F13F068FDB84204D113F098FD86
:104E1000B84200D091E348460019825D049D415B91
:104E2000914200D3DFE20846382778434A461319F7
:104E30009A6E101868331B6A002B06D0984700281A
:104E40000AD049460A19515B926E012802D188B2F4
:104E50004743D01903F00EFB48460019415B491C3B
:104E60004153825D88B29042DED3BDE26548443052
:104E700084425DD14846461903F0F0F903F0F8F991
:104E80007A2400203053B06E002800D155E3484604
:104E90005949401840685A49884200D14DE30028DA
:104EA00000D14AE3484640196C26805D002800D1B5
:104EB00043E3544F13F010FDB84204D113F040FD0A
:104EC000B84200D039E348464019825D015B914207
:104ED00000D388E20846382778434A4653199A6E29
:104EE000101868331B6A002B06D0984700280AD098
:104EF00049464A19115B926E012802D188B2474394
:104F0000D01903F0B7FA48464019015B491C015318
:104F1000825D88B29042DED366E2C046C4000000E3
:104F2000C4070000F001000088020000445010B0E7
:104F30004846411994200958002913D00A46643A7A
:104F400000D23A464B465B191A5064290AD8902180
:104F50005958002906D04A4652199823D35813505D
:104F6000002088472648844200D1E6E2002C00D188
:104F7000E3E248464019806E002800D145E34846E8
:104F800040196C24015D7A26805B884200D33CE3A3
:104F90001C4F13F0A1FCB84204D113F0D1FCB8426D
:104FA00000D032E348464019025D815B914200D354
:104FB00026E30846382778434A4653199A6E101854
:104FC00068331B6A002B06D0984700280AD0494650
:104FD0004A19915B926E012802D188B24743D019D9
:104FE00003F048FA48464019815B491C8153025D31
:104FF00088B29042DED304E3F00100008802000092
:10500000445010B0115010B0555010B0F9498842BA
:1050100000D192E2002800D18FE2F749884200D007
:1050200031E24846071903F019F903F021F97A260D
:10503000BD53B86E002800D17FE24846EF494018C2
:105040004068EC49884200D177E2002800D174E240
:10505000484600196C25405D002800D16DE2E84FFC
:1050600013F03AFCB84204D113F06AFCB84200D005
:1050700063E248460019425D815B914200D3B2E190
:105080000846382778434A4613199A6E1018683331
:105090001B6A002B06D0984700280AD049460A19F7
:1050A000915B926E012802D188B24743D01903F078
:1050B000E1F948460019815B491C8153425D88B281
:1050C0009042DED390E1CB49884200D135E20028FE
:1050D00000D132E2C849884200D037E24846071979
:1050E00003F0BCF803F0C4F87A26BD53B86E00286C
:1050F00000D122E24846C14940184068BD49884273
:1051000000D11AE2002800D117E2484600196C25A8
:10511000405D002800D110E2B94F13F0DDFBB8422A
:1051200004D113F00DFCB84200D006E24846001945
:10513000425D815B914200D355E1084638277843B0
:105140004A4613199A6E101868331B6A002B06D052
:10515000984700280AD049460A19915B926E0128A7
:1051600002D188B24743D01903F084F948460019A8
:10517000815B491C8153425D88B29042DED333E1AA
:105180009F494431884252D14846051903F066F8D8
:1051900003F06EF87A2004902F52A86E002800D1F8
:1051A000CBE14846801940689249884200D1C4E169
:1051B000002800D1C1E1484600196C26805D002816
:1051C00000D1BAE18E4F13F087FBB84204D113F03F
:1051D000B7FBB84200D0B0E148460019825D049D9B
:1051E000415B914200D3FEE00846382778434A46A7
:1051F00013199A6E101868331B6A002B06D0984753
:1052000000280AD049460A19515B926E012802D142
:1052100088B24743D01903F02DF948460019415B85
:10522000491C4153825D88B29042DED3DCE048469F
:105230000019806E002800D175E1484600196C25E0
:10524000415D7A26805B884200D36CE1F84F13F011
:1052500043FBB84204D113F073FBB84200D062E1C3
:1052600048460019425D815B914200D356E10846F1
:10527000382778434A4613199A6E101868331B6A08
:10528000002B06D0984700280AD049460A19915B9E
:10529000926E012802D188B24743D01903F0EAF890
:1052A00048460019815B491C8153425D88B2904297
:1052B000DED334E1DE494431884251D148460519F4
:1052C00002F0CCFF02F0D4FF7A2004902F52A86E97
:1052D000002800D131E1484680194068D34988420E
:1052E00000D12AE1002800D127E1484600196C26A8
:1052F000805D002800D120E1CD4F13F0EDFAB842D7
:1053000004D113F01DFBB84200D016E14846001945
:10531000825D049D415B914265D2084638277843FF
:105320004A4613199A6E101868331B6A002B06D070
:10533000984700280AD049460A19515B926E012805
:1053400002D188B24743D01903F094F848460019B7
:10535000415B491C4153825D88B29042DED343E0F9
:1053600048460019806E002800D1DCE0484600194C
:105370006C25415D7A26805B884200D3D3E0AC4F38
:1053800013F0AAFAB84204D113F0DAFAB84200D006
:10539000C9E048460019425D815B914200D3BDE0FF
:1053A0000846382778434A4613199A6E101868330E
:1053B0001B6A002B06D0984700280AD049460A19D4
:1053C000915B926E012802D188B24743D01903F055
:1053D00051F848460019815B491C8153425D88B2EF
:1053E0009042DED39BE00846904200D0A5E013F047
:1053F00011FBA2E0445010B0555010B0F001000075
:10540000115010B048460019806E002800D18AE083
:10541000484600196C25415D7A26805B884200D39E
:1054200081E0834F13F058FAB84203D113F088FAA1
:10543000B84278D148460019425D815B91426DD2F5
:105440000846382778434A4613199A6E101868336D
:105450001B6A002B06D0984700280AD049460A1933
:10546000915B926E012802D188B24743D01903F0B4
:1054700001F848460019815B491C8153425D88B29E
:105480009042DED34BE0484600198C21405800285A
:1054900005D049468919C978490803F013F84846E8
:1054A0000019806E00283ED0484600196C25415DE9
:1054B0007A26805B884236D25D4F13F00DFAB842EF
:1054C00003D113F03DFAB8422DD148460019425D90
:1054D000815B914222D20846382778434A46131905
:1054E0009A6E101868331B6A002B06D09847002864
:1054F0000AD049460A19915B926E012802D188B2FE
:105500004743D01902F0B6FF48460019815B491C99
:105510008153425D88B29042DED300E0084690425B
:1055200001D113F077FA484600196C21415C7A22C8
:10553000805A884201D313F0D3FA13F0D1FA00282D
:1055400001D102F0D1FC012005B0F0BD4A46364839
:1055500014186C25605D0490A06E03909219D379A5
:10556000967951791079D278274668373F6A009248
:1055700001970002401882B23002C01883B203982B
:10558000049902F0EDFEA06E274C002845D0484655
:105590000019415D7A26805B88423ED2244F13F089
:1055A0009BF9B84203D113F0CBF9B84235D1484644
:1055B0000019425D815B91422AD208463827784320
:1055C0004A4613199A6E101868331B6A002B06D0CE
:1055D000984700280AD049460A19915B926E012823
:1055E00002D188B24743D01902F044FF484600195F
:1055F000815B491C8153425D88B29042DED308E052
:105600000846904201D113F005FA484640198CE74C
:105610000846904201D113F0FDF948460019415D5A
:1056200085E7102002F081FB88020000445010B092
:10563000115010B0D0B502AF90B06E46F31D3133AB
:10564000414A49468958012902D1414802F06DFB7F
:105650003E4A49468A189178012959D8D1780029BB
:1056600056D115793C4979440968A94250D1394A43
:10567000494689184A78FE21114002294CD1B3606D
:10568000F060E81D072188436946081A7060854666
:10569000F41D0934204616F019F9A085000418D12C
:1056A000F01D093013F05EFAB168086049463160B8
:1056B00028480818183074682146FDF757F9234820
:1056C00031680818401D21462A4602F034FB0028A4
:1056D0001ED1746813F030FAF11D0931884203D1EC
:1056E000B068006813F03EFA2046294615F096FD92
:1056F000F01D0930808D0028F4680FD1208810211A
:10570000FDF7D4FA00280BD06720000202F00DFB51
:105710000F48001D02F009FBD120000202F005FB3A
:1057200049460A480818228880180A4A8918891C9C
:10573000102215F063FD20881030208002F042F91D
:105740000920000302F0F1FA60000000C00600002A
:1057500001B1000020060000827B0100D0B502AF3D
:1057600090B06E46F31D31333D4A49468A18917810
:10577000012959D8D178002956D115793B49794466
:105780000968A94250D1384A494689184A78FE2109
:10579000114002294BD1B360F060E81D0721884316
:1057A0006946081A70608546F41D0934204616F0D3
:1057B0008DF8A085000418D1F01D093013F0D2F93E
:1057C000B168086049463160274808181830746885
:1057D0002146FDF7CBF8224831680818401D2146C4
:1057E0002A4602F0A8FA00281ED1746813F0A4F922
:1057F000F11D0931884203D1B068006813F0B2F995
:105800002046294615F00AFDF01D0930808D00283C
:105810000FD1F46820881021FDF748FA00280AD03B
:105820006720000202F081FA0E4802F07EFAD120D1
:10583000000202F07AFA49460948081822888018BE
:10584000094A8918891C102215F0D8FC20881030CC
:10585000208012F067F90920000302F066FAC046C2
:10586000C006000005B10000500800006A7A01007F
:10587000D0B502AF82B06E46044626484946085865
:10588000012802D1264802F050FA234D484640191B
:105890008078012824D8484640190179C078084307
:1058A0001ED11E484946095CFE220A40022A1BD12D
:1058B0001C49794409687160C91D072291436A46F1
:1058C000511A4A46101818308D463160FDF74EF8CF
:1058D00020887168FDF7EAF9002809D0672004E004
:1058E0000F48001D02F021FAD120000202F01DFA3B
:1058F000484640192188401822CE2A46083E15F015
:105900007DFC20884019208002F05CF8092000030B
:1059100002F00BFA60000000C00600002006000044
:1059200001B1000036790100D0B502AF82B06E46F9
:105930000446224D484640198078012824D848461C
:1059400040190179C07808431ED11D484946095CB9
:10595000FE220A40022A1AD11B4979440968716063
:10596000C91D072291436A46511A4A461018183039
:105970008D463160FCF7FAFF20887168FDF796F9D3
:10598000002808D0672003E00E4802F0CEF9D120AD
:10599000000202F0CAF9484640192188401822CE78
:1059A0002A46083E15F02AFC20884019208012F073
:1059B000B9F80920000302F0B8F9C046C00600009B
:1059C0005008000005B100008E780100F0B503AF6B
:1059D0008BB06E463061C54B4846C0188278B261C4
:1059E000012A00D97FE10479C74A7A4415682A461A
:1059F00043327462A24200D975E1C478BC4A484679
:105A000080580128F16104D0002805D1022C03D36D
:105A100069E1002C00D066E174614846C018401965
:105A2000441D21212046FDF76CF900280ED12121CB
:105A3000F21D21322046FEF7BEFD002800D152E1C2
:105A4000F01D21300078002800D04CE14846A749DD
:105A5000401828182630212100242246FEF7ABFDED
:105A6000002800D13FE14846A0494018423540197E
:105A70004079022805D3801E012800D933E109208E
:105A800000E0012034629C4A4946895C002900D12B
:105A90001FE1494689180C4618341CCC496A194341
:105AA00014430C4300D014E14946934C09198A6809
:105AB000C96811434019002900D10EE1716A88427A
:105AC00000D910E106D18D4849460818412115F04A
:105AD000A5FB92E08D49794409680C18611C726A33
