:02000004C0DE5C
:1000000070B58CB062B6002808D02D494A46531806
:1000100001686422184615F0A3FD04E0284849460B
:10002000081804F03FFB274E12F016FF48468019CF
:100030004F218A000024214607F0F3FB07F0D6FB8E
:100040006D46284616F0F4F8A88580B2102805D130
:10005000684684850A9813F039FBE5E7002809D043
:10006000684684850A9813F031FB02F0FBFD2046B8
:100070000CB070BD684613F029FB0A9007F056FEDD
:10008000052000242146224613F04EFA0E494A4626
:1000900051184862204614F0D3FB0125284614F07D
:1000A000CFFB204607F06EF92046214600F0E8FF1E
:1000B00006497944284600F0E3FF06F02BFFC046CE
:1000C0006000000088020000B40700009664010090
:1000D000F0B593B012930F46044600787F2101409B
:1000E000052900D1CCE215460E91208B00F0D8FAFC
:1000F00000280F95119765D04279867900200A90E3
:10010000002F67D0002D65D00992208BE188129ACC
:100110000092EBB2643189B23A4600F0E7FAE18826
:100120000022052D0D9208960C905AD3884258D97A
:10013000208B129900916421914A7A44032300F0A4
:10014000D5FA0A9068083E18E188002810904AD035
:100150000C9A8A4247D92F1A45D000200B90208B49
:10016000129D009589B2109AD3B2119A00F0BEFA8E
:100170000C90E188208B0095FBB2324600F0B6FA75
:100180000A990C9A51180D18E1888D420C952AD9BC
:100190000B9F012F06D0002F05D11098401E0F9BFA
:1001A000119A03E0761C0F9B119A1098002810906A
:1001B00019D08D4217D90120B843921BD7180B9044
:1001C000CDD110E0002110910C910A460E46084650
:1001D0000A9103E00A9910910C9108460B910E9B2D
:1001E00033E0164610950A9603239D03208B0540A5
:1001F0000122D703BD420CD09703BD420D9D0B9544
:100200000F9D119F089E0CD10C9E891B089E0B917F
:1002100007E00C9D6D084908491B0B910F9D119F2C
:10022000089E190308405103884205D011038842F3
:1002300008D12089801B06E07008C0432189490845
:10024000081800E00D980E9B099A032B07DC0D900F
:10025000012B5FD0022B0BD0032B5BD010E2042BC1
:1002600053D0062B00D196E10D90072B00D007E26A
:10027000207B01282CD10992072B314600D0002188
:1002800004200790205E0891421A0227E15F60690E
:10029000072B099B00D0238900930B9D2B4613F05D
:1002A000A3F90C982818E15F4118E288131A0798FF
:1002B000205E089A821A60690E9D072D01D025895B
:1002C0000995099D009513F08FF90F9D119F0E9BC5
:1002D000002F00D1D4E1002D00D1D1E108960220F9
:1002E000205E0C9004200790215E206909906269CD
:1002F000208BE68825890397109F0497129F059706
:10030000072B00D15FE10D9B5EE10D90E07A0028A4
:1003100000D1B7E1E3885A0821894808824216468D
:1003200000D30646E57AAE4203D88242154600D392
:100330000546207B012825D104201090225E02274B
:10034000E65F20690091A9196E009B1B13F04CF920
:10035000E15F1098225E2089831B20690093AA1810
:100360002B4613F041F9E15F1098225E2089831B30
:100370002069E6880093AA18491B89192B4665E075
:10038000EC63010004200C90225E0226A75F109609
:1003900060690091E9196F00DB1B13F025F9A15F7B
:1003A0000C9EA25F2089C31B0E9760690093AA1858
:1003B0002B4613F019F91098215EA25F2089C31B08
:1003C0006769E0880093AA18EB43C91809183846F2
:1003D0002B4613F009F9A05F0A903746109EA15FE3
:1003E0002269E388A07A009069180E981B1A1046BB
:1003F0000A9A13F0F9F8E05F0A90A15F206909906A
:100400002289E388A07A009069180E9FDB1B0A9866
:100410008018421E099813F0E7F8A05F0A900C9E1E
:10042000A25F2089C11BA37A20690091AA180A99AA
:1004300013F0DAF81098215EA25F2089C61BA37A18
:100440002069E7880096AA18C919491E13F0CCF84C
:10045000022D119869D3207B012802D0A07A281A96
:1004600000D20020109004200C90205E0A90022000
:10047000215E07460E9020696369C0220092109E9B
:100480000196029369180A9AAA182B4600F0D9FA25
:100490000C98205E0A90E05F0890206909906369DB
:1004A000E188A07A30220092019637461096029396
:1004B0002818089A5118091A0A982A1809982B46D8
:1004C00000F0BFFA0E98205E0A900C9EA05F089084
:1004D0002069099063692189A07A0C220092019712
:1004E00002932818089A51180A1A0A982918099884
:1004F0002B4600F0A6FAA05F0C900E98215E2069B2
:100500000E9063692689E788A07A03220092109AE8
:10051000019202932818C919091A0C9A101A821903
:100520000E982B4600F08DFA119800280F9800D1F4
:10053000A6E0002800D1A3E0237B10211420012B8A
:100540000A4600D00246012B00D00846A15810915F
:1005500020580E900220215E0420255E208BE68824
:100560002789A37A119C03940F9C0494129C0594F0
:100570000124E443002B00D05C430D9ABB1A1B19E5
:100580000B9FF61B341955190095019402937B18A3
:100590000E99109A72E00420205EE37AC2180220BD
:1005A000205E19182069267B0025012E03D0A67A2B
:1005B000B34200D99D1B6469FF2600960195029401
:1005C00000F03FFA5CE000231093ED1A0B9FF31B41
:1005D000019302950E9B072B01D00D9B01E0089B18
:1005E0005B420D935B1800930B9B0C995B18099968
:1005F00000F0CBF801460A98002841D0079FE35F3E
:1006000020690C9060690E90208B0990E5882689FE
:100610000891032121487844109AB61A0B9AAD1A12
:100620000D9AD31800AA68C203900491129D0595F3
:10063000089883B209980C990E9A00F0A6F80E90CB
:10064000E35F20690C9060690990228BE688248919
:100650000F98119FC7190A983F1A1099641A0B999D
:10066000761A0D99CB180093019602940390049783
:1006700005950E9883B210460C99099A00F085F8FA
:1006800013B0F0BD0420225E0220215EE3882069C1
:100690002489009412F0A8FFF2E7C046105F010021
:1006A000F0B581B00E4D05400E48784401688800D1
:1006B0000D4A7A448018001F4E1C761E0CD0071F6E
:1006C0000468204608F02AF90068A8423846F4D1A8
:1006D000204608F023F900E0002001B0F0BDC0463C
:1006E000FF0F00000E730100FA720100F0B583B035
:1006F0001C4615460191FFF7D3FF0026002841D084
:10070000002C019A3ED00026029003892F789F4248
:1007100002D34189B94213D20A2F33D00D2F31D0E1
:10072000B809032803D33F20074039461EE078B2BA
:10073000002100281AD5B806009109D50F2008E03D
:10074000F91A8F00C06808F0E9F8019AC15D0DE060
:100750000E20FFF7A5FF0028019A009906D0C06877
:1007600008F0DCF8019AF906490E415C002A03D032
:10077000B0B20818904205D86D1C641E7618200689
:100780000298C2D1B0B203B0F0BDF0B5A3B00A93E5
:100790000F91149110921392FFF782FF002800D15D
:1007A00044E12C9907910B90047900200990C043F3
:1007B0000890022C5DD313AD281D3C210D9015F03F
:1007C000C9F910981390089AA240D0431290800063
:1007D0000F9929500E92901C0C900026F7000F984C
:1007E000F840C5B21098F840C4B2A542284600D3DC
:1007F0002046A542294600D82146081A401C1299D5
:1008000014F0E6FFA542119617D90221C9430E9AAA
:100810008A422AD801210D9A0C9B05464D432D1979
:10082000FF2D00D3FF25BD4016682E4340C25D1C3E
:10083000491C9D422B46F0D217E00221C9430E9A73
:100840008A4212D801210D9A0C9B129C641A4443CF
:100850006419FF2C00D3FF24BC401668264340C215
:100860005C1C491C9C422346EFD2119E761C032E31
:10087000B4D1289C079D002D00D1D9E02A98299950
:100880002B9F02190A9809180D9103460B99099894
:100890002E4601251195AE1B3D780D2807D10A2D56
:1008A00005D1761C7F1C0A20012EF5D1C1E00E93E4
:1008B0000F94134608894A791292854204D30B9902
:1008C0004989A9420B990FD20D2D01D00A2D27D1AC
:1008D00012980F9A121814461018984200DDADE0D5
:1008E0001A4628460A9B67E00C93281A099085004F
:1008F000086908F013F804460B98C06808F00EF871
:1009000040194088201806900B98C06808F006F837
:100910000E9B455D0B98C07907900F9C224613E013
:10092000C02D0C9305D33F212940002009950D4689
:1009300005E068B2002845D40020099505460790D7
:1009400006900F9C22460E9B58190D99884207D994
:100950001298241820180C9988426ADC0A9B2246B7
:100960000698002819D00F920246129868430B99F6
:100970000979484304900392029113A801901198B9
:100980008840009018460F992A4611951D46129BE3
:1009900012F008FE2B46119D08E012980090109866
:1009A00019460E932B4612F01FFE0E9B0B990C9AC4
:1009B00007982818C3180998089D75437F1C002EB6
:1009C00037D065E7A80601D50F2000E00E200F9C68
:1009D000FFF766FE002823D00F90006907F09EFF06
:1009E00012900F98C06807F099FFE906490E099127
:1009F000401840881299081806900F98C06807F0B0
:100A00008DFF0999435C0B98807922180F988179A2
:100A1000521A407912900020079009951D4692E7DE
:100A2000002009950546079006908BE7002003E01B
:100A30000A9B98B22104081823B0F0BD0E9880B22A
:100A4000F8E7F0B59DB01B921A9106462398411E17
:100A500002468A4118921393191A1291002901DC57
:100A6000002100E00121139A002A00D5C0E1189A64
:100A70000A401892249910912299139FC21B039245
:100A800080220A400A9240220A400D9220220A4007
:100A9000099210220A400C9208220A40089204226D
:100AA0000A400B920123129A9C1A069402240C40CD
:100AB000079419400E911C93DC1B1A994018C01B17
:100AC0000590401C04900025E943501E0F90169598
:100AD0001196481C17900E9800281995159114949A
:100AE00006D10798002855D0189800281FD147E054
:100AF0001898002838D01C9C00940F983B1A1B981B
:100B00004018451C10981A9E31462A4612F06CFD7A
:100B10000094149CB819119E0699411830462A4633
:100B2000199D129B12F060FD0798002832D01B9887
:100B30003D181398B8420AD01C9800900398159954
:100B40004018831C10981A992A4612F04DFD1C98E3
:100B50000090059815994018811C30462A46129B32
:100B600012F042FD199D15E01C9800901B98421848
:100B700030461A993B4612F037FD0798002809D0F5
:100B80001C9800901B983818421E30461A99179BE3
:100B900012F02AFD0B98002806D1089800285AD098
:100BA000189800281FD133E01A98C51B1898002800
:100BB00020D01C9C00940F9EBB1B1B9815994018BD
:100BC000421C02921098294612F00EFD0094149CCB
:100BD000A91B1198029A119E129B12F005FD08980C
:100BE0000028199D37D01398B8421BD11B983E1886
:100BF0001C9827E01C9800901B98159942183046C5
:100C000029463B4612F0F0FC08980028199D22D096
:100C10001C9800901A9841191B983818421E3046AB
:100C2000179B16E01C9C00941A9841191B983E18BB
:100C30000398159A8018831C1098324612F0D4FC41
:100C40002046149C0090049841191198324606469B
:100C5000129B12F0C9FC0C98002806D109980028B4
:100C600053D0189800281ED146E01B9845191898B3
:100C7000002835D01C9C00940F983B1A10981A9E9F
:100C800031462A4612F0B0FC0094149CB819119E0B
:100C90000699411830462A46129B12F0A5FC099885
:100CA0000028199D31D01B98C51B1398B84215997F
:100CB0000AD01C98009003984018831C10981A9929
:100CC0002A4612F091FC15991C980090059840183E
:100CD000811C30462A46129B12F086FC199D14E0B6
:100CE0001C98009030461A992A463B4612F07CFC2C
:100CF00009980028199D08D01C9800901B98C21BC9
:100D000030461A99179B12F06FFC0D98002806D1F7
:100D10000A98002856D0189800281ED131E01B9858
:100D200045191A98C61B189800281DD01C9C0094C1
:100D30000F983B1A109831462A4612F055FC009441
:100D4000149C0F98311A119E30462A46129B12F0BD
:100D50004BFC0A980028199D34D01398B84219D139
:100D60001B98C21B1C9826E01C98009011983146D5
:100D700006462A463B4612F037FC0A980028199D81
:100D800020D01C9800901A9841191B98C21B30461D
:100D9000179B15E01C9800901A9841191B98C41BCA
:100DA0000398159A8018831C1098224612F01CFC98
:100DB00022461C98149C0090049841193046129BBE
:100DC00012F012FC791E012C384600DB0846169AF8
:100DD000521C012C169201DB169A521A510061180E
:100DE0004C1C6D1E179981421397074600DA70E676
:100DF0001DB0F0BDF0B589B08E68022E20D80C462B
:100E00000421415E08910221405E05902068069011
:100E100060680790E06807F081FD0546A7682069D3
:100E200007F07CFD0ECC0124B4404B43534300A992
:100E3000B0C103900493089905AB0DCB12F0B2FB3F
:100E400009B0F0BD70B584B000200390029002ADEF
:100E500008242846214612F051FBA8780299414007
:100E600003984840A97941402970E8786A7842405F
:100E700068795040EA7942406A70D0B20090064DDD
:100E80004E467019401CCBB21721044A7A4407F031
:100E900055FB745504B070BD000000001E570100E2
:100EA000F0B58FB007AD28461830072114F052FE78
:100EB0000620687011202870A81C2449794410224B
:100EC00014F04EFE0024EC751820A8756C750C20EB
:100ED00028751220E8740520A8741A484946081895
:100EE000C588868818480F18384615F0EBF9009722
:100EF000C3B230462946224601F064FA0125002893
:100F00001CD1114E182007A901F02CFB002815D187
:100F100048468519284615F0D5F9C0B200940190CD
:100F2000029503940494059406943021602220468F
:100F3000234601F019F80546401E854128460FB0AA
:100F4000F0BDC0461800000000000000006B01006A
:100F5000F0B589B0444F4846C0190021818414215E
:100F6000017301F0E1FA002872D1FFF76BFF002056
:100F700006213F4A7A4401F085FA002868D101F041
:100F80004FF9002864D14846C01901460831821D36
:100F900000920191031D012000241822214601F036
:100FA000AFF8002854D10125284601F02BF800287D
:100FB0004ED104942D4803900295102601960820E6
:100FC00008900090284629462A462B4601F03CF816
:100FD00000283DD14846C0190E3000900220254916
:100FE0007944012509232A4601F038F900282FD138
:100FF0004846C119C88910310A2200961646019444
:10100000029403920495059102211B4A7A44992384
:10101000079101F073F900281AD14846C119C8890F
:101020001231089A00920192079A0292039604954F
:101030000591124D7D44992311462A4601F05EF92F
:10104000002805D10120072101F04AFA002802D02A
:10105000012009B0F0BD4846C019C462FFF720FF67
:10106000411E8841F5E7C0461800000040E201003B
:10107000786A0100DC690100C0690100A86901000B
:10108000F0B581B004461E484F463818482114F088
:1010900061FD1C48242139541B49791800264E60F3
:1010A0003D18686800906E60284612F011FA1748E3
:1010B00044213954009969603818002C01D1214627
:1010C00000E00321C170012181704670042112F0FB
:1010D000A5FA0B497C500E4D002C0AD07819406AB5
:1010E000002806D10020014605F0DCFDFFF730FFA7
:1010F00001E04846465048464019C68301B0F0BD5D
:1011000018000000F001000088020000C400000088
:10111000B4070000B0B50848494624220A54074ADB
:101120008A18002353600C1865686360204612F02B
:10113000CFF96560B0BDC046F00100008802000034
:1011400010B504464068083000F004F8411E88419C
:10115000207010BDF0B583B004464078E51C012630
:101160003E2809D0FF2832D00528304600D0C3E001
:10117000FFF7D0FF00F0DEF8E078012800D0BAE0F9
:1011800068484F4602963E1814203073A878E978D4
:101190000902081870817D21890000910C21182214
:1011A0000024234601F006FA5F482421395434769E
:1011B0005F497918CC835D4979184C603D186E6899
:1011C0006C60284612F084F96E60029894E02878EA
:1011D0006978090208180321890288420CDC4C490D
:1011E000884219DC4D4988421DD04D49884200D0C3
:1011F00081E000F08BFA7EE0424988422ED04249DD
:10120000884243D04149884275D14648494608182A
:101210002979C91E01736EE03E4988426ED1686823
:1012200000F0D4FA67E0E079401E012806D83D4876
:10123000494608184089052100F0A8FF3A48494668
:1012400024220A54394A8A18002353600C1865680E
:101250006360204612F03CF965604CE028796979BA
:10126000090209182F4A48468018008A801C8842C3
:1012700041D1607B01283ED1A07B002830463BD184
:101280004846821801201076918235E028796979E4
:1012900009020918234F4846C019408A401C884259
:1012A00029D14846C01900228263007E002808D058
:1012B000607A21460A3100F073F8287969790902C9
:1012C0000918A878EA78637A0A3400930194120224
:1012D00010180022134601F0A5F800280CD148464A
:1012E000C019826B002A06D04846C119088A3C31D1
:1012F000D2B200F02FF8304603B0F0BD0649884264
:1013000033E7C046010C0000130C0000030C000082
:1013100004040000090400000504000001040000AA
:101320000204000018000000F00100008802000024
:10133000B407000005484946081800220276044B0D
:10134000C918CA834281102006F08FFA18000000E5
:10135000B4070000F0B581B014460D4606460E49AC
:10136000484640187D210901C18348460B49401871
:10137000C0890095002731463A46234601F022F8FD
:101380004328F2D04528F0D06428EED048460249E0
:101390004018C78301B0F0BDB4070000180000007A
:1013A000F0B581B00246784D484643190020986355
:1013B000002A2AD04B465B1925241B5D002B3AD10D
:1013C0000B78012B39DD022B4ED0082B5FD0052B7B
:1013D0001CD14B465B1924241B5D002B2BD1032A07
:1013E000034613D34B465B199C8B230A4E789E42CF
:1013F00003460BD1E3B28E789E42034606D1002C01
:1014000074D0042A76D2072300E06723494649199D
:101410003C220E248C5405228A633C3148804B7058
:101420000871484641190022CA628A84574BC01885
:1014300008624A838A8301B0F0BD002B40D0012BA3
:10144000E4D10523032AE1D34C78002CDED18C783B
:10145000002CDBD148464019092A00D309228263B7
:101460003C3014F081FBDCE70423032ACED34C7814
:10147000002CCBD18C78002CC8D148464019092AC1
:1014800000D3092282633C3014F06EFBD3E70623BD
:10149000052ABBD34A78002AB8D189780029B5D16A
:1014A000484640190021C1633C21082242540621CC
:1014B000816301463C3101220A71007B4871BAE721
:1014C0000323052AA2D34A78002A9FD189780029CC
:1014D0009CD14846401944210022425402644021D4
:1014E00004234354C263092181639AE7052A0CD27D
:1014F00008238BE7D21E48464019468B93B2B3426D
:1015000000D81646006AC91C1DE04B465C191F4EE8
:101510009B190E79CF7823623B029E196683B7B27E
:10152000E7620123052A00D170E74124A400A74205
:1015300000D96BE7501F82B2BA4200D8064648462F
:10154000124A8018491D124A4F46BA187D231B01C2
:10155000D383B4B2224614F007FB7819016A091943
:101560000162418B891B4183828B521C8283080458
:1015700000D060E74846064941180022CA83401956
:10158000C06A488057E7C04618000000B006000057
:10159000B4070000F0B503AF89B06E464E4B4A4623
:1015A000D418227BD21D07239A436B469D1AAD4661
:1015B0002422A35C002B01D0012088E030624C463D
:1015C000134645482218012073613061D054306AB7
:1015D00010620020908351830246404820184280C8
:1015E000002962D00B46681D3060E81C7060F56011
:1015F000AA7005212970100A68704846364C0019F7
:10160000047B98B2F2611204336212D04A46324926
:101610005218E41E844200DB0446116AB161A5B28F
:1016200070682A4614F0A0FAB069401925460323D1
:1016300014E0B1612B711A0AEA704A462649521821
:10164000651F854200DB0546146AAAB2B2603068A5
:10165000214614F089FAB0682018B36949461E4A39
:101660008918252432690A55F269521C8A83326A24
:10167000521B4A8308627069085C002821D04846E2
:10168000154934624418208A5919CAB2F5682946A6
:10169000FFF760FE0020316A6054638B002B04D09A
:1016A00048460D494018828BA2E7494600200B4D61
:1016B0004855094A8A187369D0549083491948805B
:1016C00005E0484604494018002101550220FC1F4E
:1016D000053CA546F0BDC04618000000B407000058
:1016E00080B582B06A46074B1846114601DF0648AE
:1016F0000099814202D1019802B080BD042006F019
:10170000B4F8C046EC890060D4890090F0B581B08F
:1017100000251349164A7A44284603F005F8034683
:1017200010484E4630180621016343630E4FF419EA
:10173000E16025722046103010210E4A7A4406F0EE
:10174000FDFE2320F05518206060084830180A4933
:1017500079444160204611F0BBFE01B0F0BDC046A7
:1017600040420F0018000000F00100008802000055
:10177000C7FFFFFFE84B01002900000070B50446D9
:101780000E48494624220A540D4A8A180023536001
:101790000D186E686B60284611F09AFE6E6009485D
:1017A000844207D1084849460818416B408900F037
:1017B00081FC70BD0120FFF763FC70BDF0010000EB
:1017C00088020000115010B01800000070B50346E8
:1017D0000F484D4628180621016343630D4EAC198E
:1017E000E160012020722046103010210B4A7A441B
:1017F00006F0A4FE2320A85518206060064828188B
:10180000074979444160204611F062FE70BDC04630
:1018100018000000F001000088020000364B0100B3
:101820001F00000070B504460E48494624220A54A1
:101830000D4A8A18002353600D186E686B602846A5
:1018400011F046FE6E600948844207D108484946B7
:1018500008184089012100F0BFFC70BD0120FFF78E
:101860000FFC70BDF001000088020000115010B0A4
:101870001800000070B50446052114F02FF80D463D
:10188000022905DC012D0BD0022D07D104260AE028
:10189000032D07D0042D01D1012604E0002602E02B
:1018A000062600E00326E000052113F091FF002D3D
:1018B00000D0401C801970BDF0B585B00E46039075
:1018C000052704921046394614F008F8FF4301201A
:1018D000022907DC012912D002290BD10290BF1C7A
:1018E000042012E003290DD0042903D102907F1DAA
:1018F00001200AE0002701200190029706E00290F3
:10190000062002E00290FF1C032001900498FFF7DC
:10191000B1FF38183BD0002422462346D5086F1C5F
:1019200004998F42214600D2F15D775D07251D4065
:10193000032D05DC012D0ADC002D11D1FF0819E073
:10194000052D08DC042D0ED1C9093D0710E0022D3C
:101950000CD1B90608E0062D16D14909BD0707E0EC
:1019600089097D0704E07906CF0E03E00909FD0728
:10197000ED0E4F190B497944C95D039DE954521D81
:101980005B1C9842CAD102E01F210F40F2E7029986
:10199000002905D0039908183D22019914F0E8F8B0
:1019A00005B0F0BD7D600100F0B583B00F4605467F
:1019B0003D213A4614F0EEF80646EC190022D043D9
:1019C0000290002E08D0A64206D0304601783D296C
:1019D00038D1401C8442F9D10192002E00D0771BEF
:1019E00005214F43FF08384613F078FF022905DC34
:1019F000012909D002290BD104200AE0032905D0CE
:101A0000042905D1012004E0062002E0032000E0C3
:101A10000198002E00D0A61BB04213D1002F14D085
:101A20000B4E7E443C46287801F05BF901462022AB
:101A3000304614F0AFF8002804D06D1C641EF2D1BB
:101A4000384600E0029803B0F0BD0020FBE7C04636
:101A5000D15F0100F0B58BB01746054609910846E5
:101A60001146FFF7A1FF002800D195E000244B4963
:101A700079440A91214603942246019708920590E1
:101A800006953D4605271046394613F0A1FE064649
:101A90007E432046394613F09BFE07460998C05DF9
:101AA00001F01FF9014620220A9814F073F80790FC
:101AB000781CA842039B19460DD20999085C01F0D5
:101AC00010F90146202204940A9C204614F062F882
:101AD000039B011B049C0491089A961BB91CA94204
:101AE0002F460FD20998405C174601F0FAF80146DC
:101AF000202225460A9C204614F04CF83A46019FC5
:101B0000031B2C460A980799091A012E10DD022E94
:101B100022D0032E25D0042E069D0598029E32D198
:101B200013461F22049E16401A46490176182AE0E1
:101B3000002E21D0012E069D0598029E23D18907F3
:101B4000090E1646049AD206920E5118DA06D20FE2
:101B5000891832460E4616E008010499C906090F95
:101B60000EE0C907090E1046049AD206520E51180B
:101B70000246D806800F03E0C8000499C906490F41
:101B80000E18069D059802962E7008346D1C401E96
:101B9000521C002800D071E70BB0F0BD835F01003C
:101BA000F0B503AF8DB06E46154631620022002DB0
:101BB000144608D00024316A095D002903D1641C51
:101BC000A542F8D12C463060291B8A204843642165
:101BD000326313F0FDFD024608323B4911406A466C
:101BE000521A3061411C954672601046F16013F044
:101BF000C7FF326BB460A5422FD9306971680818ED
:101C000070610020B0610346B168F561306A7162AD
:101C1000405C0146B3621943B26918D0002273696F
:101C2000F362326319780D0205433A2428462146AF
:101C300013F0CEFDF36A326B4443291B1970C0B216
:101C40005B1E521C0028EBD1B16A8A42E8D3716A4C
:101C5000491CF569A9421346D8D1F068841A306945
:101C6000A04235680ED330697168091850420A18CD
:101C70005278002A03D1401CF9D3F46802E031699C
:101C80000818441C002D17D031222846B16813F0E3
:101C90006FFF306984420FD870680019B168691805
:101CA000F268121B094B7B4405785D5D0D70401C8A
:101CB000521E491C002AF7D1B068F1680818001BB1
:101CC000FC1F053CA546F0BDF8FFFF07725D010053
:101CD000F0B58BB001920D460290171F03AE202481
:101CE000084639463246234611F048F93046214627
:101CF0003246234611F042F90398E855E919020EDD
:101D0000CA70020C8A70000A487002982946019A2B
:101D1000FFF746FF0BB0F0BDF0B503AF8BB06E46DA
:101D200070600024002A254607D00025485D312830
:101D300003D16D1CAA42F9D11546B161511B3A4835
:101D400048437D21C900F26113F042FD024608328A
:101D5000364911406A46521A3061411C9546B260BC
:101D60001046316013F00CFFF560F069A8422DD9E0
:101D70003069B168081870610024E043B062F1680E
:101D80003462B0697162415C294878443A2504465E
:101D90002A4613F0FFFE002841D0001BC0B20146C6
:101DA000336A002419430CD071690A786A43101809
:101DB0000870B26A8918000A641C0028F5D19C4298
:101DC000F3D3716A491CF0698142D9D133681D1B74
:101DD0003069A8420ED33069B168091860420A1808
:101DE0005278002A03D1401CF9D31D4602E0316924
:101DF0000818451C591BF4680819B062706800285F
:101E00000DD07162214613F0BBFE3069854206D8C1
:101E100070680019B1684919726A13F0A1FEB06ABE
:101E2000FC1F053CA546F0BDDD020000F8FFFF00E9
:101E30008E5C010010B50A46014600242046FFF7DB
:101E40006BFF032800D8E04310BDF0B589B004460D
:101E5000FFF762FF051F01AE2027204629463246C4
:101E60003B4611F08BF83046394632463B4611F07E
:101E700085F801980090615D621953781B0259182A
:101E80009378D2781202D21812045118091A4842D3
:101E9000484109B0F0BDD4D4F0B5FFB086B004AC71
:101EA0000FC40120010244AE304611F0A9F834AF4E
:101EB00040243846214613F063FEFF20023078802C
:101EC0008B988A9D002D039000D1284678708198C8
:101ED000387010362349794430463A46234605F097
:101EE000A9FC002D2ED008AC204614F0A1F9A08545
:101EF000000417D108A811F0E9FB129014AC204699
:101F00002946039E324613F02BFEA0198025A91BFB
:101F100013F036FE00210091019144A822462B4681
:101F200011F010F811F0BCFB08A9884202D11298F8
:101F300011F0CCFB14A8802113F022FE08A8808D9C
:101F400000280CD1049800900598019044A8012124
:101F5000069A079B10F0F6FF7FB006B0F0BD05F0C3
:101F600084FCC0467E5B0100F0B5CBB0150A04AC22
:101F70002571E2700A0AA2706170519DE571509955
:101F8000A1716371207003A9029100200190087073
:101F900027460837529938462A4606F0AFFC539E2A
:101FA0007E557819471C54993846324606F0A6FCEF
:101FB0005598B855B919569A130ACB708A70000A09
:101FC000487045A800901822019F394606F09CFCF5
:101FD00001204A9002984990A8190D30C0B248904B
:101FE0004794074845900098394604F08BFE002836
:101FF00001D4039800E0F843C0B24BB0F0BDC04636
:102000003F008300F0B5C9B002AE307001AF0024CC
:102010003C7043AD18222846214606F075FC01208D
:102020004890479746904596064843902846214653
:1020300004F068FE002801D4019800E0E043C0B23B
:1020400049B0F0BD3F008500F0B5C9B0519C250EE8
:1020500002AEB572250C7572250A3572F471529C68
:10206000F472509CB4714F9C74714E9C3471F37037
:10207000B2707170307001AF00243C7043AD182213
:102080002846214606F040FC0120489047970C2046
:1020900046904596064843902846214604F032FE75
:1020A000002801D4019800E0E043C0B249B0F0BD7F
:1020B0003F008600F0B5C9B00A0C02AEB280718054
:1020C000308001AF00243C7043AD182228462146E1
:1020D00006F01AFC01204890479706204690459646
:1020E000064843902846214604F00CFE002801D4FF
:1020F000019800E0E043C0B249B0F0BD3F00880065
:10210000F0B5CDB0009301920291044604A803906B
:102110000026072731463A4606F0F6FB06AD019841
:10212000A870029868702C7047AC1822204631467F
:1021300006F0EAFB4C97039F4B9703204A90499582
:10214000114847902046314604F0DCFD002818D4A1
:1021500004A80078002815D1781C5399529A037866
:1021600044782402E318009C23808378C4782402F6
:10217000E318138002794079000280180880304605
:1021800000E0FF204DB0F0BD3F008A00F0B5C9B0BF
:1021900002AEB170308001AF00243C7043AD182214
:1021A0002846214606F0B0FB0120489047970320BF
:1021B000469045960F204490064843902846214675
:1021C00004F0A0FD002801D4019800E0E043C0B273
:1021D00049B0F0BD3F009300F0B5C9B002AEB17098
:1021E000308001AF00243C7043AD182228462146C0
:1021F00006F08AFB012048904797032046904596B9
:10220000064843902846214604F07CFD002801D46E
:10221000019800E0E043C0B249B0F0BD3F00A50026
:1022200070B588B001AE0024347002AD1822284683
:10223000214606F069FB01200790069606480290A9
:102240002846214604F05EFD002801D4019800E0F4
:10225000E043C0B208B070BD3F000101F0B5CBB0A3
:10226000019302920F46064603A80021032422464A
:1022700006F04AFB04A80670B11E4A424A410225F4
:10228000012E294600D01101012E02D0022E2DD19F
:102290001025401C461839462A4606F02FFB0198A7
:1022A00070700298307045AF0026182238463146CB
:1022B00006F02AFB4A9403A84990E81C489004A819
:1022C00047900D4845903846314604F01BFD0028E4
:1022D0000ED403A8007800280BD1509803A94A789F
:1022E0008978090289180180304602E0472000E021
:1022F000FF204BB0F0BDC0463F000201F0B5CFB0AB
:102300001D4606920F46064607A8002103242246D2
:1023100006F0FAFA08A887700680B91E4A424A41B8
:102320000226012F314600D01101012F02D0022FC9
:1023300040D11026C01C4718589901910594579C0C
:1023400056990291559903915499049106993246F0
:1023500006F0D4FA280A78703D700198B8717C7143
:10236000029838710398F8700498B87049AF002546
:1023700018223846294606F0C7FA05984E9007A855
:102380004D900A364C9608A84B900D484990384617
:10239000294604F0B7FC00280ED407A800780028CE
:1023A0000BD1599807A94A788978090289180180C0
:1023B000284602E0472000E0FF204FB0F0BDC046B5
:1023C0003F000401F0B5C9B01D4602AF7B713A7100
:1023D0007980388001A8009000240470B81D4E99BF
:1023E0001A4606F08BFA43AE18223046214606F014
:1023F0008BFA0120489000984790A81DC0B24690E3
:102400004597074843903046214604F07BFC00285E
:1024100001D4019800E0E043C0B249B0F0BDC0462D
:102420003F000601F0B5C9B002AF4E9DBD717B7192
:102430003A717980388001A8009000240470F81D5A
:102440004F992A4606F05AFA43AE182230462146E2
:1024500006F05AFA0120489000984790E81DC0B253
:1024600046904597064843903046214604F04AFC82
:10247000002801D4019800E0E043C0B249B0F0BDAB
:102480003F002601F0B5C9B00D4602AF7970387033
:1024900001A8009000240470B81C11462A4606F0DA
:1024A0002DFA43AE18223046214606F02DFA0120BF
:1024B000489000984790A81CC0B24690459707489E
:1024C00043903046214604F01DFC002801D40198B9
:1024D00000E0E043C0B249B0F0BDC0463F000C0090
:1024E000F0B5C9B002AE7170307001AF00243C701D
:1024F00043AD18222846214606F006FA01204890EE
:102500004797022046904596064843902846214624
:1025100004F0F8FB002801D4019800E0E043C0B2C9
:1025200049B0F0BD3F000F0070B588B001AE002487
:10253000347002AD18222846214606F0E5F9012044
:1025400007900696064802902846214604F0DAFBDA
:10255000002801D4019800E0E043C0B208B070BD8B
:1025600003000300F0B5C9B002AE307001AF002423
:102570003C70701C1F2206F0C1F943AD182228469A
:10258000214606F0C1F90120489047972020469047
:102590004596074843902846214604F0B3FB00289F
:1025A00001D4019800E0E043C0B249B0F0BDC0469C
:1025B00008000900F0B5C9B002AE4E9C3481F3802A
:1025C000B2807180308001AF00243C7043AD18228E
:1025D0002846214606F098F90120489047970A209E
:1025E000469045960F204490064843902846214641
:1025F00004F088FB002801D4019800E0E043C0B259
:1026000049B0F0BD3F008101F0B595B00393064697
:102610008020002333503648F0603648B06036489A
:10262000706036483060086830614868706188685A
:10263000B061C868F0610869306248697062886991
:10264000B062C869F06204933363106870635068C5
:10265000B063F3671A980290B067304680304360E9
:102660009068F06305AC01943046214600F048F8CC
:102670003046403001462246B8CAB8C14322B35C56
:102680000F210B40B35435464335049A6A732A79B7
:102690000A402A712A7A0A402A722A7B0A402A733F
:1026A0006978FC2211406970697911406971697A11
:1026B000114069721124214600F037FB374651372B
:1026C000019910311022384613F04AFA0498A8777D
:1026D0003846214600F029FB30466230214613F08F
:1026E0004FFA30460399029A00F086F815B0F0BD13
:1026F0007465206B322D62796E6420336578706169
:10270000F0B593B00C4601906CC86CC46CC86CC436
:102710006CC86CC46CC86CC408463C300590084654
:102720002C30049008461C30039008460C30119061
:102730000846383010900846283002900846183075
:102740000F90084608300E90084634300D90084629
:1027500024300C90084614300B90081D0A9008464F
:1027600030300990084620300890129110310791BE
:102770000020029E039C049F059D0690129807ABC3
:102780000ECB00F01DF90AAB0FCB00F019F90E9833
:102790000F993246109B00F013F9119821463A46E2
:1027A0002B4600F00DF912980B9932462B4600F09B
:1027B00007F90A980F993A46099B00F001F90E981B
:1027C0002146089A0D9B00F0FBF8119807990C9A86
:1027D000109B00F0F5F80699481C0929CDD300207C
:1027E000019B129C1958225851182150001D402855
:1027F000F8D113B0F0BDD4D4F0B58BB01646024674
:1028000040320292623003903009401C039D102E2A
:10281000344600D31024002C23D006AF0490384651
:1028200005910599224613F09BF938191021091BCF
:1028300013F0A6F90120387411243846214600F01F
:1028400074FA284629463A46234610F0AFFD009414
:10285000074B7B4428462946029A10F0D7FD04987E
:1028600005991031103E401ED1D10BB0F0BDC046CD
:102870004A520100F0B593B01746029105468020F8
:1028800028582E46803671680022C01851410092A7
:1028900010465041012825D01C46286B401C286357
:1028A00003A92846FFF72CFF0194002C0BD003A8A6
:1028B0000299019A3B7804785C400C707F1C401CA4
:1028C000491C521EF6D128460299019C2246FFF768
:1028D00093FF30680019306070680099484170605B
:1028E00013B0F0BD014804F0C0FFC04605B10000C0
:1028F000F0B593B002920F460546802028582E4628
:10290000803671680022C018514100921046504133
:10291000012825D01C46286B401C286303A92846A3
:10292000FFF7EEFE0194002C0BD003A80299019A48
:102930000B7804785C403C70491C401C7F1C521E84
:10294000F6D128460299019C2246FFF755FF3068D0
:1029500000193060706800994841706013B0F0BD94
:10296000014804F082FFC04605B10000F0B587B011
:1029700001910546806FE96F0391029080202858ED
:102980000490284680304068059002A91026284609
:102990003246FFF731FF2F46623751351124384652
:1029A00039462A46234610F001FD3846214600F0FC
:1029B000BCF901983946324613F0D2F807B0F0BDA1
:1029C000B0B50C6805682C1904601D6865401024BA
:1029D000E5411D601468641914600D686540142495
:1029E000E5410D60046864190460186860401824AB
:1029F000E04118601368181810600A6842401920F6
:102A0000C2410A60B0BDD4D4F0B587B006AD002491
:102A10002C7005950120029005A8019000947D4836
:102A2000784440219F23224604F044FF002800D12F
:102A3000E5E02878012800D0E1E012F0A1FD05468C
:102A400012F02AFE342068436E4F4946CE193246B2
:102A50006832714B7B4413506B4B0325CD541518D2
:102A60006E48784404222A712C6203956862CD185E
:102A70006C60284610F02CFD6860022010F03CFECF
:102A80006860B06E00283FD04846C0196C24015DD4
:102A90007A25405B884237D210F0D2FC5B498842ED
:102AA00004D110F001FD594988422DD14846C01982
:102AB000025D415B914222D20846382670434A4665
:102AC000D3199A6E101868331B6A002B06D09847EA
:102AD00000280AD04946CA19515B926E012802D1DA
:102AE00088B24643901901F03DFE4846C019415B4B
:102AF000491C4153025D88B29042DED300E0084693
:102B0000904201D110F03AFD0398243003904B20FD
:102B1000800004904846C019806E00283FD0484687
:102B2000C0196C26815D7A25405B884237D210F04F
:102B300087FC3649884204D110F0B6FC33498842FC
:102B40002DD14846C019825D415B914222D2084690
:102B5000382460434A46D3199A6E101868331B6AAA
:102B6000002B06D0984700280AD04946CA19515B65
:102B7000926E012802D188B24443101901F0F2FD8F
:102B80004846C019415B491C4153825D88B290425E
:102B9000DED300E00846904201D110F0EFFC4C4635
:102BA0001B4820180022049910F062FDE41905F07A
:102BB0004FF86C20205C7A21615A8142AAD304F03C
:102BC00033FF039C4846124940180022049910F034
:102BD0004FFD05F03DF810F037FD002802D02068C9
:102BE0000028EFD112F0ECFC05F0D8F805F0E0F881
:102BF0004846074940180022049910F039FD07B0F3
:102C0000F0BDC04688020000F0010000115010B075
:102C1000C4000000DC6601005C500100BB01000044
:102C20000E490840884215D10B49484640580028B3
:102C300010D0012800D801204A4651188C31084A8A
:102C40007A440B68934203D03431401EF9D101E03D
:102C50000020086000207047880200000300008008
:102C6000DDFFFFFF10B58CB010F0F6F86C46204683
:102C700013F0DEFAA085000407D1684610F026FDA7
:102C80000A900020C04310F065FC10F009FD694671
:102C9000884202D10A9810F019FD6846808D0028FC
:102CA00001D10CB010BD04F0E0FDD4D410B5024643
:102CB00007485040012300248842184600D320468C
:102CC00051188908402900D82346184310BDC04632
:102CD000FFFF000020385F2801D30020704701204B
:102CE000704701466139C9B21A2900D22038C0B2F2
:102CF000704701464139C9B21A2900D22030C0B20A
:102D0000704710B500290ED00278002A09D101239E
:102D10001A46994203D0845C531C002CF8D08A4296
:102D200001D2002010BD012010BD10B54A080FD0FF
:102D30000918491E0B7804785C4004700B786340D6
:102D40000B7004785C400470491E401C521EF1D187
:102D500010BDD4D4B0B5002A0ED0084B7B440C78FB
:102D600024091C5D04700C780F2525405C5D4470BF
:102D7000801C491C521EF2D1B0BDC046364E010027
:102D8000F0B581B00C46064600252F460A22304693
:102D900021462B4612F0A8FD7F1C0922921B2A46D1
:102DA000A24106460C46F1D3384601B0F0BDF0B55D
:102DB0008BB016461099002900901ED0354604931A
:102DC00003910A220292002428460499234612F015
:102DD0008BFD06460F46029A0294234612F0A4FD8C
:102DE000281A049A8A4102430AD10399491E080607
:102DF000354604973B46E3D107E00020029004E00B
:102E00002B46039802902E46049B1820029F0390A5
:102E100019463C460A270025304604933A462B467D
:102E200012F062FD029001913A462746039C2B4620
:102E300012F07AFD321A30210A43601E05AB1A5493
:102E40003A0613D07F1E3A06019B11D1A01E05AA97
:102E50002E24145400270922921B3A46049CA241B6
:102E600006D30398C01E05AA115401E02F46019B0A
:102E70000921891B04998D41029EC8D33906C6D108
:102E800005A909181822121A009812F069FE0BB051
:102E9000F0BDD4D4D0B502AF94B06E46F41D413429
:102EA0000246494B4846C0188178012968D8017903
:102EB000481E3F2864D84846C018C07800285FD113
:102EC000424B4846C0184078401E02285BD2F2614F
:102ED0000A460720C543B161C81D28406946081A43
:102EE000B0608546F260104601F082F87061C01D46
:102EF00028406946081A30618546F51D193528466F
:102F000013F096F9A88500041CD1F01D193010F0BB
:102F1000DDFB206049462D480818306018302A4AE9
:102F200089184A1DB168F5682B46FFF7E1FC82B0AD
:102F3000102000903068831C3069B1682A4601F087
:102F40005BF802B010F0ACFBF11D1931884202D1E0
:102F5000206810F0BBFBB068F16812F011FEF01DA4
:102F60001930808D002810D17569F46920882946B0
:102F7000FFF79CFE00280AD06720000204F075FCD1
:102F8000134804F072FCD120000204F06EFC4946A4
:102F90000D48716008182188401831692A4612F0DE
:102FA000DFFDB069402801D3022000E00320F26970
:102FB000064973697468611848701088C0181080D9
:102FC0000920000304F051FCB006000010060000C8
:102FD00005B10000D0B502AF94B06E46F41D413487
:102FE0000246494B4846C0188178012968D80179C2
:102FF000481E3F2864D84846C018C07800285FD1D2
:10300000424B4846C0184078401E02285BD2F2610D
:103010000A460720C543B161C81D28406946081A01
:10302000B0608546F260104600F0E2FF7061C01D9E
:1030300028406946081A30618546F51D193528462D
:1030400013F0F6F8A88500041CD1F01D193010F01B
:103050003DFB206049462D480818306018302A4A48
:1030600089184A1DB168F5682B46FFF741FC82B00C
:10307000102000903068831C3069B1682A4600F047
:10308000BBFF02B010F00CFBF11D1931884202D1D8
:10309000206810F01BFBB068F16812F071FDF01DA4
:1030A0001930808D002810D17569F469208829466F
:1030B000FFF7FCFD00280AD06720000204F0D5FBD2
:1030C000134804F0D2FBD120000204F0CEFB4946A5
:1030D0000D48716008182188401831692A4612F09D
:1030E0003FFDB069402801D3022000E00320F269CF
:1030F000064973697468611848701088C018108098
:103100000920000304F0B1FBB006000040080000F5
:1031100005B10000D0B502AF84B06E460246284C1F
:10312000484600198178012929D80579681E3F2869
:1031300025D848460019C078002820D121494846A2
:10314000405C401E02281DD2E81D072188436946C5
:103150000B1A49461B48081818300919F2604A1D15
:103160009D46B36019462B46FFF784FBF068008844
:103170002946FFF79BFD002808D0672003E012488E
:1031800004F073FBD120000204F06FFB484670602E
:103190000019F1680C4609884018B1682A4612F0F7
:1031A000DFFC402D01D3022000E0032005497268B6
:1031B00050542088401920800920000304F055FB5A
:1031C000B00600001006000005B10000D0B502AF47
:1031D00084B06E460246284C484600198178012981
:1031E00029D80579681E3F2825D848460019C07897
:1031F000002820D121494846405C401E02281DD2AB
:10320000E81D0721884369460B1A49461B480818E0
:1032100018300919F2604A1D9D46B36019462B46C5
:10322000FFF728FBF06800882946FFF73FFD0028DC
:1032300008D0672003E0124804F017FBD1200002F9
:1032400004F013FB484670600019F1680C460988C9
:103250004018B1682A4612F083FC402D01D30220A9
:1032600000E00320054972685054208840192080EE
:103270000920000304F0F9FAB0060000400800003D
:1032800005B10000214C484600198078012836D845
:10329000484600190179202931D1C07800282ED163
:1032A00048460019401D202100F0C6FD002826D008
:1032B00018484946095C002924D0494609180D469A
:1032C00018352CCD496A194315430D431AD1494687
:1032D00009188A68CB68134314D04978002911D1A2
:1032E00049460D18284628300919491D002200F0CA
:1032F00033FD012068700920000304F0B6FA044889
:1033000004F0B3FAD120000204F0AFFAB0060000D6
:1033100005B10000E0080000D0B502AF9CB06E46D9
:10332000F41D393402463D4D484640198078012845
:103330005CD8484640190179C078084356D13849CD
:103340004846405C002854D0726148464018034605
:1033500018330ECB406A10430B43034349D1324824
:10336000784400683061C01D072188436946081A07
:10337000F0608546F01D1130706012F059FF7168E1
:103380008885000414D1F01D113010F09FF92060E1
:10339000484623494118283121202022F31D41337A
:1033A000B360B3680FF0DEFEF068B16800F0F0F9CA
:1033B00010F076F9F11D1131884202D1206810F029
:1033C00085F9F01D4130282112F0DAFBF01D113093
:1033D000808D00280FD1746920883169FFF766FC61
:1033E00000280AD06720000204F03FFA0D4804F0DC
:1033F0003CFAD120000204F038FA484640192188EE
:103400004018F16835692A4612F0AAFB2088401955
:1034100020800920000304F028FAC046B00600000E
:10342000E008000005B10000584801009CB04B4D79
:1034300048464019817801292ED8C07800282BD120
:10344000484640190079484979440E6831460931A7
:10345000814221D148464019447944487844006863
:10346000A04219D3002807D049464919891D0A6886
:1034700012BA04C1401EFAD14846401981190527E5
:10348000C859491D496802460A4305D04A4652199F
:10349000B218527B022A02D3314804F0E6F90792AF
:1034A000304B4A46D25C002A06D04A46D3181A6AE4
:1034B0005B6A04921A4303D1D120000204F0D5F9CB
:1034C000049A101A8B41E7D308A8039012F0B0FEBB
:1034D0000399888500041FD108A810F0F7F812900E
:1034E000484641198B19DA5905921E4A80180690F0
:1034F0004268581D4368881D009001940798029007
:1035000014AC20461146059A00F03EFA0698283081
:103510000022214600F020FC10F0C2F808A98842E1
:1035200002D1129810F0D2F814A8202112F028FB32
:1035300008A8808D0028C1D14846411989194A1D23
:10354000C959084BC018036A591A0162416A526886
:10355000914141620920000304F087F9B0060000A0
:1035600005B10000E0080000804701006847010045
:103570009CB04B4D48464019817801292ED8C0781F
:1035800000282BD1484640190079484979440E68F3
:1035900031460931814221D1484640194479444895
:1035A00078440068A04219D3002807D04946491939
:1035B000891D0A6812BA04C1401EFAD14846401952
:1035C00081190527C859491D496802460A4305D093
:1035D0004A465219B218527B022A02D3314804F0EB
:1035E00044F90792304B4A46D25C002A06D04A463C
:1035F000D3189A69DB6904921A4303D1D1200002DF
:1036000004F033F9049A101A8B41E7D308A8039009
:1036100012F00EFE0399888500041FD108A810F04F
:1036200055F81290484641198B19DA5905921E4AED
:10363000801806904268581D4368881D00900194C8
:103640000798029014AC20461146059A00F09CF9A8
:10365000069828300122214600F07EFB10F020F869
:1036600008A9884202D1129810F030F814A820213D
:1036700012F086FA08A8808D0028C1D14846411969
:1036800089194A1DC959084BC0188369591A8161A3
:10369000C16952689141C1610920000304F0E5F855
:1036A000B006000005B10000E00800003C46010043
:1036B00024460100F0B503AF95B06E46F31D3133DB
:1036C000F36031607060002A56D42F487844F11DB1
:1036D000393118C818C138C838C10120C0070243A1
:1036E00027494B46591849680143F068C160026197
:1036F0006846B0606D46403DAD46F41D0934204635
:1037000012F096FDA08500041DD1F01D09300FF0C8
:10371000DDFFF168086084B00C201C4979440095F5
:10372000326801920291039000202124F21D393267
:10373000052321460FF098FE04B02022204629469A
:1037400073680FF00FFD0FF0ABFFF11D09318842D8
:1037500003D1F06800680FF0B9FF4021284612F04D
:103760000FFAF01D0930808D002806D1B06885461B
:10377000FC1F053CA546F0BD024804F076F8C046A3
:103780006000000005B100003C450100004501005B
:1037900070B594B00A460546212001AC01262146A9
:1037A00033460FF0F5FC02980019C0793040801CB8
:1037B0002870681C09342022214612F0D1F914B077
:1037C00070BDD4D4F0B503AFB9B06E46F41D61340A
:1037D000F4631C46B1637063BD68F868002803D1C8
:1037E000706BB16BFFF766FF002D00D1BEE0F01DDE
:1037F000693008303063F01D91300930F062706B31
:103800000830B062756234626846F0616C462046EA
:103810002838B06185466846403870618546F51D98
:103820003935284612F004FDA88500047AD1E51F39
:10383000F01D39300FF04AFFF16B0860306A046800
:10384000002C20D4746B2178316121202070F11D6F
:103850009131B1600123F36022460FF099FCF06BC7
:10386000406BB1684018C079F1680840801CB169AC
:103870000870481C2022F16A12F072F93069207039
:10388000306A046808E00020B1690870706B426813
:10389000481CB16A12F064F9EC70200AA870200C80
:1038A0006870200E287082B04020746900940190E6
:1038B00020252523B06B2946B2690FF0B7FB02B073
:1038C000706B0078F31D693321462A460FF04AFCDD
:1038D000F46BE2682A497944356B28460FF03AFDCB
:1038E000002847D5E06882B00090264B7B442846EC
:1038F0002946B26A0FF070FD02B0E16828460FF069
:103900003FFD002836D1716920312022B06B12F0C2
:1039100027F9F01D6930716B1CC81CC11CC81CC183
:103920003CC83CC10FF0BCFEF11D3931884203D1C7
:10393000F06B00680FF0CAFE2521B06912F020F983
:103940004021706912F01CF9F01D6930282112F035
:1039500017F9F01D3930808D0028316A0BD1F069DC
:103960000C1D716A4D1E854600D04BE7FC1F053CBF
:10397000A546F0BD014803F078FFC04601D1000024
:103980000E430100F8420100F0B503AFA9B06E4646
:10399000F41D6D343462F3603261B1607061684669
:1039A000B062FF250235284605F04AFAB061C01D15
:1039B000072188436946081A85467062294605F042
:1039C0004BFA0546F41D4534204612F031FCA08523
:1039D00000042C4626D0B5690FF062FEF11D45317A
:1039E000884203D1306A00680FF070FEF01D753018
:1039F000282112F0C5F8F01D2530202112F0C0F862
:103A0000204605F0F1FA706A294612F0B9F8F01D67
:103A10004530808D002845D1B06A8546FC1F053CA5
:103A2000A546F0BDF4613C69FD68B8687060F01DA2
:103A300045300FF04BFE316A086082B000200095DF
:103A40000190F01D7530F11D2531B2687368FFF7E4
:103A5000B9FE02B0012C0BD0002CF469BBD1306A46
:103A6000C268F11D75310831706912F079F8B2E75A
:103A7000F068316986B00D4A7A440D4B7B440D4C99
:103A80007C4400910190029403930492F21D7532DC
:103A90000832F4692046716908F090F806B00028F1
:103AA00099D1014803F0E1FE01D10000314201004B
:103AB000ED410100A9410100F0B503AFA5B06E468C
:103AC000F11D85313162B360F2607061FF2502350E
:103AD000284605F0B5F9B061C01D07218843694645
:103AE000081A8546F061294605F0B6F90546F41D29
:103AF0005D34204612F09CFBA0850004B0692C4682
:103B000026D13461B468F568B8687060F01D5D3026
:103B10000FF0DCFD316A086084B01D4878441D490F
:103B2000794400950194346902910390F11D1D318F
:103B30002046726807F098F804B0002823D0F21DE0
:103B40001D322046716907F034F800281BD0B06997
:103B500005460FF0A5FDF11D5D31884203D1306AA5
:103B600000680FF0B3FD204605F03EFAF0692946E3
:103B700012F006F8F01D5D30808D002804D1FC1F86
:103B8000053CA546F0BD014803F06FFE01D10000E1
:103B90004D41010009410100F0B503AFA5B06E46EB
:103BA000F31D5D337361F2600C4630616846B061AD
:103BB000F51D3535284612F03BFBA88500042DD1B4
:103BC000F01D35300FF082FD75692860F01D6530FD
:103BD0007060F11D15312246FFF76CFD6846B0603C
:103BE0006C46203CA546EB6882B000200090019016
:103BF00072680832202520462946FEF74DF902B0AA
:103C000082B02120F1680091019030692946224656
:103C10002B46FEF741F902B0B06885460FF040FD33
:103C2000F11D3531884203D1706900680FF04EFDF7
:103C3000F01D6530282111F0A3FFF01D1530202163
:103C400011F09EFFF01D3530808D002805D1B06940
:103C50008546FC1F053CA546F0BD03F006FED4D406
:103C6000F0B5B5B01E460C4605463492684607903E
:103C700020AF384612F0DCFAB885000443D1049630
:103C800020A80FF023FD2A90012000230093019328
:103C9000059002902CAF2C4A384606942146FFF737
:103CA00073FE4020019010AE0096294878440D2103
:103CB00020243A4623460FF0B9F9049831462246AB
:103CC0002B460FF04FFA69682E46083630460FF043
:103CD00057FB002834D16A681E49794430460FF0FA
:103CE00039FB00282CD510A8203008A90A46D8C8CE
:103CF000D8C2D8C8D8C205980090019034AB2846E5
:103D0000069AFFF75FFD0FF0CBFC20A9884202D195
:103D10002A980FF0DBFC2CA82024214611F030FF5C
:103D200010A8402111F02CFF08A8214611F028FF0F
:103D300020A8808D002804D10798854635B0F0BDB5
:103D4000024803F092FDC046C902000001D1000004
:103D50003D4001000A3F0100F0B503AF95B06E464B
:103D6000F31D15337361F2607160B0610124204668
:103D700005F066F80546C01D072188436946081A04
:103D800085463061B460214605F066F83060F41D68
:103D90001D34204612F04CFAA085000434681AD174
:103DA000F01D1D300FF092FC71690863706830627D
:103DB0000223F0680028184600D1B068B169726922
:103DC000116082B00090F21D1532204606F0AAFF65
:103DD00002B0002829D00FF063FCF11D1D3188428C
:103DE00003D17069006B0FF071FC204605F0FCF800
:103DF0003069294611F0C4FEF01D1D30808D002869
:103E000014D12021B4692046FEF77BFF002805D19C
:103E10002021204600F010F8002803D0FC1F053CAC
:103E2000A546F0BD024803F020FD024803F01DFD49
:103E300005B1000001D10000F0B503AF85B06E46BA
:103E4000202922D10125B060284604F0F9FFF06056
:103E5000C21D07218A43694631616946881A70602C
:103E60008546294604F0F8FF0446B16805F0FAFDDE
:103E70000546204605F0B8F87068F16811F080FE3C
:103E8000681E85413069854600E000252846FC1FF4
:103E9000053CA546F0BDD4D4F0B503AFCFB06E4617
:103EA000514CA41974627361B261F16130624B4C80
:103EB000204604F0C5FF0546C01D0721884369461A
:103EC000081A8546B062214604F0C6FFB060474C30
:103ED000A419204612F0ACF9A0850004B46858D1AA
:103EE0003561BD68414880190FF0F0FB716A0860C8
:103EF000F01D253020210FF00FF8F560002D0FD0B8
:103F0000F11DC53121232046F26805F075F800281F
:103F10005ED0F01DC5304021FEF7F3FE002857D1DA
:103F2000FA68F11D85312123204605F065F8002847
:103F30004ED0F01D85304021FEF7E3FE002847D12A
:103F4000254686B0F01D25300590F01D8530049083
:103F5000F01DC530F1680029F269B36900D1084647
:103F60000021746900940191029003900833F11DBF
:103F700045312C4628460AF071FA06B000282AD0AE
:103F8000F21D45322046316A05F034FC002822D06B
:103F900035690FF085FB15498919884203D1706A8C
:103FA00000680FF093FBF01D2530202111F0E8FD93
:103FB000204605F019F8B06A294611F0E1FD0B48DA
:103FC0008019808D002807D1FC1F053CA546F0BD57
:103FD000034803F04AFC034803F047FC01020000D9
:103FE00005B1000001D10000340100000C01000007
:103FF00010300F2188437047F0B503AF9DB06E4677
:10400000F41D4134F4613361B0611546B26010357E
:104010000F2085436846441BA546204611F0A0FDAD
:104020007461B16860182C46691ACAB211F0A0FD1B
:10403000F51D1935284612F0FBF8A885000419D1A2
:10404000B868F060F01D19300FF040FBF1690860AE
:10405000F51D49353069F1682A460FF021F882B024
:10406000B0690090019445212846726923460FF0FB
:104070002DF802B00FF014FBF11D1931884203D165
:10408000F06900680FF022FBF01D4930242111F087
:1040900077FDF01D1930808D002803D1FC1F053CF1
:1040A000A546F0BD03F0E1FB70B59CB00D4604469B
:1040B0006E46304612F0BCF8B085000422D1684646
:1040C0000FF004FB0A906968284608300CAD4026C2
:1040D0002A4633460EF068FF2878F82101402970FF
:1040E000E87F7F210140E977E87F3043E8772026A9
:1040F00028463146FEF719FE6120294632462346FE
:104100000FF030F80FF0CCFA6946884202D10A98D5
:104110000FF0DCFA0CA8402111F032FD6846808DCA
:10412000002801D11CB070BD03F09FFB10B51446F0
:104130000B4A4B469A58012A0AD0002A0CD1342C3B
:1041400001D0382C08D1FEF71BFE2018423010BDDC
:10415000202C01D1492010BD024803F086FBC04647
:104160006000000005B10000F0B587B01F460446AE
:10417000059304923048494608580E9D0D990C9BB2
:1041800001280FD0002851D11646382D039132D086
:10419000342D38D102930F9B00203422039903F071
:1041A0001DFA2DE01F4608460E46294600F048F845
:1041B00000283DD004A80821FEF7B7FD059820711E
:1041C00004992170020EE271020CA271000A607162
:1041D000080EE070080CA070080A607020460830D5
:1041E0002122394611F0BCFC2934204631462A46AA
:1041F00011F0B6FC1AE00020382202930FF066FBA3
:10420000029B002814D0212220461946FEF7A2FD69
:104210002046423003992A4611F0A2FC002000906B
:104220002819423032463B46FEF7C1FD07B0F0BDCB
:10423000024803F01AFBC0466000000005B1000010
:10424000F0B503AF91B06E46F41D3534202911D17D
:10425000F060F51D0D35284611F0EAFFA88585B2FE
:10426000002D09D0F01D0D300021818520680FF050
:104270002DFA29E0002029E03561F01D0D30B060F5
:104280000FF024FA2060684670606D46483DAD46E8
:1042900002202870681C2022F16811F061FC412086
:1042A000294602460EF0A0FF706885460FF0F8F927
:1042B000B168884202D120680FF008FAF01D0D3075
:1042C000808D0028356905D168426841FC1F053C96
:1042D000A546F0BD03F0C9FAF0B503AFA1B06E4634
:1042E0001D4672614C4A4B469B583C69FA68012B4B
:1042F0003061F26030D07460002B00D088E0382D3F
:1043000061D0342D00D083E0B160706849287169B4
:104310007ED2BB68F01D3130342203F05FF90028F3
:1043200076D0F41D113420253069B16822462B4621
:104330000EF024FE84B00095F06801907068029041
:10434000F01D31303649032223460EF0C9FF04B078
:10435000002857D1002456E0B160402C58D1706934
:104360002946FFF76DFF002852D0684670606C4602
:10437000483CA54602202070601C71692A4611F055
:10438000EFFB4125284621462A460EF02DFFF31D5E
:104390003133284621462A461D460EF0CDFE86B012
:1043A00040200024B168009101940294F1680391C7
:1043B000049001210522284633690EF04FFF06B014
:1043C00071688D461CE07068402821D10D46F01DB3
:1043D0003130382271690FF079FA002818D086B090
:1043E00040200024009501940294F1680391049008
:1043F000F01D31300121052233690EF02FFF06B088
:10440000002800D001242046FC1F053CA546F0BD35
:10441000024803F02AFAC0466000000005B100001F
:1044200001060000F0B503AFA3B06E46F11D79316F
:10443000316170600124204604F002FDB060C01DAF
:10444000072188436946081A8546F0607461214651
:1044500004F002FD0446F51D5135284611F0E8FE32
:10446000A8850004254610D1F01D51300FF02EF91B
:1044700031690860F11D11312846726806F034FB7D
:10448000411E8841F11D81310870B4680FF008F9B0
:10449000F11D5131884203D1306900680FF016F9DF
:1044A000284604F0A1FDF068214611F069FBF01DDB
:1044B0005130808D002808D1F01D8130007871695D
:1044C0000840FC1F053CA546F0BD03F0CEF9F0B551
:1044D00003AF97B06E460D46412901D0212D31D151
:1044E000B26101247060204604F0AAFC7061C01D16
:1044F00007218843694631616946081A8546F0609C
:104500002146B46904F0A8FCF11D1531B060726851
:104510002B4604F071FD411E05468D41002C07D04D
:10452000002805D0F01D15304021FEF7EAFB207071
:10453000B06804F059FDF068716911F021FB306931
:10454000854600E000252846FC1F053CA546F0BD39
:10455000F0B503AFA3B06E46F11D11317161F0608B
:104560000125284604F06CFCB060C01D072188437B
:104570006946081A85463061294604F06DFC0546F7
:10458000F41D5534204611F053FEA0850004B06898
:104590002C461FD1F01D55300FF098F87569E8666C
:1045A000F11D153121232046F26804F025FD002875
:1045B0002BD04120286082B002200090F21D1132E1
:1045C000F31D15332046F16804F014FE02B00028F4
:1045D0001ED0B06805460FF063F8F11D55318842D2
:1045E00003D17069C06E0FF071F8204604F0FCFC36
:1045F0003069294611F0C4FAF01D5530808D00282D
:1046000007D1FC1F053CA546F0BD044803F02DF979
:10461000014803F02AF9C04601D1000005B10000AD
:10462000F0B5A9B00D4604466E46304611F000FEC6
:10463000B08500041AD168460FF048F80A9018486F
:10464000784402681FAF4126384629463346FFF7B3
:1046500007FB0CAD0123304629463A460EF098FD83
:1046600008350D9A304629460EF0A8FD0FF018F8CF
:104670006946884202D10A980FF028F81FA828211D
:1046800011F07EFA6846808D002807D10CA9093107
:104690002022204611F064FA29B0F0BD03F0E5F8BD
:1046A000403F0100B0B5044609202072184800259B
:1046B000256060602046093016497944122211F0C5
:1046C0004FFAA57743206077572020774D20E0767A
:1046D0002046203010497944062211F041FA204644
:1046E00050300E4979442CC92CC00D4878440168DB
:1046F0004068A162E0622046303021462831E16501
:10470000206608497944202211F02AFAB0BDC0463B
:10471000510200003E3601007C1C0100F836010009
:10472000C8360100B8360100F0B581B0164604461F
:104730000D1A681E054205D1B047294611F0CEF882
:1047400008460CE00020C043294611F041F8074616
:104750004543B047A842FCD2394611F039F8001958
:1047600001B0F0BD80B503F025FC80BDB0B50546B5
:10477000072028400024012815D0022815D10C4814
:10478000002908D04A4610180EF048FF28060AD51E
:104790000EF0AEFB07E049460818412189000022CF
:1047A0000EF066FF04462046B0BD022003F05DF81F
:1047B000B0060000F0B585B0DE4E4846805D0C289E
:1047C00039DD0D2864D00E2800D188E0152800D0EE
:1047D000D3E0D948494608188079012806D14846CF
:1047E00080198079000701D400F027FDD34E4D4693
:1047F0000120A855AC190027676020460EF068FE1E
:10480000606002200EF078FF6060CD4C2919496885
:10481000002900D15AE3CB4A904200D1ACE30028F2
:1048200000D1A9E34D462A1957608847A819FB49CA
:10483000443141604EE3052879D00C2800D09CE03B
:10484000F3494F46012078547C18002565602046C6
:104850000EF03EFE606002200EF04EFF6060ED4CF8
:1048600039194968002900D139E2EB4A904201D157
:1048700000F06FFC002801D100F06BFC4E463219AD
:1048800055608847E2483018E4494431416031E2DC
:10489000DF4E4D460120A855AC1900276760204621
:1048A0000EF016FE606002200EF026FF6060D94C0C
:1048B00029194968002900D184E0D74A904201D1E2
:1048C00000F047FC002801D100F043FC4D462A19B6
:1048D00057608847A819D149443141607DE0CC49EF
:1048E0004E4601207054751800276F6028460EF060
:1048F000EFFD686002200EF0FFFE04466860C54DC3
:1049000070194168002900D1BCE0C348844200D13D
:104910001AE1002C00D117E14E467019476020467D
:104920008847BB483018BD4944314160AEE0B849C2
:104930004F46012078547C180025656020460EF013
:10494000C7FD606002200EF0D7FE6060B14C3919DF
:104950004968002900D165E1AF4A904200D1F8E3EF
:10496000002800D1F5E34E46321955608847A84823
:104970003018AA49443141605FE1A54E4D460120FF
:10498000A855AC190027676020460EF0A1FD6060B5
:1049900002200EF0B1FE60609E4C29194968002982
:1049A00000D1F9E19C4A904200D14CE2002800D1AC
:1049B00049E24D462A1957608847A819974944315A
:1049C0004160EDE19449884200D1C2E3002800D162
:1049D000BFE39349884200D020E3484625460419A6
:1049E00003F0DCF903F0E4F97A2004902752A06E7A
:1049F000002800D1ADE348468019406886498842C6
:104A000000D1A6E3002800D1A3E32C464846401974
:104A10006C26805D002800D19BE3804F0EF010FDD6
:104A2000B84204D10EF040FDB84200D091E34846B0
:104A30000019825D049D415B914200D3DFE208468C
:104A4000382778434A4613199A6E101868331B6A40
:104A5000002B06D0984700280AD049460A19515B16
:104A6000926E012802D188B24743D01903F0A2FA0E
:104A700048460019415B491C4153825D88B290420F
:104A8000DED3BDE26548443084425DD148464619D4
:104A900003F084F903F08CF97A2400203053B06ECF
:104AA000002800D155E348465949401840685A4902
:104AB000884200D14DE3002800D14AE3484640191E
:104AC0006C26805D002800D143E3544F0EF0B8FC03
:104AD000B84204D10EF0E8FCB84200D039E34846B1
:104AE0004019825D015B914200D388E20846382775
:104AF00078434A4653199A6E101868331B6A002B84
:104B000006D0984700280AD049464A19115B926E90
:104B1000012802D188B24743D01903F04BFA484626
:104B20004019015B491C0153825D88B29042DED37B
:104B300066E2C046C4000000B4070000F0010000B7
:104B400088020000445010B048464119942009588A
:104B5000002913D00A46643A00D23A464B465B1904
:104B60001A5064290AD890215958002906D04A467B
:104B700052199823D358135000208847264884425E
:104B800000D1E6E2002C00D1E3E248464019806EF5
:104B9000002800D145E3484640196C24015D7A267F
:104BA000805B884200D33CE31C4F0EF049FCB842C6
:104BB00004D10EF079FCB84200D032E348464019E7
:104BC000025D815B914200D326E308463827784393
:104BD0004A4653199A6E101868331B6A002B06D088
:104BE000984700280AD049464A19915B926E0128DD
:104BF00002D188B24743D01903F0DCF94846401986
:104C0000815B491C8153025D88B29042DED304E38C
:104C1000F001000088020000445010B0115010B0A4
:104C2000555010B0F949884200D192E2002800D1D5
:104C30008FE2F749884200D031E24846071903F075
:104C4000ADF803F0B5F87A26BD53B86E002800D150
:104C50007FE24846EF4940184068EC49884200D15D
:104C600077E2002800D174E2484600196C25405DC7
:104C7000002800D16DE2E84F0EF0E2FBB84204D10B
:104C80000EF012FCB84200D063E248460019425DC3
:104C9000815B914200D3B2E10846382778434A4607
:104CA00013199A6E101868331B6A002B06D09847A8
:104CB00000280AD049460A19915B926E012802D158
:104CC00088B24743D01903F075F948460019815B53
:104CD000491C8153425D88B29042DED390E1CB49BA
:104CE000884200D135E2002800D132E2C84988422A
:104CF00000D037E24846071903F050F803F058F89F
:104D00007A26BD53B86E002800D122E24846C14938
:104D100040184068BD49884200D11AE2002800D1FD
:104D200017E2484600196C25405D002800D110E2CA
:104D3000B94F0EF085FBB84204D10EF0B5FBB84276
:104D400000D006E248460019425D815B914200D3E3
:104D500055E10846382778434A4613199A6E1018C9
:104D600068331B6A002B06D0984700280AD04946B2
:104D70000A19915B926E012802D188B24743D0197B
:104D800003F018F948460019815B491C8153425DC4
:104D900088B29042DED333E19F494431884252D1F8
:104DA0004846051902F0FAFF03F002F87A20049051
:104DB0002F52A86E002800D1CBE1484680194068E8
:104DC0009249884200D1C4E1002800D1C1E148469F
:104DD00000196C26805D002800D1BAE18E4F0EF0DC
:104DE0002FFBB84204D10EF05FFBB84200D0B0E117
:104DF00048460019825D049D415B914200D3FEE06C
:104E00000846382778434A4613199A6E10186833B3
:104E10001B6A002B06D0984700280AD049460A1979
:104E2000515B926E012802D188B24743D01903F03A
:104E3000C1F848460019415B491C4153825D88B264
:104E40009042DED3DCE048460019806E002800D195
:104E500075E1484600196C25415D7A26805B8842E1
:104E600000D36CE1F84F0EF0EBFAB84204D10EF02B
:104E70001BFBB84200D062E148460019425D815BED
:104E8000914200D356E10846382778434A46131921
:104E90009A6E101868331B6A002B06D098470028BA
:104EA0000AD049460A19915B926E012802D188B254
:104EB0004743D01903F07EF848460019815B491C2E
:104EC0008153425D88B29042DED334E1DE49443101
:104ED000884251D14846051902F060FF02F068FF90
:104EE0007A2004902F52A86E002800D131E1484664
:104EF00080194068D349884200D12AE1002800D1B6
:104F000027E1484600196C26805D002800D120E189
:104F1000CD4F0EF095FAB84204D10EF0C5FAB84262
:104F200000D016E148460019825D049D415B914224
:104F300065D20846382778434A4613199A6E1018E6
:104F400068331B6A002B06D0984700280AD04946D0
:104F50000A19515B926E012802D188B24743D019D9
:104F600003F028F848460019415B491C4153825D13
:104F700088B29042DED343E048460019806E002894
:104F800000D1DCE0484600196C25415D7A26805B43
:104F9000884200D3D3E0AC4F0EF052FAB84204D1AD
:104FA0000EF082FAB84200D0C9E048460019425DCE
:104FB000815B914200D3BDE00846382778434A46DA
:104FC00013199A6E101868331B6A002B06D0984785
:104FD00000280AD049460A19915B926E012802D135
:104FE00088B24743D01902F0E5FF48460019815BBB
:104FF000491C8153425D88B29042DED39BE0084653
:10500000904200D0A5E00EF0B9FAA2E0445010B0F2
:10501000555010B0F0010000115010B04846001972
:10502000806E002800D18AE0484600196C25415D59
:105030007A26805B884200D381E0834F0EF000FA2D
:10504000B84203D10EF030FAB84278D14846001980
:10505000425D815B91426DD20846382778434A46CB
:1050600013199A6E101868331B6A002B06D09847E4
:1050700000280AD049460A19915B926E012802D194
:1050800088B24743D01902F095FF48460019815B6A
:10509000491C8153425D88B29042DED34BE04846C2
:1050A00000198C214058002805D049468919C97833
:1050B000490802F0A7FF48460019806E00283ED03C
:1050C000484600196C25415D7A26805B884236D2BD
:1050D0005D4F0EF0B5F9B84203D10EF0E5F9B842D4
:1050E0002DD148460019425D815B914222D208468B
:1050F000382778434A4613199A6E101868331B6A8A
:10510000002B06D0984700280AD049460A19915B1F
:10511000926E012802D188B24743D01902F04AFFAB
:1051200048460019815B491C8153425D88B2904218
:10513000DED300E00846904201D10EF01FFA484647
:1051400000196C21415C7A22805A884201D30EF00A
:105150007BFA0EF079FA002801D102F065FC0120FB
:1051600005B0F0BD4A46364814186C25605D0490C1
:10517000A06E03909219D379967951791079D278EB
:10518000274668373F6A009201970002401882B2B2
:105190003002C01883B20398049902F081FEA06E19
:1051A000274C002845D048460019415D7A26805B8F
:1051B00088423ED2244F0EF043F9B84203D10EF09C
:1051C00073F9B84235D148460019425D815B91427E
:1051D0002AD20846382778434A4613199A6E10187F
:1051E00068331B6A002B06D0984700280AD049462E
:1051F0000A19915B926E012802D188B24743D019F7
:1052000002F0D8FE48460019815B491C8153425D7B
:1052100088B29042DED308E00846904201D10EF0F9
:10522000ADF9484640198CE70846904201D10EF08E
:10523000A5F948460019415D85E7102002F015FBED
:1052400088020000445010B0115010B0D0B502AF29
:1052500090B06E46F31D31333D4A49468A18917825
:10526000012959D8D178002956D115793B4979447B
:105270000968A94250D1384A494689184A78FE211E
:10528000114002294BD1B360F060E81D072188432B
:105290006946081A70608546F41D0934204610F0EE
:1052A000C7FFA085000418D1F01D09300EF00EFADA
:1052B000B16808604946316027480818183074689A
:1052C0002146FDF753FB224831680818401D21464E
:1052D0002A4602F0D0FA00281ED174680EF0E0F9D8
:1052E000F11D0931884203D1B06800680EF0EEF973
:1052F0002046294610F044FCF01D0930808D00281E
:105300000FD1F46820881021FDF7D0FC00280AD0C6
:105310006720000202F0A9FA0E4802F0A6FAD12096
:10532000000202F0A2FA49460948081822888018AB
:10533000094A8918891C102210F012FC20881030AC
:10534000208002F0A7F80920000302F08EFAC04680
:10535000B006000005B10000100600002A28010078
:10536000D0B502AF90B06E46F31D31333D4A494689
:105370008A189178012959D8D178002956D1157900
:105380003B4979440968A94250D1384A49468918AD
:105390004A78FE21114002294BD1B360F060E81D2C
:1053A000072188436946081A70608546F41D093450
:1053B000204610F03DFFA085000418D1F01D0930F3
:1053C0000EF084F9B1680860494631602748081832
:1053D000183074682146FDF7C9FA22483168081868
:1053E000401D21462A4602F046FA00281ED1746864
:1053F0000EF056F9F11D0931884203D1B0680068FA
:105400000EF064F92046294610F0BAFBF01D093071
:10541000808D00280FD1F46820881021FDF746FC0C
:1054200000280AD06720000202F01FFA0E4802F09E
:105430001CFAD120000202F018FA4946094808185F
:1054400022888018094A8918891C102210F088FBCC
:105450002088103020800DF013F90920000302F09D
:1054600004FAC046B006000005B100004008000084
:1054700016270100D0B502AF82B06E460446224D19
:10548000484640198078012824D8484640190179B7
:10549000C07808431ED11D484946095CFE220A40D7
:1054A000022A1AD11B49794409687160C91D072273
:1054B00091436A46511A4A46101818308D46316099
:1054C000FDF754FA20887168FDF7F0FB002808D03A
:1054D000672003E00E4802F0C8F9D120000202F074
:1054E000C4F9484640192188401822CE2A46083E71
:1054F00010F036FB20884019208001F0CBFF0920F6
:10550000000302F0B2F9C046B00600001006000029
:1055100005B10000F2250100D0B502AF82B06E46A1
:105520000446224D484640198078012824D8484630
:1055300040190179C07808431ED11D484946095CCD
:10554000FE220A40022A1AD11B4979440968716077
:10555000C91D072291436A46511A4A46101818304D
:105560008D463160FDF702FA20887168FDF79EFBD9
:10557000002808D0672003E00E4802F076F9D12019
:10558000000202F072F9484640192188401822CEE4
:105590002A46083E10F0E4FA2088401920800DF0D9
:1055A0006FF80920000302F060F9C046B006000061
:1055B0004008000005B100004E250100F0B503AF22
:1055C0008BB06E46F060C94A484680188278726196
:1055D000012A00D986E10579CB4A7A441368CB4A7F
:1055E0007A44146862007362D2183262521CF56108
:1055F000AA4200D976E1C578BD4A484680580128BC
:10560000B16104D0002805D1022D03D36AE1002D39
:1056100000D067E135614846B4494018716A4018C6
:10562000451D28462146FDF76CFB00280ED1F21DD2
:10563000213228462146FEF74AFF002800D151E1D9
:10564000F01D21300078002800D04BE1706A20184E
:105650004946A64D49190818401D0022214672628C
:10566000FEF735FF002800D13CE148464019316A79
:1056700040184079022805D3801E012800D931E165
:10568000092000E001209C4D4946495D002900D1D8
:105690001EE1494649190C4618341CCC496A194385
:1056A00014430C4300D013E1494649198A68C9687C
:1056B0001143326A8018002900D10DE1F169884256
:1056C00000D90FE106D18D4849460818412110F054
:1056D00057FA91E08E49794409680C18611CF26907
:1056E000914200D9FEE04946804A89180818401DB9
:1056F0003062FEF797FE002800D1F3E049467C486F
:105700000858F269121B794BC9180919491D01285B
:10571000F261F16013D0002815D13069002800D162
:10572000CBE001280FD148464119684638388546F4
:1057300049683060726902F007F8342203E030698A
:10574000002800D1AEE048464419A068E16815463B
:10575000FEF7ECFC3061C21D07218A436946716087
:105760006946891A8D46B160A268E36884B0306AE0
:105770000090306801900295756903950846FEF720
:10578000F3FC04B0A36C84B00095F0680190F0695C
:1057900002904C34B06831692246FEF79DFD04B09A
:1057A000002800D19EE0484651494058012812D0B7
:1057B0000028514D1ED151484D462C1841212046FC
:1057C00010F0DEF94C4829184B4D8A6C4C312046BC
:1057D00010F0C6F90EE049484D462C1841212046EC
:1057E00010F0CEF94448291805468A6C4C31204601
:1057F000FDF7B0FA706885464846401940780028A1
:1058000066D03F484D462C182121F161204610F00A
:10581000B7F9F5603848281870618268C368344861
:1058200028183062007A82B000902046FDF7BFFA57
:1058300002B0204610F046FD20213161215420188D
:10584000716A4170356A1B352046294610F00AFD01
:105850002C48F1680C182046F16910F091F9706934
:1058600002694369306A007A82B000902046FDF7F1
:105870009EFA02B0204610F025FD3169215420180F
:10588000716A41702046294610F0ECFC062001F0B8
:1058900095FDB2691078102101431170FC1F053C81
:1058A000A546F0BD484641196846203885464968F6
:1058B0003060FEF7B5FE202245E7484641196846AC
:1058C00038388546496830600EF0C5F838223AE726
:1058D000D120000201F0C9FFF169884202D1F068CD
:1058E00000F018F8034801F0C0FFC046B006000001
:1058F0006000000005B10000E0080000AE050000F7
:105900006C0500008D050000263A0100D825010035
:10591000DE240100D0B502AFAEB06E46F11D81317C
:10592000B165B44979440A68B34979440B68326572
:105930009C18AE4A494689184A1D7365E118515CA6
:105940000129F065F464B2640BDC00294DD0012913
:1059500000D0C6E068460838854601230370024639
:10596000BFE002296AD0032900D0BAE06C46B461D6
:10597000183CA546032020709D484946F1620D1849
:105980002846103008217163FDF7CFF9286969694D
:10599000617160700A0EB5692B46103B1A700A0CD3
:1059A000E271090A2A46123A1170010E2A46143A87
:1059B0001170010CE170000A2946163908708B48F5
:1059C000F16A0818716D4900326D51180D18A81D43
:1059D000F060716BFDF7A9F9F0684168617306200A
:1059E000285860720A0EB56966E06C463461103C56
:1059F000A546002020707E4849460D1828461030E4
:105A00000821FDF792F928696969617160700A0ED1
:105A100035692B46083B1A700A0CE271090A2A46BE
:105A20000A3A1170010E2A460C3A1170010CE1700D
:105A3000000A29460E390870092351E06C4674614A
:105A4000183CA5460220207069484946B1620D18ED
:105A50002846103008213163FDF767F92869696924
:105A6000617160700A0E75692B46103B1A700A0C42
:105A7000E271090A2A46123A1170010E2A46143AB6
:105A80001170010CE170000A294616390870574858
:105A9000B16A0818716D4900326D51180D18A81DB2
:105AA000B060316BFDF741F9B06841686173062061
:105AB000285860720A0E75692B46083B1A700A0C4A
:105AC000E273090A2A460A3A1170010E2A460C3A74
:105AD0001170010CE172000A29460E390870112379
