:02000004C0DE5C
:1000000070B58CB062B6002808D02D494A46531806
:1000100001686422184618F06BFD04E02848494640
:10002000081804F073FC274E15F0C6FE48468019E8
:100030004F218A000024214607F041FC07F024FCF0
:100040006D46284619F0BCF8A88580B2102805D165
:10005000684684850A9816F0E9FAE5E7002809D091
:10006000684684850A9816F0E1FA02F0FBFD204606
:100070000CB070BD684616F0D9FA0A9007F0A4FEDD
:10008000052000242146224616F0FEF90E494A4674
:1000900051184862204617F083FB0125284617F0C7
:1000A0007FFB204607F0D6F92046214600F0E8FF06
:1000B00006497944284600F0E3FF06F0F3FFC04606
:1000C0006000000088020000B4070000AD96010047
:1000D000F0B593B012930F46044600787F2101409B
:1000E000052900D1CCE215460E91208B00F0D8FAFC
:1000F00000280F95119765D04279867900200A90E3
:10010000002F67D0002D65D00992208BE188129ACC
:100110000092EBB2643189B23A4600F0E7FAE18826
:100120000022052D0D9208960C905AD3884258D97A
:10013000208B129900916421914A7A44032300F0A4
:10014000D5FA0A9068083E18E188002810904AD035
:100150000C9A8A4247D92F1A45D000200B90208B49
:10016000129D009589B2109AD3B2119A00F0BEFA8E
:100170000C90E188208B0095FBB2324600F0B6FA75
:100180000A990C9A51180D18E1888D420C952AD9BC
:100190000B9F012F06D0002F05D11098401E0F9BFA
:1001A000119A03E0761C0F9B119A1098002810906A
:1001B00019D08D4217D90120B843921BD7180B9044
:1001C000CDD110E0002110910C910A460E46084650
:1001D0000A9103E00A9910910C9108460B910E9B2D
:1001E00033E0164610950A9603239D03208B0540A5
:1001F0000122D703BD420CD09703BD420D9D0B9544
:100200000F9D119F089E0CD10C9E891B089E0B917F
:1002100007E00C9D6D084908491B0B910F9D119F2C
:10022000089E190308405103884205D011038842F3
:1002300008D12089801B06E07008C0432189490845
:10024000081800E00D980E9B099A032B07DC0D900F
:10025000012B5FD0022B0BD0032B5BD010E2042BC1
:1002600053D0062B00D196E10D90072B00D007E26A
:10027000207B01282CD10992072B314600D0002188
:1002800004200790205E0891421A0227E15F60690E
:10029000072B099B00D0238900930B9D2B4616F05A
:1002A00053F90C982818E15F4118E288131A07984F
:1002B000205E089A821A60690E9D072D01D025895B
:1002C0000995099D009516F03FF90F9D119F0E9B12
:1002D000002F00D1D4E1002D00D1D1E108960220F9
:1002E000205E0C9004200790215E206909906269CD
:1002F000208BE68825890397109F0497129F059706
:10030000072B00D15FE10D9B5EE10D90E07A0028A4
:1003100000D1B7E1E3885A0821894808824216468D
:1003200000D30646E57AAE4203D88242154600D392
:100330000546207B012825D104201090225E02274B
:10034000E65F20690091A9196E009B1B16F0FCF86E
:10035000E15F1098225E2089831B20690093AA1810
:100360002B4616F0F1F8E15F1098225E2089831B7E
:100370002069E6880093AA18491B89192B4665E075
:100380000E96010004200C90225E0226A75F1096B4
:1003900060690091E9196F00DB1B16F0D5F8A15FC9
:1003A0000C9EA25F2089C31B0E9760690093AA1858
:1003B0002B4616F0C9F81098215EA25F2089C31B56
:1003C0006769E0880093AA18EB43C91809183846F2
:1003D0002B4616F0B9F8A05F0A903746109EA15F31
:1003E0002269E388A07A009069180E981B1A1046BB
:1003F0000A9A16F0A9F8E05F0A90A15F20690990B7
:100400002289E388A07A009069180E9FDB1B0A9866
:100410008018421E099816F097F8A05F0A900C9E6B
:10042000A25F2089C11BA37A20690091AA180A99AA
:1004300016F08AF81098215EA25F2089C61BA37A65
:100440002069E7880096AA18C919491E16F07CF899
:10045000022D119869D3207B012802D0A07A281A96
:1004600000D20020109004200C90205E0A90022000
:10047000215E07460E9020696369C0220092109E9B
:100480000196029369180A9AAA182B4600F0D9FA25
:100490000C98205E0A90E05F0890206909906369DB
:1004A000E188A07A30220092019637461096029396
:1004B0002818089A5118091A0A982A1809982B46D8
:1004C00000F0BFFA0E98205E0A900C9EA05F089084
:1004D0002069099063692189A07A0C220092019712
:1004E00002932818089A51180A1A0A982918099884
:1004F0002B4600F0A6FAA05F0C900E98215E2069B2
:100500000E9063692689E788A07A03220092109AE8
:10051000019202932818C919091A0C9A101A821903
:100520000E982B4600F08DFA119800280F9800D1F4
:10053000A6E0002800D1A3E0237B10211420012B8A
:100540000A4600D00246012B00D00846A15810915F
:1005500020580E900220215E0420255E208BE68824
:100560002789A37A119C03940F9C0494129C0594F0
:100570000124E443002B00D05C430D9ABB1A1B19E5
:100580000B9FF61B341955190095019402937B18A3
:100590000E99109A72E00420205EE37AC2180220BD
:1005A000205E19182069267B0025012E03D0A67A2B
:1005B000B34200D99D1B6469FF2600960195029401
:1005C00000F03FFA5CE000231093ED1A0B9FF31B41
:1005D000019302950E9B072B01D00D9B01E0089B18
:1005E0005B420D935B1800930B9B0C995B18099968
:1005F00000F0CBF801460A98002841D0079FE35F3E
:1006000020690C9060690E90208B0990E5882689FE
:100610000891032121487844109AB61A0B9AAD1A12
:100620000D9AD31800AA68C203900491129D0595F3
:10063000089883B209980C990E9A00F0A6F80E90CB
:10064000E35F20690C9060690990228BE688248919
:100650000F98119FC7190A983F1A1099641A0B999D
:10066000761A0D99CB180093019602940390049783
:1006700005950E9883B210460C99099A00F085F8FA
:1006800013B0F0BD0420225E0220215EE3882069C1
:100690002489009415F058FFF2E7C046329101001A
:1006A000F0B581B00E4D05400E48784401688800D1
:1006B0000D4A7A448018001F4E1C761E0CD0071F6E
:1006C0000468204608F078F90068A8423846F4D15A
:1006D000204608F071F900E0002001B0F0BDC046EE
:1006E000FF0F00002EA501001AA50100F0B583B090
:1006F0001C4615460191FFF7D3FF0026002841D084
:10070000002C019A3ED00026029003892F789F4248
:1007100002D34189B94213D20A2F33D00D2F31D0E1
:10072000B809032803D33F20074039461EE078B2BA
:10073000002100281AD5B806009109D50F2008E03D
:10074000F91A8F00C06808F037F9019AC15D0DE011
:100750000E20FFF7A5FF0028019A009906D0C06877
:1007600008F02AF9019AF906490E415C002A03D0E3
:10077000B0B20818904205D86D1C641E7618200689
:100780000298C2D1B0B203B0F0BDF0B5A3B00A93E5
:100790000F91149110921392FFF782FF002800D15D
:1007A00044E12C9907910B90047900200990C043F3
:1007B0000890022C5DD313AD281D3C210D9018F03C
:1007C00091F910981390089AA240D043129080009B
:1007D0000F9929500E92901C0C900026F7000F984C
:1007E000F840C5B21098F840C4B2A542284600D3DC
:1007F0002046A542294600D82146081A401C1299D5
:1008000017F096FFA542119617D90221C9430E9AF7
:100810008A422AD801210D9A0C9B05464D432D1979
:10082000FF2D00D3FF25BD4016682E4340C25D1C3E
:10083000491C9D422B46F0D217E00221C9430E9A73
:100840008A4212D801210D9A0C9B129C641A4443CF
:100850006419FF2C00D3FF24BC401668264340C215
:100860005C1C491C9C422346EFD2119E761C032E31
:10087000B4D1289C079D002D00D1D9E02A98299950
:100880002B9F02190A9809180D9103460B99099894
:100890002E4601251195AE1B3D780D2807D10A2D56
:1008A00005D1761C7F1C0A20012EF5D1C1E00E93E4
:1008B0000F94134608894A791292854204D30B9902
:1008C0004989A9420B990FD20D2D01D00A2D27D1AC
:1008D00012980F9A121814461018984200DDADE0D5
:1008E0001A4628460A9B67E00C93281A099085004F
:1008F000086908F061F804460B98C06808F05CF8D5
:1009000040194088201806900B98C06808F054F8E9
:100910000E9B455D0B98C07907900F9C224613E013
:10092000C02D0C9305D33F212940002009950D4689
:1009300005E068B2002845D40020099505460790D7
:1009400006900F9C22460E9B58190D99884207D994
:100950001298241820180C9988426ADC0A9B2246B7
:100960000698002819D00F920246129868430B99F6
:100970000979484304900392029113A801901198B9
:100980008840009018460F992A4611951D46129BE3
:1009900015F0B8FD2B46119D08E0129800901098B4
:1009A00019460E932B4615F0CFFD0E9B0B990C9A12
:1009B00007982818C3180998089D75437F1C002EB6
:1009C00037D065E7A80601D50F2000E00E200F9C68
:1009D000FFF766FE002823D00F90006907F0ECFFB8
:1009E00012900F98C06807F0E7FFE906490E0991D9
:1009F000401840881299081806900F98C06807F0B0
:100A0000DBFF0999435C0B98807922180F98817954
:100A1000521A407912900020079009951D4692E7DE
:100A2000002009950546079006908BE7002003E01B
:100A30000A9B98B22104081823B0F0BD0E9880B22A
:100A4000F8E7F0B59DB01B921A9106462398411E17
:100A500002468A4118921393191A1291002901DC57
:100A6000002100E00121139A002A00D5C0E1189A64
:100A70000A401892249910912299139FC21B039245
:100A800080220A400A9240220A400D9220220A4007
:100A9000099210220A400C9208220A40089204226D
:100AA0000A400B920123129A9C1A069402240C40CD
:100AB000079419400E911C93DC1B1A994018C01B17
:100AC0000590401C04900025E943501E0F90169598
:100AD0001196481C17900E9800281995159114949A
:100AE00006D10798002855D0189800281FD147E054
:100AF0001898002838D01C9C00940F983B1A1B981B
:100B00004018451C10981A9E31462A4615F01CFDC7
:100B10000094149CB819119E0699411830462A4633
:100B2000199D129B15F010FD0798002832D01B98D4
:100B30003D181398B8420AD01C9800900398159954
:100B40004018831C10981A992A4615F0FDFC1C9831
:100B50000090059815994018811C30462A46129B32
:100B600015F0F2FC199D15E01C9800901B98421896
:100B700030461A993B4615F0E7FC0798002809D043
:100B80001C9800901B983818421E30461A99179BE3
:100B900015F0DAFC0B98002806D1089800285AD0E6
:100BA000189800281FD133E01A98C51B1898002800
:100BB00020D01C9C00940F9EBB1B1B9815994018BD
:100BC000421C02921098294615F0BEFC0094149C19
:100BD000A91B1198029A119E129B15F0B5FC08985A
:100BE0000028199D37D01398B8421BD11B983E1886
:100BF0001C9827E01C9800901B98159942183046C5
:100C000029463B4615F0A0FC08980028199D22D0E3
:100C10001C9800901A9841191B983818421E3046AB
:100C2000179B16E01C9C00941A9841191B983E18BB
:100C30000398159A8018831C1098324615F084FC8E
:100C40002046149C0090049841191198324606469B
:100C5000129B15F079FC0C98002806D10998002801
:100C600053D0189800281ED146E01B9845191898B3
:100C7000002835D01C9C00940F983B1A10981A9E9F
:100C800031462A4615F060FC0094149CB819119E58
:100C90000699411830462A46129B15F055FC0998D2
:100CA0000028199D31D01B98C51B1398B84215997F
:100CB0000AD01C98009003984018831C10981A9929
:100CC0002A4615F041FC15991C980090059840188B
:100CD000811C30462A46129B15F036FC199D14E003
:100CE0001C98009030461A992A463B4615F02CFC79
:100CF00009980028199D08D01C9800901B98C21BC9
:100D000030461A99179B15F01FFC0D98002806D144
:100D10000A98002856D0189800281ED131E01B9858
:100D200045191A98C61B189800281DD01C9C0094C1
:100D30000F983B1A109831462A4615F005FC00948E
:100D4000149C0F98311A119E30462A46129B15F0BA
:100D5000FBFB0A980028199D34D01398B84219D18A
:100D60001B98C21B1C9826E01C98009011983146D5
:100D700006462A463B4615F0E7FB0A980028199DCF
:100D800020D01C9800901A9841191B98C21B30461D
:100D9000179B15E01C9800901A9841191B98C41BCA
:100DA0000398159A8018831C1098224615F0CCFBE6
:100DB00022461C98149C0090049841193046129BBE
:100DC00015F0C2FB791E012C384600DB0846169A46
:100DD000521C012C169201DB169A521A510061180E
:100DE0004C1C6D1E179981421397074600DA70E676
:100DF0001DB0F0BDF0B589B08E68022E20D80C462B
:100E00000421415E08910221405E05902068069011
:100E100060680790E06807F0CFFD0546A768206985
:100E200007F0CAFD0ECC0124B4404B43534300A944
:100E3000B0C103900493089905AB0DCB15F062FB8C
:100E400009B0F0BD70B584B000200390029002ADEF
:100E500008242846214615F001FBA8780299414054
:100E600003984840A97941402970E8786A7842405F
:100E700068795040EA7942406A70D0B20090064DDD
:100E80004E467019401CCBB21721044A7A4407F031
:100E9000A3FB745504B070BD00000000468901003A
:100EA000F0B58FB007AD28461830072117F01AFEAD
:100EB0000620687011202870A81C2449794410224B
:100EC00017F016FE0024EC751820A8756C750C2020
:100ED00028751220E8740520A8741A484946081895
:100EE000C588868818480F18384618F0B3F9009757
:100EF000C3B230462946224601F064FA0125002893
:100F00001CD1114E182007A901F02CFB002815D187
:100F100048468519284618F09DF9C0B20094019002
:100F2000029503940494059406943021602220468F
:100F3000234601F019F80546401E854128460FB0AA
:100F4000F0BDC0461800000000000000209D010018
:100F5000F0B589B0444F4846C0190021818414215E
:100F6000017301F0E1FA002872D1FFF76BFF002056
:100F700006213F4A7A4401F085FA002868D101F041
:100F80004FF9002864D14846C01901460831821D36
:100F900000920191031D012000241822214601F036
:100FA000AFF8002854D10125284601F02BF800287D
:100FB0004ED104942D4803900295102601960820E6
:100FC00008900090284629462A462B4601F03CF816
:100FD00000283DD14846C0190E3000900220254916
:100FE0007944012509232A4601F038F900282FD138
:100FF0004846C119C88910310A2200961646019444
:10100000029403920495059102211B4A7A44992384
:10101000079101F073F900281AD14846C119C8890F
:101020001231089A00920192079A0292039604954F
:101030000591124D7D44992311462A4601F05EF92F
:10104000002805D10120072101F04AFA002802D02A
:10105000012009B0F0BD4846C019C462FFF720FF67
:10106000411E8841F5E7C0461800000040E201003B
:10107000989C0100FC9B0100E09B0100C89B0100C3
:10108000F0B581B004461E484F463818482117F085
:1010900029FD1C48242139541B49791800264E602B
:1010A0003D18686800906E60284615F0C1F9174831
:1010B00044213954009969603818002C01D1214627
:1010C00000E00321C170012181704670042115F0F8
:1010D00055FA0B497C500E4D002C0AD07819406A05
:1010E000002806D10020014605F0A4FEFFF730FFDE
:1010F00001E04846465048464019C68301B0F0BD5D
:1011000018000000F001000088020000C400000088
:10111000B4070000B0B50848494624220A54074ADB
:101120008A18002353600C1865686360204615F028
:101130007FF96560B0BDC046F00100008802000084
:1011400010B504464068083000F004F8411E88419C
:10115000207010BDF0B583B004464078E51C012630
:101160003E2809D0FF2832D00528304600D0C3E001
:10117000FFF7D0FF00F0DEF8E078012800D0BAE0F9
:1011800068484F4602963E1814203073A878E978D4
:101190000902081870817D21890000910C21182214
:1011A0000024234601F006FA5F482421395434769E
:1011B0005F497918CC835D4979184C603D186E6899
:1011C0006C60284615F034F96E60029894E0287837
:1011D0006978090208180321890288420CDC4C490D
:1011E000884219DC4D4988421DD04D49884200D0C3
:1011F00081E000F08BFA7EE0424988422ED04249DD
:10120000884243D04149884275D14648494608182A
:101210002979C91E01736EE03E4988426ED1686823
:1012200000F0D4FA67E0E079401E012806D83D4876
:10123000494608184089052100F0A8FF3A48494668
:1012400024220A54394A8A18002353600C1865680E
:101250006360204615F0ECF865604CE02879697908
:10126000090209182F4A48468018008A801C8842C3
:1012700041D1607B01283ED1A07B002830463BD184
:101280004846821801201076918235E028796979E4
:1012900009020918234F4846C019408A401C884259
:1012A00029D14846C01900228263007E002808D058
:1012B000607A21460A3100F073F8287969790902C9
:1012C0000918A878EA78637A0A3400930194120224
:1012D00010180022134601F0A5F800280CD148464A
:1012E000C019826B002A06D04846C119088A3C31D1
:1012F000D2B200F02FF8304603B0F0BD0649884264
:1013000033E7C046010C0000130C0000030C000082
:1013100004040000090400000504000001040000AA
:101320000204000018000000F00100008802000024
:10133000B407000005484946081800220276044B0D
:10134000C918CA834281102006F0DDFA1800000097
:10135000B4070000F0B581B014460D4606460E49AC
:10136000484640187D210901C18348460B49401871
:10137000C0890095002731463A46234601F022F8FD
:101380004328F2D04528F0D06428EED048460249E0
:101390004018C78301B0F0BDB4070000180000007A
:1013A000F0B581B00246784D484643190020986355
:1013B000002A2AD04B465B1925241B5D002B3AD10D
:1013C0000B78012B39DD022B4ED0082B5FD0052B7B
:1013D0001CD14B465B1924241B5D002B2BD1032A07
:1013E000034613D34B465B199C8B230A4E789E42CF
:1013F00003460BD1E3B28E789E42034606D1002C01
:1014000074D0042A76D2072300E06723494649199D
:101410003C220E248C5405228A633C3148804B7058
:101420000871484641190022CA628A84574BC01885
:1014300008624A838A8301B0F0BD002B40D0012BA3
:10144000E4D10523032AE1D34C78002CDED18C783B
:10145000002CDBD148464019092A00D309228263B7
:101460003C3017F049FBDCE70423032ACED34C7849
:10147000002CCBD18C78002CC8D148464019092AC1
:1014800000D3092282633C3017F036FBD3E70623F2
:10149000052ABBD34A78002AB8D189780029B5D16A
:1014A000484640190021C1633C21082242540621CC
:1014B000816301463C3101220A71007B4871BAE721
:1014C0000323052AA2D34A78002A9FD189780029CC
:1014D0009CD14846401944210022425402644021D4
:1014E00004234354C263092181639AE7052A0CD27D
:1014F00008238BE7D21E48464019468B93B2B3426D
:1015000000D81646006AC91C1DE04B465C191F4EE8
:101510009B190E79CF7823623B029E196683B7B27E
:10152000E7620123052A00D170E74124A400A74205
:1015300000D96BE7501F82B2BA4200D8064648462F
:10154000124A8018491D124A4F46BA187D231B01C2
:10155000D383B4B2224617F0CFFA7819016A091979
:101560000162418B891B4183828B521C8283080458
:1015700000D060E74846064941180022CA83401956
:10158000C06A488057E7C04618000000B006000057
:10159000B4070000F0B503AF89B06E464E4B4A4623
:1015A000D418227BD21D07239A436B469D1AAD4661
:1015B0002422A35C002B01D0012088E030624C463D
:1015C000134645482218012073613061D054306AB7
:1015D00010620020908351830246404820184280C8
:1015E000002962D00B46681D3060E81C7060F56011
:1015F000AA7005212970100A68704846364C0019F7
:10160000047B98B2F2611204336212D04A46324926
:101610005218E41E844200DB0446116AB161A5B28F
:1016200070682A4617F068FAB06940192546032306
:1016300014E0B1612B711A0AEA704A462649521821
:10164000651F854200DB0546146AAAB2B2603068A5
:10165000214617F051FAB0682018B36949461E4A6E
:101660008918252432690A55F269521C8A83326A24
:10167000521B4A8308627069085C002821D04846E2
:10168000154934624418208A5919CAB2F5682946A6
:10169000FFF760FE0020316A6054638B002B04D09A
:1016A00048460D494018828BA2E7494600200B4D61
:1016B0004855094A8A187369D0549083491948805B
:1016C00005E0484604494018002101550220FC1F4E
:1016D000053CA546F0BDC04618000000B407000058
:1016E00080B582B06A46074B1846114601DF0648AE
:1016F0000099814202D1019802B080BD042006F019
:1017000002F9C046EC890060D4890090F0B581B040
:1017100000251349164A7A44284603F039F903464E
:1017200010484E4630180621016343630E4FF419EA
:10173000E16025722046103010210E4A7A4406F0EE
:101740004BFF2320F05518206060084830180A49E4
:1017500079444160204614F06BFE01B0F0BDC046F4
:1017600040420F0018000000F00100008802000055
:10177000C7FFFFFF787B01002900000070B5044619
:101780000E48494624220A540D4A8A180023536001
:101790000D186E686B60284614F04AFE6E600948AA
:1017A000844207D1084849460818416B408900F037
:1017B00081FC70BD0120FFF763FC70BDF0010000EB
:1017C00088020000115010B01800000070B50346E8
:1017D0000F484D4628180621016343630D4EAC198E
:1017E000E160012020722046103010210B4A7A441B
:1017F00006F0F2FE2320A85518206060064828183D
:10180000074979444160204614F012FE70BDC0467D
:1018100018000000F001000088020000C67A0100F4
:101820001F00000070B504460E48494624220A54A1
:101830000D4A8A18002353600D186E686B602846A5
:1018400014F0F6FD6E600948844207D10848494605
:1018500008184089012100F0BFFC70BD0120FFF78E
:101860000FFC70BDF001000088020000115010B0A4
:101870001800000070B50446052116F0DFFF0D4684
:10188000022905DC012D0BD0022D07D104260AE028
:10189000032D07D0042D01D1012604E0002602E02B
:1018A000062600E00326E000052116F041FF002D8A
:1018B00000D0401C801970BDF0B585B00E46039075
:1018C000052704921046394616F0B8FFFF43012061
:1018D000022907DC012912D002290BD10290BF1C7A
:1018E000042012E003290DD0042903D102907F1DAA
:1018F00001200AE0002701200190029706E00290F3
:10190000062002E00290FF1C032001900498FFF7DC
:10191000B1FF38183BD0002422462346D5086F1C5F
:1019200004998F42214600D2F15D775D07251D4065
:10193000032D05DC012D0ADC002D11D1FF0819E073
:10194000052D08DC042D0ED1C9093D0710E0022D3C
:101950000CD1B90608E0062D16D14909BD0707E0EC
:1019600089097D0704E07906CF0E03E00909FD0728
:10197000ED0E4F190B497944C95D039DE954521D81
:101980005B1C9842CAD102E01F210F40F2E7029986
:10199000002905D0039908183D22019917F0B0F8E5
:1019A00005B0F0BD9D920100F0B583B00F4605462D
:1019B0003D213A4617F0B6F80646EC190022D0430E
:1019C0000290002E08D0A64206D0304601783D296C
:1019D00038D1401C8442F9D10192002E00D0771BEF
:1019E00005214F43FF08384616F028FF022905DC81
:1019F000012909D002290BD104200AE0032905D0CE
:101A0000042905D1012004E0062002E0032000E0C3
:101A10000198002E00D0A61BB04213D1002F14D085
:101A20000B4E7E443C46287801F05BF901462022AB
:101A3000304617F077F8002804D06D1C641EF2D1F0
:101A4000384600E0029803B0F0BD0020FBE7C04636
:101A5000F1910100F0B58BB0174605460991084693
:101A60001146FFF7A1FF002800D195E000244B4963
:101A700079440A91214603942246019708920590E1
:101A800006953D4605271046394616F051FE064696
:101A90007E432046394616F04BFE07460998C05D46
:101AA00001F01FF9014620220A9817F03BF8079031
:101AB000781CA842039B19460DD20999085C01F0D5
:101AC00010F90146202204940A9C204617F02AF8B7
:101AD000039B011B049C0491089A961BB91CA94204
:101AE0002F460FD20998405C174601F0FAF80146DC
:101AF000202225460A9C204617F014F83A46019FFA
:101B0000031B2C460A980799091A012E10DD022E94
:101B100022D0032E25D0042E069D0598029E32D198
:101B200013461F22049E16401A46490176182AE0E1
:101B3000002E21D0012E069D0598029E23D18907F3
:101B4000090E1646049AD206920E5118DA06D20FE2
:101B5000891832460E4616E008010499C906090F95
:101B60000EE0C907090E1046049AD206520E51180B
:101B70000246D806800F03E0C8000499C906490F41
:101B80000E18069D059802962E7008346D1C401E96
:101B9000521C002800D071E70BB0F0BDA3910100EA
:101BA000F0B503AF8DB06E46154631620022002DB0
:101BB000144608D00024316A095D002903D1641C51
:101BC000A542F8D12C463060291B8A204843642165
:101BD000326316F0ADFD024608323B4911406A46B9
:101BE000521A3061411C954672601046F16016F041
:101BF0008FFF326BB460A5422FD930697168081825
:101C000070610020B0610346B168F561306A7162AD
:101C1000405C0146B3621943B26918D0002273696F
:101C2000F362326319780D0205433A2428462146AF
:101C300016F07EFDF36A326B4443291B1970C0B263
:101C40005B1E521C0028EBD1B16A8A42E8D3716A4C
:101C5000491CF569A9421346D8D1F068841A306945
:101C6000A04235680ED330697168091850420A18CD
:101C70005278002A03D1401CF9D3F46802E031699C
:101C80000818441C002D17D031222846B16816F0E0
:101C900037FF306984420FD870680019B16869183D
:101CA000F268121B094B7B4405785D5D0D70401C8A
:101CB000521E491C002AF7D1B068F1680818001BB1
:101CC000FC1F053CA546F0BDF8FFFF07928F010001
:101CD000F0B58BB001920D460290171F03AE202481
:101CE000084639463246234614F0F8F83046214675
:101CF0003246234614F0F2F80398E855E919020E2B
:101D0000CA70020C8A70000A487002982946019A2B
:101D1000FFF746FF0BB0F0BDF0B503AF8BB06E46DA
:101D200070600024002A254607D00025485D312830
:101D300003D16D1CAA42F9D11546B161511B3A4835
:101D400048437D21C900F26116F0F2FC02460832D8
:101D5000364911406A46521A3061411C9546B260BC
:101D60001046316016F0D4FEF560F069A8422DD916
:101D70003069B168081870610024E043B062F1680E
:101D80003462B0697162415C294878443A2504465E
:101D90002A4616F0C7FE002841D0001BC0B20146FB
:101DA000336A002419430CD071690A786A43101809
:101DB0000870B26A8918000A641C0028F5D19C4298
:101DC000F3D3716A491CF0698142D9D133681D1B74
:101DD0003069A8420ED33069B168091860420A1808
:101DE0005278002A03D1401CF9D31D4602E0316924
:101DF0000818451C591BF4680819B062706800285F
:101E00000DD07162214616F083FE3069854206D8F6
:101E100070680019B1684919726A16F069FEB06AF3
:101E2000FC1F053CA546F0BDDD020000F8FFFF00E9
:101E3000AE8E010010B50A46014600242046FFF789
:101E40006BFF032800D8E04310BDF0B589B004460D
:101E5000FFF762FF051F01AE2027204629463246C4
:101E60003B4614F03BF83046394632463B4614F0C8
:101E700035F801980090615D621953781B0259187A
:101E80009378D2781202D21812045118091A4842D3
:101E9000484109B0F0BDD4D4F0B5FFB086B004AC71
:101EA0000FC40120010244AE304614F059F834AF9B
:101EB00040243846214616F02BFEFF200230788061
:101EC0008B988A9D002D039000D1284678708198C8
:101ED000387010362349794430463A46234605F097
:101EE000F7FC002D2ED008AC204617F069F9A0852C
:101EF000000417D108A814F099FB129014AC2046E6
:101F00002946039E324616F0F3FDA0198025A91B31
:101F100016F0FEFD00210091019144A822462B46B7
:101F200013F0C0FF14F06CFB08A9884202D112988C
:101F300014F07CFB14A8802116F0EAFD08A8808D1F
:101F400000280CD1049800900598019044A8012124
:101F5000069A079B13F0A6FF7FB006B0F0BD05F010
:101F6000D2FCC0469E8D0100F0B5CBB0150A04AC82
:101F70002571E2700A0AA2706170519DE571509955
:101F8000A1716371207003A9029100200190087073
:101F900027460837529938462A4606F0FDFC539EDC
:101FA0007E557819471C54993846324606F0F4FCA1
:101FB0005598B855B919569A130ACB708A70000A09
:101FC000487045A800901822019F394606F0EAFCA7
:101FD00001204A9002984990A8190D30C0B248904B
:101FE0004794074845900098394604F053FF00286D
:101FF00001D4039800E0F843C0B24BB0F0BDC04636
:102000003F008300F0B5C9B002AE307001AF0024CC
:102010003C7043AD18222846214606F0C3FC01203F
:102020004890479746904596064843902846214653
:1020300004F030FF002801D4019800E0E043C0B272
:1020400049B0F0BD3F008500F0B5C9B0519C250EE8
:1020500002AEB572250C7572250A3572F471529C68
:10206000F472509CB4714F9C74714E9C3471F37037
:10207000B2707170307001AF00243C7043AD182213
:102080002846214606F08EFC0120489047970C20F8
:1020900046904596064843902846214604F0FAFEAD
:1020A000002801D4019800E0E043C0B249B0F0BD7F
:1020B0003F008600F0B5C9B00A0C02AEB280718054
:1020C000308001AF00243C7043AD182228462146E1
:1020D00006F068FC012048904797062046904596F8
:1020E000064843902846214604F0D4FE002801D437
:1020F000019800E0E043C0B249B0F0BD3F00880065
:10210000F0B5CDB0009301920291044604A803906B
:102110000026072731463A4606F044FC06AD0198F2
:10212000A870029868702C7047AC1822204631467F
:1021300006F038FC4C97039F4B9703204A90499533
:10214000114847902046314604F0A4FE002818D4D8
:1021500004A80078002815D1781C5399529A037866
:1021600044782402E318009C23808378C4782402F6
:10217000E318138002794079000280180880304605
:1021800000E0FF204DB0F0BD3F008A00F0B5C9B0BF
:1021900002AEB170308001AF00243C7043AD182214
:1021A0002846214606F0FEFB012048904797032071
:1021B000469045960F204490064843902846214675
:1021C00004F068FE002801D4019800E0E043C0B2AA
:1021D00049B0F0BD3F009300F0B5C9B002AEB17098
:1021E000308001AF00243C7043AD182228462146C0
:1021F00006F0D8FB0120489047970320469045966B
:10220000064843902846214604F044FE002801D4A5
:10221000019800E0E043C0B249B0F0BD3F00A50026
:1022200070B588B001AE0024347002AD1822284683
:10223000214606F0B7FB012007900696064802905B
:102240002846214604F026FE002801D4019800E02B
:10225000E043C0B208B070BD3F000101F0B5CBB0A3
:10226000019302920F46064603A80021032422464A
:1022700006F098FB04A80670B11E4A424A410225A6
:10228000012E294600D01101012E02D0022E2DD19F
:102290001025401C461839462A4606F07DFB019859
:1022A00070700298307045AF0026182238463146CB
:1022B00006F078FB4A9403A84990E81C489004A8CB
:1022C00047900D4845903846314604F0E3FD00281C
:1022D0000ED403A8007800280BD1509803A94A789F
:1022E0008978090289180180304602E0472000E021
:1022F000FF204BB0F0BDC0463F000201F0B5CFB0AB
:102300001D4606920F46064607A8002103242246D2
:1023100006F048FB08A887700680B91E4A424A4169
:102320000226012F314600D01101012F02D0022FC9
:1023300040D11026C01C4718589901910594579C0C
:1023400056990291559903915499049106993246F0
:1023500006F022FB280A78703D700198B8717C71F4
:10236000029838710398F8700498B87049AF002546
:1023700018223846294606F015FB05984E9007A806
:102380004D900A364C9608A84B900D484990384617
:10239000294604F07FFD00280ED407A80078002805
:1023A0000BD1599807A94A788978090289180180C0
:1023B000284602E0472000E0FF204FB0F0BDC046B5
:1023C0003F000401F0B5C9B01D4602AF7B713A7100
:1023D0007980388001A8009000240470B81D4E99BF
:1023E0001A4606F0D9FA43AE18223046214606F0C6
:1023F000D9FA0120489000984790A81DC0B2469095
:102400004597074843903046214604F043FD002895
:1024100001D4019800E0E043C0B249B0F0BDC0462D
:102420003F000601F0B5C9B002AF4E9DBD717B7192
:102430003A717980388001A8009000240470F81D5A
:102440004F992A4606F0A8FA43AE18223046214694
:1024500006F0A8FA0120489000984790E81DC0B205
:1024600046904597064843903046214604F012FDB9
:10247000002801D4019800E0E043C0B249B0F0BDAB
:102480003F002601F0B5C9B00D4602AF7970387033
:1024900001A8009000240470B81C11462A4606F0DA
:1024A0007BFA43AE18223046214606F07BFA012023
:1024B000489000984790A81CC0B24690459707489E
:1024C00043903046214604F0E5FC002801D40198F1
:1024D00000E0E043C0B249B0F0BDC0463F000C0090
:1024E000F0B5C9B002AE7170307001AF00243C701D
:1024F00043AD18222846214606F054FA01204890A0
:102500004797022046904596064843902846214624
:1025100004F0C0FC002801D4019800E0E043C0B200
:1025200049B0F0BD3F000F0070B588B001AE002487
:10253000347002AD18222846214606F033FA0120F5
:1025400007900696064802902846214604F0A2FC11
:10255000002801D4019800E0E043C0B208B070BD8B
:1025600003000300F0B5C9B002AE307001AF002423
:102570003C70701C1F2206F00FFA43AD182228464B
:10258000214606F00FFA01204890479720204690F8
:102590004596074843902846214604F07BFC0028D6
:1025A00001D4019800E0E043C0B249B0F0BDC0469C
:1025B00008000900F0B5C9B002AE4E9C3481F3802A
:1025C000B2807180308001AF00243C7043AD18228E
:1025D0002846214606F0E6F90120489047970A2050
:1025E000469045960F204490064843902846214641
:1025F00004F050FC002801D4019800E0E043C0B290
:1026000049B0F0BD3F008101F0B595B00393064697
:102610008020002333503648F0603648B06036489A
:10262000706036483060086830614868706188685A
:10263000B061C868F0610869306248697062886991
:10264000B062C869F06204933363106870635068C5
:10265000B063F3671A980290B067304680304360E9
:102660009068F06305AC01943046214600F048F8CC
:102670003046403001462246B8CAB8C14322B35C56
:102680000F210B40B35435464335049A6A732A79B7
:102690000A402A712A7A0A402A722A7B0A402A733F
:1026A0006978FC2211406970697911406971697A11
:1026B000114069721124214600F037FB374651372B
:1026C000019910311022384616F012FA0498A877B2
:1026D0003846214600F029FB30466230214616F08C
:1026E00017FA30460399029A00F086F815B0F0BD4B
:1026F0007465206B322D62796E6420336578706169
:10270000F0B593B00C4601906CC86CC46CC86CC436
:102710006CC86CC46CC86CC408463C300590084654
:102720002C30049008461C30039008460C30119061
:102730000846383010900846283002900846183075
:102740000F90084608300E90084634300D90084629
:1027500024300C90084614300B90081D0A9008464F
:1027600030300990084620300890129110310791BE
:102770000020029E039C049F059D0690129807ABC3
:102780000ECB00F01DF90AAB0FCB00F019F90E9833
:102790000F993246109B00F013F9119821463A46E2
:1027A0002B4600F00DF912980B9932462B4600F09B
:1027B00007F90A980F993A46099B00F001F90E981B
:1027C0002146089A0D9B00F0FBF8119807990C9A86
:1027D000109B00F0F5F80699481C0929CDD300207C
:1027E000019B129C1958225851182150001D402855
:1027F000F8D113B0F0BDD4D4F0B58BB01646024674
:1028000040320292623003903009401C039D102E2A
:10281000344600D31024002C23D006AF0490384651
:1028200005910599224616F063F938191021091B04
:1028300016F06EF90120387411243846214600F054
:1028400074FA284629463A46234613F05FFD009461
:10285000074B7B4428462946029A13F087FD0498CB
:1028600005991031103E401ED1D10BB0F0BDC046CD
:102870006A840100F0B593B01746029105468020A6
:1028800028582E46803671680022C01851410092A7
:1028900010465041012825D01C46286B401C286357
:1028A00003A92846FFF72CFF0194002C0BD003A8A6
:1028B0000299019A3B7804785C400C707F1C401CA4
:1028C000491C521EF6D128460299019C2246FFF768
:1028D00093FF30680019306070680099484170605B
:1028E00013B0F0BD014805F00EF8C04605B1000078
:1028F000F0B593B002920F460546802028582E4628
:10290000803671680022C018514100921046504133
:10291000012825D01C46286B401C286303A92846A3
:10292000FFF7EEFE0194002C0BD003A80299019A48
:102930000B7804785C403C70491C401C7F1C521E84
:10294000F6D128460299019C2246FFF755FF3068D0
:1029500000193060706800994841706013B0F0BD94
:10296000014804F0D0FFC04605B10000F0B587B0C3
:1029700001910546806FE96F0391029080202858ED
:102980000490284680304068059002A91026284609
:102990003246FFF731FF2F46623751351124384652
:1029A00039462A46234613F0B1FC3846214600F04A
:1029B000BCF901983946324616F09AF807B0F0BDD6
:1029C000B0B50C6805682C1904601D6865401024BA
:1029D000E5411D601468641914600D686540142495
:1029E000E5410D60046864190460186860401824AB
:1029F000E04118601368181810600A6842401920F6
:102A0000C2410A60B0BDD4D4F0B587B006AD002491
:102A10002C7005950120029005A8019000947D4836
:102A2000784440219F23224604F092FF002800D1E1
:102A3000E5E02878012800D0E1E015F051FD0546D9
:102A400015F0DAFD342068436E4F4946CE19324600
:102A50006832714B7B4413506B4B0325CD541518D2
:102A60006E48784404222A712C6203956862CD185E
:102A70006C60284613F0DCFC6860022013F0ECFD6B
:102A80006860B06E00283FD04846C0196C24015DD4
:102A90007A25405B884237D213F082FC5B4988423A
:102AA00004D113F0B1FC594988422DD14846C019D0
:102AB000025D415B914222D20846382670434A4665
:102AC000D3199A6E101868331B6A002B06D09847EA
:102AD00000280AD04946CA19515B926E012802D1DA
:102AE00088B24643901901F071FF4846C019415B16
:102AF000491C4153025D88B29042DED300E0084693
:102B0000904201D113F0EAFC0398243003904B204B
:102B1000800004904846C019806E00283FD0484687
:102B2000C0196C26815D7A25405B884237D213F04C
:102B300037FC3649884204D113F066FC3349884299
:102B40002DD14846C019825D415B914222D2084690
:102B5000382460434A46D3199A6E101868331B6AAA
:102B6000002B06D0984700280AD04946CA19515B65
:102B7000926E012802D188B24443101901F026FF59
:102B80004846C019415B491C4153825D88B290425E
:102B9000DED300E00846904201D113F09FFC4C4682
:102BA0001B4820180022049913F012FDE41905F0C7
:102BB0009DF86C20205C7A21615A8142AAD304F0EE
:102BC00081FF039C4846124940180022049913F0E3
:102BD000FFFC05F08BF813F0E7FC002802D020681A
:102BE0000028EFD115F09CFC05F026F905F02EF930
:102BF0004846074940180022049913F0E9FC07B041
:102C0000F0BDC04688020000F0010000115010B075
:102C1000C4000000DC9701007C820100BB010000C1
:102C20000E490840884215D10B49484640580028B3
:102C300010D0012800D801204A4651188C31084A8A
:102C40007A440B68934203D03431401EF9D101E03D
:102C50000020086000207047880200000300008008
:102C6000DDFFFFFF10B58CB013F0A6F86C462046D0
:102C700016F0A6FAA085000407D1684613F0D6FC2A
:102C80000A900020C04313F015FC13F0B9FC69460C
:102C9000884202D10A9813F0C9FC6846808D00284A
:102CA00001D10CB010BD04F02EFED4D410B50246F4
:102CB00007485040012300248842184600D320468C
:102CC00051188908402900D82346184310BDC04632
:102CD000FFFF000020385F2801D30020704701204B
:102CE000704701466139C9B21A2900D22038C0B2F2
:102CF000704701464139C9B21A2900D22030C0B20A
:102D0000704710B500290ED00278002A09D101239E
:102D10001A46994203D0845C531C002CF8D08A4296
:102D200001D2002010BD012010BD10B54A080FD0FF
:102D30000918491E0B7804785C4004700B786340D6
:102D40000B7004785C400470491E401C521EF1D187
:102D500010BDD4D4B0B5002A0ED0084B7B440C78FB
:102D600024091C5D04700C780F2525405C5D4470BF
:102D7000801C491C521EF2D1B0BDC04656800100D5
:102D8000F0B581B00C46064600252F460A22304693
:102D900021462B4615F070FD7F1C0922921B2A4606
:102DA000A24106460C46F1D3384601B0F0BDF0B55D
:102DB0008BB016461099002900901ED0354604931A
:102DC00003910A220292002428460499234615F012
:102DD00053FD06460F46029A0294234615F06CFDF9
:102DE000281A049A8A4102430AD10399491E080607
:102DF000354604973B46E3D107E00020029004E00B
:102E00002B46039802902E46049B1820029F0390A5
:102E100019463C460A270025304604933A462B467D
:102E200015F02AFD029001913A462746039C2B4655
:102E300015F042FD321A30210A43601E05AB1A54C8
:102E40003A0613D07F1E3A06019B11D1A01E05AA97
:102E50002E24145400270922921B3A46049CA241B6
:102E600006D30398C01E05AA115401E02F46019B0A
:102E70000921891B04998D41029EC8D33906C6D108
:102E800005A909181822121A009815F031FE0BB086
:102E9000F0BDD4D4D0B502AF94B06E46F41D413429
:102EA00002464E4849460858012802D14E4804F0CF
:102EB0002AFD4B4B4846C0188178012968D8017912
:102EC000481E3F2864D84846C018C07800285FD103
:102ED000444B4846C0184078401E02285CD2F2613C
:102EE0000A460720C543B161C81D28406946081A33
:102EF000B0608546F260104601F002F97061C01DB5
:102F000028406946081A30618546F51D193528465E
:102F100016F056F9A88500041CD1F01D193013F0E5
:102F200085FB206049462F480818306018302C4A2D
:102F300089184A1DB168F5682B46FFF7D9FC82B0A5
:102F4000102000903068831C3069B1682A4601F077
:102F5000DBF802B013F054FBF11D1931884202D1A5
:102F6000206813F063FBB068F16815F0D1FDF01D27
:102F70001930808D002811D17569F469208829469F
:102F8000FFF794FE00280BD06720000204F0BBFC82
:102F90001548001D04F0B7FCD120000204F0B3FC7A
:102FA00049460F48716008182188401831692A463F
:102FB00015F09EFDB069402801D3022000E00320F7
:102FC000F269084973697468611848701088C018FC
:102FD00010800920000304F096FCC0466000000049
:102FE000B00600001006000001B10000D0B502AF2D
:102FF00094B06E46F41D41340246494B4846C01811
:103000008178012968D80179481E3F2864D848464C
:10301000C018C07800285FD1424B4846C01840789D
:10302000401E02285BD2F2610A460720C543B16107
:10303000C81D28406946081AB0608546F2601046EF
:1030400001F05EF87061C01D28406946081A3061C1
:103050008546F51D1935284616F0B2F8A8850004F6
:103060001CD1F01D193013F0E1FA206049462D48BB
:103070000818306018302A4A89184A1DB168F56866
:103080002B46FFF735FC82B0102000903068831C7F
:103090003069B1682A4601F037F802B013F0B0FA8F
:1030A000F11D1931884202D1206813F0BFFAB068CF
:1030B000F16815F02DFDF01D1930808D002810D11C
:1030C0007569F46920882946FFF7F0FD00280AD0C9
:1030D0006720000204F017FC134804F014FCD12010
:1030E000000204F010FC49460D4871600818218860
:1030F000401831692A4615F0FBFCB069402801D31D
:10310000022000E00320F2690649736974686118BF
:1031100048701088C01810800920000304F0F3FBE9
:10312000B00600004008000005B10000D0B502AFB5
:1031300082B06E4604462B4849460858012802D101
:103140002B4804F0E0FB284A484680188178012982
:1031500027D80579681E3F2823D848468018C078AC
:1031600000281ED121494846405C401E02281CD23E
:10317000E81D0721884369460B1A49461B48081871
:10318000183089184A1D9D46736019462B46FFF773
:1031900071FB20882946FFF789FD002809D06720A8
:1031A00004E01348001D04F0AEFBD120000204F03F
:1031B000AAFB49460C4831600818218840187168FC
:1031C0002A4615F095FC402D01D3022000E0032093
:1031D0000649326850542088401920800920000395
:1031E00004F091FB60000000B00600001006000033
:1031F00001B10000D0B502AF84B06E460246284C43
:10320000484600198178012929D80579681E3F2888
:1032100025D848460019C078002820D121494846C1
:10322000405C401E02281DD2E81D072188436946E4
:103230000B1A49461B48081818300919F2604A1D34
:103240009D46B36019462B46FFF714FBF0680088D3
:103250002946FFF72BFD002808D0672003E012481D
:1032600004F051FBD120000204F04DFB4846706091
:103270000019F1680C4609884018B1682A4615F013
:1032800037FC402D01D3022000E00320054972687D
:1032900050542088401920800920000304F033FB9B
:1032A000B00600004008000005B10000214C48466F
:1032B00000198078012836D848460019017920295C
:1032C00031D1C07800282ED148460019401D202158
:1032D00000F03AFE002826D018484946095C00292B
:1032E00024D0494609180D4618352CCD496A194392
:1032F00015430D431AD1494609188A68CB68134310
:1033000014D04978002911D149460D182846283093
:103310000919491D002200F0A7FD0120687009204D
:10332000000304F0F0FA044804F0EDFAD1200002A2
:1033300004F0E9FAB006000005B10000E008000062
:10334000D0B502AF9CB06E46F41D393402463D4DF7
:1033500048464019807801285CD8484640190179D0
:10336000C078084356D138494846405C002854D0BC
:10337000726148464018034618330ECB406A10432A
:103380000B43034349D13248784400683061C01D83
:10339000072188436946081AF0608546F01D113000
:1033A000706015F00DFF71688885000414D1F01D60
:1033B000113013F03BF92060484623494118283169
:1033C00021202022F31D4133B360B36812F07AFE4E
:1033D000F068B16800F0F0F913F012F9F11D113145
:1033E000884202D1206813F021F9F01D41302821D4
:1033F00015F08EFBF01D1130808D00280FD17469FF
:1034000020883169FFF752FC00280AD067200002AB
:1034100004F079FA0D4804F076FAD120000204F0A5
:1034200072FA4846401921884018F16835692A46E1
:1034300015F05EFB2088401920800920000304F06D
:1034400062FAC046B0060000E008000005B10000C6
:10345000507A01009CB04B4D4846401981780129B3
:103460002ED8C07800282BD1484640190079484909
:1034700079440E6831460931814221D148464019CC
:103480004479444878440068A04219D3002807D002
:1034900049464919891D0A6812BA04C1401EFAD169
:1034A0004846401981190527C859491D49680246EF
:1034B0000A4305D04A465219B218527B022A02D357
:1034C000314804F020FA0792304B4A46D25C002A79
:1034D00006D04A46D3181A6A5B6A04921A4303D18B
:1034E000D120000204F00FFA049A101A8B41E7D39E
:1034F00008A8039015F064FE0399888500041FD185
:1035000008A813F093F81290484641198B19DA591C
:1035100005921E4A801806904268581D4368881D0F
:10352000009001940798029014AC20461146059A29
:1035300000F03EFA069828300022214600F094FC64
:1035400013F05EF808A9884202D1129813F06EF8C1
:1035500014A8202115F0DCFA08A8808D0028C1D11C
:103560004846411989194A1DC959084BC018036AB0
:10357000591A0162416A526891414162092000036F
:1035800004F0C1F9B006000005B10000E008000039
:1035900078790100607901009CB04B4D4846401994
:1035A000817801292ED8C07800282BD148464019AF
:1035B0000079484979440E6831460931814221D168
:1035C000484640194479444878440068A04219D3D9
:1035D000002807D049464919891D0A6812BA04C152
:1035E000401EFAD14846401981190527C859491D7E
:1035F000496802460A4305D04A465219B218527B1E
:10360000022A02D3314804F07EF90792304B4A4631
:10361000D25C002A06D04A46D3189A69DB69049224
:103620001A4303D1D120000204F06DF9049A101A54
:103630008B41E7D308A8039015F0C2FD0399888554
:1036400000041FD108A812F0F1FF1290484641195A
:103650008B19DA5905921E4A801806904268581D47
:103660004368881D009001940798029014AC20468E
:103670001146059A00F09CF906982830012221464F
:1036800000F0F2FB12F0BCFF08A9884202D11298A8
:1036900012F0CCFF14A8202115F03AFA08A8808D6A
:1036A0000028C1D14846411989194A1DC959084BFA
:1036B000C0188369591A8161C16952689141C16119
:1036C0000920000304F01FF9B006000005B1000056
:1036D000E0080000347801001C780100F0B503AF69
:1036E00095B06E46F31D3133F36031607060002A8F
:1036F00056D42F487844F11D393118C818C138C83C
:1037000038C10120C007024327494B465918496870
:103710000143F068C16002616846B0606D46403D9B
:10372000AD46F41D0934204615F04AFDA08500047D
:103730001DD1F01D093012F079FFF168086084B0E6
:103740000C201C4979440095326801920291039043
:1037500000202124F21D39320523214612F034FEC7
:1037600004B0202220462946736812F0ABFC12F008
:1037700047FFF11D0931884203D1F068006812F05B
:1037800055FF4021284615F0C3F9F01D0930808D02
:10379000002806D1B0688546FC1F053CA546F0BD53
:1037A000024804F0B0F8C0466000000005B1000017
:1037B00034770100F876010070B594B00A460546EA
:1037C000212001AC01262146334612F091FC0298DB
:1037D0000019C0793040801C2870681C09342022F0
:1037E000214615F085F914B070BDD4D4F0B503AFFF
:1037F000B9B06E46F41D6134F4631C46B163706366
:10380000BD68F868002803D1706BB16BFFF766FFE5
:10381000002D00D1BEE0F01D693008303063F01D8E
:1038200091300930F062706B0830B06275623462BA
:103830006846F0616C4620462838B0618546684687
:10384000403870618546F51D3935284615F0B8FCBD
:10385000A88500047AD1E51FF01D393012F0E6FE8C
:10386000F16B0860306A0468002C20D4746B2178F6
:10387000316121202070F11D9131B1600123F3608D
:10388000224612F035FCF06B406BB1684018C079ED
:10389000F1680840801CB1690870481C2022F16A58
:1038A00015F026F930692070306A046808E00020BD
:1038B000B1690870706B4268481CB16A15F018F95C
:1038C000EC70200AA870200C6870200E287082B05E
:1038D000402074690094019020252523B06B29466F
:1038E000B26912F053FB02B0706B0078F31D6933BC
:1038F00021462A4612F0E6FBF46BE2682A49794435
:10390000356B284612F0D6FC002847D5E06882B017
:103910000090264B7B4428462946B26A12F00CFDE3
:1039200002B0E168284612F0DBFC002836D171694C
:1039300020312022B06B15F0DBF8F01D6930716B7F
:103940001CC81CC11CC81CC13CC83CC112F058FE9C
:10395000F11D3931884203D1F06B006812F066FE28
:103960002521B06915F0D4F84021706915F0D0F820
:10397000F01D6930282115F0CBF8F01D3930808D0D
:103980000028316A0BD1F0690C1D716A4D1E854605
:1039900000D04BE7FC1F053CA546F0BD014803F0F5
:1039A000B2FFC04601D1000006750100F0740100AD
:1039B000F0B503AFA9B06E46F41D6D343462F36008
:1039C0003261B16070616846B062FF2502352846F9
:1039D00005F07AFAB061C01D072188436946081ACC
:1039E00085467062294605F07BFA0546F41D45348C
:1039F000204615F0E5FBA08500042C4626D0B569CD
:103A000012F0FEFDF11D4531884203D1306A006895
:103A100012F00CFEF01D7530282115F079F8F01D1C
:103A20002530202115F074F8204605F021FB706A3E
:103A3000294615F06DF8F01D4530808D002845D1E0
:103A4000B06A8546FC1F053CA546F0BDF4613C69A3
:103A5000FD68B8687060F01D453012F0E7FD316A0E
:103A6000086082B0002000950190F01D7530F11DB6
:103A70002531B2687368FFF7B9FE02B0012C0BD094
:103A8000002CF469BBD1306AC268F11D7531083170
:103A9000706915F02DF8B2E7F068316986B00D4A0B
:103AA0007A440D4B7B440D4C7C4400910190029470
:103AB00003930492F21D75320832F469204671694D
:103AC00008F06CFB06B0002899D1014803F01BFFF9
:103AD00001D1000029740100E5730100A173010008
:103AE000F0B503AFA5B06E46F11D85313162B3600C
:103AF000F2607061FF250235284605F0E5F9B061F6
:103B0000C01D072188436946081A8546F061294689
:103B100005F0E6F90546F41D5D34204615F050FB2E
:103B2000A0850004B0692C4626D13461B468F568DC
:103B3000B8687060F01D5D3012F078FD316A086081
:103B400084B01D4878441D49794400950194346936
:103B500002910390F11D1D312046726807F074FB3D
:103B600004B0002823D0F21D1D322046716907F0F1
:103B700010FB00281BD0B069054612F041FDF11D75
:103B80005D31884203D1306A006812F04FFD204653
:103B900005F06EFAF069294614F0BAFFF01D5D30A9
:103BA000808D002804D1FC1F053CA546F0BD0148CE
:103BB00003F0A9FE01D1000045730100017301006B
:103BC000F0B503AFB3B06E46F31D49337362F261D3
:103BD0000C463062F51D2135284615F0F1FAA8850E
:103BE000000448D1F01D213012F020FD716A0860F8
:103BF000F01D5130B060002171612246FFF76EFD6B
:103C00006846B0616C46283CA54621203061F51D10
:103C10007935012171602946B268736812F068FA3B
:103C2000706A406B4019C07971680840801C207030
:103C30000935601C2022F260294614F059FF6D46B8
:103C4000203DAD4682B07069009001902846F16831
:103C5000224634692346FEF71FF902B082B0F069AC
:103C600000900194306AF1682A460B46FEF714F979
:103C700002B0B069854612F0C3FCF11D21318842C3
:103C800003D1706A006812F0D1FCF01D5130282178
:103C900014F03EFFF01D2130808D002803D1FC1F61
:103CA000053CA546F0BD03F02EFEF0B503AFA5B070
:103CB0006E46F31D5D337361F2600C4630616846F9
:103CC000B061F51D3535284615F07AFAA88500044F
:103CD0002DD1F01D353012F0A9FC75692860F01D5A
:103CE00065307060F11D15312246FFF7F7FC68461C
:103CF000B0606C46203CA546EB6882B00020009086
:103D0000019072680832202520462946FEF7C4F843
:103D100002B082B02120F1680091019030692946FB
:103D200022462B46FEF7B8F802B0B068854612F07E
:103D300067FCF11D3531884203D17069006812F0CB
:103D400075FCF01D6530282114F0E2FEF01D1530E1
:103D5000202114F0DDFEF01D3530808D002805D1C6
:103D6000B0698546FC1F053CA546F0BD03F0CBFDC0
:103D7000F0B5B5B01E460C4605463492684607902D
:103D800020AF384615F01CFAB885000443D10496DC
:103D900020A812F04BFC2A900120002300930193ED
:103DA000059002902CAF2C4A384606942146FFF726
:103DB000FFFD4020019010AE0096294878440D2167
:103DC00020243A46234612F0E1F804983146224670
:103DD0002B4612F077F969682E460836304612F005
:103DE0007FFA002834D16A681E497944304612F0BF
:103DF00061FA00282CD510A8203008A90A46D8C896
:103E0000D8C2D8C8D8C205980090019034AB2846D3
:103E1000069AFFF7EBFC12F0F3FB20A9884202D1CF
:103E20002A9812F003FC2CA82024214614F070FEDE
:103E300010A8402114F06CFE08A8214614F068FE7A
:103E400020A8808D002804D10798854635B0F0BDA4
:103E5000024803F058FDC046C902000001D100002D
:103E60004D7101001A700100F0B503AF95B06E46B8
:103E7000F31D15337361F2607160B0610124204657
:103E800005F022F80546C01D072188436946081A37
:103E900085463061B460214605F022F83060F41D9B
:103EA0001D34204615F08CF9A085000434681AD121
:103EB000F01D1D3012F0BAFB716908637068306242
:103EC0000223F0680028184600D1B068B169726911
:103ED000116082B00090F21D1532204607F012FAF0
:103EE00002B0002829D012F08BFBF11D1D31884251
:103EF00003D17069006B12F099FB204605F0B8F809
:103F00003069294614F004FEF01D1D30808D002814
:103F100014D12021B4692046FEF7F3FE002805D114
:103F20002021204600F010F8002803D0FC1F053C9B
:103F3000A546F0BD024803F0E6FC024803F0E3FCAE
:103F400005B1000001D10000F0B503AF85B06E46A9
:103F5000202922D10125B060284604F0B5FFF06089
:103F6000C21D07218A43694631616946881A70601B
:103F70008546294604F0B4FF0446B16805F0C4FD47
:103F80000546204605F074F87068F16814F0C0FD2D
:103F9000681E85413069854600E000252846FC1FE3
:103FA000053CA546F0BDD4D4F0B503AFCFB06E4606
:103FB000514CA41974627361B261F16130624B4C6F
:103FC000204604F081FF0546C01D0721884369464D
:103FD000081A8546B062214604F082FFB060474C63
:103FE000A419204615F0ECF8A0850004B46858D157
:103FF0003561BD684148801912F018FB716A08608C
:10400000F01D2530202111F037FFF560002D0FD075
:10401000F11DC53121232046F26805F03FF8002844
:104020005ED0F01DC5304021FEF76BFE002857D151
:10403000FA68F11D85312123204605F02FF800286C
:104040004ED0F01D85304021FEF75BFE002847D1A1
:10405000254686B0F01D25300590F01D8530049072
:10406000F01DC530F1680029F269B36900D1084636
:104070000021746900940191029003900833F11DAE
:1040800045312C4628460BF0B1FE06B000282AD058
:10409000F21D45322046316A05F0FEFB002822D091
:1040A000356912F0ADFA15498919884203D1706A51
:1040B000006812F0BBFAF01D2530202114F028FD15
:1040C000204604F0D5FFB06A294614F021FD0B48C4
:1040D0008019808D002807D1FC1F053CA546F0BD46
:1040E000034803F010FC034803F00DFC010200003C
:1040F00005B1000001D10000340100000C010000F6
:1041000010300F2188437047F0B503AF9DB06E4665
:10411000F41D4134F4613361B0611546B26010356D
:104120000F2085436846441BA546204614F0E0FC5A
:104130007461B16860182C46691ACAB214F0E0FCC8
:10414000F51D1935284615F03BF8A885000419D14E
:10415000B868F060F01D193012F068FAF169086073
:10416000F51D49353069F1682A4611F049FF82B0E2
:10417000B06900900194452128467269234611F0E8
:1041800055FF02B012F03CFAF11D1931884203D1FB
:10419000F069006812F04AFAF01D4930242114F049
:1041A000B7FCF01D1930808D002803D1FC1F053CA1
:1041B000A546F0BD03F0A7FB70B59CB00D460446C4
:1041C0006E46304614F0FCFFB085000422D16846EC
:1041D00012F02CFA0A906968284608300CAD402687
:1041E0002A46334611F090FE2878F82101402970C4
:1041F000E87F7F210140E977E87F3043E877202698
:1042000028463146FEF791FD612029463246234675
:1042100011F058FF12F0F4F96946884202D10A9869
:1042200012F004FA0CA8402114F072FC6846808D4C
:10423000002801D11CB070BD03F065FB10B5144619
:104240000B4A4B469A58012A0AD0002A0CD1342C2A
:1042500001D0382C08D1FEF793FD2018423010BD54
:10426000202C01D1492010BD024803F04CFBC04670
:104270006000000005B10000F0B587B01F4604469D
:10428000059304923048494608580E9D0D990C9BA1
:1042900001280FD0002851D11646382D039132D075
:1042A000342D38D102930F9B00203422039903F060
:1042B000EDF92DE01F4608460E46294600F048F865
:1042C00000283DD004A80821FEF72FFD0598207195
:1042D00004992170020EE271020CA271000A607151
:1042E000080EE070080CA070080A607020460830C4
:1042F0002122394614F0FCFB2934204631462A4657
:1043000014F0F6FB1AE000203822029312F08EFA25
:10431000029B002814D0212220461946FEF71AFDE0
:104320002046423003992A4614F0E2FB0020009018
:104330002819423032463B46FEF739FD07B0F0BD42
:10434000024803F0E0FAC0466000000005B100003A
:10435000F0B503AF91B06E46F41D3534202911D16C
:10436000F060F51D0D35284614F02AFFA88585B2AA
:10437000002D09D0F01D0D3000218185206812F03C
:1043800055F929E0002029E03561F01D0D30B060BD
:1043900012F04CF92060684670606D46483DAD46AD
:1043A00002202870681C2022F16814F0A1FB412033
:1043B0002946024611F0C8FE7068854612F020F9C1
:1043C000B168884202D1206812F030F9F01D0D303A
:1043D000808D0028356905D168426841FC1F053C85
:1043E000A546F0BD03F08FFAF0B503AFA1B06E465D
:1043F0001D4672614C4A4B469B583C69FA68012B3A
:104400003061F26030D07460002B00D088E0382D2D
:1044100061D0342D00D083E0B160706849287169A3
:104420007ED2BB68F01D3130342203F02FF9002812
:1044300076D0F41D113420253069B16822462B4610
:1044400011F04CFD84B00095F06801907068029006
:10445000F01D313036490322234611F0F1FE04B03D
:10446000002857D1002456E0B160402C58D1706923
:104470002946FFF76DFF002852D0684670606C46F1
:10448000483CA54602202070601C71692A4614F041
:104490002FFB4125284621462A4611F055FEF31DE3
:1044A0003133284621462A461D4611F0F5FD86B0D7
:1044B00040200024B168009101940294F1680391B6
:1044C0000490012105222846336911F077FE06B0D9
:1044D00071688D461CE07068402821D10D46F01DA2
:1044E00031303822716912F0A1F9002818D086B055
:1044F00040200024009501940294F16803910490F7
:10450000F01D313001210522336911F057FE06B04C
:10451000002800D001242046FC1F053CA546F0BD24
:10452000024803F0F0F9C0466000000005B1000049
:1045300001060000F0B503AFA3B06E46F11D79315E
:10454000316170600124204604F0BEFCB060C01DE3
:10455000072188436946081A8546F0607461214640
:1045600004F0BEFC0446F51D5135284614F028FE23
:10457000A8850004254610D1F01D513012F056F8E0
:1045800031690860F11D11312846726806F09CFD02
:10459000411E8841F11D81310870B46812F030F875
:1045A000F11D5131884203D13069006812F03EF8A4
:1045B000284604F05DFDF068214614F0A9FAF01DCC
:1045C0005130808D002808D1F01D8130007871694C
:1045D0000840FC1F053CA546F0BD03F094F9F0B57A
:1045E00003AF97B06E460D46412901D0212D31D140
:1045F000B26101247060204604F066FC7061C01D49
:1046000007218843694631616946081A8546F0608A
:104610002146B46904F064FCF11D1531B060726884
:104620002B4604F03BFD411E05468D41002C07D072
:10463000002805D0F01D15304021FEF762FB2070E8
:10464000B06804F015FDF068716914F061FA306922
:10465000854600E000252846FC1F053CA546F0BD28
:10466000F0B503AFA3B06E46F11D11317161F0607A
:104670000125284604F028FCB060C01D07218843AE
:104680006946081A85463061294604F029FC05462A
:10469000F41D5534204614F093FDA0850004B06845
:1046A0002C461FD1F01D553011F0C0FF7569E8662A
:1046B000F11D153121232046F26804F0EFFC00289B
:1046C0002BD04120286082B002200090F21D1132D0
:1046D000F31D15332046F16804F0DEFD02B000281A
:1046E0001ED0B068054611F08BFFF11D5531884290
:1046F00003D17069C06E11F099FF204604F0B8FC38
:104700003069294614F004FAF01D5530808D0028D8
:1047100007D1FC1F053CA546F0BD044803F0F3F8A3
:10472000014803F0F0F8C04601D1000005B10000D7
:10473000F0B5A9B00D4604466E46304614F040FD73
:10474000B08500041AD1684611F070FF0A9018482D
:10475000784402681FAF4126384629463346FFF7A2
:1047600007FB0CAD0123304629463A4611F0C0FC48
:1047700008350D9A3046294611F0D0FC11F040FF63
:104780006946884202D10A9811F050FF1FA82821DB
:1047900014F0BEF96846808D002807D10CA90931B4
:1047A0002022204614F0A4F929B0F0BD03F0ABF8A4
:1047B0005C6F0100F0B503AFC1B06E46F41DC534A7
:1047C000F3627163B063346462634C4D284604F055
:1047D0007BFB0721CC43F063C01D20406946081ACB
:1047E00085467064294604F07BFBF060F11D413181
:1047F000842204F045FC30610120F0610502284666
:104800000AF074F87061C01D20406946091A8D468F
:104810003C4A7A44F468204631632B460AF06AF831
:10482000B060F51DC935284614F0CAFCA8850004FF
:1048300074623069B062B06830622ED1FC68BD68C5
:10484000F01DC93011F0F2FE326CD0620020C1437D
:10485000116090B040212C4A7A44F3690893099280
:104860000A91F16A0B910C950D900E900F940790A0
:10487000F11DF93106910590716B0491039002903E
:104880000190F01DC5300090706AB16A326AB36B56
:104890000AF0BAF810B000282DD0F06BB06175693D
:1048A00011F0AEFEF11DC931884203D1306CC06AEF
:1048B00011F0BCFE746A2046316A0AF085F8306B4C
:1048C000294614F025F9B06A04F0E7FBF01D4130E9
:1048D000842114F01DF9204604F0CAFB706CB16904
:1048E00014F016F9F01DC930808D002804D1FC1F8A
:1048F000053CA546F0BD024803F005F801030000A1
:1049000001D1000077660100F1650100B0B50446F1
:104910000920207218480025256060602046093073
:1049200016497944122214F0E3F8A5774320607702
:10493000572020774D20E0762046203010497944DA
:10494000062214F0D5F8204650300E4979442CC97F
:104950002CC00D48784401684068A162E06220469E
:10496000303021462831E16520660849794420220B
:1049700014F0BEF8B0BDC04651020000F66501005B
:10498000BF490100B0660100806601007066010049
:10499000F0B581B0164604460D1A681E054205D1D1
:1049A000B047294613F04AFF08460CE00020C043F8
:1049B000294613F0BDFE07464543B047A842FCD246
:1049C000394613F0B5FE001901B0F0BD80B503F013
:1049D0003FFB80BDB0B505460720284000240128D4
:1049E00015D0022815D10C48002908D04A461018C5
:1049F00011F0C4FD28060AD511F02AFA07E049464D
:104A0000081841218900002211F0E2FD04462046E9
:104A1000B0BD022002F077FFB0060000F0B585B00F
:104A2000DE4E4846805D0C2839DD0D2864D00E2806
:104A300000D188E0152800D0D3E0D94849460818AD
:104A40008079012806D1484680198079000701D471
:104A500000F027FDD34E4D460120A855AC19002784
:104A60006760204611F0E4FC6060022011F0F4FD64
:104A70006060CD4C29194968002900D15AE3CB4A1E
:104A8000904200D1ACE3002800D1A9E34D462A1999
:104A900057608847A819FB49443141604EE3052817
:104AA00079D00C2800D09CE0F3494F46012078547F
:104AB0007C1800256560204611F0BAFC6060022079
:104AC00011F0CAFD6060ED4C39194968002900D128
:104AD00039E2EB4A904201D100F06FFC002801D18D
:104AE00000F06BFC4E46321955608847E24830189A
:104AF000E4494431416031E2DF4E4D460120A85582
:104B0000AC1900276760204611F092FC606002201B
:104B100011F0A2FD6060D94C29194968002900D123
:104B200084E0D74A904201D100F047FC002801D12F
:104B300000F043FC4D462A1957608847A819D1490F
:104B4000443141607DE0CC494E46012070547518D7
:104B500000276F60284611F06BFC6860022011F09E
:104B60007BFD04466860C54D70194168002900D17D
:104B7000BCE0C348844200D11AE1002C00D117E107
:104B80004E467019476020468847BB483018BD49DB
:104B900044314160AEE0B8494F46012078547C185A
:104BA00000256560204611F043FC6060022011F092
:104BB00053FD6060B14C39194968002900D165E1A5
:104BC000AF4A904200D1F8E3002800D1F5E34E4609
:104BD000321955608847A8483018AA4944314160C5
:104BE0005FE1A54E4D460120A855AC19002767602E
:104BF000204611F01DFC6060022011F02DFD606068
:104C00009E4C29194968002900D1F9E19C4A90423B
:104C100000D14CE2002800D149E24D462A195760E4
:104C20008847A819974944314160EDE19449884289
:104C300000D1C2E3002800D1BFE39349884200D0ED
:104C400020E348462546041903F0F6F803F0FEF881
:104C50007A2004902752A06E002800D1ADE3484688
:104C6000801940688649884200D1A6E3002800D117
:104C7000A3E32C46484640196C26805D002800D1ED
:104C80009BE3804F11F08CFBB84204D111F0BCFBC8
:104C9000B84200D091E348460019825D049D415B13
:104CA000914200D3DFE20846382778434A46131979
:104CB0009A6E101868331B6A002B06D0984700289C
:104CC0000AD049460A19515B926E012802D188B276
:104CD0004743D01903F0BCF948460019415B491C11
:104CE0004153825D88B29042DED3BDE265484430D4
:104CF00084425DD14846461903F09EF803F0A6F8B9
:104D00007A2400203053B06E002800D155E3484685
:104D10005949401840685A49884200D14DE300285B
:104D200000D14AE3484640196C26805D002800D136
:104D300043E3544F11F034FBB84204D111F064FB4B
:104D4000B84200D039E348464019825D015B914288
:104D500000D388E20846382778434A4653199A6EAA
:104D6000101868331B6A002B06D0984700280AD019
:104D700049464A19115B926E012802D188B2474315
:104D8000D01903F065F948464019015B491C0153ED
:104D9000825D88B29042DED366E2C046C400000065
:104DA000B4070000F001000088020000445010B079
:104DB0004846411994200958002913D00A46643AFC
:104DC00000D23A464B465B191A5064290AD8902102
:104DD0005958002906D04A4652199823D3581350DF
:104DE000002088472648844200D1E6E2002C00D10A
:104DF000E3E248464019806E002800D145E348466A
:104E000040196C24015D7A26805B884200D33CE324
:104E10001C4F11F0C5FAB84204D111F0F5FAB842AE
:104E200000D032E348464019025D815B914200D3D5
:104E300026E30846382778434A4653199A6E1018D5
:104E400068331B6A002B06D0984700280AD04946D1
:104E50004A19915B926E012802D188B24743D0195A
:104E600003F0F6F848464019815B491C8153025D06
:104E700088B29042DED304E3F00100008802000013
:104E8000445010B0115010B0555010B0F94988423C
:104E900000D192E2002800D18FE2F749884200D089
:104EA00031E24846071902F0C7FF02F0CFFF7A2629
:104EB000BD53B86E002800D17FE24846EF49401844
:104EC0004068EC49884200D177E2002800D174E2C2
:104ED000484600196C25405D002800D16DE2E84F7E
:104EE00011F05EFAB84204D111F08EFAB84200D047
:104EF00063E248460019425D815B914200D3B2E112
:104F00000846382778434A4613199A6E10186833B2
:104F10001B6A002B06D0984700280AD049460A1978
:104F2000915B926E012802D188B24743D01903F0F9
:104F30008FF848460019815B491C8153425D88B255
:104F40009042DED390E1CB49884200D135E200287F
:104F500000D132E2C849884200D037E248460719FA
:104F600002F06AFF02F072FF7A26BD53B86E002885
:104F700000D122E24846C14940184068BD498842F4
:104F800000D11AE2002800D117E2484600196C252A
:104F9000405D002800D110E2B94F11F001FAB8428B
:104FA00004D111F031FAB84200D006E248460019A7
:104FB000425D815B914200D355E108463827784332
:104FC0004A4613199A6E101868331B6A002B06D0D4
:104FD000984700280AD049460A19915B926E012829
:104FE00002D188B24743D01903F032F8484600197D
:104FF000815B491C8153425D88B29042DED333E12C
:105000009F494431884252D14846051902F014FFA5
:1050100002F01CFF7A2004902F52A86E002800D1C5
:10502000CBE14846801940689249884200D1C4E1EA
:10503000002800D1C1E1484600196C26805D002897
:1050400000D1BAE18E4F11F0ABF9B84204D111F0A2
:10505000DBF9B84200D0B0E148460019825D049DFA
:10506000415B914200D3FEE00846382778434A4628
:1050700013199A6E101868331B6A002B06D09847D4
:1050800000280AD049460A19515B926E012802D1C4
:1050900088B24743D01902F0DBFF48460019415B54
:1050A000491C4153825D88B29042DED3DCE0484621
:1050B0000019806E002800D175E1484600196C2562
:1050C000415D7A26805B884200D36CE1F84F11F095
:1050D00067F9B84204D111F097F9B84200D062E103
:1050E00048460019425D815B914200D356E1084673
:1050F000382778434A4613199A6E101868331B6A8A
:10510000002B06D0984700280AD049460A19915B1F
:10511000926E012802D188B24743D01902F098FF5D
:1051200048460019815B491C8153425D88B2904218
:10513000DED334E1DE494431884251D14846051975
:1051400002F07AFE02F082FE7A2004902F52A86EBE
:10515000002800D131E1484680194068D34988428F
:1051600000D12AE1002800D127E1484600196C2629
:10517000805D002800D120E1CD4F11F011F9B84237
:1051800004D111F041F9B84200D016E148460019A7
:10519000825D049D415B914265D208463827784381
:1051A0004A4613199A6E101868331B6A002B06D0F2
:1051B000984700280AD049460A19515B926E012887
:1051C00002D188B24743D01902F042FF4846001985
:1051D000415B491C4153825D88B29042DED343E07B
:1051E00048460019806E002800D1DCE048460019CE
:1051F0006C25415D7A26805B884200D3D3E0AC4FBA
:1052000011F0CEF8B84204D111F0FEF8B84200D047
:10521000C9E048460019425D815B914200D3BDE080
:105220000846382778434A4613199A6E101868338F
:105230001B6A002B06D0984700280AD049460A1955
:10524000915B926E012802D188B24743D01902F0D7
:10525000FFFE48460019815B491C8153425D88B2BC
:105260009042DED39BE00846904200D0A5E011F0CA
:1052700035F9A2E0445010B0555010B0F0010000D4
:10528000115010B048460019806E002800D18AE005
:10529000484600196C25415D7A26805B884200D320
:1052A00081E0834F11F07CF8B84203D111F0ACF8E3
:1052B000B84278D148460019425D815B91426DD277
:1052C0000846382778434A4613199A6E10186833EF
:1052D0001B6A002B06D0984700280AD049460A19B5
:1052E000915B926E012802D188B24743D01902F037
:1052F000AFFE48460019815B491C8153425D88B26C
:105300009042DED34BE0484600198C2140580028DB
:1053100005D049468919C978490802F0C1FE4846B6
:105320000019806E00283ED0484600196C25415D6A
:105330007A26805B884236D25D4F11F031F8B84250
:1053400003D111F061F8B8422DD148460019425DF1
:10535000815B914222D20846382778434A46131986
:105360009A6E101868331B6A002B06D098470028E5
:105370000AD049460A19915B926E012802D188B27F
:105380004743D01902F064FE48460019815B491C6E
:105390008153425D88B29042DED300E008469042DD
:1053A00001D111F09BF8484600196C21415C7A222A
:1053B000805A884201D311F0F7F811F0F5F800286F
:1053C00001D102F07FFB012005B0F0BD4A4636480E
:1053D00014186C25605D0490A06E03909219D37927
:1053E000967951791079D278274668373F6A0092CA
:1053F00001970002401882B23002C01883B20398AD
:10540000049902F09BFDA06E274C002845D0484629
:105410000019415D7A26805B88423ED2244F10F00D
:10542000BFFFB84203D110F0EFFFB84235D1484674
:105430000019425D815B91422AD2084638277843A1
:105440004A4613199A6E101868331B6A002B06D04F
:10545000984700280AD049460A19915B926E0128A4
:1054600002D188B24743D01902F0F2FD4846001934
:10547000815B491C8153425D88B29042DED308E0D3
:105480000846904201D111F029F8484640198CE7AE
:105490000846904201D111F021F848460019415DBB
:1054A00085E7102002F02FFA88020000445010B067
:1054B000115010B0D0B502AF90B06E46F31D31332D
:1054C000414A49468958012902D1414802F01BFA54
:1054D0003E4A49468A189178012959D8D17800293D
:1054E00056D115793C4979440968A94250D1394AC5
:1054F000494689184A78FE21114002294CD1B360EF
:10550000F060E81D072188436946081A70608546E7
:10551000F41D0934204613F053FEA085000418D171
:10552000F01D093011F082F8B16808604946316019
:1055300028480818183074682146FDF717FA2348E0
:1055400031680818401D21462A4602F0E2F9002879
:105550001ED1746811F054F8F11D0931884203D14D
:10556000B068006811F062F82046294613F0D0FABE
:10557000F01D0930808D0028F4680FD1208810219B
:10558000FDF794FB00280BD06720000202F0BBF966
:105590000F48001D02F0B7F9D120000202F0B3F964
:1055A00049460A480818228880180A4A8918891C1E
:1055B000102213F09DFA20881030208001F0C2FFE5
:1055C0000920000302F09FF960000000B00600000F
:1055D00001B1000010060000D2570100D0B502AFA3
:1055E00090B06E46F31D31333D4A49468A18917892
:1055F000012959D8D178002956D115793B497944E8
:105600000968A94250D1384A494689184A78FE218A
:10561000114002294BD1B360F060E81D0721884397
:105620006946081A70608546F41D0934204613F057
:10563000C7FDA085000418D1F01D093010F0F6FF59
:10564000B168086049463160274808181830746806
:105650002146FDF78BF9224831680818401D214684
:105660002A4602F056F900281ED1746810F0C8FFCF
:10567000F11D0931884203D1B068006810F0D6FFEF
:105680002046294613F044FAF01D0930808D002889
:105690000FD1F46820881021FDF708FB00280AD0FC
:1056A0006720000202F02FF90E4802F02CF9D120F9
:1056B000000202F028F94946094808182288801893
:1056C000094A8918891C102213F012FA2088103018
:1056D00020800FF073FF0920000302F014F9C04688
:1056E000B006000005B1000040080000BA560100F5
:1056F000D0B502AF82B06E460446264849460858E7
:10570000012802D1264802F0FEF8234D48464019F0
:105710008078012824D8484640190179C078084388
:105720001ED11E484946095CFE220A40022A1BD1AE
:105730001C49794409687160C91D072291436A4672
:10574000511A4A46101818308D463160FDF70EF98F
:1057500020887168FDF7AAFA002809D0672004E0C4
:105760000F48001D02F0CFF8D120000202F0CBF864
:10577000484640192188401822CE2A46083E13F098
:10578000B7F920884019208001F0DCFE09200003D1
:1057900002F0B9F860000000B0060000100600003A
:1057A00001B1000086550100D0B502AF82B06E464F
:1057B0000446224D484640198078012824D848469E
:1057C00040190179C07808431ED11D484946095C3B
:1057D000FE220A40022A1AD11B49794409687160E5
:1057E000C91D072291436A46511A4A4610181830BB
:1057F0008D463160FDF7BAF820887168FDF756FADA
:10580000002808D0672003E00E4802F07CF8D12081
:10581000000202F078F8484640192188401822CE4C
:105820002A46083E13F064F92088401920800FF0C2
:10583000C5FE0920000302F066F8C046B00600006D
:105840004008000005B10000DE540100F0B503AFD0
:105850008BB06E46F060C94A484680188278726103
:10586000012A00D986E10579CB4A7A441368CB4AEC
:105870007A44146862007362D2183262521CF56175
:10588000AA4200D976E1C578BD4A48468058012829
:10589000B16104D0002805D1022D03D36AE1002DA7
:1058A00000D067E135614846B4494018716A401834
:1058B000451D28462146FDF724FA00280ED1F21D89
:1058C000213228462146FEF78AFE002800D151E108
:1058D000F01D21300078002800D04BE1706A2018BC
:1058E0004946A64D49190818401D002221467262FA
:1058F000FEF775FE002800D13CE148464019316AA8
:1059000040184079022805D3801E012800D931E1D2
:10591000092000E001209C4D4946495D002900D145
:105920001EE1494649190C4618341CCC496A1943F2
:1059300014430C4300D013E1494649198A68C968E9
:105940001143326A8018002900D10DE1F1698842C3
:1059500000D90FE106D18D4849460818412113F0BE
:10596000D7F891E08E49794409680C18611CF269F6
:10597000914200D9FEE04946804A89180818401D26
:105980003062FEF7D7FD002800D1F3E049467C489D
:105990000858F269121B794BC9180919491D0128C9
:1059A000F261F16013D0002815D13069002800D1D0
:1059B000CBE001280FD14846411968463838854662
:1059C00049683060726901F00DFF342203E03069EC
:1059D000002800D1AEE048464419A068E1681546A9
:1059E000FEF72CFC3061C21D07218A4369467160B5
:1059F0006946891A8D46B160A268E36884B0306A4E
:105A00000090306801900295756903950846FEF78D
:105A100033FC04B0A36C84B00095F0680190F06989
:105A200002904C34B06831692246FEF7DDFC04B0C8
:105A3000002800D19EE0484651494058012812D024
:105A40000028514D1ED151484D462C184121204669
:105A500013F05EF84C4829184B4D8A6C4C312046A7
:105A600013F046F80EE049484D462C1841212046D7
:105A700013F04EF84448291805468A6C4C312046EC
:105A8000FDF768F970688546484640194078002857
:105A900066D03F484D462C182121F161204613F075
:105AA00037F8F5603848281870618268C368344850
:105AB00028183062007A82B000902046FDF777F90E
:105AC00002B0204613F0C6FB20213161215420187A
:105AD000716A4170356A1B352046294613F08AFBEE
