:02000004C0DE5C
:1000000070B58CB062B6002808D02D494A46531806
:100010000168642218461BF0E7F804E028484946C6
:10002000081804F03FFD274E18F084F9484680195F
:100030004F218A000024214607F059FE07F03CFEBC
:100040006D4628461BF038FCA88580B2102805D1E3
:10005000684684850A9818F07BFDE5E7002809D0FA
:10006000684684850A9818F073FD02F0FBFD20466F
:100070000CB070BD684618F06BFD0A9008F0BCF833
:10008000052000242146224618F090FC0E494A46DD
:1000900051184862204619F015FE0125284619F02E
:1000A00011FE204607F016FC2046214600F0E8FF2E
:1000B00006497944284600F0E3FF07F0FDF9C04601
:1000C0006000000088020000C4070000C7BB0100F8
:1000D000F0B593B012930F46044600787F2101409B
:1000E000052900D1CCE215460E91208B00F0D8FAFC
:1000F00000280F95119765D04279867900200A90E3
:10010000002F67D0002D65D00992208BE188129ACC
:100110000092EBB2643189B23A4600F0E7FAE18826
:100120000022052D0D9208960C905AD3884258D97A
:10013000208B129900916421914A7A44032300F0A4
:10014000D5FA0A9068083E18E188002810904AD035
:100150000C9A8A4247D92F1A45D000200B90208B49
:10016000129D009589B2109AD3B2119A00F0BEFA8E
:100170000C90E188208B0095FBB2324600F0B6FA75
:100180000A990C9A51180D18E1888D420C952AD9BC
:100190000B9F012F06D0002F05D11098401E0F9BFA
:1001A000119A03E0761C0F9B119A1098002810906A
:1001B00019D08D4217D90120B843921BD7180B9044
:1001C000CDD110E0002110910C910A460E46084650
:1001D0000A9103E00A9910910C9108460B910E9B2D
:1001E00033E0164610950A9603239D03208B0540A5
:1001F0000122D703BD420CD09703BD420D9D0B9544
:100200000F9D119F089E0CD10C9E891B089E0B917F
:1002100007E00C9D6D084908491B0B910F9D119F2C
:10022000089E190308405103884205D011038842F3
:1002300008D12089801B06E07008C0432189490845
:10024000081800E00D980E9B099A032B07DC0D900F
:10025000012B5FD0022B0BD0032B5BD010E2042BC1
:1002600053D0062B00D196E10D90072B00D007E26A
:10027000207B01282CD10992072B314600D0002188
:1002800004200790205E0891421A0227E15F60690E
:10029000072B099B00D0238900930B9D2B4618F058
:1002A000E5FB0C982818E15F4118E288131A0798BB
:1002B000205E089A821A60690E9D072D01D025895B
:1002C0000995099D009518F0D1FB0F9D119F0E9B7C
:1002D000002F00D1D4E1002D00D1D1E108960220F9
:1002E000205E0C9004200790215E206909906269CD
:1002F000208BE68825890397109F0497129F059706
:10030000072B00D15FE10D9B5EE10D90E07A0028A4
:1003100000D1B7E1E3885A0821894808824216468D
:1003200000D30646E57AAE4203D88242154600D392
:100330000546207B012825D104201090225E02274B
:10034000E65F20690091A9196E009B1B18F08EFBD7
:10035000E15F1098225E2089831B20690093AA1810
:100360002B4618F083FBE15F1098225E2089831BE7
:100370002069E6880093AA18491B89192B4665E075
:1003800028BB010004200C90225E0226A75F109675
:1003900060690091E9196F00DB1B18F067FBA15F32
:1003A0000C9EA25F2089C31B0E9760690093AA1858
:1003B0002B4618F05BFB1098215EA25F2089C31BBF
:1003C0006769E0880093AA18EB43C91809183846F2
:1003D0002B4618F04BFBA05F0A903746109EA15F9A
:1003E0002269E388A07A009069180E981B1A1046BB
:1003F0000A9A18F03BFBE05F0A90A15F2069099020
:100400002289E388A07A009069180E9FDB1B0A9866
:100410008018421E099818F029FBA05F0A900C9ED4
:10042000A25F2089C11BA37A20690091AA180A99AA
:1004300018F01CFB1098215EA25F2089C61BA37ACE
:100440002069E7880096AA18C919491E18F00EFB02
:10045000022D119869D3207B012802D0A07A281A96
:1004600000D20020109004200C90205E0A90022000
:10047000215E07460E9020696369C0220092109E9B
:100480000196029369180A9AAA182B4600F0D9FA25
:100490000C98205E0A90E05F0890206909906369DB
:1004A000E188A07A30220092019637461096029396
:1004B0002818089A5118091A0A982A1809982B46D8
:1004C00000F0BFFA0E98205E0A900C9EA05F089084
:1004D0002069099063692189A07A0C220092019712
:1004E00002932818089A51180A1A0A982918099884
:1004F0002B4600F0A6FAA05F0C900E98215E2069B2
:100500000E9063692689E788A07A03220092109AE8
:10051000019202932818C919091A0C9A101A821903
:100520000E982B4600F08DFA119800280F9800D1F4
:10053000A6E0002800D1A3E0237B10211420012B8A
:100540000A4600D00246012B00D00846A15810915F
:1005500020580E900220215E0420255E208BE68824
:100560002789A37A119C03940F9C0494129C0594F0
:100570000124E443002B00D05C430D9ABB1A1B19E5
:100580000B9FF61B341955190095019402937B18A3
:100590000E99109A72E00420205EE37AC2180220BD
:1005A000205E19182069267B0025012E03D0A67A2B
:1005B000B34200D99D1B6469FF2600960195029401
:1005C00000F03FFA5CE000231093ED1A0B9FF31B41
:1005D000019302950E9B072B01D00D9B01E0089B18
:1005E0005B420D935B1800930B9B0C995B18099968
:1005F00000F0CBF801460A98002841D0079FE35F3E
:1006000020690C9060690E90208B0990E5882689FE
:100610000891032121487844109AB61A0B9AAD1A12
:100620000D9AD31800AA68C203900491129D0595F3
:10063000089883B209980C990E9A00F0A6F80E90CB
:10064000E35F20690C9060690990228BE688248919
:100650000F98119FC7190A983F1A1099641A0B999D
:10066000761A0D99CB180093019602940390049783
:1006700005950E9883B210460C99099A00F085F8FA
:1006800013B0F0BD0420225E0220215EE3882069C1
:100690002489009418F0EAF9F2E7C0464CB601004C
:1006A000F0B581B00E4D05400E48784401688800D1
:1006B0000D4A7A448018001F4E1C761E0CD0071F6E
:1006C0000468204608F090FB0068A8423846F4D140
:1006D000204608F089FB00E0002001B0F0BDC046D4
:1006E000FF0F000046CA010032CA0100F0B583B016
:1006F0001C4615460191FFF7D3FF0026002841D084
:10070000002C019A3ED00026029003892F789F4248
:1007100002D34189B94213D20A2F33D00D2F31D0E1
:10072000B809032803D33F20074039461EE078B2BA
:10073000002100281AD5B806009109D50F2008E03D
:10074000F91A8F00C06808F04FFB019AC15D0DE0F7
:100750000E20FFF7A5FF0028019A009906D0C06877
:1007600008F042FB019AF906490E415C002A03D0C9
:10077000B0B20818904205D86D1C641E7618200689
:100780000298C2D1B0B203B0F0BDF0B5A3B00A93E5
:100790000F91149110921392FFF782FF002800D15D
:1007A00044E12C9907910B90047900200990C043F3
:1007B0000890022C5DD313AD281D3C210D901AF03A
:1007C0000DFD10981390089AA240D043129080001B
:1007D0000F9929500E92901C0C900026F7000F984C
:1007E000F840C5B21098F840C4B2A542284600D3DC
:1007F0002046A542294600D82146081A401C1299D5
:100800001AF028FAA542119617D90221C9430E9A67
:100810008A422AD801210D9A0C9B05464D432D1979
:10082000FF2D00D3FF25BD4016682E4340C25D1C3E
:10083000491C9D422B46F0D217E00221C9430E9A73
:100840008A4212D801210D9A0C9B129C641A4443CF
:100850006419FF2C00D3FF24BC401668264340C215
:100860005C1C491C9C422346EFD2119E761C032E31
:10087000B4D1289C079D002D00D1D9E02A98299950
:100880002B9F02190A9809180D9103460B99099894
:100890002E4601251195AE1B3D780D2807D10A2D56
:1008A00005D1761C7F1C0A20012EF5D1C1E00E93E4
:1008B0000F94134608894A791292854204D30B9902
:1008C0004989A9420B990FD20D2D01D00A2D27D1AC
:1008D00012980F9A121814461018984200DDADE0D5
:1008E0001A4628460A9B67E00C93281A099085004F
:1008F000086908F079FA04460B98C06808F074FAA1
:1009000040194088201806900B98C06808F06CFACF
:100910000E9B455D0B98C07907900F9C224613E013
:10092000C02D0C9305D33F212940002009950D4689
:1009300005E068B2002845D40020099505460790D7
:1009400006900F9C22460E9B58190D99884207D994
:100950001298241820180C9988426ADC0A9B2246B7
:100960000698002819D00F920246129868430B99F6
:100970000979484304900392029113A801901198B9
:100980008840009018460F992A4611951D46129BE3
:1009900018F04AF82B46119D08E012980090109824
:1009A00019460E932B4618F061F80E9B0B990C9A82
:1009B00007982818C3180998089D75437F1C002EB6
:1009C00037D065E7A80601D50F2000E00E200F9C68
:1009D000FFF766FE002823D00F90006908F004FAA4
:1009E00012900F98C06808F0FFF9E906490E0991C6
:1009F000401840881299081806900F98C06808F0AF
:100A0000F3F90999435C0B98807922180F98817942
:100A1000521A407912900020079009951D4692E7DE
:100A2000002009950546079006908BE7002003E01B
:100A30000A9B98B22104081823B0F0BD0E9880B22A
:100A4000F8E7F0B59DB01B921A9106462398411E17
:100A500002468A4118921393191A1291002901DC57
:100A6000002100E00121139A002A00D5C0E1189A64
:100A70000A401892249910912299139FC21B039245
:100A800080220A400A9240220A400D9220220A4007
:100A9000099210220A400C9208220A40089204226D
:100AA0000A400B920123129A9C1A069402240C40CD
:100AB000079419400E911C93DC1B1A994018C01B17
:100AC0000590401C04900025E943501E0F90169598
:100AD0001196481C17900E9800281995159114949A
:100AE00006D10798002855D0189800281FD147E054
:100AF0001898002838D01C9C00940F983B1A1B981B
:100B00004018451C10981A9E31462A4617F0AEFF31
:100B10000094149CB819119E0699411830462A4633
:100B2000199D129B17F0A2FF0798002832D01B983E
:100B30003D181398B8420AD01C9800900398159954
:100B40004018831C10981A992A4617F08FFF1C989A
:100B50000090059815994018811C30462A46129B32
:100B600017F084FF199D15E01C9800901B984218FF
:100B700030461A993B4617F079FF0798002809D0AC
:100B80001C9800901B983818421E30461A99179BE3
:100B900017F06CFF0B98002806D1089800285AD04F
:100BA000189800281FD133E01A98C51B1898002800
:100BB00020D01C9C00940F9EBB1B1B9815994018BD
:100BC000421C02921098294617F050FF0094149C82
:100BD000A91B1198029A119E129B17F047FF0898C3
:100BE0000028199D37D01398B8421BD11B983E1886
:100BF0001C9827E01C9800901B98159942183046C5
:100C000029463B4617F032FF08980028199D22D04C
:100C10001C9800901A9841191B983818421E3046AB
:100C2000179B16E01C9C00941A9841191B983E18BB
:100C30000398159A8018831C1098324617F016FFF7
:100C40002046149C0090049841191198324606469B
:100C5000129B17F00BFF0C98002806D1099800286A
:100C600053D0189800281ED146E01B9845191898B3
:100C7000002835D01C9C00940F983B1A10981A9E9F
:100C800031462A4617F0F2FE0094149CB819119EC2
:100C90000699411830462A46129B17F0E7FE09983C
:100CA0000028199D31D01B98C51B1398B84215997F
:100CB0000AD01C98009003984018831C10981A9929
:100CC0002A4617F0D3FE15991C98009005984018F5
:100CD000811C30462A46129B17F0C8FE199D14E06D
:100CE0001C98009030461A992A463B4617F0BEFEE3
:100CF00009980028199D08D01C9800901B98C21BC9
:100D000030461A99179B17F0B1FE0D98002806D1AE
:100D10000A98002856D0189800281ED131E01B9858
:100D200045191A98C61B189800281DD01C9C0094C1
:100D30000F983B1A109831462A4617F097FE0094F8
:100D4000149C0F98311A119E30462A46129B17F0B8
:100D50008DFE0A980028199D34D01398B84219D1F5
:100D60001B98C21B1C9826E01C98009011983146D5
:100D700006462A463B4617F079FE0A980028199D38
:100D800020D01C9800901A9841191B98C21B30461D
:100D9000179B15E01C9800901A9841191B98C41BCA
:100DA0000398159A8018831C1098224617F05EFE4F
:100DB00022461C98149C0090049841193046129BBE
:100DC00017F054FE791E012C384600DB0846169AAF
:100DD000521C012C169201DB169A521A510061180E
:100DE0004C1C6D1E179981421397074600DA70E676
:100DF0001DB0F0BDF0B589B08E68022E20D80C462B
:100E00000421415E08910221405E05902068069011
:100E100060680790E06807F0E7FF0546A76820696B
:100E200007F0E2FF0ECC0124B4404B43534300A92A
:100E3000B0C103900493089905AB0DCB17F0F4FDF6
:100E400009B0F0BD70B584B000200390029002ADEF
:100E500008242846214617F093FDA87802994140BE
:100E600003984840A97941402970E8786A7842405F
:100E700068795040EA7942406A70D0B20090064DDD
:100E80004E467019401CCBB21721044A7A4407F031
:100E9000BBFD745504B070BD0000000060AE0100E1
:100EA000F0B58FB007AD2846183007211AF096F933
:100EB0000620687011202870A81C2449794410224B
:100EC0001AF092F90024EC751820A8756C750C20A6
:100ED00028751220E8740520A8741A484946081895
:100EE000C588868818480F1838461AF02FFD0097D5
:100EF000C3B230462946224601F064FA0125002893
:100F00001CD1114E182007A901F02CFB002815D187
:100F10004846851928461AF019FDC0B20094019080
:100F2000029503940494059406943021602220468F
:100F3000234601F019F80546401E854128460FB0AA
:100F4000F0BDC046180000000000000038C20100DB
:100F5000F0B589B0444F4846C0190021818414215E
:100F6000017301F0E1FA002872D1FFF76BFF002056
:100F700006213F4A7A4401F085FA002868D101F041
:100F80004FF9002864D14846C01901460831821D36
:100F900000920191031D012000241822214601F036
:100FA000AFF8002854D10125284601F02BF800287D
:100FB0004ED104942D4803900295102601960820E6
:100FC00008900090284629462A462B4601F03CF816
:100FD00000283DD14846C0190E3000900220254916
:100FE0007944012509232A4601F038F900282FD138
:100FF0004846C119C88910310A2200961646019444
:10100000029403920495059102211B4A7A44992384
:10101000079101F073F900281AD14846C119C8890F
:101020001231089A00920192079A0292039604954F
:101030000591124D7D44992311462A4601F05EF92F
:10104000002805D10120072101F04AFA002802D02A
:10105000012009B0F0BD4846C019C462FFF720FF67
:10106000411E8841F5E7C0461800000040E201003B
:10107000B0C1010014C10100F8C00100E0C00100CE
:10108000F0B581B004461E484F46381848211AF082
:10109000A5F81C48242139541B49791800264E60B4
:1010A0003D18686800906E60284617F053FC17489A
:1010B00044213954009969603818002C01D1214627
:1010C00000E00321C170012181704670042117F0F6
:1010D000E7FC0B497C500E4D002C0AD07819406A71
:1010E000002806D10020014606F0AEF8FFF730FFD9
:1010F00001E04846465048464019C68301B0F0BD5D
:1011000018000000F001000088020000C400000088
:10111000C4070000B0B50848494624220A54074ACB
:101120008A18002353600C1865686360204617F026
:1011300011FC6560B0BDC046F001000088020000EF
:1011400010B504464068083000F004F8411E88419C
:10115000207010BDF0B583B004464078E51C012630
:101160003E2809D0FF2832D00528304600D0C3E001
:10117000FFF7D0FF00F0DEF8E078012800D0BAE0F9
:1011800068484F4602963E1814203073A878E978D4
:101190000902081870817D21890000910C21182214
:1011A0000024234601F006FA5F482421395434769E
:1011B0005F497918CC835D4979184C603D186E6899
:1011C0006C60284617F0C6FB6E60029894E02878A1
:1011D0006978090208180321890288420CDC4C490D
:1011E000884219DC4D4988421DD04D49884200D0C3
:1011F00081E000F08BFA7EE0424988422ED04249DD
:10120000884243D04149884275D14648494608182A
:101210002979C91E01736EE03E4988426ED1686823
:1012200000F0D4FA67E0E079401E012806D83D4876
:10123000494608184089052100F0A8FF3A48494668
:1012400024220A54394A8A18002353600C1865680E
:101250006360204617F07EFB65604CE02879697971
:10126000090209182F4A48468018008A801C8842C3
:1012700041D1607B01283ED1A07B002830463BD184
:101280004846821801201076918235E028796979E4
:1012900009020918234F4846C019408A401C884259
:1012A00029D14846C01900228263007E002808D058
:1012B000607A21460A3100F073F8287969790902C9
:1012C0000918A878EA78637A0A3400930194120224
:1012D00010180022134601F0A5F800280CD148464A
:1012E000C019826B002A06D04846C119088A3C31D1
:1012F000D2B200F02FF8304603B0F0BD0649884264
:1013000033E7C046010C0000130C0000030C000082
:1013100004040000090400000504000001040000AA
:101320000204000018000000F00100008802000024
:10133000C407000005484946081800220276044BFD
:10134000C918CA834281102006F0F5FC180000007D
:10135000C4070000F0B581B014460D4606460E499C
:10136000484640187D210901C18348460B49401871
:10137000C0890095002731463A46234601F022F8FD
:101380004328F2D04528F0D06428EED048460249E0
:101390004018C78301B0F0BDC4070000180000006A
:1013A000F0B581B00246784D484643190020986355
:1013B000002A2AD04B465B1925241B5D002B3AD10D
:1013C0000B78012B39DD022B4ED0082B5FD0052B7B
:1013D0001CD14B465B1924241B5D002B2BD1032A07
:1013E000034613D34B465B199C8B230A4E789E42CF
:1013F00003460BD1E3B28E789E42034606D1002C01
:1014000074D0042A76D2072300E06723494649199D
:101410003C220E248C5405228A633C3148804B7058
:101420000871484641190022CA628A84574BC01885
:1014300008624A838A8301B0F0BD002B40D0012BA3
:10144000E4D10523032AE1D34C78002CDED18C783B
:10145000002CDBD148464019092A00D309228263B7
:101460003C3019F0C5FEDCE70423032ACED34C78C8
:10147000002CCBD18C78002CC8D148464019092AC1
:1014800000D3092282633C3019F0B2FED3E7062371
:10149000052ABBD34A78002AB8D189780029B5D16A
:1014A000484640190021C1633C21082242540621CC
:1014B000816301463C3101220A71007B4871BAE721
:1014C0000323052AA2D34A78002A9FD189780029CC
:1014D0009CD14846401944210022425402644021D4
:1014E00004234354C263092181639AE7052A0CD27D
:1014F00008238BE7D21E48464019468B93B2B3426D
:1015000000D81646006AC91C1DE04B465C191F4EE8
:101510009B190E79CF7823623B029E196683B7B27E
:10152000E7620123052A00D170E74124A400A74205
:1015300000D96BE7501F82B2BA4200D8064648462F
:10154000124A8018491D124A4F46BA187D231B01C2
:10155000D383B4B2224619F04BFE7819016A0919F7
:101560000162418B891B4183828B521C8283080458
:1015700000D060E74846064941180022CA83401956
:10158000C06A488057E7C04618000000C006000047
:10159000C4070000F0B503AF89B06E464E4B4A4613
:1015A000D418227BD21D07239A436B469D1AAD4661
:1015B0002422A35C002B01D0012088E030624C463D
:1015C000134645482218012073613061D054306AB7
:1015D00010620020908351830246404820184280C8
:1015E000002962D00B46681D3060E81C7060F56011
:1015F000AA7005212970100A68704846364C0019F7
:10160000047B98B2F2611204336212D04A46324926
:101610005218E41E844200DB0446116AB161A5B28F
:1016200070682A4619F0E4FDB06940192546032385
:1016300014E0B1612B711A0AEA704A462649521821
:10164000651F854200DB0546146AAAB2B2603068A5
:10165000214619F0CDFDB0682018B36949461E4AED
:101660008918252432690A55F269521C8A83326A24
:10167000521B4A8308627069085C002821D04846E2
:10168000154934624418208A5919CAB2F5682946A6
:10169000FFF760FE0020316A6054638B002B04D09A
:1016A00048460D494018828BA2E7494600200B4D61
:1016B0004855094A8A187369D0549083491948805B
:1016C00005E0484604494018002101550220FC1F4E
:1016D000053CA546F0BDC04618000000C407000048
:1016E00080B582B06A46074B1846114601DF0648AE
:1016F0000099814202D1019802B080BD042006F019
:101700001AFBC046EC890060D4890090F0B581B026
:1017100000251349164A7A44284603F005FA034681
:1017200010484E4630180621016343630E4FF419EA
:10173000E16025722046103010210E4A7A4407F0ED
:1017400063F92320F05518206060084830180A49D2
:1017500079444160204617F0FDF801B0F0BDC04665
:1017600040420F0018000000F00100008802000055
:10177000C7FFFFFF70A201002900000070B50446FA
:101780000E48494624220A540D4A8A180023536001
:101790000D186E686B60284617F0DCF86E6009481B
:1017A000844207D1084849460818416B408900F037
:1017B00081FC70BD0120FFF763FC70BDF0010000EB
:1017C00088020000115010B01800000070B50346E8
:1017D0000F484D4628180621016343630D4EAC198E
:1017E000E160012020722046103010210B4A7A441B
:1017F00007F00AF92320A855182060600648281829
:10180000074979444160204617F0A4F870BDC046EE
:1018100018000000F001000088020000BEA10100D5
:101820001F00000070B504460E48494624220A54A1
:101830000D4A8A18002353600D186E686B602846A5
:1018400017F088F86E600948844207D10848494675
:1018500008184089012100F0BFFC70BD0120FFF78E
:101860000FFC70BDF001000088020000115010B0A4
:101870001800000070B50446052119F071FA0D46F4
:10188000022905DC012D0BD0022D07D104260AE028
:10189000032D07D0042D01D1012604E0002602E02B
:1018A000062600E00326E000052119F0D3F9002DFB
:1018B00000D0401C801970BDF0B585B00E46039075
:1018C000052704921046394619F04AFAFF430120D1
:1018D000022907DC012912D002290BD10290BF1C7A
:1018E000042012E003290DD0042903D102907F1DAA
:1018F00001200AE0002701200190029706E00290F3
:10190000062002E00290FF1C032001900498FFF7DC
:10191000B1FF38183BD0002422462346D5086F1C5F
:1019200004998F42214600D2F15D775D07251D4065
:10193000032D05DC012D0ADC002D11D1FF0819E073
:10194000052D08DC042D0ED1C9093D0710E0022D3C
:101950000CD1B90608E0062D16D14909BD0707E0EC
:1019600089097D0704E07906CF0E03E00909FD0728
:10197000ED0E4F190B497944C95D039DE954521D81
:101980005B1C9842CAD102E01F210F40F2E7029986
:10199000002905D0039908183D22019919F02CFC63
:1019A00005B0F0BDB5B70100F0B583B00F460546F0
:1019B0003D213A4619F032FC0646EC190022D0438C
:1019C0000290002E08D0A64206D0304601783D296C
:1019D00038D1401C8442F9D10192002E00D0771BEF
:1019E00005214F43FF08384619F0BAF9022905DCF2
:1019F000012909D002290BD104200AE0032905D0CE
:101A0000042905D1012004E0062002E0032000E0C3
:101A10000198002E00D0A61BB04213D1002F14D085
:101A20000B4E7E443C46287801F05BF901462022AB
:101A3000304619F0F3FB002804D06D1C641EF2D16F
:101A4000384600E0029803B0F0BD0020FBE7C04636
:101A500009B70100F0B58BB0174605460991084655
:101A60001146FFF7A1FF002800D195E000244B4963
:101A700079440A91214603942246019708920590E1
:101A800006953D4605271046394619F0E3F8064607
:101A90007E432046394619F0DDF807460998C05DB7
:101AA00001F01FF9014620220A9819F0B7FB0790B0
:101AB000781CA842039B19460DD20999085C01F0D5
:101AC00010F90146202204940A9C204619F0A6FB36
:101AD000039B011B049C0491089A961BB91CA94204
:101AE0002F460FD20998405C174601F0FAF80146DC
:101AF000202225460A9C204619F090FB3A46019F79
:101B0000031B2C460A980799091A012E10DD022E94
:101B100022D0032E25D0042E069D0598029E32D198
:101B200013461F22049E16401A46490176182AE0E1
:101B3000002E21D0012E069D0598029E23D18907F3
:101B4000090E1646049AD206920E5118DA06D20FE2
:101B5000891832460E4616E008010499C906090F95
:101B60000EE0C907090E1046049AD206520E51180B
:101B70000246D806800F03E0C8000499C906490F41
:101B80000E18069D059802962E7008346D1C401E96
:101B9000521C002800D071E70BB0F0BDBBB60100AD
:101BA000F0B503AF8DB06E46154631620022002DB0
:101BB000144608D00024316A095D002903D1641C51
:101BC000A542F8D12C463060291B8A204843642165
:101BD000326319F03FF8024608323B4911406A4629
:101BE000521A3061411C954672601046F16019F03E
:101BF0000BFB326BB460A5422FD9306971680818AD
:101C000070610020B0610346B168F561306A7162AD
:101C1000405C0146B3621943B26918D0002273696F
:101C2000F362326319780D0205433A2428462146AF
:101C300019F010F8F36A326B4443291B1970C0B2D3
:101C40005B1E521C0028EBD1B16A8A42E8D3716A4C
:101C5000491CF569A9421346D8D1F068841A306945
:101C6000A04235680ED330697168091850420A18CD
:101C70005278002A03D1401CF9D3F46802E031699C
:101C80000818441C002D17D031222846B16819F0DD
:101C9000B3FA306984420FD870680019B1686918C6
:101CA000F268121B094B7B4405785D5D0D70401C8A
:101CB000521E491C002AF7D1B068F1680818001BB1
:101CC000FC1F053CA546F0BDF8FFFF07AAB40100C4
:101CD000F0B58BB001920D460290171F03AE202481
:101CE000084639463246234616F0B6FB30462146B2
:101CF0003246234616F0B0FB0398E855E919020E68
:101D0000CA70020C8A70000A487002982946019A2B
:101D1000FFF746FF0BB0F0BDF0B503AF8BB06E46DA
:101D200070600024002A254607D00025485D312830
:101D300003D16D1CAA42F9D11546B161511B3A4835
:101D400048437D21C900F26118F084FF0246083241
:101D5000364911406A46521A3061411C9546B260BC
:101D60001046316019F050FAF560F069A8422DD99B
:101D70003069B168081870610024E043B062F1680E
:101D80003462B0697162415C294878443A2504465E
:101D90002A4619F043FA002841D0001BC0B2014680
:101DA000336A002419430CD071690A786A43101809
:101DB0000870B26A8918000A641C0028F5D19C4298
:101DC000F3D3716A491CF0698142D9D133681D1B74
:101DD0003069A8420ED33069B168091860420A1808
:101DE0005278002A03D1401CF9D31D4602E0316924
:101DF0000818451C591BF4680819B062706800285F
:101E00000DD07162214619F0FFF93069854206D87C
:101E100070680019B1684919726A19F0E5F9B06A79
:101E2000FC1F053CA546F0BDDD020000F8FFFF00E9
:101E3000C6B3010010B50A46014600242046FFF74C
:101E40006BFF032800D8E04310BDF0B589B004460D
:101E5000FFF762FF051F01AE2027204629463246C4
:101E60003B4616F0F9FA3046394632463B4616F004
:101E7000F3FA01980090615D621953781B025918BA
:101E80009378D2781202D21812045118091A4842D3
:101E9000484109B0F0BDD4D4F0B5FFB086B004AC71
:101EA0000FC40120010244AE304616F017FB34AFD8
:101EB00040243846214619F0A7F9FF2002307880E7
:101EC0008B988A9D002D039000D1284678708198C8
:101ED000387010362349794430463A46234605F097
:101EE0000FFF002D2ED008AC204619F0E5FCA08590
:101EF000000417D108A816F02BFE129014AC20464F
:101F00002946039E324619F06FF9A0198025A91BB6
:101F100019F07AF900210091019144A822462B463C
:101F200016F07EFA16F0FEFD08A9884202D112983A
:101F300016F00EFE14A8802119F066F908A8808D0D
:101F400000280CD1049800900598019044A8012124
:101F5000069A079B16F064FA7FB006B0F0BD05F054
:101F6000EAFEC046B6B20100F0B5CBB0150A04AC2B
:101F70002571E2700A0AA2706170519DE571509955
:101F8000A1716371207003A9029100200190087073
:101F900027460837529938462A4606F015FF539EC1
:101FA0007E557819471C54993846324606F00CFF86
:101FB0005598B855B919569A130ACB708A70000A09
:101FC000487045A800901822019F394606F002FF8C
:101FD00001204A9002984990A8190D30C0B248904B
:101FE0004794074845900098394605F05DF9002868
:101FF00001D4039800E0F843C0B24BB0F0BDC04636
:102000003F008300F0B5C9B002AE307001AF0024CC
:102010003C7043AD18222846214606F0DBFE012025
:102020004890479746904596064843902846214653
:1020300005F03AF9002801D4019800E0E043C0B26D
:1020400049B0F0BD3F008500F0B5C9B0519C250EE8
:1020500002AEB572250C7572250A3572F471529C68
:10206000F472509CB4714F9C74714E9C3471F37037
:10207000B2707170307001AF00243C7043AD182213
:102080002846214606F0A6FE0120489047970C20DE
:1020900046904596064843902846214605F004F9A7
:1020A000002801D4019800E0E043C0B249B0F0BD7F
:1020B0003F008600F0B5C9B00A0C02AEB280718054
:1020C000308001AF00243C7043AD182228462146E1
:1020D00006F080FE012048904797062046904596DE
:1020E000064843902846214605F0DEF8002801D432
:1020F000019800E0E043C0B249B0F0BD3F00880065
:10210000F0B5CDB0009301920291044604A803906B
:102110000026072731463A4606F05CFE06AD0198D8
:10212000A870029868702C7047AC1822204631467F
:1021300006F050FE4C97039F4B9703204A90499519
:10214000114847902046314605F0AEF8002818D4D3
:1021500004A80078002815D1781C5399529A037866
:1021600044782402E318009C23808378C4782402F6
:10217000E318138002794079000280180880304605
:1021800000E0FF204DB0F0BD3F008A00F0B5C9B0BF
:1021900002AEB170308001AF00243C7043AD182214
:1021A0002846214606F016FE012048904797032056
:1021B000469045960F204490064843902846214675
:1021C00005F072F8002801D4019800E0E043C0B2A5
:1021D00049B0F0BD3F009300F0B5C9B002AEB17098
:1021E000308001AF00243C7043AD182228462146C0
:1021F00006F0F0FD01204890479703204690459651
:10220000064843902846214605F04EF8002801D4A0
:10221000019800E0E043C0B249B0F0BD3F00A50026
:1022200070B588B001AE0024347002AD1822284683
:10223000214606F0CFFD0120079006960648029041
:102240002846214605F030F8002801D4019800E026
:10225000E043C0B208B070BD3F000101F0B5CBB0A3
:10226000019302920F46064603A80021032422464A
:1022700006F0B0FD04A80670B11E4A424A4102258C
:10228000012E294600D01101012E02D0022E2DD19F
:102290001025401C461839462A4606F095FD01983F
:1022A00070700298307045AF0026182238463146CB
:1022B00006F090FD4A9403A84990E81C489004A8B1
:1022C00047900D4845903846314604F0EDFF002810
:1022D0000ED403A8007800280BD1509803A94A789F
:1022E0008978090289180180304602E0472000E021
:1022F000FF204BB0F0BDC0463F000201F0B5CFB0AB
:102300001D4606920F46064607A8002103242246D2
:1023100006F060FD08A887700680B91E4A424A414F
:102320000226012F314600D01101012F02D0022FC9
:1023300040D11026C01C4718589901910594579C0C
:1023400056990291559903915499049106993246F0
:1023500006F03AFD280A78703D700198B8717C71DA
:10236000029838710398F8700498B87049AF002546
:1023700018223846294606F02DFD05984E9007A8EC
:102380004D900A364C9608A84B900D484990384617
:10239000294604F089FF00280ED407A800780028F9
:1023A0000BD1599807A94A788978090289180180C0
:1023B000284602E0472000E0FF204FB0F0BDC046B5
:1023C0003F000401F0B5C9B01D4602AF7B713A7100
:1023D0007980388001A8009000240470B81D4E99BF
:1023E0001A4606F0F1FC43AE18223046214606F0AC
:1023F000F1FC0120489000984790A81DC0B246907B
:102400004597074843903046214604F04DFF002889
:1024100001D4019800E0E043C0B249B0F0BDC0462D
:102420003F000601F0B5C9B002AF4E9DBD717B7192
:102430003A717980388001A8009000240470F81D5A
:102440004F992A4606F0C0FC43AE1822304621467A
:1024500006F0C0FC0120489000984790E81DC0B2EB
:1024600046904597064843903046214604F01CFFAD
:10247000002801D4019800E0E043C0B249B0F0BDAB
:102480003F002601F0B5C9B00D4602AF7970387033
:1024900001A8009000240470B81C11462A4606F0DA
:1024A00093FC43AE18223046214606F093FC0120EF
:1024B000489000984790A81CC0B24690459707489E
:1024C00043903046214604F0EFFE002801D40198E5
:1024D00000E0E043C0B249B0F0BDC0463F000C0090
:1024E000F0B5C9B002AE7170307001AF00243C701D
:1024F00043AD18222846214606F06CFC0120489086
:102500004797022046904596064843902846214624
:1025100004F0CAFE002801D4019800E0E043C0B2F4
:1025200049B0F0BD3F000F0070B588B001AE002487
:10253000347002AD18222846214606F04BFC0120DB
:1025400007900696064802902846214604F0ACFE05
:10255000002801D4019800E0E043C0B208B070BD8B
:1025600003000300F0B5C9B002AE307001AF002423
:102570003C70701C1F2206F027FC43AD1822284631
:10258000214606F027FC01204890479720204690DE
:102590004596074843902846214604F085FE0028CA
:1025A00001D4019800E0E043C0B249B0F0BDC0469C
:1025B00008000900F0B5C9B002AE4E9C3481F3802A
:1025C000B2807180308001AF00243C7043AD18228E
:1025D0002846214606F0FEFB0120489047970A2036
:1025E000469045960F204490064843902846214641
:1025F00004F05AFE002801D4019800E0E043C0B284
:1026000049B0F0BD3F008101F0B595B00393064697
:102610008020002333503648F0603648B06036489A
:10262000706036483060086830614868706188685A
:10263000B061C868F0610869306248697062886991
:10264000B062C869F06204933363106870635068C5
:10265000B063F3671A980290B067304680304360E9
:102660009068F06305AC01943046214600F048F8CC
:102670003046403001462246B8CAB8C14322B35C56
:102680000F210B40B35435464335049A6A732A79B7
:102690000A402A712A7A0A402A722A7B0A402A733F
:1026A0006978FC2211406970697911406971697A11
:1026B000114069721124214600F037FB374651372B
:1026C000019910311022384618F08EFD0498A87731
:1026D0003846214600F029FB30466230214618F08A
:1026E00093FD30460399029A00F086F815B0F0BDCC
:1026F0007465206B322D62796E6420336578706169
:10270000F0B593B00C4601906CC86CC46CC86CC436
:102710006CC86CC46CC86CC408463C300590084654
:102720002C30049008461C30039008460C30119061
:102730000846383010900846283002900846183075
:102740000F90084608300E90084634300D90084629
:1027500024300C90084614300B90081D0A9008464F
:1027600030300990084620300890129110310791BE
:102770000020029E039C049F059D0690129807ABC3
:102780000ECB00F01DF90AAB0FCB00F019F90E9833
:102790000F993246109B00F013F9119821463A46E2
:1027A0002B4600F00DF912980B9932462B4600F09B
:1027B00007F90A980F993A46099B00F001F90E981B
:1027C0002146089A0D9B00F0FBF8119807990C9A86
:1027D000109B00F0F5F80699481C0929CDD300207C
:1027E000019B129C1958225851182150001D402855
:1027F000F8D113B0F0BDD4D4F0B58BB01646024674
:1028000040320292623003903009401C039D102E2A
:10281000344600D31024002C23D006AF0490384651
:1028200005910599224618F0DFFC38191021091B83
:1028300018F0EAFC0120387411243846214600F0D3
:1028400074FA284629463A46234615F0F1FF0094CB
:10285000074B7B4428462946029A16F019F804983B
:1028600005991031103E401ED1D10BB0F0BDC046CD
:1028700082A90100F0B593B0174602910546802069
:1028800028582E46803671680022C01851410092A7
:1028900010465041012825D01C46286B401C286357
:1028A00003A92846FFF72CFF0194002C0BD003A8A6
:1028B0000299019A3B7804785C400C707F1C401CA4
:1028C000491C521EF6D128460299019C2246FFF768
:1028D00093FF30680019306070680099484170605B
:1028E00013B0F0BD014805F026FAC04605B100005E
:1028F000F0B593B002920F460546802028582E4628
:10290000803671680022C018514100921046504133
:10291000012825D01C46286B401C286303A92846A3
:10292000FFF7EEFE0194002C0BD003A80299019A48
:102930000B7804785C403C70491C401C7F1C521E84
:10294000F6D128460299019C2246FFF755FF3068D0
:1029500000193060706800994841706013B0F0BD94
:10296000014805F0E8F9C04605B10000F0B587B0B0
:1029700001910546806FE96F0391029080202858ED
:102980000490284680304068059002A91026284609
:102990003246FFF731FF2F46623751351124384652
:1029A00039462A46234615F043FF3846214600F0B3
:1029B000BCF901983946324618F016FC07B0F0BD54
:1029C000B0B50C6805682C1904601D6865401024BA
:1029D000E5411D601468641914600D686540142495
:1029E000E5410D60046864190460186860401824AB
:1029F000E04118601368181810600A6842401920F6
:102A0000C2410A60B0BDD4D4F0B587B006AD002491
:102A10002C7005950120029005A8019000947D4836
:102A2000784440219F23224605F0AAF9002800D1CE
:102A3000E5E02878012800D0E1E017F0E3FF054643
:102A400018F06CF8342068436E4F4946CE19324670
:102A50006832714B7B4413506B4B0325CD541518D2
:102A60006E48784404222A712C6203956862CD185E
:102A70006C60284615F06EFF6860022016F07EF844
:102A80006860B06E00283FD04846C0196C24015DD4
:102A90007A25405B884237D215F014FF5B498842A3
:102AA00004D115F043FF594988422DD14846C01939
:102AB000025D415B914222D20846382670434A4665
:102AC000D3199A6E101868331B6A002B06D09847EA
:102AD00000280AD04946CA19515B926E012802D1DA
:102AE00088B24643901902F03DF84846C019415B50
:102AF000491C4153025D88B29042DED300E0084693
:102B0000904201D115F07CFF0398243003904B20B4
:102B1000800004904846C019806E00283FD0484687
:102B2000C0196C26815D7A25405B884237D215F04A
:102B3000C9FE3649884204D115F0F8FE334988426F
:102B40002DD14846C019825D415B914222D2084690
:102B5000382460434A46D3199A6E101868331B6AAA
:102B6000002B06D0984700280AD04946CA19515B65
:102B7000926E012802D188B24443101901F0F2FF8D
:102B80004846C019415B491C4153825D88B290425E
:102B9000DED300E00846904201D115F031FF4C46EB
:102BA0001B4820180022049915F0A4FFE41905F031
:102BB000B5FA6C20205C7A21615A8142AAD305F0D3
:102BC00099F9039C4846124940180022049915F0CF
:102BD00091FF05F0A3FA15F079FF002802D02068D4
:102BE0000028EFD117F02EFF05F03EFB05F046FB65
:102BF0004846074940180022049915F07BFF07B0AA
:102C0000F0BDC04688020000F0010000115010B075
:102C1000C4000000DCBD010094A70100BB0100005E
:102C20000E490840884215D10B49484640580028B3
:102C300010D0012800D801204A4651188C31084A8A
:102C40007A440B68934203D03431401EF9D101E03D
:102C50000020086000207047880200000300008008
:102C6000DDFFFFFF10B58CB015F064FB6C4620460D
:102C700018F022FEA085000407D1684615F068FF11
:102C80000A900020C04315F0A7FE15F04BFF6946DF
:102C9000884202D10A9815F05BFF6846808D0028B3
:102CA00001D10CB010BD05F046F8D4D410B50246E1
:102CB00007485040012300248842184600D320468C
:102CC00051188908402900D82346184310BDC04632
:102CD000FFFF000020385F2801D30020704701204B
:102CE000704701466139C9B21A2900D22038C0B2F2
:102CF000704701464139C9B21A2900D22030C0B20A
:102D0000704710B500290ED00278002A09D101239E
:102D10001A46994203D0845C531C002CF8D08A4296
:102D200001D2002010BD012010BD10B54A080FD0FF
:102D30000918491E0B7804785C4004700B786340D6
:102D40000B7004785C400470491E401C521EF1D187
:102D500010BDD4D4B0B5002A0ED0084B7B440C78FB
:102D600024091C5D04700C780F2525405C5D4470BF
:102D7000801C491C521EF2D1B0BDC0466EA5010098
:102D8000F0B581B00C46064600252F460A22304693
:102D900021462B4618F0ECF87F1C0922921B2A468C
:102DA000A24106460C46F1D3384601B0F0BDF0B55D
:102DB0008BB016461099002900901ED0354604931A
:102DC00003910A220292002428460499234618F00F
:102DD000CFF806460F46029A0294234618F0E8F808
:102DE000281A049A8A4102430AD10399491E080607
:102DF000354604973B46E3D107E00020029004E00B
:102E00002B46039802902E46049B1820029F0390A5
:102E100019463C460A270025304604933A462B467D
:102E200018F0A6F8029001913A462746039C2B46DB
:102E300018F0BEF8321A30210A43601E05AB1A544E
:102E40003A0613D07F1E3A06019B11D1A01E05AA97
:102E50002E24145400270922921B3A46049CA241B6
:102E600006D30398C01E05AA115401E02F46019B0A
:102E70000921891B04998D41029EC8D33906C6D108
:102E800005A909181822121A009818F0ADF90BB00C
:102E9000F0BDD4D4D0B502AF94B06E46F41D413429
:102EA00002464E4849460858012802D14E4804F0CF
:102EB00042FF4B4B4846C0188178012968D80179F8
:102EC000481E3F2864D84846C018C07800285FD103
:102ED000444B4846C0184078401E02285CD2F2613C
:102EE0000A460720C543B161C81D28406946081A33
:102EF000B0608546F260104601F0FAF87061C01DBE
:102F000028406946081A30618546F51D193528465E
:102F100018F0D2FCA88500041CD1F01D193015F062
:102F200017FE206049462F480818306018302C4A98
:102F300089184A1DB168F5682B46FFF7D9FC82B0A5
:102F4000102000903068831C3069B1682A4601F077
:102F5000D3F802B015F0E6FDF11D1931884202D117
:102F6000206815F0F5FDB068F16818F04DF9F01D16
:102F70001930808D002811D17569F469208829469F
:102F8000FFF794FE00280BD06720000204F0D3FE68
:102F90001548001D04F0CFFED120000204F0CBFE46
:102FA00049460F48716008182188401831692A463F
:102FB00018F01AF9B069402801D3022000E003207C
:102FC000F269084973697468611848701088C018FC
:102FD00010800920000304F0AEFEC046600000002F
:102FE000C00600002006000001B10000D0B502AF0D
:102FF00094B06E46F41D41340246494B4846C01811
:103000008178012968D80179481E3F2864D848464C
:10301000C018C07800285FD1424B4846C01840789D
:10302000401E02285BD2F2610A460720C543B16107
:10303000C81D28406946081AB0608546F2601046EF
:1030400001F056F87061C01D28406946081A3061C9
:103050008546F51D1935284618F02EFCA885000474
:103060001CD1F01D193015F073FD206049462D4824
:103070000818306018302A4A89184A1DB168F56866
:103080002B46FFF735FC82B0102000903068831C7F
:103090003069B1682A4601F02FF802B015F042FD00
:1030A000F11D1931884202D1206815F051FDB06838
:1030B000F16818F0A9F8F01D1930808D002810D1A2
:1030C0007569F46920882946FFF7F0FD00280AD0C9
:1030D0006720000204F02FFE134804F02CFED120DC
:1030E000000204F028FE49460D4871600818218846
:1030F000401831692A4618F077F8B069402801D3A2
:10310000022000E00320F2690649736974686118BF
:1031100048701088C01810800920000304F00BFECE
:10312000C00600005008000005B10000D0B502AF95
:1031300082B06E4604462B4849460858012802D101
:103140002B4804F0F8FD284A484680188178012968
:1031500027D80579681E3F2823D848468018C078AC
:1031600000281ED121494846405C401E02281CD23E
:10317000E81D0721884369460B1A49461B48081871
:10318000183089184A1D9D46736019462B46FFF773
:1031900071FB20882946FFF789FD002809D06720A8
:1031A00004E01348001D04F0C6FDD120000204F025
:1031B000C2FD49460C4831600818218840187168E2
:1031C0002A4618F011F8402D01D3022000E0032018
:1031D0000649326850542088401920800920000395
:1031E00004F0A9FD60000000C006000020060000F9
:1031F00001B10000D0B502AF84B06E460246284C43
:10320000484600198178012929D80579681E3F2888
:1032100025D848460019C078002820D121494846C1
:10322000405C401E02281DD2E81D072188436946E4
:103230000B1A49461B48081818300919F2604A1D34
:103240009D46B36019462B46FFF714FBF0680088D3
:103250002946FFF72BFD002808D0672003E012481D
:1032600004F069FDD120000204F065FD484670605D
:103270000019F1680C4609884018B1682A4617F011
:10328000B3FF402D01D3022000E0032005497268FE
:1032900050542088401920800920000304F04BFD81
:1032A000C00600005008000005B10000214C48464F
:1032B00000198078012836D848460019017920295C
:1032C00031D1C07800282ED148460019401D202158
:1032D00000F060FA002826D018484946095C002909
:1032E00024D0494609180D4618352CCD496A194392
:1032F00015430D431AD1494609188A68CB68134310
:1033000014D04978002911D149460D182846283093
:103310000919491D002200F0CFFD01206870092025
:10332000000304F008FD044804F005FDD12000026C
:1033300004F001FDC006000005B10000F008000027
:10334000A0B00446314E484680198078012846D8FE
:10335000484680190179C078084340D12C4F48462F
:10336000C05D00283ED04846C019034618330ECB36
:10337000406A10430B43034334D101AD284618F093
:103380009BFAA885000410D101A815F0E1FB0B9071
:103390004846C11928312120202216AD2B4615F0B0
:1033A0004FF90DA8294600F024FA15F0BBFB01A93E
:1033B000884202D10B9815F0CBFB16A8282117F0F4
:1033C00023FF01A8808D00280ED120882121FFF73E
:1033D0006DFC00280AD06720000204F0ACFC0D4808
:1033E00004F0A9FCD120000204F0A5FC4846801995
:1033F000218840180DA9212217F0F6FE20882130DF
:1034000020800920000304F096FCC046C00600009E
:10341000F008000005B100009CB04B4D4846401933
:10342000817801292ED8C07800282BD14846401930
:103430000079484979440E6831460931814221D1E9
:10344000484640194479444878440068A04219D35A
:10345000002807D049464919891D0A6812BA04C1D3
:10346000401EFAD14846401981190527C859491DFF
:10347000496802460A4305D04A465219B218527B9F
:10348000022A02D3314804F056FC0792304B4A46D8
:10349000D25C002A06D04A46D3181A6A5B6A0492A4
:1034A0001A4303D1D120000204F045FC049A101AFB
:1034B0008B41E7D308A8039018F0FEF9039988859B
:1034C00000041FD108A815F043FB1290484641198B
:1034D0008B19DA5905921E4A801806904268581DC9
:1034E0004368881D009001940798029014AC204610
:1034F0001146059A00F080FA0698283000222146ED
:1035000000F0DAFC15F00EFB08A9884202D11298EF
:1035100015F01EFB14A8202117F076FE08A8808D58
:103520000028C1D14846411989194A1DC959084B7B
:10353000C018036A591A0162416A52689141416296
:103540000920000304F0F7FBC006000005B10000ED
:10355000F0080000C89E0100B09E01009CB04B4DD9
:1035600048464019817801292ED8C07800282BD1EF
:10357000484640190079484979440E683146093176
:10358000814221D148464019447944487844006832
:10359000A04219D3002807D049464919891D0A6855
:1035A00012BA04C1401EFAD14846401981190527B4
:1035B000C859491D496802460A4305D04A4652196E
:1035C000B218527B022A02D3314804F0B4FB0792AE
:1035D000304B4A46D25C002A06D04A46D3189A6934
:1035E000DB6904921A4303D1D120000204F0A3FB4B
:1035F000049A101A8B41E7D308A8039018F05CF9DD
:103600000399888500041FD108A815F0A1FA12902B
:10361000484641198B19DA5905921E4A80180690BE
:103620004268581D4368881D0090019407980290D5
:1036300014AC20461146059A00F0DEF906982830B1
:103640000122214600F038FC15F06CFA08A98842E6
:1036500002D1129815F07CFA14A8202117F0D4FD9D
:1036600008A8808D0028C1D14846411989194A1DF2
:10367000C959084BC0188369591A8161C1695268D8
:103680009141C1610920000304F055FBC006000010
:1036900005B10000F0080000849D01006C9D010050
:1036A000F0B503AF95B06E46F31D3133F360316072
:1036B0007060002A5ED435487844F11D393118C84D
:1036C00018C138C838C10120C00702432C494B46F5
:1036D000591849680143F068C16002616846B060EA
:1036E0006C46403CA546F51D0935284618F0E4F81F
:1036F000A885000425D1F01D093015F029FAF168DC
:10370000086084B00C202249794400943268019208
:103710000291039000202125F21D3932052329460C
:1037200015F0E4F804B020222846214675682B469F
:1037300014F086FF69680835284600F02BF8002849
:103740001BD015F0EFF9F11D0931884203D1F06863
:10375000006815F0FDF94021204617F055FDF01DD9
:103760000930808D002809D1B0688546FC1F053CD2
:10377000A546F0BD044804F0DEFA024804F0DBFA86
:103780006000000001D1000005B10000649C010050
:10379000289C0100F0B503AF85B06E46202922D1E8
:1037A0000125B060284605F0C9FDF060C21D072163
:1037B0008A43694631616946881A706085462946A0
:1037C00005F0C8FD0446B16806F0D8FB0546204662
:1037D00005F088FE7068F16817F016FD681E8541D7
:1037E0003069854600E000252846FC1F053CA546BB
:1037F000F0BD70B594B00A460546212001AC012603
:103800002146334614F032FF02980019C079304047
:10381000801C2870681C09342022214617F0E4FC23
:1038200014B070BDF0B503AFC3B06E46F41D613483
:103830003546343513C5F11D9131BD68F86800284F
:1038400007D1706BB160B16B1C46FFF729FFB168FF
:103850002346002D00D1C3E00C4621343463F01D13
:1038600069300830F062F01DB9300930B062706B19
:1038700008307062F01D9130401C30621846F561CE
:10388000B061684670616C46403CA546F51D39350F
:10389000284618F011F8A88500047CD13461F01D89
:1038A000393015F055F9F46B2060B0690568002DCA
:1038B00020D4746B2178F16021202070F51DB9357A
:1038C000012373602946224614F0D0FEF06BC06DD0
:1038D0004019C07971680840801CF11D9131087051
:1038E0002022306AB16A17F07FFCF0682070B0695E
:1038F000056809E0F01D913000210170706B42688D
:10390000306A716A17F070FC316BCD70280A8870CC
:10391000280C4870280E087082B04020346900944A
:1039200001902025F21D91322523B06B294614F019
:10393000EBFD02B0706B0078F31D693321462A4617
:1039400014F07EFEF56BE968F46A2046FFF722FF6B
:10395000002849D0E86882B00090264B7B4420467E
:103960002146726A14F07AFF02B0E9682046FFF738
:1039700011FF002838D0316920312022B06B17F0B8
:1039800033FCF01D6930716B2CC82CC12CC82CC1C4
:103990003CC83CC1346915F0C5F8F11D3931884285
:1039A000F06B02D1006815F0D3F8F01D913025219D
:1039B00017F02AFC4021204617F026FCF01D693044
:1039C000282117F021FCF01D3930808D0028B169C5
:1039D0000BD170698546081DF1694D1E00D04EE778
:1039E000FC1F053CA546F0BD014804F0A4F9C04603
:1039F00001D10000E1990100F0B503AFA9B06E4616
:103A0000F41D6D343462F3603261B16070616846F8
:103A1000B062FF250235284605F090FCB061C01D5C
:103A2000072188436946081A85467062294605F0D1
:103A300091FC0546F41D4534204617F03DFFA08556
:103A400000042C4626D0B56915F06CF8F11D4531FF
:103A5000884203D1306A006815F07AF8F01D75309D
:103A6000282117F0D1FBF01D2530202117F0CCFBC9
:103A7000204605F037FD706A294617F0C5FBF01D9A
:103A80004530808D002845D1B06A8546FC1F053C35
:103A9000A546F0BDF4613C69FD68B8687060F01D32
:103AA000453015F055F8316A086082B00020009565
:103AB0000190F01D7530F11D2531B2687368FFF774
:103AC000B1FE02B0012C0BD0002CF469BBD1306ADE
:103AD000C268F11D75310831706917F085FBB2E7D6
:103AE000F068316986B00D4A7A440D4B7B440D4C29
:103AF0007C4400910190029403930492F21D75326C
:103B00000832F4692046716908F09AFD06B0002871
:103B100099D1014804F00FF901D10000F598010096
:103B2000B19801006D980100F0B503AFA5B06E46E5
:103B3000F11D85313162B360F2607061FF2502359D
:103B4000284605F0FBFBB061C01D0721884369468C
:103B5000081A8546F061294605F0FCFB0546F41D70
:103B60005D34204617F0A8FEA0850004B0692C46FD
:103B700026D13461B468F568B8687060F01D5D30B6
:103B800014F0E6FF316A086084B01D4878441D498E
:103B9000794400950194346902910390F11D1D311F
:103BA0002046726807F0A2FD04B0002823D0F21D61
:103BB0001D322046716907F03EFD00281BD0B06918
:103BC000054614F0AFFFF11D5D31884203D1306A24
:103BD000006814F0BDFF204605F084FCF06929461A
:103BE00017F012FBF01D5D30808D002804D1FC1F02
:103BF000053CA546F0BD014804F09DF801D1000048
:103C000011980100CD970100F0B503AFBBB06E462F
:103C1000F31D69333362B2610D46F061F41D413426
:103C2000204617F049FEA08500044CD1F01D41301C
:103C300014F08EFF316A0860F01D71307060002151
:103C400031612A46FFF72CFD21207061F51D993561
:103C5000012429467268234614F008FD306A406B3F
:103C60004019C0792040801CF11D1D31B1600870E1
:103C7000481C2946093120252A4617F0B5FA68461E
:103C8000F0606C46203CA54682B0306900900190FF
:103C900020462946B2687369FEF7FEF802B082B08A
:103CA000B069009070690190F069294622462B4660
:103CB000FEF7F2F802B0F0692946FFF76BFD002825
:103CC00019D0F068854614F02DFFF11D413188426E
:103CD00003D1306A006814F03BFFF01D71302821D9
:103CE00017F092FAF01D4130808D002804D1FC1F9E
:103CF000053CA546F0BD014804F01DF801D10000C7
:103D0000F0B503AFA5B06E46F31D5D337361F2608D
:103D10000D4630616846B061F41D3534204617F019
:103D2000CBFDA085000433D1F01D353014F010FF19
:103D300074692060F01D65307060F11D15312A46F0
:103D4000FFF7AEFC6846B0606D46203DAD46E368C7
:103D500082B000200090019072680832202428462A
:103D60002146FEF799F802B082B02120F168009157
:103D70000190306921462A462346FEF78DF802B0AD
:103D800030692146FFF706FD002820D0B06885463F
:103D900014F0C8FEF11D3531884203D17069006806
:103DA00014F0D6FEF01D6530282117F02DFAF01D15
:103DB0001530202117F028FAF01D3530808D0028AD
:103DC00006D1B0698546FC1F053CA546F0BD0148FB
:103DD00003F0B1FF01D10000F0B5B5B01E460C46AE
:103DE000054634926846079020AF384617F064FDC8
:103DF000B88500043AD1049620A814F0A9FE2A90B0
:103E00000120002300930193059002902CAF274AD4
:103E1000384606942146FFF7EFFD4020019010AE92
:103E20000096244878440D2120243A46234614F075
:103E30006BFB0498314622462B4614F001FC69685E
:103E400028460830FFF7A6FC00282CD010A8203008
:103E500008A90A46D8C8D8C2D8C8D8C205980090C0
:103E6000019034AB2846069AFFF7DCFC14F05AFEAA
:103E700020A9884202D12A9814F06AFE2CA8202496
:103E8000214617F0C1F910A8402117F0BDF908A884
:103E9000214617F0B9F920A8808D002804D1079891
:103EA000854635B0F0BD024803F045FFC902000069
:103EB00001D10000F9950100F0B503AF97B06E464F
:103EC000F31D1D3333627261F160B0600125284635
:103ED00005F034FA0446C01D072188436946081AD4
:103EE0008546F0613561294605F034FA7060F51DAC
:103EF0002535284617F0E0FCA88500047068B061FD
:103F000026D1B568F01D253014F022FE316A086311
:103F1000F068B062022370690028184600D1306949
:103F20000D6082B00090F21D1D32B069294607F085
:103F30003BFC02B0002825D020212846FEF7E1FEF8
:103F4000002805D120212846FFF724FC00281CD09A
:103F500014F0E8FDF11D2531884203D1306A006B71
:103F600014F0F6FDB06905F0BDFAF069214617F0CE
:103F70004BF9F01D2530808D002807D1FC1F053C32
:103F8000A546F0BD034803F0D6FE014803F0D3FE7A
:103F900005B1000001D10000F0B503AFCFB06E460F
:103FA000514CA41974627361B261F16130624B4C7F
:103FB000204605F0C3F90546C01D07218843694620
:103FC000081A8546B062214605F0C4F9B060474C36
:103FD000A419204617F070FCA0850004B46858D1DD
:103FE0003561BD684148801914F0B2FD716A0860FE
:103FF000F01D2530202114F0FDF9F560002D0FD0C3
:10400000F11DC53121232046F26805F081FA002810
:104010005ED0F01DC5304021FEF773FE002857D159
:10402000FA68F11D85312123204605F071FA002838
:104030004ED0F01D85304021FEF763FE002847D1A9
:10404000254686B0F01D25300590F01D8530049082
:10405000F01DC530F1680029F269B36900D1084646
:104060000021746900940191029003900833F11DBE
:1040700045312C4628460CF0F7FC06B000282AD023
:10408000F21D45322046316A05F040FE002822D05C
:10409000356914F047FD15498919884203D1706AC2
:1040A000006814F055FDF01D2530202117F0ACF804
:1040B000204605F017FAB06A294617F0A5F80B4814
:1040C0008019808D002807D1FC1F053CA546F0BD56
:1040D000034803F030FE034803F02DFE0102000008
:1040E00005B1000001D10000340100000C01000006
:1040F00010300F2188437047F0B503AF9DB06E4676
:10410000F41D4134F4613361B0611546B26010357D
:104110000F2085436846441BA546204617F064F8E7
:104120007461B16860182C46691ACAB217F064F855
:10413000F51D1935284617F0BFFBA885000419D1D5
:10414000B868F060F01D193014F002FDF1690860E4
:10415000F51D49353069F1682A4614F00FFA82B02E
:10416000B06900900194452128467269234614F0F5
:104170001BFA02B014F0D6FCF11D1931884203D1AC
:10418000F069006814F0E4FCF01D4930242117F0B8
:104190003BF8F01D1930808D002803D1FC1F053C31
:1041A000A546F0BD03F0C7FD70B59CB00D460446B2
:1041B0006E46304617F080FBB085000422D1684679
:1041C00014F0C6FC0A906968284608300CAD4026F9
:1041D0002A46334614F056F92878F8210140297010
:1041E000E87F7F210140E977E87F3043E8772026A8
:1041F00028463146FEF799FD61202946324623467E
:1042000014F01EFA14F08EFC6946884202D10A9816
:1042100014F09EFC0CA8402116F0F6FF6846808D35
:10422000002801D11CB070BD03F085FD10B5144607
:104230000B4A4B469A58012A0AD0002A0CD1342C3A
:1042400001D0382C08D1FEF79BFD2018423010BD5C
:10425000202C01D1492010BD024803F06CFDC0465E
:104260006000000005B10000F0B587B01F460446AD
:10427000059304923048494608580E9D0D990C9BB1
:1042800001280FD0002851D11646382D039132D085
:10429000342D38D102930F9B00203422039903F070
:1042A00037FC2DE01F4608460E46294600F048F828
:1042B00000283DD004A80821FEF737FD059820719D
:1042C00004992170020EE271020CA271000A607161
:1042D000080EE070080CA070080A607020460830D4
:1042E0002122394616F080FF2934204631462A46DD
:1042F00016F07AFF1AE000203822029314F028FD0D
:10430000029B002814D0212220461946FEF722FDE8
:104310002046423003992A4616F066FF002000909E
:104320002819423032463B46FEF741FD07B0F0BD4A
:10433000024803F000FDC0466000000005B1000027
:10434000F0B503AF91B06E46F41D3534202911D17C
:10435000F060F51D0D35284617F0AEFAA88585B238
:10436000002D09D0F01D0D3000218185206814F04A
:10437000EFFB29E0002029E03561F01D0D30B06031
:1043800014F0E6FB2060684670606D46483DAD461F
:1043900002202870681C2022F16816F025FF4120B9
:1043A0002946024614F08EF97068854614F0BAFB6F
:1043B000B168884202D1206814F0CAFBF01D0D30AC
:1043C000808D0028356905D168426841FC1F053C95
:1043D000A546F0BD03F0AFFCF0B503AFA1B06E464B
:1043E0001D4672614C4A4B469B583C69FA68012B4A
:1043F0003061F26030D07460002B00D088E0382D3E
:1044000061D0342D00D083E0B160706849287169B3
:104410007ED2BB68F01D3130342203F079FB0028D6
:1044200076D0F41D113420253069B16822462B4620
:1044300014F012F884B00095F06801907068029052
:10444000F01D313036490322234614F0B7F904B089
:10445000002857D1002456E0B160402C58D1706933
:104460002946FFF76DFF002852D0684670606C4601
:10447000483CA54602202070601C71692A4616F04F
:10448000B3FE4125284621462A4614F01BF9F31DA8
:104490003133284621462A461D4614F0BBF886B023
:1044A00040200024B168009101940294F1680391C6
:1044B0000490012105222846336914F03DF906B025
:1044C00071688D461CE07068402821D10D46F01DB2
:1044D00031303822716914F03BFC002818D086B0C6
:1044E00040200024009501940294F1680391049007
:1044F000F01D313001210522336914F01DF906B099
:10450000002800D001242046FC1F053CA546F0BD34
:10451000024803F010FCC0466000000005B1000036
:1045200001060000F0B503AFA3B06E46F11D79316E
:10453000316170600124204604F000FFB060C01DAE
:10454000072188436946081A8546F0607461214650
:1045500004F000FF0446F51D5135284617F0ACF96C
:10456000A8850004254610D1F01D513014F0F0FA52
:1045700031690860F11D11312846726806F0F6FFB6
:10458000411E8841F11D81310870B46814F0CAFAE7
:10459000F11D5131884203D13069006814F0D8FA16
:1045A000284604F09FFFF068214616F02DFEF01D0E
:1045B0005130808D002808D1F01D8130007871695C
:1045C0000840FC1F053CA546F0BD03F0B4FBF0B568
:1045D00003AF97B06E460D46412901D0212D31D150
:1045E000B26101247060204604F0A8FE7061C01D15
:1045F00007218843694631616946081A8546F0609B
:104600002146B46904F0A6FEF11D1531B060726850
:104610002B4604F07DFF411E05468D41002C07D03E
:10462000002805D0F01D15304021FEF76AFB2070F0
:10463000B06804F057FFF068716916F0E5FD306965
:10464000854600E000252846FC1F053CA546F0BD38
:10465000F0B503AFA3B06E46F11D11317161F0608A
:104660000125284604F06AFEB060C01D072188437A
:104670006946081A85463061294604F06BFE0546F6
:10468000F41D5534204617F017F9A0850004B068D2
:104690002C461FD1F01D553014F05AFA7569E866A2
:1046A000F11D153121232046F26804F031FF002866
:1046B0002BD04120286082B002200090F21D1132E0
:1046C000F31D15332046F16805F020F802B00028EC
:1046D0001ED0B068054614F025FAF11D5531884208
:1046E00003D17069C06E14F033FA204604F0FAFE6C
:1046F0003069294616F088FDF01D5530808D002860
:1047000007D1FC1F053CA546F0BD044803F013FB90
:10471000014803F010FBC04601D1000005B10000C4
:10472000F0B5A9B00D4604466E46304617F0C4F801
:10473000B08500041AD1684614F00AFA0A901848A5
:10474000784402681FAF4126384629463346FFF7B2
:1047500043FB0CAD0123304629463A4613F086FF51
:1047600008350D9A3046294613F096FF14F0DAF911
:104770006946884202D10A9814F0EAF91FA8282154
:1047800016F042FD6846808D002807D10CA909313A
:104790002022204616F028FD29B0F0BD03F0CBFA08
:1047A0004C950100F0B503AFBFB06E46F41DE9347F
:1047B000B36231637063F463A2600120706205022A
:1047C0006C1C204604F0BAFD0721C943F160B063B8
:1047D000C01D08406946081A85463064214604F029
:1047E000B9FD0446F11D3D31842204F083FE3061A1
:1047F00028460AF00DFBF061C01DF16808406946CB
:10480000091A8D46394A7A442046F1622B460AF04D
:1048100003FB7060F51DC135284617F04DF8A885DB
:104820000004306930627068B0612CD1F868B06003
:10483000BD68F01DC13014F08BF9F16B086090B0C9
:10484000002340202A497944726A089209910A900B
:10485000B06A0B900C950D930E93B0680F90079370
:10486000F01DF13006900593306B04900393029392
:10487000706B019000932046316AB2690AF056FBD2
:1048800010B000282CD0B06B7061F56914F04AF9B3
:10489000F11DC131884203D1F06B006814F058F962
:1048A0002046B1690AF022FBF06A294616F0ACFCFA
:1048B000306A04F02CFEF01D3D30842116F0A4FC7B
:1048C000204604F00FFE306C716916F09DFCF01D5F
:1048D000C130808D002804D1FC1F053CA546F0BDE9
:1048E000014803F028FAC04601D10000978B01006F
:1048F000178B0100F0B503AFE3B06E46634CA4190B
:10490000F51DCD35F563F26131643063B464A360A5
:10491000FF240234204604F011FD70640721C943CE
:104920003161C01D08406946081A8546F064F4628A
:10493000214604F00FFDF11D49318422044604F0A4
:10494000D9FD7061802528460AF062FA7062C01DA8
:10495000316908406946091A8D46504A7A44204612
:10496000B1632B460AF058FAB060494DAD1928469C
:1049700016F0A2FFA8850004706C7463746A7169F4
:10498000B162B168316250D1FC68BD68404880199D
:1049900014F0DEF8B16C086090B00023402040496C
:1049A00079440122089209910A900B950C940D9379
:1049B0000E930F9307933748801906900593F0697B
:1049C0000490F01DD1300390334880190290019378
:1049D0000093706BB16A326A0AF0A8FA10B000282E
:1049E0004FD02120F46BF060206082B0F06A451C4B
:1049F0000095F21DCD32284B9B19706B316B04F082
:104A000085FE02B000283CD0F068206082B000959E
:104A1000F21DCD32F31DD133706B316C04F076FE94
:104A200002B000282DD0706C746AB06114F07AF86E
:104A300017498919884203D1B06C006814F088F8CE
:104A4000756B2846316A0AF051FAB06B214616F0B0
:104A5000DBFBB06A04F05BFDF01D4930842116F0E9
:104A6000D3FB284604F03EFDF06CB16916F0CCFB98
:104A700007488019808D002804D1FC1F053CA546FD
:104A8000F0BD014803F057F901D10000800100009A
:104A9000580100008801000018010000418A01004F
:104AA000BD890100B0B504460920207218480025D0
:104AB000256060602046093016497944122216F0BC
:104AC00093FBA57743206077572020774D20E07631
:104AD0002046203010497944062216F085FB2046F6
:104AE00050300E4979442CC92CC00D4878440168D7
:104AF0004068A162E0622046303021462831E165FD
:104B0000206608497944202216F06EFBB0BDC046ED
:104B100051020000728901001F6F0100508A0100DC
:104B2000208A0100108A0100F0B581B016460446C3
:104B30000D1A681E054205D1B047294616F010F936
:104B400008460CE00020C043294616F083F80746CB
:104B50004543B047A842FCD2394616F07BF800190D
:104B600001B0F0BD80B503F08BFC80BDB0B505464B
:104B7000072028400024012815D0022815D10C4810
:104B8000002908D04A46101813F08AFF28060AD5D3
:104B900013F01CFC07E04946081841218900002257
:104BA00013F0A8FF04462046B0BD022003F0C3F86E
:104BB000C0060000F0B585B0DE4E4846805D0C288A
:104BC00039DD0D2864D00E2800D188E0152800D0EA
:104BD000D3E0D948494608188079012806D14846CB
:104BE00080198079000701D400F027FDD34E4D468F
:104BF0000120A855AC1900276760204613F0AAFED3
:104C00006060022013F0BAFF6060CD4C291949683A
:104C1000002900D15AE3CB4A904200D1ACE30028EE
:104C200000D1A9E34D462A1957608847A819FB49C6
:104C3000443141604EE3052879D00C2800D09CE037
:104C4000F3494F46012078547C18002565602046C2
:104C500013F080FE6060022013F090FF6060ED4C66
:104C600039194968002900D139E2EB4A904201D153
:104C700000F06FFC002801D100F06BFC4E463219A9
:104C800055608847E2483018E4494431416031E2D8
:104C9000DF4E4D460120A855AC190027676020461D
:104CA00013F058FE6060022013F068FF6060D94C7A
:104CB00029194968002900D184E0D74A904201D1DE
:104CC00000F047FC002801D100F043FC4D462A19B2
:104CD00057608847A819D149443141607DE0CC49EB
:104CE0004E4601207054751800276F60284613F057
:104CF00031FE6860022013F041FF04466860C54D34
:104D000070194168002900D1BCE0C348844200D139
:104D10001AE1002C00D117E14E4670194760204679
:104D20008847BB483018BD4944314160AEE0B849BE
:104D30004F46012078547C1800256560204613F00A
:104D400009FE6060022013F019FF6060B14C391950
:104D50004968002900D165E1AF4A904200D1F8E3EB
:104D6000002800D1F5E34E46321955608847A8481F
:104D70003018AA49443141605FE1A54E4D460120FB
:104D8000A855AC1900276760204613F0E3FD60606A
:104D9000022013F0F3FE60609E4C29194968002937
:104DA00000D1F9E19C4A904200D14CE2002800D1A8
:104DB00049E24D462A1957608847A8199749443156
:104DC0004160EDE19449884200D1C2E3002800D15E
:104DD000BFE39349884200D020E3484625460419A2
:104DE00003F042FA03F04AFA7A2004902752A06EA8
:104DF000002800D1ADE348468019406886498842C2
:104E000000D1A6E3002800D1A3E32C464846401970
:104E10006C26805D002800D19BE3804F13F052FD8B
:104E2000B84204D113F082FDB84200D091E3484665
:104E30000019825D049D415B914200D3DFE2084688
:104E4000382778434A4613199A6E101868331B6A3C
:104E5000002B06D0984700280AD049460A19515B12
:104E6000926E012802D188B24743D01903F008FBA3
:104E700048460019415B491C4153825D88B290420B
:104E8000DED3BDE26548443084425DD148464619D0
:104E900003F0EAF903F0F2F97A2400203053B06EFF
:104EA000002800D155E348465949401840685A49FE
:104EB000884200D14DE3002800D14AE3484640191A
:104EC0006C26805D002800D143E3544F13F0FAFCB8
:104ED000B84204D113F02AFDB84200D039E3484665
:104EE0004019825D015B914200D388E20846382771
:104EF00078434A4653199A6E101868331B6A002B80
:104F000006D0984700280AD049464A19115B926E8C
:104F1000012802D188B24743D01903F0B1FA4846BC
:104F20004019015B491C0153825D88B29042DED377
:104F300066E2C046C4000000C4070000F0010000A3
:104F400088020000445010B0484641199420095886
:104F5000002913D00A46643A00D23A464B465B1900
:104F60001A5064290AD890215958002906D04A4677
:104F700052199823D358135000208847264884425A
:104F800000D1E6E2002C00D1E3E248464019806EF1
:104F9000002800D145E3484640196C24015D7A267B
:104FA000805B884200D33CE31C4F13F08BFCB8427B
:104FB00004D113F0BBFCB84200D032E3484640199C
:104FC000025D815B914200D326E30846382778438F
:104FD0004A4653199A6E101868331B6A002B06D084
:104FE000984700280AD049464A19915B926E0128D9
:104FF00002D188B24743D01903F042FA484640191B
:10500000815B491C8153025D88B29042DED304E388
:10501000F001000088020000445010B0115010B0A0
:10502000555010B0F949884200D192E2002800D1D1
:105030008FE2F749884200D031E24846071903F071
:1050400013F903F01BF97A26BD53B86E002800D17E
:105050007FE24846EF4940184068EC49884200D159
:1050600077E2002800D174E2484600196C25405DC3
:10507000002800D16DE2E84F13F024FCB84204D1BF
:1050800013F054FCB84200D063E248460019425D78
:10509000815B914200D3B2E10846382778434A4603
:1050A00013199A6E101868331B6A002B06D09847A4
:1050B00000280AD049460A19915B926E012802D154
:1050C00088B24743D01903F0DBF948460019815BE9
:1050D000491C8153425D88B29042DED390E1CB49B6
:1050E000884200D135E2002800D132E2C849884226
:1050F00000D037E24846071903F0B6F803F0BEF8CF
:105100007A26BD53B86E002800D122E24846C14934
:1051100040184068BD49884200D11AE2002800D1F9
:1051200017E2484600196C25405D002800D110E2C6
:10513000B94F13F0C7FBB84204D113F0F7FBB842E4
:1051400000D006E248460019425D815B914200D3DF
:1051500055E10846382778434A4613199A6E1018C5
:1051600068331B6A002B06D0984700280AD04946AE
:105170000A19915B926E012802D188B24743D01977
:1051800003F07EF948460019815B491C8153425D5A
:1051900088B29042DED333E19F494431884252D1F4
:1051A0004846051903F060F803F068F87A20049087
:1051B0002F52A86E002800D1CBE1484680194068E4
:1051C0009249884200D1C4E1002800D1C1E148469B
:1051D00000196C26805D002800D1BAE18E4F13F0D3
:1051E00071FBB84204D113F0A1FBB84200D0B0E18A
:1051F00048460019825D049D415B914200D3FEE068
:105200000846382778434A4613199A6E10186833AF
:105210001B6A002B06D0984700280AD049460A1975
:10522000515B926E012802D188B24743D01903F036
:1052300027F948460019415B491C4153825D88B2F9
:105240009042DED3DCE048460019806E002800D191
:1052500075E1484600196C25415D7A26805B8842DD
:1052600000D36CE1F84F13F02DFBB84204D113F0DA
:105270005DFBB84200D062E148460019425D815BA7
:10528000914200D356E10846382778434A4613191D
:105290009A6E101868331B6A002B06D098470028B6
:1052A0000AD049460A19915B926E012802D188B250
:1052B0004743D01903F0E4F848460019815B491CC4
:1052C0008153425D88B29042DED334E1DE494431FD
:1052D000884251D14846051902F0C6FF02F0CEFFC0
:1052E0007A2004902F52A86E002800D131E1484660
:1052F00080194068D349884200D12AE1002800D1B2
:1053000027E1484600196C26805D002800D120E185
:10531000CD4F13F0D7FAB84204D113F007FBB842CF
:1053200000D016E148460019825D049D415B914220
:1053300065D20846382778434A4613199A6E1018E2
:1053400068331B6A002B06D0984700280AD04946CC
:105350000A19515B926E012802D188B24743D019D5
:1053600003F08EF848460019415B491C4153825DA9
:1053700088B29042DED343E048460019806E002890
:1053800000D1DCE0484600196C25415D7A26805B3F
:10539000884200D3D3E0AC4F13F094FAB84204D162
:1053A00013F0C4FAB84200D0C9E048460019425D83
:1053B000815B914200D3BDE00846382778434A46D6
:1053C00013199A6E101868331B6A002B06D0984781
:1053D00000280AD049460A19915B926E012802D131
:1053E00088B24743D01903F04BF848460019815B57
:1053F000491C8153425D88B29042DED39BE008464F
:10540000904200D0A5E013F0FBFAA2E0445010B0A7
:10541000555010B0F0010000115010B0484600196E
:10542000806E002800D18AE0484600196C25415D55
:105430007A26805B884200D381E0834F13F042FAE2
:10544000B84203D113F072FAB84278D14846001935
:10545000425D815B91426DD20846382778434A46C7
:1054600013199A6E101868331B6A002B06D09847E0
:1054700000280AD049460A19915B926E012802D190
:1054800088B24743D01902F0FBFF48460019815B00
:10549000491C8153425D88B29042DED34BE04846BE
:1054A00000198C214058002805D049468919C9782F
:1054B000490803F00DF848460019806E00283ED0D8
:1054C000484600196C25415D7A26805B884236D2B9
:1054D0005D4F13F0F7F9B84203D113F027FAB84241
:1054E0002DD148460019425D815B914222D2084687
:1054F000382778434A4613199A6E101868331B6A86
:10550000002B06D0984700280AD049460A19915B1B
:10551000926E012802D188B24743D01902F0B0FF41
:1055200048460019815B491C8153425D88B2904214
:10553000DED300E00846904201D113F061FA4846FC
:1055400000196C21415C7A22805A884201D313F001
:10555000BDFA13F0BBFA002801D102F0CBFC012008
:1055600005B0F0BD4A46364814186C25605D0490BD
:10557000A06E03909219D379967951791079D278E7
:10558000274668373F6A009201970002401882B2AE
:105590003002C01883B20398049902F0E7FEA06EAF
:1055A000274C002845D048460019415D7A26805B8B
:1055B00088423ED2244F13F085F9B84203D113F04C
:1055C000B5F9B84235D148460019425D815B914238
:1055D0002AD20846382778434A4613199A6E10187B
:1055E00068331B6A002B06D0984700280AD049462A
:1055F0000A19915B926E012802D188B24743D019F3
:1056000002F03EFF48460019815B491C8153425D10
:1056100088B29042DED308E00846904201D113F0F0
:10562000EFF9484640198CE70846904201D113F043
:10563000E7F948460019415D85E7102002F07BFB41
:1056400088020000445010B0115010B0D0B502AF25
:1056500090B06E46F31D3133414A494689580129BD
:1056600002D1414802F067FB3E4A49468A189178C8
:10567000012959D8D178002956D115793C49794466
:105680000968A94250D1394A494689184A78FE2109
:10569000114002294CD1B360F060E81D0721884316
:1056A0006946081A70608546F41D0934204616F0D4
:1056B00003F9A085000418D1F01D093013F048FA51
:1056C000B168086049463160284808181830746885
:1056D0002146FDF74BF9234831680818401D214643
:1056E0002A4602F02EFB00281ED1746813F01AFA25
:1056F000F11D0931884203D1B068006813F028FA1F
:105700002046294615F080FDF01D0930808D0028C7
:10571000F4680FD120881021FDF7C8FA00280BD0BB
:105720006720000202F007FB0F48001D02F003FB98
:10573000D120000202F0FFFA49460A4808182288E0
:1057400080180A4A8918891C102215F04DFD2088FE
:105750001030208002F03CF90920000302F0EBFA3F
:1057600060000000C006000001B10000200600003B
:10577000527B0100D0B502AF90B06E46F31D3133BD
:105780003D4A49468A189178012959D8D17800298B
:1057900056D115793B4979440968A94250D1384A14
:1057A000494689184A78FE21114002294BD1B3603D
:1057B000F060E81D072188436946081A7060854635
:1057C000F41D0934204616F077F8A085000418D19E
:1057D000F01D093013F0BCF9B1680860494631602A
:1057E00027480818183074682146FDF7BFF822488A
:1057F00031680818401D21462A4602F0A2FA002806
:105800001ED1746813F08EF9F11D0931884203D15D
:10581000B068006813F09CF92046294615F0F4FCA6
:10582000F01D0930808D00280FD1F46820881021E8
:10583000FDF73CFA00280AD06720000202F07BFA4C
:105840000E4802F078FAD120000202F074FA4946BC
:105850000948081822888018094A8918891C1022CA
:1058600015F0C2FC20881030208012F07DF909204C
:10587000000302F060FAC046C006000005B1000057
:10588000500800003A7A0100D0B502AF82B06E46EF
:105890000446264849460858012802D1264802F005
:1058A0004AFA234D484640198078012824D84846B2
:1058B00040190179C07808431ED11E484946095C49
:1058C000FE220A40022A1BD11C49794409687160F2
:1058D000C91D072291436A46511A4A4610181830CA
:1058E0008D463160FDF742F820887168FDF7DEF9DA
:1058F000002809D0672004E00F48001D02F01BFAC1
:10590000D120000202F017FA4846401921884018B9
:1059100022CE2A46083E15F067FC208840192080D8
:1059200002F056F80920000302F005FA60000000BA
:10593000C00600002006000001B100000679010049
:10594000D0B502AF82B06E460446224D484640199B
:105950008078012824D8484640190179C078084346
:105960001ED11D484946095CFE220A40022A1AD16E
:105970001B49794409687160C91D072291436A4631
:10598000511A4A46101818308D463160FCF7EEFF68
:1059900020887168FDF78AF9002808D0672003E0A5
:1059A0000E4802F0C8F9D120000202F0C4F94846BE
:1059B00040192188401822CE2A46083E15F014FCD2
:1059C00020884019208012F0CFF80920000302F04F
:1059D000B2F9C046C00600005008000005B1000042
:1059E0005E780100F0B503AF8BB06E463061C24BFC
:1059F0004846C0188278B261012A00D978E104795A
:105A0000C44A7A4415682A4643327462A24200D9D5
:105A10006EE1C478B94A484680580128F16104D043
:105A2000002805D1022C03D362E1002C00D05FE1F5
:105A300074614846C0184019441D21212046FDF7D5
:105A400060F900280ED12121F21D21322046FEF7F7
:105A5000BEFD002800D14BE1F01D21300078002868
:105A600000D045E14846A449401828182630212195
:105A700000242246FEF7ABFD002800D138E148465D
:105A80009D494018423540194079022805D3801EAF
:105A9000012800D92CE1092000E001203462994A54
:105AA0004946895C002900D118E1494689180C460D
:105AB00018341CCC496A194314430C4300D00DE13F
:105AC0004946904C09198A68C96811434019002950
:105AD00000D107E1716A884200D909E106D18A48FC
