:02000004C0DE5C
:1000000070B58CB062B6002808D02D494A46531806
:1000100001686422184615F0CDF804E028484946E6
:10002000081804F0ABF8274E12F0AEFA48468019D3
:100030004F218A000024214606F0E3FF06F0C6FFA8
:100040006D46284615F01EFCA88580B2102805D103
:10005000684684850A9812F091FEE5E7002809D0E9
:10006000684684850A9812F089FE02F0A5FC2046B5
:100070000CB070BD684612F081FE0A9007F046FA97
:10008000052000242146224612F0A6FD0E494A46CC
:1000900051184862204613F0FDFE0125284613F052
:1000A000F9FE204606F01CFE2046214600F0E8FF3F
:1000B00006497944284600F0E3FF06F0C7FBC04636
:1000C0006000000088020000B4070000EA5A010046
:1000D000F0B593B012930F46044600787F2101409B
:1000E000052900D1CCE215460E91208B00F0D8FAFC
:1000F00000280F95119765D04279867900200A90E3
:10010000002F67D0002D65D00992208BE188129ACC
:100110000092EBB2643189B23A4600F0E7FAE18826
:100120000022052D0D9208960C905AD3884258D97A
:10013000208B129900916421914A7A44032300F0A4
:10014000D5FA0A9068083E18E188002810904AD035
:100150000C9A8A4247D92F1A45D000200B90208B49
:10016000129D009589B2109AD3B2119A00F0BEFA8E
:100170000C90E188208B0095FBB2324600F0B6FA75
:100180000A990C9A51180D18E1888D420C952AD9BC
:100190000B9F012F06D0002F05D11098401E0F9BFA
:1001A000119A03E0761C0F9B119A1098002810906A
:1001B00019D08D4217D90120B843921BD7180B9044
:1001C000CDD110E0002110910C910A460E46084650
:1001D0000A9103E00A9910910C9108460B910E9B2D
:1001E00033E0164610950A9603239D03208B0540A5
:1001F0000122D703BD420CD09703BD420D9D0B9544
:100200000F9D119F089E0CD10C9E891B089E0B917F
:1002100007E00C9D6D084908491B0B910F9D119F2C
:10022000089E190308405103884205D011038842F3
:1002300008D12089801B06E07008C0432189490845
:10024000081800E00D980E9B099A032B07DC0D900F
:10025000012B5FD0022B0BD0032B5BD010E2042BC1
:1002600053D0062B00D196E10D90072B00D007E26A
:10027000207B01282CD10992072B314600D0002188
:1002800004200790205E0891421A0227E15F60690E
:10029000072B099B00D0238900930B9D2B4612F05E
:1002A000FBFC0C982818E15F4118E288131A0798A4
:1002B000205E089A821A60690E9D072D01D025895B
:1002C0000995099D009512F0E7FC0F9D119F0E9B6B
:1002D000002F00D1D4E1002D00D1D1E108960220F9
:1002E000205E0C9004200790215E206909906269CD
:1002F000208BE68825890397109F0497129F059706
:10030000072B00D15FE10D9B5EE10D90E07A0028A4
:1003100000D1B7E1E3885A0821894808824216468D
:1003200000D30646E57AAE4203D88242154600D392
:100330000546207B012825D104201090225E02274B
:10034000E65F20690091A9196E009B1B12F0A4FCC6
:10035000E15F1098225E2089831B20690093AA1810
:100360002B4612F099FCE15F1098225E2089831BD6
:100370002069E6880093AA18491B89192B4665E075
:10038000405A010004200C90225E0226A75F1096BE
:1003900060690091E9196F00DB1B12F07DFCA15F21
:1003A0000C9EA25F2089C31B0E9760690093AA1858
:1003B0002B4612F071FC1098215EA25F2089C31BAE
:1003C0006769E0880093AA18EB43C91809183846F2
:1003D0002B4612F061FCA05F0A903746109EA15F89
:1003E0002269E388A07A009069180E981B1A1046BB
:1003F0000A9A12F051FCE05F0A90A15F206909900F
:100400002289E388A07A009069180E9FDB1B0A9866
:100410008018421E099812F03FFCA05F0A900C9EC3
:10042000A25F2089C11BA37A20690091AA180A99AA
:1004300012F032FC1098215EA25F2089C61BA37ABD
:100440002069E7880096AA18C919491E12F024FCF1
:10045000022D119869D3207B012802D0A07A281A96
:1004600000D20020109004200C90205E0A90022000
:10047000215E07460E9020696369C0220092109E9B
:100480000196029369180A9AAA182B4600F0D9FA25
:100490000C98205E0A90E05F0890206909906369DB
:1004A000E188A07A30220092019637461096029396
:1004B0002818089A5118091A0A982A1809982B46D8
:1004C00000F0BFFA0E98205E0A900C9EA05F089084
:1004D0002069099063692189A07A0C220092019712
:1004E00002932818089A51180A1A0A982918099884
:1004F0002B4600F0A6FAA05F0C900E98215E2069B2
:100500000E9063692689E788A07A03220092109AE8
:10051000019202932818C919091A0C9A101A821903
:100520000E982B4600F08DFA119800280F9800D1F4
:10053000A6E0002800D1A3E0237B10211420012B8A
:100540000A4600D00246012B00D00846A15810915F
:1005500020580E900220215E0420255E208BE68824
:100560002789A37A119C03940F9C0494129C0594F0
:100570000124E443002B00D05C430D9ABB1A1B19E5
:100580000B9FF61B341955190095019402937B18A3
:100590000E99109A72E00420205EE37AC2180220BD
:1005A000205E19182069267B0025012E03D0A67A2B
:1005B000B34200D99D1B6469FF2600960195029401
:1005C00000F03FFA5CE000231093ED1A0B9FF31B41
:1005D000019302950E9B072B01D00D9B01E0089B18
:1005E0005B420D935B1800930B9B0C995B18099968
:1005F00000F0CBF801460A98002841D0079FE35F3E
:1006000020690C9060690E90208B0990E5882689FE
:100610000891032121487844109AB61A0B9AAD1A12
:100620000D9AD31800AA68C203900491129D0595F3
:10063000089883B209980C990E9A00F0A6F80E90CB
:10064000E35F20690C9060690990228BE688248919
:100650000F98119FC7190A983F1A1099641A0B999D
:10066000761A0D99CB180093019602940390049783
:1006700005950E9883B210460C99099A00F085F8FA
:1006800013B0F0BD0420225E0220215EE3882069C1
:100690002489009412F000FBF2E7C0466455010083
:1006A000F0B581B00E4D05400E48784401688800D1
:1006B0000D4A7A448018001F4E1C761E0CD0071F6E
:1006C0000468204607F01AFD0068A8423846F4D1B5
:1006D000204607F013FD00E0002001B0F0BDC04649
:1006E000FF0F0000626901004E690100F0B583B0A0
:1006F0001C4615460191FFF7D3FF0026002841D084
:10070000002C019A3ED00026029003892F789F4248
:1007100002D34189B94213D20A2F33D00D2F31D0E1
:10072000B809032803D33F20074039461EE078B2BA
:10073000002100281AD5B806009109D50F2008E03D
:10074000F91A8F00C06807F0D9FC019AC15D0DE06D
:100750000E20FFF7A5FF0028019A009906D0C06877
:1007600007F0CCFC019AF906490E415C002A03D03F
:10077000B0B20818904205D86D1C641E7618200689
:100780000298C2D1B0B203B0F0BDF0B5A3B00A93E5
:100790000F91149110921392FFF782FF002800D15D
:1007A00044E12C9907910B90047900200990C043F3
:1007B0000890022C5DD313AD281D3C210D9014F040
:1007C000F3FC10981390089AA240D0431290800036
:1007D0000F9929500E92901C0C900026F7000F984C
:1007E000F840C5B21098F840C4B2A542284600D3DC
:1007F0002046A542294600D82146081A401C1299D5
:1008000014F010FBA542119617D90221C9430E9A84
:100810008A422AD801210D9A0C9B05464D432D1979
:10082000FF2D00D3FF25BD4016682E4340C25D1C3E
:10083000491C9D422B46F0D217E00221C9430E9A73
:100840008A4212D801210D9A0C9B129C641A4443CF
:100850006419FF2C00D3FF24BC401668264340C215
:100860005C1C491C9C422346EFD2119E761C032E31
:10087000B4D1289C079D002D00D1D9E02A98299950
:100880002B9F02190A9809180D9103460B99099894
:100890002E4601251195AE1B3D780D2807D10A2D56
:1008A00005D1761C7F1C0A20012EF5D1C1E00E93E4
:1008B0000F94134608894A791292854204D30B9902
:1008C0004989A9420B990FD20D2D01D00A2D27D1AC
:1008D00012980F9A121814461018984200DDADE0D5
:1008E0001A4628460A9B67E00C93281A099085004F
:1008F000086907F003FC04460B98C06807F0FEFB8C
:1009000040194088201806900B98C06807F0F6FB45
:100910000E9B455D0B98C07907900F9C224613E013
:10092000C02D0C9305D33F212940002009950D4689
:1009300005E068B2002845D40020099505460790D7
:1009400006900F9C22460E9B58190D99884207D994
:100950001298241820180C9988426ADC0A9B2246B7
:100960000698002819D00F920246129868430B99F6
:100970000979484304900392029113A801901198B9
:100980008840009018460F992A4611951D46129BE3
:1009900012F060F92B46119D08E012980090109813
:1009A00019460E932B4612F077F90E9B0B990C9A71
:1009B00007982818C3180998089D75437F1C002EB6
:1009C00037D065E7A80601D50F2000E00E200F9C68
:1009D000FFF766FE002823D00F90006907F08EFB1A
:1009E00012900F98C06807F089FBE906490E09913B
:1009F000401840881299081806900F98C06807F0B0
:100A00007DFB0999435C0B98807922180F988179B6
:100A1000521A407912900020079009951D4692E7DE
:100A2000002009950546079006908BE7002003E01B
:100A30000A9B98B22104081823B0F0BD0E9880B22A
:100A4000F8E7F0B59DB01B921A9106462398411E17
:100A500002468A4118921393191A1291002901DC57
:100A6000002100E00121139A002A00D5C0E1189A64
:100A70000A401892249910912299139FC21B039245
:100A800080220A400A9240220A400D9220220A4007
:100A9000099210220A400C9208220A40089204226D
:100AA0000A400B920123129A9C1A069402240C40CD
:100AB000079419400E911C93DC1B1A994018C01B17
:100AC0000590401C04900025E943501E0F90169598
:100AD0001196481C17900E9800281995159114949A
:100AE00006D10798002855D0189800281FD147E054
:100AF0001898002838D01C9C00940F983B1A1B981B
:100B00004018451C10981A9E31462A4612F0C4F827
:100B10000094149CB819119E0699411830462A4633
:100B2000199D129B12F0B8F80798002832D01B9834
:100B30003D181398B8420AD01C9800900398159954
:100B40004018831C10981A992A4612F0A5F81C9890
:100B50000090059815994018811C30462A46129B32
:100B600012F09AF8199D15E01C9800901B984218F5
:100B700030461A993B4612F08FF80798002809D0A2
:100B80001C9800901B983818421E30461A99179BE3
:100B900012F082F80B98002806D1089800285AD045
:100BA000189800281FD133E01A98C51B1898002800
:100BB00020D01C9C00940F9EBB1B1B9815994018BD
:100BC000421C02921098294612F066F80094149C78
:100BD000A91B1198029A119E129B12F05DF80898B9
:100BE0000028199D37D01398B8421BD11B983E1886
:100BF0001C9827E01C9800901B98159942183046C5
:100C000029463B4612F048F808980028199D22D042
:100C10001C9800901A9841191B983818421E3046AB
:100C2000179B16E01C9C00941A9841191B983E18BB
:100C30000398159A8018831C1098324612F02CF8ED
:100C40002046149C0090049841191198324606469B
:100C5000129B12F021F80C98002806D10998002860
:100C600053D0189800281ED146E01B9845191898B3
:100C7000002835D01C9C00940F983B1A10981A9E9F
:100C800031462A4612F008F80094149CB819119EB7
:100C90000699411830462A46129B11F0FDFF09982B
:100CA0000028199D31D01B98C51B1398B84215997F
:100CB0000AD01C98009003984018831C10981A9929
:100CC0002A4611F0E9FF15991C98009005984018E4
:100CD000811C30462A46129B11F0DEFF199D14E05C
:100CE0001C98009030461A992A463B4611F0D4FFD2
:100CF00009980028199D08D01C9800901B98C21BC9
:100D000030461A99179B11F0C7FF0D98002806D19D
:100D10000A98002856D0189800281ED131E01B9858
:100D200045191A98C61B189800281DD01C9C0094C1
:100D30000F983B1A109831462A4611F0ADFF0094E7
:100D4000149C0F98311A119E30462A46129B11F0BE
:100D5000A3FF0A980028199D34D01398B84219D1DE
:100D60001B98C21B1C9826E01C98009011983146D5
:100D700006462A463B4611F08FFF0A980028199D27
:100D800020D01C9800901A9841191B98C21B30461D
:100D9000179B15E01C9800901A9841191B98C41BCA
:100DA0000398159A8018831C1098224611F074FF3E
:100DB00022461C98149C0090049841193046129BBE
:100DC00011F06AFF791E012C384600DB0846169A9E
:100DD000521C012C169201DB169A521A510061180E
:100DE0004C1C6D1E179981421397074600DA70E676
:100DF0001DB0F0BDF0B589B08E68022E20D80C462B
:100E00000421415E08910221405E05902068069011
:100E100060680790E06807F071F90546A7682069E7
:100E200007F06CF90ECC0124B4404B43534300A9A6
:100E3000B0C103900493089905AB0DCB11F00AFFE4
:100E400009B0F0BD70B584B000200390029002ADEF
:100E500008242846214611F0A9FEA87802994140AD
:100E600003984840A97941402970E8786A7842405F
:100E700068795040EA7942406A70D0B20090064DDD
:100E80004E467019401CCBB21721044A7A4406F032
:100E900045FF745504B070BD00000000724D0100A4
:100EA000F0B58FB007AD28461830072114F07CF953
:100EB0000620687011202870A81C2449794410224B
:100EC00014F078F90024EC751820A8756C750C20C6
:100ED00028751220E8740520A8741A484946081895
:100EE000C588868818480F18384614F015FD0097F5
:100EF000C3B230462946224601F00EF901250028EA
:100F00001CD1114E182007A901F0D6F9002815D1DF
:100F100048468519284614F0FFFCC0B200940190A1
:100F2000029503940494059406943021602220468F
:100F3000234600F0C3FE0546401E854128460FB0FB
:100F4000F0BDC04618000000000000005461010020
:100F5000F0B589B0444F4846C0190021818414215E
:100F6000017301F08BF9002872D1FFF76BFF0020AD
:100F700006213F4A7A4401F02FF9002868D100F099
:100F8000F9FF002864D14846C01901460831821D86
:100F900000920191031D012000241822214600F037
:100FA00059FF002854D10125284600F0D5FE00281D
:100FB0004ED104942D4803900295102601960820E6
:100FC00008900090284629462A462B4600F0E6FE67
:100FD00000283DD14846C0190E3000900220254916
:100FE0007944012509232A4600F0E2FF00282FD189
:100FF0004846C119C88910310A2200961646019444
:10100000029403920495059102211B4A7A44992384
:10101000079101F01DF800281AD14846C119C88966
:101020001231089A00920192079A0292039604954F
:101030000591124D7D44992311462A4601F008F886
:10104000002805D10120072101F0F4F8002802D082
:10105000012009B0F0BD4846C019C462FFF720FF67
:10106000411E8841F5E7C0461800000040E201003B
:10107000CC6001003060010014600100FC5F0100E1
:10108000F0B581B004461E484F463818482114F088
:101090008BF81C48242139541B49791800264E60CE
:1010A0003D18686800906E60284611F069FD174889
:1010B00044213954009969603818002C01D1214627
:1010C00000E00321C170012181704670042111F0FC
:1010D000FDFD0B497C500E4D002C0AD07819406A5A
:1010E000002806D10020014605F078FAFFF730FF0E
:1010F00001E04846465048464019C68301B0F0BD5D
:1011000018000000F001000088020000C400000088
:10111000B4070000B0B50848494624220A54074ADB
:101120008A18002353600C1865686360204611F02C
:1011300027FD6560B0BDC046F001000088020000D8
:1011400010B504464068083000F004F8411E88419C
:10115000207010BDF0B583B004464078E51C012630
:101160003E2809D0FF2832D00528304600D0C3E001
:10117000FFF7D0FF00F0DEF8E078012800D0BAE0F9
:1011800068484F4602963E1814203073A878E978D4
:101190000902081870817D21890000910C21182214
:1011A0000024234601F0B0F85F48242139543476F6
:1011B0005F497918CC835D4979184C603D186E6899
:1011C0006C60284611F0DCFC6E60029894E0287890
:1011D0006978090208180321890288420CDC4C490D
:1011E000884219DC4D4988421DD04D49884200D0C3
:1011F00081E000F08BFA7EE0424988422ED04249DD
:10120000884243D04149884275D14648494608182A
:101210002979C91E01736EE03E4988426ED1686823
:1012200000F0D4FA67E0E079401E012806D83D4876
:10123000494608184089052100F052FE3A484946BF
:1012400024220A54394A8A18002353600C1865680E
:101250006360204611F094FC65604CE02879697960
:10126000090209182F4A48468018008A801C8842C3
:1012700041D1607B01283ED1A07B002830463BD184
:101280004846821801201076918235E028796979E4
:1012900009020918234F4846C019408A401C884259
:1012A00029D14846C01900228263007E002808D058
:1012B000607A21460A3100F073F8287969790902C9
:1012C0000918A878EA78637A0A3400930194120224
:1012D00010180022134600F04FFF00280CD148469A
:1012E000C019826B002A06D04846C119088A3C31D1
:1012F000D2B200F02FF8304603B0F0BD0649884264
:1013000033E7C046010C0000130C0000030C000082
:1013100004040000090400000504000001040000AA
:101320000204000018000000F00100008802000024
:10133000B407000005484946081800220276044B0D
:10134000C918CA834281102005F07FFE18000000F2
:10135000B4070000F0B581B014460D4606460E49AC
:10136000484640187D210901C18348460B49401871
:10137000C0890095002731463A46234600F0CCFE4E
:101380004328F2D04528F0D06428EED048460249E0
:101390004018C78301B0F0BDB4070000180000007A
:1013A000F0B581B00246784D484643190020986355
:1013B000002A2AD04B465B1925241B5D002B3AD10D
:1013C0000B78012B39DD022B4ED0082B5FD0052B7B
:1013D0001CD14B465B1924241B5D002B2BD1032A07
:1013E000034613D34B465B199C8B230A4E789E42CF
:1013F00003460BD1E3B28E789E42034606D1002C01
:1014000074D0042A76D2072300E06723494649199D
:101410003C220E248C5405228A633C3148804B7058
:101420000871484641190022CA628A84574BC01885
:1014300008624A838A8301B0F0BD002B40D0012BA3
:10144000E4D10523032AE1D34C78002CDED18C783B
:10145000002CDBD148464019092A00D309228263B7
:101460003C3013F0ABFEDCE70423032ACED34C78E8
:10147000002CCBD18C78002CC8D148464019092AC1
:1014800000D3092282633C3013F098FED3E7062391
:10149000052ABBD34A78002AB8D189780029B5D16A
:1014A000484640190021C1633C21082242540621CC
:1014B000816301463C3101220A71007B4871BAE721
:1014C0000323052AA2D34A78002A9FD189780029CC
:1014D0009CD14846401944210022425402644021D4
:1014E00004234354C263092181639AE7052A0CD27D
:1014F00008238BE7D21E48464019468B93B2B3426D
:1015000000D81646006AC91C1DE04B465C191F4EE8
:101510009B190E79CF7823623B029E196683B7B27E
:10152000E7620123052A00D170E74124A400A74205
:1015300000D96BE7501F82B2BA4200D8064648462F
:10154000124A8018491D124A4F46BA187D231B01C2
:10155000D383B4B2224613F031FE7819016A091917
:101560000162418B891B4183828B521C8283080458
:1015700000D060E74846064941180022CA83401956
:10158000C06A488057E7C04618000000B006000057
:10159000B4070000F0B503AF89B06E464E4B4A4623
:1015A000D418227BD21D07239A436B469D1AAD4661
:1015B0002422A35C002B01D0012088E030624C463D
:1015C000134645482218012073613061D054306AB7
:1015D00010620020908351830246404820184280C8
:1015E000002962D00B46681D3060E81C7060F56011
:1015F000AA7005212970100A68704846364C0019F7
:10160000047B98B2F2611204336212D04A46324926
:101610005218E41E844200DB0446116AB161A5B28F
:1016200070682A4613F0CAFDB069401925460323A5
:1016300014E0B1612B711A0AEA704A462649521821
:10164000651F854200DB0546146AAAB2B2603068A5
:10165000214613F0B3FDB0682018B36949461E4A0D
:101660008918252432690A55F269521C8A83326A24
:10167000521B4A8308627069085C002821D04846E2
:10168000154934624418208A5919CAB2F5682946A6
:10169000FFF760FE0020316A6054638B002B04D09A
:1016A00048460D494018828BA2E7494600200B4D61
:1016B0004855094A8A187369D0549083491948805B
:1016C00005E0484604494018002101550220FC1F4E
:1016D000053CA546F0BDC04618000000B407000058
:1016E00080B582B06A46074B1846114601DF0648AE
:1016F0000099814202D1019802B080BD042005F01A
:10170000A4FCC046EC890060D4890090F0B581B09B
:1017100000251349164A7A44284602F071FD034613
:1017200010484E4630180621016343630E4FF419EA
:10173000E16025722046103010210E4A7A4406F0EE
:10174000EDFA2320F05518206060084830180A4947
:1017500079444160204611F013FA01B0F0BDC04653
:1017600040420F0018000000F00100008802000055
:10177000C7FFFFFF3C4201002900000070B504468E
:101780000E48494624220A540D4A8A180023536001
:101790000D186E686B60284611F0F2F96E6009480A
:1017A000844207D1084849460818416B408900F037
:1017B0002BFB70BD0120FFF763FC70BDF001000042
:1017C00088020000115010B01800000070B50346E8
:1017D0000F484D4628180621016343630D4EAC198E
:1017E000E160012020722046103010210B4A7A441B
:1017F00006F094FA2320A85518206060064828189F
:10180000074979444160204611F0BAF970BDC046DD
:1018100018000000F0010000880200008A41010069
:101820001F00000070B504460E48494624220A54A1
:101830000D4A8A18002353600D186E686B602846A5
:1018400011F09EF96E600948844207D10848494664
:1018500008184089012100F069FB70BD0120FFF7E5
:101860000FFC70BDF001000088020000115010B0A4
:1018700018000000F0B583B00F4605463D213A46FA
:1018800013F0B2FC0646EC190022D0430290002E61
:1018900008D0A64206D0304601783D2938D1401CF8
:1018A0008442F9D10192002E00D0771B05214F43CD
:1018B000FF08384613F03CFB022905DC012909D05A
:1018C00002290BD104200AE0032905D0042905D1FF
:1018D000012004E0062002E0032000E00198002E31
:1018E00000D0A61BB04213D1002F14D00B4E7E4463
:1018F0003C46287801F09FF801462022304613F03C
:1019000073FC002804D06D1C641EF2D1384600E040
:10191000029803B0F0BD0020FBE7C0465957010014
:10192000F0B58BB017460546099108461146FFF7FA
:10193000A1FF002800D195E000244B4979440A9189
:1019400021460394224601970892059006953D464C
:1019500005271046394613F065FA06467E432046B1
:10196000394613F05FFA07460998C05D01F063F845
:10197000014620220A9813F037FC0790781CA842F1
:10198000039B19460DD20999085C01F054F80146F1
:10199000202204940A9C204613F026FC039B011B82
:1019A000049C0491089A961BB91CA9422F460FD299
:1019B0000998405C174601F03EF801462022254672
:1019C0000A9C204613F010FC3A46019F031B2C464C
:1019D0000A980799091A012E10DD022E22D0032E33
:1019E00025D0042E069D0598029E32D113461F2253
:1019F000049E16401A46490176182AE0002E21D08E
:101A0000012E069D0598029E23D18907090E1646D0
:101A1000049AD206920E5118DA06D20F891832466D
:101A20000E4616E008010499C906090F0EE0C90721
:101A3000090E1046049AD206520E51180246D806D4
:101A4000800F03E0C8000499C906490F0E18069DCF
:101A5000059802962E7008346D1C401E521C0028FA
:101A600000D071E70BB0F0BD0B570100F0B503AF2C
:101A70008BB06E4670600024002A254607D00025F2
:101A8000485D312803D16D1CAA42F9D11546B161D8
:101A9000511B3A4848437D21C900F26113F0C2F955
:101AA00002460832364911406A46521A3061411CDA
:101AB0009546B2601046316013F08CFBF560F0691A
:101AC000A8422DD93069B168081870610024E0433C
:101AD000B062F1683462B0697162415C294878444F
:101AE0003A2504462A4613F07FFB002841D0001B0C
:101AF000C0B20146336A002419430CD071690A78D8
:101B00006A4310180870B26A8918000A641C002819
:101B1000F5D19C42F3D3716A491CF0698142D9D155
:101B200033681D1B3069A8420ED33069B1680918AB
:101B300060420A185278002A03D1401CF9D31D468E
:101B400002E031690818451C591BF4680819B06295
:101B5000706800280DD07162214613F03BFB30699C
:101B6000854206D870680019B1684919726A13F085
:101B700021FBB06AFC1F053CA546F0BDDD0200005C
:101B8000F8FFFF008E55010010B50A4601460024FB
:101B90002046FFF76BFF032800D8E04310BDF0B5E7
:101BA00089B00446FFF762FF051F01AE20272046DB
:101BB000294632463B4610F079FD304639463246DA
:101BC0003B4610F073FD01980090615D62195378F7
:101BD0001B0259189378D2781202D21812045118A5
:101BE000091A4842484109B0F0BDD4D4F0B5FFB05D
:101BF00086B004AC0FC40120010244AE304610F0A0
:101C000097FD34AF40243846214613F0E3FAFF2015
:101C1000023078808B988A9D002D039000D1284651
:101C200078708198387010362349794430463A46A6
:101C3000234605F0EFF9002D2ED008AC204613F016
:101C400021FEA085000417D108A811F097F8129082
:101C500014AC20462946039E324613F0ABFAA01975
:101C60008025A91B13F0B6FA00210091019144A828
:101C700022462B4610F0FEFC11F06AF808A98842B3
:101C800002D1129811F07AF814A8802113F0A2FA68
:101C900008A8808D00280CD1049800900598019028
:101CA00044A80121069A079B10F0E4FC7FB006B01F
:101CB000F0BD05F0CAF9C04682540100F0B5CBB0C2
:101CC000150A04AC2571E2700A0AA2706170519D78
:101CD000E5715099A1716371207003A902910020F0
:101CE0000190087027460837529938462A4606F070
:101CF000F5F9539E7E557819471C5499384632465B
:101D000006F0ECF95598B855B919569A130ACB70E4
:101D10008A70000A487045A800901822019F394631
:101D200006F0E2F901204A9002984990A8190D3076
:101D3000C0B248904794074845900098394604F04F
:101D40007DFC002801D4039800E0F843C0B24BB0FA
:101D5000F0BDC0463F008300F0B5C9B002AE3070A0
:101D600001AF00243C7043AD18222846214606F0FE
:101D7000BBF9012048904797469045960648439006
:101D80002846214604F05AFC002801D4019800E0BE
:101D9000E043C0B249B0F0BD3F008500F0B5C9B026
:101DA000519C250E02AEB572250C7572250A35724E
:101DB000F471529CF472509CB4714F9C74714E9C9F
:101DC0003471F370B2707170307001AF00243C70E8
:101DD00043AD18222846214606F086F90120489096
:101DE00047970C2046904596064843902846214642
:101DF00004F024FC002801D4019800E0E043C0B2C4
:101E000049B0F0BD3F008600F0B5C9B00A0C02AE83
:101E1000B2807180308001AF00243C7043AD182245
:101E20002846214606F060F9012048904797062091
:101E300046904596064843902846214604F0FEFB0E
:101E4000002801D4019800E0E043C0B249B0F0BDE1
:101E50003F008800F0B5CDB0009301920291044696
:101E600004A803900026072731463A4606F03CF9BD
:101E700006AD0198A870029868702C7047AC1822C3
:101E80002046314606F030F94C97039F4B970320CC
:101E90004A904995114847902046314604F0CEFBC0
:101EA000002818D404A80078002815D1781C53996C
:101EB000529A037844782402E318009C23808378A4
:101EC000C4782402E3181380027940790002801854
:101ED0000880304600E0FF204DB0F0BD3F008A0092
:101EE000F0B5C9B002AEB170308001AF00243C70D3
:101EF00043AD18222846214606F0F6F80120489006
:101F000047970320469045960F20449006484390FB
:101F10002846214604F092FB002801D4019800E0F5
:101F2000E043C0B249B0F0BD3F009300F0B5C9B086
:101F300002AEB170308001AF00243C7043AD182276
:101F40002846214606F0D0F8012048904797032004
:101F500046904596064843902846214604F06EFB7D
:101F6000002801D4019800E0E043C0B249B0F0BDC0
:101F70003F00A50070B588B001AE0024347002ADFA
:101F800018222846214606F0AFF801200790069651
:101F9000064802902846214604F050FB002801D450
:101FA000019800E0E043C0B208B070BD3F000101FD
:101FB000F0B5CBB0019302920F46064603A800216C
:101FC0000324224606F090F804A80670B11E4A4287
:101FD0004A410225012E294600D01101012E02D0CE
:101FE000022E2DD11025401C461839462A4606F0EF
:101FF00075F8019870700298307045AF002618226D
:102000003846314606F070F84A9403A84990E81C17
:10201000489004A847900D4845903846314604F052
:102020000DFB00280ED403A8007800280BD150988F
:1020300003A94A788978090289180180304602E0AC
:10204000472000E0FF204BB0F0BDC0463F0002013A
:10205000F0B5CFB01D4606920F46064607A80021F0
:102060000324224606F040F808A887700680B91EAF
:102070004A424A410226012F314600D01101012F68
:1020800002D0022F40D11026C01C47185899019148
:102090000594579C5699029155990391549904912E
:1020A0000699324606F01AF8280A78703D700198B1
:1020B000B8717C71029838710398F8700498B87000
:1020C00049AF002518223846294606F00DF8059834
:1020D0004E9007A84D900A364C9608A84B900D4894
:1020E00049903846294604F0A9FA00280ED407A8DA
:1020F000007800280BD1599807A94A7889780902F5
:1021000089180180284602E0472000E0FF204FB0F8
:10211000F0BDC0463F000401F0B5C9B01D4602AF96
:102120007B713A717980388001A800900024047096
:10213000B81D4E991A4605F0D1FF43AE182230461D
:10214000214605F0D1FF0120489000984790A81D36
:10215000C0B246904597074843903046214604F068
:102160006DFA002801D4019800E0E043C0B249B004
:10217000F0BDC0463F000601F0B5C9B002AF4E9DAC
:10218000BD717B713A717980388001A8009000247C
:102190000470F81D4F992A4605F0A0FF43AE18229F
:1021A0003046214605F0A0FF012048900098479056
:1021B000E81DC0B2469045970648439030462146F8
:1021C00004F03CFA002801D4019800E0E043C0B2DA
:1021D00049B0F0BD3F002601F0B5C9B00D4602AFD1
:1021E0007970387001A8009000240470B81C114662
:1021F0002A4605F073FF43AE18223046214605F00B
:1022000073FF0120489000984790A81CC0B24690E8
:102210004597074843903046214604F00FFA0028BE
:1022200001D4019800E0E043C0B249B0F0BDC0461F
:102230003F000C00F0B5C9B002AE7170307001AF54
:1022400000243C7043AD18222846214605F04CFF7F
:1022500001204890479702204690459606484390B3
:102260002846214604F0EAF9002801D4019800E04C
:10227000E043C0B249B0F0BD3F000F0070B588B078
:1022800001AE0024347002AD18222846214605F024
:102290002BFF01200790069606480290284621460B
:1022A00004F0CCF9002801D4019800E0E043C0B26A
:1022B00008B070BD03000300F0B5C9B002AE3070C5
:1022C00001AF00243C70701C1F2205F007FF43ADD6
:1022D00018222846214605F007FF0120489047971D
:1022E000202046904596074843902846214604F012
:1022F000A5F9002801D4019800E0E043C0B249B03C
:10230000F0BDC04608000900F0B5C9B002AE4E9C51
:102310003481F380B2807180308001AF00243C7042
:1023200043AD18222846214605F0DEFE01204890E4
:1023300047970A20469045960F20449006484390C0
:102340002846214604F07AF9002801D4019800E0DB
:10235000E043C0B249B0F0BD3F008101F0B595B097
:10236000039306468020002333503648F0603648F9
:10237000B060364870603648306008683061486840
:1023800070618868B061C868F06108693062486946
:1023900070628869B062C869F06204933363106840
:1023A00070635068B063F3671A980290B067304664
:1023B000803043609068F06305AC0194304621465C
:1023C00000F048F83046403001462246B8CAB8C14D
:1023D0004322B35C0F210B40B35435464335049A76
:1023E0006A732A790A402A712A7A0A402A722A7B59
:1023F0000A402A736978FC2211406970697911409A
:102400006971697A114069721124214600F02FFB2D
:1024100037465137019910311022384612F0CAFE62
:102420000498A8773846214600F021FB30466230F8
:10243000214612F0CFFE30460399029A00F086F84A
:1024400015B0F0BD7465206B322D62796E64203357
:1024500065787061F0B593B00C4601906CC86CC49F
:102460006CC86CC46CC86CC46CC86CC408463C3086
:10247000059008462C30049008461C30039008460E
:102480000C301190084638301090084628300290E1
:10249000084618300F90084608300E900846343031
:1024A0000D90084624300C90084614300B90081DFF
:1024B0000A90084630300990084620300890129162
:1024C000103107910020029E039C049F059D0690F9
:1024D000129807AB0ECB00F01DF90AAB0FCB00F042
:1024E00019F90E980F993246109B00F013F91198C4
:1024F00021463A462B4600F00DF912980B993246C8
:102500002B4600F007F90A980F993A46099B00F00C
:1025100001F90E982146089A0D9B00F0FBF81198DE
:1025200007990C9A109B00F0F5F80699481C0929A8
:10253000CDD30020019B129C1958225851182150CC
:10254000001D4028F8D113B0F0BDD4D4F0B58BB045
:102550001646024640320292623003903009401C17
:10256000039D102E344600D31024002C23D006AF38
:102570000490384605910599224612F01BFE381941
:102580001021091B12F026FE012038741124384650
:10259000214600F06CFA284629463A46234610F0B8
:1025A0005DFA0094074B7B4428462946029A10F0B6
:1025B00085FA049805991031103E401ED1D10BB018
:1025C000F0BDC0464E4B0100F0B593B017460291E6
:1025D0000546802028582E46803671680022C01893
:1025E0005141009210465041012825D01C46286BCD
:1025F000401C286303A92846FFF72CFF0194002CF8
:102600000BD003A80299019A3B7804785C400C70C7
:102610007F1C401C491C521EF6D128460299019C81
:102620002246FFF793FF3068001930607068009908
:102630004841706013B0F0BD014804F006FDC0468B
:1026400005B10000F0B593B002920F460546802018
:1026500028582E46803671680022C01851410092D9
:1026600010465041012825D01C46286B401C286389
:1026700003A92846FFF7EEFE0194002C0BD003A817
:102680000299019A0B7804785C403C70491C401C0C
:102690007F1C521EF6D128460299019C2246FFF764
:1026A00055FF3068001930607068009948417060CB
:1026B00013B0F0BD014804F0C8FCC04605B10000ED
:1026C000F0B587B001910546806FE96F03910290E4
:1026D000802028580490284680304068059002A940
:1026E000102628463246FFF731FF2F466237513514
:1026F0001124384639462A46234610F0AFF93846A9
:10270000214600F0B4F901983946324612F052FDE4
:1027100007B0F0BDB0B50C6805682C1904601D68E1
:1027200065401024E5411D601468641914600D684B
:1027300065401424E5410D6004686419046018685C
:1027400060401824E04118601368181810600A6887
:1027500042401920C2410A60B0BDD4D4F0B587B060
:1027600006AD00242C7005950120029005A801906B
:1027700000947D48784440219F23224604F08AFC3F
:10278000002800D1E5E02878012800D0E1E012F02F
:1027900021FA054612F0AAFA342068436E4F4946E2
:1027A000CE1932466832714B7B4413506B4B032574
:1027B000CD5415186E48784404222A712C62039572
:1027C0006862CD186C60284610F0DAF96860022063
:1027D00010F0EAFA6860B06E00283FD04846C01991
:1027E0006C24015D7A25405B884237D210F080F975
:1027F0005B49884204D110F0AFF9594988422DD184
:102800004846C019025D415B914222D208463826F3
:1028100070434A46D3199A6E101868331B6A002B0E
:1028200006D0984700280AD04946CA19515B926ED3
:10283000012802D188B24643901901F0FFFC4846B6
:10284000C019415B491C4153025D88B29042DED3FE
:1028500000E00846904201D110F0E8F903982430D6
:1028600003904B20800004904846C019806E0028D9
:102870003FD04846C0196C26815D7A25405B88426E
:1028800037D210F035F93649884204D110F064F996
:10289000334988422DD14846C019825D415B91423F
:1028A00022D20846382460434A46D3199A6E10183B
:1028B00068331B6A002B06D0984700280AD0494687
:1028C000CA19515B926E012802D188B24443101993
:1028D00001F0B4FC4846C019415B491C4153825D7C
:1028E00088B29042DED300E00846904201D110F059
:1028F0009DF94C461B4820180022049910F010FA4C
:10290000E41904F095FD6C20205C7A21615A814223
:10291000AAD304F079FC039C4846124940180022CF
:10292000049910F0FDF904F083FD10F0E5F900289A
:1029300002D020680028EFD112F06CF904F01EFEDE
:1029400004F026FE4846074940180022049910F07A
:10295000E7F907B0F0BDC04688020000F0010000B2
:10296000115010B0C4000000885F010060490100F0
:10297000BB0100000E490840884215D10B4948466A
:102980004058002810D0012800D801204A4651188C
:102990008C31084A7A440B68934203D03431401E8C
:1029A000F9D101E000200860002070478802000093
:1029B00003000080DDFFFFFF10B58CB00FF0E4FDD9
:1029C0006C46204612F05EFFA085000407D16846E1
:1029D00010F0D4F90A900020C04310F013F910F061
:1029E000B7F96946884202D10A9810F0C7F96846DB
:1029F000808D002801D10CB010BD04F026FBD4D48A
:102A000010B502460748504001230024884218466A
:102A100000D3204651188908402900D8234618437E
:102A200010BDC046FFFF000020385F2801D3002002
:102A300070470120704701466139C9B21A2900D296
:102A40002038C0B2704710B500290ED00278002A95
:102A500009D101231A46994203D0845C531C002CEF
:102A6000F8D08A4201D2002010BD012010BD10B55F
:102A70004A080FD00918491E0B7804785C4004708E
:102A80000B7863400B7004785C400470491E401C56
:102A9000521EF1D110BDD4D4B0B5002A0ED0084BCF
:102AA0007B440C7824091C5D04700C780F252540AC
:102AB0005C5D4470801C491C521EF2D1B0BDC04602
:102AC0005A470100F0B581B00C46064600252F4656
:102AD0000A22304621462B4612F030FA7F1C09228A
:102AE000921B2A46A24106460C46F1D3384601B055
:102AF000F0BDF0B58BB016461099002900901ED09D
:102B00003546049303910A22029200242846049930
:102B1000234612F013FA06460F46029A0294234601
:102B200012F02CFA281A049A8A4102430AD1039916
:102B3000491E0806354604973B46E3D107E00020CE
:102B4000029004E02B46039802902E46049B182026
:102B5000029F039019463C460A27002530460493FD
:102B60003A462B4612F0EAF9029001913A4627467E
:102B7000039C2B4612F002FA321A30210A43601EDF
:102B800005AB1A543A0613D07F1E3A06019B11D1A9
:102B9000A01E05AA2E24145400270922921B3A468F
:102BA000049CA24106D30398C01E05AA115401E05B
:102BB0002F46019B0921891B04998D41029EC8D390
:102BC0003906C6D105A909181822121A009812F060
:102BD000F1FA0BB0F0BDD4D4D0B502AF94B06E46CC
:102BE000F41D41340246494B4846C01881780129FA
:102BF00068D80179481E3F2864D84846C018C07874
:102C000000285FD1424B4846C0184078401E022839
:102C10005BD2F2610A460720C543B161C81D284056
:102C20006946081AB0608546F260104601F064F803
:102C30007061C01D28406946081A30618546F51D3F
:102C40001935284612F01EFEA88500041CD1F01D7F
:102C5000193010F093F8206049462D48081830606C
:102C600018302A4A89184A1DB168F5682B46FFF7C3
:102C7000E9FC82B0102000903068831C3069B16894
:102C80002A4601F03DF802B010F062F8F11D19314A
:102C9000884202D1206810F071F8B068F16812F033
:102CA00099FAF01D1930808D002810D17569F469EA
:102CB00020882946FFF7A4FE00280AD067200002DA
:102CC00004F0C3F9134804F0C0F9D120000204F065
:102CD000BCF949460D4871600818218840183169CF
:102CE0002A4612F067FAB069402801D3022000E0BA
:102CF0000320F26906497369746861184870108886
:102D0000C01810800920000304F09FF9B0060000ED
:102D10001006000005B10000D0B502AF94B06E46B9
:102D2000F41D41340246494B4846C01881780129B8
:102D300068D80179481E3F2864D84846C018C07832
:102D400000285FD1424B4846C0184078401E0228F8
:102D50005BD2F2610A460720C543B161C81D284015
:102D60006946081AB0608546F260104600F0C4FF5C
:102D70007061C01D28406946081A30618546F51DFE
:102D80001935284612F07EFDA88500041CD1F01DDF
:102D900019300FF0F3FF206049462D4808183060C5
:102DA00018302A4A89184A1DB168F5682B46FFF782
:102DB00049FC82B0102000903068831C3069B168F3
:102DC0002A4600F09DFF02B00FF0C2FFF11D19313D
:102DD000884202D120680FF0D1FFB068F16812F08C
:102DE000F9F9F01D1930808D002810D17569F4694A
:102DF00020882946FFF704FE00280AD06720000239
:102E000004F023F9134804F020F9D120000204F063
:102E10001CF949460D48716008182188401831692D
:102E20002A4612F0C7F9B069402801D3022000E019
:102E30000320F26906497369746861184870108844
:102E4000C01810800920000304F0FFF8B00600004D
:102E50004008000005B10000D0B502AF84B06E4656
:102E60000246284C484600198178012929D805795D
:102E7000681E3F2825D848460019C078002820D170
:102E800021494846405C401E02281DD2E81D07210A
:102E9000884369460B1A49461B4808181830091917
:102EA000F2604A1D9D46B36019462B46FFF78CFB26
:102EB000F06800882946FFF7A3FD002808D06720A6
:102EC00003E0124804F0C1F8D120000204F0BDF87C
:102ED000484670600019F1680C4609884018B168CE
:102EE0002A4612F067F9402D01D3022000E00320AA
:102EF0000549726850542088401920800920000339
:102F000004F0A3F8B00600001006000005B10000B0
:102F1000D0B502AF84B06E460246284C4846001930
:102F20008178012929D80579681E3F2825D8484687
:102F30000019C078002820D121494846405C401E35
:102F400002281DD2E81D0721884369460B1A49460D
:102F50001B48081818300919F2604A1D9D46B360D5
:102F600019462B46FFF730FBF06800882946FFF72B
:102F700047FD002808D0672003E0124804F065F8F8
:102F8000D120000204F061F8484670600019F16831
:102F90000C4609884018B1682A4612F00BF9402DFA
:102FA00001D3022000E003200549726850542088B4
:102FB000401920800920000304F047F8B006000003
:102FC0004008000005B10000214C484600198078F7
:102FD000012836D8484600190179202931D1C07816
:102FE00000282ED148460019401D202100F0C6FDC2
:102FF000002826D018484946095C002924D04946B3
:1030000009180D4618352CCD496A194315430D434F
:103010001AD1494609188A68CB68134314D04978F5
:10302000002911D149460D18284628300919491D93
:10303000002200F033FD012068700920000304F035
:1030400004F8044804F001F8D120000203F0FDFF69
:10305000B006000005B10000E0080000D0B502AFE6
:103060009CB06E46F41D393402463D4D4846401929
:10307000807801285CD8484640190179C078084317
:1030800056D138494846405C002854D072614846C1
:103090004018034618330ECB406A10430B430343DA
:1030A00049D13248784400683061C01D0721884307
:1030B0006946081AF0608546F01D1130706012F004
:1030C000E1FB71688885000414D1F01D11300FF008
:1030D00055FE2060484623494118283121202022EE
:1030E000F31D4133B360B3680FF0D4FBF068B168EF
:1030F00000F0F0F90FF02CFEF11D1131884202D1E1
:1031000020680FF03BFEF01D4130282112F062F8DC
:10311000F01D1130808D00280FD17469208831692D
:10312000FFF76EFC00280AD06720000203F08DFF35
:103130000D4803F08AFFD120000203F086FF4846C5
:10314000401921884018F16835692A4612F032F892
:103150002088401920800920000303F076FFC04634
:10316000B0060000E008000005B100006C4101005D
:103170009CB04B4D48464019817801292ED8C07823
:1031800000282BD1484640190079484979440E68F7
:1031900031460931814221D1484640194479444899
:1031A00078440068A04219D3002807D0494649193D
:1031B000891D0A6812BA04C1401EFAD14846401956
:1031C00081190527C859491D496802460A4305D097
:1031D0004A465219B218527B022A02D3314803F0F0
:1031E00034FF0792304B4A46D25C002A06D04A464A
:1031F000D3181A6A5B6A04921A4303D1D1200002E1
:1032000003F023FF049A101A8B41E7D308A8039018
:1032100012F038FB0399888500041FD108A80FF02D
:10322000ADFD1290484641198B19DA5905921E4A94
:10323000801806904268581D4368881D00900194CC
:103240000798029014AC20461146059A00F03EFA09
:10325000069828300022214600F020FC0FF078FD6F
:1032600008A9884202D112980FF088FD14A82021E5
:1032700011F0B0FF08A8808D0028C1D1484641193F
:1032800089194A1DC959084BC018036A591A0162A5
:10329000416A5268914141620920000303F0D5FE62
:1032A000B006000005B10000E008000094400100F5
:1032B0007C4001009CB04B4D484640198178012963
:1032C0002ED8C07800282BD14846401900794849AB
:1032D00079440E6831460931814221D1484640196E
:1032E0004479444878440068A04219D3002807D0A4
:1032F00049464919891D0A6812BA04C1401EFAD10B
:103300004846401981190527C859491D4968024690
:103310000A4305D04A465219B218527B022A02D3F8
:10332000314803F092FE0792304B4A46D25C002AA5
:1033300006D04A46D3189A69DB6904921A4303D12E
:10334000D120000203F081FE049A101A8B41E7D3CA
:1033500008A8039012F096FA0399888500041FD1FB
:1033600008A80FF00BFD1290484641198B19DA5945
:1033700005921E4A801806904268581D4368881DB1
:10338000009001940798029014AC20461146059ACB
:1033900000F09CF9069828300122214600F07EFBBF
:1033A0000FF0D6FC08A9884202D112980FF0E6FC73
:1033B00014A8202111F00EFF08A8808D0028C1D18B
:1033C0004846411989194A1DC959084BC0188369D3
:1033D000591A8161C16952689141C1610920000394
:1033E00003F033FEB006000005B10000E008000065
:1033F000503F0100383F0100F0B503AF95B06E4675
:10340000F31D3133F36031607060002A56D42F48C9
:103410007844F11D393118C818C138C838C10120A5
:10342000C007024327494B46591849680143F068D1
:10343000C16002616846B0606D46403DAD46F41D16
:103440000934204612F01EFAA08500041DD1F01D9B
:1034500009300FF093FCF168086084B00C201C491F
:103460007944009532680192029103900020212452
:10347000F21D3932052321460FF04EFB04B0202205
:103480002046294673680FF005FA0FF061FCF11D24
:103490000931884203D1F06800680FF06FFC4021C9
:1034A000284611F097FEF01D0930808D002806D1C6
:1034B000B0688546FC1F053CA546F0BD024803F0F8
:1034C000C4FDC0466000000005B10000503E010090
:1034D000143E010070B594B00A460546212001ACA7
:1034E0000126214633460FF0EBF902980019C07906
:1034F0003040801C2870681C09342022214611F0BD
:1035000059FE14B070BDD4D4F0B503AFB9B06E4657
:10351000F41D6134F4631C46B1637063BD68F868E0
:10352000002803D1706BB16BFFF766FF002D00D14F
:10353000BEE0F01D693008303063F01D9130093075
:10354000F062706B0830B062756234626846F06198
:103550006C4620462838B061854668464038706120
:103560008546F51D3935284612F08CF9A8850004EA
:103570007AD1E51FF01D39300FF000FCF16B0860C7
:10358000306A0468002C20D4746B217831612120CA
:103590002070F11D9131B1600123F36022460FF0DC
:1035A0008FF9F06B406BB1684018C079F168084042
:1035B000801CB1690870481C2022F16A11F0FAFDE4
:1035C00030692070306A046808E00020B169087032
:1035D000706B4268481CB16A11F0ECFDEC70200A77
:1035E000A870200C6870200E287082B0402074698A
:1035F0000094019020252523B06B2946B2690FF075
:10360000ADF802B0706B0078F31D693321462A468D
:103610000FF040F9F46BE2682A497944356B28468B
:103620000FF0F0F9002847D5E06882B00090264BF3
:103630007B4428462946B26A0FF026FA02B0E168B8
:1036400028460FF0F5F9002836D171692031202283
:10365000B06B11F0AFFDF01D6930716B1CC81CC15F
:103660001CC81CC13CC83CC10FF072FBF11D3931B4
:10367000884203D1F06B00680FF080FB2521B06910
:1036800011F0A8FD4021706911F0A4FDF01D693012
:10369000282111F09FFDF01D3930808D0028316AFE
:1036A0000BD1F0690C1D716A4D1E854600D04BE7A9
:1036B000FC1F053CA546F0BD014803F0C6FCC04612
:1036C00001D10000223C01000C3C0100F0B503AF29
:1036D000A9B06E46F41D6D343462F3603261B1609E
:1036E00070616846B062FF250235284604F098FFF5
:1036F000B061C01D072188436946081A854670627B
:10370000294604F099FF0546F41D4534204612F081
:10371000B9F8A08500042C4626D0B5690FF018FB37
:10372000F11D4531884203D1306A00680FF026FB55
:10373000F01D7530282111F04DFDF01D25302021A0
:1037400011F048FD204605F03FF8706A294611F057
:1037500041FDF01D4530808D002845D1B06A854679
:10376000FC1F053CA546F0BDF4613C69FD68B868E6
:103770007060F01D45300FF001FB316A086082B0C7
:10378000002000950190F01D7530F11D2531B268C3
:103790007368FFF7B9FE02B0012C0BD0002CF4695E
:1037A000BBD1306AC268F11D75310831706911F002
:1037B00001FDB2E7F068316986B00D4A7A440D4BDD
:1037C0007B440D4C7C44009101900294039304923D
:1037D000F21D75320832F4692046716907F0DEFD8A
:1037E00006B0002899D1014803F02FFC01D1000058
:1037F000453B0100013B0100BD3A0100F0B503AFBC
:10380000A5B06E46F11D85313162B360F260706122
:10381000FF250235284604F003FFB061C01D0721D3
:1038200088436946081A8546F061294604F004FF7A
:103830000546F41D5D34204612F024F8A0850004EE
:10384000B0692C4626D13461B468F568B8687060F8
:10385000F01D5D300FF092FA316A086084B01D48A7
:1038600078441D497944009501943469029103908C
:10387000F11D1D312046726806F0E6FD04B00028F7
:1038800023D0F21D1D322046716906F082FD00280A
:103890001BD0B06905460FF05BFAF11D5D3188421F
:1038A00003D1306A00680FF069FA204604F08CFFFB
:1038B000F069294611F08EFCF01D5D30808D0028E6
:1038C00004D1FC1F053CA546F0BD014803F0BDFB3B
:1038D00001D10000613A01001D3A0100F0B503AFCB
:1038E000A5B06E46F31D5D337361F2600C46306126
:1038F0006846B061F51D3535284611F0C3FFA8852F
:1039000000042DD1F01D35300FF038FA75692860AC
:10391000F01D65307060F11D15312246FFF76CFD1A
:103920006846B0606C46203CA546EB6882B000203B
:103930000090019072680832202520462946FEF743
:1039400055F902B082B02120F168009101903069F0
:10395000294622462B46FEF749F902B0B068854653
:103960000FF0F6F9F11D3531884203D17069006816
:103970000FF004FAF01D6530282111F02BFCF01D2A
:103980001530202111F026FCF01D3530808D0028E7
:1039900005D1B0698546FC1F053CA546F0BD03F086
:1039A00054FBD4D4F0B5B5B01E460C46054634924F
:1039B0006846079020AF384611F064FFB8850004D0
:1039C00043D1049620A80FF0D9F92A9001200023B2
:1039D00000930193059002902CAF2C4A3846069430
:1039E0002146FFF773FE4020019010AE0096294853
:1039F00078440D2120243A4623460EF0AFFE049869
:103A0000314622462B460EF045FF69682E460836A1
:103A100030460FF00DF8002834D16A681E49794409
:103A200030460EF0EFFF00282CD510A8203008A952
:103A30000A46D8C8D8C2D8C8D8C205980090019004
:103A400034AB2846069AFFF75FFD0FF081F920A9F5
:103A5000884202D12A980FF091F92CA820242146FF
:103A600011F0B8FB10A8402111F0B4FB08A82146C2
:103A700011F0B0FB20A8808D002804D1079885465E
:103A800035B0F0BD024803F0E0FAC046C9020000BC
:103A900001D10000513901001E380100F0B503AF1B
:103AA00095B06E46F31D15337361F2607160B061BD
:103AB0000124204604F0B4FD0546C01D07218843BB
:103AC0006946081A85463061B460214604F0B4FDA9
:103AD0003060F41D1D34204611F0D4FEA085000492
:103AE00034681AD1F01D1D300FF048F97169086370
:103AF000706830620223F0680028184600D1B06870
:103B0000B1697269116082B00090F21D15322046D1
:103B100006F0F8FC02B0002829D00FF019F9F11DC9
:103B20001D31884203D17069006B0FF027F92046E0
:103B300004F04AFE3069294611F04CFBF01D1D309F
:103B4000808D002814D12021B4692046FEF77BFF28
:103B5000002805D12021204600F010F8002803D0CD
:103B6000FC1F053CA546F0BD024803F06EFA024872
:103B700003F06BFA05B1000001D10000F0B503AF0E
:103B800085B06E46202922D10125B060284604F078
:103B900047FDF060C21D07218A43694631616946CD
:103BA000881A70608546294604F046FD0446B168CF
:103BB00005F048FB0546204604F006FE7068F168F3
:103BC00011F008FB681E85413069854600E000253C
:103BD0002846FC1F053CA546F0BDD4D4F0B503AF84
:103BE000BDB06E46F41DE534F461B360F26031613E
:103BF00070613E4C204604F013FD0546C01D0721B0
:103C000088436946081A85463062214604F014FD4F
:103C10007060F41DBD34204611F034FEA085000410
:103C200074683ED1B561BD68F01DBD300FF0A6F8D7
:103C3000F1690860F01D1D3020210EF005FDF11D19
:103C40007D31212320462A4604F0C6FD002847D0B6
:103C5000F01D7D304021FEF7F6FE002875693FD14A
:103C600086B0F01D1D300590F01D7D3004900020C1
:103C7000039002900190B0680090F3680833F11D42
:103C80003D312046326909F0D9FF06B000282AD01C
:103C9000F21D3D322046294605F09CF9002822D02D
:103CA000B5690FF055F8F11DBD31884203D1F069B7
:103CB00000680FF063F8F01D1D30202111F08AFA22
:103CC000204604F081FD306A294611F083FAF01D88
:103CD000BD30808D002807D1FC1F053CA546F0BDF6
:103CE000044803F0B2F9024803F0AFF90102000002
:103CF00001D1000005B1000010300F21884370474A
:103D0000F0B503AF9DB06E46F41D4134F4613361EC
:103D1000B0611546B26010350F2085436846441BDC
:103D2000A546204611F046FA7461B16860182C4629
:103D3000691ACAB211F046FAF51D1935284611F074
:103D4000A1FDA885000419D1B868F060F01D1930F4
:103D50000FF014F8F1690860F51D49353069F16814
:103D60002A460EF035FD82B0B069009001944521DD
:103D70002846726923460EF041FD02B00EF0E8FFBE
:103D8000F11D1931884203D1F06900680EF0F6FF89
:103D9000F01D4930242111F01DFAF01D1930808DDD
:103DA000002803D1FC1F053CA546F0BD03F04DF9EA
:103DB00070B59CB00D4604466E46304611F062FD6B
:103DC000B085000422D168460EF0D8FF0A906968D9
:103DD000284608300CAD40262A4633460EF07CFCBF
:103DE0002878F82101402970E87F7F210140E97798
:103DF000E87F3043E877202628463146FEF737FE35
:103E000061202946324623460EF044FD0EF0A0FF05
:103E10006946884202D10A980EF0B0FF0CA84021F2
:103E200011F0D8F96846808D002801D11CB070BD12
:103E300003F00BF910B514460B4A4B469A58012A69
:103E40000AD0002A0CD1342C01D0382C08D1FEF72E
:103E500039FE2018423010BD202C01D1492010BD60
:103E6000024803F0F2F8C0466000000005B100000F
:103E7000F0B587B01F460446059304923048494682
:103E800008580E9D0D990C9B01280FD0002851D188
:103E90001646382D039132D0342D38D102930F9B22
:103EA00000203422039903F04FF82DE01F46084606
:103EB0000E46294600F048F800283DD004A8082105
:103EC000FEF7D5FD0598207104992170020EE2716C
:103ED000020CA271000A6071080EE070080CA0705C
:103EE000080A6070204608302122394611F062F934
:103EF0002934204631462A4611F05CF91AE00020A8
:103F0000382202930FF03AF8029B002814D02122A5
:103F100020461946FEF7C0FD2046423003992A4646
:103F200011F048F9002000902819423032463B46F3
:103F3000FEF7DFFD07B0F0BD024803F086F8C0468B
:103F40006000000005B10000F0B503AF91B06E460F
:103F5000F41D3534202911D1F060F51D0D352846AA
:103F600011F090FCA88585B2002D09D0F01D0D3010
:103F70000021818520680EF001FF29E0002029E062
:103F80003561F01D0D30B0600EF0F8FE206068461F
:103F900070606D46483DAD4602202870681C2022A6
:103FA000F16811F007F94120294602460EF0B4FCF1
:103FB000706885460EF0CCFEB168884202D1206858
:103FC0000EF0DCFEF01D0D30808D0028356905D126
:103FD00068426841FC1F053CA546F0BD03F035F87A
:103FE000F0B503AFA3B06E46F11D79313161706059
:103FF0000124204604F014FBB060C01D0721884353
:104000006946081A8546F0607461214604F014FB85
:104010000446F51D5135284611F034FCA8850004EE
:10402000254610D1F01D51300EF0A8FE3169086010
:10403000F11D11312846726806F046F9411E88418B
:10404000F11D81310870B4680EF082FEF11D51310E
:10405000884203D1306900680EF090FE284604F0D3
:10406000B3FBF068214611F0B5F8F01D5130808D9A
:10407000002808D1F01D8130007871690840FC1FCC
:10408000053CA546F0BD02F0E0FFF0B503AF95B0EA
:104090006E460C46412901D0212C26D101217160A8
:1040A000B060084604F0BCFAF060C21D07218A43E4
:1040B0006946316169468D1AAD462846716804F03B
:1040C000BBFA7060F11D0D31B268234604F084FB29
:1040D0000446706804F078FB2846F16811F07AF81D
:1040E000601E84413069854600E000242046FC1FA4
:1040F000053CA546F0BDD4D4F0B5A9B00D460446A4
:104100006E46304611F0BEFBB08500041AD16846F9
:104110000EF034FE0A901848784402681FAF41261A
:10412000384629463346FFF73DFC0CAD01233046A7
:1041300029463A460EF0C4FB08350D9A304629460A
:104140000EF0D4FB0EF004FE6946884202D10A98B4
:104150000EF014FE1FA8282111F03CF86846808D4F
:10416000002807D10CA909312022204611F022F89D
:1041700029B0F0BD02F069FFF03A0100B0B5044685
:10418000092020721848002525606060204609300B
:1041900016497944122211F00DF8A5774320607773
:1041A000572020774D20E076204620301049794472
:1041B000062210F0FFFF204650300E4979442CC9EA
:1041C0002CC00D48784401684068A162E062204636
:1041D000303021462831E1652066084979442022A3
:1041E00010F0E8FFB0BDC04651020000BE31010032
:1041F000F81701007832010048320100383201001E
:10420000F0B581B0164604460D1A681E054205D168
:10421000B047294610F08CFE08460CE00020C04351
:10422000294610F0FFFD07464543B047A842FCD29F
:10423000394610F0F7FD001901B0F0BD80B503F06C
:10424000A9FA80BDB0B50546072028400024012802
:1042500015D0022815D10C48002908D04A4610185C
:104260000EF034FD28060AD50EF0DAF907E04946CB
:1042700008184121890000220EF052FD0446204614
:10428000B0BD022002F0E1FEB0060000F0B585B03E
:10429000DE4E4846805D0C2839DD0D2864D00E289E
:1042A00000D188E0152800D0D3E0D9484946081845
:1042B0008079012806D1484680198079000701D409
:1042C00000F027FDD34E4D460120A855AC1900271C
:1042D000676020460EF054FC606002200EF064FD22
:1042E0006060CD4C29194968002900D15AE3CB4AB6
:1042F000904200D1ACE3002800D1A9E34D462A1931
:1043000057608847A819FB49443141604EE30528AE
:1043100079D00C2800D09CE0F3494F460120785416
:104320007C180025656020460EF02AFC60600220A3
:104330000EF03AFD6060ED4C39194968002900D152
:1043400039E2EB4A904201D100F06FFC002801D124
:1043500000F06BFC4E46321955608847E248301831
:10436000E4494431416031E2DF4E4D460120A85519
:10437000AC190027676020460EF002FC6060022046
:104380000EF012FD6060D94C29194968002900D14E
:1043900084E0D74A904201D100F047FC002801D1C7
:1043A00000F043FC4D462A1957608847A819D149A7
:1043B000443141607DE0CC494E460120705475186F
:1043C00000276F6028460EF0DBFB686002200EF0CD
:1043D000EBFC04466860C54D70194168002900D1A6
:1043E000BCE0C348844200D11AE1002C00D117E19F
:1043F0004E467019476020468847BB483018BD4973
:1044000044314160AEE0B8494F46012078547C18F1
:104410000025656020460EF0B3FB606002200EF0C0
:10442000C3FC6060B14C39194968002900D165E1CD
:10443000AF4A904200D1F8E3002800D1F5E34E46A0
:10444000321955608847A8483018AA49443141605C
:104450005FE1A54E4D460120A855AC1900276760C5
:1044600020460EF08DFB606002200EF09DFC606027
:104470009E4C29194968002900D1F9E19C4A9042D3
:1044800000D14CE2002800D149E24D462A1957607C
:104490008847A819974944314160EDE19449884221
:1044A00000D1C2E3002800D1BFE39349884200D085
:1044B00020E348462546041903F060F803F068F845
:1044C0007A2004902752A06E002800D1ADE3484620
:1044D000801940688649884200D1A6E3002800D1AF
:1044E000A3E32C46484640196C26805D002800D185
:1044F0009BE3804F0EF0FCFAB84204D10EF02CFB87
:10450000B84200D091E348460019825D049D415BAA
:10451000914200D3DFE20846382778434A46131910
:104520009A6E101868331B6A002B06D09847002833
:104530000AD049460A19515B926E012802D188B20D
:104540004743D01903F026F948460019415B491C3E
:104550004153825D88B29042DED3BDE2654844306B
:1045600084425DD14846461903F008F803F010F87C
:104570007A2400203053B06E002800D155E348461D
:104580005949401840685A49884200D14DE30028F3
:1045900000D14AE3484640196C26805D002800D1CE
:1045A00043E3544F0EF0A4FAB84204D10EF0D4FA0B
:1045B000B84200D039E348464019825D015B914220
:1045C00000D388E20846382778434A4653199A6E42
:1045D000101868331B6A002B06D0984700280AD0B1
:1045E00049464A19115B926E012802D188B24743AD
:1045F000D01903F0CFF848464019015B491C01531C
:10460000825D88B29042DED366E2C046C4000000FC
:10461000B4070000F001000088020000445010B010
:104620004846411994200958002913D00A46643A93
:1046300000D23A464B465B191A5064290AD8902199
:104640005958002906D04A4652199823D358135076
:10465000002088472648844200D1E6E2002C00D1A1
:10466000E3E248464019806E002800D145E3484601
:1046700040196C24015D7A26805B884200D33CE3BC
:104680001C4F0EF035FAB84204D10EF065FAB8426C
:1046900000D032E348464019025D815B914200D36D
:1046A00026E30846382778434A4653199A6E10186D
:1046B00068331B6A002B06D0984700280AD0494669
:1046C0004A19915B926E012802D188B24743D019F2
:1046D00003F060F848464019815B491C8153025D34
:1046E00088B29042DED304E3F001000088020000AB
:1046F000445010B0115010B0555010B0F9498842D4
:1047000000D192E2002800D18FE2F749884200D020
:1047100031E24846071902F031FF02F039FF7A26EC
:10472000BD53B86E002800D17FE24846EF494018DB
:104730004068EC49884200D177E2002800D174E259
:10474000484600196C25405D002800D16DE2E84F15
:104750000EF0CEF9B84204D10EF0FEF9B84200D006
:1047600063E248460019425D815B914200D3B2E1A9
:104770000846382778434A4613199A6E101868334A
:104780001B6A002B06D0984700280AD049460A1910
:10479000915B926E012802D188B24743D01902F092
:1047A000F9FF48460019815B491C8153425D88B27C
:1047B0009042DED390E1CB49884200D135E2002817
:1047C00000D132E2C849884200D037E24846071992
:1047D00002F0D4FE02F0DCFE7A26BD53B86E00284B
:1047E00000D122E24846C14940184068BD4988428C
:1047F00000D11AE2002800D117E2484600196C25C2
:10480000405D002800D110E2B94F0EF071F9B842B6
:1048100004D10EF0A1F9B84200D006E248460019D2
:10482000425D815B914200D355E1084638277843C9
:104830004A4613199A6E101868331B6A002B06D06B
:10484000984700280AD049460A19915B926E0128C0
:1048500002D188B24743D01902F09CFF48460019A4
:10486000815B491C8153425D88B29042DED333E1C3
:104870009F494431884252D14846051902F07EFED4
:1048800002F086FE7A2004902F52A86E002800D1F4
:10489000CBE14846801940689249884200D1C4E182
:1048A000002800D1C1E1484600196C26805D00282F
:1048B00000D1BAE18E4F0EF01BF9B84204D10EF0D0
:1048C0004BF9B84200D0B0E148460019825D049D22
:1048D000415B914200D3FEE00846382778434A46C0
:1048E00013199A6E101868331B6A002B06D098476C
:1048F00000280AD049460A19515B926E012802D15C
:1049000088B24743D01902F045FF48460019415B81
:10491000491C4153825D88B29042DED3DCE04846B8
:104920000019806E002800D175E1484600196C25F9
:10493000415D7A26805B884200D36CE1F84F0EF02F
:10494000D7F8B84204D10EF007F9B84200D062E1BE
:1049500048460019425D815B914200D356E108460A
:10496000382778434A4613199A6E101868331B6A21
:10497000002B06D0984700280AD049460A19915BB7
:10498000926E012802D188B24743D01902F002FF8B
:1049900048460019815B491C8153425D88B29042B0
:1049A000DED334E1DE494431884251D1484605190D
:1049B00002F0E4FD02F0ECFD7A2004902F52A86E84
:1049C000002800D131E1484680194068D349884227
:1049D00000D12AE1002800D127E1484600196C26C1
:1049E000805D002800D120E1CD4F0EF081F8B84263
:1049F00004D10EF0B1F8B84200D016E148460019D3
:104A0000825D049D415B914265D208463827784318
:104A10004A4613199A6E101868331B6A002B06D089
:104A2000984700280AD049460A19515B926E01281E
:104A300002D188B24743D01902F0ACFE48460019B3
:104A4000415B491C4153825D88B29042DED343E012
:104A500048460019806E002800D1DCE04846001965
:104A60006C25415D7A26805B884200D3D3E0AC4F51
:104A70000EF03EF8B84204D10EF06EF8B84200D005
:104A8000C9E048460019425D815B914200D3BDE018
:104A90000846382778434A4613199A6E1018683327
:104AA0001B6A002B06D0984700280AD049460A19ED
:104AB000915B926E012802D188B24743D01902F06F
:104AC00069FE48460019815B491C8153425D88B2EA
:104AD0009042DED39BE00846904200D0A5E00EF065
:104AE000A5F8A2E0445010B0555010B0F0010000FD
:104AF000115010B048460019806E002800D18AE09D
:104B0000484600196C25415D7A26805B884200D3B7
:104B100081E0834F0DF0ECFFB84203D10EF01CF89A
:104B2000B84278D148460019425D815B91426DD20E
:104B30000846382778434A4613199A6E1018683386
:104B40001B6A002B06D0984700280AD049460A194C
:104B5000915B926E012802D188B24743D01902F0CE
:104B600019FE48460019815B491C8153425D88B299
:104B70009042DED34BE0484600198C214058002873
:104B800005D049468919C978490802F02BFE4846E4
:104B90000019806E00283ED0484600196C25415D02
:104BA0007A26805B884236D25D4F0DF0A1FFB84275
:104BB00003D10DF0D1FFB8422DD148460019425D16
:104BC000815B914222D20846382778434A4613191E
:104BD0009A6E101868331B6A002B06D0984700287D
:104BE0000AD049460A19915B926E012802D188B217
:104BF0004743D01902F0CEFD48460019815B491C9D
:104C00008153425D88B29042DED300E00846904274
:104C100001D10EF00BF8484600196C21415C7A2254
:104C2000805A884201D30EF067F80EF065F800282C
:104C300001D102F0E9FA012005B0F0BD4A4636483C
:104C400014186C25605D0490A06E03909219D379BE
:104C5000967951791079D278274668373F6A009261
:104C600001970002401882B23002C01883B2039844
:104C7000049902F005FDA06E274C002845D0484657
:104C80000019415D7A26805B88423ED2244F0DF0A8
:104C90002FFFB84203D10DF05FFFB84235D148462F
:104CA0000019425D815B91422AD208463827784339
:104CB0004A4613199A6E101868331B6A002B06D0E7
:104CC000984700280AD049460A19915B926E01283C
:104CD00002D188B24743D01902F05CFD4846001962
:104CE000815B491C8153425D88B29042DED308E06B
:104CF0000846904201D10DF099FF484640198CE7D3
:104D00000846904201D10DF091FF48460019415DDF
:104D100085E7102002F099F988020000445010B095
:104D2000115010B0D0B502AF90B06E46F31D3133C4
:104D30003D4A49468A189178012959D8D1780029E5
:104D400056D115793B4979440968A94250D1384A6E
:104D5000494689184A78FE21114002294BD1B36097
:104D6000F060E81D072188436946081A706085468F
:104D7000F41D0934204610F085FDA085000418D1EB
:104D8000F01D09300DF0FAFFB16808604946316046
:104D900027480818183074682146FDF791FC22480E
:104DA00031680818401D21462A4602F054F90028AF
:104DB0001ED174680DF0CCFFF11D0931884203D17A
:104DC000B06800680DF0DAFF2046294610F002FABC
:104DD000F01D0930808D00280FD1F4682088102143
:104DE000FDF70EFE00280AD06720000202F02DF920
:104DF0000E4802F02AF9D120000202F026F94946B5
:104E00000948081822888018094A8918891C102224
:104E100010F0D0F920881030208002F003F809202B
:104E2000000302F012F9C046B006000005B1000010
:104E300010060000AA230100D0B502AF90B06E4664
:104E4000F31D31333D4A49468A189178012959D8D2
:104E5000D178002956D115793B4979440968A9428E
:104E600050D1384A494689184A78FE211140022912
:104E70004BD1B360F060E81D072188436946081AEA
:104E800070608546F41D0934204610F0FBFCA085B7
:104E9000000418D1F01D09300DF070FFB1680860F2
:104EA0004946316027480818183074682146FDF7D4
:104EB00007FC224831680818401D21462A4602F0A6
:104EC000CAF800281ED174680DF042FFF11D0931A7
:104ED000884203D1B06800680DF050FF2046294693
:104EE00010F078F9F01D0930808D00280FD1F4689A
:104EF00020881021FDF784FD00280AD067200002D9
:104F000002F0A3F80E4802F0A0F8D120000202F04F
:104F10009CF849460948081822888018094A8918C7
:104F2000891C102210F046F92088103020800CF0E7
:104F300097FF0920000302F088F8C046B006000081
:104F400005B100004008000096220100D0B502AF74
:104F500082B06E460446224D4846401980780128AA
:104F600024D8484640190179C07808431ED11D480D
:104F70004946095CFE220A40022A1AD11B4979449B
:104F800009687160C91D072291436A46511A4A4651
:104F9000101818308D463160FDF792FB208871683B
:104FA000FDF72EFD002808D0672003E00E4802F030
:104FB0004CF8D120000202F048F8484640192188F8
:104FC000401822CE2A46083E10F0F4F820884019F6
:104FD000208001F027FF0920000302F036F8C046C8
:104FE000B00600001006000005B1000072210100AB
:104FF000D0B502AF82B06E460446224D48464019F5
:105000008078012824D8484640190179C07808439F
:105010001ED11D484946095CFE220A40022A1AD1C7
:105020001B49794409687160C91D072291436A468A
:10503000511A4A46101818308D463160FDF740FB72
:1050400020887168FDF7DCFC002808D0672003E0A9
:105050000E4801F0FAFFD120000201F0F6FF4846A9
:1050600040192188401822CE2A46083E10F0A2F8A6
:105070002088401920800CF0F3FE0920000301F085
:10508000E4FFC046B00600004008000005B1000083
:10509000CE200100F0B587B00C4606906A4948461C
:1050A00042189078012800D9A6E015796D48784417
:1050B00000686D49794409680E18731CAB4200D929
:1050C0009AE0D278614F4B46DB59012B05D0002B7B
:1050D0005D4F06D1022A04D38EE0002A5A4F00D039
:1050E0008AE04A46D2191018401DFEF7CEFF00286C
:1050F00000D181E04846C01980194079022804D3C4
:10510000801E012878D8092000E001200594514F25
:105110004946C95D002966D04946C9190C4618346C
:105120001CCC496A194314430C435CD14946C91944
:105130008A68C96811438019002958D0A8425BD8F1
:105140005DD145484C462018412110F043F8E01944
:105150004078002847D03D4640484C46271821213A
:105160000491384610F036F86519AA68EB6837489C
:1051700020180690007A00903846FDF7BAFC3846B1
:1051800010F0CAFB202103913954381800210291F4
:105190004170069E1B363846314610F08DFB304874
:1051A00027183846049910F015F82A696B69069893
:1051B000007A00903846FDF79CFC384610F0ACFBB6
:1051C000039939543818029941703846314610F025
:1051D00073FB062001F0A0FD059A10781021014311
:1051E000117007B0F0BDD120000201F02EFFA842DF
:1051F00002D1069800F03CF8154801F026FF1B4943
:10520000794409680E18711C114CA94218D84946F6
:105210000D4A89180818401DFEF7E2FE00280FD03D
:1052200048460A494158084A80188019407901299E
:1052300005D0002904D1002802D0012800E0002870
:10524000204601F002FFC046B006000060000000EA
:1052500005B10000E0080000AE0500006C0500008C
:105260008D050000DA3501005C2101000C200100F1
:10527000D0B502AFACB06E46F11D79313165AB49A6
:1052800079440B68AA4979440968CC18A54A49466B
:1052900089184A1D115D01297065F364B2640BDC45
:1052A00000294AD0012900D0C2E068460838854666
:1052B000012303700246BBE0022967D0032900D016
:1052C000B6E068467062F4630446183CA5460320C5
:1052D000207095484946B1630D18284610300821C2
:1052E0003163FDF7C4FB28696969617160700A0E5A
:1052F000756A2B46103B1A700A0CE271090A2A469D
:10530000123A1170010E2A46143A1170010CE17024
:10531000000A2946163908708248B16B0818F16BEB
:1053200008187061801DF060316BFDF7A0FBF0681C
:10533000416861730620726963E06C46F461103C59
:10534000A54600202070784849460D1828461030A0
:105350000821FDF78CFB28696969617160700A0E8C
:10536000F5692B46083B1A700A0CE271090A2A46B5
:105370000A3A1170010E2A460C3A1170010CE170C4
:10538000000A29460E390870092350E06846306249
:10539000F4630446183CA546022020706248494642
:1053A00071630D18284610300821F162FDF75FFB8C
:1053B00028696969617160700A0E356A2B46103B75
:1053C0001A700A0CE271090A2A46123A1170010E8B
:1053D0002A46143A1170010CE170000A2946163968
:1053E00008705048716B0818F16B08183061801D07
:1053F000B060F16AFDF73BFBB0684168617306205D
:105400003269105860720A0E2B46083B1A700A0C5B
:10541000E273090A2A460A3A1170010E2A460C3A2A
:105420001170010CE172000A0E3D28701123224612
:105430000720C4433F4878440168C81D20406D469A
:105440002D1AAD4682B00020009001902846FCF74E
:10545000CDFB02B03848784400687064C01D20401D
:105460006946081A30648546F41D5134204610F010
:1054700009FAA085000422D1F06CB16C0818B06262
:10548000F01D51300DF07AFC316D08602648494618
:10549000B1610918283121202022F41D81342346CE
:1054A0000DF0F8F982B0B06A00901E48B169081892
:1054B000431D306C29462246FEF790FB02B00DF0EA
:1054C00047FCF11D5131884203D1306D00680DF069
:1054D00055FCF01D813028210FF07CFEF01D51306D
:1054E000808D0028746D756C19D120882946FDF7D0
:1054F00087FA002803D06720000201F0A6FD484685
:105500000849401821884018316C2A460FF052FE95
:105510002088401920800DF0D5FD0920000301F0FE
:1055200094FDC046B0060000E00800000834010009
:105530008A1F0100F21D0100CE1D010082B0044649
:10554000254E48468019807801281ED84846801983
:105550000179C078084318D12049484645182846A3
:1055600009302188019110F0D7F9074620352846E7
:1055700010F0D2F93818811C0198FDF741FA002883
:1055800006D06720000201F060FD154801F05DFDC6
:1055900049468F1920883818104A8D182E4609362A
:1055A000314610F0B1F9304610F0B6F921884018B4
:1055B000401C208080B238182035294610F0A4F90C
:1055C000284610F0A9F921884018401C20800920A5
:1055D000000301F03AFDC046B00600006000000084
:1055E00005B10000D0B502AFA0B06E46F31D513337
:1055F0005F4D49464A199178012951D8D17800293F
:105600004ED14946491909795B4A7A4414682246C1
:105610002D328A4244D14946491905254959574AEC
:105620007A44126891423BD875624946504D4919F7
:105630004A7A534979440968914231D33262B3625C
:10564000F062002907D04A4652190A3213681BBA81
:1056500008C2491EFAD149464919231DC918706A62
:105660000A58491D496811431AD049464919611819
:10567000487C022814D23061B36149464919641844
:105680001234202120460DF0D3F9002808D13D49DD
:10569000794420222046F2600DF0B4F9002802D4AB
:1056A000344801F0D2FC746168462038F0618546C8
:1056B000F41D2934204610F0E5F8A085000429D116
:1056C000F01D29300DF05AFBB16A086048464019B8
:1056D000716A4158B160431DB4691A591B19F469C4
:1056E0005B6884B00A300090306A019030690290A3
:1056F000F01D59307060B168FDF7E8FF04B082B06A
:10570000F0680090204B7B442046716972680DF070
:10571000D5F902B00DF01CFBF11D2931884203D1EF
:10572000B06A00680DF02AFBF01D593020210FF0FF
:1057300051FDF01D2930808D0028B2D1F46A2088F7
:105740002021FDF75DF9002803D06720000201F059
:105750007CFC48464019218840182022F1690FF04E
:1057600029FD2088203020800920000301F06DFCF5
:10577000B006000005B10000161C01003C1C010031
:10578000E81B0100AC1B0100361B0100D0B502AFC5
:10579000A0B06E46F31D5133584D49464A199178D1
:1057A00001293CD8D178002939D1494649190979CC
:1057B000544A7A44146822460D328A422FD149460F
:1057C000491905254959504A7A441268914226D808
:1057D00035624946494D49194A7A4C497944096824
:1057E00091421CD3F261B362F062002907D04A46AD
:1057F00052190A3213681BBA08C2491EFAD1494627
:105800004919231DC918306A0A58491D49681143AE
:1058100005D0494649196018407C022802D338480F
:1058200001F013FC7061B360394878440068B061DE
:10583000C01D072188436946081A70628546F41D19
:105840002934204610F01EF8A085000427D1F01D51
:1058500029300DF093FAB16A086048464019316A60
:105860004158431D3361B4681A591D196B6884B0DF
:105870000A300090F069019070690290F01D593073
:10588000F060FDF723FF04B0306902596B681B4DCF
:1058900082B0F0680090706AFDF7B0FF02B00DF0C2
:1058A00057FAF11D2931884203D1B06A00680DF022
:1058B00065FAF01D593020210FF08CFCF01D2930C5
:1058C000808D0028ACD1F46A2088B169FDF798F882
:1058D000002803D06720000201F0B7FB48464019BA
:1058E00021884018716AB5692A460FF063FC208848
:1058F000401920800920000301F0A7FBB00600003A
:1059000005B100006E1A0100941A0100401A01004E
:10591000E2190100D0B502AF9CB06E46F31D3933D9
:105920003B4C494609198978012910D849460A197A
:10593000117904290BD1D178002908D149460919D8
:1059400005254A593449794409688A4202D93148BF
:1059500001F07BFB7560F36070613048784400684B
:105960003061C01D072188436946081AB06085462A
:10597000F51D113528460FF085FFA885000416D1C6
:10598000F01D11300DF0FAF9F16808604846001971
:1059900071684158224878440268F51D4135212339
:1059A0002846FDF7FFFFB0682946FDF793FD0DF08F
:1059B000CFF9F11D11318842756903D1F068006893
:1059C0000DF0DCF9F01D413028210FF003FCF01D33
:1059D0001130808D0028BBD1288835692946FDF714
:1059E0000FF8002803D06720000201F02EFB484684
:1059F0000019746921884018B1682A460FF0DAFB53
:105A00002088401920800920000301F01EFBC046B9
:105A1000B006000005B1000016190100B41801001D
:105A200016210100D0B502AFC6B06E46F31D4D334E
:105A300002468949484640188578012D00D9F7E08B
:105A4000C178002900D0F3E00179864878440468E1
:105A50000C348C4200D3EBE0B364B16248467E491B
:105A600040180523C058804979440968884200D904
:105A7000DEE0F3634846784940180921435809306D
:105A80004068184300D1D3E07164F264484672491B
:105A900040181130FEF7A4FA002800D1C8E04846AB
:105AA0006D4943187361706C1858B16A0A1BB26172
:105AB0001946093131614968FEF7BCF93063C01DF0
:105AC0000721C943F16108406946091A8D46726988
:105AD000706C1058B0603069436884B010190C467F
